{"abi":[{"inputs":[{"internalType":"address","name":"_dappTokenAddress","type":"address"},{"internalType":"address","name":"_ethAddress","type":"address"}],"stateMutability":"nonpayable","type":"constructor","name":"constructor"},{"anonymous":false,"inputs":[{"indexed":true,"internalType":"address","name":"previousOwner","type":"address"},{"indexed":true,"internalType":"address","name":"newOwner","type":"address"}],"name":"OwnershipTransferred","type":"event"},{"inputs":[],"name":"PoolBalance","outputs":[{"internalType":"uint256","name":"","type":"uint256"}],"stateMutability":"view","type":"function"},{"inputs":[],"name":"SecondToExpiry","outputs":[{"internalType":"uint256","name":"","type":"uint256"}],"stateMutability":"view","type":"function"},{"inputs":[{"internalType":"address","name":"_token","type":"address"}],"name":"addAllowedTokens","outputs":[],"stateMutability":"nonpayable","type":"function"},{"inputs":[{"internalType":"uint256","name":"","type":"uint256"}],"name":"allowedTokens","outputs":[{"internalType":"address","name":"","type":"address"}],"stateMutability":"view","type":"function"},{"inputs":[{"internalType":"uint256","name":"","type":"uint256"},{"internalType":"uint256","name":"","type":"uint256"}],"name":"bids","outputs":[{"internalType":"uint256","name":"price","type":"uint256"},{"internalType":"uint256","name":"size","type":"uint256"},{"internalType":"address","name":"user_id","type":"address"}],"stateMutability":"view","type":"function"},{"inputs":[],"name":"cancelBid","outputs":[],"stateMutability":"nonpayable","type":"function"},{"inputs":[{"internalType":"address","name":"","type":"address"}],"name":"cash_balance","outputs":[{"internalType":"uint256","name":"","type":"uint256"}],"stateMutability":"view","type":"function"},{"inputs":[],"name":"dappToken","outputs":[{"internalType":"contract IERC20","name":"","type":"address"}],"stateMutability":"view","type":"function"},{"inputs":[],"name":"deposit","outputs":[],"stateMutability":"payable","type":"function"},{"inputs":[],"name":"ethAddress","outputs":[{"internalType":"address","name":"","type":"address"}],"stateMutability":"view","type":"function"},{"inputs":[],"name":"ethPrice","outputs":[{"internalType":"uint256","name":"","type":"uint256"}],"stateMutability":"view","type":"function"},{"inputs":[],"name":"exercise","outputs":[],"stateMutability":"nonpayable","type":"function"},{"inputs":[{"internalType":"uint256","name":"seller_size","type":"uint256"}],"name":"getBestBid","outputs":[{"internalType":"uint256","name":"average_bid","type":"uint256"}],"stateMutability":"view","type":"function"},{"inputs":[],"name":"getBid","outputs":[{"internalType":"uint256","name":"","type":"uint256"}],"stateMutability":"view","type":"function"},{"inputs":[],"name":"getETH","outputs":[{"internalType":"uint256","name":"","type":"uint256"}],"stateMutability":"view","type":"function"},{"inputs":[],"name":"getEthPrice","outputs":[],"stateMutability":"nonpayable","type":"function"},{"inputs":[],"name":"getOrder","outputs":[{"internalType":"uint256[]","name":"","type":"uint256[]"}],"stateMutability":"view","type":"function"},{"inputs":[],"name":"getSupply","outputs":[{"internalType":"uint256","name":"","type":"uint256"}],"stateMutability":"view","type":"function"},{"inputs":[{"internalType":"address","name":"_token","type":"address"}],"name":"getTokenValue","outputs":[{"internalType":"uint256","name":"","type":"uint256"},{"internalType":"uint256","name":"","type":"uint256"}],"stateMutability":"view","type":"function"},{"inputs":[{"internalType":"address","name":"_user","type":"address"},{"internalType":"address","name":"_token","type":"address"}],"name":"getUserSingleTokenValue","outputs":[{"internalType":"uint256","name":"","type":"uint256"}],"stateMutability":"view","type":"function"},{"inputs":[{"internalType":"address","name":"_user","type":"address"}],"name":"getUserTotalValue","outputs":[{"internalType":"uint256","name":"","type":"uint256"}],"stateMutability":"view","type":"function"},{"inputs":[],"name":"issueTokens","outputs":[],"stateMutability":"nonpayable","type":"function"},{"inputs":[{"internalType":"uint256","name":"","type":"uint256"}],"name":"op","outputs":[{"internalType":"uint256","name":"strike","type":"uint256"},{"internalType":"uint256","name":"expiry","type":"uint256"},{"internalType":"uint256","name":"supply","type":"uint256"}],"stateMutability":"view","type":"function"},{"inputs":[],"name":"owner","outputs":[{"internalType":"address","name":"","type":"address"}],"stateMutability":"view","type":"function"},{"inputs":[{"internalType":"uint256","name":"newbid","type":"uint256"},{"internalType":"uint256","name":"premium","type":"uint256"}],"name":"placeBid","outputs":[],"stateMutability":"nonpayable","type":"function"},{"inputs":[],"name":"renounceOwnership","outputs":[],"stateMutability":"nonpayable","type":"function"},{"inputs":[{"internalType":"uint256","name":"seller_size","type":"uint256"}],"name":"sellBid","outputs":[],"stateMutability":"nonpayable","type":"function"},{"inputs":[{"internalType":"uint256","name":"_eth","type":"uint256"}],"name":"setFakeETH","outputs":[],"stateMutability":"nonpayable","type":"function"},{"inputs":[{"internalType":"address","name":"_token","type":"address"},{"internalType":"address","name":"_priceFeed","type":"address"}],"name":"setPriceFeedContract","outputs":[],"stateMutability":"nonpayable","type":"function"},{"inputs":[],"name":"settlement_amount","outputs":[{"internalType":"uint256","name":"","type":"uint256"}],"stateMutability":"view","type":"function"},{"inputs":[{"internalType":"uint256","name":"_amount","type":"uint256"},{"internalType":"address","name":"_token","type":"address"}],"name":"stakeTokens","outputs":[],"stateMutability":"nonpayable","type":"function"},{"inputs":[{"internalType":"uint256","name":"","type":"uint256"}],"name":"stakers","outputs":[{"internalType":"address","name":"","type":"address"}],"stateMutability":"view","type":"function"},{"inputs":[{"internalType":"address","name":"","type":"address"},{"internalType":"address","name":"","type":"address"}],"name":"stakingBalance","outputs":[{"internalType":"uint256","name":"","type":"uint256"}],"stateMutability":"view","type":"function"},{"inputs":[{"internalType":"address","name":"_token","type":"address"}],"name":"tokenIsAllowed","outputs":[{"internalType":"bool","name":"","type":"bool"}],"stateMutability":"nonpayable","type":"function"},{"inputs":[{"internalType":"address","name":"","type":"address"}],"name":"tokenPriceFeedMapping","outputs":[{"internalType":"address","name":"","type":"address"}],"stateMutability":"view","type":"function"},{"inputs":[{"internalType":"address","name":"newOwner","type":"address"}],"name":"transferOwnership","outputs":[],"stateMutability":"nonpayable","type":"function"},{"inputs":[{"internalType":"address","name":"","type":"address"}],"name":"uniqueTokensStaked","outputs":[{"internalType":"uint256","name":"","type":"uint256"}],"stateMutability":"view","type":"function"},{"inputs":[{"internalType":"address","name":"_token","type":"address"}],"name":"unstakeTokens","outputs":[],"stateMutability":"nonpayable","type":"function"},{"inputs":[{"internalType":"address","name":"","type":"address"},{"internalType":"uint256","name":"","type":"uint256"}],"name":"user","outputs":[{"internalType":"uint256","name":"size","type":"uint256"},{"internalType":"enum TokenFarm.option_side","name":"side","type":"uint8"},{"internalType":"uint256","name":"unusedpremium","type":"uint256"}],"stateMutability":"view","type":"function"},{"inputs":[{"internalType":"address","name":"_user","type":"address"}],"name":"userBalance","outputs":[{"internalType":"uint256","name":"","type":"uint256"}],"stateMutability":"view","type":"function"},{"inputs":[{"internalType":"address","name":"_user","type":"address"}],"name":"userSize","outputs":[{"internalType":"uint256","name":"","type":"uint256"}],"stateMutability":"view","type":"function"},{"inputs":[{"internalType":"address","name":"_user","type":"address"}],"name":"userUnusedPremium","outputs":[{"internalType":"uint256","name":"","type":"uint256"}],"stateMutability":"view","type":"function"},{"inputs":[{"internalType":"address","name":"_token","type":"address"}],"name":"viewStakedToken","outputs":[{"internalType":"uint256","name":"","type":"uint256"}],"stateMutability":"nonpayable","type":"function"}],"bytecode":"60806040526006805460ff60a01b191690556000600d553480156200002357600080fd5b5060405162003baf38038062003baf8339810160408190526200004691620002ed565b620000513362000219565b600680546001600160a01b0384166001600160a01b0319918216179091556008805490911630179055604080516080810190915268b2e4b323d9c5100000815260009060208101620000a7426201518062000325565b815260200160008152602001600e8054806020026020016040519081016040528092919081815260200182805480156200010157602002820191906000526020600020905b815481526020019060010190808311620000ec575b505050919092525050600c8054600181018255600091909152815160049091027fdf6966c971051c3d54ec59162606531493a51404a002842f56009d7e5cf4a8c781019182556020808401517fdf6966c971051c3d54ec59162606531493a51404a002842f56009d7e5cf4a8c883015560408401517fdf6966c971051c3d54ec59162606531493a51404a002842f56009d7e5cf4a8c9830155606084015180519495508594620001d9937fdf6966c971051c3d54ec59162606531493a51404a002842f56009d7e5cf4a8ca0192919091019062000269565b505033600090815260096020526040902062030d4090555050601180546001600160a01b0319166001600160a01b0392909216919091179055506200034c565b600080546001600160a01b038381166001600160a01b0319831681178455604051919092169283917f8be0079c531659141344cd1fd0a4f28419497f9722a3daafe3b4186f6b6457e09190a35050565b828054828255906000526020600020908101928215620002a7579160200282015b82811115620002a75782518255916020019190600101906200028a565b50620002b5929150620002b9565b5090565b5b80821115620002b55760008155600101620002ba565b80516001600160a01b0381168114620002e857600080fd5b919050565b600080604083850312156200030157600080fd5b6200030c83620002d0565b91506200031c60208401620002d0565b90509250929050565b600082198211156200034757634e487b7160e01b600052601160045260246000fd5b500190565b613853806200035c6000396000f3fe60806040526004361061025c5760003560e01c8063704bba6911610144578063d0e30db0116100b6578063f1c5d6c21161007a578063f1c5d6c2146107a2578063f2758344146107d7578063f2fde38b1461081d578063f67023561461083d578063fd5e6dd11461086a578063ff186b2e1461088a57600080fd5b8063d0e30db014610713578063d32cb0fe1461071b578063d36dedd214610730578063dd5b846714610752578063f14e96f11461078257600080fd5b80637e7f320d116101085780637e7f320d1461065e578063877dd39d146106735780638da5cb5b146106935780639435c887146106b1578063af3f5e22146106c6578063b83e0234146106e657600080fd5b8063704bba69146105af578063715018a6146105cf5780637b3889e7146105e45780637b3c4baa146105fa5780637b468de61461063e57600080fd5b806329161a00116101dd57806357c90de5116101a157806357c90de5146105105780635e5f2e26146105305780635eb186f81461055057806360ab58521461057057806367c9b017146105855780636c9c2faf1461059a57600080fd5b806329161a001461041c5780632d1ad8b814610454578063387eadae1461047457806341398b15146104af5780634f0dcd39146104cf57600080fd5b806316ed0f721161022457806316ed0f721461034f578063171e44ea1461036f5780631be0819c1461038f578063276b11da146103ae57806327927b3e146103ce57600080fd5b80630103c92b14610261578063099a019d146102aa5780630bea440d146102bf57806314f6c3be146102e157806314feaa9d146102f6575b600080fd5b34801561026d57600080fd5b5061029761027c3660046133b2565b6001600160a01b031660009081526009602052604090205490565b6040519081526020015b60405180910390f35b3480156102b657600080fd5b506102976108a0565b3480156102cb57600080fd5b506102df6102da3660046133d4565b610955565b005b3480156102ed57600080fd5b50610297610b45565b34801561030257600080fd5b50610340610311366004613400565b600b602090815260009283526040808420909152908252902080546001820154600290920154909160ff169083565b6040516102a193929190613440565b34801561035b57600080fd5b506102df61036a366004613476565b600755565b34801561037b57600080fd5b506102df61038a3660046133b2565b610b7c565b34801561039b57600080fd5b506008546001600160a01b031631610297565b3480156103ba57600080fd5b506102976103c936600461348f565b610bf8565b3480156103da57600080fd5b506104046103e93660046133b2565b6003602052600090815260409020546001600160a01b031681565b6040516001600160a01b0390911681526020016102a1565b34801561042857600080fd5b5061029761043736600461348f565b600160209081526000928352604080842090915290825290205481565b34801561046057600080fd5b506102df61046f3660046133b2565b610c7f565b34801561048057600080fd5b5061049461048f366004613476565b610ddd565b604080519384526020840192909252908201526060016102a1565b3480156104bb57600080fd5b50601154610404906001600160a01b031681565b3480156104db57600080fd5b506102976104ea3660046133b2565b6001600160a01b0316600090815260016020908152604080832033845290915290205490565b34801561051c57600080fd5b506102df61052b3660046134b9565b610e10565b34801561053c57600080fd5b5061040461054b366004613476565b61119d565b34801561055c57600080fd5b50600654610404906001600160a01b031681565b34801561057c57600080fd5b506102df6111c7565b34801561059157600080fd5b506102df6112c4565b3480156105a657600080fd5b506102976112f9565b3480156105bb57600080fd5b506102df6105ca366004613476565b611327565b3480156105db57600080fd5b506102df611e66565b3480156105f057600080fd5b5061029760105481565b34801561060657600080fd5b5061061a6106153660046134b9565b611e9c565b6040805193845260208401929092526001600160a01b0316908201526060016102a1565b34801561064a57600080fd5b506102976106593660046133b2565b611ee7565b34801561066a57600080fd5b50610297611f3b565b34801561067f57600080fd5b506102df61068e36600461348f565b611f74565b34801561069f57600080fd5b506000546001600160a01b0316610404565b3480156106bd57600080fd5b506102df611fcc565b3480156106d257600080fd5b506102976106e13660046133b2565b612454565b3480156106f257600080fd5b506102976107013660046133b2565b60026020526000908152604090205481565b6102df612512565b34801561072757600080fd5b506102df61257b565b34801561073c57600080fd5b5061074561298f565b6040516102a191906134db565b34801561075e57600080fd5b5061077261076d3660046133b2565b612a0b565b60405190151581526020016102a1565b34801561078e57600080fd5b5061029761079d366004613476565b612a75565b3480156107ae57600080fd5b506107c26107bd3660046133b2565b612db3565b604080519283526020830191909152016102a1565b3480156107e357600080fd5b506102976107f23660046133b2565b6001600160a01b03166000908152600b60209081526040808320600d54845290915290206002015490565b34801561082957600080fd5b506102df6108383660046133b2565b612eb4565b34801561084957600080fd5b506102976108583660046133b2565b60096020526000908152604090205481565b34801561087657600080fd5b50610404610885366004613476565b612f4c565b34801561089657600080fd5b5061029760075481565b6000600a6000600d548152602001908152602001600020600c600d54815481106108cc576108cc61351f565b90600052602060002090600402016003016001600c600d54815481106108f4576108f461351f565b906000526020600020906004020160030180549050610913919061354b565b815481106109235761092361351f565b90600052602060002001548154811061093e5761093e61351f565b906000526020600020906003020160000154905090565b600082116109aa5760405162461bcd60e51b815260206004820152601a60248201527f416d6f756e74206d757374206265206d6f7265207468616e203000000000000060448201526064015b60405180910390fd5b6109b381612a0b565b6109ff5760405162461bcd60e51b815260206004820152601d60248201527f546f6b656e2069732063757272656e746c79206e6f20616c6c6f77656400000060448201526064016109a1565b6040516323b872dd60e01b8152336004820152306024820152604481018390526001600160a01b038216906323b872dd906064016020604051808303816000875af1158015610a52573d6000803e3d6000fd5b505050506040513d601f19601f82011682018060405250810190610a769190613562565b50610a813382612f5c565b6001600160a01b0381166000908152600160209081526040808320338452909152902054610ab0908390613584565b6001600160a01b038216600090815260016020818152604080842033855282528084209490945560029052919020541415610b2857600480546001810182556000919091527f8a35acfbc15ff81a39ae7d344fd709f28e8600b4aa8c65c6b64bfe7fe36bd19b0180546001600160a01b031916331790555b610b3133612454565b336000908152600960205260409020555050565b60115460009081908190610b61906001600160a01b0316612db3565b9092509050610b75826402540be40061359c565b9250505090565b6000546001600160a01b03163314610ba65760405162461bcd60e51b81526004016109a1906135bb565b600580546001810182556000919091527f036b6384b5eca791c62761152d0c79bb0604c104a5fb6f4eb0703f3154bb3db00180546001600160a01b0319166001600160a01b0392909216919091179055565b6001600160a01b038216600090815260026020526040812054610c1d57506000610c79565b600080610c2984612db3565b9092509050610c3981600a6136d4565b6001600160a01b038086166000908152600160209081526040808320938a1683529290522054610c6a90849061359c565b610c7491906136e0565b925050505b92915050565b6001600160a01b038116600090815260016020908152604080832033845290915290205480610cf05760405162461bcd60e51b815260206004820152601860248201527f436173682062616c616e63652063616e6e6f742062652030000000000000000060448201526064016109a1565b60405163a9059cbb60e01b8152336004820152602481018290526001600160a01b0383169063a9059cbb906044016020604051808303816000875af1158015610d3d573d6000803e3d6000fd5b505050506040513d601f19601f82011682018060405250810190610d619190613562565b50610d6c3383610bf8565b3360009081526009602052604081208054909190610d8b90849061354b565b90915550506001600160a01b03821660009081526001602081815260408084203385528252808420849055600290915290912054610dc9919061354b565b336000908152600260205260409020555050565b600c8181548110610ded57600080fd5b600091825260209091206004909102018054600182015460029092015490925083565b33610e1c600a4261354b565b600c600d5481548110610e3157610e3161351f565b90600052602060002090600402016001015411610e605760405162461bcd60e51b81526004016109a190613702565b60026001600160a01b0382166000908152600b60209081526040808320600d54845290915290206001015460ff166003811115610e9f57610e9f61342a565b1415610eed5760405162461bcd60e51b815260206004820152601b60248201527f73656c6c6572206f66206f7074696f6e2063616e6e6f7420627579000000000060448201526064016109a1565b6064821015610f2f5760405162461bcd60e51b815260206004820152600e60248201526d04d696e2073697a65203d203130360941b60448201526064016109a1565b6001600160a01b038116600090815260096020526040902054821115610f895760405162461bcd60e51b815260206004820152600f60248201526e0dcdee840cadcdeeaced040c6c2e6d608b1b60448201526064016109a1565b6001600160a01b0381166000908152600b60209081526040808320600d8054855292528083206001908101805460ff191690911790559054825281206002018054849290610fd8908490613584565b90915550506001600160a01b0381166000908152600960205260408120805484929061100590849061354b565b92505081905550600083600c600d54815481106110245761102461351f565b90600052602060002090600402016000015484611041919061359c565b61104b91906136e0565b905080600c600d54815481106110635761106361351f565b906000526020600020906004020160020160008282546110839190613584565b9091555050600d80546000908152600a6020908152604080832081516060810183528981528084018781526001600160a01b038981169483019485528354600180820186559488529590962091516003909502909101938455519083015551600290910180546001600160a01b0319169190921617905554600c805490919081106111105761111061351f565b600091825260209091206003600490920201015461118e57600c600d548154811061113d5761113d61351f565b90600052602060002090600402016003016001600a6000600d54815260200190815260200160002080549050611173919061354b565b81546001810183556000928352602090922090910155611197565b61119784612fc8565b50505050565b600581815481106111ad57600080fd5b6000918252602090912001546001600160a01b0316905081565b6000546001600160a01b031633146111f15760405162461bcd60e51b81526004016109a1906135bb565b60005b6004548110156112c1576000600482815481106112135761121361351f565b60009182526020822001546001600160a01b0316915061123282612454565b60065460405163a9059cbb60e01b81526001600160a01b0385811660048301526024820184905292935091169063a9059cbb906044016020604051808303816000875af1158015611287573d6000803e3d6000fd5b505050506040513d601f19601f820116820180604052508101906112ab9190613562565b50505080806112b990613748565b9150506111f4565b50565b60115460009081906112de906001600160a01b0316612db3565b90925090506112f2826402540be40061359c565b6007555050565b6000600c600d54815481106113105761131061351f565b906000526020600020906004020160020154905090565b60003390506000600c600d54815481106113435761134361351f565b906000526020600020906004020160030180549050116113a55760405162461bcd60e51b815260206004820152601e60248201527f63616e6e6f742073656c6c206966207468657265206973206e6f20626964000060448201526064016109a1565b6113b0600a4261354b565b600c600d54815481106113c5576113c561351f565b906000526020600020906004020160010154116113f45760405162461bcd60e51b81526004016109a190613702565b60016001600160a01b0382166000908152600b60209081526040808320600d54845290915290206001015460ff1660038111156114335761143361342a565b14156114815760405162461bcd60e51b815260206004820152601b60248201527f6275796572206f66206f7074696f6e2063616e6e6f742073656c6c000000000060448201526064016109a1565b6103e88210156114c55760405162461bcd60e51b815260206004820152600f60248201526e04d696e2073697a65203d203130303608c1b60448201526064016109a1565b600c600d54815481106114da576114da61351f565b9060005260206000209060040201600201548211156115285760405162461bcd60e51b815260206004820152600a6024820152696c6f7720737570706c7960b01b60448201526064016109a1565b6001600160a01b0381166000908152600960205260409020548211156115825760405162461bcd60e51b815260206004820152600f60248201526e0dcdee840cadcdeeaced040c6c2e6d608b1b60448201526064016109a1565b6001600160a01b038116600090815260096020526040812080548492906115aa90849061354b565b925050819055506000829050600080806001600c600d54815481106115d1576115d161351f565b9060005260206000209060040201600301805490506115f0919061354b565b90505b8315611dc757600d546000818152600a60205260409020600c80549192909181106116205761162061351f565b906000526020600020906004020160030182815481106116425761164261351f565b90600052602060002001548154811061165d5761165d61351f565b9060005260206000209060030201600101549150818410611a3d57600d546000818152600a60205260408120600c80548694600b9493929181106116a3576116a361351f565b906000526020600020906004020160030185815481106116c5576116c561351f565b9060005260206000200154815481106116e0576116e061351f565b60009182526020808320600260039093020191909101546001600160a01b031683528281019390935260409182018120600d5482529092528120805490919061172a908490613584565b92505081905550600c600d54815481106117465761174661351f565b906000526020600020906004020160000154600a6000600d548152602001908152602001600020600c600d54815481106117825761178261351f565b906000526020600020906004020160030183815481106117a4576117a461351f565b9060005260206000200154815481106117bf576117bf61351f565b906000526020600020906003020160000154836117dc919061359c565b6117e691906136e0565b600d546000818152600a60205260408120600c8054600b9490811061180d5761180d61351f565b9060005260206000209060040201600301858154811061182f5761182f61351f565b90600052602060002001548154811061184a5761184a61351f565b6000918252602080832060026003909302018201546001600160a01b031684528381019490945260409283018220600d548352909352908120909101805490919061189690849061354b565b9091555050600d546000818152600a60205260409020600c80549192909181106118c2576118c261351f565b906000526020600020906004020160030182815481106118e4576118e461351f565b9060005260206000200154815481106118ff576118ff61351f565b9060005260206000209060030201600001548261191c919061359c565b6119269084613584565b925081600c600d548154811061193e5761193e61351f565b9060005260206000209060040201600201600082825461195e919061354b565b9091555050600d546000818152600a60205260408120600c805492939192909190811061198d5761198d61351f565b906000526020600020906004020160030183815481106119af576119af61351f565b9060005260206000200154815481106119ca576119ca61351f565b906000526020600020906003020160010181905550600c600d54815481106119f4576119f461351f565b9060005260206000209060040201600301805480611a1457611a14613763565b600190038181906000526020600020016000905590558184611a36919061354b565b9350611db5565b600d546000818152600a60205260408120600c80548894600b949392918110611a6857611a6861351f565b90600052602060002090600402016003018581548110611a8a57611a8a61351f565b906000526020600020015481548110611aa557611aa561351f565b60009182526020808320600260039093020191909101546001600160a01b031683528281019390935260409182018120600d54825290925281208054909190611aef908490613584565b92505081905550600c600d5481548110611b0b57611b0b61351f565b906000526020600020906004020160000154600a6000600d548152602001908152602001600020600c600d5481548110611b4757611b4761351f565b90600052602060002090600402016003018381548110611b6957611b6961351f565b906000526020600020015481548110611b8457611b8461351f565b90600052602060002090600302016000015485611ba1919061359c565b611bab91906136e0565b600d546000818152600a60205260408120600c8054600b94908110611bd257611bd261351f565b90600052602060002090600402016003018581548110611bf457611bf461351f565b906000526020600020015481548110611c0f57611c0f61351f565b6000918252602080832060026003909302018201546001600160a01b031684528381019490945260409283018220600d5483529093529081209091018054909190611c5b90849061354b565b9091555050600d546000818152600a60205260409020600c8054919290918110611c8757611c8761351f565b90600052602060002090600402016003018281548110611ca957611ca961351f565b906000526020600020015481548110611cc457611cc461351f565b90600052602060002090600302016000015484611ce1919061359c565b611ceb9084613584565b925083600c600d5481548110611d0357611d0361351f565b90600052602060002090600402016002016000828254611d23919061354b565b9091555050600d546000818152600a60205260409020600c80548793908110611d4e57611d4e61351f565b90600052602060002090600402016003018381548110611d7057611d7061351f565b906000526020600020015481548110611d8b57611d8b61351f565b90600052602060002090600302016001016000828254611dab919061354b565b9091555060009450505b80611dbf81613779565b9150506115f3565b611dcf6112c4565b600754611ddc818861359c565b611de69085613584565b611df091906136e0565b6001600160a01b0386166000908152600b60209081526040808320600d54845290915281208054909190611e25908490613584565b909155505050506001600160a01b03929092166000908152600b60209081526040808320600d5484529091529020600101805460ff19166002179055505050565b6000546001600160a01b03163314611e905760405162461bcd60e51b81526004016109a1906135bb565b611e9a6000613346565b565b600a6020528160005260406000208181548110611eb857600080fd5b60009182526020909120600390910201805460018201546002909201549093509091506001600160a01b031683565b6000600c600d5481548110611efe57611efe61351f565b600091825260208083206004909202909101546001600160a01b0385168352600b82526040808420600d548552909252912054610c7991906136e0565b600042600c600d5481548110611f5357611f5361351f565b906000526020600020906004020160010154611f6f919061354b565b905090565b6000546001600160a01b03163314611f9e5760405162461bcd60e51b81526004016109a1906135bb565b6001600160a01b03918216600090815260036020526040902080546001600160a01b03191691909216179055565b336000600654600160a01b900460ff166001811115611fed57611fed61342a565b1461203a5760405162461bcd60e51b815260206004820152601e60248201527f636f6e747261637420627573792c2074727920616761696e206c61746572000060448201526064016109a1565b60016001600160a01b0382166000908152600b60209081526040808320600d54845290915290206001015460ff1660038111156120795761207961342a565b146120c65760405162461bcd60e51b815260206004820152601c60248201527f796f75206e65656420746f20627579206f7074696f6e2066697273740000000060448201526064016109a1565b6001600160a01b0381166000908152600b60209081526040808320600d54845290915290206002015461214a5760405162461bcd60e51b815260206004820152602660248201527f796f7572206f64657220686173206265656e2066696c6c6564206f722063616e60448201526518d95b1b195960d21b60648201526084016109a1565b6006805460ff60a01b1916600160a01b1790556001600160a01b0381166000818152600b60209081526040808320600d5484528252808320600201549383526009909152812080549091906121a0908490613584565b90915550506001600160a01b0381166000908152600b60209081526040808320600d805485529252822060020182905554600c805490919081106121e6576121e661351f565b906000526020600020906004020160030180548060200260200160405190810160405280929190818152602001828054801561224157602002820191906000526020600020905b81548152602001906001019080831161222d575b505050505090506000805b82518110156123cb57836001600160a01b0316600a6000600d5481526020019081526020016000208483815181106122865761228661351f565b60200260200101518154811061229e5761229e61351f565b60009182526020909120600260039092020101546001600160a01b03161461232f578281815181106122d2576122d261351f565b6020026020010151600c600d54815481106122ef576122ef61351f565b906000526020600020906004020160030183815481106123115761231161351f565b6000918252602090912001558161232781613748565b9250506123b9565b600d546000908152600a6020526040902083518490839081106123545761235461351f565b60200260200101518154811061236c5761236c61351f565b906000526020600020906003020160010154600c600d54815481106123935761239361351f565b906000526020600020906004020160020160008282546123b3919061354b565b90915550505b806123c381613748565b91505061224c565b5060005b8183516123dc919061354b565b81101561244157600c600d54815481106123f8576123f861351f565b906000526020600020906004020160030180548061241857612418613763565b60019003818190600052602060002001600090559055808061243990613748565b9150506123cf565b50506006805460ff60a01b191690555050565b6001600160a01b03811660009081526002602052604081205481906124af5760405162461bcd60e51b81526020600482015260116024820152704e6f20746f6b656e73207374616b65642160781b60448201526064016109a1565b60005b60055481101561250b576124ed84600583815481106124d3576124d361351f565b6000918252602090912001546001600160a01b0316610bf8565b6124f79083613584565b91508061250381613748565b9150506124b2565b5092915050565b6101f43410156125555760405162461bcd60e51b815260206004820152600e60248201526d04d696e2073697a65203d203530360941b60448201526064016109a1565b3360009081526009602052604081208054349290612574908490613584565b9091555050565b336000818152600b60209081526040808320600d54845290915290206001015460ff1660028160038111156125b2576125b261342a565b14806125cf575060018160038111156125cd576125cd61342a565b145b6126125760405162461bcd60e51b81526020600482015260146024820152732cb7ba903430bb32903737903837b9b4ba34b7b760611b60448201526064016109a1565b42600c600d54815481106126285761262861351f565b90600052602060002090600402016001015411156126885760405162461bcd60e51b815260206004820152601d60248201527f43616e6e6f74206578657263697365206265666f72652065787069727900000060448201526064016109a1565b600381600381111561269c5761269c61342a565b14156126ea5760405162461bcd60e51b815260206004820152601760248201527f596f7520616c726561647920657863657263697365642000000000000000000060448201526064016109a1565b6001600160a01b0382166000908152600b60209081526040808320600d548085529252822054600c8054919392909181106127275761272761351f565b60009182526020909120600490910201549050600183600381111561274e5761274e61342a565b141561283257600082116127b75760405162461bcd60e51b815260206004820152602a60248201527f4e6f206f6e652073656c6c20796f75722062696420616e64206e6f7468696e6760448201526920746f2065787069726560b01b60648201526084016109a1565b80600754106127fc5760405162461bcd60e51b815260206004820152601160248201527045787069726520776f727468207a65726f60781b60448201526064016109a1565b6001600160a01b0384166000908152600b60209081526040808320600d5484529091529020600201541561283257612832611fcc565b60028360038111156128465761284661342a565b14156128d7578060075410156128a05761286081836136e0565b6001600160a01b03851660009081526009602052604081208054909190612888908490613584565b90915550612898905081836136e0565b601055612958565b6001600160a01b038416600090815260096020526040812080548492906128c8908490613584565b90915550506010829055612958565b8060075410156129585780600754826128f0919061354b565b6128fa908461359c565b61290491906136e0565b6001600160a01b0385166000908152600960205260408120805490919061292c908490613584565b90915550506007548190612940908261354b565b61294a908461359c565b61295491906136e0565b6010555b5050506001600160a01b03166000908152600b60209081526040808320600d5484529091529020600101805460ff19166003179055565b6060600c600d54815481106129a6576129a661351f565b9060005260206000209060040201600301805480602002602001604051908101604052809291908181526020018280548015612a0157602002820191906000526020600020905b8154815260200190600101908083116129ed575b5050505050905090565b6000805b600554811015612a6c57826001600160a01b031660058281548110612a3657612a3661351f565b6000918252602090912001546001600160a01b03161415612a5a5750600192915050565b80612a6481613748565b915050612a0f565b50600092915050565b600080600c600d5481548110612a8d57612a8d61351f565b90600052602060002090600402016003018054905011612aef5760405162461bcd60e51b815260206004820152601e60248201527f63616e6e6f742073656c6c206966207468657265206973206e6f20626964000060448201526064016109a1565b6103e8821015612b335760405162461bcd60e51b815260206004820152600f60248201526e06d696e2073697a65203d203130303608c1b60448201526064016109a1565b600c600d5481548110612b4857612b4861351f565b906000526020600020906004020160020154821115612b965760405162461bcd60e51b815260206004820152600a6024820152696c6f7720737570706c7960b01b60448201526064016109a1565b6000829050600080806001600c600d5481548110612bb657612bb661351f565b906000526020600020906004020160030180549050612bd5919061354b565b90505b8315612d9f57600d546000818152600a60205260409020600c8054919290918110612c0557612c0561351f565b90600052602060002090600402016003018281548110612c2757612c2761351f565b906000526020600020015481548110612c4257612c4261351f565b9060005260206000209060030201600101549150818410612cfb57600d546000818152600a60205260409020600c8054919290918110612c8457612c8461351f565b90600052602060002090600402016003018281548110612ca657612ca661351f565b906000526020600020015481548110612cc157612cc161351f565b90600052602060002090600302016000015482612cde919061359c565b612ce89084613584565b9250612cf4828561354b565b9350612d8d565b600d546000818152600a60205260409020600c8054919290918110612d2257612d2261351f565b90600052602060002090600402016003018281548110612d4457612d4461351f565b906000526020600020015481548110612d5f57612d5f61351f565b90600052602060002090600302016000015484612d7c919061359c565b612d869084613584565b9250600093505b80612d9781613779565b915050612bd8565b612da986846136e0565b9695505050505050565b6001600160a01b03808216600090815260036020526040808220548151633fabe5a360e21b815291519293849391169182918491839163feaf968c9160048082019260a0929091908290030181865afa158015612e14573d6000803e3d6000fd5b505050506040513d601f19601f82011682018060405250810190612e3891906137aa565b5050509150506000826001600160a01b031663313ce5676040518163ffffffff1660e01b8152600401602060405180830381865afa158015612e7e573d6000803e3d6000fd5b505050506040513d601f19601f82011682018060405250810190612ea291906137fa565b919760ff909216965090945050505050565b6000546001600160a01b03163314612ede5760405162461bcd60e51b81526004016109a1906135bb565b6001600160a01b038116612f435760405162461bcd60e51b815260206004820152602660248201527f4f776e61626c653a206e6577206f776e657220697320746865207a65726f206160448201526564647265737360d01b60648201526084016109a1565b6112c181613346565b600481815481106111ad57600080fd5b6001600160a01b03808216600090815260016020908152604080832093861683529290522054612fc4576001600160a01b038216600090815260026020526040902054612faa906001613584565b6001600160a01b0383166000908152600260205260409020555b5050565b6000806001600c600d5481548110612fe257612fe261351f565b906000526020600020906004020160030180549050613001919061354b565b905060005b818310156130c057600261301a8385613584565b61302491906136e0565b9050600a6000600d548152602001908152602001600020600c600d54815481106130505761305061351f565b906000526020600020906004020160030182815481106130725761307261351f565b90600052602060002001548154811061308d5761308d61351f565b9060005260206000209060030201600001548411156130b8576130b1816001613584565b9250613006565b809150613006565b8183141561315a57600d546000818152600a60205260409020600c80549192909181106130ef576130ef61351f565b906000526020600020906004020160030184815481106131115761311161351f565b90600052602060002001548154811061312c5761312c61351f565b90600052602060002090600302016000015484111561315757613150836001613584565b905061315a565b50815b600c600d548154811061316f5761316f61351f565b90600052602060002090600402016003016001600a6000600d548152602001908152602001600020805490506131a5919061354b565b815460018181018455600093845260209093200155600d54600c805490919081106131d2576131d261351f565b9060005260206000209060040201600301805490506131f1919061354b565b8110156111975760006001600c600d54815481106132115761321161351f565b906000526020600020906004020160030180549050613230919061354b565b90505b818111156132de57600c600d54815481106132505761325061351f565b906000526020600020906004020160030160018261326e919061354b565b8154811061327e5761327e61351f565b9060005260206000200154600c600d548154811061329e5761329e61351f565b906000526020600020906004020160030182815481106132c0576132c061351f565b600091825260209091200155806132d681613779565b915050613233565b50600d546000908152600a60205260409020546132fd9060019061354b565b600c600d54815481106133125761331261351f565b906000526020600020906004020160030182815481106133345761333461351f565b60009182526020909120015550505050565b600080546001600160a01b038381166001600160a01b0319831681178455604051919092169283917f8be0079c531659141344cd1fd0a4f28419497f9722a3daafe3b4186f6b6457e09190a35050565b80356001600160a01b03811681146133ad57600080fd5b919050565b6000602082840312156133c457600080fd5b6133cd82613396565b9392505050565b600080604083850312156133e757600080fd5b823591506133f760208401613396565b90509250929050565b6000806040838503121561341357600080fd5b61341c83613396565b946020939093013593505050565b634e487b7160e01b600052602160045260246000fd5b838152606081016004841061346557634e487b7160e01b600052602160045260246000fd5b602082019390935260400152919050565b60006020828403121561348857600080fd5b5035919050565b600080604083850312156134a257600080fd5b6134ab83613396565b91506133f760208401613396565b600080604083850312156134cc57600080fd5b50508035926020909101359150565b6020808252825182820181905260009190848201906040850190845b81811015613513578351835292840192918401916001016134f7565b50909695505050505050565b634e487b7160e01b600052603260045260246000fd5b634e487b7160e01b600052601160045260246000fd5b60008282101561355d5761355d613535565b500390565b60006020828403121561357457600080fd5b815180151581146133cd57600080fd5b6000821982111561359757613597613535565b500190565b60008160001904831182151516156135b6576135b6613535565b500290565b6020808252818101527f4f776e61626c653a2063616c6c6572206973206e6f7420746865206f776e6572604082015260600190565b600181815b8085111561362b57816000190482111561361157613611613535565b8085161561361e57918102915b93841c93908002906135f5565b509250929050565b60008261364257506001610c79565b8161364f57506000610c79565b8160018114613665576002811461366f5761368b565b6001915050610c79565b60ff84111561368057613680613535565b50506001821b610c79565b5060208310610133831016604e8410600b84101617156136ae575081810a610c79565b6136b883836135f0565b80600019048211156136cc576136cc613535565b029392505050565b60006133cd8383613633565b6000826136fd57634e487b7160e01b600052601260045260246000fd5b500490565b60208082526026908201527f416c72656164792065787069726564206f7220746f6f20636c6f736520746f2060408201526565787069727960d01b606082015260800190565b600060001982141561375c5761375c613535565b5060010190565b634e487b7160e01b600052603160045260246000fd5b60008161378857613788613535565b506000190190565b805169ffffffffffffffffffff811681146133ad57600080fd5b600080600080600060a086880312156137c257600080fd5b6137cb86613790565b94506020860151935060408601519250606086015191506137ee60808701613790565b90509295509295909350565b60006020828403121561380c57600080fd5b815160ff811681146133cd57600080fdfea26469706673582212203eb7f499011b384f1e2fb4cdd796a4f263ed15795b75744c90c49f54f63a6dd064736f6c634300080a0033","bytecodeSha1":"1331d92a7876edc5543424e355f7d8c23c82661e","compiler":{"evm_version":"istanbul","optimizer":{"enabled":true,"runs":200},"version":"0.8.10+commit.fc410830"},"contractName":"TokenFarm","language":"Solidity","natspec":{"kind":"dev","methods":{"owner()":{"details":"Returns the address of the current owner."},"renounceOwnership()":{"details":"Leaves the contract without owner. It will not be possible to call `onlyOwner` functions anymore. Can only be called by the current owner. NOTE: Renouncing ownership will leave the contract without an owner, thereby removing any functionality that is only available to the owner."},"transferOwnership(address)":{"details":"Transfers ownership of the contract to a new account (`newOwner`). Can only be called by the current owner."}},"version":1},"opcodes":"PUSH1 0x80 PUSH1 0x40 MSTORE PUSH1 0x4 CALLDATASIZE LT PUSH2 0x25C JUMPI PUSH1 0x0 CALLDATALOAD PUSH1 0xE0 SHR DUP1 PUSH4 0x704BBA69 GT PUSH2 0x144 JUMPI DUP1 PUSH4 0xD0E30DB0 GT PUSH2 0xB6 JUMPI DUP1 PUSH4 0xF1C5D6C2 GT PUSH2 0x7A JUMPI DUP1 PUSH4 0xF1C5D6C2 EQ PUSH2 0x7A2 JUMPI DUP1 PUSH4 0xF2758344 EQ PUSH2 0x7D7 JUMPI DUP1 PUSH4 0xF2FDE38B EQ PUSH2 0x81D JUMPI DUP1 PUSH4 0xF6702356 EQ PUSH2 0x83D JUMPI DUP1 PUSH4 0xFD5E6DD1 EQ PUSH2 0x86A JUMPI DUP1 PUSH4 0xFF186B2E EQ PUSH2 0x88A JUMPI PUSH1 0x0 DUP1 REVERT JUMPDEST DUP1 PUSH4 0xD0E30DB0 EQ PUSH2 0x713 JUMPI DUP1 PUSH4 0xD32CB0FE EQ PUSH2 0x71B JUMPI DUP1 PUSH4 0xD36DEDD2 EQ PUSH2 0x730 JUMPI DUP1 PUSH4 0xDD5B8467 EQ PUSH2 0x752 JUMPI DUP1 PUSH4 0xF14E96F1 EQ PUSH2 0x782 JUMPI PUSH1 0x0 DUP1 REVERT JUMPDEST DUP1 PUSH4 0x7E7F320D GT PUSH2 0x108 JUMPI DUP1 PUSH4 0x7E7F320D EQ PUSH2 0x65E JUMPI DUP1 PUSH4 0x877DD39D EQ PUSH2 0x673 JUMPI DUP1 PUSH4 0x8DA5CB5B EQ PUSH2 0x693 JUMPI DUP1 PUSH4 0x9435C887 EQ PUSH2 0x6B1 JUMPI DUP1 PUSH4 0xAF3F5E22 EQ PUSH2 0x6C6 JUMPI DUP1 PUSH4 0xB83E0234 EQ PUSH2 0x6E6 JUMPI PUSH1 0x0 DUP1 REVERT JUMPDEST DUP1 PUSH4 0x704BBA69 EQ PUSH2 0x5AF JUMPI DUP1 PUSH4 0x715018A6 EQ PUSH2 0x5CF JUMPI DUP1 PUSH4 0x7B3889E7 EQ PUSH2 0x5E4 JUMPI DUP1 PUSH4 0x7B3C4BAA EQ PUSH2 0x5FA JUMPI DUP1 PUSH4 0x7B468DE6 EQ PUSH2 0x63E JUMPI PUSH1 0x0 DUP1 REVERT JUMPDEST DUP1 PUSH4 0x29161A00 GT PUSH2 0x1DD JUMPI DUP1 PUSH4 0x57C90DE5 GT PUSH2 0x1A1 JUMPI DUP1 PUSH4 0x57C90DE5 EQ PUSH2 0x510 JUMPI DUP1 PUSH4 0x5E5F2E26 EQ PUSH2 0x530 JUMPI DUP1 PUSH4 0x5EB186F8 EQ PUSH2 0x550 JUMPI DUP1 PUSH4 0x60AB5852 EQ PUSH2 0x570 JUMPI DUP1 PUSH4 0x67C9B017 EQ PUSH2 0x585 JUMPI DUP1 PUSH4 0x6C9C2FAF EQ PUSH2 0x59A JUMPI PUSH1 0x0 DUP1 REVERT JUMPDEST DUP1 PUSH4 0x29161A00 EQ PUSH2 0x41C JUMPI DUP1 PUSH4 0x2D1AD8B8 EQ PUSH2 0x454 JUMPI DUP1 PUSH4 0x387EADAE EQ PUSH2 0x474 JUMPI DUP1 PUSH4 0x41398B15 EQ PUSH2 0x4AF JUMPI DUP1 PUSH4 0x4F0DCD39 EQ PUSH2 0x4CF JUMPI PUSH1 0x0 DUP1 REVERT JUMPDEST DUP1 PUSH4 0x16ED0F72 GT PUSH2 0x224 JUMPI DUP1 PUSH4 0x16ED0F72 EQ PUSH2 0x34F JUMPI DUP1 PUSH4 0x171E44EA EQ PUSH2 0x36F JUMPI DUP1 PUSH4 0x1BE0819C EQ PUSH2 0x38F JUMPI DUP1 PUSH4 0x276B11DA EQ PUSH2 0x3AE JUMPI DUP1 PUSH4 0x27927B3E EQ PUSH2 0x3CE JUMPI PUSH1 0x0 DUP1 REVERT JUMPDEST DUP1 PUSH4 0x103C92B EQ PUSH2 0x261 JUMPI DUP1 PUSH4 0x99A019D EQ PUSH2 0x2AA JUMPI DUP1 PUSH4 0xBEA440D EQ PUSH2 0x2BF JUMPI DUP1 PUSH4 0x14F6C3BE EQ PUSH2 0x2E1 JUMPI DUP1 PUSH4 0x14FEAA9D EQ PUSH2 0x2F6 JUMPI JUMPDEST PUSH1 0x0 DUP1 REVERT JUMPDEST CALLVALUE DUP1 ISZERO PUSH2 0x26D JUMPI PUSH1 0x0 DUP1 REVERT JUMPDEST POP PUSH2 0x297 PUSH2 0x27C CALLDATASIZE PUSH1 0x4 PUSH2 0x33B2 JUMP JUMPDEST PUSH1 0x1 PUSH1 0x1 PUSH1 0xA0 SHL SUB AND PUSH1 0x0 SWAP1 DUP2 MSTORE PUSH1 0x9 PUSH1 0x20 MSTORE PUSH1 0x40 SWAP1 KECCAK256 SLOAD SWAP1 JUMP JUMPDEST PUSH1 0x40 MLOAD SWAP1 DUP2 MSTORE PUSH1 0x20 ADD JUMPDEST PUSH1 0x40 MLOAD DUP1 SWAP2 SUB SWAP1 RETURN JUMPDEST CALLVALUE DUP1 ISZERO PUSH2 0x2B6 JUMPI PUSH1 0x0 DUP1 REVERT JUMPDEST POP PUSH2 0x297 PUSH2 0x8A0 JUMP JUMPDEST CALLVALUE DUP1 ISZERO PUSH2 0x2CB JUMPI PUSH1 0x0 DUP1 REVERT JUMPDEST POP PUSH2 0x2DF PUSH2 0x2DA CALLDATASIZE PUSH1 0x4 PUSH2 0x33D4 JUMP JUMPDEST PUSH2 0x955 JUMP JUMPDEST STOP JUMPDEST CALLVALUE DUP1 ISZERO PUSH2 0x2ED JUMPI PUSH1 0x0 DUP1 REVERT JUMPDEST POP PUSH2 0x297 PUSH2 0xB45 JUMP JUMPDEST CALLVALUE DUP1 ISZERO PUSH2 0x302 JUMPI PUSH1 0x0 DUP1 REVERT JUMPDEST POP PUSH2 0x340 PUSH2 0x311 CALLDATASIZE PUSH1 0x4 PUSH2 0x3400 JUMP JUMPDEST PUSH1 0xB PUSH1 0x20 SWAP1 DUP2 MSTORE PUSH1 0x0 SWAP3 DUP4 MSTORE PUSH1 0x40 DUP1 DUP5 KECCAK256 SWAP1 SWAP2 MSTORE SWAP1 DUP3 MSTORE SWAP1 KECCAK256 DUP1 SLOAD PUSH1 0x1 DUP3 ADD SLOAD PUSH1 0x2 SWAP1 SWAP3 ADD SLOAD SWAP1 SWAP2 PUSH1 0xFF AND SWAP1 DUP4 JUMP JUMPDEST PUSH1 0x40 MLOAD PUSH2 0x2A1 SWAP4 SWAP3 SWAP2 SWAP1 PUSH2 0x3440 JUMP JUMPDEST CALLVALUE DUP1 ISZERO PUSH2 0x35B JUMPI PUSH1 0x0 DUP1 REVERT JUMPDEST POP PUSH2 0x2DF PUSH2 0x36A CALLDATASIZE PUSH1 0x4 PUSH2 0x3476 JUMP JUMPDEST PUSH1 0x7 SSTORE JUMP JUMPDEST CALLVALUE DUP1 ISZERO PUSH2 0x37B JUMPI PUSH1 0x0 DUP1 REVERT JUMPDEST POP PUSH2 0x2DF PUSH2 0x38A CALLDATASIZE PUSH1 0x4 PUSH2 0x33B2 JUMP JUMPDEST PUSH2 0xB7C JUMP JUMPDEST CALLVALUE DUP1 ISZERO PUSH2 0x39B JUMPI PUSH1 0x0 DUP1 REVERT JUMPDEST POP PUSH1 0x8 SLOAD PUSH1 0x1 PUSH1 0x1 PUSH1 0xA0 SHL SUB AND BALANCE PUSH2 0x297 JUMP JUMPDEST CALLVALUE DUP1 ISZERO PUSH2 0x3BA JUMPI PUSH1 0x0 DUP1 REVERT JUMPDEST POP PUSH2 0x297 PUSH2 0x3C9 CALLDATASIZE PUSH1 0x4 PUSH2 0x348F JUMP JUMPDEST PUSH2 0xBF8 JUMP JUMPDEST CALLVALUE DUP1 ISZERO PUSH2 0x3DA JUMPI PUSH1 0x0 DUP1 REVERT JUMPDEST POP PUSH2 0x404 PUSH2 0x3E9 CALLDATASIZE PUSH1 0x4 PUSH2 0x33B2 JUMP JUMPDEST PUSH1 0x3 PUSH1 0x20 MSTORE PUSH1 0x0 SWAP1 DUP2 MSTORE PUSH1 0x40 SWAP1 KECCAK256 SLOAD PUSH1 0x1 PUSH1 0x1 PUSH1 0xA0 SHL SUB AND DUP2 JUMP JUMPDEST PUSH1 0x40 MLOAD PUSH1 0x1 PUSH1 0x1 PUSH1 0xA0 SHL SUB SWAP1 SWAP2 AND DUP2 MSTORE PUSH1 0x20 ADD PUSH2 0x2A1 JUMP JUMPDEST CALLVALUE DUP1 ISZERO PUSH2 0x428 JUMPI PUSH1 0x0 DUP1 REVERT JUMPDEST POP PUSH2 0x297 PUSH2 0x437 CALLDATASIZE PUSH1 0x4 PUSH2 0x348F JUMP JUMPDEST PUSH1 0x1 PUSH1 0x20 SWAP1 DUP2 MSTORE PUSH1 0x0 SWAP3 DUP4 MSTORE PUSH1 0x40 DUP1 DUP5 KECCAK256 SWAP1 SWAP2 MSTORE SWAP1 DUP3 MSTORE SWAP1 KECCAK256 SLOAD DUP2 JUMP JUMPDEST CALLVALUE DUP1 ISZERO PUSH2 0x460 JUMPI PUSH1 0x0 DUP1 REVERT JUMPDEST POP PUSH2 0x2DF PUSH2 0x46F CALLDATASIZE PUSH1 0x4 PUSH2 0x33B2 JUMP JUMPDEST PUSH2 0xC7F JUMP JUMPDEST CALLVALUE DUP1 ISZERO PUSH2 0x480 JUMPI PUSH1 0x0 DUP1 REVERT JUMPDEST POP PUSH2 0x494 PUSH2 0x48F CALLDATASIZE PUSH1 0x4 PUSH2 0x3476 JUMP JUMPDEST PUSH2 0xDDD JUMP JUMPDEST PUSH1 0x40 DUP1 MLOAD SWAP4 DUP5 MSTORE PUSH1 0x20 DUP5 ADD SWAP3 SWAP1 SWAP3 MSTORE SWAP1 DUP3 ADD MSTORE PUSH1 0x60 ADD PUSH2 0x2A1 JUMP JUMPDEST CALLVALUE DUP1 ISZERO PUSH2 0x4BB JUMPI PUSH1 0x0 DUP1 REVERT JUMPDEST POP PUSH1 0x11 SLOAD PUSH2 0x404 SWAP1 PUSH1 0x1 PUSH1 0x1 PUSH1 0xA0 SHL SUB AND DUP2 JUMP JUMPDEST CALLVALUE DUP1 ISZERO PUSH2 0x4DB JUMPI PUSH1 0x0 DUP1 REVERT JUMPDEST POP PUSH2 0x297 PUSH2 0x4EA CALLDATASIZE PUSH1 0x4 PUSH2 0x33B2 JUMP JUMPDEST PUSH1 0x1 PUSH1 0x1 PUSH1 0xA0 SHL SUB AND PUSH1 0x0 SWAP1 DUP2 MSTORE PUSH1 0x1 PUSH1 0x20 SWAP1 DUP2 MSTORE PUSH1 0x40 DUP1 DUP4 KECCAK256 CALLER DUP5 MSTORE SWAP1 SWAP2 MSTORE SWAP1 KECCAK256 SLOAD SWAP1 JUMP JUMPDEST CALLVALUE DUP1 ISZERO PUSH2 0x51C JUMPI PUSH1 0x0 DUP1 REVERT JUMPDEST POP PUSH2 0x2DF PUSH2 0x52B CALLDATASIZE PUSH1 0x4 PUSH2 0x34B9 JUMP JUMPDEST PUSH2 0xE10 JUMP JUMPDEST CALLVALUE DUP1 ISZERO PUSH2 0x53C JUMPI PUSH1 0x0 DUP1 REVERT JUMPDEST POP PUSH2 0x404 PUSH2 0x54B CALLDATASIZE PUSH1 0x4 PUSH2 0x3476 JUMP JUMPDEST PUSH2 0x119D JUMP JUMPDEST CALLVALUE DUP1 ISZERO PUSH2 0x55C JUMPI PUSH1 0x0 DUP1 REVERT JUMPDEST POP PUSH1 0x6 SLOAD PUSH2 0x404 SWAP1 PUSH1 0x1 PUSH1 0x1 PUSH1 0xA0 SHL SUB AND DUP2 JUMP JUMPDEST CALLVALUE DUP1 ISZERO PUSH2 0x57C JUMPI PUSH1 0x0 DUP1 REVERT JUMPDEST POP PUSH2 0x2DF PUSH2 0x11C7 JUMP JUMPDEST CALLVALUE DUP1 ISZERO PUSH2 0x591 JUMPI PUSH1 0x0 DUP1 REVERT JUMPDEST POP PUSH2 0x2DF PUSH2 0x12C4 JUMP JUMPDEST CALLVALUE DUP1 ISZERO PUSH2 0x5A6 JUMPI PUSH1 0x0 DUP1 REVERT JUMPDEST POP PUSH2 0x297 PUSH2 0x12F9 JUMP JUMPDEST CALLVALUE DUP1 ISZERO PUSH2 0x5BB JUMPI PUSH1 0x0 DUP1 REVERT JUMPDEST POP PUSH2 0x2DF PUSH2 0x5CA CALLDATASIZE PUSH1 0x4 PUSH2 0x3476 JUMP JUMPDEST PUSH2 0x1327 JUMP JUMPDEST CALLVALUE DUP1 ISZERO PUSH2 0x5DB JUMPI PUSH1 0x0 DUP1 REVERT JUMPDEST POP PUSH2 0x2DF PUSH2 0x1E66 JUMP JUMPDEST CALLVALUE DUP1 ISZERO PUSH2 0x5F0 JUMPI PUSH1 0x0 DUP1 REVERT JUMPDEST POP PUSH2 0x297 PUSH1 0x10 SLOAD DUP2 JUMP JUMPDEST CALLVALUE DUP1 ISZERO PUSH2 0x606 JUMPI PUSH1 0x0 DUP1 REVERT JUMPDEST POP PUSH2 0x61A PUSH2 0x615 CALLDATASIZE PUSH1 0x4 PUSH2 0x34B9 JUMP JUMPDEST PUSH2 0x1E9C JUMP JUMPDEST PUSH1 0x40 DUP1 MLOAD SWAP4 DUP5 MSTORE PUSH1 0x20 DUP5 ADD SWAP3 SWAP1 SWAP3 MSTORE PUSH1 0x1 PUSH1 0x1 PUSH1 0xA0 SHL SUB AND SWAP1 DUP3 ADD MSTORE PUSH1 0x60 ADD PUSH2 0x2A1 JUMP JUMPDEST CALLVALUE DUP1 ISZERO PUSH2 0x64A JUMPI PUSH1 0x0 DUP1 REVERT JUMPDEST POP PUSH2 0x297 PUSH2 0x659 CALLDATASIZE PUSH1 0x4 PUSH2 0x33B2 JUMP JUMPDEST PUSH2 0x1EE7 JUMP JUMPDEST CALLVALUE DUP1 ISZERO PUSH2 0x66A JUMPI PUSH1 0x0 DUP1 REVERT JUMPDEST POP PUSH2 0x297 PUSH2 0x1F3B JUMP JUMPDEST CALLVALUE DUP1 ISZERO PUSH2 0x67F JUMPI PUSH1 0x0 DUP1 REVERT JUMPDEST POP PUSH2 0x2DF PUSH2 0x68E CALLDATASIZE PUSH1 0x4 PUSH2 0x348F JUMP JUMPDEST PUSH2 0x1F74 JUMP JUMPDEST CALLVALUE DUP1 ISZERO PUSH2 0x69F JUMPI PUSH1 0x0 DUP1 REVERT JUMPDEST POP PUSH1 0x0 SLOAD PUSH1 0x1 PUSH1 0x1 PUSH1 0xA0 SHL SUB AND PUSH2 0x404 JUMP JUMPDEST CALLVALUE DUP1 ISZERO PUSH2 0x6BD JUMPI PUSH1 0x0 DUP1 REVERT JUMPDEST POP PUSH2 0x2DF PUSH2 0x1FCC JUMP JUMPDEST CALLVALUE DUP1 ISZERO PUSH2 0x6D2 JUMPI PUSH1 0x0 DUP1 REVERT JUMPDEST POP PUSH2 0x297 PUSH2 0x6E1 CALLDATASIZE PUSH1 0x4 PUSH2 0x33B2 JUMP JUMPDEST PUSH2 0x2454 JUMP JUMPDEST CALLVALUE DUP1 ISZERO PUSH2 0x6F2 JUMPI PUSH1 0x0 DUP1 REVERT JUMPDEST POP PUSH2 0x297 PUSH2 0x701 CALLDATASIZE PUSH1 0x4 PUSH2 0x33B2 JUMP JUMPDEST PUSH1 0x2 PUSH1 0x20 MSTORE PUSH1 0x0 SWAP1 DUP2 MSTORE PUSH1 0x40 SWAP1 KECCAK256 SLOAD DUP2 JUMP JUMPDEST PUSH2 0x2DF PUSH2 0x2512 JUMP JUMPDEST CALLVALUE DUP1 ISZERO PUSH2 0x727 JUMPI PUSH1 0x0 DUP1 REVERT JUMPDEST POP PUSH2 0x2DF PUSH2 0x257B JUMP JUMPDEST CALLVALUE DUP1 ISZERO PUSH2 0x73C JUMPI PUSH1 0x0 DUP1 REVERT JUMPDEST POP PUSH2 0x745 PUSH2 0x298F JUMP JUMPDEST PUSH1 0x40 MLOAD PUSH2 0x2A1 SWAP2 SWAP1 PUSH2 0x34DB JUMP JUMPDEST CALLVALUE DUP1 ISZERO PUSH2 0x75E JUMPI PUSH1 0x0 DUP1 REVERT JUMPDEST POP PUSH2 0x772 PUSH2 0x76D CALLDATASIZE PUSH1 0x4 PUSH2 0x33B2 JUMP JUMPDEST PUSH2 0x2A0B JUMP JUMPDEST PUSH1 0x40 MLOAD SWAP1 ISZERO ISZERO DUP2 MSTORE PUSH1 0x20 ADD PUSH2 0x2A1 JUMP JUMPDEST CALLVALUE DUP1 ISZERO PUSH2 0x78E JUMPI PUSH1 0x0 DUP1 REVERT JUMPDEST POP PUSH2 0x297 PUSH2 0x79D CALLDATASIZE PUSH1 0x4 PUSH2 0x3476 JUMP JUMPDEST PUSH2 0x2A75 JUMP JUMPDEST CALLVALUE DUP1 ISZERO PUSH2 0x7AE JUMPI PUSH1 0x0 DUP1 REVERT JUMPDEST POP PUSH2 0x7C2 PUSH2 0x7BD CALLDATASIZE PUSH1 0x4 PUSH2 0x33B2 JUMP JUMPDEST PUSH2 0x2DB3 JUMP JUMPDEST PUSH1 0x40 DUP1 MLOAD SWAP3 DUP4 MSTORE PUSH1 0x20 DUP4 ADD SWAP2 SWAP1 SWAP2 MSTORE ADD PUSH2 0x2A1 JUMP JUMPDEST CALLVALUE DUP1 ISZERO PUSH2 0x7E3 JUMPI PUSH1 0x0 DUP1 REVERT JUMPDEST POP PUSH2 0x297 PUSH2 0x7F2 CALLDATASIZE PUSH1 0x4 PUSH2 0x33B2 JUMP JUMPDEST PUSH1 0x1 PUSH1 0x1 PUSH1 0xA0 SHL SUB AND PUSH1 0x0 SWAP1 DUP2 MSTORE PUSH1 0xB PUSH1 0x20 SWAP1 DUP2 MSTORE PUSH1 0x40 DUP1 DUP4 KECCAK256 PUSH1 0xD SLOAD DUP5 MSTORE SWAP1 SWAP2 MSTORE SWAP1 KECCAK256 PUSH1 0x2 ADD SLOAD SWAP1 JUMP JUMPDEST CALLVALUE DUP1 ISZERO PUSH2 0x829 JUMPI PUSH1 0x0 DUP1 REVERT JUMPDEST POP PUSH2 0x2DF PUSH2 0x838 CALLDATASIZE PUSH1 0x4 PUSH2 0x33B2 JUMP JUMPDEST PUSH2 0x2EB4 JUMP JUMPDEST CALLVALUE DUP1 ISZERO PUSH2 0x849 JUMPI PUSH1 0x0 DUP1 REVERT JUMPDEST POP PUSH2 0x297 PUSH2 0x858 CALLDATASIZE PUSH1 0x4 PUSH2 0x33B2 JUMP JUMPDEST PUSH1 0x9 PUSH1 0x20 MSTORE PUSH1 0x0 SWAP1 DUP2 MSTORE PUSH1 0x40 SWAP1 KECCAK256 SLOAD DUP2 JUMP JUMPDEST CALLVALUE DUP1 ISZERO PUSH2 0x876 JUMPI PUSH1 0x0 DUP1 REVERT JUMPDEST POP PUSH2 0x404 PUSH2 0x885 CALLDATASIZE PUSH1 0x4 PUSH2 0x3476 JUMP JUMPDEST PUSH2 0x2F4C JUMP JUMPDEST CALLVALUE DUP1 ISZERO PUSH2 0x896 JUMPI PUSH1 0x0 DUP1 REVERT JUMPDEST POP PUSH2 0x297 PUSH1 0x7 SLOAD DUP2 JUMP JUMPDEST PUSH1 0x0 PUSH1 0xA PUSH1 0x0 PUSH1 0xD SLOAD DUP2 MSTORE PUSH1 0x20 ADD SWAP1 DUP2 MSTORE PUSH1 0x20 ADD PUSH1 0x0 KECCAK256 PUSH1 0xC PUSH1 0xD SLOAD DUP2 SLOAD DUP2 LT PUSH2 0x8CC JUMPI PUSH2 0x8CC PUSH2 0x351F JUMP JUMPDEST SWAP1 PUSH1 0x0 MSTORE PUSH1 0x20 PUSH1 0x0 KECCAK256 SWAP1 PUSH1 0x4 MUL ADD PUSH1 0x3 ADD PUSH1 0x1 PUSH1 0xC PUSH1 0xD SLOAD DUP2 SLOAD DUP2 LT PUSH2 0x8F4 JUMPI PUSH2 0x8F4 PUSH2 0x351F JUMP JUMPDEST SWAP1 PUSH1 0x0 MSTORE PUSH1 0x20 PUSH1 0x0 KECCAK256 SWAP1 PUSH1 0x4 MUL ADD PUSH1 0x3 ADD DUP1 SLOAD SWAP1 POP PUSH2 0x913 SWAP2 SWAP1 PUSH2 0x354B JUMP JUMPDEST DUP2 SLOAD DUP2 LT PUSH2 0x923 JUMPI PUSH2 0x923 PUSH2 0x351F JUMP JUMPDEST SWAP1 PUSH1 0x0 MSTORE PUSH1 0x20 PUSH1 0x0 KECCAK256 ADD SLOAD DUP2 SLOAD DUP2 LT PUSH2 0x93E JUMPI PUSH2 0x93E PUSH2 0x351F JUMP JUMPDEST SWAP1 PUSH1 0x0 MSTORE PUSH1 0x20 PUSH1 0x0 KECCAK256 SWAP1 PUSH1 0x3 MUL ADD PUSH1 0x0 ADD SLOAD SWAP1 POP SWAP1 JUMP JUMPDEST PUSH1 0x0 DUP3 GT PUSH2 0x9AA JUMPI PUSH1 0x40 MLOAD PUSH3 0x461BCD PUSH1 0xE5 SHL DUP2 MSTORE PUSH1 0x20 PUSH1 0x4 DUP3 ADD MSTORE PUSH1 0x1A PUSH1 0x24 DUP3 ADD MSTORE PUSH32 0x416D6F756E74206D757374206265206D6F7265207468616E2030000000000000 PUSH1 0x44 DUP3 ADD MSTORE PUSH1 0x64 ADD JUMPDEST PUSH1 0x40 MLOAD DUP1 SWAP2 SUB SWAP1 REVERT JUMPDEST PUSH2 0x9B3 DUP2 PUSH2 0x2A0B JUMP JUMPDEST PUSH2 0x9FF JUMPI PUSH1 0x40 MLOAD PUSH3 0x461BCD PUSH1 0xE5 SHL DUP2 MSTORE PUSH1 0x20 PUSH1 0x4 DUP3 ADD MSTORE PUSH1 0x1D PUSH1 0x24 DUP3 ADD MSTORE PUSH32 0x546F6B656E2069732063757272656E746C79206E6F20616C6C6F776564000000 PUSH1 0x44 DUP3 ADD MSTORE PUSH1 0x64 ADD PUSH2 0x9A1 JUMP JUMPDEST PUSH1 0x40 MLOAD PUSH4 0x23B872DD PUSH1 0xE0 SHL DUP2 MSTORE CALLER PUSH1 0x4 DUP3 ADD MSTORE ADDRESS PUSH1 0x24 DUP3 ADD MSTORE PUSH1 0x44 DUP2 ADD DUP4 SWAP1 MSTORE PUSH1 0x1 PUSH1 0x1 PUSH1 0xA0 SHL SUB DUP3 AND SWAP1 PUSH4 0x23B872DD SWAP1 PUSH1 0x64 ADD PUSH1 0x20 PUSH1 0x40 MLOAD DUP1 DUP4 SUB DUP2 PUSH1 0x0 DUP8 GAS CALL ISZERO DUP1 ISZERO PUSH2 0xA52 JUMPI RETURNDATASIZE PUSH1 0x0 DUP1 RETURNDATACOPY RETURNDATASIZE PUSH1 0x0 REVERT JUMPDEST POP POP POP POP PUSH1 0x40 MLOAD RETURNDATASIZE PUSH1 0x1F NOT PUSH1 0x1F DUP3 ADD AND DUP3 ADD DUP1 PUSH1 0x40 MSTORE POP DUP2 ADD SWAP1 PUSH2 0xA76 SWAP2 SWAP1 PUSH2 0x3562 JUMP JUMPDEST POP PUSH2 0xA81 CALLER DUP3 PUSH2 0x2F5C JUMP JUMPDEST PUSH1 0x1 PUSH1 0x1 PUSH1 0xA0 SHL SUB DUP2 AND PUSH1 0x0 SWAP1 DUP2 MSTORE PUSH1 0x1 PUSH1 0x20 SWAP1 DUP2 MSTORE PUSH1 0x40 DUP1 DUP4 KECCAK256 CALLER DUP5 MSTORE SWAP1 SWAP2 MSTORE SWAP1 KECCAK256 SLOAD PUSH2 0xAB0 SWAP1 DUP4 SWAP1 PUSH2 0x3584 JUMP JUMPDEST PUSH1 0x1 PUSH1 0x1 PUSH1 0xA0 SHL SUB DUP3 AND PUSH1 0x0 SWAP1 DUP2 MSTORE PUSH1 0x1 PUSH1 0x20 DUP2 DUP2 MSTORE PUSH1 0x40 DUP1 DUP5 KECCAK256 CALLER DUP6 MSTORE DUP3 MSTORE DUP1 DUP5 KECCAK256 SWAP5 SWAP1 SWAP5 SSTORE PUSH1 0x2 SWAP1 MSTORE SWAP2 SWAP1 KECCAK256 SLOAD EQ ISZERO PUSH2 0xB28 JUMPI PUSH1 0x4 DUP1 SLOAD PUSH1 0x1 DUP2 ADD DUP3 SSTORE PUSH1 0x0 SWAP2 SWAP1 SWAP2 MSTORE PUSH32 0x8A35ACFBC15FF81A39AE7D344FD709F28E8600B4AA8C65C6B64BFE7FE36BD19B ADD DUP1 SLOAD PUSH1 0x1 PUSH1 0x1 PUSH1 0xA0 SHL SUB NOT AND CALLER OR SWAP1 SSTORE JUMPDEST PUSH2 0xB31 CALLER PUSH2 0x2454 JUMP JUMPDEST CALLER PUSH1 0x0 SWAP1 DUP2 MSTORE PUSH1 0x9 PUSH1 0x20 MSTORE PUSH1 0x40 SWAP1 KECCAK256 SSTORE POP POP JUMP JUMPDEST PUSH1 0x11 SLOAD PUSH1 0x0 SWAP1 DUP2 SWAP1 DUP2 SWAP1 PUSH2 0xB61 SWAP1 PUSH1 0x1 PUSH1 0x1 PUSH1 0xA0 SHL SUB AND PUSH2 0x2DB3 JUMP JUMPDEST SWAP1 SWAP3 POP SWAP1 POP PUSH2 0xB75 DUP3 PUSH5 0x2540BE400 PUSH2 0x359C JUMP JUMPDEST SWAP3 POP POP POP SWAP1 JUMP JUMPDEST PUSH1 0x0 SLOAD PUSH1 0x1 PUSH1 0x1 PUSH1 0xA0 SHL SUB AND CALLER EQ PUSH2 0xBA6 JUMPI PUSH1 0x40 MLOAD PUSH3 0x461BCD PUSH1 0xE5 SHL DUP2 MSTORE PUSH1 0x4 ADD PUSH2 0x9A1 SWAP1 PUSH2 0x35BB JUMP JUMPDEST PUSH1 0x5 DUP1 SLOAD PUSH1 0x1 DUP2 ADD DUP3 SSTORE PUSH1 0x0 SWAP2 SWAP1 SWAP2 MSTORE PUSH32 0x36B6384B5ECA791C62761152D0C79BB0604C104A5FB6F4EB0703F3154BB3DB0 ADD DUP1 SLOAD PUSH1 0x1 PUSH1 0x1 PUSH1 0xA0 SHL SUB NOT AND PUSH1 0x1 PUSH1 0x1 PUSH1 0xA0 SHL SUB SWAP3 SWAP1 SWAP3 AND SWAP2 SWAP1 SWAP2 OR SWAP1 SSTORE JUMP JUMPDEST PUSH1 0x1 PUSH1 0x1 PUSH1 0xA0 SHL SUB DUP3 AND PUSH1 0x0 SWAP1 DUP2 MSTORE PUSH1 0x2 PUSH1 0x20 MSTORE PUSH1 0x40 DUP2 KECCAK256 SLOAD PUSH2 0xC1D JUMPI POP PUSH1 0x0 PUSH2 0xC79 JUMP JUMPDEST PUSH1 0x0 DUP1 PUSH2 0xC29 DUP5 PUSH2 0x2DB3 JUMP JUMPDEST SWAP1 SWAP3 POP SWAP1 POP PUSH2 0xC39 DUP2 PUSH1 0xA PUSH2 0x36D4 JUMP JUMPDEST PUSH1 0x1 PUSH1 0x1 PUSH1 0xA0 SHL SUB DUP1 DUP7 AND PUSH1 0x0 SWAP1 DUP2 MSTORE PUSH1 0x1 PUSH1 0x20 SWAP1 DUP2 MSTORE PUSH1 0x40 DUP1 DUP4 KECCAK256 SWAP4 DUP11 AND DUP4 MSTORE SWAP3 SWAP1 MSTORE KECCAK256 SLOAD PUSH2 0xC6A SWAP1 DUP5 SWAP1 PUSH2 0x359C JUMP JUMPDEST PUSH2 0xC74 SWAP2 SWAP1 PUSH2 0x36E0 JUMP JUMPDEST SWAP3 POP POP POP JUMPDEST SWAP3 SWAP2 POP POP JUMP JUMPDEST PUSH1 0x1 PUSH1 0x1 PUSH1 0xA0 SHL SUB DUP2 AND PUSH1 0x0 SWAP1 DUP2 MSTORE PUSH1 0x1 PUSH1 0x20 SWAP1 DUP2 MSTORE PUSH1 0x40 DUP1 DUP4 KECCAK256 CALLER DUP5 MSTORE SWAP1 SWAP2 MSTORE SWAP1 KECCAK256 SLOAD DUP1 PUSH2 0xCF0 JUMPI PUSH1 0x40 MLOAD PUSH3 0x461BCD PUSH1 0xE5 SHL DUP2 MSTORE PUSH1 0x20 PUSH1 0x4 DUP3 ADD MSTORE PUSH1 0x18 PUSH1 0x24 DUP3 ADD MSTORE PUSH32 0x436173682062616C616E63652063616E6E6F7420626520300000000000000000 PUSH1 0x44 DUP3 ADD MSTORE PUSH1 0x64 ADD PUSH2 0x9A1 JUMP JUMPDEST PUSH1 0x40 MLOAD PUSH4 0xA9059CBB PUSH1 0xE0 SHL DUP2 MSTORE CALLER PUSH1 0x4 DUP3 ADD MSTORE PUSH1 0x24 DUP2 ADD DUP3 SWAP1 MSTORE PUSH1 0x1 PUSH1 0x1 PUSH1 0xA0 SHL SUB DUP4 AND SWAP1 PUSH4 0xA9059CBB SWAP1 PUSH1 0x44 ADD PUSH1 0x20 PUSH1 0x40 MLOAD DUP1 DUP4 SUB DUP2 PUSH1 0x0 DUP8 GAS CALL ISZERO DUP1 ISZERO PUSH2 0xD3D JUMPI RETURNDATASIZE PUSH1 0x0 DUP1 RETURNDATACOPY RETURNDATASIZE PUSH1 0x0 REVERT JUMPDEST POP POP POP POP PUSH1 0x40 MLOAD RETURNDATASIZE PUSH1 0x1F NOT PUSH1 0x1F DUP3 ADD AND DUP3 ADD DUP1 PUSH1 0x40 MSTORE POP DUP2 ADD SWAP1 PUSH2 0xD61 SWAP2 SWAP1 PUSH2 0x3562 JUMP JUMPDEST POP PUSH2 0xD6C CALLER DUP4 PUSH2 0xBF8 JUMP JUMPDEST CALLER PUSH1 0x0 SWAP1 DUP2 MSTORE PUSH1 0x9 PUSH1 0x20 MSTORE PUSH1 0x40 DUP2 KECCAK256 DUP1 SLOAD SWAP1 SWAP2 SWAP1 PUSH2 0xD8B SWAP1 DUP5 SWAP1 PUSH2 0x354B JUMP JUMPDEST SWAP1 SWAP2 SSTORE POP POP PUSH1 0x1 PUSH1 0x1 PUSH1 0xA0 SHL SUB DUP3 AND PUSH1 0x0 SWAP1 DUP2 MSTORE PUSH1 0x1 PUSH1 0x20 DUP2 DUP2 MSTORE PUSH1 0x40 DUP1 DUP5 KECCAK256 CALLER DUP6 MSTORE DUP3 MSTORE DUP1 DUP5 KECCAK256 DUP5 SWAP1 SSTORE PUSH1 0x2 SWAP1 SWAP2 MSTORE SWAP1 SWAP2 KECCAK256 SLOAD PUSH2 0xDC9 SWAP2 SWAP1 PUSH2 0x354B JUMP JUMPDEST CALLER PUSH1 0x0 SWAP1 DUP2 MSTORE PUSH1 0x2 PUSH1 0x20 MSTORE PUSH1 0x40 SWAP1 KECCAK256 SSTORE POP POP JUMP JUMPDEST PUSH1 0xC DUP2 DUP2 SLOAD DUP2 LT PUSH2 0xDED JUMPI PUSH1 0x0 DUP1 REVERT JUMPDEST PUSH1 0x0 SWAP2 DUP3 MSTORE PUSH1 0x20 SWAP1 SWAP2 KECCAK256 PUSH1 0x4 SWAP1 SWAP2 MUL ADD DUP1 SLOAD PUSH1 0x1 DUP3 ADD SLOAD PUSH1 0x2 SWAP1 SWAP3 ADD SLOAD SWAP1 SWAP3 POP DUP4 JUMP JUMPDEST CALLER PUSH2 0xE1C PUSH1 0xA TIMESTAMP PUSH2 0x354B JUMP JUMPDEST PUSH1 0xC PUSH1 0xD SLOAD DUP2 SLOAD DUP2 LT PUSH2 0xE31 JUMPI PUSH2 0xE31 PUSH2 0x351F JUMP JUMPDEST SWAP1 PUSH1 0x0 MSTORE PUSH1 0x20 PUSH1 0x0 KECCAK256 SWAP1 PUSH1 0x4 MUL ADD PUSH1 0x1 ADD SLOAD GT PUSH2 0xE60 JUMPI PUSH1 0x40 MLOAD PUSH3 0x461BCD PUSH1 0xE5 SHL DUP2 MSTORE PUSH1 0x4 ADD PUSH2 0x9A1 SWAP1 PUSH2 0x3702 JUMP JUMPDEST PUSH1 0x2 PUSH1 0x1 PUSH1 0x1 PUSH1 0xA0 SHL SUB DUP3 AND PUSH1 0x0 SWAP1 DUP2 MSTORE PUSH1 0xB PUSH1 0x20 SWAP1 DUP2 MSTORE PUSH1 0x40 DUP1 DUP4 KECCAK256 PUSH1 0xD SLOAD DUP5 MSTORE SWAP1 SWAP2 MSTORE SWAP1 KECCAK256 PUSH1 0x1 ADD SLOAD PUSH1 0xFF AND PUSH1 0x3 DUP2 GT ISZERO PUSH2 0xE9F JUMPI PUSH2 0xE9F PUSH2 0x342A JUMP JUMPDEST EQ ISZERO PUSH2 0xEED JUMPI PUSH1 0x40 MLOAD PUSH3 0x461BCD PUSH1 0xE5 SHL DUP2 MSTORE PUSH1 0x20 PUSH1 0x4 DUP3 ADD MSTORE PUSH1 0x1B PUSH1 0x24 DUP3 ADD MSTORE PUSH32 0x73656C6C6572206F66206F7074696F6E2063616E6E6F74206275790000000000 PUSH1 0x44 DUP3 ADD MSTORE PUSH1 0x64 ADD PUSH2 0x9A1 JUMP JUMPDEST PUSH1 0x64 DUP3 LT ISZERO PUSH2 0xF2F JUMPI PUSH1 0x40 MLOAD PUSH3 0x461BCD PUSH1 0xE5 SHL DUP2 MSTORE PUSH1 0x20 PUSH1 0x4 DUP3 ADD MSTORE PUSH1 0xE PUSH1 0x24 DUP3 ADD MSTORE PUSH14 0x4D696E2073697A65203D2031303 PUSH1 0x94 SHL PUSH1 0x44 DUP3 ADD MSTORE PUSH1 0x64 ADD PUSH2 0x9A1 JUMP JUMPDEST PUSH1 0x1 PUSH1 0x1 PUSH1 0xA0 SHL SUB DUP2 AND PUSH1 0x0 SWAP1 DUP2 MSTORE PUSH1 0x9 PUSH1 0x20 MSTORE PUSH1 0x40 SWAP1 KECCAK256 SLOAD DUP3 GT ISZERO PUSH2 0xF89 JUMPI PUSH1 0x40 MLOAD PUSH3 0x461BCD PUSH1 0xE5 SHL DUP2 MSTORE PUSH1 0x20 PUSH1 0x4 DUP3 ADD MSTORE PUSH1 0xF PUSH1 0x24 DUP3 ADD MSTORE PUSH15 0xDCDEE840CADCDEEACED040C6C2E6D PUSH1 0x8B SHL PUSH1 0x44 DUP3 ADD MSTORE PUSH1 0x64 ADD PUSH2 0x9A1 JUMP JUMPDEST PUSH1 0x1 PUSH1 0x1 PUSH1 0xA0 SHL SUB DUP2 AND PUSH1 0x0 SWAP1 DUP2 MSTORE PUSH1 0xB PUSH1 0x20 SWAP1 DUP2 MSTORE PUSH1 0x40 DUP1 DUP4 KECCAK256 PUSH1 0xD DUP1 SLOAD DUP6 MSTORE SWAP3 MSTORE DUP1 DUP4 KECCAK256 PUSH1 0x1 SWAP1 DUP2 ADD DUP1 SLOAD PUSH1 0xFF NOT AND SWAP1 SWAP2 OR SWAP1 SSTORE SWAP1 SLOAD DUP3 MSTORE DUP2 KECCAK256 PUSH1 0x2 ADD DUP1 SLOAD DUP5 SWAP3 SWAP1 PUSH2 0xFD8 SWAP1 DUP5 SWAP1 PUSH2 0x3584 JUMP JUMPDEST SWAP1 SWAP2 SSTORE POP POP PUSH1 0x1 PUSH1 0x1 PUSH1 0xA0 SHL SUB DUP2 AND PUSH1 0x0 SWAP1 DUP2 MSTORE PUSH1 0x9 PUSH1 0x20 MSTORE PUSH1 0x40 DUP2 KECCAK256 DUP1 SLOAD DUP5 SWAP3 SWAP1 PUSH2 0x1005 SWAP1 DUP5 SWAP1 PUSH2 0x354B JUMP JUMPDEST SWAP3 POP POP DUP2 SWAP1 SSTORE POP PUSH1 0x0 DUP4 PUSH1 0xC PUSH1 0xD SLOAD DUP2 SLOAD DUP2 LT PUSH2 0x1024 JUMPI PUSH2 0x1024 PUSH2 0x351F JUMP JUMPDEST SWAP1 PUSH1 0x0 MSTORE PUSH1 0x20 PUSH1 0x0 KECCAK256 SWAP1 PUSH1 0x4 MUL ADD PUSH1 0x0 ADD SLOAD DUP5 PUSH2 0x1041 SWAP2 SWAP1 PUSH2 0x359C JUMP JUMPDEST PUSH2 0x104B SWAP2 SWAP1 PUSH2 0x36E0 JUMP JUMPDEST SWAP1 POP DUP1 PUSH1 0xC PUSH1 0xD SLOAD DUP2 SLOAD DUP2 LT PUSH2 0x1063 JUMPI PUSH2 0x1063 PUSH2 0x351F JUMP JUMPDEST SWAP1 PUSH1 0x0 MSTORE PUSH1 0x20 PUSH1 0x0 KECCAK256 SWAP1 PUSH1 0x4 MUL ADD PUSH1 0x2 ADD PUSH1 0x0 DUP3 DUP3 SLOAD PUSH2 0x1083 SWAP2 SWAP1 PUSH2 0x3584 JUMP JUMPDEST SWAP1 SWAP2 SSTORE POP POP PUSH1 0xD DUP1 SLOAD PUSH1 0x0 SWAP1 DUP2 MSTORE PUSH1 0xA PUSH1 0x20 SWAP1 DUP2 MSTORE PUSH1 0x40 DUP1 DUP4 KECCAK256 DUP2 MLOAD PUSH1 0x60 DUP2 ADD DUP4 MSTORE DUP10 DUP2 MSTORE DUP1 DUP5 ADD DUP8 DUP2 MSTORE PUSH1 0x1 PUSH1 0x1 PUSH1 0xA0 SHL SUB DUP10 DUP2 AND SWAP5 DUP4 ADD SWAP5 DUP6 MSTORE DUP4 SLOAD PUSH1 0x1 DUP1 DUP3 ADD DUP7 SSTORE SWAP5 DUP9 MSTORE SWAP6 SWAP1 SWAP7 KECCAK256 SWAP2 MLOAD PUSH1 0x3 SWAP1 SWAP6 MUL SWAP1 SWAP2 ADD SWAP4 DUP5 SSTORE MLOAD SWAP1 DUP4 ADD SSTORE MLOAD PUSH1 0x2 SWAP1 SWAP2 ADD DUP1 SLOAD PUSH1 0x1 PUSH1 0x1 PUSH1 0xA0 SHL SUB NOT AND SWAP2 SWAP1 SWAP3 AND OR SWAP1 SSTORE SLOAD PUSH1 0xC DUP1 SLOAD SWAP1 SWAP2 SWAP1 DUP2 LT PUSH2 0x1110 JUMPI PUSH2 0x1110 PUSH2 0x351F JUMP JUMPDEST PUSH1 0x0 SWAP2 DUP3 MSTORE PUSH1 0x20 SWAP1 SWAP2 KECCAK256 PUSH1 0x3 PUSH1 0x4 SWAP1 SWAP3 MUL ADD ADD SLOAD PUSH2 0x118E JUMPI PUSH1 0xC PUSH1 0xD SLOAD DUP2 SLOAD DUP2 LT PUSH2 0x113D JUMPI PUSH2 0x113D PUSH2 0x351F JUMP JUMPDEST SWAP1 PUSH1 0x0 MSTORE PUSH1 0x20 PUSH1 0x0 KECCAK256 SWAP1 PUSH1 0x4 MUL ADD PUSH1 0x3 ADD PUSH1 0x1 PUSH1 0xA PUSH1 0x0 PUSH1 0xD SLOAD DUP2 MSTORE PUSH1 0x20 ADD SWAP1 DUP2 MSTORE PUSH1 0x20 ADD PUSH1 0x0 KECCAK256 DUP1 SLOAD SWAP1 POP PUSH2 0x1173 SWAP2 SWAP1 PUSH2 0x354B JUMP JUMPDEST DUP2 SLOAD PUSH1 0x1 DUP2 ADD DUP4 SSTORE PUSH1 0x0 SWAP3 DUP4 MSTORE PUSH1 0x20 SWAP1 SWAP3 KECCAK256 SWAP1 SWAP2 ADD SSTORE PUSH2 0x1197 JUMP JUMPDEST PUSH2 0x1197 DUP5 PUSH2 0x2FC8 JUMP JUMPDEST POP POP POP POP JUMP JUMPDEST PUSH1 0x5 DUP2 DUP2 SLOAD DUP2 LT PUSH2 0x11AD JUMPI PUSH1 0x0 DUP1 REVERT JUMPDEST PUSH1 0x0 SWAP2 DUP3 MSTORE PUSH1 0x20 SWAP1 SWAP2 KECCAK256 ADD SLOAD PUSH1 0x1 PUSH1 0x1 PUSH1 0xA0 SHL SUB AND SWAP1 POP DUP2 JUMP JUMPDEST PUSH1 0x0 SLOAD PUSH1 0x1 PUSH1 0x1 PUSH1 0xA0 SHL SUB AND CALLER EQ PUSH2 0x11F1 JUMPI PUSH1 0x40 MLOAD PUSH3 0x461BCD PUSH1 0xE5 SHL DUP2 MSTORE PUSH1 0x4 ADD PUSH2 0x9A1 SWAP1 PUSH2 0x35BB JUMP JUMPDEST PUSH1 0x0 JUMPDEST PUSH1 0x4 SLOAD DUP2 LT ISZERO PUSH2 0x12C1 JUMPI PUSH1 0x0 PUSH1 0x4 DUP3 DUP2 SLOAD DUP2 LT PUSH2 0x1213 JUMPI PUSH2 0x1213 PUSH2 0x351F JUMP JUMPDEST PUSH1 0x0 SWAP2 DUP3 MSTORE PUSH1 0x20 DUP3 KECCAK256 ADD SLOAD PUSH1 0x1 PUSH1 0x1 PUSH1 0xA0 SHL SUB AND SWAP2 POP PUSH2 0x1232 DUP3 PUSH2 0x2454 JUMP JUMPDEST PUSH1 0x6 SLOAD PUSH1 0x40 MLOAD PUSH4 0xA9059CBB PUSH1 0xE0 SHL DUP2 MSTORE PUSH1 0x1 PUSH1 0x1 PUSH1 0xA0 SHL SUB DUP6 DUP2 AND PUSH1 0x4 DUP4 ADD MSTORE PUSH1 0x24 DUP3 ADD DUP5 SWAP1 MSTORE SWAP3 SWAP4 POP SWAP2 AND SWAP1 PUSH4 0xA9059CBB SWAP1 PUSH1 0x44 ADD PUSH1 0x20 PUSH1 0x40 MLOAD DUP1 DUP4 SUB DUP2 PUSH1 0x0 DUP8 GAS CALL ISZERO DUP1 ISZERO PUSH2 0x1287 JUMPI RETURNDATASIZE PUSH1 0x0 DUP1 RETURNDATACOPY RETURNDATASIZE PUSH1 0x0 REVERT JUMPDEST POP POP POP POP PUSH1 0x40 MLOAD RETURNDATASIZE PUSH1 0x1F NOT PUSH1 0x1F DUP3 ADD AND DUP3 ADD DUP1 PUSH1 0x40 MSTORE POP DUP2 ADD SWAP1 PUSH2 0x12AB SWAP2 SWAP1 PUSH2 0x3562 JUMP JUMPDEST POP POP POP DUP1 DUP1 PUSH2 0x12B9 SWAP1 PUSH2 0x3748 JUMP JUMPDEST SWAP2 POP POP PUSH2 0x11F4 JUMP JUMPDEST POP JUMP JUMPDEST PUSH1 0x11 SLOAD PUSH1 0x0 SWAP1 DUP2 SWAP1 PUSH2 0x12DE SWAP1 PUSH1 0x1 PUSH1 0x1 PUSH1 0xA0 SHL SUB AND PUSH2 0x2DB3 JUMP JUMPDEST SWAP1 SWAP3 POP SWAP1 POP PUSH2 0x12F2 DUP3 PUSH5 0x2540BE400 PUSH2 0x359C JUMP JUMPDEST PUSH1 0x7 SSTORE POP POP JUMP JUMPDEST PUSH1 0x0 PUSH1 0xC PUSH1 0xD SLOAD DUP2 SLOAD DUP2 LT PUSH2 0x1310 JUMPI PUSH2 0x1310 PUSH2 0x351F JUMP JUMPDEST SWAP1 PUSH1 0x0 MSTORE PUSH1 0x20 PUSH1 0x0 KECCAK256 SWAP1 PUSH1 0x4 MUL ADD PUSH1 0x2 ADD SLOAD SWAP1 POP SWAP1 JUMP JUMPDEST PUSH1 0x0 CALLER SWAP1 POP PUSH1 0x0 PUSH1 0xC PUSH1 0xD SLOAD DUP2 SLOAD DUP2 LT PUSH2 0x1343 JUMPI PUSH2 0x1343 PUSH2 0x351F JUMP JUMPDEST SWAP1 PUSH1 0x0 MSTORE PUSH1 0x20 PUSH1 0x0 KECCAK256 SWAP1 PUSH1 0x4 MUL ADD PUSH1 0x3 ADD DUP1 SLOAD SWAP1 POP GT PUSH2 0x13A5 JUMPI PUSH1 0x40 MLOAD PUSH3 0x461BCD PUSH1 0xE5 SHL DUP2 MSTORE PUSH1 0x20 PUSH1 0x4 DUP3 ADD MSTORE PUSH1 0x1E PUSH1 0x24 DUP3 ADD MSTORE PUSH32 0x63616E6E6F742073656C6C206966207468657265206973206E6F206269640000 PUSH1 0x44 DUP3 ADD MSTORE PUSH1 0x64 ADD PUSH2 0x9A1 JUMP JUMPDEST PUSH2 0x13B0 PUSH1 0xA TIMESTAMP PUSH2 0x354B JUMP JUMPDEST PUSH1 0xC PUSH1 0xD SLOAD DUP2 SLOAD DUP2 LT PUSH2 0x13C5 JUMPI PUSH2 0x13C5 PUSH2 0x351F JUMP JUMPDEST SWAP1 PUSH1 0x0 MSTORE PUSH1 0x20 PUSH1 0x0 KECCAK256 SWAP1 PUSH1 0x4 MUL ADD PUSH1 0x1 ADD SLOAD GT PUSH2 0x13F4 JUMPI PUSH1 0x40 MLOAD PUSH3 0x461BCD PUSH1 0xE5 SHL DUP2 MSTORE PUSH1 0x4 ADD PUSH2 0x9A1 SWAP1 PUSH2 0x3702 JUMP JUMPDEST PUSH1 0x1 PUSH1 0x1 PUSH1 0x1 PUSH1 0xA0 SHL SUB DUP3 AND PUSH1 0x0 SWAP1 DUP2 MSTORE PUSH1 0xB PUSH1 0x20 SWAP1 DUP2 MSTORE PUSH1 0x40 DUP1 DUP4 KECCAK256 PUSH1 0xD SLOAD DUP5 MSTORE SWAP1 SWAP2 MSTORE SWAP1 KECCAK256 PUSH1 0x1 ADD SLOAD PUSH1 0xFF AND PUSH1 0x3 DUP2 GT ISZERO PUSH2 0x1433 JUMPI PUSH2 0x1433 PUSH2 0x342A JUMP JUMPDEST EQ ISZERO PUSH2 0x1481 JUMPI PUSH1 0x40 MLOAD PUSH3 0x461BCD PUSH1 0xE5 SHL DUP2 MSTORE PUSH1 0x20 PUSH1 0x4 DUP3 ADD MSTORE PUSH1 0x1B PUSH1 0x24 DUP3 ADD MSTORE PUSH32 0x6275796572206F66206F7074696F6E2063616E6E6F742073656C6C0000000000 PUSH1 0x44 DUP3 ADD MSTORE PUSH1 0x64 ADD PUSH2 0x9A1 JUMP JUMPDEST PUSH2 0x3E8 DUP3 LT ISZERO PUSH2 0x14C5 JUMPI PUSH1 0x40 MLOAD PUSH3 0x461BCD PUSH1 0xE5 SHL DUP2 MSTORE PUSH1 0x20 PUSH1 0x4 DUP3 ADD MSTORE PUSH1 0xF PUSH1 0x24 DUP3 ADD MSTORE PUSH15 0x4D696E2073697A65203D203130303 PUSH1 0x8C SHL PUSH1 0x44 DUP3 ADD MSTORE PUSH1 0x64 ADD PUSH2 0x9A1 JUMP JUMPDEST PUSH1 0xC PUSH1 0xD SLOAD DUP2 SLOAD DUP2 LT PUSH2 0x14DA JUMPI PUSH2 0x14DA PUSH2 0x351F JUMP JUMPDEST SWAP1 PUSH1 0x0 MSTORE PUSH1 0x20 PUSH1 0x0 KECCAK256 SWAP1 PUSH1 0x4 MUL ADD PUSH1 0x2 ADD SLOAD DUP3 GT ISZERO PUSH2 0x1528 JUMPI PUSH1 0x40 MLOAD PUSH3 0x461BCD PUSH1 0xE5 SHL DUP2 MSTORE PUSH1 0x20 PUSH1 0x4 DUP3 ADD MSTORE PUSH1 0xA PUSH1 0x24 DUP3 ADD MSTORE PUSH10 0x6C6F7720737570706C79 PUSH1 0xB0 SHL PUSH1 0x44 DUP3 ADD MSTORE PUSH1 0x64 ADD PUSH2 0x9A1 JUMP JUMPDEST PUSH1 0x1 PUSH1 0x1 PUSH1 0xA0 SHL SUB DUP2 AND PUSH1 0x0 SWAP1 DUP2 MSTORE PUSH1 0x9 PUSH1 0x20 MSTORE PUSH1 0x40 SWAP1 KECCAK256 SLOAD DUP3 GT ISZERO PUSH2 0x1582 JUMPI PUSH1 0x40 MLOAD PUSH3 0x461BCD PUSH1 0xE5 SHL DUP2 MSTORE PUSH1 0x20 PUSH1 0x4 DUP3 ADD MSTORE PUSH1 0xF PUSH1 0x24 DUP3 ADD MSTORE PUSH15 0xDCDEE840CADCDEEACED040C6C2E6D PUSH1 0x8B SHL PUSH1 0x44 DUP3 ADD MSTORE PUSH1 0x64 ADD PUSH2 0x9A1 JUMP JUMPDEST PUSH1 0x1 PUSH1 0x1 PUSH1 0xA0 SHL SUB DUP2 AND PUSH1 0x0 SWAP1 DUP2 MSTORE PUSH1 0x9 PUSH1 0x20 MSTORE PUSH1 0x40 DUP2 KECCAK256 DUP1 SLOAD DUP5 SWAP3 SWAP1 PUSH2 0x15AA SWAP1 DUP5 SWAP1 PUSH2 0x354B JUMP JUMPDEST SWAP3 POP POP DUP2 SWAP1 SSTORE POP PUSH1 0x0 DUP3 SWAP1 POP PUSH1 0x0 DUP1 DUP1 PUSH1 0x1 PUSH1 0xC PUSH1 0xD SLOAD DUP2 SLOAD DUP2 LT PUSH2 0x15D1 JUMPI PUSH2 0x15D1 PUSH2 0x351F JUMP JUMPDEST SWAP1 PUSH1 0x0 MSTORE PUSH1 0x20 PUSH1 0x0 KECCAK256 SWAP1 PUSH1 0x4 MUL ADD PUSH1 0x3 ADD DUP1 SLOAD SWAP1 POP PUSH2 0x15F0 SWAP2 SWAP1 PUSH2 0x354B JUMP JUMPDEST SWAP1 POP JUMPDEST DUP4 ISZERO PUSH2 0x1DC7 JUMPI PUSH1 0xD SLOAD PUSH1 0x0 DUP2 DUP2 MSTORE PUSH1 0xA PUSH1 0x20 MSTORE PUSH1 0x40 SWAP1 KECCAK256 PUSH1 0xC DUP1 SLOAD SWAP2 SWAP3 SWAP1 SWAP2 DUP2 LT PUSH2 0x1620 JUMPI PUSH2 0x1620 PUSH2 0x351F JUMP JUMPDEST SWAP1 PUSH1 0x0 MSTORE PUSH1 0x20 PUSH1 0x0 KECCAK256 SWAP1 PUSH1 0x4 MUL ADD PUSH1 0x3 ADD DUP3 DUP2 SLOAD DUP2 LT PUSH2 0x1642 JUMPI PUSH2 0x1642 PUSH2 0x351F JUMP JUMPDEST SWAP1 PUSH1 0x0 MSTORE PUSH1 0x20 PUSH1 0x0 KECCAK256 ADD SLOAD DUP2 SLOAD DUP2 LT PUSH2 0x165D JUMPI PUSH2 0x165D PUSH2 0x351F JUMP JUMPDEST SWAP1 PUSH1 0x0 MSTORE PUSH1 0x20 PUSH1 0x0 KECCAK256 SWAP1 PUSH1 0x3 MUL ADD PUSH1 0x1 ADD SLOAD SWAP2 POP DUP2 DUP5 LT PUSH2 0x1A3D JUMPI PUSH1 0xD SLOAD PUSH1 0x0 DUP2 DUP2 MSTORE PUSH1 0xA PUSH1 0x20 MSTORE PUSH1 0x40 DUP2 KECCAK256 PUSH1 0xC DUP1 SLOAD DUP7 SWAP5 PUSH1 0xB SWAP5 SWAP4 SWAP3 SWAP2 DUP2 LT PUSH2 0x16A3 JUMPI PUSH2 0x16A3 PUSH2 0x351F JUMP JUMPDEST SWAP1 PUSH1 0x0 MSTORE PUSH1 0x20 PUSH1 0x0 KECCAK256 SWAP1 PUSH1 0x4 MUL ADD PUSH1 0x3 ADD DUP6 DUP2 SLOAD DUP2 LT PUSH2 0x16C5 JUMPI PUSH2 0x16C5 PUSH2 0x351F JUMP JUMPDEST SWAP1 PUSH1 0x0 MSTORE PUSH1 0x20 PUSH1 0x0 KECCAK256 ADD SLOAD DUP2 SLOAD DUP2 LT PUSH2 0x16E0 JUMPI PUSH2 0x16E0 PUSH2 0x351F JUMP JUMPDEST PUSH1 0x0 SWAP2 DUP3 MSTORE PUSH1 0x20 DUP1 DUP4 KECCAK256 PUSH1 0x2 PUSH1 0x3 SWAP1 SWAP4 MUL ADD SWAP2 SWAP1 SWAP2 ADD SLOAD PUSH1 0x1 PUSH1 0x1 PUSH1 0xA0 SHL SUB AND DUP4 MSTORE DUP3 DUP2 ADD SWAP4 SWAP1 SWAP4 MSTORE PUSH1 0x40 SWAP2 DUP3 ADD DUP2 KECCAK256 PUSH1 0xD SLOAD DUP3 MSTORE SWAP1 SWAP3 MSTORE DUP2 KECCAK256 DUP1 SLOAD SWAP1 SWAP2 SWAP1 PUSH2 0x172A SWAP1 DUP5 SWAP1 PUSH2 0x3584 JUMP JUMPDEST SWAP3 POP POP DUP2 SWAP1 SSTORE POP PUSH1 0xC PUSH1 0xD SLOAD DUP2 SLOAD DUP2 LT PUSH2 0x1746 JUMPI PUSH2 0x1746 PUSH2 0x351F JUMP JUMPDEST SWAP1 PUSH1 0x0 MSTORE PUSH1 0x20 PUSH1 0x0 KECCAK256 SWAP1 PUSH1 0x4 MUL ADD PUSH1 0x0 ADD SLOAD PUSH1 0xA PUSH1 0x0 PUSH1 0xD SLOAD DUP2 MSTORE PUSH1 0x20 ADD SWAP1 DUP2 MSTORE PUSH1 0x20 ADD PUSH1 0x0 KECCAK256 PUSH1 0xC PUSH1 0xD SLOAD DUP2 SLOAD DUP2 LT PUSH2 0x1782 JUMPI PUSH2 0x1782 PUSH2 0x351F JUMP JUMPDEST SWAP1 PUSH1 0x0 MSTORE PUSH1 0x20 PUSH1 0x0 KECCAK256 SWAP1 PUSH1 0x4 MUL ADD PUSH1 0x3 ADD DUP4 DUP2 SLOAD DUP2 LT PUSH2 0x17A4 JUMPI PUSH2 0x17A4 PUSH2 0x351F JUMP JUMPDEST SWAP1 PUSH1 0x0 MSTORE PUSH1 0x20 PUSH1 0x0 KECCAK256 ADD SLOAD DUP2 SLOAD DUP2 LT PUSH2 0x17BF JUMPI PUSH2 0x17BF PUSH2 0x351F JUMP JUMPDEST SWAP1 PUSH1 0x0 MSTORE PUSH1 0x20 PUSH1 0x0 KECCAK256 SWAP1 PUSH1 0x3 MUL ADD PUSH1 0x0 ADD SLOAD DUP4 PUSH2 0x17DC SWAP2 SWAP1 PUSH2 0x359C JUMP JUMPDEST PUSH2 0x17E6 SWAP2 SWAP1 PUSH2 0x36E0 JUMP JUMPDEST PUSH1 0xD SLOAD PUSH1 0x0 DUP2 DUP2 MSTORE PUSH1 0xA PUSH1 0x20 MSTORE PUSH1 0x40 DUP2 KECCAK256 PUSH1 0xC DUP1 SLOAD PUSH1 0xB SWAP5 SWAP1 DUP2 LT PUSH2 0x180D JUMPI PUSH2 0x180D PUSH2 0x351F JUMP JUMPDEST SWAP1 PUSH1 0x0 MSTORE PUSH1 0x20 PUSH1 0x0 KECCAK256 SWAP1 PUSH1 0x4 MUL ADD PUSH1 0x3 ADD DUP6 DUP2 SLOAD DUP2 LT PUSH2 0x182F JUMPI PUSH2 0x182F PUSH2 0x351F JUMP JUMPDEST SWAP1 PUSH1 0x0 MSTORE PUSH1 0x20 PUSH1 0x0 KECCAK256 ADD SLOAD DUP2 SLOAD DUP2 LT PUSH2 0x184A JUMPI PUSH2 0x184A PUSH2 0x351F JUMP JUMPDEST PUSH1 0x0 SWAP2 DUP3 MSTORE PUSH1 0x20 DUP1 DUP4 KECCAK256 PUSH1 0x2 PUSH1 0x3 SWAP1 SWAP4 MUL ADD DUP3 ADD SLOAD PUSH1 0x1 PUSH1 0x1 PUSH1 0xA0 SHL SUB AND DUP5 MSTORE DUP4 DUP2 ADD SWAP5 SWAP1 SWAP5 MSTORE PUSH1 0x40 SWAP3 DUP4 ADD DUP3 KECCAK256 PUSH1 0xD SLOAD DUP4 MSTORE SWAP1 SWAP4 MSTORE SWAP1 DUP2 KECCAK256 SWAP1 SWAP2 ADD DUP1 SLOAD SWAP1 SWAP2 SWAP1 PUSH2 0x1896 SWAP1 DUP5 SWAP1 PUSH2 0x354B JUMP JUMPDEST SWAP1 SWAP2 SSTORE POP POP PUSH1 0xD SLOAD PUSH1 0x0 DUP2 DUP2 MSTORE PUSH1 0xA PUSH1 0x20 MSTORE PUSH1 0x40 SWAP1 KECCAK256 PUSH1 0xC DUP1 SLOAD SWAP2 SWAP3 SWAP1 SWAP2 DUP2 LT PUSH2 0x18C2 JUMPI PUSH2 0x18C2 PUSH2 0x351F JUMP JUMPDEST SWAP1 PUSH1 0x0 MSTORE PUSH1 0x20 PUSH1 0x0 KECCAK256 SWAP1 PUSH1 0x4 MUL ADD PUSH1 0x3 ADD DUP3 DUP2 SLOAD DUP2 LT PUSH2 0x18E4 JUMPI PUSH2 0x18E4 PUSH2 0x351F JUMP JUMPDEST SWAP1 PUSH1 0x0 MSTORE PUSH1 0x20 PUSH1 0x0 KECCAK256 ADD SLOAD DUP2 SLOAD DUP2 LT PUSH2 0x18FF JUMPI PUSH2 0x18FF PUSH2 0x351F JUMP JUMPDEST SWAP1 PUSH1 0x0 MSTORE PUSH1 0x20 PUSH1 0x0 KECCAK256 SWAP1 PUSH1 0x3 MUL ADD PUSH1 0x0 ADD SLOAD DUP3 PUSH2 0x191C SWAP2 SWAP1 PUSH2 0x359C JUMP JUMPDEST PUSH2 0x1926 SWAP1 DUP5 PUSH2 0x3584 JUMP JUMPDEST SWAP3 POP DUP2 PUSH1 0xC PUSH1 0xD SLOAD DUP2 SLOAD DUP2 LT PUSH2 0x193E JUMPI PUSH2 0x193E PUSH2 0x351F JUMP JUMPDEST SWAP1 PUSH1 0x0 MSTORE PUSH1 0x20 PUSH1 0x0 KECCAK256 SWAP1 PUSH1 0x4 MUL ADD PUSH1 0x2 ADD PUSH1 0x0 DUP3 DUP3 SLOAD PUSH2 0x195E SWAP2 SWAP1 PUSH2 0x354B JUMP JUMPDEST SWAP1 SWAP2 SSTORE POP POP PUSH1 0xD SLOAD PUSH1 0x0 DUP2 DUP2 MSTORE PUSH1 0xA PUSH1 0x20 MSTORE PUSH1 0x40 DUP2 KECCAK256 PUSH1 0xC DUP1 SLOAD SWAP3 SWAP4 SWAP2 SWAP3 SWAP1 SWAP2 SWAP1 DUP2 LT PUSH2 0x198D JUMPI PUSH2 0x198D PUSH2 0x351F JUMP JUMPDEST SWAP1 PUSH1 0x0 MSTORE PUSH1 0x20 PUSH1 0x0 KECCAK256 SWAP1 PUSH1 0x4 MUL ADD PUSH1 0x3 ADD DUP4 DUP2 SLOAD DUP2 LT PUSH2 0x19AF JUMPI PUSH2 0x19AF PUSH2 0x351F JUMP JUMPDEST SWAP1 PUSH1 0x0 MSTORE PUSH1 0x20 PUSH1 0x0 KECCAK256 ADD SLOAD DUP2 SLOAD DUP2 LT PUSH2 0x19CA JUMPI PUSH2 0x19CA PUSH2 0x351F JUMP JUMPDEST SWAP1 PUSH1 0x0 MSTORE PUSH1 0x20 PUSH1 0x0 KECCAK256 SWAP1 PUSH1 0x3 MUL ADD PUSH1 0x1 ADD DUP2 SWAP1 SSTORE POP PUSH1 0xC PUSH1 0xD SLOAD DUP2 SLOAD DUP2 LT PUSH2 0x19F4 JUMPI PUSH2 0x19F4 PUSH2 0x351F JUMP JUMPDEST SWAP1 PUSH1 0x0 MSTORE PUSH1 0x20 PUSH1 0x0 KECCAK256 SWAP1 PUSH1 0x4 MUL ADD PUSH1 0x3 ADD DUP1 SLOAD DUP1 PUSH2 0x1A14 JUMPI PUSH2 0x1A14 PUSH2 0x3763 JUMP JUMPDEST PUSH1 0x1 SWAP1 SUB DUP2 DUP2 SWAP1 PUSH1 0x0 MSTORE PUSH1 0x20 PUSH1 0x0 KECCAK256 ADD PUSH1 0x0 SWAP1 SSTORE SWAP1 SSTORE DUP2 DUP5 PUSH2 0x1A36 SWAP2 SWAP1 PUSH2 0x354B JUMP JUMPDEST SWAP4 POP PUSH2 0x1DB5 JUMP JUMPDEST PUSH1 0xD SLOAD PUSH1 0x0 DUP2 DUP2 MSTORE PUSH1 0xA PUSH1 0x20 MSTORE PUSH1 0x40 DUP2 KECCAK256 PUSH1 0xC DUP1 SLOAD DUP9 SWAP5 PUSH1 0xB SWAP5 SWAP4 SWAP3 SWAP2 DUP2 LT PUSH2 0x1A68 JUMPI PUSH2 0x1A68 PUSH2 0x351F JUMP JUMPDEST SWAP1 PUSH1 0x0 MSTORE PUSH1 0x20 PUSH1 0x0 KECCAK256 SWAP1 PUSH1 0x4 MUL ADD PUSH1 0x3 ADD DUP6 DUP2 SLOAD DUP2 LT PUSH2 0x1A8A JUMPI PUSH2 0x1A8A PUSH2 0x351F JUMP JUMPDEST SWAP1 PUSH1 0x0 MSTORE PUSH1 0x20 PUSH1 0x0 KECCAK256 ADD SLOAD DUP2 SLOAD DUP2 LT PUSH2 0x1AA5 JUMPI PUSH2 0x1AA5 PUSH2 0x351F JUMP JUMPDEST PUSH1 0x0 SWAP2 DUP3 MSTORE PUSH1 0x20 DUP1 DUP4 KECCAK256 PUSH1 0x2 PUSH1 0x3 SWAP1 SWAP4 MUL ADD SWAP2 SWAP1 SWAP2 ADD SLOAD PUSH1 0x1 PUSH1 0x1 PUSH1 0xA0 SHL SUB AND DUP4 MSTORE DUP3 DUP2 ADD SWAP4 SWAP1 SWAP4 MSTORE PUSH1 0x40 SWAP2 DUP3 ADD DUP2 KECCAK256 PUSH1 0xD SLOAD DUP3 MSTORE SWAP1 SWAP3 MSTORE DUP2 KECCAK256 DUP1 SLOAD SWAP1 SWAP2 SWAP1 PUSH2 0x1AEF SWAP1 DUP5 SWAP1 PUSH2 0x3584 JUMP JUMPDEST SWAP3 POP POP DUP2 SWAP1 SSTORE POP PUSH1 0xC PUSH1 0xD SLOAD DUP2 SLOAD DUP2 LT PUSH2 0x1B0B JUMPI PUSH2 0x1B0B PUSH2 0x351F JUMP JUMPDEST SWAP1 PUSH1 0x0 MSTORE PUSH1 0x20 PUSH1 0x0 KECCAK256 SWAP1 PUSH1 0x4 MUL ADD PUSH1 0x0 ADD SLOAD PUSH1 0xA PUSH1 0x0 PUSH1 0xD SLOAD DUP2 MSTORE PUSH1 0x20 ADD SWAP1 DUP2 MSTORE PUSH1 0x20 ADD PUSH1 0x0 KECCAK256 PUSH1 0xC PUSH1 0xD SLOAD DUP2 SLOAD DUP2 LT PUSH2 0x1B47 JUMPI PUSH2 0x1B47 PUSH2 0x351F JUMP JUMPDEST SWAP1 PUSH1 0x0 MSTORE PUSH1 0x20 PUSH1 0x0 KECCAK256 SWAP1 PUSH1 0x4 MUL ADD PUSH1 0x3 ADD DUP4 DUP2 SLOAD DUP2 LT PUSH2 0x1B69 JUMPI PUSH2 0x1B69 PUSH2 0x351F JUMP JUMPDEST SWAP1 PUSH1 0x0 MSTORE PUSH1 0x20 PUSH1 0x0 KECCAK256 ADD SLOAD DUP2 SLOAD DUP2 LT PUSH2 0x1B84 JUMPI PUSH2 0x1B84 PUSH2 0x351F JUMP JUMPDEST SWAP1 PUSH1 0x0 MSTORE PUSH1 0x20 PUSH1 0x0 KECCAK256 SWAP1 PUSH1 0x3 MUL ADD PUSH1 0x0 ADD SLOAD DUP6 PUSH2 0x1BA1 SWAP2 SWAP1 PUSH2 0x359C JUMP JUMPDEST PUSH2 0x1BAB SWAP2 SWAP1 PUSH2 0x36E0 JUMP JUMPDEST PUSH1 0xD SLOAD PUSH1 0x0 DUP2 DUP2 MSTORE PUSH1 0xA PUSH1 0x20 MSTORE PUSH1 0x40 DUP2 KECCAK256 PUSH1 0xC DUP1 SLOAD PUSH1 0xB SWAP5 SWAP1 DUP2 LT PUSH2 0x1BD2 JUMPI PUSH2 0x1BD2 PUSH2 0x351F JUMP JUMPDEST SWAP1 PUSH1 0x0 MSTORE PUSH1 0x20 PUSH1 0x0 KECCAK256 SWAP1 PUSH1 0x4 MUL ADD PUSH1 0x3 ADD DUP6 DUP2 SLOAD DUP2 LT PUSH2 0x1BF4 JUMPI PUSH2 0x1BF4 PUSH2 0x351F JUMP JUMPDEST SWAP1 PUSH1 0x0 MSTORE PUSH1 0x20 PUSH1 0x0 KECCAK256 ADD SLOAD DUP2 SLOAD DUP2 LT PUSH2 0x1C0F JUMPI PUSH2 0x1C0F PUSH2 0x351F JUMP JUMPDEST PUSH1 0x0 SWAP2 DUP3 MSTORE PUSH1 0x20 DUP1 DUP4 KECCAK256 PUSH1 0x2 PUSH1 0x3 SWAP1 SWAP4 MUL ADD DUP3 ADD SLOAD PUSH1 0x1 PUSH1 0x1 PUSH1 0xA0 SHL SUB AND DUP5 MSTORE DUP4 DUP2 ADD SWAP5 SWAP1 SWAP5 MSTORE PUSH1 0x40 SWAP3 DUP4 ADD DUP3 KECCAK256 PUSH1 0xD SLOAD DUP4 MSTORE SWAP1 SWAP4 MSTORE SWAP1 DUP2 KECCAK256 SWAP1 SWAP2 ADD DUP1 SLOAD SWAP1 SWAP2 SWAP1 PUSH2 0x1C5B SWAP1 DUP5 SWAP1 PUSH2 0x354B JUMP JUMPDEST SWAP1 SWAP2 SSTORE POP POP PUSH1 0xD SLOAD PUSH1 0x0 DUP2 DUP2 MSTORE PUSH1 0xA PUSH1 0x20 MSTORE PUSH1 0x40 SWAP1 KECCAK256 PUSH1 0xC DUP1 SLOAD SWAP2 SWAP3 SWAP1 SWAP2 DUP2 LT PUSH2 0x1C87 JUMPI PUSH2 0x1C87 PUSH2 0x351F JUMP JUMPDEST SWAP1 PUSH1 0x0 MSTORE PUSH1 0x20 PUSH1 0x0 KECCAK256 SWAP1 PUSH1 0x4 MUL ADD PUSH1 0x3 ADD DUP3 DUP2 SLOAD DUP2 LT PUSH2 0x1CA9 JUMPI PUSH2 0x1CA9 PUSH2 0x351F JUMP JUMPDEST SWAP1 PUSH1 0x0 MSTORE PUSH1 0x20 PUSH1 0x0 KECCAK256 ADD SLOAD DUP2 SLOAD DUP2 LT PUSH2 0x1CC4 JUMPI PUSH2 0x1CC4 PUSH2 0x351F JUMP JUMPDEST SWAP1 PUSH1 0x0 MSTORE PUSH1 0x20 PUSH1 0x0 KECCAK256 SWAP1 PUSH1 0x3 MUL ADD PUSH1 0x0 ADD SLOAD DUP5 PUSH2 0x1CE1 SWAP2 SWAP1 PUSH2 0x359C JUMP JUMPDEST PUSH2 0x1CEB SWAP1 DUP5 PUSH2 0x3584 JUMP JUMPDEST SWAP3 POP DUP4 PUSH1 0xC PUSH1 0xD SLOAD DUP2 SLOAD DUP2 LT PUSH2 0x1D03 JUMPI PUSH2 0x1D03 PUSH2 0x351F JUMP JUMPDEST SWAP1 PUSH1 0x0 MSTORE PUSH1 0x20 PUSH1 0x0 KECCAK256 SWAP1 PUSH1 0x4 MUL ADD PUSH1 0x2 ADD PUSH1 0x0 DUP3 DUP3 SLOAD PUSH2 0x1D23 SWAP2 SWAP1 PUSH2 0x354B JUMP JUMPDEST SWAP1 SWAP2 SSTORE POP POP PUSH1 0xD SLOAD PUSH1 0x0 DUP2 DUP2 MSTORE PUSH1 0xA PUSH1 0x20 MSTORE PUSH1 0x40 SWAP1 KECCAK256 PUSH1 0xC DUP1 SLOAD DUP8 SWAP4 SWAP1 DUP2 LT PUSH2 0x1D4E JUMPI PUSH2 0x1D4E PUSH2 0x351F JUMP JUMPDEST SWAP1 PUSH1 0x0 MSTORE PUSH1 0x20 PUSH1 0x0 KECCAK256 SWAP1 PUSH1 0x4 MUL ADD PUSH1 0x3 ADD DUP4 DUP2 SLOAD DUP2 LT PUSH2 0x1D70 JUMPI PUSH2 0x1D70 PUSH2 0x351F JUMP JUMPDEST SWAP1 PUSH1 0x0 MSTORE PUSH1 0x20 PUSH1 0x0 KECCAK256 ADD SLOAD DUP2 SLOAD DUP2 LT PUSH2 0x1D8B JUMPI PUSH2 0x1D8B PUSH2 0x351F JUMP JUMPDEST SWAP1 PUSH1 0x0 MSTORE PUSH1 0x20 PUSH1 0x0 KECCAK256 SWAP1 PUSH1 0x3 MUL ADD PUSH1 0x1 ADD PUSH1 0x0 DUP3 DUP3 SLOAD PUSH2 0x1DAB SWAP2 SWAP1 PUSH2 0x354B JUMP JUMPDEST SWAP1 SWAP2 SSTORE POP PUSH1 0x0 SWAP5 POP POP JUMPDEST DUP1 PUSH2 0x1DBF DUP2 PUSH2 0x3779 JUMP JUMPDEST SWAP2 POP POP PUSH2 0x15F3 JUMP JUMPDEST PUSH2 0x1DCF PUSH2 0x12C4 JUMP JUMPDEST PUSH1 0x7 SLOAD PUSH2 0x1DDC DUP2 DUP9 PUSH2 0x359C JUMP JUMPDEST PUSH2 0x1DE6 SWAP1 DUP6 PUSH2 0x3584 JUMP JUMPDEST PUSH2 0x1DF0 SWAP2 SWAP1 PUSH2 0x36E0 JUMP JUMPDEST PUSH1 0x1 PUSH1 0x1 PUSH1 0xA0 SHL SUB DUP7 AND PUSH1 0x0 SWAP1 DUP2 MSTORE PUSH1 0xB PUSH1 0x20 SWAP1 DUP2 MSTORE PUSH1 0x40 DUP1 DUP4 KECCAK256 PUSH1 0xD SLOAD DUP5 MSTORE SWAP1 SWAP2 MSTORE DUP2 KECCAK256 DUP1 SLOAD SWAP1 SWAP2 SWAP1 PUSH2 0x1E25 SWAP1 DUP5 SWAP1 PUSH2 0x3584 JUMP JUMPDEST SWAP1 SWAP2 SSTORE POP POP POP POP PUSH1 0x1 PUSH1 0x1 PUSH1 0xA0 SHL SUB SWAP3 SWAP1 SWAP3 AND PUSH1 0x0 SWAP1 DUP2 MSTORE PUSH1 0xB PUSH1 0x20 SWAP1 DUP2 MSTORE PUSH1 0x40 DUP1 DUP4 KECCAK256 PUSH1 0xD SLOAD DUP5 MSTORE SWAP1 SWAP2 MSTORE SWAP1 KECCAK256 PUSH1 0x1 ADD DUP1 SLOAD PUSH1 0xFF NOT AND PUSH1 0x2 OR SWAP1 SSTORE POP POP POP JUMP JUMPDEST PUSH1 0x0 SLOAD PUSH1 0x1 PUSH1 0x1 PUSH1 0xA0 SHL SUB AND CALLER EQ PUSH2 0x1E90 JUMPI PUSH1 0x40 MLOAD PUSH3 0x461BCD PUSH1 0xE5 SHL DUP2 MSTORE PUSH1 0x4 ADD PUSH2 0x9A1 SWAP1 PUSH2 0x35BB JUMP JUMPDEST PUSH2 0x1E9A PUSH1 0x0 PUSH2 0x3346 JUMP JUMPDEST JUMP JUMPDEST PUSH1 0xA PUSH1 0x20 MSTORE DUP2 PUSH1 0x0 MSTORE PUSH1 0x40 PUSH1 0x0 KECCAK256 DUP2 DUP2 SLOAD DUP2 LT PUSH2 0x1EB8 JUMPI PUSH1 0x0 DUP1 REVERT JUMPDEST PUSH1 0x0 SWAP2 DUP3 MSTORE PUSH1 0x20 SWAP1 SWAP2 KECCAK256 PUSH1 0x3 SWAP1 SWAP2 MUL ADD DUP1 SLOAD PUSH1 0x1 DUP3 ADD SLOAD PUSH1 0x2 SWAP1 SWAP3 ADD SLOAD SWAP1 SWAP4 POP SWAP1 SWAP2 POP PUSH1 0x1 PUSH1 0x1 PUSH1 0xA0 SHL SUB AND DUP4 JUMP JUMPDEST PUSH1 0x0 PUSH1 0xC PUSH1 0xD SLOAD DUP2 SLOAD DUP2 LT PUSH2 0x1EFE JUMPI PUSH2 0x1EFE PUSH2 0x351F JUMP JUMPDEST PUSH1 0x0 SWAP2 DUP3 MSTORE PUSH1 0x20 DUP1 DUP4 KECCAK256 PUSH1 0x4 SWAP1 SWAP3 MUL SWAP1 SWAP2 ADD SLOAD PUSH1 0x1 PUSH1 0x1 PUSH1 0xA0 SHL SUB DUP6 AND DUP4 MSTORE PUSH1 0xB DUP3 MSTORE PUSH1 0x40 DUP1 DUP5 KECCAK256 PUSH1 0xD SLOAD DUP6 MSTORE SWAP1 SWAP3 MSTORE SWAP2 KECCAK256 SLOAD PUSH2 0xC79 SWAP2 SWAP1 PUSH2 0x36E0 JUMP JUMPDEST PUSH1 0x0 TIMESTAMP PUSH1 0xC PUSH1 0xD SLOAD DUP2 SLOAD DUP2 LT PUSH2 0x1F53 JUMPI PUSH2 0x1F53 PUSH2 0x351F JUMP JUMPDEST SWAP1 PUSH1 0x0 MSTORE PUSH1 0x20 PUSH1 0x0 KECCAK256 SWAP1 PUSH1 0x4 MUL ADD PUSH1 0x1 ADD SLOAD PUSH2 0x1F6F SWAP2 SWAP1 PUSH2 0x354B JUMP JUMPDEST SWAP1 POP SWAP1 JUMP JUMPDEST PUSH1 0x0 SLOAD PUSH1 0x1 PUSH1 0x1 PUSH1 0xA0 SHL SUB AND CALLER EQ PUSH2 0x1F9E JUMPI PUSH1 0x40 MLOAD PUSH3 0x461BCD PUSH1 0xE5 SHL DUP2 MSTORE PUSH1 0x4 ADD PUSH2 0x9A1 SWAP1 PUSH2 0x35BB JUMP JUMPDEST PUSH1 0x1 PUSH1 0x1 PUSH1 0xA0 SHL SUB SWAP2 DUP3 AND PUSH1 0x0 SWAP1 DUP2 MSTORE PUSH1 0x3 PUSH1 0x20 MSTORE PUSH1 0x40 SWAP1 KECCAK256 DUP1 SLOAD PUSH1 0x1 PUSH1 0x1 PUSH1 0xA0 SHL SUB NOT AND SWAP2 SWAP1 SWAP3 AND OR SWAP1 SSTORE JUMP JUMPDEST CALLER PUSH1 0x0 PUSH1 0x6 SLOAD PUSH1 0x1 PUSH1 0xA0 SHL SWAP1 DIV PUSH1 0xFF AND PUSH1 0x1 DUP2 GT ISZERO PUSH2 0x1FED JUMPI PUSH2 0x1FED PUSH2 0x342A JUMP JUMPDEST EQ PUSH2 0x203A JUMPI PUSH1 0x40 MLOAD PUSH3 0x461BCD PUSH1 0xE5 SHL DUP2 MSTORE PUSH1 0x20 PUSH1 0x4 DUP3 ADD MSTORE PUSH1 0x1E PUSH1 0x24 DUP3 ADD MSTORE PUSH32 0x636F6E747261637420627573792C2074727920616761696E206C617465720000 PUSH1 0x44 DUP3 ADD MSTORE PUSH1 0x64 ADD PUSH2 0x9A1 JUMP JUMPDEST PUSH1 0x1 PUSH1 0x1 PUSH1 0x1 PUSH1 0xA0 SHL SUB DUP3 AND PUSH1 0x0 SWAP1 DUP2 MSTORE PUSH1 0xB PUSH1 0x20 SWAP1 DUP2 MSTORE PUSH1 0x40 DUP1 DUP4 KECCAK256 PUSH1 0xD SLOAD DUP5 MSTORE SWAP1 SWAP2 MSTORE SWAP1 KECCAK256 PUSH1 0x1 ADD SLOAD PUSH1 0xFF AND PUSH1 0x3 DUP2 GT ISZERO PUSH2 0x2079 JUMPI PUSH2 0x2079 PUSH2 0x342A JUMP JUMPDEST EQ PUSH2 0x20C6 JUMPI PUSH1 0x40 MLOAD PUSH3 0x461BCD PUSH1 0xE5 SHL DUP2 MSTORE PUSH1 0x20 PUSH1 0x4 DUP3 ADD MSTORE PUSH1 0x1C PUSH1 0x24 DUP3 ADD MSTORE PUSH32 0x796F75206E65656420746F20627579206F7074696F6E20666972737400000000 PUSH1 0x44 DUP3 ADD MSTORE PUSH1 0x64 ADD PUSH2 0x9A1 JUMP JUMPDEST PUSH1 0x1 PUSH1 0x1 PUSH1 0xA0 SHL SUB DUP2 AND PUSH1 0x0 SWAP1 DUP2 MSTORE PUSH1 0xB PUSH1 0x20 SWAP1 DUP2 MSTORE PUSH1 0x40 DUP1 DUP4 KECCAK256 PUSH1 0xD SLOAD DUP5 MSTORE SWAP1 SWAP2 MSTORE SWAP1 KECCAK256 PUSH1 0x2 ADD SLOAD PUSH2 0x214A JUMPI PUSH1 0x40 MLOAD PUSH3 0x461BCD PUSH1 0xE5 SHL DUP2 MSTORE PUSH1 0x20 PUSH1 0x4 DUP3 ADD MSTORE PUSH1 0x26 PUSH1 0x24 DUP3 ADD MSTORE PUSH32 0x796F7572206F64657220686173206265656E2066696C6C6564206F722063616E PUSH1 0x44 DUP3 ADD MSTORE PUSH6 0x18D95B1B1959 PUSH1 0xD2 SHL PUSH1 0x64 DUP3 ADD MSTORE PUSH1 0x84 ADD PUSH2 0x9A1 JUMP JUMPDEST PUSH1 0x6 DUP1 SLOAD PUSH1 0xFF PUSH1 0xA0 SHL NOT AND PUSH1 0x1 PUSH1 0xA0 SHL OR SWAP1 SSTORE PUSH1 0x1 PUSH1 0x1 PUSH1 0xA0 SHL SUB DUP2 AND PUSH1 0x0 DUP2 DUP2 MSTORE PUSH1 0xB PUSH1 0x20 SWAP1 DUP2 MSTORE PUSH1 0x40 DUP1 DUP4 KECCAK256 PUSH1 0xD SLOAD DUP5 MSTORE DUP3 MSTORE DUP1 DUP4 KECCAK256 PUSH1 0x2 ADD SLOAD SWAP4 DUP4 MSTORE PUSH1 0x9 SWAP1 SWAP2 MSTORE DUP2 KECCAK256 DUP1 SLOAD SWAP1 SWAP2 SWAP1 PUSH2 0x21A0 SWAP1 DUP5 SWAP1 PUSH2 0x3584 JUMP JUMPDEST SWAP1 SWAP2 SSTORE POP POP PUSH1 0x1 PUSH1 0x1 PUSH1 0xA0 SHL SUB DUP2 AND PUSH1 0x0 SWAP1 DUP2 MSTORE PUSH1 0xB PUSH1 0x20 SWAP1 DUP2 MSTORE PUSH1 0x40 DUP1 DUP4 KECCAK256 PUSH1 0xD DUP1 SLOAD DUP6 MSTORE SWAP3 MSTORE DUP3 KECCAK256 PUSH1 0x2 ADD DUP3 SWAP1 SSTORE SLOAD PUSH1 0xC DUP1 SLOAD SWAP1 SWAP2 SWAP1 DUP2 LT PUSH2 0x21E6 JUMPI PUSH2 0x21E6 PUSH2 0x351F JUMP JUMPDEST SWAP1 PUSH1 0x0 MSTORE PUSH1 0x20 PUSH1 0x0 KECCAK256 SWAP1 PUSH1 0x4 MUL ADD PUSH1 0x3 ADD DUP1 SLOAD DUP1 PUSH1 0x20 MUL PUSH1 0x20 ADD PUSH1 0x40 MLOAD SWAP1 DUP2 ADD PUSH1 0x40 MSTORE DUP1 SWAP3 SWAP2 SWAP1 DUP2 DUP2 MSTORE PUSH1 0x20 ADD DUP3 DUP1 SLOAD DUP1 ISZERO PUSH2 0x2241 JUMPI PUSH1 0x20 MUL DUP3 ADD SWAP2 SWAP1 PUSH1 0x0 MSTORE PUSH1 0x20 PUSH1 0x0 KECCAK256 SWAP1 JUMPDEST DUP2 SLOAD DUP2 MSTORE PUSH1 0x20 ADD SWAP1 PUSH1 0x1 ADD SWAP1 DUP1 DUP4 GT PUSH2 0x222D JUMPI JUMPDEST POP POP POP POP POP SWAP1 POP PUSH1 0x0 DUP1 JUMPDEST DUP3 MLOAD DUP2 LT ISZERO PUSH2 0x23CB JUMPI DUP4 PUSH1 0x1 PUSH1 0x1 PUSH1 0xA0 SHL SUB AND PUSH1 0xA PUSH1 0x0 PUSH1 0xD SLOAD DUP2 MSTORE PUSH1 0x20 ADD SWAP1 DUP2 MSTORE PUSH1 0x20 ADD PUSH1 0x0 KECCAK256 DUP5 DUP4 DUP2 MLOAD DUP2 LT PUSH2 0x2286 JUMPI PUSH2 0x2286 PUSH2 0x351F JUMP JUMPDEST PUSH1 0x20 MUL PUSH1 0x20 ADD ADD MLOAD DUP2 SLOAD DUP2 LT PUSH2 0x229E JUMPI PUSH2 0x229E PUSH2 0x351F JUMP JUMPDEST PUSH1 0x0 SWAP2 DUP3 MSTORE PUSH1 0x20 SWAP1 SWAP2 KECCAK256 PUSH1 0x2 PUSH1 0x3 SWAP1 SWAP3 MUL ADD ADD SLOAD PUSH1 0x1 PUSH1 0x1 PUSH1 0xA0 SHL SUB AND EQ PUSH2 0x232F JUMPI DUP3 DUP2 DUP2 MLOAD DUP2 LT PUSH2 0x22D2 JUMPI PUSH2 0x22D2 PUSH2 0x351F JUMP JUMPDEST PUSH1 0x20 MUL PUSH1 0x20 ADD ADD MLOAD PUSH1 0xC PUSH1 0xD SLOAD DUP2 SLOAD DUP2 LT PUSH2 0x22EF JUMPI PUSH2 0x22EF PUSH2 0x351F JUMP JUMPDEST SWAP1 PUSH1 0x0 MSTORE PUSH1 0x20 PUSH1 0x0 KECCAK256 SWAP1 PUSH1 0x4 MUL ADD PUSH1 0x3 ADD DUP4 DUP2 SLOAD DUP2 LT PUSH2 0x2311 JUMPI PUSH2 0x2311 PUSH2 0x351F JUMP JUMPDEST PUSH1 0x0 SWAP2 DUP3 MSTORE PUSH1 0x20 SWAP1 SWAP2 KECCAK256 ADD SSTORE DUP2 PUSH2 0x2327 DUP2 PUSH2 0x3748 JUMP JUMPDEST SWAP3 POP POP PUSH2 0x23B9 JUMP JUMPDEST PUSH1 0xD SLOAD PUSH1 0x0 SWAP1 DUP2 MSTORE PUSH1 0xA PUSH1 0x20 MSTORE PUSH1 0x40 SWAP1 KECCAK256 DUP4 MLOAD DUP5 SWAP1 DUP4 SWAP1 DUP2 LT PUSH2 0x2354 JUMPI PUSH2 0x2354 PUSH2 0x351F JUMP JUMPDEST PUSH1 0x20 MUL PUSH1 0x20 ADD ADD MLOAD DUP2 SLOAD DUP2 LT PUSH2 0x236C JUMPI PUSH2 0x236C PUSH2 0x351F JUMP JUMPDEST SWAP1 PUSH1 0x0 MSTORE PUSH1 0x20 PUSH1 0x0 KECCAK256 SWAP1 PUSH1 0x3 MUL ADD PUSH1 0x1 ADD SLOAD PUSH1 0xC PUSH1 0xD SLOAD DUP2 SLOAD DUP2 LT PUSH2 0x2393 JUMPI PUSH2 0x2393 PUSH2 0x351F JUMP JUMPDEST SWAP1 PUSH1 0x0 MSTORE PUSH1 0x20 PUSH1 0x0 KECCAK256 SWAP1 PUSH1 0x4 MUL ADD PUSH1 0x2 ADD PUSH1 0x0 DUP3 DUP3 SLOAD PUSH2 0x23B3 SWAP2 SWAP1 PUSH2 0x354B JUMP JUMPDEST SWAP1 SWAP2 SSTORE POP POP JUMPDEST DUP1 PUSH2 0x23C3 DUP2 PUSH2 0x3748 JUMP JUMPDEST SWAP2 POP POP PUSH2 0x224C JUMP JUMPDEST POP PUSH1 0x0 JUMPDEST DUP2 DUP4 MLOAD PUSH2 0x23DC SWAP2 SWAP1 PUSH2 0x354B JUMP JUMPDEST DUP2 LT ISZERO PUSH2 0x2441 JUMPI PUSH1 0xC PUSH1 0xD SLOAD DUP2 SLOAD DUP2 LT PUSH2 0x23F8 JUMPI PUSH2 0x23F8 PUSH2 0x351F JUMP JUMPDEST SWAP1 PUSH1 0x0 MSTORE PUSH1 0x20 PUSH1 0x0 KECCAK256 SWAP1 PUSH1 0x4 MUL ADD PUSH1 0x3 ADD DUP1 SLOAD DUP1 PUSH2 0x2418 JUMPI PUSH2 0x2418 PUSH2 0x3763 JUMP JUMPDEST PUSH1 0x1 SWAP1 SUB DUP2 DUP2 SWAP1 PUSH1 0x0 MSTORE PUSH1 0x20 PUSH1 0x0 KECCAK256 ADD PUSH1 0x0 SWAP1 SSTORE SWAP1 SSTORE DUP1 DUP1 PUSH2 0x2439 SWAP1 PUSH2 0x3748 JUMP JUMPDEST SWAP2 POP POP PUSH2 0x23CF JUMP JUMPDEST POP POP PUSH1 0x6 DUP1 SLOAD PUSH1 0xFF PUSH1 0xA0 SHL NOT AND SWAP1 SSTORE POP POP JUMP JUMPDEST PUSH1 0x1 PUSH1 0x1 PUSH1 0xA0 SHL SUB DUP2 AND PUSH1 0x0 SWAP1 DUP2 MSTORE PUSH1 0x2 PUSH1 0x20 MSTORE PUSH1 0x40 DUP2 KECCAK256 SLOAD DUP2 SWAP1 PUSH2 0x24AF JUMPI PUSH1 0x40 MLOAD PUSH3 0x461BCD PUSH1 0xE5 SHL DUP2 MSTORE PUSH1 0x20 PUSH1 0x4 DUP3 ADD MSTORE PUSH1 0x11 PUSH1 0x24 DUP3 ADD MSTORE PUSH17 0x4E6F20746F6B656E73207374616B656421 PUSH1 0x78 SHL PUSH1 0x44 DUP3 ADD MSTORE PUSH1 0x64 ADD PUSH2 0x9A1 JUMP JUMPDEST PUSH1 0x0 JUMPDEST PUSH1 0x5 SLOAD DUP2 LT ISZERO PUSH2 0x250B JUMPI PUSH2 0x24ED DUP5 PUSH1 0x5 DUP4 DUP2 SLOAD DUP2 LT PUSH2 0x24D3 JUMPI PUSH2 0x24D3 PUSH2 0x351F JUMP JUMPDEST PUSH1 0x0 SWAP2 DUP3 MSTORE PUSH1 0x20 SWAP1 SWAP2 KECCAK256 ADD SLOAD PUSH1 0x1 PUSH1 0x1 PUSH1 0xA0 SHL SUB AND PUSH2 0xBF8 JUMP JUMPDEST PUSH2 0x24F7 SWAP1 DUP4 PUSH2 0x3584 JUMP JUMPDEST SWAP2 POP DUP1 PUSH2 0x2503 DUP2 PUSH2 0x3748 JUMP JUMPDEST SWAP2 POP POP PUSH2 0x24B2 JUMP JUMPDEST POP SWAP3 SWAP2 POP POP JUMP JUMPDEST PUSH2 0x1F4 CALLVALUE LT ISZERO PUSH2 0x2555 JUMPI PUSH1 0x40 MLOAD PUSH3 0x461BCD PUSH1 0xE5 SHL DUP2 MSTORE PUSH1 0x20 PUSH1 0x4 DUP3 ADD MSTORE PUSH1 0xE PUSH1 0x24 DUP3 ADD MSTORE PUSH14 0x4D696E2073697A65203D2035303 PUSH1 0x94 SHL PUSH1 0x44 DUP3 ADD MSTORE PUSH1 0x64 ADD PUSH2 0x9A1 JUMP JUMPDEST CALLER PUSH1 0x0 SWAP1 DUP2 MSTORE PUSH1 0x9 PUSH1 0x20 MSTORE PUSH1 0x40 DUP2 KECCAK256 DUP1 SLOAD CALLVALUE SWAP3 SWAP1 PUSH2 0x2574 SWAP1 DUP5 SWAP1 PUSH2 0x3584 JUMP JUMPDEST SWAP1 SWAP2 SSTORE POP POP JUMP JUMPDEST CALLER PUSH1 0x0 DUP2 DUP2 MSTORE PUSH1 0xB PUSH1 0x20 SWAP1 DUP2 MSTORE PUSH1 0x40 DUP1 DUP4 KECCAK256 PUSH1 0xD SLOAD DUP5 MSTORE SWAP1 SWAP2 MSTORE SWAP1 KECCAK256 PUSH1 0x1 ADD SLOAD PUSH1 0xFF AND PUSH1 0x2 DUP2 PUSH1 0x3 DUP2 GT ISZERO PUSH2 0x25B2 JUMPI PUSH2 0x25B2 PUSH2 0x342A JUMP JUMPDEST EQ DUP1 PUSH2 0x25CF JUMPI POP PUSH1 0x1 DUP2 PUSH1 0x3 DUP2 GT ISZERO PUSH2 0x25CD JUMPI PUSH2 0x25CD PUSH2 0x342A JUMP JUMPDEST EQ JUMPDEST PUSH2 0x2612 JUMPI PUSH1 0x40 MLOAD PUSH3 0x461BCD PUSH1 0xE5 SHL DUP2 MSTORE PUSH1 0x20 PUSH1 0x4 DUP3 ADD MSTORE PUSH1 0x14 PUSH1 0x24 DUP3 ADD MSTORE PUSH20 0x2CB7BA903430BB32903737903837B9B4BA34B7B7 PUSH1 0x61 SHL PUSH1 0x44 DUP3 ADD MSTORE PUSH1 0x64 ADD PUSH2 0x9A1 JUMP JUMPDEST TIMESTAMP PUSH1 0xC PUSH1 0xD SLOAD DUP2 SLOAD DUP2 LT PUSH2 0x2628 JUMPI PUSH2 0x2628 PUSH2 0x351F JUMP JUMPDEST SWAP1 PUSH1 0x0 MSTORE PUSH1 0x20 PUSH1 0x0 KECCAK256 SWAP1 PUSH1 0x4 MUL ADD PUSH1 0x1 ADD SLOAD GT ISZERO PUSH2 0x2688 JUMPI PUSH1 0x40 MLOAD PUSH3 0x461BCD PUSH1 0xE5 SHL DUP2 MSTORE PUSH1 0x20 PUSH1 0x4 DUP3 ADD MSTORE PUSH1 0x1D PUSH1 0x24 DUP3 ADD MSTORE PUSH32 0x43616E6E6F74206578657263697365206265666F726520657870697279000000 PUSH1 0x44 DUP3 ADD MSTORE PUSH1 0x64 ADD PUSH2 0x9A1 JUMP JUMPDEST PUSH1 0x3 DUP2 PUSH1 0x3 DUP2 GT ISZERO PUSH2 0x269C JUMPI PUSH2 0x269C PUSH2 0x342A JUMP JUMPDEST EQ ISZERO PUSH2 0x26EA JUMPI PUSH1 0x40 MLOAD PUSH3 0x461BCD PUSH1 0xE5 SHL DUP2 MSTORE PUSH1 0x20 PUSH1 0x4 DUP3 ADD MSTORE PUSH1 0x17 PUSH1 0x24 DUP3 ADD MSTORE PUSH32 0x596F7520616C7265616479206578636572636973656420000000000000000000 PUSH1 0x44 DUP3 ADD MSTORE PUSH1 0x64 ADD PUSH2 0x9A1 JUMP JUMPDEST PUSH1 0x1 PUSH1 0x1 PUSH1 0xA0 SHL SUB DUP3 AND PUSH1 0x0 SWAP1 DUP2 MSTORE PUSH1 0xB PUSH1 0x20 SWAP1 DUP2 MSTORE PUSH1 0x40 DUP1 DUP4 KECCAK256 PUSH1 0xD SLOAD DUP1 DUP6 MSTORE SWAP3 MSTORE DUP3 KECCAK256 SLOAD PUSH1 0xC DUP1 SLOAD SWAP2 SWAP4 SWAP3 SWAP1 SWAP2 DUP2 LT PUSH2 0x2727 JUMPI PUSH2 0x2727 PUSH2 0x351F JUMP JUMPDEST PUSH1 0x0 SWAP2 DUP3 MSTORE PUSH1 0x20 SWAP1 SWAP2 KECCAK256 PUSH1 0x4 SWAP1 SWAP2 MUL ADD SLOAD SWAP1 POP PUSH1 0x1 DUP4 PUSH1 0x3 DUP2 GT ISZERO PUSH2 0x274E JUMPI PUSH2 0x274E PUSH2 0x342A JUMP JUMPDEST EQ ISZERO PUSH2 0x2832 JUMPI PUSH1 0x0 DUP3 GT PUSH2 0x27B7 JUMPI PUSH1 0x40 MLOAD PUSH3 0x461BCD PUSH1 0xE5 SHL DUP2 MSTORE PUSH1 0x20 PUSH1 0x4 DUP3 ADD MSTORE PUSH1 0x2A PUSH1 0x24 DUP3 ADD MSTORE PUSH32 0x4E6F206F6E652073656C6C20796F75722062696420616E64206E6F7468696E67 PUSH1 0x44 DUP3 ADD MSTORE PUSH10 0x20746F20657870697265 PUSH1 0xB0 SHL PUSH1 0x64 DUP3 ADD MSTORE PUSH1 0x84 ADD PUSH2 0x9A1 JUMP JUMPDEST DUP1 PUSH1 0x7 SLOAD LT PUSH2 0x27FC JUMPI PUSH1 0x40 MLOAD PUSH3 0x461BCD PUSH1 0xE5 SHL DUP2 MSTORE PUSH1 0x20 PUSH1 0x4 DUP3 ADD MSTORE PUSH1 0x11 PUSH1 0x24 DUP3 ADD MSTORE PUSH17 0x45787069726520776F727468207A65726F PUSH1 0x78 SHL PUSH1 0x44 DUP3 ADD MSTORE PUSH1 0x64 ADD PUSH2 0x9A1 JUMP JUMPDEST PUSH1 0x1 PUSH1 0x1 PUSH1 0xA0 SHL SUB DUP5 AND PUSH1 0x0 SWAP1 DUP2 MSTORE PUSH1 0xB PUSH1 0x20 SWAP1 DUP2 MSTORE PUSH1 0x40 DUP1 DUP4 KECCAK256 PUSH1 0xD SLOAD DUP5 MSTORE SWAP1 SWAP2 MSTORE SWAP1 KECCAK256 PUSH1 0x2 ADD SLOAD ISZERO PUSH2 0x2832 JUMPI PUSH2 0x2832 PUSH2 0x1FCC JUMP JUMPDEST PUSH1 0x2 DUP4 PUSH1 0x3 DUP2 GT ISZERO PUSH2 0x2846 JUMPI PUSH2 0x2846 PUSH2 0x342A JUMP JUMPDEST EQ ISZERO PUSH2 0x28D7 JUMPI DUP1 PUSH1 0x7 SLOAD LT ISZERO PUSH2 0x28A0 JUMPI PUSH2 0x2860 DUP2 DUP4 PUSH2 0x36E0 JUMP JUMPDEST PUSH1 0x1 PUSH1 0x1 PUSH1 0xA0 SHL SUB DUP6 AND PUSH1 0x0 SWAP1 DUP2 MSTORE PUSH1 0x9 PUSH1 0x20 MSTORE PUSH1 0x40 DUP2 KECCAK256 DUP1 SLOAD SWAP1 SWAP2 SWAP1 PUSH2 0x2888 SWAP1 DUP5 SWAP1 PUSH2 0x3584 JUMP JUMPDEST SWAP1 SWAP2 SSTORE POP PUSH2 0x2898 SWAP1 POP DUP2 DUP4 PUSH2 0x36E0 JUMP JUMPDEST PUSH1 0x10 SSTORE PUSH2 0x2958 JUMP JUMPDEST PUSH1 0x1 PUSH1 0x1 PUSH1 0xA0 SHL SUB DUP5 AND PUSH1 0x0 SWAP1 DUP2 MSTORE PUSH1 0x9 PUSH1 0x20 MSTORE PUSH1 0x40 DUP2 KECCAK256 DUP1 SLOAD DUP5 SWAP3 SWAP1 PUSH2 0x28C8 SWAP1 DUP5 SWAP1 PUSH2 0x3584 JUMP JUMPDEST SWAP1 SWAP2 SSTORE POP POP PUSH1 0x10 DUP3 SWAP1 SSTORE PUSH2 0x2958 JUMP JUMPDEST DUP1 PUSH1 0x7 SLOAD LT ISZERO PUSH2 0x2958 JUMPI DUP1 PUSH1 0x7 SLOAD DUP3 PUSH2 0x28F0 SWAP2 SWAP1 PUSH2 0x354B JUMP JUMPDEST PUSH2 0x28FA SWAP1 DUP5 PUSH2 0x359C JUMP JUMPDEST PUSH2 0x2904 SWAP2 SWAP1 PUSH2 0x36E0 JUMP JUMPDEST PUSH1 0x1 PUSH1 0x1 PUSH1 0xA0 SHL SUB DUP6 AND PUSH1 0x0 SWAP1 DUP2 MSTORE PUSH1 0x9 PUSH1 0x20 MSTORE PUSH1 0x40 DUP2 KECCAK256 DUP1 SLOAD SWAP1 SWAP2 SWAP1 PUSH2 0x292C SWAP1 DUP5 SWAP1 PUSH2 0x3584 JUMP JUMPDEST SWAP1 SWAP2 SSTORE POP POP PUSH1 0x7 SLOAD DUP2 SWAP1 PUSH2 0x2940 SWAP1 DUP3 PUSH2 0x354B JUMP JUMPDEST PUSH2 0x294A SWAP1 DUP5 PUSH2 0x359C JUMP JUMPDEST PUSH2 0x2954 SWAP2 SWAP1 PUSH2 0x36E0 JUMP JUMPDEST PUSH1 0x10 SSTORE JUMPDEST POP POP POP PUSH1 0x1 PUSH1 0x1 PUSH1 0xA0 SHL SUB AND PUSH1 0x0 SWAP1 DUP2 MSTORE PUSH1 0xB PUSH1 0x20 SWAP1 DUP2 MSTORE PUSH1 0x40 DUP1 DUP4 KECCAK256 PUSH1 0xD SLOAD DUP5 MSTORE SWAP1 SWAP2 MSTORE SWAP1 KECCAK256 PUSH1 0x1 ADD DUP1 SLOAD PUSH1 0xFF NOT AND PUSH1 0x3 OR SWAP1 SSTORE JUMP JUMPDEST PUSH1 0x60 PUSH1 0xC PUSH1 0xD SLOAD DUP2 SLOAD DUP2 LT PUSH2 0x29A6 JUMPI PUSH2 0x29A6 PUSH2 0x351F JUMP JUMPDEST SWAP1 PUSH1 0x0 MSTORE PUSH1 0x20 PUSH1 0x0 KECCAK256 SWAP1 PUSH1 0x4 MUL ADD PUSH1 0x3 ADD DUP1 SLOAD DUP1 PUSH1 0x20 MUL PUSH1 0x20 ADD PUSH1 0x40 MLOAD SWAP1 DUP2 ADD PUSH1 0x40 MSTORE DUP1 SWAP3 SWAP2 SWAP1 DUP2 DUP2 MSTORE PUSH1 0x20 ADD DUP3 DUP1 SLOAD DUP1 ISZERO PUSH2 0x2A01 JUMPI PUSH1 0x20 MUL DUP3 ADD SWAP2 SWAP1 PUSH1 0x0 MSTORE PUSH1 0x20 PUSH1 0x0 KECCAK256 SWAP1 JUMPDEST DUP2 SLOAD DUP2 MSTORE PUSH1 0x20 ADD SWAP1 PUSH1 0x1 ADD SWAP1 DUP1 DUP4 GT PUSH2 0x29ED JUMPI JUMPDEST POP POP POP POP POP SWAP1 POP SWAP1 JUMP JUMPDEST PUSH1 0x0 DUP1 JUMPDEST PUSH1 0x5 SLOAD DUP2 LT ISZERO PUSH2 0x2A6C JUMPI DUP3 PUSH1 0x1 PUSH1 0x1 PUSH1 0xA0 SHL SUB AND PUSH1 0x5 DUP3 DUP2 SLOAD DUP2 LT PUSH2 0x2A36 JUMPI PUSH2 0x2A36 PUSH2 0x351F JUMP JUMPDEST PUSH1 0x0 SWAP2 DUP3 MSTORE PUSH1 0x20 SWAP1 SWAP2 KECCAK256 ADD SLOAD PUSH1 0x1 PUSH1 0x1 PUSH1 0xA0 SHL SUB AND EQ ISZERO PUSH2 0x2A5A JUMPI POP PUSH1 0x1 SWAP3 SWAP2 POP POP JUMP JUMPDEST DUP1 PUSH2 0x2A64 DUP2 PUSH2 0x3748 JUMP JUMPDEST SWAP2 POP POP PUSH2 0x2A0F JUMP JUMPDEST POP PUSH1 0x0 SWAP3 SWAP2 POP POP JUMP JUMPDEST PUSH1 0x0 DUP1 PUSH1 0xC PUSH1 0xD SLOAD DUP2 SLOAD DUP2 LT PUSH2 0x2A8D JUMPI PUSH2 0x2A8D PUSH2 0x351F JUMP JUMPDEST SWAP1 PUSH1 0x0 MSTORE PUSH1 0x20 PUSH1 0x0 KECCAK256 SWAP1 PUSH1 0x4 MUL ADD PUSH1 0x3 ADD DUP1 SLOAD SWAP1 POP GT PUSH2 0x2AEF JUMPI PUSH1 0x40 MLOAD PUSH3 0x461BCD PUSH1 0xE5 SHL DUP2 MSTORE PUSH1 0x20 PUSH1 0x4 DUP3 ADD MSTORE PUSH1 0x1E PUSH1 0x24 DUP3 ADD MSTORE PUSH32 0x63616E6E6F742073656C6C206966207468657265206973206E6F206269640000 PUSH1 0x44 DUP3 ADD MSTORE PUSH1 0x64 ADD PUSH2 0x9A1 JUMP JUMPDEST PUSH2 0x3E8 DUP3 LT ISZERO PUSH2 0x2B33 JUMPI PUSH1 0x40 MLOAD PUSH3 0x461BCD PUSH1 0xE5 SHL DUP2 MSTORE PUSH1 0x20 PUSH1 0x4 DUP3 ADD MSTORE PUSH1 0xF PUSH1 0x24 DUP3 ADD MSTORE PUSH15 0x6D696E2073697A65203D203130303 PUSH1 0x8C SHL PUSH1 0x44 DUP3 ADD MSTORE PUSH1 0x64 ADD PUSH2 0x9A1 JUMP JUMPDEST PUSH1 0xC PUSH1 0xD SLOAD DUP2 SLOAD DUP2 LT PUSH2 0x2B48 JUMPI PUSH2 0x2B48 PUSH2 0x351F JUMP JUMPDEST SWAP1 PUSH1 0x0 MSTORE PUSH1 0x20 PUSH1 0x0 KECCAK256 SWAP1 PUSH1 0x4 MUL ADD PUSH1 0x2 ADD SLOAD DUP3 GT ISZERO PUSH2 0x2B96 JUMPI PUSH1 0x40 MLOAD PUSH3 0x461BCD PUSH1 0xE5 SHL DUP2 MSTORE PUSH1 0x20 PUSH1 0x4 DUP3 ADD MSTORE PUSH1 0xA PUSH1 0x24 DUP3 ADD MSTORE PUSH10 0x6C6F7720737570706C79 PUSH1 0xB0 SHL PUSH1 0x44 DUP3 ADD MSTORE PUSH1 0x64 ADD PUSH2 0x9A1 JUMP JUMPDEST PUSH1 0x0 DUP3 SWAP1 POP PUSH1 0x0 DUP1 DUP1 PUSH1 0x1 PUSH1 0xC PUSH1 0xD SLOAD DUP2 SLOAD DUP2 LT PUSH2 0x2BB6 JUMPI PUSH2 0x2BB6 PUSH2 0x351F JUMP JUMPDEST SWAP1 PUSH1 0x0 MSTORE PUSH1 0x20 PUSH1 0x0 KECCAK256 SWAP1 PUSH1 0x4 MUL ADD PUSH1 0x3 ADD DUP1 SLOAD SWAP1 POP PUSH2 0x2BD5 SWAP2 SWAP1 PUSH2 0x354B JUMP JUMPDEST SWAP1 POP JUMPDEST DUP4 ISZERO PUSH2 0x2D9F JUMPI PUSH1 0xD SLOAD PUSH1 0x0 DUP2 DUP2 MSTORE PUSH1 0xA PUSH1 0x20 MSTORE PUSH1 0x40 SWAP1 KECCAK256 PUSH1 0xC DUP1 SLOAD SWAP2 SWAP3 SWAP1 SWAP2 DUP2 LT PUSH2 0x2C05 JUMPI PUSH2 0x2C05 PUSH2 0x351F JUMP JUMPDEST SWAP1 PUSH1 0x0 MSTORE PUSH1 0x20 PUSH1 0x0 KECCAK256 SWAP1 PUSH1 0x4 MUL ADD PUSH1 0x3 ADD DUP3 DUP2 SLOAD DUP2 LT PUSH2 0x2C27 JUMPI PUSH2 0x2C27 PUSH2 0x351F JUMP JUMPDEST SWAP1 PUSH1 0x0 MSTORE PUSH1 0x20 PUSH1 0x0 KECCAK256 ADD SLOAD DUP2 SLOAD DUP2 LT PUSH2 0x2C42 JUMPI PUSH2 0x2C42 PUSH2 0x351F JUMP JUMPDEST SWAP1 PUSH1 0x0 MSTORE PUSH1 0x20 PUSH1 0x0 KECCAK256 SWAP1 PUSH1 0x3 MUL ADD PUSH1 0x1 ADD SLOAD SWAP2 POP DUP2 DUP5 LT PUSH2 0x2CFB JUMPI PUSH1 0xD SLOAD PUSH1 0x0 DUP2 DUP2 MSTORE PUSH1 0xA PUSH1 0x20 MSTORE PUSH1 0x40 SWAP1 KECCAK256 PUSH1 0xC DUP1 SLOAD SWAP2 SWAP3 SWAP1 SWAP2 DUP2 LT PUSH2 0x2C84 JUMPI PUSH2 0x2C84 PUSH2 0x351F JUMP JUMPDEST SWAP1 PUSH1 0x0 MSTORE PUSH1 0x20 PUSH1 0x0 KECCAK256 SWAP1 PUSH1 0x4 MUL ADD PUSH1 0x3 ADD DUP3 DUP2 SLOAD DUP2 LT PUSH2 0x2CA6 JUMPI PUSH2 0x2CA6 PUSH2 0x351F JUMP JUMPDEST SWAP1 PUSH1 0x0 MSTORE PUSH1 0x20 PUSH1 0x0 KECCAK256 ADD SLOAD DUP2 SLOAD DUP2 LT PUSH2 0x2CC1 JUMPI PUSH2 0x2CC1 PUSH2 0x351F JUMP JUMPDEST SWAP1 PUSH1 0x0 MSTORE PUSH1 0x20 PUSH1 0x0 KECCAK256 SWAP1 PUSH1 0x3 MUL ADD PUSH1 0x0 ADD SLOAD DUP3 PUSH2 0x2CDE SWAP2 SWAP1 PUSH2 0x359C JUMP JUMPDEST PUSH2 0x2CE8 SWAP1 DUP5 PUSH2 0x3584 JUMP JUMPDEST SWAP3 POP PUSH2 0x2CF4 DUP3 DUP6 PUSH2 0x354B JUMP JUMPDEST SWAP4 POP PUSH2 0x2D8D JUMP JUMPDEST PUSH1 0xD SLOAD PUSH1 0x0 DUP2 DUP2 MSTORE PUSH1 0xA PUSH1 0x20 MSTORE PUSH1 0x40 SWAP1 KECCAK256 PUSH1 0xC DUP1 SLOAD SWAP2 SWAP3 SWAP1 SWAP2 DUP2 LT PUSH2 0x2D22 JUMPI PUSH2 0x2D22 PUSH2 0x351F JUMP JUMPDEST SWAP1 PUSH1 0x0 MSTORE PUSH1 0x20 PUSH1 0x0 KECCAK256 SWAP1 PUSH1 0x4 MUL ADD PUSH1 0x3 ADD DUP3 DUP2 SLOAD DUP2 LT PUSH2 0x2D44 JUMPI PUSH2 0x2D44 PUSH2 0x351F JUMP JUMPDEST SWAP1 PUSH1 0x0 MSTORE PUSH1 0x20 PUSH1 0x0 KECCAK256 ADD SLOAD DUP2 SLOAD DUP2 LT PUSH2 0x2D5F JUMPI PUSH2 0x2D5F PUSH2 0x351F JUMP JUMPDEST SWAP1 PUSH1 0x0 MSTORE PUSH1 0x20 PUSH1 0x0 KECCAK256 SWAP1 PUSH1 0x3 MUL ADD PUSH1 0x0 ADD SLOAD DUP5 PUSH2 0x2D7C SWAP2 SWAP1 PUSH2 0x359C JUMP JUMPDEST PUSH2 0x2D86 SWAP1 DUP5 PUSH2 0x3584 JUMP JUMPDEST SWAP3 POP PUSH1 0x0 SWAP4 POP JUMPDEST DUP1 PUSH2 0x2D97 DUP2 PUSH2 0x3779 JUMP JUMPDEST SWAP2 POP POP PUSH2 0x2BD8 JUMP JUMPDEST PUSH2 0x2DA9 DUP7 DUP5 PUSH2 0x36E0 JUMP JUMPDEST SWAP7 SWAP6 POP POP POP POP POP POP JUMP JUMPDEST PUSH1 0x1 PUSH1 0x1 PUSH1 0xA0 SHL SUB DUP1 DUP3 AND PUSH1 0x0 SWAP1 DUP2 MSTORE PUSH1 0x3 PUSH1 0x20 MSTORE PUSH1 0x40 DUP1 DUP3 KECCAK256 SLOAD DUP2 MLOAD PUSH4 0x3FABE5A3 PUSH1 0xE2 SHL DUP2 MSTORE SWAP2 MLOAD SWAP3 SWAP4 DUP5 SWAP4 SWAP2 AND SWAP2 DUP3 SWAP2 DUP5 SWAP2 DUP4 SWAP2 PUSH4 0xFEAF968C SWAP2 PUSH1 0x4 DUP1 DUP3 ADD SWAP3 PUSH1 0xA0 SWAP3 SWAP1 SWAP2 SWAP1 DUP3 SWAP1 SUB ADD DUP2 DUP7 GAS STATICCALL ISZERO DUP1 ISZERO PUSH2 0x2E14 JUMPI RETURNDATASIZE PUSH1 0x0 DUP1 RETURNDATACOPY RETURNDATASIZE PUSH1 0x0 REVERT JUMPDEST POP POP POP POP PUSH1 0x40 MLOAD RETURNDATASIZE PUSH1 0x1F NOT PUSH1 0x1F DUP3 ADD AND DUP3 ADD DUP1 PUSH1 0x40 MSTORE POP DUP2 ADD SWAP1 PUSH2 0x2E38 SWAP2 SWAP1 PUSH2 0x37AA JUMP JUMPDEST POP POP POP SWAP2 POP POP PUSH1 0x0 DUP3 PUSH1 0x1 PUSH1 0x1 PUSH1 0xA0 SHL SUB AND PUSH4 0x313CE567 PUSH1 0x40 MLOAD DUP2 PUSH4 0xFFFFFFFF AND PUSH1 0xE0 SHL DUP2 MSTORE PUSH1 0x4 ADD PUSH1 0x20 PUSH1 0x40 MLOAD DUP1 DUP4 SUB DUP2 DUP7 GAS STATICCALL ISZERO DUP1 ISZERO PUSH2 0x2E7E JUMPI RETURNDATASIZE PUSH1 0x0 DUP1 RETURNDATACOPY RETURNDATASIZE PUSH1 0x0 REVERT JUMPDEST POP POP POP POP PUSH1 0x40 MLOAD RETURNDATASIZE PUSH1 0x1F NOT PUSH1 0x1F DUP3 ADD AND DUP3 ADD DUP1 PUSH1 0x40 MSTORE POP DUP2 ADD SWAP1 PUSH2 0x2EA2 SWAP2 SWAP1 PUSH2 0x37FA JUMP JUMPDEST SWAP2 SWAP8 PUSH1 0xFF SWAP1 SWAP3 AND SWAP7 POP SWAP1 SWAP5 POP POP POP POP POP JUMP JUMPDEST PUSH1 0x0 SLOAD PUSH1 0x1 PUSH1 0x1 PUSH1 0xA0 SHL SUB AND CALLER EQ PUSH2 0x2EDE JUMPI PUSH1 0x40 MLOAD PUSH3 0x461BCD PUSH1 0xE5 SHL DUP2 MSTORE PUSH1 0x4 ADD PUSH2 0x9A1 SWAP1 PUSH2 0x35BB JUMP JUMPDEST PUSH1 0x1 PUSH1 0x1 PUSH1 0xA0 SHL SUB DUP2 AND PUSH2 0x2F43 JUMPI PUSH1 0x40 MLOAD PUSH3 0x461BCD PUSH1 0xE5 SHL DUP2 MSTORE PUSH1 0x20 PUSH1 0x4 DUP3 ADD MSTORE PUSH1 0x26 PUSH1 0x24 DUP3 ADD MSTORE PUSH32 0x4F776E61626C653A206E6577206F776E657220697320746865207A65726F2061 PUSH1 0x44 DUP3 ADD MSTORE PUSH6 0x646472657373 PUSH1 0xD0 SHL PUSH1 0x64 DUP3 ADD MSTORE PUSH1 0x84 ADD PUSH2 0x9A1 JUMP JUMPDEST PUSH2 0x12C1 DUP2 PUSH2 0x3346 JUMP JUMPDEST PUSH1 0x4 DUP2 DUP2 SLOAD DUP2 LT PUSH2 0x11AD JUMPI PUSH1 0x0 DUP1 REVERT JUMPDEST PUSH1 0x1 PUSH1 0x1 PUSH1 0xA0 SHL SUB DUP1 DUP3 AND PUSH1 0x0 SWAP1 DUP2 MSTORE PUSH1 0x1 PUSH1 0x20 SWAP1 DUP2 MSTORE PUSH1 0x40 DUP1 DUP4 KECCAK256 SWAP4 DUP7 AND DUP4 MSTORE SWAP3 SWAP1 MSTORE KECCAK256 SLOAD PUSH2 0x2FC4 JUMPI PUSH1 0x1 PUSH1 0x1 PUSH1 0xA0 SHL SUB DUP3 AND PUSH1 0x0 SWAP1 DUP2 MSTORE PUSH1 0x2 PUSH1 0x20 MSTORE PUSH1 0x40 SWAP1 KECCAK256 SLOAD PUSH2 0x2FAA SWAP1 PUSH1 0x1 PUSH2 0x3584 JUMP JUMPDEST PUSH1 0x1 PUSH1 0x1 PUSH1 0xA0 SHL SUB DUP4 AND PUSH1 0x0 SWAP1 DUP2 MSTORE PUSH1 0x2 PUSH1 0x20 MSTORE PUSH1 0x40 SWAP1 KECCAK256 SSTORE JUMPDEST POP POP JUMP JUMPDEST PUSH1 0x0 DUP1 PUSH1 0x1 PUSH1 0xC PUSH1 0xD SLOAD DUP2 SLOAD DUP2 LT PUSH2 0x2FE2 JUMPI PUSH2 0x2FE2 PUSH2 0x351F JUMP JUMPDEST SWAP1 PUSH1 0x0 MSTORE PUSH1 0x20 PUSH1 0x0 KECCAK256 SWAP1 PUSH1 0x4 MUL ADD PUSH1 0x3 ADD DUP1 SLOAD SWAP1 POP PUSH2 0x3001 SWAP2 SWAP1 PUSH2 0x354B JUMP JUMPDEST SWAP1 POP PUSH1 0x0 JUMPDEST DUP2 DUP4 LT ISZERO PUSH2 0x30C0 JUMPI PUSH1 0x2 PUSH2 0x301A DUP4 DUP6 PUSH2 0x3584 JUMP JUMPDEST PUSH2 0x3024 SWAP2 SWAP1 PUSH2 0x36E0 JUMP JUMPDEST SWAP1 POP PUSH1 0xA PUSH1 0x0 PUSH1 0xD SLOAD DUP2 MSTORE PUSH1 0x20 ADD SWAP1 DUP2 MSTORE PUSH1 0x20 ADD PUSH1 0x0 KECCAK256 PUSH1 0xC PUSH1 0xD SLOAD DUP2 SLOAD DUP2 LT PUSH2 0x3050 JUMPI PUSH2 0x3050 PUSH2 0x351F JUMP JUMPDEST SWAP1 PUSH1 0x0 MSTORE PUSH1 0x20 PUSH1 0x0 KECCAK256 SWAP1 PUSH1 0x4 MUL ADD PUSH1 0x3 ADD DUP3 DUP2 SLOAD DUP2 LT PUSH2 0x3072 JUMPI PUSH2 0x3072 PUSH2 0x351F JUMP JUMPDEST SWAP1 PUSH1 0x0 MSTORE PUSH1 0x20 PUSH1 0x0 KECCAK256 ADD SLOAD DUP2 SLOAD DUP2 LT PUSH2 0x308D JUMPI PUSH2 0x308D PUSH2 0x351F JUMP JUMPDEST SWAP1 PUSH1 0x0 MSTORE PUSH1 0x20 PUSH1 0x0 KECCAK256 SWAP1 PUSH1 0x3 MUL ADD PUSH1 0x0 ADD SLOAD DUP5 GT ISZERO PUSH2 0x30B8 JUMPI PUSH2 0x30B1 DUP2 PUSH1 0x1 PUSH2 0x3584 JUMP JUMPDEST SWAP3 POP PUSH2 0x3006 JUMP JUMPDEST DUP1 SWAP2 POP PUSH2 0x3006 JUMP JUMPDEST DUP2 DUP4 EQ ISZERO PUSH2 0x315A JUMPI PUSH1 0xD SLOAD PUSH1 0x0 DUP2 DUP2 MSTORE PUSH1 0xA PUSH1 0x20 MSTORE PUSH1 0x40 SWAP1 KECCAK256 PUSH1 0xC DUP1 SLOAD SWAP2 SWAP3 SWAP1 SWAP2 DUP2 LT PUSH2 0x30EF JUMPI PUSH2 0x30EF PUSH2 0x351F JUMP JUMPDEST SWAP1 PUSH1 0x0 MSTORE PUSH1 0x20 PUSH1 0x0 KECCAK256 SWAP1 PUSH1 0x4 MUL ADD PUSH1 0x3 ADD DUP5 DUP2 SLOAD DUP2 LT PUSH2 0x3111 JUMPI PUSH2 0x3111 PUSH2 0x351F JUMP JUMPDEST SWAP1 PUSH1 0x0 MSTORE PUSH1 0x20 PUSH1 0x0 KECCAK256 ADD SLOAD DUP2 SLOAD DUP2 LT PUSH2 0x312C JUMPI PUSH2 0x312C PUSH2 0x351F JUMP JUMPDEST SWAP1 PUSH1 0x0 MSTORE PUSH1 0x20 PUSH1 0x0 KECCAK256 SWAP1 PUSH1 0x3 MUL ADD PUSH1 0x0 ADD SLOAD DUP5 GT ISZERO PUSH2 0x3157 JUMPI PUSH2 0x3150 DUP4 PUSH1 0x1 PUSH2 0x3584 JUMP JUMPDEST SWAP1 POP PUSH2 0x315A JUMP JUMPDEST POP DUP2 JUMPDEST PUSH1 0xC PUSH1 0xD SLOAD DUP2 SLOAD DUP2 LT PUSH2 0x316F JUMPI PUSH2 0x316F PUSH2 0x351F JUMP JUMPDEST SWAP1 PUSH1 0x0 MSTORE PUSH1 0x20 PUSH1 0x0 KECCAK256 SWAP1 PUSH1 0x4 MUL ADD PUSH1 0x3 ADD PUSH1 0x1 PUSH1 0xA PUSH1 0x0 PUSH1 0xD SLOAD DUP2 MSTORE PUSH1 0x20 ADD SWAP1 DUP2 MSTORE PUSH1 0x20 ADD PUSH1 0x0 KECCAK256 DUP1 SLOAD SWAP1 POP PUSH2 0x31A5 SWAP2 SWAP1 PUSH2 0x354B JUMP JUMPDEST DUP2 SLOAD PUSH1 0x1 DUP2 DUP2 ADD DUP5 SSTORE PUSH1 0x0 SWAP4 DUP5 MSTORE PUSH1 0x20 SWAP1 SWAP4 KECCAK256 ADD SSTORE PUSH1 0xD SLOAD PUSH1 0xC DUP1 SLOAD SWAP1 SWAP2 SWAP1 DUP2 LT PUSH2 0x31D2 JUMPI PUSH2 0x31D2 PUSH2 0x351F JUMP JUMPDEST SWAP1 PUSH1 0x0 MSTORE PUSH1 0x20 PUSH1 0x0 KECCAK256 SWAP1 PUSH1 0x4 MUL ADD PUSH1 0x3 ADD DUP1 SLOAD SWAP1 POP PUSH2 0x31F1 SWAP2 SWAP1 PUSH2 0x354B JUMP JUMPDEST DUP2 LT ISZERO PUSH2 0x1197 JUMPI PUSH1 0x0 PUSH1 0x1 PUSH1 0xC PUSH1 0xD SLOAD DUP2 SLOAD DUP2 LT PUSH2 0x3211 JUMPI PUSH2 0x3211 PUSH2 0x351F JUMP JUMPDEST SWAP1 PUSH1 0x0 MSTORE PUSH1 0x20 PUSH1 0x0 KECCAK256 SWAP1 PUSH1 0x4 MUL ADD PUSH1 0x3 ADD DUP1 SLOAD SWAP1 POP PUSH2 0x3230 SWAP2 SWAP1 PUSH2 0x354B JUMP JUMPDEST SWAP1 POP JUMPDEST DUP2 DUP2 GT ISZERO PUSH2 0x32DE JUMPI PUSH1 0xC PUSH1 0xD SLOAD DUP2 SLOAD DUP2 LT PUSH2 0x3250 JUMPI PUSH2 0x3250 PUSH2 0x351F JUMP JUMPDEST SWAP1 PUSH1 0x0 MSTORE PUSH1 0x20 PUSH1 0x0 KECCAK256 SWAP1 PUSH1 0x4 MUL ADD PUSH1 0x3 ADD PUSH1 0x1 DUP3 PUSH2 0x326E SWAP2 SWAP1 PUSH2 0x354B JUMP JUMPDEST DUP2 SLOAD DUP2 LT PUSH2 0x327E JUMPI PUSH2 0x327E PUSH2 0x351F JUMP JUMPDEST SWAP1 PUSH1 0x0 MSTORE PUSH1 0x20 PUSH1 0x0 KECCAK256 ADD SLOAD PUSH1 0xC PUSH1 0xD SLOAD DUP2 SLOAD DUP2 LT PUSH2 0x329E JUMPI PUSH2 0x329E PUSH2 0x351F JUMP JUMPDEST SWAP1 PUSH1 0x0 MSTORE PUSH1 0x20 PUSH1 0x0 KECCAK256 SWAP1 PUSH1 0x4 MUL ADD PUSH1 0x3 ADD DUP3 DUP2 SLOAD DUP2 LT PUSH2 0x32C0 JUMPI PUSH2 0x32C0 PUSH2 0x351F JUMP JUMPDEST PUSH1 0x0 SWAP2 DUP3 MSTORE PUSH1 0x20 SWAP1 SWAP2 KECCAK256 ADD SSTORE DUP1 PUSH2 0x32D6 DUP2 PUSH2 0x3779 JUMP JUMPDEST SWAP2 POP POP PUSH2 0x3233 JUMP JUMPDEST POP PUSH1 0xD SLOAD PUSH1 0x0 SWAP1 DUP2 MSTORE PUSH1 0xA PUSH1 0x20 MSTORE PUSH1 0x40 SWAP1 KECCAK256 SLOAD PUSH2 0x32FD SWAP1 PUSH1 0x1 SWAP1 PUSH2 0x354B JUMP JUMPDEST PUSH1 0xC PUSH1 0xD SLOAD DUP2 SLOAD DUP2 LT PUSH2 0x3312 JUMPI PUSH2 0x3312 PUSH2 0x351F JUMP JUMPDEST SWAP1 PUSH1 0x0 MSTORE PUSH1 0x20 PUSH1 0x0 KECCAK256 SWAP1 PUSH1 0x4 MUL ADD PUSH1 0x3 ADD DUP3 DUP2 SLOAD DUP2 LT PUSH2 0x3334 JUMPI PUSH2 0x3334 PUSH2 0x351F JUMP JUMPDEST PUSH1 0x0 SWAP2 DUP3 MSTORE PUSH1 0x20 SWAP1 SWAP2 KECCAK256 ADD SSTORE POP POP POP POP JUMP JUMPDEST PUSH1 0x0 DUP1 SLOAD PUSH1 0x1 PUSH1 0x1 PUSH1 0xA0 SHL SUB DUP4 DUP2 AND PUSH1 0x1 PUSH1 0x1 PUSH1 0xA0 SHL SUB NOT DUP4 AND DUP2 OR DUP5 SSTORE PUSH1 0x40 MLOAD SWAP2 SWAP1 SWAP3 AND SWAP3 DUP4 SWAP2 PUSH32 0x8BE0079C531659141344CD1FD0A4F28419497F9722A3DAAFE3B4186F6B6457E0 SWAP2 SWAP1 LOG3 POP POP JUMP JUMPDEST DUP1 CALLDATALOAD PUSH1 0x1 PUSH1 0x1 PUSH1 0xA0 SHL SUB DUP2 AND DUP2 EQ PUSH2 0x33AD JUMPI PUSH1 0x0 DUP1 REVERT JUMPDEST SWAP2 SWAP1 POP JUMP JUMPDEST PUSH1 0x0 PUSH1 0x20 DUP3 DUP5 SUB SLT ISZERO PUSH2 0x33C4 JUMPI PUSH1 0x0 DUP1 REVERT JUMPDEST PUSH2 0x33CD DUP3 PUSH2 0x3396 JUMP JUMPDEST SWAP4 SWAP3 POP POP POP JUMP JUMPDEST PUSH1 0x0 DUP1 PUSH1 0x40 DUP4 DUP6 SUB SLT ISZERO PUSH2 0x33E7 JUMPI PUSH1 0x0 DUP1 REVERT JUMPDEST DUP3 CALLDATALOAD SWAP2 POP PUSH2 0x33F7 PUSH1 0x20 DUP5 ADD PUSH2 0x3396 JUMP JUMPDEST SWAP1 POP SWAP3 POP SWAP3 SWAP1 POP JUMP JUMPDEST PUSH1 0x0 DUP1 PUSH1 0x40 DUP4 DUP6 SUB SLT ISZERO PUSH2 0x3413 JUMPI PUSH1 0x0 DUP1 REVERT JUMPDEST PUSH2 0x341C DUP4 PUSH2 0x3396 JUMP JUMPDEST SWAP5 PUSH1 0x20 SWAP4 SWAP1 SWAP4 ADD CALLDATALOAD SWAP4 POP POP POP JUMP JUMPDEST PUSH4 0x4E487B71 PUSH1 0xE0 SHL PUSH1 0x0 MSTORE PUSH1 0x21 PUSH1 0x4 MSTORE PUSH1 0x24 PUSH1 0x0 REVERT JUMPDEST DUP4 DUP2 MSTORE PUSH1 0x60 DUP2 ADD PUSH1 0x4 DUP5 LT PUSH2 0x3465 JUMPI PUSH4 0x4E487B71 PUSH1 0xE0 SHL PUSH1 0x0 MSTORE PUSH1 0x21 PUSH1 0x4 MSTORE PUSH1 0x24 PUSH1 0x0 REVERT JUMPDEST PUSH1 0x20 DUP3 ADD SWAP4 SWAP1 SWAP4 MSTORE PUSH1 0x40 ADD MSTORE SWAP2 SWAP1 POP JUMP JUMPDEST PUSH1 0x0 PUSH1 0x20 DUP3 DUP5 SUB SLT ISZERO PUSH2 0x3488 JUMPI PUSH1 0x0 DUP1 REVERT JUMPDEST POP CALLDATALOAD SWAP2 SWAP1 POP JUMP JUMPDEST PUSH1 0x0 DUP1 PUSH1 0x40 DUP4 DUP6 SUB SLT ISZERO PUSH2 0x34A2 JUMPI PUSH1 0x0 DUP1 REVERT JUMPDEST PUSH2 0x34AB DUP4 PUSH2 0x3396 JUMP JUMPDEST SWAP2 POP PUSH2 0x33F7 PUSH1 0x20 DUP5 ADD PUSH2 0x3396 JUMP JUMPDEST PUSH1 0x0 DUP1 PUSH1 0x40 DUP4 DUP6 SUB SLT ISZERO PUSH2 0x34CC JUMPI PUSH1 0x0 DUP1 REVERT JUMPDEST POP POP DUP1 CALLDATALOAD SWAP3 PUSH1 0x20 SWAP1 SWAP2 ADD CALLDATALOAD SWAP2 POP JUMP JUMPDEST PUSH1 0x20 DUP1 DUP3 MSTORE DUP3 MLOAD DUP3 DUP3 ADD DUP2 SWAP1 MSTORE PUSH1 0x0 SWAP2 SWAP1 DUP5 DUP3 ADD SWAP1 PUSH1 0x40 DUP6 ADD SWAP1 DUP5 JUMPDEST DUP2 DUP2 LT ISZERO PUSH2 0x3513 JUMPI DUP4 MLOAD DUP4 MSTORE SWAP3 DUP5 ADD SWAP3 SWAP2 DUP5 ADD SWAP2 PUSH1 0x1 ADD PUSH2 0x34F7 JUMP JUMPDEST POP SWAP1 SWAP7 SWAP6 POP POP POP POP POP POP JUMP JUMPDEST PUSH4 0x4E487B71 PUSH1 0xE0 SHL PUSH1 0x0 MSTORE PUSH1 0x32 PUSH1 0x4 MSTORE PUSH1 0x24 PUSH1 0x0 REVERT JUMPDEST PUSH4 0x4E487B71 PUSH1 0xE0 SHL PUSH1 0x0 MSTORE PUSH1 0x11 PUSH1 0x4 MSTORE PUSH1 0x24 PUSH1 0x0 REVERT JUMPDEST PUSH1 0x0 DUP3 DUP3 LT ISZERO PUSH2 0x355D JUMPI PUSH2 0x355D PUSH2 0x3535 JUMP JUMPDEST POP SUB SWAP1 JUMP JUMPDEST PUSH1 0x0 PUSH1 0x20 DUP3 DUP5 SUB SLT ISZERO PUSH2 0x3574 JUMPI PUSH1 0x0 DUP1 REVERT JUMPDEST DUP2 MLOAD DUP1 ISZERO ISZERO DUP2 EQ PUSH2 0x33CD JUMPI PUSH1 0x0 DUP1 REVERT JUMPDEST PUSH1 0x0 DUP3 NOT DUP3 GT ISZERO PUSH2 0x3597 JUMPI PUSH2 0x3597 PUSH2 0x3535 JUMP JUMPDEST POP ADD SWAP1 JUMP JUMPDEST PUSH1 0x0 DUP2 PUSH1 0x0 NOT DIV DUP4 GT DUP3 ISZERO ISZERO AND ISZERO PUSH2 0x35B6 JUMPI PUSH2 0x35B6 PUSH2 0x3535 JUMP JUMPDEST POP MUL SWAP1 JUMP JUMPDEST PUSH1 0x20 DUP1 DUP3 MSTORE DUP2 DUP2 ADD MSTORE PUSH32 0x4F776E61626C653A2063616C6C6572206973206E6F7420746865206F776E6572 PUSH1 0x40 DUP3 ADD MSTORE PUSH1 0x60 ADD SWAP1 JUMP JUMPDEST PUSH1 0x1 DUP2 DUP2 JUMPDEST DUP1 DUP6 GT ISZERO PUSH2 0x362B JUMPI DUP2 PUSH1 0x0 NOT DIV DUP3 GT ISZERO PUSH2 0x3611 JUMPI PUSH2 0x3611 PUSH2 0x3535 JUMP JUMPDEST DUP1 DUP6 AND ISZERO PUSH2 0x361E JUMPI SWAP2 DUP2 MUL SWAP2 JUMPDEST SWAP4 DUP5 SHR SWAP4 SWAP1 DUP1 MUL SWAP1 PUSH2 0x35F5 JUMP JUMPDEST POP SWAP3 POP SWAP3 SWAP1 POP JUMP JUMPDEST PUSH1 0x0 DUP3 PUSH2 0x3642 JUMPI POP PUSH1 0x1 PUSH2 0xC79 JUMP JUMPDEST DUP2 PUSH2 0x364F JUMPI POP PUSH1 0x0 PUSH2 0xC79 JUMP JUMPDEST DUP2 PUSH1 0x1 DUP2 EQ PUSH2 0x3665 JUMPI PUSH1 0x2 DUP2 EQ PUSH2 0x366F JUMPI PUSH2 0x368B JUMP JUMPDEST PUSH1 0x1 SWAP2 POP POP PUSH2 0xC79 JUMP JUMPDEST PUSH1 0xFF DUP5 GT ISZERO PUSH2 0x3680 JUMPI PUSH2 0x3680 PUSH2 0x3535 JUMP JUMPDEST POP POP PUSH1 0x1 DUP3 SHL PUSH2 0xC79 JUMP JUMPDEST POP PUSH1 0x20 DUP4 LT PUSH2 0x133 DUP4 LT AND PUSH1 0x4E DUP5 LT PUSH1 0xB DUP5 LT AND OR ISZERO PUSH2 0x36AE JUMPI POP DUP2 DUP2 EXP PUSH2 0xC79 JUMP JUMPDEST PUSH2 0x36B8 DUP4 DUP4 PUSH2 0x35F0 JUMP JUMPDEST DUP1 PUSH1 0x0 NOT DIV DUP3 GT ISZERO PUSH2 0x36CC JUMPI PUSH2 0x36CC PUSH2 0x3535 JUMP JUMPDEST MUL SWAP4 SWAP3 POP POP POP JUMP JUMPDEST PUSH1 0x0 PUSH2 0x33CD DUP4 DUP4 PUSH2 0x3633 JUMP JUMPDEST PUSH1 0x0 DUP3 PUSH2 0x36FD JUMPI PUSH4 0x4E487B71 PUSH1 0xE0 SHL PUSH1 0x0 MSTORE PUSH1 0x12 PUSH1 0x4 MSTORE PUSH1 0x24 PUSH1 0x0 REVERT JUMPDEST POP DIV SWAP1 JUMP JUMPDEST PUSH1 0x20 DUP1 DUP3 MSTORE PUSH1 0x26 SWAP1 DUP3 ADD MSTORE PUSH32 0x416C72656164792065787069726564206F7220746F6F20636C6F736520746F20 PUSH1 0x40 DUP3 ADD MSTORE PUSH6 0x657870697279 PUSH1 0xD0 SHL PUSH1 0x60 DUP3 ADD MSTORE PUSH1 0x80 ADD SWAP1 JUMP JUMPDEST PUSH1 0x0 PUSH1 0x0 NOT DUP3 EQ ISZERO PUSH2 0x375C JUMPI PUSH2 0x375C PUSH2 0x3535 JUMP JUMPDEST POP PUSH1 0x1 ADD SWAP1 JUMP JUMPDEST PUSH4 0x4E487B71 PUSH1 0xE0 SHL PUSH1 0x0 MSTORE PUSH1 0x31 PUSH1 0x4 MSTORE PUSH1 0x24 PUSH1 0x0 REVERT JUMPDEST PUSH1 0x0 DUP2 PUSH2 0x3788 JUMPI PUSH2 0x3788 PUSH2 0x3535 JUMP JUMPDEST POP PUSH1 0x0 NOT ADD SWAP1 JUMP JUMPDEST DUP1 MLOAD PUSH10 0xFFFFFFFFFFFFFFFFFFFF DUP2 AND DUP2 EQ PUSH2 0x33AD JUMPI PUSH1 0x0 DUP1 REVERT JUMPDEST PUSH1 0x0 DUP1 PUSH1 0x0 DUP1 PUSH1 0x0 PUSH1 0xA0 DUP7 DUP9 SUB SLT ISZERO PUSH2 0x37C2 JUMPI PUSH1 0x0 DUP1 REVERT JUMPDEST PUSH2 0x37CB DUP7 PUSH2 0x3790 JUMP JUMPDEST SWAP5 POP PUSH1 0x20 DUP7 ADD MLOAD SWAP4 POP PUSH1 0x40 DUP7 ADD MLOAD SWAP3 POP PUSH1 0x60 DUP7 ADD MLOAD SWAP2 POP PUSH2 0x37EE PUSH1 0x80 DUP8 ADD PUSH2 0x3790 JUMP JUMPDEST SWAP1 POP SWAP3 SWAP6 POP SWAP3 SWAP6 SWAP1 SWAP4 POP JUMP JUMPDEST PUSH1 0x0 PUSH1 0x20 DUP3 DUP5 SUB SLT ISZERO PUSH2 0x380C JUMPI PUSH1 0x0 DUP1 REVERT JUMPDEST DUP2 MLOAD PUSH1 0xFF DUP2 AND DUP2 EQ PUSH2 0x33CD JUMPI PUSH1 0x0 DUP1 REVERT INVALID LOG2 PUSH5 0x6970667358 0x22 SLT KECCAK256 RETURNDATACOPY 0xB7 DELEGATECALL SWAP10 ADD SHL CODESIZE 0x4F 0x1E 0x2F 0xB4 0xCD 0xD7 SWAP7 LOG4 CALLCODE PUSH4 0xED15795B PUSH22 0x744C90C49F54F63A6DD064736F6C634300080A003300 ","sha1":"675a15a6f2c35c4ad044b03af13285562bc47c13","source":"// SPDX-License-Identifier: MIT\npragma solidity ^0.8.0;\n\nimport \"@openzeppelin/contracts/access/Ownable.sol\";\nimport \"@openzeppelin/contracts/token/ERC20/IERC20.sol\";\nimport \"@chainlink/contracts/src/v0.8/interfaces/AggregatorV3Interface.sol\";\n\ncontract TokenFarm is Ownable {\n    // *********\n    // below is for old contracts\n    // mapping token address -> staker address -> amount\n    mapping(address => mapping(address => uint256)) public stakingBalance;\n    mapping(address => uint256) public uniqueTokensStaked;\n    mapping(address => address) public tokenPriceFeedMapping;\n    address[] public stakers;\n    address[] public allowedTokens;\n    IERC20 public dappToken;\n\n    // ******************\n    // the real contract is from here\n    // to do\n    // 1. sushi\n    // 2. transcation cost\n\n    // uncomment this below if need real ETH price !!!!!!!!\n    //import \"@chainlink/contracts/src/v0.6/interfaces/AggregatorV3Interface.sol\";\n\n    uint256 private constant NO_TRADE_CLOSE_TO_EXPIRE = 10; //seconds\n    uint256 private constant MIN_BUYER_SIZE = 1e2;\n    uint256 private constant MIN_SELLER_SIZE = 1e3;\n    uint256 private constant MIN_DEPOSIT_SIZE = 5e2;\n    uint256 private constant TRANSACTION_COST = 1; // so 1% for each trade or we use a formula\n\n    // prevent two people draw liquidity at same time\n    enum contract_status {\n        open,\n        locked\n    }\n    contract_status private STATUS = contract_status.open;\n\n    //Pricefeed interfaces from chainlink\n    // uncomment this below if need real ETH price !!!!!!!!\n    // AggregatorV3Interface internal ethFeed;\n    uint256 public ethPrice;\n\n    address payable contract_address;\n\n    // store cash balance for each user, not used in any option sub-pool\n    mapping(address => uint256) public cash_balance; // for testing, this value can be negtive, but not allowed in production\n\n    // bid_struct: each bid in bids (bids is the order book for each option)\n    struct bid_struct {\n        uint256 price; // usd per option\n        uint256 size; // number of option x strike\n        address user_id; //user address\n    }\n    // bids[id] is the order book for each option[id]\n    mapping(uint256 => bid_struct[]) public bids;\n\n    // user_struct saves all info for each user\n    enum option_side {\n        not_open,\n        buyer,\n        seller,\n        exercised\n    }\n    struct user_struct {\n        // size: for buyer is number of eth option x strike price he placed\n        // size: for seller is number of eth option x strike price x (1+ yield) on expiry day\n        uint256 size; //in USD,\n        option_side side; //after expiry, re-allocate payoff depends on buyer or seller of option\n        uint256 unusedpremium; //in USD, premium in the pool but not traded, for buyer only\n    }\n    // user[user_address][option-id] is each user\n    mapping(address => mapping(uint256 => user_struct)) public user;\n\n    // option_struct saves info for each option\n    struct option_struct {\n        uint256 strike; //Price in USD, for example 3300\n        uint256 expiry; //Unix timestamp of expiration time, in second\n        uint256 supply; //buyer place bid and seller can sell the bid; supply = number of option x strike\n        uint256[] order; //order book sequence pointer, low bid to high bid, bids[id][order[0]] is the lowest bid\n    }\n    // op[id] is each option\n    option_struct[] public op;\n\n    // ********************\n    // for testing purpose\n    uint256 private id = 0; // for testing we only have one option\n    uint256[] private order_for_test;\n    bid_struct[] private order_book_for_one_option;\n    // settlement_amount is only for testing purples, need to delete in production\n    uint256 public settlement_amount;\n    address public ethAddress;\n\n    // ********************\n\n    //Kovan feeds: https://docs.chain.link/docs/reference-contracts\n    constructor(address _dappTokenAddress, address _ethAddress) public {\n        dappToken = IERC20(_dappTokenAddress);\n\n        //ETH/USD Kovan feed\n        // uncomment this below if need real ETH price !!!!!!!!\n        // ethFeed = AggregatorV3Interface(0x9326BFA02ADD2366b30bacB125260Af641031331);\n        contract_address = payable(address(this));\n\n        // ********************\n        // create fake option for testing\n        option_struct memory option = option_struct({\n            strike: 3300 * 1e18, // in USDC\n            expiry: block.timestamp + 1 days, // 30seconds option, for testing purpose\n            supply: 0, // after buyer place bid, supply will increase, in producation initial value =0\n            order: order_for_test\n        });\n        op.push(option);\n        // for testing purpose i give you fake money to play\n        cash_balance[msg.sender] = 200000;\n        ethAddress = _ethAddress;\n        // ********************\n    }\n\n    function placeBid(uint256 newbid, uint256 premium) public {\n        // buyer place bid order but nothing traded yet\n        // newbid in usd, eth option price\n        address _user = msg.sender;\n        require(\n            op[id].expiry > block.timestamp - NO_TRADE_CLOSE_TO_EXPIRE,\n            \"Already expired or too close to expiry\"\n        );\n        require(\n            user[_user][id].side != option_side.seller,\n            \"seller of option cannot buy\"\n        );\n        require(premium >= MIN_BUYER_SIZE, \"Min size = 100\");\n        require(premium <= cash_balance[_user], \"not enough cash\"); //cash actually sell the balance first\n        // update buyer\n        // btw user.size only updated when seller sell the bid / only when trade\n        user[_user][id].side = option_side.buyer;\n        user[_user][id].unusedpremium += premium; //premium not used if seller not selling it\n        cash_balance[_user] -= premium;\n\n        // update option supply\n        // below line convert the same unit as option seller, ie: number of eth option x strike price (not number of eth option x ethPrice)\n        // 1x of dual contract needs: ethPrice/stirke size of option to hedge; size/strike > size/current spot!\n        // Warnning below line: first multiply then divide to keep precision\n        uint256 _size = (premium * op[id].strike) / newbid;\n        op[id].supply += _size;\n\n        // update order book\n        bids[id].push(bid_struct(newbid, _size, _user));\n        if (op[id].order.length == 0) {\n            op[id].order.push(bids[id].length - 1);\n        } else {\n            insertBid(newbid);\n        }\n    }\n\n    function cancelBid() public {\n        // to make it easy, cancel all bids for testing stage\n        // can make it cancel specific bid, but need more coding\n        address payable _user = payable(msg.sender);\n        require(\n            STATUS == contract_status.open,\n            \"contract busy, try again later\"\n        );\n        require(\n            user[_user][id].side == option_side.buyer,\n            \"you need to buy option first\"\n        );\n        require(\n            user[_user][id].unusedpremium > 0,\n            \"your oder has been filled or cancelled\"\n        );\n        STATUS = contract_status.locked;\n        // update buyer\n        //_user.transfer(user[_user][id].unusedpremium);\n        cash_balance[_user] += user[_user][id].unusedpremium;\n        user[_user][id].unusedpremium = 0;\n\n        // update order book and option supply\n        uint256[] memory old_order = op[id].order;\n        uint256 k = 0;\n        for (uint256 i = 0; i < old_order.length; i++) {\n            if (bids[id][old_order[i]].user_id != _user) {\n                // if this bid is not from this user\n                op[id].order[k] = old_order[i];\n                // k = how many bids we need to keep\n                k++;\n            } else {\n                op[id].supply -= bids[id][old_order[i]].size;\n            }\n        }\n        for (uint256 i = 0; i < old_order.length - k; i++) {\n            op[id].order.pop();\n        }\n        STATUS = contract_status.open;\n    }\n\n    function sellBid(uint256 seller_size) public {\n        // seller size is in usd, full notional / collateral collected\n        // seller option == buyer dual conntract!\n        address _user = msg.sender;\n        require(op[id].order.length > 0, \"cannot sell if there is no bid\");\n        require(\n            op[id].expiry > block.timestamp - NO_TRADE_CLOSE_TO_EXPIRE,\n            \"Already expired or too close to expiry\"\n        );\n        require(\n            user[_user][id].side != option_side.buyer,\n            \"buyer of option cannot sell\"\n        );\n        require(seller_size >= MIN_SELLER_SIZE, \"Min size = 1000\");\n        require(seller_size <= op[id].supply, \"low supply\");\n        require(seller_size <= cash_balance[_user], \"not enough cash\"); //cash actually sell the balance first\n        cash_balance[_user] -= seller_size;\n\n        // update order book\n        uint256 remain = seller_size;\n        uint256 sizexprice = 0;\n        uint256 each_size;\n        uint256 i = op[id].order.length - 1;\n        // sell multiple bids to have enough size\n        while (remain > 0) {\n            each_size = bids[id][op[id].order[i]].size;\n            if (remain >= each_size) {\n                // update buyer\n                user[bids[id][op[id].order[i]].user_id][id].size += each_size;\n                user[bids[id][op[id].order[i]].user_id][id]\n                    .unusedpremium -= ((each_size *\n                    bids[id][op[id].order[i]].price) / op[id].strike);\n                // update seller\n                sizexprice += (each_size * bids[id][op[id].order[i]].price);\n                // update option\n                op[id].supply -= each_size;\n                // update order book\n                bids[id][op[id].order[i]].size = 0;\n                // last one is the highest one, pop the highest bid\n                op[id].order.pop();\n                remain -= each_size;\n            } else {\n                // update buyer\n                user[bids[id][op[id].order[i]].user_id][id].size += remain;\n                user[bids[id][op[id].order[i]].user_id][id]\n                    .unusedpremium -= ((remain *\n                    bids[id][op[id].order[i]].price) / op[id].strike);\n                // update seller\n                sizexprice += (remain * bids[id][op[id].order[i]].price);\n                // update option\n                op[id].supply -= remain;\n                // update order book\n                bids[id][op[id].order[i]].size -= remain;\n                remain = 0;\n            }\n            i--;\n        }\n        // update seller\n        getEthPrice();\n        //expiry = (sizexprice / seller_size / ethPrice + 1 )x seller_size\n        user[_user][id].size += ((sizexprice + seller_size * ethPrice) /\n            ethPrice);\n        user[_user][id].side = option_side.seller;\n    }\n\n    function getBestBid(uint256 seller_size)\n        public\n        view\n        returns (uint256 average_bid)\n    {\n        // same logic as sellOption Function but not updating options and users\n        require(op[id].order.length > 0, \"cannot sell if there is no bid\");\n        require(seller_size >= MIN_SELLER_SIZE, \"min size = 1000\");\n        require(seller_size <= op[id].supply, \"low supply\");\n        uint256 remain = seller_size;\n        uint256 sizexprice = 0;\n        uint256 each_bid_amount;\n        uint256 i = op[id].order.length - 1;\n        while (remain > 0) {\n            each_bid_amount = bids[id][op[id].order[i]].size;\n            if (remain >= each_bid_amount) {\n                sizexprice += (each_bid_amount *\n                    bids[id][op[id].order[i]].price);\n                remain -= each_bid_amount;\n            } else {\n                sizexprice += (remain * bids[id][op[id].order[i]].price);\n                remain = 0;\n            }\n            i--;\n        }\n        average_bid = sizexprice / seller_size;\n        return average_bid;\n    }\n\n    function exercise() public {\n        // for testing purpose please set a fake eth price\n        address _user = msg.sender;\n        option_side _side = user[_user][id].side;\n        require(\n            _side == option_side.seller || _side == option_side.buyer,\n            \"You have no position\"\n        );\n        require(\n            op[id].expiry <= block.timestamp,\n            \"Cannot exercise before expiry\"\n        );\n        require(_side != option_side.exercised, \"You already excercised \");\n        uint256 _size = user[_user][id].size;\n        uint256 _strike = op[id].strike;\n        if (_side == option_side.buyer) {\n            require(_size > 0, \"No one sell your bid and nothing to expire\");\n            require(ethPrice < _strike, \"Expire worth zero\");\n            if (user[_user][id].unusedpremium > 0) {\n                cancelBid();\n            }\n        }\n        if (_side == option_side.seller) {\n            if (ethPrice < _strike) {\n                // Be very careful!!!!!!!!!!!!\n                // NEED to transfer/sushi USD into ETH here !!! below is ETH amount!!!\n                //_user.transfer(_size / _strike);\n                cash_balance[_user] += _size / _strike;\n                // please delete below line later\n                settlement_amount = _size / _strike;\n            } else {\n                //_user.transfer(_size);\n                cash_balance[_user] += _size;\n                // please delete below line later\n                settlement_amount = _size;\n            }\n        } else {\n            if (ethPrice < _strike) {\n                // below is for cash settlement in usd\n                // noted: when we record buyer size = usd_collected / %price * strike / ethPrice\n                //_user.transfer((_size * (_strike - ethPrice)) / _strike);\n                cash_balance[_user] += ((_size * (_strike - ethPrice)) /\n                    _strike);\n                // please delete below line later\n                settlement_amount = (_size * (_strike - ethPrice)) / _strike;\n            } // else do nothing: expire worth zero\n        }\n        user[_user][id].side = option_side.exercised;\n    }\n\n    function insertBid(uint256 newbid) internal {\n        // insert the newbid in to bids according to the newbid level, lowest bid at 0 position\n        uint256 left = 0;\n        uint256 right = op[id].order.length - 1;\n        uint256 mid;\n\n        // binary tree insert\n        while (left < right) {\n            mid = (left + right) / 2;\n            if (newbid > bids[id][op[id].order[mid]].price) {\n                left = mid + 1;\n            } else {\n                right = mid;\n            }\n        }\n        // when loop ends:\n        // if left > right mid is correct position to insert\n        // if left == right, need to compare once more with right\n        if (left == right) {\n            if (newbid > bids[id][op[id].order[left]].price) {\n                mid = left + 1;\n            } else {\n                mid = left;\n            }\n        }\n        // first push the pointer of newbid /last one of bids into the order array\n        op[id].order.push(bids[id].length - 1);\n        if (mid < op[id].order.length - 1) {\n            for (uint256 i = op[id].order.length - 1; i > mid; i--) {\n                // copy the old value to the right next one\n                op[id].order[i] = op[id].order[i - 1];\n            }\n            // insert the pointer(aka order) of newbid\n            op[id].order[mid] = bids[id].length - 1;\n        } // else if mid == order.lenghth, newbid is highest and already been pushed to the last one of order\n    }\n\n    //Returns the latest ETH price\n    function getEthPrice() public {\n        // uncomment this below if need real ETH price !!!!!!!!\n        //(\n        //    uint80 roundID,\n        //    int256 price,\n        //    uint startedAt,\n        //    uint timeStamp,\n        //    uint80 answeredInRound\n        //) = ethFeed.latestRoundData();\n        //// If the round is not complete yet, timestamp is 0\n        //require(timeStamp > 0, \"Round not complete\");\n        ////Price should never be negative thus cast int to unit is ok\n        ////Price is 8 decimal places and will require 1e10 correction later to 18 places\n        //ethPrice = uint256(price);\n        //ethPrice = 3799;\n        (uint256 price, uint256 decimals) = getTokenValue(ethAddress);\n        ethPrice = price * 1e10;\n    }\n\n    function deposit() public payable {\n        require(msg.value >= MIN_DEPOSIT_SIZE, \"Min size = 500\");\n        cash_balance[msg.sender] += msg.value;\n    }\n\n    function PoolBalance() public view returns (uint256) {\n        return (contract_address.balance);\n    }\n\n    function getOrder() public view returns (uint256[] memory) {\n        return op[id].order;\n    }\n\n    function getBid() public view returns (uint256) {\n        return bids[id][op[id].order[op[id].order.length - 1]].price;\n    }\n\n    function userBalance(address _user) public view returns (uint256) {\n        return cash_balance[_user];\n    }\n\n    function userUnusedPremium(address _user) public view returns (uint256) {\n        return user[_user][id].unusedpremium;\n    }\n\n    function userSize(address _user) public view returns (uint256) {\n        return user[_user][id].size / op[id].strike;\n    }\n\n    function getSupply() public view returns (uint256) {\n        return op[id].supply;\n    }\n\n    function getETH() public view returns (uint256) {\n        (uint256 price, uint256 decimals) = getTokenValue(ethAddress);\n        return price * 1e10;\n    }\n\n    function SecondToExpiry() public view returns (uint256) {\n        return (op[id].expiry - block.timestamp);\n    }\n\n    function setFakeETH(uint256 _eth) public {\n        ethPrice = _eth;\n    }\n\n    function createFakeBuyer() private {\n        // for testing only, we create an option with some supply\n        // only use before before placeBid, otherwise order will be wrong!!!\n        address fake_user = 0xCA35b7d915458EF540aDe6068dFe2F44E8fa733c;\n        order_book_for_one_option.push(bid_struct(330, 1650, fake_user));\n        order_book_for_one_option.push(bid_struct(396, 1320, fake_user));\n        order_book_for_one_option.push(bid_struct(132, 6600, fake_user));\n        order_book_for_one_option.push(bid_struct(198, 16500, fake_user));\n        bids[id] = order_book_for_one_option;\n        user[fake_user][id].side = option_side.buyer;\n        user[fake_user][id].unusedpremium += 709;\n        op[id].supply += 26070;\n        op[id].order = [2, 3, 0, 1];\n        cash_balance[fake_user] = 100000;\n    }\n\n    // **************************\n    // we only need stake and unstake for now\n\n    function stakeTokens(uint256 _amount, address _token) public {\n        require(_amount > 0, \"Amount must be more than 0\");\n        require(tokenIsAllowed(_token), \"Token is currently no allowed\");\n        IERC20(_token).transferFrom(msg.sender, address(this), _amount);\n        updateUniqueTokensStaked(msg.sender, _token);\n        stakingBalance[_token][msg.sender] =\n            stakingBalance[_token][msg.sender] +\n            _amount;\n        if (uniqueTokensStaked[msg.sender] == 1) {\n            stakers.push(msg.sender);\n        }\n        cash_balance[msg.sender] = getUserTotalValue(msg.sender);\n    }\n\n    function unstakeTokens(address _token) public {\n        uint256 balance = stakingBalance[_token][msg.sender];\n        require(balance > 0, \"Cash balance cannot be 0\");\n        IERC20(_token).transfer(msg.sender, balance);\n        cash_balance[msg.sender] -= getUserSingleTokenValue(msg.sender, _token);\n        stakingBalance[_token][msg.sender] = 0;\n        uniqueTokensStaked[msg.sender] = uniqueTokensStaked[msg.sender] - 1;\n    }\n\n    // **************************\n    // below is just supportive functions we dont really need\n\n    function viewStakedToken(address _token) public returns (uint256) {\n        // this is useless btw...\n        uint256 balance = stakingBalance[_token][msg.sender];\n        return stakingBalance[_token][msg.sender];\n    }\n\n    function updateUniqueTokensStaked(address _user, address _token) internal {\n        if (stakingBalance[_token][_user] <= 0) {\n            uniqueTokensStaked[_user] = uniqueTokensStaked[_user] + 1;\n        }\n    }\n\n    function addAllowedTokens(address _token) public onlyOwner {\n        allowedTokens.push(_token);\n    }\n\n    function tokenIsAllowed(address _token) public returns (bool) {\n        for (\n            uint256 allowedTokensIndex = 0;\n            allowedTokensIndex < allowedTokens.length;\n            allowedTokensIndex++\n        ) {\n            if (allowedTokens[allowedTokensIndex] == _token) {\n                return true;\n            }\n        }\n        return false;\n    }\n\n    function setPriceFeedContract(address _token, address _priceFeed)\n        public\n        onlyOwner\n    {\n        tokenPriceFeedMapping[_token] = _priceFeed;\n    }\n\n    function issueTokens() public onlyOwner {\n        // Issue tokens to all stakers\n        for (\n            uint256 stakersIndex = 0;\n            stakersIndex < stakers.length;\n            stakersIndex++\n        ) {\n            address recipient = stakers[stakersIndex];\n            uint256 userTotalValue = getUserTotalValue(recipient);\n            dappToken.transfer(recipient, userTotalValue);\n        }\n    }\n\n    function getUserTotalValue(address _user) public view returns (uint256) {\n        uint256 totalValue = 0;\n        require(uniqueTokensStaked[_user] > 0, \"No tokens staked!\");\n        for (\n            uint256 allowedTokensIndex = 0;\n            allowedTokensIndex < allowedTokens.length;\n            allowedTokensIndex++\n        ) {\n            totalValue =\n                totalValue +\n                getUserSingleTokenValue(\n                    _user,\n                    allowedTokens[allowedTokensIndex]\n                );\n        }\n        return totalValue;\n    }\n\n    function getUserSingleTokenValue(address _user, address _token)\n        public\n        view\n        returns (uint256)\n    {\n        if (uniqueTokensStaked[_user] <= 0) {\n            return 0;\n        }\n        // price of the token * stakingBalance[_token][user]\n        (uint256 price, uint256 decimals) = getTokenValue(_token);\n        return // 10000000000000000000 ETH\n        // ETH/USD -> 10000000000\n        // 10 * 100 = 1,000\n        ((stakingBalance[_token][_user] * price) / (10**decimals));\n    }\n\n    function getTokenValue(address _token)\n        public\n        view\n        returns (uint256, uint256)\n    {\n        // priceFeedAddress\n        address priceFeedAddress = tokenPriceFeedMapping[_token];\n        AggregatorV3Interface priceFeed = AggregatorV3Interface(\n            priceFeedAddress\n        );\n        (, int256 price, , , ) = priceFeed.latestRoundData();\n        uint256 decimals = uint256(priceFeed.decimals());\n        return (uint256(price), decimals);\n    }\n}\n","sourcePath":"contracts/TokenFarm.sol","type":"contract","deployment":{"address":"0x0158Fd46A995Ac86D79Ae83F015227AaEc1E42f5","chainid":"42","blockHeight":29175612}}