{"abi":[{"inputs":[{"internalType":"address","name":"_dappTokenAddress","type":"address"},{"internalType":"address","name":"_ethAddress","type":"address"}],"stateMutability":"nonpayable","type":"constructor","name":"constructor"},{"anonymous":false,"inputs":[{"indexed":true,"internalType":"address","name":"previousOwner","type":"address"},{"indexed":true,"internalType":"address","name":"newOwner","type":"address"}],"name":"OwnershipTransferred","type":"event"},{"inputs":[],"name":"PoolBalance","outputs":[{"internalType":"uint256","name":"","type":"uint256"}],"stateMutability":"view","type":"function"},{"inputs":[],"name":"SecondToExpiry","outputs":[{"internalType":"uint256","name":"","type":"uint256"}],"stateMutability":"view","type":"function"},{"inputs":[{"internalType":"address","name":"_token","type":"address"}],"name":"addAllowedTokens","outputs":[],"stateMutability":"nonpayable","type":"function"},{"inputs":[{"internalType":"uint256","name":"","type":"uint256"}],"name":"allowedTokens","outputs":[{"internalType":"address","name":"","type":"address"}],"stateMutability":"view","type":"function"},{"inputs":[{"internalType":"uint256","name":"","type":"uint256"},{"internalType":"uint256","name":"","type":"uint256"}],"name":"bids","outputs":[{"internalType":"uint256","name":"price","type":"uint256"},{"internalType":"uint256","name":"size","type":"uint256"},{"internalType":"address","name":"user_id","type":"address"}],"stateMutability":"view","type":"function"},{"inputs":[],"name":"cancelBid","outputs":[],"stateMutability":"nonpayable","type":"function"},{"inputs":[{"internalType":"address","name":"","type":"address"}],"name":"cash_balance","outputs":[{"internalType":"uint256","name":"","type":"uint256"}],"stateMutability":"view","type":"function"},{"inputs":[],"name":"dappToken","outputs":[{"internalType":"contract IERC20","name":"","type":"address"}],"stateMutability":"view","type":"function"},{"inputs":[],"name":"deposit","outputs":[],"stateMutability":"payable","type":"function"},{"inputs":[],"name":"ethAddress","outputs":[{"internalType":"address","name":"","type":"address"}],"stateMutability":"view","type":"function"},{"inputs":[],"name":"ethPrice","outputs":[{"internalType":"uint256","name":"","type":"uint256"}],"stateMutability":"view","type":"function"},{"inputs":[],"name":"exercise","outputs":[],"stateMutability":"nonpayable","type":"function"},{"inputs":[{"internalType":"uint256","name":"seller_size","type":"uint256"}],"name":"getBestBid","outputs":[{"internalType":"uint256","name":"average_bid","type":"uint256"}],"stateMutability":"view","type":"function"},{"inputs":[],"name":"getETH","outputs":[{"internalType":"uint256","name":"","type":"uint256"}],"stateMutability":"view","type":"function"},{"inputs":[],"name":"getEthPrice","outputs":[],"stateMutability":"nonpayable","type":"function"},{"inputs":[],"name":"getOrder","outputs":[{"internalType":"uint256[]","name":"","type":"uint256[]"}],"stateMutability":"view","type":"function"},{"inputs":[],"name":"getSupply","outputs":[{"internalType":"uint256","name":"","type":"uint256"}],"stateMutability":"view","type":"function"},{"inputs":[{"internalType":"address","name":"_token","type":"address"}],"name":"getTokenValue","outputs":[{"internalType":"uint256","name":"","type":"uint256"},{"internalType":"uint256","name":"","type":"uint256"}],"stateMutability":"view","type":"function"},{"inputs":[{"internalType":"address","name":"_user","type":"address"},{"internalType":"address","name":"_token","type":"address"}],"name":"getUserSingleTokenValue","outputs":[{"internalType":"uint256","name":"","type":"uint256"}],"stateMutability":"view","type":"function"},{"inputs":[{"internalType":"address","name":"_user","type":"address"}],"name":"getUserTotalValue","outputs":[{"internalType":"uint256","name":"","type":"uint256"}],"stateMutability":"view","type":"function"},{"inputs":[],"name":"issueTokens","outputs":[],"stateMutability":"nonpayable","type":"function"},{"inputs":[{"internalType":"uint256","name":"","type":"uint256"}],"name":"op","outputs":[{"internalType":"uint256","name":"strike","type":"uint256"},{"internalType":"uint256","name":"expiry","type":"uint256"},{"internalType":"uint256","name":"supply","type":"uint256"}],"stateMutability":"view","type":"function"},{"inputs":[],"name":"owner","outputs":[{"internalType":"address","name":"","type":"address"}],"stateMutability":"view","type":"function"},{"inputs":[{"internalType":"uint256","name":"newbid","type":"uint256"},{"internalType":"uint256","name":"premium","type":"uint256"}],"name":"placeBid","outputs":[],"stateMutability":"nonpayable","type":"function"},{"inputs":[],"name":"renounceOwnership","outputs":[],"stateMutability":"nonpayable","type":"function"},{"inputs":[{"internalType":"uint256","name":"seller_size","type":"uint256"}],"name":"sellBid","outputs":[],"stateMutability":"nonpayable","type":"function"},{"inputs":[{"internalType":"uint256","name":"_eth","type":"uint256"}],"name":"setFakeETH","outputs":[],"stateMutability":"nonpayable","type":"function"},{"inputs":[{"internalType":"address","name":"_token","type":"address"},{"internalType":"address","name":"_priceFeed","type":"address"}],"name":"setPriceFeedContract","outputs":[],"stateMutability":"nonpayable","type":"function"},{"inputs":[],"name":"settlement_amount","outputs":[{"internalType":"uint256","name":"","type":"uint256"}],"stateMutability":"view","type":"function"},{"inputs":[{"internalType":"uint256","name":"_amount","type":"uint256"},{"internalType":"address","name":"_token","type":"address"}],"name":"stakeTokens","outputs":[],"stateMutability":"nonpayable","type":"function"},{"inputs":[{"internalType":"uint256","name":"","type":"uint256"}],"name":"stakers","outputs":[{"internalType":"address","name":"","type":"address"}],"stateMutability":"view","type":"function"},{"inputs":[{"internalType":"address","name":"","type":"address"},{"internalType":"address","name":"","type":"address"}],"name":"stakingBalance","outputs":[{"internalType":"uint256","name":"","type":"uint256"}],"stateMutability":"view","type":"function"},{"inputs":[{"internalType":"address","name":"_token","type":"address"}],"name":"tokenIsAllowed","outputs":[{"internalType":"bool","name":"","type":"bool"}],"stateMutability":"nonpayable","type":"function"},{"inputs":[{"internalType":"address","name":"","type":"address"}],"name":"tokenPriceFeedMapping","outputs":[{"internalType":"address","name":"","type":"address"}],"stateMutability":"view","type":"function"},{"inputs":[{"internalType":"address","name":"newOwner","type":"address"}],"name":"transferOwnership","outputs":[],"stateMutability":"nonpayable","type":"function"},{"inputs":[{"internalType":"address","name":"","type":"address"}],"name":"uniqueTokensStaked","outputs":[{"internalType":"uint256","name":"","type":"uint256"}],"stateMutability":"view","type":"function"},{"inputs":[{"internalType":"address","name":"_token","type":"address"}],"name":"unstakeTokens","outputs":[],"stateMutability":"nonpayable","type":"function"},{"inputs":[{"internalType":"address","name":"","type":"address"},{"internalType":"uint256","name":"","type":"uint256"}],"name":"user","outputs":[{"internalType":"uint256","name":"size","type":"uint256"},{"internalType":"enum TokenFarm.option_side","name":"side","type":"uint8"},{"internalType":"uint256","name":"unusedpremium","type":"uint256"}],"stateMutability":"view","type":"function"},{"inputs":[{"internalType":"address","name":"_user","type":"address"}],"name":"userBalance","outputs":[{"internalType":"uint256","name":"","type":"uint256"}],"stateMutability":"view","type":"function"},{"inputs":[{"internalType":"address","name":"_user","type":"address"}],"name":"userSize","outputs":[{"internalType":"uint256","name":"","type":"uint256"}],"stateMutability":"view","type":"function"},{"inputs":[{"internalType":"address","name":"_user","type":"address"}],"name":"userUnusedPremium","outputs":[{"internalType":"uint256","name":"","type":"uint256"}],"stateMutability":"view","type":"function"},{"inputs":[{"internalType":"address","name":"_token","type":"address"}],"name":"viewStakedToken","outputs":[{"internalType":"uint256","name":"","type":"uint256"}],"stateMutability":"nonpayable","type":"function"}],"bytecode":"60806040526006805460ff60a01b191690556000600d553480156200002357600080fd5b5060405162003aef38038062003aef8339810160408190526200004691620002ed565b620000513362000219565b600680546001600160a01b0384166001600160a01b0319918216179091556008805490911630179055604080516080810190915268b2e4b323d9c5100000815260009060208101620000a7426201518062000325565b815260200160008152602001600e8054806020026020016040519081016040528092919081815260200182805480156200010157602002820191906000526020600020905b815481526020019060010190808311620000ec575b505050919092525050600c8054600181018255600091909152815160049091027fdf6966c971051c3d54ec59162606531493a51404a002842f56009d7e5cf4a8c781019182556020808401517fdf6966c971051c3d54ec59162606531493a51404a002842f56009d7e5cf4a8c883015560408401517fdf6966c971051c3d54ec59162606531493a51404a002842f56009d7e5cf4a8c9830155606084015180519495508594620001d9937fdf6966c971051c3d54ec59162606531493a51404a002842f56009d7e5cf4a8ca0192919091019062000269565b505033600090815260096020526040902062030d4090555050601180546001600160a01b0319166001600160a01b0392909216919091179055506200034c565b600080546001600160a01b038381166001600160a01b0319831681178455604051919092169283917f8be0079c531659141344cd1fd0a4f28419497f9722a3daafe3b4186f6b6457e09190a35050565b828054828255906000526020600020908101928215620002a7579160200282015b82811115620002a75782518255916020019190600101906200028a565b50620002b5929150620002b9565b5090565b5b80821115620002b55760008155600101620002ba565b80516001600160a01b0381168114620002e857600080fd5b919050565b600080604083850312156200030157600080fd5b6200030c83620002d0565b91506200031c60208401620002d0565b90509250929050565b600082198211156200034757634e487b7160e01b600052601160045260246000fd5b500190565b613793806200035c6000396000f3fe6080604052600436106102515760003560e01c8063715018a611610139578063d0e30db0116100b6578063f1c5d6c21161007a578063f1c5d6c214610782578063f2758344146107b7578063f2fde38b146107fd578063f67023561461081d578063fd5e6dd11461084a578063ff186b2e1461086a57600080fd5b8063d0e30db0146106f3578063d32cb0fe146106fb578063d36dedd214610710578063dd5b846714610732578063f14e96f11461076257600080fd5b8063877dd39d116100fd578063877dd39d146106535780638da5cb5b146106735780639435c88714610691578063af3f5e22146106a6578063b83e0234146106c657600080fd5b8063715018a6146105af5780637b3889e7146105c45780637b3c4baa146105da5780637b468de61461061e5780637e7f320d1461063e57600080fd5b80632d1ad8b8116101d25780635e5f2e26116101965780635e5f2e26146105105780635eb186f81461053057806360ab58521461055057806367c9b017146105655780636c9c2faf1461057a578063704bba691461058f57600080fd5b80632d1ad8b814610434578063387eadae1461045457806341398b151461048f5780634f0dcd39146104af57806357c90de5146104f057600080fd5b8063171e44ea11610219578063171e44ea1461034f5780631be0819c1461036f578063276b11da1461038e57806327927b3e146103ae57806329161a00146103fc57600080fd5b80630103c92b146102565780630bea440d1461029f57806314f6c3be146102c157806314feaa9d146102d657806316ed0f721461032f575b600080fd5b34801561026257600080fd5b5061028c6102713660046132f2565b6001600160a01b031660009081526009602052604090205490565b6040519081526020015b60405180910390f35b3480156102ab57600080fd5b506102bf6102ba366004613314565b610880565b005b3480156102cd57600080fd5b5061028c610a85565b3480156102e257600080fd5b506103206102f1366004613340565b600b602090815260009283526040808420909152908252902080546001820154600290920154909160ff169083565b60405161029693929190613380565b34801561033b57600080fd5b506102bf61034a3660046133b6565b600755565b34801561035b57600080fd5b506102bf61036a3660046132f2565b610abc565b34801561037b57600080fd5b506008546001600160a01b03163161028c565b34801561039a57600080fd5b5061028c6103a93660046133cf565b610b38565b3480156103ba57600080fd5b506103e46103c93660046132f2565b6003602052600090815260409020546001600160a01b031681565b6040516001600160a01b039091168152602001610296565b34801561040857600080fd5b5061028c6104173660046133cf565b600160209081526000928352604080842090915290825290205481565b34801561044057600080fd5b506102bf61044f3660046132f2565b610bbf565b34801561046057600080fd5b5061047461046f3660046133b6565b610d1d565b60408051938452602084019290925290820152606001610296565b34801561049b57600080fd5b506011546103e4906001600160a01b031681565b3480156104bb57600080fd5b5061028c6104ca3660046132f2565b6001600160a01b0316600090815260016020908152604080832033845290915290205490565b3480156104fc57600080fd5b506102bf61050b3660046133f9565b610d50565b34801561051c57600080fd5b506103e461052b3660046133b6565b6110dd565b34801561053c57600080fd5b506006546103e4906001600160a01b031681565b34801561055c57600080fd5b506102bf611107565b34801561057157600080fd5b506102bf611204565b34801561058657600080fd5b5061028c611239565b34801561059b57600080fd5b506102bf6105aa3660046133b6565b611267565b3480156105bb57600080fd5b506102bf611da6565b3480156105d057600080fd5b5061028c60105481565b3480156105e657600080fd5b506105fa6105f53660046133f9565b611ddc565b6040805193845260208401929092526001600160a01b031690820152606001610296565b34801561062a57600080fd5b5061028c6106393660046132f2565b611e27565b34801561064a57600080fd5b5061028c611e7b565b34801561065f57600080fd5b506102bf61066e3660046133cf565b611eb4565b34801561067f57600080fd5b506000546001600160a01b03166103e4565b34801561069d57600080fd5b506102bf611f0c565b3480156106b257600080fd5b5061028c6106c13660046132f2565b612394565b3480156106d257600080fd5b5061028c6106e13660046132f2565b60026020526000908152604090205481565b6102bf612452565b34801561070757600080fd5b506102bf6124bb565b34801561071c57600080fd5b506107256128cf565b604051610296919061341b565b34801561073e57600080fd5b5061075261074d3660046132f2565b61294b565b6040519015158152602001610296565b34801561076e57600080fd5b5061028c61077d3660046133b6565b6129b5565b34801561078e57600080fd5b506107a261079d3660046132f2565b612cf3565b60408051928352602083019190915201610296565b3480156107c357600080fd5b5061028c6107d23660046132f2565b6001600160a01b03166000908152600b60209081526040808320600d54845290915290206002015490565b34801561080957600080fd5b506102bf6108183660046132f2565b612df4565b34801561082957600080fd5b5061028c6108383660046132f2565b60096020526000908152604090205481565b34801561085657600080fd5b506103e46108653660046133b6565b612e8c565b34801561087657600080fd5b5061028c60075481565b600082116108d55760405162461bcd60e51b815260206004820152601a60248201527f416d6f756e74206d757374206265206d6f7265207468616e203000000000000060448201526064015b60405180910390fd5b6108de8161294b565b61092a5760405162461bcd60e51b815260206004820152601d60248201527f546f6b656e2069732063757272656e746c79206e6f20616c6c6f77656400000060448201526064016108cc565b6040516323b872dd60e01b8152336004820152306024820152604481018390526001600160a01b038216906323b872dd906064016020604051808303816000875af115801561097d573d6000803e3d6000fd5b505050506040513d601f19601f820116820180604052508101906109a1919061345f565b506109ac3382612e9c565b6001600160a01b03811660009081526001602090815260408083203384529091529020546109db908390613497565b6001600160a01b038216600090815260016020818152604080842033855282528084209490945560029052919020541415610a5357600480546001810182556000919091527f8a35acfbc15ff81a39ae7d344fd709f28e8600b4aa8c65c6b64bfe7fe36bd19b0180546001600160a01b031916331790555b610a5d3382610b38565b3360009081526009602052604081208054909190610a7c908490613497565b90915550505050565b60115460009081908190610aa1906001600160a01b0316612cf3565b9092509050610ab5826402540be4006134af565b9250505090565b6000546001600160a01b03163314610ae65760405162461bcd60e51b81526004016108cc906134ce565b600580546001810182556000919091527f036b6384b5eca791c62761152d0c79bb0604c104a5fb6f4eb0703f3154bb3db00180546001600160a01b0319166001600160a01b0392909216919091179055565b6001600160a01b038216600090815260026020526040812054610b5d57506000610bb9565b600080610b6984612cf3565b9092509050610b7981600a6135e7565b6001600160a01b038086166000908152600160209081526040808320938a1683529290522054610baa9084906134af565b610bb491906135f3565b925050505b92915050565b6001600160a01b038116600090815260016020908152604080832033845290915290205480610c305760405162461bcd60e51b815260206004820152601860248201527f436173682062616c616e63652063616e6e6f742062652030000000000000000060448201526064016108cc565b60405163a9059cbb60e01b8152336004820152602481018290526001600160a01b0383169063a9059cbb906044016020604051808303816000875af1158015610c7d573d6000803e3d6000fd5b505050506040513d601f19601f82011682018060405250810190610ca1919061345f565b50610cac3383610b38565b3360009081526009602052604081208054909190610ccb908490613615565b90915550506001600160a01b03821660009081526001602081815260408084203385528252808420849055600290915290912054610d099190613615565b336000908152600260205260409020555050565b600c8181548110610d2d57600080fd5b600091825260209091206004909102018054600182015460029092015490925083565b33610d5c600a42613615565b600c600d5481548110610d7157610d7161362c565b90600052602060002090600402016001015411610da05760405162461bcd60e51b81526004016108cc90613642565b60026001600160a01b0382166000908152600b60209081526040808320600d54845290915290206001015460ff166003811115610ddf57610ddf61336a565b1415610e2d5760405162461bcd60e51b815260206004820152601b60248201527f73656c6c6572206f66206f7074696f6e2063616e6e6f7420627579000000000060448201526064016108cc565b6064821015610e6f5760405162461bcd60e51b815260206004820152600e60248201526d04d696e2073697a65203d203130360941b60448201526064016108cc565b6001600160a01b038116600090815260096020526040902054821115610ec95760405162461bcd60e51b815260206004820152600f60248201526e0dcdee840cadcdeeaced040c6c2e6d608b1b60448201526064016108cc565b6001600160a01b0381166000908152600b60209081526040808320600d8054855292528083206001908101805460ff191690911790559054825281206002018054849290610f18908490613497565b90915550506001600160a01b03811660009081526009602052604081208054849290610f45908490613615565b92505081905550600083600c600d5481548110610f6457610f6461362c565b90600052602060002090600402016000015484610f8191906134af565b610f8b91906135f3565b905080600c600d5481548110610fa357610fa361362c565b90600052602060002090600402016002016000828254610fc39190613497565b9091555050600d80546000908152600a6020908152604080832081516060810183528981528084018781526001600160a01b038981169483019485528354600180820186559488529590962091516003909502909101938455519083015551600290910180546001600160a01b0319169190921617905554600c805490919081106110505761105061362c565b60009182526020909120600360049092020101546110ce57600c600d548154811061107d5761107d61362c565b90600052602060002090600402016003016001600a6000600d548152602001908152602001600020805490506110b39190613615565b815460018101835560009283526020909220909101556110d7565b6110d784612f08565b50505050565b600581815481106110ed57600080fd5b6000918252602090912001546001600160a01b0316905081565b6000546001600160a01b031633146111315760405162461bcd60e51b81526004016108cc906134ce565b60005b600454811015611201576000600482815481106111535761115361362c565b60009182526020822001546001600160a01b0316915061117282612394565b60065460405163a9059cbb60e01b81526001600160a01b0385811660048301526024820184905292935091169063a9059cbb906044016020604051808303816000875af11580156111c7573d6000803e3d6000fd5b505050506040513d601f19601f820116820180604052508101906111eb919061345f565b50505080806111f990613688565b915050611134565b50565b601154600090819061121e906001600160a01b0316612cf3565b9092509050611232826402540be4006134af565b6007555050565b6000600c600d54815481106112505761125061362c565b906000526020600020906004020160020154905090565b60003390506000600c600d54815481106112835761128361362c565b906000526020600020906004020160030180549050116112e55760405162461bcd60e51b815260206004820152601e60248201527f63616e6e6f742073656c6c206966207468657265206973206e6f20626964000060448201526064016108cc565b6112f0600a42613615565b600c600d54815481106113055761130561362c565b906000526020600020906004020160010154116113345760405162461bcd60e51b81526004016108cc90613642565b60016001600160a01b0382166000908152600b60209081526040808320600d54845290915290206001015460ff1660038111156113735761137361336a565b14156113c15760405162461bcd60e51b815260206004820152601b60248201527f6275796572206f66206f7074696f6e2063616e6e6f742073656c6c000000000060448201526064016108cc565b6103e88210156114055760405162461bcd60e51b815260206004820152600f60248201526e04d696e2073697a65203d203130303608c1b60448201526064016108cc565b600c600d548154811061141a5761141a61362c565b9060005260206000209060040201600201548211156114685760405162461bcd60e51b815260206004820152600a6024820152696c6f7720737570706c7960b01b60448201526064016108cc565b6001600160a01b0381166000908152600960205260409020548211156114c25760405162461bcd60e51b815260206004820152600f60248201526e0dcdee840cadcdeeaced040c6c2e6d608b1b60448201526064016108cc565b6001600160a01b038116600090815260096020526040812080548492906114ea908490613615565b925050819055506000829050600080806001600c600d54815481106115115761151161362c565b9060005260206000209060040201600301805490506115309190613615565b90505b8315611d0757600d546000818152600a60205260409020600c80549192909181106115605761156061362c565b906000526020600020906004020160030182815481106115825761158261362c565b90600052602060002001548154811061159d5761159d61362c565b906000526020600020906003020160010154915081841061197d57600d546000818152600a60205260408120600c80548694600b9493929181106115e3576115e361362c565b906000526020600020906004020160030185815481106116055761160561362c565b9060005260206000200154815481106116205761162061362c565b60009182526020808320600260039093020191909101546001600160a01b031683528281019390935260409182018120600d5482529092528120805490919061166a908490613497565b92505081905550600c600d54815481106116865761168661362c565b906000526020600020906004020160000154600a6000600d548152602001908152602001600020600c600d54815481106116c2576116c261362c565b906000526020600020906004020160030183815481106116e4576116e461362c565b9060005260206000200154815481106116ff576116ff61362c565b9060005260206000209060030201600001548361171c91906134af565b61172691906135f3565b600d546000818152600a60205260408120600c8054600b9490811061174d5761174d61362c565b9060005260206000209060040201600301858154811061176f5761176f61362c565b90600052602060002001548154811061178a5761178a61362c565b6000918252602080832060026003909302018201546001600160a01b031684528381019490945260409283018220600d54835290935290812090910180549091906117d6908490613615565b9091555050600d546000818152600a60205260409020600c80549192909181106118025761180261362c565b906000526020600020906004020160030182815481106118245761182461362c565b90600052602060002001548154811061183f5761183f61362c565b9060005260206000209060030201600001548261185c91906134af565b6118669084613497565b925081600c600d548154811061187e5761187e61362c565b9060005260206000209060040201600201600082825461189e9190613615565b9091555050600d546000818152600a60205260408120600c80549293919290919081106118cd576118cd61362c565b906000526020600020906004020160030183815481106118ef576118ef61362c565b90600052602060002001548154811061190a5761190a61362c565b906000526020600020906003020160010181905550600c600d54815481106119345761193461362c565b9060005260206000209060040201600301805480611954576119546136a3565b6001900381819060005260206000200160009055905581846119769190613615565b9350611cf5565b600d546000818152600a60205260408120600c80548894600b9493929181106119a8576119a861362c565b906000526020600020906004020160030185815481106119ca576119ca61362c565b9060005260206000200154815481106119e5576119e561362c565b60009182526020808320600260039093020191909101546001600160a01b031683528281019390935260409182018120600d54825290925281208054909190611a2f908490613497565b92505081905550600c600d5481548110611a4b57611a4b61362c565b906000526020600020906004020160000154600a6000600d548152602001908152602001600020600c600d5481548110611a8757611a8761362c565b90600052602060002090600402016003018381548110611aa957611aa961362c565b906000526020600020015481548110611ac457611ac461362c565b90600052602060002090600302016000015485611ae191906134af565b611aeb91906135f3565b600d546000818152600a60205260408120600c8054600b94908110611b1257611b1261362c565b90600052602060002090600402016003018581548110611b3457611b3461362c565b906000526020600020015481548110611b4f57611b4f61362c565b6000918252602080832060026003909302018201546001600160a01b031684528381019490945260409283018220600d5483529093529081209091018054909190611b9b908490613615565b9091555050600d546000818152600a60205260409020600c8054919290918110611bc757611bc761362c565b90600052602060002090600402016003018281548110611be957611be961362c565b906000526020600020015481548110611c0457611c0461362c565b90600052602060002090600302016000015484611c2191906134af565b611c2b9084613497565b925083600c600d5481548110611c4357611c4361362c565b90600052602060002090600402016002016000828254611c639190613615565b9091555050600d546000818152600a60205260409020600c80548793908110611c8e57611c8e61362c565b90600052602060002090600402016003018381548110611cb057611cb061362c565b906000526020600020015481548110611ccb57611ccb61362c565b90600052602060002090600302016001016000828254611ceb9190613615565b9091555060009450505b80611cff816136b9565b915050611533565b611d0f611204565b600754611d1c81886134af565b611d269085613497565b611d3091906135f3565b6001600160a01b0386166000908152600b60209081526040808320600d54845290915281208054909190611d65908490613497565b909155505050506001600160a01b03929092166000908152600b60209081526040808320600d5484529091529020600101805460ff19166002179055505050565b6000546001600160a01b03163314611dd05760405162461bcd60e51b81526004016108cc906134ce565b611dda6000613286565b565b600a6020528160005260406000208181548110611df857600080fd5b60009182526020909120600390910201805460018201546002909201549093509091506001600160a01b031683565b6000600c600d5481548110611e3e57611e3e61362c565b600091825260208083206004909202909101546001600160a01b0385168352600b82526040808420600d548552909252912054610bb991906135f3565b600042600c600d5481548110611e9357611e9361362c565b906000526020600020906004020160010154611eaf9190613615565b905090565b6000546001600160a01b03163314611ede5760405162461bcd60e51b81526004016108cc906134ce565b6001600160a01b03918216600090815260036020526040902080546001600160a01b03191691909216179055565b336000600654600160a01b900460ff166001811115611f2d57611f2d61336a565b14611f7a5760405162461bcd60e51b815260206004820152601e60248201527f636f6e747261637420627573792c2074727920616761696e206c61746572000060448201526064016108cc565b60016001600160a01b0382166000908152600b60209081526040808320600d54845290915290206001015460ff166003811115611fb957611fb961336a565b146120065760405162461bcd60e51b815260206004820152601c60248201527f796f75206e65656420746f20627579206f7074696f6e2066697273740000000060448201526064016108cc565b6001600160a01b0381166000908152600b60209081526040808320600d54845290915290206002015461208a5760405162461bcd60e51b815260206004820152602660248201527f796f7572206f64657220686173206265656e2066696c6c6564206f722063616e60448201526518d95b1b195960d21b60648201526084016108cc565b6006805460ff60a01b1916600160a01b1790556001600160a01b0381166000818152600b60209081526040808320600d5484528252808320600201549383526009909152812080549091906120e0908490613497565b90915550506001600160a01b0381166000908152600b60209081526040808320600d805485529252822060020182905554600c805490919081106121265761212661362c565b906000526020600020906004020160030180548060200260200160405190810160405280929190818152602001828054801561218157602002820191906000526020600020905b81548152602001906001019080831161216d575b505050505090506000805b825181101561230b57836001600160a01b0316600a6000600d5481526020019081526020016000208483815181106121c6576121c661362c565b6020026020010151815481106121de576121de61362c565b60009182526020909120600260039092020101546001600160a01b03161461226f578281815181106122125761221261362c565b6020026020010151600c600d548154811061222f5761222f61362c565b906000526020600020906004020160030183815481106122515761225161362c565b6000918252602090912001558161226781613688565b9250506122f9565b600d546000908152600a6020526040902083518490839081106122945761229461362c565b6020026020010151815481106122ac576122ac61362c565b906000526020600020906003020160010154600c600d54815481106122d3576122d361362c565b906000526020600020906004020160020160008282546122f39190613615565b90915550505b8061230381613688565b91505061218c565b5060005b81835161231c9190613615565b81101561238157600c600d54815481106123385761233861362c565b9060005260206000209060040201600301805480612358576123586136a3565b60019003818190600052602060002001600090559055808061237990613688565b91505061230f565b50506006805460ff60a01b191690555050565b6001600160a01b03811660009081526002602052604081205481906123ef5760405162461bcd60e51b81526020600482015260116024820152704e6f20746f6b656e73207374616b65642160781b60448201526064016108cc565b60005b60055481101561244b5761242d84600583815481106124135761241361362c565b6000918252602090912001546001600160a01b0316610b38565b6124379083613497565b91508061244381613688565b9150506123f2565b5092915050565b6101f43410156124955760405162461bcd60e51b815260206004820152600e60248201526d04d696e2073697a65203d203530360941b60448201526064016108cc565b33600090815260096020526040812080543492906124b4908490613497565b9091555050565b336000818152600b60209081526040808320600d54845290915290206001015460ff1660028160038111156124f2576124f261336a565b148061250f5750600181600381111561250d5761250d61336a565b145b6125525760405162461bcd60e51b81526020600482015260146024820152732cb7ba903430bb32903737903837b9b4ba34b7b760611b60448201526064016108cc565b42600c600d54815481106125685761256861362c565b90600052602060002090600402016001015411156125c85760405162461bcd60e51b815260206004820152601d60248201527f43616e6e6f74206578657263697365206265666f72652065787069727900000060448201526064016108cc565b60038160038111156125dc576125dc61336a565b141561262a5760405162461bcd60e51b815260206004820152601760248201527f596f7520616c726561647920657863657263697365642000000000000000000060448201526064016108cc565b6001600160a01b0382166000908152600b60209081526040808320600d548085529252822054600c8054919392909181106126675761266761362c565b60009182526020909120600490910201549050600183600381111561268e5761268e61336a565b141561277257600082116126f75760405162461bcd60e51b815260206004820152602a60248201527f4e6f206f6e652073656c6c20796f75722062696420616e64206e6f7468696e6760448201526920746f2065787069726560b01b60648201526084016108cc565b806007541061273c5760405162461bcd60e51b815260206004820152601160248201527045787069726520776f727468207a65726f60781b60448201526064016108cc565b6001600160a01b0384166000908152600b60209081526040808320600d5484529091529020600201541561277257612772611f0c565b60028360038111156127865761278661336a565b1415612817578060075410156127e0576127a081836135f3565b6001600160a01b038516600090815260096020526040812080549091906127c8908490613497565b909155506127d8905081836135f3565b601055612898565b6001600160a01b03841660009081526009602052604081208054849290612808908490613497565b90915550506010829055612898565b8060075410156128985780600754826128309190613615565b61283a90846134af565b61284491906135f3565b6001600160a01b0385166000908152600960205260408120805490919061286c908490613497565b909155505060075481906128809082613615565b61288a90846134af565b61289491906135f3565b6010555b5050506001600160a01b03166000908152600b60209081526040808320600d5484529091529020600101805460ff19166003179055565b6060600c600d54815481106128e6576128e661362c565b906000526020600020906004020160030180548060200260200160405190810160405280929190818152602001828054801561294157602002820191906000526020600020905b81548152602001906001019080831161292d575b5050505050905090565b6000805b6005548110156129ac57826001600160a01b0316600582815481106129765761297661362c565b6000918252602090912001546001600160a01b0316141561299a5750600192915050565b806129a481613688565b91505061294f565b50600092915050565b600080600c600d54815481106129cd576129cd61362c565b90600052602060002090600402016003018054905011612a2f5760405162461bcd60e51b815260206004820152601e60248201527f63616e6e6f742073656c6c206966207468657265206973206e6f20626964000060448201526064016108cc565b6103e8821015612a735760405162461bcd60e51b815260206004820152600f60248201526e06d696e2073697a65203d203130303608c1b60448201526064016108cc565b600c600d5481548110612a8857612a8861362c565b906000526020600020906004020160020154821115612ad65760405162461bcd60e51b815260206004820152600a6024820152696c6f7720737570706c7960b01b60448201526064016108cc565b6000829050600080806001600c600d5481548110612af657612af661362c565b906000526020600020906004020160030180549050612b159190613615565b90505b8315612cdf57600d546000818152600a60205260409020600c8054919290918110612b4557612b4561362c565b90600052602060002090600402016003018281548110612b6757612b6761362c565b906000526020600020015481548110612b8257612b8261362c565b9060005260206000209060030201600101549150818410612c3b57600d546000818152600a60205260409020600c8054919290918110612bc457612bc461362c565b90600052602060002090600402016003018281548110612be657612be661362c565b906000526020600020015481548110612c0157612c0161362c565b90600052602060002090600302016000015482612c1e91906134af565b612c289084613497565b9250612c348285613615565b9350612ccd565b600d546000818152600a60205260409020600c8054919290918110612c6257612c6261362c565b90600052602060002090600402016003018281548110612c8457612c8461362c565b906000526020600020015481548110612c9f57612c9f61362c565b90600052602060002090600302016000015484612cbc91906134af565b612cc69084613497565b9250600093505b80612cd7816136b9565b915050612b18565b612ce986846135f3565b9695505050505050565b6001600160a01b03808216600090815260036020526040808220548151633fabe5a360e21b815291519293849391169182918491839163feaf968c9160048082019260a0929091908290030181865afa158015612d54573d6000803e3d6000fd5b505050506040513d601f19601f82011682018060405250810190612d7891906136ea565b5050509150506000826001600160a01b031663313ce5676040518163ffffffff1660e01b8152600401602060405180830381865afa158015612dbe573d6000803e3d6000fd5b505050506040513d601f19601f82011682018060405250810190612de2919061373a565b919760ff909216965090945050505050565b6000546001600160a01b03163314612e1e5760405162461bcd60e51b81526004016108cc906134ce565b6001600160a01b038116612e835760405162461bcd60e51b815260206004820152602660248201527f4f776e61626c653a206e6577206f776e657220697320746865207a65726f206160448201526564647265737360d01b60648201526084016108cc565b61120181613286565b600481815481106110ed57600080fd5b6001600160a01b03808216600090815260016020908152604080832093861683529290522054612f04576001600160a01b038216600090815260026020526040902054612eea906001613497565b6001600160a01b0383166000908152600260205260409020555b5050565b6000806001600c600d5481548110612f2257612f2261362c565b906000526020600020906004020160030180549050612f419190613615565b905060005b81831015613000576002612f5a8385613497565b612f6491906135f3565b9050600a6000600d548152602001908152602001600020600c600d5481548110612f9057612f9061362c565b90600052602060002090600402016003018281548110612fb257612fb261362c565b906000526020600020015481548110612fcd57612fcd61362c565b906000526020600020906003020160000154841115612ff857612ff1816001613497565b9250612f46565b809150612f46565b8183141561309a57600d546000818152600a60205260409020600c805491929091811061302f5761302f61362c565b906000526020600020906004020160030184815481106130515761305161362c565b90600052602060002001548154811061306c5761306c61362c565b90600052602060002090600302016000015484111561309757613090836001613497565b905061309a565b50815b600c600d54815481106130af576130af61362c565b90600052602060002090600402016003016001600a6000600d548152602001908152602001600020805490506130e59190613615565b815460018181018455600093845260209093200155600d54600c805490919081106131125761311261362c565b9060005260206000209060040201600301805490506131319190613615565b8110156110d75760006001600c600d54815481106131515761315161362c565b9060005260206000209060040201600301805490506131709190613615565b90505b8181111561321e57600c600d54815481106131905761319061362c565b90600052602060002090600402016003016001826131ae9190613615565b815481106131be576131be61362c565b9060005260206000200154600c600d54815481106131de576131de61362c565b906000526020600020906004020160030182815481106132005761320061362c565b60009182526020909120015580613216816136b9565b915050613173565b50600d546000908152600a602052604090205461323d90600190613615565b600c600d54815481106132525761325261362c565b906000526020600020906004020160030182815481106132745761327461362c565b60009182526020909120015550505050565b600080546001600160a01b038381166001600160a01b0319831681178455604051919092169283917f8be0079c531659141344cd1fd0a4f28419497f9722a3daafe3b4186f6b6457e09190a35050565b80356001600160a01b03811681146132ed57600080fd5b919050565b60006020828403121561330457600080fd5b61330d826132d6565b9392505050565b6000806040838503121561332757600080fd5b82359150613337602084016132d6565b90509250929050565b6000806040838503121561335357600080fd5b61335c836132d6565b946020939093013593505050565b634e487b7160e01b600052602160045260246000fd5b83815260608101600484106133a557634e487b7160e01b600052602160045260246000fd5b602082019390935260400152919050565b6000602082840312156133c857600080fd5b5035919050565b600080604083850312156133e257600080fd5b6133eb836132d6565b9150613337602084016132d6565b6000806040838503121561340c57600080fd5b50508035926020909101359150565b6020808252825182820181905260009190848201906040850190845b8181101561345357835183529284019291840191600101613437565b50909695505050505050565b60006020828403121561347157600080fd5b8151801515811461330d57600080fd5b634e487b7160e01b600052601160045260246000fd5b600082198211156134aa576134aa613481565b500190565b60008160001904831182151516156134c9576134c9613481565b500290565b6020808252818101527f4f776e61626c653a2063616c6c6572206973206e6f7420746865206f776e6572604082015260600190565b600181815b8085111561353e57816000190482111561352457613524613481565b8085161561353157918102915b93841c9390800290613508565b509250929050565b60008261355557506001610bb9565b8161356257506000610bb9565b816001811461357857600281146135825761359e565b6001915050610bb9565b60ff84111561359357613593613481565b50506001821b610bb9565b5060208310610133831016604e8410600b84101617156135c1575081810a610bb9565b6135cb8383613503565b80600019048211156135df576135df613481565b029392505050565b600061330d8383613546565b60008261361057634e487b7160e01b600052601260045260246000fd5b500490565b60008282101561362757613627613481565b500390565b634e487b7160e01b600052603260045260246000fd5b60208082526026908201527f416c72656164792065787069726564206f7220746f6f20636c6f736520746f2060408201526565787069727960d01b606082015260800190565b600060001982141561369c5761369c613481565b5060010190565b634e487b7160e01b600052603160045260246000fd5b6000816136c8576136c8613481565b506000190190565b805169ffffffffffffffffffff811681146132ed57600080fd5b600080600080600060a0868803121561370257600080fd5b61370b866136d0565b945060208601519350604086015192506060860151915061372e608087016136d0565b90509295509295909350565b60006020828403121561374c57600080fd5b815160ff8116811461330d57600080fdfea264697066735822122023ca3e5197dcf3b6509e09a36ce6368129e63640a0d0fecdb75f8b2b1ac36bcf64736f6c634300080a0033","bytecodeSha1":"1201e54e9ed4c6d31e0eba2e6aa2d55c6ae543b8","compiler":{"evm_version":"istanbul","optimizer":{"enabled":true,"runs":200},"version":"0.8.10+commit.fc410830"},"contractName":"TokenFarm","language":"Solidity","natspec":{"kind":"dev","methods":{"owner()":{"details":"Returns the address of the current owner."},"renounceOwnership()":{"details":"Leaves the contract without owner. It will not be possible to call `onlyOwner` functions anymore. Can only be called by the current owner. NOTE: Renouncing ownership will leave the contract without an owner, thereby removing any functionality that is only available to the owner."},"transferOwnership(address)":{"details":"Transfers ownership of the contract to a new account (`newOwner`). Can only be called by the current owner."}},"version":1},"opcodes":"PUSH1 0x80 PUSH1 0x40 MSTORE PUSH1 0x4 CALLDATASIZE LT PUSH2 0x251 JUMPI PUSH1 0x0 CALLDATALOAD PUSH1 0xE0 SHR DUP1 PUSH4 0x715018A6 GT PUSH2 0x139 JUMPI DUP1 PUSH4 0xD0E30DB0 GT PUSH2 0xB6 JUMPI DUP1 PUSH4 0xF1C5D6C2 GT PUSH2 0x7A JUMPI DUP1 PUSH4 0xF1C5D6C2 EQ PUSH2 0x782 JUMPI DUP1 PUSH4 0xF2758344 EQ PUSH2 0x7B7 JUMPI DUP1 PUSH4 0xF2FDE38B EQ PUSH2 0x7FD JUMPI DUP1 PUSH4 0xF6702356 EQ PUSH2 0x81D JUMPI DUP1 PUSH4 0xFD5E6DD1 EQ PUSH2 0x84A JUMPI DUP1 PUSH4 0xFF186B2E EQ PUSH2 0x86A JUMPI PUSH1 0x0 DUP1 REVERT JUMPDEST DUP1 PUSH4 0xD0E30DB0 EQ PUSH2 0x6F3 JUMPI DUP1 PUSH4 0xD32CB0FE EQ PUSH2 0x6FB JUMPI DUP1 PUSH4 0xD36DEDD2 EQ PUSH2 0x710 JUMPI DUP1 PUSH4 0xDD5B8467 EQ PUSH2 0x732 JUMPI DUP1 PUSH4 0xF14E96F1 EQ PUSH2 0x762 JUMPI PUSH1 0x0 DUP1 REVERT JUMPDEST DUP1 PUSH4 0x877DD39D GT PUSH2 0xFD JUMPI DUP1 PUSH4 0x877DD39D EQ PUSH2 0x653 JUMPI DUP1 PUSH4 0x8DA5CB5B EQ PUSH2 0x673 JUMPI DUP1 PUSH4 0x9435C887 EQ PUSH2 0x691 JUMPI DUP1 PUSH4 0xAF3F5E22 EQ PUSH2 0x6A6 JUMPI DUP1 PUSH4 0xB83E0234 EQ PUSH2 0x6C6 JUMPI PUSH1 0x0 DUP1 REVERT JUMPDEST DUP1 PUSH4 0x715018A6 EQ PUSH2 0x5AF JUMPI DUP1 PUSH4 0x7B3889E7 EQ PUSH2 0x5C4 JUMPI DUP1 PUSH4 0x7B3C4BAA EQ PUSH2 0x5DA JUMPI DUP1 PUSH4 0x7B468DE6 EQ PUSH2 0x61E JUMPI DUP1 PUSH4 0x7E7F320D EQ PUSH2 0x63E JUMPI PUSH1 0x0 DUP1 REVERT JUMPDEST DUP1 PUSH4 0x2D1AD8B8 GT PUSH2 0x1D2 JUMPI DUP1 PUSH4 0x5E5F2E26 GT PUSH2 0x196 JUMPI DUP1 PUSH4 0x5E5F2E26 EQ PUSH2 0x510 JUMPI DUP1 PUSH4 0x5EB186F8 EQ PUSH2 0x530 JUMPI DUP1 PUSH4 0x60AB5852 EQ PUSH2 0x550 JUMPI DUP1 PUSH4 0x67C9B017 EQ PUSH2 0x565 JUMPI DUP1 PUSH4 0x6C9C2FAF EQ PUSH2 0x57A JUMPI DUP1 PUSH4 0x704BBA69 EQ PUSH2 0x58F JUMPI PUSH1 0x0 DUP1 REVERT JUMPDEST DUP1 PUSH4 0x2D1AD8B8 EQ PUSH2 0x434 JUMPI DUP1 PUSH4 0x387EADAE EQ PUSH2 0x454 JUMPI DUP1 PUSH4 0x41398B15 EQ PUSH2 0x48F JUMPI DUP1 PUSH4 0x4F0DCD39 EQ PUSH2 0x4AF JUMPI DUP1 PUSH4 0x57C90DE5 EQ PUSH2 0x4F0 JUMPI PUSH1 0x0 DUP1 REVERT JUMPDEST DUP1 PUSH4 0x171E44EA GT PUSH2 0x219 JUMPI DUP1 PUSH4 0x171E44EA EQ PUSH2 0x34F JUMPI DUP1 PUSH4 0x1BE0819C EQ PUSH2 0x36F JUMPI DUP1 PUSH4 0x276B11DA EQ PUSH2 0x38E JUMPI DUP1 PUSH4 0x27927B3E EQ PUSH2 0x3AE JUMPI DUP1 PUSH4 0x29161A00 EQ PUSH2 0x3FC JUMPI PUSH1 0x0 DUP1 REVERT JUMPDEST DUP1 PUSH4 0x103C92B EQ PUSH2 0x256 JUMPI DUP1 PUSH4 0xBEA440D EQ PUSH2 0x29F JUMPI DUP1 PUSH4 0x14F6C3BE EQ PUSH2 0x2C1 JUMPI DUP1 PUSH4 0x14FEAA9D EQ PUSH2 0x2D6 JUMPI DUP1 PUSH4 0x16ED0F72 EQ PUSH2 0x32F JUMPI JUMPDEST PUSH1 0x0 DUP1 REVERT JUMPDEST CALLVALUE DUP1 ISZERO PUSH2 0x262 JUMPI PUSH1 0x0 DUP1 REVERT JUMPDEST POP PUSH2 0x28C PUSH2 0x271 CALLDATASIZE PUSH1 0x4 PUSH2 0x32F2 JUMP JUMPDEST PUSH1 0x1 PUSH1 0x1 PUSH1 0xA0 SHL SUB AND PUSH1 0x0 SWAP1 DUP2 MSTORE PUSH1 0x9 PUSH1 0x20 MSTORE PUSH1 0x40 SWAP1 KECCAK256 SLOAD SWAP1 JUMP JUMPDEST PUSH1 0x40 MLOAD SWAP1 DUP2 MSTORE PUSH1 0x20 ADD JUMPDEST PUSH1 0x40 MLOAD DUP1 SWAP2 SUB SWAP1 RETURN JUMPDEST CALLVALUE DUP1 ISZERO PUSH2 0x2AB JUMPI PUSH1 0x0 DUP1 REVERT JUMPDEST POP PUSH2 0x2BF PUSH2 0x2BA CALLDATASIZE PUSH1 0x4 PUSH2 0x3314 JUMP JUMPDEST PUSH2 0x880 JUMP JUMPDEST STOP JUMPDEST CALLVALUE DUP1 ISZERO PUSH2 0x2CD JUMPI PUSH1 0x0 DUP1 REVERT JUMPDEST POP PUSH2 0x28C PUSH2 0xA85 JUMP JUMPDEST CALLVALUE DUP1 ISZERO PUSH2 0x2E2 JUMPI PUSH1 0x0 DUP1 REVERT JUMPDEST POP PUSH2 0x320 PUSH2 0x2F1 CALLDATASIZE PUSH1 0x4 PUSH2 0x3340 JUMP JUMPDEST PUSH1 0xB PUSH1 0x20 SWAP1 DUP2 MSTORE PUSH1 0x0 SWAP3 DUP4 MSTORE PUSH1 0x40 DUP1 DUP5 KECCAK256 SWAP1 SWAP2 MSTORE SWAP1 DUP3 MSTORE SWAP1 KECCAK256 DUP1 SLOAD PUSH1 0x1 DUP3 ADD SLOAD PUSH1 0x2 SWAP1 SWAP3 ADD SLOAD SWAP1 SWAP2 PUSH1 0xFF AND SWAP1 DUP4 JUMP JUMPDEST PUSH1 0x40 MLOAD PUSH2 0x296 SWAP4 SWAP3 SWAP2 SWAP1 PUSH2 0x3380 JUMP JUMPDEST CALLVALUE DUP1 ISZERO PUSH2 0x33B JUMPI PUSH1 0x0 DUP1 REVERT JUMPDEST POP PUSH2 0x2BF PUSH2 0x34A CALLDATASIZE PUSH1 0x4 PUSH2 0x33B6 JUMP JUMPDEST PUSH1 0x7 SSTORE JUMP JUMPDEST CALLVALUE DUP1 ISZERO PUSH2 0x35B JUMPI PUSH1 0x0 DUP1 REVERT JUMPDEST POP PUSH2 0x2BF PUSH2 0x36A CALLDATASIZE PUSH1 0x4 PUSH2 0x32F2 JUMP JUMPDEST PUSH2 0xABC JUMP JUMPDEST CALLVALUE DUP1 ISZERO PUSH2 0x37B JUMPI PUSH1 0x0 DUP1 REVERT JUMPDEST POP PUSH1 0x8 SLOAD PUSH1 0x1 PUSH1 0x1 PUSH1 0xA0 SHL SUB AND BALANCE PUSH2 0x28C JUMP JUMPDEST CALLVALUE DUP1 ISZERO PUSH2 0x39A JUMPI PUSH1 0x0 DUP1 REVERT JUMPDEST POP PUSH2 0x28C PUSH2 0x3A9 CALLDATASIZE PUSH1 0x4 PUSH2 0x33CF JUMP JUMPDEST PUSH2 0xB38 JUMP JUMPDEST CALLVALUE DUP1 ISZERO PUSH2 0x3BA JUMPI PUSH1 0x0 DUP1 REVERT JUMPDEST POP PUSH2 0x3E4 PUSH2 0x3C9 CALLDATASIZE PUSH1 0x4 PUSH2 0x32F2 JUMP JUMPDEST PUSH1 0x3 PUSH1 0x20 MSTORE PUSH1 0x0 SWAP1 DUP2 MSTORE PUSH1 0x40 SWAP1 KECCAK256 SLOAD PUSH1 0x1 PUSH1 0x1 PUSH1 0xA0 SHL SUB AND DUP2 JUMP JUMPDEST PUSH1 0x40 MLOAD PUSH1 0x1 PUSH1 0x1 PUSH1 0xA0 SHL SUB SWAP1 SWAP2 AND DUP2 MSTORE PUSH1 0x20 ADD PUSH2 0x296 JUMP JUMPDEST CALLVALUE DUP1 ISZERO PUSH2 0x408 JUMPI PUSH1 0x0 DUP1 REVERT JUMPDEST POP PUSH2 0x28C PUSH2 0x417 CALLDATASIZE PUSH1 0x4 PUSH2 0x33CF JUMP JUMPDEST PUSH1 0x1 PUSH1 0x20 SWAP1 DUP2 MSTORE PUSH1 0x0 SWAP3 DUP4 MSTORE PUSH1 0x40 DUP1 DUP5 KECCAK256 SWAP1 SWAP2 MSTORE SWAP1 DUP3 MSTORE SWAP1 KECCAK256 SLOAD DUP2 JUMP JUMPDEST CALLVALUE DUP1 ISZERO PUSH2 0x440 JUMPI PUSH1 0x0 DUP1 REVERT JUMPDEST POP PUSH2 0x2BF PUSH2 0x44F CALLDATASIZE PUSH1 0x4 PUSH2 0x32F2 JUMP JUMPDEST PUSH2 0xBBF JUMP JUMPDEST CALLVALUE DUP1 ISZERO PUSH2 0x460 JUMPI PUSH1 0x0 DUP1 REVERT JUMPDEST POP PUSH2 0x474 PUSH2 0x46F CALLDATASIZE PUSH1 0x4 PUSH2 0x33B6 JUMP JUMPDEST PUSH2 0xD1D JUMP JUMPDEST PUSH1 0x40 DUP1 MLOAD SWAP4 DUP5 MSTORE PUSH1 0x20 DUP5 ADD SWAP3 SWAP1 SWAP3 MSTORE SWAP1 DUP3 ADD MSTORE PUSH1 0x60 ADD PUSH2 0x296 JUMP JUMPDEST CALLVALUE DUP1 ISZERO PUSH2 0x49B JUMPI PUSH1 0x0 DUP1 REVERT JUMPDEST POP PUSH1 0x11 SLOAD PUSH2 0x3E4 SWAP1 PUSH1 0x1 PUSH1 0x1 PUSH1 0xA0 SHL SUB AND DUP2 JUMP JUMPDEST CALLVALUE DUP1 ISZERO PUSH2 0x4BB JUMPI PUSH1 0x0 DUP1 REVERT JUMPDEST POP PUSH2 0x28C PUSH2 0x4CA CALLDATASIZE PUSH1 0x4 PUSH2 0x32F2 JUMP JUMPDEST PUSH1 0x1 PUSH1 0x1 PUSH1 0xA0 SHL SUB AND PUSH1 0x0 SWAP1 DUP2 MSTORE PUSH1 0x1 PUSH1 0x20 SWAP1 DUP2 MSTORE PUSH1 0x40 DUP1 DUP4 KECCAK256 CALLER DUP5 MSTORE SWAP1 SWAP2 MSTORE SWAP1 KECCAK256 SLOAD SWAP1 JUMP JUMPDEST CALLVALUE DUP1 ISZERO PUSH2 0x4FC JUMPI PUSH1 0x0 DUP1 REVERT JUMPDEST POP PUSH2 0x2BF PUSH2 0x50B CALLDATASIZE PUSH1 0x4 PUSH2 0x33F9 JUMP JUMPDEST PUSH2 0xD50 JUMP JUMPDEST CALLVALUE DUP1 ISZERO PUSH2 0x51C JUMPI PUSH1 0x0 DUP1 REVERT JUMPDEST POP PUSH2 0x3E4 PUSH2 0x52B CALLDATASIZE PUSH1 0x4 PUSH2 0x33B6 JUMP JUMPDEST PUSH2 0x10DD JUMP JUMPDEST CALLVALUE DUP1 ISZERO PUSH2 0x53C JUMPI PUSH1 0x0 DUP1 REVERT JUMPDEST POP PUSH1 0x6 SLOAD PUSH2 0x3E4 SWAP1 PUSH1 0x1 PUSH1 0x1 PUSH1 0xA0 SHL SUB AND DUP2 JUMP JUMPDEST CALLVALUE DUP1 ISZERO PUSH2 0x55C JUMPI PUSH1 0x0 DUP1 REVERT JUMPDEST POP PUSH2 0x2BF PUSH2 0x1107 JUMP JUMPDEST CALLVALUE DUP1 ISZERO PUSH2 0x571 JUMPI PUSH1 0x0 DUP1 REVERT JUMPDEST POP PUSH2 0x2BF PUSH2 0x1204 JUMP JUMPDEST CALLVALUE DUP1 ISZERO PUSH2 0x586 JUMPI PUSH1 0x0 DUP1 REVERT JUMPDEST POP PUSH2 0x28C PUSH2 0x1239 JUMP JUMPDEST CALLVALUE DUP1 ISZERO PUSH2 0x59B JUMPI PUSH1 0x0 DUP1 REVERT JUMPDEST POP PUSH2 0x2BF PUSH2 0x5AA CALLDATASIZE PUSH1 0x4 PUSH2 0x33B6 JUMP JUMPDEST PUSH2 0x1267 JUMP JUMPDEST CALLVALUE DUP1 ISZERO PUSH2 0x5BB JUMPI PUSH1 0x0 DUP1 REVERT JUMPDEST POP PUSH2 0x2BF PUSH2 0x1DA6 JUMP JUMPDEST CALLVALUE DUP1 ISZERO PUSH2 0x5D0 JUMPI PUSH1 0x0 DUP1 REVERT JUMPDEST POP PUSH2 0x28C PUSH1 0x10 SLOAD DUP2 JUMP JUMPDEST CALLVALUE DUP1 ISZERO PUSH2 0x5E6 JUMPI PUSH1 0x0 DUP1 REVERT JUMPDEST POP PUSH2 0x5FA PUSH2 0x5F5 CALLDATASIZE PUSH1 0x4 PUSH2 0x33F9 JUMP JUMPDEST PUSH2 0x1DDC JUMP JUMPDEST PUSH1 0x40 DUP1 MLOAD SWAP4 DUP5 MSTORE PUSH1 0x20 DUP5 ADD SWAP3 SWAP1 SWAP3 MSTORE PUSH1 0x1 PUSH1 0x1 PUSH1 0xA0 SHL SUB AND SWAP1 DUP3 ADD MSTORE PUSH1 0x60 ADD PUSH2 0x296 JUMP JUMPDEST CALLVALUE DUP1 ISZERO PUSH2 0x62A JUMPI PUSH1 0x0 DUP1 REVERT JUMPDEST POP PUSH2 0x28C PUSH2 0x639 CALLDATASIZE PUSH1 0x4 PUSH2 0x32F2 JUMP JUMPDEST PUSH2 0x1E27 JUMP JUMPDEST CALLVALUE DUP1 ISZERO PUSH2 0x64A JUMPI PUSH1 0x0 DUP1 REVERT JUMPDEST POP PUSH2 0x28C PUSH2 0x1E7B JUMP JUMPDEST CALLVALUE DUP1 ISZERO PUSH2 0x65F JUMPI PUSH1 0x0 DUP1 REVERT JUMPDEST POP PUSH2 0x2BF PUSH2 0x66E CALLDATASIZE PUSH1 0x4 PUSH2 0x33CF JUMP JUMPDEST PUSH2 0x1EB4 JUMP JUMPDEST CALLVALUE DUP1 ISZERO PUSH2 0x67F JUMPI PUSH1 0x0 DUP1 REVERT JUMPDEST POP PUSH1 0x0 SLOAD PUSH1 0x1 PUSH1 0x1 PUSH1 0xA0 SHL SUB AND PUSH2 0x3E4 JUMP JUMPDEST CALLVALUE DUP1 ISZERO PUSH2 0x69D JUMPI PUSH1 0x0 DUP1 REVERT JUMPDEST POP PUSH2 0x2BF PUSH2 0x1F0C JUMP JUMPDEST CALLVALUE DUP1 ISZERO PUSH2 0x6B2 JUMPI PUSH1 0x0 DUP1 REVERT JUMPDEST POP PUSH2 0x28C PUSH2 0x6C1 CALLDATASIZE PUSH1 0x4 PUSH2 0x32F2 JUMP JUMPDEST PUSH2 0x2394 JUMP JUMPDEST CALLVALUE DUP1 ISZERO PUSH2 0x6D2 JUMPI PUSH1 0x0 DUP1 REVERT JUMPDEST POP PUSH2 0x28C PUSH2 0x6E1 CALLDATASIZE PUSH1 0x4 PUSH2 0x32F2 JUMP JUMPDEST PUSH1 0x2 PUSH1 0x20 MSTORE PUSH1 0x0 SWAP1 DUP2 MSTORE PUSH1 0x40 SWAP1 KECCAK256 SLOAD DUP2 JUMP JUMPDEST PUSH2 0x2BF PUSH2 0x2452 JUMP JUMPDEST CALLVALUE DUP1 ISZERO PUSH2 0x707 JUMPI PUSH1 0x0 DUP1 REVERT JUMPDEST POP PUSH2 0x2BF PUSH2 0x24BB JUMP JUMPDEST CALLVALUE DUP1 ISZERO PUSH2 0x71C JUMPI PUSH1 0x0 DUP1 REVERT JUMPDEST POP PUSH2 0x725 PUSH2 0x28CF JUMP JUMPDEST PUSH1 0x40 MLOAD PUSH2 0x296 SWAP2 SWAP1 PUSH2 0x341B JUMP JUMPDEST CALLVALUE DUP1 ISZERO PUSH2 0x73E JUMPI PUSH1 0x0 DUP1 REVERT JUMPDEST POP PUSH2 0x752 PUSH2 0x74D CALLDATASIZE PUSH1 0x4 PUSH2 0x32F2 JUMP JUMPDEST PUSH2 0x294B JUMP JUMPDEST PUSH1 0x40 MLOAD SWAP1 ISZERO ISZERO DUP2 MSTORE PUSH1 0x20 ADD PUSH2 0x296 JUMP JUMPDEST CALLVALUE DUP1 ISZERO PUSH2 0x76E JUMPI PUSH1 0x0 DUP1 REVERT JUMPDEST POP PUSH2 0x28C PUSH2 0x77D CALLDATASIZE PUSH1 0x4 PUSH2 0x33B6 JUMP JUMPDEST PUSH2 0x29B5 JUMP JUMPDEST CALLVALUE DUP1 ISZERO PUSH2 0x78E JUMPI PUSH1 0x0 DUP1 REVERT JUMPDEST POP PUSH2 0x7A2 PUSH2 0x79D CALLDATASIZE PUSH1 0x4 PUSH2 0x32F2 JUMP JUMPDEST PUSH2 0x2CF3 JUMP JUMPDEST PUSH1 0x40 DUP1 MLOAD SWAP3 DUP4 MSTORE PUSH1 0x20 DUP4 ADD SWAP2 SWAP1 SWAP2 MSTORE ADD PUSH2 0x296 JUMP JUMPDEST CALLVALUE DUP1 ISZERO PUSH2 0x7C3 JUMPI PUSH1 0x0 DUP1 REVERT JUMPDEST POP PUSH2 0x28C PUSH2 0x7D2 CALLDATASIZE PUSH1 0x4 PUSH2 0x32F2 JUMP JUMPDEST PUSH1 0x1 PUSH1 0x1 PUSH1 0xA0 SHL SUB AND PUSH1 0x0 SWAP1 DUP2 MSTORE PUSH1 0xB PUSH1 0x20 SWAP1 DUP2 MSTORE PUSH1 0x40 DUP1 DUP4 KECCAK256 PUSH1 0xD SLOAD DUP5 MSTORE SWAP1 SWAP2 MSTORE SWAP1 KECCAK256 PUSH1 0x2 ADD SLOAD SWAP1 JUMP JUMPDEST CALLVALUE DUP1 ISZERO PUSH2 0x809 JUMPI PUSH1 0x0 DUP1 REVERT JUMPDEST POP PUSH2 0x2BF PUSH2 0x818 CALLDATASIZE PUSH1 0x4 PUSH2 0x32F2 JUMP JUMPDEST PUSH2 0x2DF4 JUMP JUMPDEST CALLVALUE DUP1 ISZERO PUSH2 0x829 JUMPI PUSH1 0x0 DUP1 REVERT JUMPDEST POP PUSH2 0x28C PUSH2 0x838 CALLDATASIZE PUSH1 0x4 PUSH2 0x32F2 JUMP JUMPDEST PUSH1 0x9 PUSH1 0x20 MSTORE PUSH1 0x0 SWAP1 DUP2 MSTORE PUSH1 0x40 SWAP1 KECCAK256 SLOAD DUP2 JUMP JUMPDEST CALLVALUE DUP1 ISZERO PUSH2 0x856 JUMPI PUSH1 0x0 DUP1 REVERT JUMPDEST POP PUSH2 0x3E4 PUSH2 0x865 CALLDATASIZE PUSH1 0x4 PUSH2 0x33B6 JUMP JUMPDEST PUSH2 0x2E8C JUMP JUMPDEST CALLVALUE DUP1 ISZERO PUSH2 0x876 JUMPI PUSH1 0x0 DUP1 REVERT JUMPDEST POP PUSH2 0x28C PUSH1 0x7 SLOAD DUP2 JUMP JUMPDEST PUSH1 0x0 DUP3 GT PUSH2 0x8D5 JUMPI PUSH1 0x40 MLOAD PUSH3 0x461BCD PUSH1 0xE5 SHL DUP2 MSTORE PUSH1 0x20 PUSH1 0x4 DUP3 ADD MSTORE PUSH1 0x1A PUSH1 0x24 DUP3 ADD MSTORE PUSH32 0x416D6F756E74206D757374206265206D6F7265207468616E2030000000000000 PUSH1 0x44 DUP3 ADD MSTORE PUSH1 0x64 ADD JUMPDEST PUSH1 0x40 MLOAD DUP1 SWAP2 SUB SWAP1 REVERT JUMPDEST PUSH2 0x8DE DUP2 PUSH2 0x294B JUMP JUMPDEST PUSH2 0x92A JUMPI PUSH1 0x40 MLOAD PUSH3 0x461BCD PUSH1 0xE5 SHL DUP2 MSTORE PUSH1 0x20 PUSH1 0x4 DUP3 ADD MSTORE PUSH1 0x1D PUSH1 0x24 DUP3 ADD MSTORE PUSH32 0x546F6B656E2069732063757272656E746C79206E6F20616C6C6F776564000000 PUSH1 0x44 DUP3 ADD MSTORE PUSH1 0x64 ADD PUSH2 0x8CC JUMP JUMPDEST PUSH1 0x40 MLOAD PUSH4 0x23B872DD PUSH1 0xE0 SHL DUP2 MSTORE CALLER PUSH1 0x4 DUP3 ADD MSTORE ADDRESS PUSH1 0x24 DUP3 ADD MSTORE PUSH1 0x44 DUP2 ADD DUP4 SWAP1 MSTORE PUSH1 0x1 PUSH1 0x1 PUSH1 0xA0 SHL SUB DUP3 AND SWAP1 PUSH4 0x23B872DD SWAP1 PUSH1 0x64 ADD PUSH1 0x20 PUSH1 0x40 MLOAD DUP1 DUP4 SUB DUP2 PUSH1 0x0 DUP8 GAS CALL ISZERO DUP1 ISZERO PUSH2 0x97D JUMPI RETURNDATASIZE PUSH1 0x0 DUP1 RETURNDATACOPY RETURNDATASIZE PUSH1 0x0 REVERT JUMPDEST POP POP POP POP PUSH1 0x40 MLOAD RETURNDATASIZE PUSH1 0x1F NOT PUSH1 0x1F DUP3 ADD AND DUP3 ADD DUP1 PUSH1 0x40 MSTORE POP DUP2 ADD SWAP1 PUSH2 0x9A1 SWAP2 SWAP1 PUSH2 0x345F JUMP JUMPDEST POP PUSH2 0x9AC CALLER DUP3 PUSH2 0x2E9C JUMP JUMPDEST PUSH1 0x1 PUSH1 0x1 PUSH1 0xA0 SHL SUB DUP2 AND PUSH1 0x0 SWAP1 DUP2 MSTORE PUSH1 0x1 PUSH1 0x20 SWAP1 DUP2 MSTORE PUSH1 0x40 DUP1 DUP4 KECCAK256 CALLER DUP5 MSTORE SWAP1 SWAP2 MSTORE SWAP1 KECCAK256 SLOAD PUSH2 0x9DB SWAP1 DUP4 SWAP1 PUSH2 0x3497 JUMP JUMPDEST PUSH1 0x1 PUSH1 0x1 PUSH1 0xA0 SHL SUB DUP3 AND PUSH1 0x0 SWAP1 DUP2 MSTORE PUSH1 0x1 PUSH1 0x20 DUP2 DUP2 MSTORE PUSH1 0x40 DUP1 DUP5 KECCAK256 CALLER DUP6 MSTORE DUP3 MSTORE DUP1 DUP5 KECCAK256 SWAP5 SWAP1 SWAP5 SSTORE PUSH1 0x2 SWAP1 MSTORE SWAP2 SWAP1 KECCAK256 SLOAD EQ ISZERO PUSH2 0xA53 JUMPI PUSH1 0x4 DUP1 SLOAD PUSH1 0x1 DUP2 ADD DUP3 SSTORE PUSH1 0x0 SWAP2 SWAP1 SWAP2 MSTORE PUSH32 0x8A35ACFBC15FF81A39AE7D344FD709F28E8600B4AA8C65C6B64BFE7FE36BD19B ADD DUP1 SLOAD PUSH1 0x1 PUSH1 0x1 PUSH1 0xA0 SHL SUB NOT AND CALLER OR SWAP1 SSTORE JUMPDEST PUSH2 0xA5D CALLER DUP3 PUSH2 0xB38 JUMP JUMPDEST CALLER PUSH1 0x0 SWAP1 DUP2 MSTORE PUSH1 0x9 PUSH1 0x20 MSTORE PUSH1 0x40 DUP2 KECCAK256 DUP1 SLOAD SWAP1 SWAP2 SWAP1 PUSH2 0xA7C SWAP1 DUP5 SWAP1 PUSH2 0x3497 JUMP JUMPDEST SWAP1 SWAP2 SSTORE POP POP POP POP JUMP JUMPDEST PUSH1 0x11 SLOAD PUSH1 0x0 SWAP1 DUP2 SWAP1 DUP2 SWAP1 PUSH2 0xAA1 SWAP1 PUSH1 0x1 PUSH1 0x1 PUSH1 0xA0 SHL SUB AND PUSH2 0x2CF3 JUMP JUMPDEST SWAP1 SWAP3 POP SWAP1 POP PUSH2 0xAB5 DUP3 PUSH5 0x2540BE400 PUSH2 0x34AF JUMP JUMPDEST SWAP3 POP POP POP SWAP1 JUMP JUMPDEST PUSH1 0x0 SLOAD PUSH1 0x1 PUSH1 0x1 PUSH1 0xA0 SHL SUB AND CALLER EQ PUSH2 0xAE6 JUMPI PUSH1 0x40 MLOAD PUSH3 0x461BCD PUSH1 0xE5 SHL DUP2 MSTORE PUSH1 0x4 ADD PUSH2 0x8CC SWAP1 PUSH2 0x34CE JUMP JUMPDEST PUSH1 0x5 DUP1 SLOAD PUSH1 0x1 DUP2 ADD DUP3 SSTORE PUSH1 0x0 SWAP2 SWAP1 SWAP2 MSTORE PUSH32 0x36B6384B5ECA791C62761152D0C79BB0604C104A5FB6F4EB0703F3154BB3DB0 ADD DUP1 SLOAD PUSH1 0x1 PUSH1 0x1 PUSH1 0xA0 SHL SUB NOT AND PUSH1 0x1 PUSH1 0x1 PUSH1 0xA0 SHL SUB SWAP3 SWAP1 SWAP3 AND SWAP2 SWAP1 SWAP2 OR SWAP1 SSTORE JUMP JUMPDEST PUSH1 0x1 PUSH1 0x1 PUSH1 0xA0 SHL SUB DUP3 AND PUSH1 0x0 SWAP1 DUP2 MSTORE PUSH1 0x2 PUSH1 0x20 MSTORE PUSH1 0x40 DUP2 KECCAK256 SLOAD PUSH2 0xB5D JUMPI POP PUSH1 0x0 PUSH2 0xBB9 JUMP JUMPDEST PUSH1 0x0 DUP1 PUSH2 0xB69 DUP5 PUSH2 0x2CF3 JUMP JUMPDEST SWAP1 SWAP3 POP SWAP1 POP PUSH2 0xB79 DUP2 PUSH1 0xA PUSH2 0x35E7 JUMP JUMPDEST PUSH1 0x1 PUSH1 0x1 PUSH1 0xA0 SHL SUB DUP1 DUP7 AND PUSH1 0x0 SWAP1 DUP2 MSTORE PUSH1 0x1 PUSH1 0x20 SWAP1 DUP2 MSTORE PUSH1 0x40 DUP1 DUP4 KECCAK256 SWAP4 DUP11 AND DUP4 MSTORE SWAP3 SWAP1 MSTORE KECCAK256 SLOAD PUSH2 0xBAA SWAP1 DUP5 SWAP1 PUSH2 0x34AF JUMP JUMPDEST PUSH2 0xBB4 SWAP2 SWAP1 PUSH2 0x35F3 JUMP JUMPDEST SWAP3 POP POP POP JUMPDEST SWAP3 SWAP2 POP POP JUMP JUMPDEST PUSH1 0x1 PUSH1 0x1 PUSH1 0xA0 SHL SUB DUP2 AND PUSH1 0x0 SWAP1 DUP2 MSTORE PUSH1 0x1 PUSH1 0x20 SWAP1 DUP2 MSTORE PUSH1 0x40 DUP1 DUP4 KECCAK256 CALLER DUP5 MSTORE SWAP1 SWAP2 MSTORE SWAP1 KECCAK256 SLOAD DUP1 PUSH2 0xC30 JUMPI PUSH1 0x40 MLOAD PUSH3 0x461BCD PUSH1 0xE5 SHL DUP2 MSTORE PUSH1 0x20 PUSH1 0x4 DUP3 ADD MSTORE PUSH1 0x18 PUSH1 0x24 DUP3 ADD MSTORE PUSH32 0x436173682062616C616E63652063616E6E6F7420626520300000000000000000 PUSH1 0x44 DUP3 ADD MSTORE PUSH1 0x64 ADD PUSH2 0x8CC JUMP JUMPDEST PUSH1 0x40 MLOAD PUSH4 0xA9059CBB PUSH1 0xE0 SHL DUP2 MSTORE CALLER PUSH1 0x4 DUP3 ADD MSTORE PUSH1 0x24 DUP2 ADD DUP3 SWAP1 MSTORE PUSH1 0x1 PUSH1 0x1 PUSH1 0xA0 SHL SUB DUP4 AND SWAP1 PUSH4 0xA9059CBB SWAP1 PUSH1 0x44 ADD PUSH1 0x20 PUSH1 0x40 MLOAD DUP1 DUP4 SUB DUP2 PUSH1 0x0 DUP8 GAS CALL ISZERO DUP1 ISZERO PUSH2 0xC7D JUMPI RETURNDATASIZE PUSH1 0x0 DUP1 RETURNDATACOPY RETURNDATASIZE PUSH1 0x0 REVERT JUMPDEST POP POP POP POP PUSH1 0x40 MLOAD RETURNDATASIZE PUSH1 0x1F NOT PUSH1 0x1F DUP3 ADD AND DUP3 ADD DUP1 PUSH1 0x40 MSTORE POP DUP2 ADD SWAP1 PUSH2 0xCA1 SWAP2 SWAP1 PUSH2 0x345F JUMP JUMPDEST POP PUSH2 0xCAC CALLER DUP4 PUSH2 0xB38 JUMP JUMPDEST CALLER PUSH1 0x0 SWAP1 DUP2 MSTORE PUSH1 0x9 PUSH1 0x20 MSTORE PUSH1 0x40 DUP2 KECCAK256 DUP1 SLOAD SWAP1 SWAP2 SWAP1 PUSH2 0xCCB SWAP1 DUP5 SWAP1 PUSH2 0x3615 JUMP JUMPDEST SWAP1 SWAP2 SSTORE POP POP PUSH1 0x1 PUSH1 0x1 PUSH1 0xA0 SHL SUB DUP3 AND PUSH1 0x0 SWAP1 DUP2 MSTORE PUSH1 0x1 PUSH1 0x20 DUP2 DUP2 MSTORE PUSH1 0x40 DUP1 DUP5 KECCAK256 CALLER DUP6 MSTORE DUP3 MSTORE DUP1 DUP5 KECCAK256 DUP5 SWAP1 SSTORE PUSH1 0x2 SWAP1 SWAP2 MSTORE SWAP1 SWAP2 KECCAK256 SLOAD PUSH2 0xD09 SWAP2 SWAP1 PUSH2 0x3615 JUMP JUMPDEST CALLER PUSH1 0x0 SWAP1 DUP2 MSTORE PUSH1 0x2 PUSH1 0x20 MSTORE PUSH1 0x40 SWAP1 KECCAK256 SSTORE POP POP JUMP JUMPDEST PUSH1 0xC DUP2 DUP2 SLOAD DUP2 LT PUSH2 0xD2D JUMPI PUSH1 0x0 DUP1 REVERT JUMPDEST PUSH1 0x0 SWAP2 DUP3 MSTORE PUSH1 0x20 SWAP1 SWAP2 KECCAK256 PUSH1 0x4 SWAP1 SWAP2 MUL ADD DUP1 SLOAD PUSH1 0x1 DUP3 ADD SLOAD PUSH1 0x2 SWAP1 SWAP3 ADD SLOAD SWAP1 SWAP3 POP DUP4 JUMP JUMPDEST CALLER PUSH2 0xD5C PUSH1 0xA TIMESTAMP PUSH2 0x3615 JUMP JUMPDEST PUSH1 0xC PUSH1 0xD SLOAD DUP2 SLOAD DUP2 LT PUSH2 0xD71 JUMPI PUSH2 0xD71 PUSH2 0x362C JUMP JUMPDEST SWAP1 PUSH1 0x0 MSTORE PUSH1 0x20 PUSH1 0x0 KECCAK256 SWAP1 PUSH1 0x4 MUL ADD PUSH1 0x1 ADD SLOAD GT PUSH2 0xDA0 JUMPI PUSH1 0x40 MLOAD PUSH3 0x461BCD PUSH1 0xE5 SHL DUP2 MSTORE PUSH1 0x4 ADD PUSH2 0x8CC SWAP1 PUSH2 0x3642 JUMP JUMPDEST PUSH1 0x2 PUSH1 0x1 PUSH1 0x1 PUSH1 0xA0 SHL SUB DUP3 AND PUSH1 0x0 SWAP1 DUP2 MSTORE PUSH1 0xB PUSH1 0x20 SWAP1 DUP2 MSTORE PUSH1 0x40 DUP1 DUP4 KECCAK256 PUSH1 0xD SLOAD DUP5 MSTORE SWAP1 SWAP2 MSTORE SWAP1 KECCAK256 PUSH1 0x1 ADD SLOAD PUSH1 0xFF AND PUSH1 0x3 DUP2 GT ISZERO PUSH2 0xDDF JUMPI PUSH2 0xDDF PUSH2 0x336A JUMP JUMPDEST EQ ISZERO PUSH2 0xE2D JUMPI PUSH1 0x40 MLOAD PUSH3 0x461BCD PUSH1 0xE5 SHL DUP2 MSTORE PUSH1 0x20 PUSH1 0x4 DUP3 ADD MSTORE PUSH1 0x1B PUSH1 0x24 DUP3 ADD MSTORE PUSH32 0x73656C6C6572206F66206F7074696F6E2063616E6E6F74206275790000000000 PUSH1 0x44 DUP3 ADD MSTORE PUSH1 0x64 ADD PUSH2 0x8CC JUMP JUMPDEST PUSH1 0x64 DUP3 LT ISZERO PUSH2 0xE6F JUMPI PUSH1 0x40 MLOAD PUSH3 0x461BCD PUSH1 0xE5 SHL DUP2 MSTORE PUSH1 0x20 PUSH1 0x4 DUP3 ADD MSTORE PUSH1 0xE PUSH1 0x24 DUP3 ADD MSTORE PUSH14 0x4D696E2073697A65203D2031303 PUSH1 0x94 SHL PUSH1 0x44 DUP3 ADD MSTORE PUSH1 0x64 ADD PUSH2 0x8CC JUMP JUMPDEST PUSH1 0x1 PUSH1 0x1 PUSH1 0xA0 SHL SUB DUP2 AND PUSH1 0x0 SWAP1 DUP2 MSTORE PUSH1 0x9 PUSH1 0x20 MSTORE PUSH1 0x40 SWAP1 KECCAK256 SLOAD DUP3 GT ISZERO PUSH2 0xEC9 JUMPI PUSH1 0x40 MLOAD PUSH3 0x461BCD PUSH1 0xE5 SHL DUP2 MSTORE PUSH1 0x20 PUSH1 0x4 DUP3 ADD MSTORE PUSH1 0xF PUSH1 0x24 DUP3 ADD MSTORE PUSH15 0xDCDEE840CADCDEEACED040C6C2E6D PUSH1 0x8B SHL PUSH1 0x44 DUP3 ADD MSTORE PUSH1 0x64 ADD PUSH2 0x8CC JUMP JUMPDEST PUSH1 0x1 PUSH1 0x1 PUSH1 0xA0 SHL SUB DUP2 AND PUSH1 0x0 SWAP1 DUP2 MSTORE PUSH1 0xB PUSH1 0x20 SWAP1 DUP2 MSTORE PUSH1 0x40 DUP1 DUP4 KECCAK256 PUSH1 0xD DUP1 SLOAD DUP6 MSTORE SWAP3 MSTORE DUP1 DUP4 KECCAK256 PUSH1 0x1 SWAP1 DUP2 ADD DUP1 SLOAD PUSH1 0xFF NOT AND SWAP1 SWAP2 OR SWAP1 SSTORE SWAP1 SLOAD DUP3 MSTORE DUP2 KECCAK256 PUSH1 0x2 ADD DUP1 SLOAD DUP5 SWAP3 SWAP1 PUSH2 0xF18 SWAP1 DUP5 SWAP1 PUSH2 0x3497 JUMP JUMPDEST SWAP1 SWAP2 SSTORE POP POP PUSH1 0x1 PUSH1 0x1 PUSH1 0xA0 SHL SUB DUP2 AND PUSH1 0x0 SWAP1 DUP2 MSTORE PUSH1 0x9 PUSH1 0x20 MSTORE PUSH1 0x40 DUP2 KECCAK256 DUP1 SLOAD DUP5 SWAP3 SWAP1 PUSH2 0xF45 SWAP1 DUP5 SWAP1 PUSH2 0x3615 JUMP JUMPDEST SWAP3 POP POP DUP2 SWAP1 SSTORE POP PUSH1 0x0 DUP4 PUSH1 0xC PUSH1 0xD SLOAD DUP2 SLOAD DUP2 LT PUSH2 0xF64 JUMPI PUSH2 0xF64 PUSH2 0x362C JUMP JUMPDEST SWAP1 PUSH1 0x0 MSTORE PUSH1 0x20 PUSH1 0x0 KECCAK256 SWAP1 PUSH1 0x4 MUL ADD PUSH1 0x0 ADD SLOAD DUP5 PUSH2 0xF81 SWAP2 SWAP1 PUSH2 0x34AF JUMP JUMPDEST PUSH2 0xF8B SWAP2 SWAP1 PUSH2 0x35F3 JUMP JUMPDEST SWAP1 POP DUP1 PUSH1 0xC PUSH1 0xD SLOAD DUP2 SLOAD DUP2 LT PUSH2 0xFA3 JUMPI PUSH2 0xFA3 PUSH2 0x362C JUMP JUMPDEST SWAP1 PUSH1 0x0 MSTORE PUSH1 0x20 PUSH1 0x0 KECCAK256 SWAP1 PUSH1 0x4 MUL ADD PUSH1 0x2 ADD PUSH1 0x0 DUP3 DUP3 SLOAD PUSH2 0xFC3 SWAP2 SWAP1 PUSH2 0x3497 JUMP JUMPDEST SWAP1 SWAP2 SSTORE POP POP PUSH1 0xD DUP1 SLOAD PUSH1 0x0 SWAP1 DUP2 MSTORE PUSH1 0xA PUSH1 0x20 SWAP1 DUP2 MSTORE PUSH1 0x40 DUP1 DUP4 KECCAK256 DUP2 MLOAD PUSH1 0x60 DUP2 ADD DUP4 MSTORE DUP10 DUP2 MSTORE DUP1 DUP5 ADD DUP8 DUP2 MSTORE PUSH1 0x1 PUSH1 0x1 PUSH1 0xA0 SHL SUB DUP10 DUP2 AND SWAP5 DUP4 ADD SWAP5 DUP6 MSTORE DUP4 SLOAD PUSH1 0x1 DUP1 DUP3 ADD DUP7 SSTORE SWAP5 DUP9 MSTORE SWAP6 SWAP1 SWAP7 KECCAK256 SWAP2 MLOAD PUSH1 0x3 SWAP1 SWAP6 MUL SWAP1 SWAP2 ADD SWAP4 DUP5 SSTORE MLOAD SWAP1 DUP4 ADD SSTORE MLOAD PUSH1 0x2 SWAP1 SWAP2 ADD DUP1 SLOAD PUSH1 0x1 PUSH1 0x1 PUSH1 0xA0 SHL SUB NOT AND SWAP2 SWAP1 SWAP3 AND OR SWAP1 SSTORE SLOAD PUSH1 0xC DUP1 SLOAD SWAP1 SWAP2 SWAP1 DUP2 LT PUSH2 0x1050 JUMPI PUSH2 0x1050 PUSH2 0x362C JUMP JUMPDEST PUSH1 0x0 SWAP2 DUP3 MSTORE PUSH1 0x20 SWAP1 SWAP2 KECCAK256 PUSH1 0x3 PUSH1 0x4 SWAP1 SWAP3 MUL ADD ADD SLOAD PUSH2 0x10CE JUMPI PUSH1 0xC PUSH1 0xD SLOAD DUP2 SLOAD DUP2 LT PUSH2 0x107D JUMPI PUSH2 0x107D PUSH2 0x362C JUMP JUMPDEST SWAP1 PUSH1 0x0 MSTORE PUSH1 0x20 PUSH1 0x0 KECCAK256 SWAP1 PUSH1 0x4 MUL ADD PUSH1 0x3 ADD PUSH1 0x1 PUSH1 0xA PUSH1 0x0 PUSH1 0xD SLOAD DUP2 MSTORE PUSH1 0x20 ADD SWAP1 DUP2 MSTORE PUSH1 0x20 ADD PUSH1 0x0 KECCAK256 DUP1 SLOAD SWAP1 POP PUSH2 0x10B3 SWAP2 SWAP1 PUSH2 0x3615 JUMP JUMPDEST DUP2 SLOAD PUSH1 0x1 DUP2 ADD DUP4 SSTORE PUSH1 0x0 SWAP3 DUP4 MSTORE PUSH1 0x20 SWAP1 SWAP3 KECCAK256 SWAP1 SWAP2 ADD SSTORE PUSH2 0x10D7 JUMP JUMPDEST PUSH2 0x10D7 DUP5 PUSH2 0x2F08 JUMP JUMPDEST POP POP POP POP JUMP JUMPDEST PUSH1 0x5 DUP2 DUP2 SLOAD DUP2 LT PUSH2 0x10ED JUMPI PUSH1 0x0 DUP1 REVERT JUMPDEST PUSH1 0x0 SWAP2 DUP3 MSTORE PUSH1 0x20 SWAP1 SWAP2 KECCAK256 ADD SLOAD PUSH1 0x1 PUSH1 0x1 PUSH1 0xA0 SHL SUB AND SWAP1 POP DUP2 JUMP JUMPDEST PUSH1 0x0 SLOAD PUSH1 0x1 PUSH1 0x1 PUSH1 0xA0 SHL SUB AND CALLER EQ PUSH2 0x1131 JUMPI PUSH1 0x40 MLOAD PUSH3 0x461BCD PUSH1 0xE5 SHL DUP2 MSTORE PUSH1 0x4 ADD PUSH2 0x8CC SWAP1 PUSH2 0x34CE JUMP JUMPDEST PUSH1 0x0 JUMPDEST PUSH1 0x4 SLOAD DUP2 LT ISZERO PUSH2 0x1201 JUMPI PUSH1 0x0 PUSH1 0x4 DUP3 DUP2 SLOAD DUP2 LT PUSH2 0x1153 JUMPI PUSH2 0x1153 PUSH2 0x362C JUMP JUMPDEST PUSH1 0x0 SWAP2 DUP3 MSTORE PUSH1 0x20 DUP3 KECCAK256 ADD SLOAD PUSH1 0x1 PUSH1 0x1 PUSH1 0xA0 SHL SUB AND SWAP2 POP PUSH2 0x1172 DUP3 PUSH2 0x2394 JUMP JUMPDEST PUSH1 0x6 SLOAD PUSH1 0x40 MLOAD PUSH4 0xA9059CBB PUSH1 0xE0 SHL DUP2 MSTORE PUSH1 0x1 PUSH1 0x1 PUSH1 0xA0 SHL SUB DUP6 DUP2 AND PUSH1 0x4 DUP4 ADD MSTORE PUSH1 0x24 DUP3 ADD DUP5 SWAP1 MSTORE SWAP3 SWAP4 POP SWAP2 AND SWAP1 PUSH4 0xA9059CBB SWAP1 PUSH1 0x44 ADD PUSH1 0x20 PUSH1 0x40 MLOAD DUP1 DUP4 SUB DUP2 PUSH1 0x0 DUP8 GAS CALL ISZERO DUP1 ISZERO PUSH2 0x11C7 JUMPI RETURNDATASIZE PUSH1 0x0 DUP1 RETURNDATACOPY RETURNDATASIZE PUSH1 0x0 REVERT JUMPDEST POP POP POP POP PUSH1 0x40 MLOAD RETURNDATASIZE PUSH1 0x1F NOT PUSH1 0x1F DUP3 ADD AND DUP3 ADD DUP1 PUSH1 0x40 MSTORE POP DUP2 ADD SWAP1 PUSH2 0x11EB SWAP2 SWAP1 PUSH2 0x345F JUMP JUMPDEST POP POP POP DUP1 DUP1 PUSH2 0x11F9 SWAP1 PUSH2 0x3688 JUMP JUMPDEST SWAP2 POP POP PUSH2 0x1134 JUMP JUMPDEST POP JUMP JUMPDEST PUSH1 0x11 SLOAD PUSH1 0x0 SWAP1 DUP2 SWAP1 PUSH2 0x121E SWAP1 PUSH1 0x1 PUSH1 0x1 PUSH1 0xA0 SHL SUB AND PUSH2 0x2CF3 JUMP JUMPDEST SWAP1 SWAP3 POP SWAP1 POP PUSH2 0x1232 DUP3 PUSH5 0x2540BE400 PUSH2 0x34AF JUMP JUMPDEST PUSH1 0x7 SSTORE POP POP JUMP JUMPDEST PUSH1 0x0 PUSH1 0xC PUSH1 0xD SLOAD DUP2 SLOAD DUP2 LT PUSH2 0x1250 JUMPI PUSH2 0x1250 PUSH2 0x362C JUMP JUMPDEST SWAP1 PUSH1 0x0 MSTORE PUSH1 0x20 PUSH1 0x0 KECCAK256 SWAP1 PUSH1 0x4 MUL ADD PUSH1 0x2 ADD SLOAD SWAP1 POP SWAP1 JUMP JUMPDEST PUSH1 0x0 CALLER SWAP1 POP PUSH1 0x0 PUSH1 0xC PUSH1 0xD SLOAD DUP2 SLOAD DUP2 LT PUSH2 0x1283 JUMPI PUSH2 0x1283 PUSH2 0x362C JUMP JUMPDEST SWAP1 PUSH1 0x0 MSTORE PUSH1 0x20 PUSH1 0x0 KECCAK256 SWAP1 PUSH1 0x4 MUL ADD PUSH1 0x3 ADD DUP1 SLOAD SWAP1 POP GT PUSH2 0x12E5 JUMPI PUSH1 0x40 MLOAD PUSH3 0x461BCD PUSH1 0xE5 SHL DUP2 MSTORE PUSH1 0x20 PUSH1 0x4 DUP3 ADD MSTORE PUSH1 0x1E PUSH1 0x24 DUP3 ADD MSTORE PUSH32 0x63616E6E6F742073656C6C206966207468657265206973206E6F206269640000 PUSH1 0x44 DUP3 ADD MSTORE PUSH1 0x64 ADD PUSH2 0x8CC JUMP JUMPDEST PUSH2 0x12F0 PUSH1 0xA TIMESTAMP PUSH2 0x3615 JUMP JUMPDEST PUSH1 0xC PUSH1 0xD SLOAD DUP2 SLOAD DUP2 LT PUSH2 0x1305 JUMPI PUSH2 0x1305 PUSH2 0x362C JUMP JUMPDEST SWAP1 PUSH1 0x0 MSTORE PUSH1 0x20 PUSH1 0x0 KECCAK256 SWAP1 PUSH1 0x4 MUL ADD PUSH1 0x1 ADD SLOAD GT PUSH2 0x1334 JUMPI PUSH1 0x40 MLOAD PUSH3 0x461BCD PUSH1 0xE5 SHL DUP2 MSTORE PUSH1 0x4 ADD PUSH2 0x8CC SWAP1 PUSH2 0x3642 JUMP JUMPDEST PUSH1 0x1 PUSH1 0x1 PUSH1 0x1 PUSH1 0xA0 SHL SUB DUP3 AND PUSH1 0x0 SWAP1 DUP2 MSTORE PUSH1 0xB PUSH1 0x20 SWAP1 DUP2 MSTORE PUSH1 0x40 DUP1 DUP4 KECCAK256 PUSH1 0xD SLOAD DUP5 MSTORE SWAP1 SWAP2 MSTORE SWAP1 KECCAK256 PUSH1 0x1 ADD SLOAD PUSH1 0xFF AND PUSH1 0x3 DUP2 GT ISZERO PUSH2 0x1373 JUMPI PUSH2 0x1373 PUSH2 0x336A JUMP JUMPDEST EQ ISZERO PUSH2 0x13C1 JUMPI PUSH1 0x40 MLOAD PUSH3 0x461BCD PUSH1 0xE5 SHL DUP2 MSTORE PUSH1 0x20 PUSH1 0x4 DUP3 ADD MSTORE PUSH1 0x1B PUSH1 0x24 DUP3 ADD MSTORE PUSH32 0x6275796572206F66206F7074696F6E2063616E6E6F742073656C6C0000000000 PUSH1 0x44 DUP3 ADD MSTORE PUSH1 0x64 ADD PUSH2 0x8CC JUMP JUMPDEST PUSH2 0x3E8 DUP3 LT ISZERO PUSH2 0x1405 JUMPI PUSH1 0x40 MLOAD PUSH3 0x461BCD PUSH1 0xE5 SHL DUP2 MSTORE PUSH1 0x20 PUSH1 0x4 DUP3 ADD MSTORE PUSH1 0xF PUSH1 0x24 DUP3 ADD MSTORE PUSH15 0x4D696E2073697A65203D203130303 PUSH1 0x8C SHL PUSH1 0x44 DUP3 ADD MSTORE PUSH1 0x64 ADD PUSH2 0x8CC JUMP JUMPDEST PUSH1 0xC PUSH1 0xD SLOAD DUP2 SLOAD DUP2 LT PUSH2 0x141A JUMPI PUSH2 0x141A PUSH2 0x362C JUMP JUMPDEST SWAP1 PUSH1 0x0 MSTORE PUSH1 0x20 PUSH1 0x0 KECCAK256 SWAP1 PUSH1 0x4 MUL ADD PUSH1 0x2 ADD SLOAD DUP3 GT ISZERO PUSH2 0x1468 JUMPI PUSH1 0x40 MLOAD PUSH3 0x461BCD PUSH1 0xE5 SHL DUP2 MSTORE PUSH1 0x20 PUSH1 0x4 DUP3 ADD MSTORE PUSH1 0xA PUSH1 0x24 DUP3 ADD MSTORE PUSH10 0x6C6F7720737570706C79 PUSH1 0xB0 SHL PUSH1 0x44 DUP3 ADD MSTORE PUSH1 0x64 ADD PUSH2 0x8CC JUMP JUMPDEST PUSH1 0x1 PUSH1 0x1 PUSH1 0xA0 SHL SUB DUP2 AND PUSH1 0x0 SWAP1 DUP2 MSTORE PUSH1 0x9 PUSH1 0x20 MSTORE PUSH1 0x40 SWAP1 KECCAK256 SLOAD DUP3 GT ISZERO PUSH2 0x14C2 JUMPI PUSH1 0x40 MLOAD PUSH3 0x461BCD PUSH1 0xE5 SHL DUP2 MSTORE PUSH1 0x20 PUSH1 0x4 DUP3 ADD MSTORE PUSH1 0xF PUSH1 0x24 DUP3 ADD MSTORE PUSH15 0xDCDEE840CADCDEEACED040C6C2E6D PUSH1 0x8B SHL PUSH1 0x44 DUP3 ADD MSTORE PUSH1 0x64 ADD PUSH2 0x8CC JUMP JUMPDEST PUSH1 0x1 PUSH1 0x1 PUSH1 0xA0 SHL SUB DUP2 AND PUSH1 0x0 SWAP1 DUP2 MSTORE PUSH1 0x9 PUSH1 0x20 MSTORE PUSH1 0x40 DUP2 KECCAK256 DUP1 SLOAD DUP5 SWAP3 SWAP1 PUSH2 0x14EA SWAP1 DUP5 SWAP1 PUSH2 0x3615 JUMP JUMPDEST SWAP3 POP POP DUP2 SWAP1 SSTORE POP PUSH1 0x0 DUP3 SWAP1 POP PUSH1 0x0 DUP1 DUP1 PUSH1 0x1 PUSH1 0xC PUSH1 0xD SLOAD DUP2 SLOAD DUP2 LT PUSH2 0x1511 JUMPI PUSH2 0x1511 PUSH2 0x362C JUMP JUMPDEST SWAP1 PUSH1 0x0 MSTORE PUSH1 0x20 PUSH1 0x0 KECCAK256 SWAP1 PUSH1 0x4 MUL ADD PUSH1 0x3 ADD DUP1 SLOAD SWAP1 POP PUSH2 0x1530 SWAP2 SWAP1 PUSH2 0x3615 JUMP JUMPDEST SWAP1 POP JUMPDEST DUP4 ISZERO PUSH2 0x1D07 JUMPI PUSH1 0xD SLOAD PUSH1 0x0 DUP2 DUP2 MSTORE PUSH1 0xA PUSH1 0x20 MSTORE PUSH1 0x40 SWAP1 KECCAK256 PUSH1 0xC DUP1 SLOAD SWAP2 SWAP3 SWAP1 SWAP2 DUP2 LT PUSH2 0x1560 JUMPI PUSH2 0x1560 PUSH2 0x362C JUMP JUMPDEST SWAP1 PUSH1 0x0 MSTORE PUSH1 0x20 PUSH1 0x0 KECCAK256 SWAP1 PUSH1 0x4 MUL ADD PUSH1 0x3 ADD DUP3 DUP2 SLOAD DUP2 LT PUSH2 0x1582 JUMPI PUSH2 0x1582 PUSH2 0x362C JUMP JUMPDEST SWAP1 PUSH1 0x0 MSTORE PUSH1 0x20 PUSH1 0x0 KECCAK256 ADD SLOAD DUP2 SLOAD DUP2 LT PUSH2 0x159D JUMPI PUSH2 0x159D PUSH2 0x362C JUMP JUMPDEST SWAP1 PUSH1 0x0 MSTORE PUSH1 0x20 PUSH1 0x0 KECCAK256 SWAP1 PUSH1 0x3 MUL ADD PUSH1 0x1 ADD SLOAD SWAP2 POP DUP2 DUP5 LT PUSH2 0x197D JUMPI PUSH1 0xD SLOAD PUSH1 0x0 DUP2 DUP2 MSTORE PUSH1 0xA PUSH1 0x20 MSTORE PUSH1 0x40 DUP2 KECCAK256 PUSH1 0xC DUP1 SLOAD DUP7 SWAP5 PUSH1 0xB SWAP5 SWAP4 SWAP3 SWAP2 DUP2 LT PUSH2 0x15E3 JUMPI PUSH2 0x15E3 PUSH2 0x362C JUMP JUMPDEST SWAP1 PUSH1 0x0 MSTORE PUSH1 0x20 PUSH1 0x0 KECCAK256 SWAP1 PUSH1 0x4 MUL ADD PUSH1 0x3 ADD DUP6 DUP2 SLOAD DUP2 LT PUSH2 0x1605 JUMPI PUSH2 0x1605 PUSH2 0x362C JUMP JUMPDEST SWAP1 PUSH1 0x0 MSTORE PUSH1 0x20 PUSH1 0x0 KECCAK256 ADD SLOAD DUP2 SLOAD DUP2 LT PUSH2 0x1620 JUMPI PUSH2 0x1620 PUSH2 0x362C JUMP JUMPDEST PUSH1 0x0 SWAP2 DUP3 MSTORE PUSH1 0x20 DUP1 DUP4 KECCAK256 PUSH1 0x2 PUSH1 0x3 SWAP1 SWAP4 MUL ADD SWAP2 SWAP1 SWAP2 ADD SLOAD PUSH1 0x1 PUSH1 0x1 PUSH1 0xA0 SHL SUB AND DUP4 MSTORE DUP3 DUP2 ADD SWAP4 SWAP1 SWAP4 MSTORE PUSH1 0x40 SWAP2 DUP3 ADD DUP2 KECCAK256 PUSH1 0xD SLOAD DUP3 MSTORE SWAP1 SWAP3 MSTORE DUP2 KECCAK256 DUP1 SLOAD SWAP1 SWAP2 SWAP1 PUSH2 0x166A SWAP1 DUP5 SWAP1 PUSH2 0x3497 JUMP JUMPDEST SWAP3 POP POP DUP2 SWAP1 SSTORE POP PUSH1 0xC PUSH1 0xD SLOAD DUP2 SLOAD DUP2 LT PUSH2 0x1686 JUMPI PUSH2 0x1686 PUSH2 0x362C JUMP JUMPDEST SWAP1 PUSH1 0x0 MSTORE PUSH1 0x20 PUSH1 0x0 KECCAK256 SWAP1 PUSH1 0x4 MUL ADD PUSH1 0x0 ADD SLOAD PUSH1 0xA PUSH1 0x0 PUSH1 0xD SLOAD DUP2 MSTORE PUSH1 0x20 ADD SWAP1 DUP2 MSTORE PUSH1 0x20 ADD PUSH1 0x0 KECCAK256 PUSH1 0xC PUSH1 0xD SLOAD DUP2 SLOAD DUP2 LT PUSH2 0x16C2 JUMPI PUSH2 0x16C2 PUSH2 0x362C JUMP JUMPDEST SWAP1 PUSH1 0x0 MSTORE PUSH1 0x20 PUSH1 0x0 KECCAK256 SWAP1 PUSH1 0x4 MUL ADD PUSH1 0x3 ADD DUP4 DUP2 SLOAD DUP2 LT PUSH2 0x16E4 JUMPI PUSH2 0x16E4 PUSH2 0x362C JUMP JUMPDEST SWAP1 PUSH1 0x0 MSTORE PUSH1 0x20 PUSH1 0x0 KECCAK256 ADD SLOAD DUP2 SLOAD DUP2 LT PUSH2 0x16FF JUMPI PUSH2 0x16FF PUSH2 0x362C JUMP JUMPDEST SWAP1 PUSH1 0x0 MSTORE PUSH1 0x20 PUSH1 0x0 KECCAK256 SWAP1 PUSH1 0x3 MUL ADD PUSH1 0x0 ADD SLOAD DUP4 PUSH2 0x171C SWAP2 SWAP1 PUSH2 0x34AF JUMP JUMPDEST PUSH2 0x1726 SWAP2 SWAP1 PUSH2 0x35F3 JUMP JUMPDEST PUSH1 0xD SLOAD PUSH1 0x0 DUP2 DUP2 MSTORE PUSH1 0xA PUSH1 0x20 MSTORE PUSH1 0x40 DUP2 KECCAK256 PUSH1 0xC DUP1 SLOAD PUSH1 0xB SWAP5 SWAP1 DUP2 LT PUSH2 0x174D JUMPI PUSH2 0x174D PUSH2 0x362C JUMP JUMPDEST SWAP1 PUSH1 0x0 MSTORE PUSH1 0x20 PUSH1 0x0 KECCAK256 SWAP1 PUSH1 0x4 MUL ADD PUSH1 0x3 ADD DUP6 DUP2 SLOAD DUP2 LT PUSH2 0x176F JUMPI PUSH2 0x176F PUSH2 0x362C JUMP JUMPDEST SWAP1 PUSH1 0x0 MSTORE PUSH1 0x20 PUSH1 0x0 KECCAK256 ADD SLOAD DUP2 SLOAD DUP2 LT PUSH2 0x178A JUMPI PUSH2 0x178A PUSH2 0x362C JUMP JUMPDEST PUSH1 0x0 SWAP2 DUP3 MSTORE PUSH1 0x20 DUP1 DUP4 KECCAK256 PUSH1 0x2 PUSH1 0x3 SWAP1 SWAP4 MUL ADD DUP3 ADD SLOAD PUSH1 0x1 PUSH1 0x1 PUSH1 0xA0 SHL SUB AND DUP5 MSTORE DUP4 DUP2 ADD SWAP5 SWAP1 SWAP5 MSTORE PUSH1 0x40 SWAP3 DUP4 ADD DUP3 KECCAK256 PUSH1 0xD SLOAD DUP4 MSTORE SWAP1 SWAP4 MSTORE SWAP1 DUP2 KECCAK256 SWAP1 SWAP2 ADD DUP1 SLOAD SWAP1 SWAP2 SWAP1 PUSH2 0x17D6 SWAP1 DUP5 SWAP1 PUSH2 0x3615 JUMP JUMPDEST SWAP1 SWAP2 SSTORE POP POP PUSH1 0xD SLOAD PUSH1 0x0 DUP2 DUP2 MSTORE PUSH1 0xA PUSH1 0x20 MSTORE PUSH1 0x40 SWAP1 KECCAK256 PUSH1 0xC DUP1 SLOAD SWAP2 SWAP3 SWAP1 SWAP2 DUP2 LT PUSH2 0x1802 JUMPI PUSH2 0x1802 PUSH2 0x362C JUMP JUMPDEST SWAP1 PUSH1 0x0 MSTORE PUSH1 0x20 PUSH1 0x0 KECCAK256 SWAP1 PUSH1 0x4 MUL ADD PUSH1 0x3 ADD DUP3 DUP2 SLOAD DUP2 LT PUSH2 0x1824 JUMPI PUSH2 0x1824 PUSH2 0x362C JUMP JUMPDEST SWAP1 PUSH1 0x0 MSTORE PUSH1 0x20 PUSH1 0x0 KECCAK256 ADD SLOAD DUP2 SLOAD DUP2 LT PUSH2 0x183F JUMPI PUSH2 0x183F PUSH2 0x362C JUMP JUMPDEST SWAP1 PUSH1 0x0 MSTORE PUSH1 0x20 PUSH1 0x0 KECCAK256 SWAP1 PUSH1 0x3 MUL ADD PUSH1 0x0 ADD SLOAD DUP3 PUSH2 0x185C SWAP2 SWAP1 PUSH2 0x34AF JUMP JUMPDEST PUSH2 0x1866 SWAP1 DUP5 PUSH2 0x3497 JUMP JUMPDEST SWAP3 POP DUP2 PUSH1 0xC PUSH1 0xD SLOAD DUP2 SLOAD DUP2 LT PUSH2 0x187E JUMPI PUSH2 0x187E PUSH2 0x362C JUMP JUMPDEST SWAP1 PUSH1 0x0 MSTORE PUSH1 0x20 PUSH1 0x0 KECCAK256 SWAP1 PUSH1 0x4 MUL ADD PUSH1 0x2 ADD PUSH1 0x0 DUP3 DUP3 SLOAD PUSH2 0x189E SWAP2 SWAP1 PUSH2 0x3615 JUMP JUMPDEST SWAP1 SWAP2 SSTORE POP POP PUSH1 0xD SLOAD PUSH1 0x0 DUP2 DUP2 MSTORE PUSH1 0xA PUSH1 0x20 MSTORE PUSH1 0x40 DUP2 KECCAK256 PUSH1 0xC DUP1 SLOAD SWAP3 SWAP4 SWAP2 SWAP3 SWAP1 SWAP2 SWAP1 DUP2 LT PUSH2 0x18CD JUMPI PUSH2 0x18CD PUSH2 0x362C JUMP JUMPDEST SWAP1 PUSH1 0x0 MSTORE PUSH1 0x20 PUSH1 0x0 KECCAK256 SWAP1 PUSH1 0x4 MUL ADD PUSH1 0x3 ADD DUP4 DUP2 SLOAD DUP2 LT PUSH2 0x18EF JUMPI PUSH2 0x18EF PUSH2 0x362C JUMP JUMPDEST SWAP1 PUSH1 0x0 MSTORE PUSH1 0x20 PUSH1 0x0 KECCAK256 ADD SLOAD DUP2 SLOAD DUP2 LT PUSH2 0x190A JUMPI PUSH2 0x190A PUSH2 0x362C JUMP JUMPDEST SWAP1 PUSH1 0x0 MSTORE PUSH1 0x20 PUSH1 0x0 KECCAK256 SWAP1 PUSH1 0x3 MUL ADD PUSH1 0x1 ADD DUP2 SWAP1 SSTORE POP PUSH1 0xC PUSH1 0xD SLOAD DUP2 SLOAD DUP2 LT PUSH2 0x1934 JUMPI PUSH2 0x1934 PUSH2 0x362C JUMP JUMPDEST SWAP1 PUSH1 0x0 MSTORE PUSH1 0x20 PUSH1 0x0 KECCAK256 SWAP1 PUSH1 0x4 MUL ADD PUSH1 0x3 ADD DUP1 SLOAD DUP1 PUSH2 0x1954 JUMPI PUSH2 0x1954 PUSH2 0x36A3 JUMP JUMPDEST PUSH1 0x1 SWAP1 SUB DUP2 DUP2 SWAP1 PUSH1 0x0 MSTORE PUSH1 0x20 PUSH1 0x0 KECCAK256 ADD PUSH1 0x0 SWAP1 SSTORE SWAP1 SSTORE DUP2 DUP5 PUSH2 0x1976 SWAP2 SWAP1 PUSH2 0x3615 JUMP JUMPDEST SWAP4 POP PUSH2 0x1CF5 JUMP JUMPDEST PUSH1 0xD SLOAD PUSH1 0x0 DUP2 DUP2 MSTORE PUSH1 0xA PUSH1 0x20 MSTORE PUSH1 0x40 DUP2 KECCAK256 PUSH1 0xC DUP1 SLOAD DUP9 SWAP5 PUSH1 0xB SWAP5 SWAP4 SWAP3 SWAP2 DUP2 LT PUSH2 0x19A8 JUMPI PUSH2 0x19A8 PUSH2 0x362C JUMP JUMPDEST SWAP1 PUSH1 0x0 MSTORE PUSH1 0x20 PUSH1 0x0 KECCAK256 SWAP1 PUSH1 0x4 MUL ADD PUSH1 0x3 ADD DUP6 DUP2 SLOAD DUP2 LT PUSH2 0x19CA JUMPI PUSH2 0x19CA PUSH2 0x362C JUMP JUMPDEST SWAP1 PUSH1 0x0 MSTORE PUSH1 0x20 PUSH1 0x0 KECCAK256 ADD SLOAD DUP2 SLOAD DUP2 LT PUSH2 0x19E5 JUMPI PUSH2 0x19E5 PUSH2 0x362C JUMP JUMPDEST PUSH1 0x0 SWAP2 DUP3 MSTORE PUSH1 0x20 DUP1 DUP4 KECCAK256 PUSH1 0x2 PUSH1 0x3 SWAP1 SWAP4 MUL ADD SWAP2 SWAP1 SWAP2 ADD SLOAD PUSH1 0x1 PUSH1 0x1 PUSH1 0xA0 SHL SUB AND DUP4 MSTORE DUP3 DUP2 ADD SWAP4 SWAP1 SWAP4 MSTORE PUSH1 0x40 SWAP2 DUP3 ADD DUP2 KECCAK256 PUSH1 0xD SLOAD DUP3 MSTORE SWAP1 SWAP3 MSTORE DUP2 KECCAK256 DUP1 SLOAD SWAP1 SWAP2 SWAP1 PUSH2 0x1A2F SWAP1 DUP5 SWAP1 PUSH2 0x3497 JUMP JUMPDEST SWAP3 POP POP DUP2 SWAP1 SSTORE POP PUSH1 0xC PUSH1 0xD SLOAD DUP2 SLOAD DUP2 LT PUSH2 0x1A4B JUMPI PUSH2 0x1A4B PUSH2 0x362C JUMP JUMPDEST SWAP1 PUSH1 0x0 MSTORE PUSH1 0x20 PUSH1 0x0 KECCAK256 SWAP1 PUSH1 0x4 MUL ADD PUSH1 0x0 ADD SLOAD PUSH1 0xA PUSH1 0x0 PUSH1 0xD SLOAD DUP2 MSTORE PUSH1 0x20 ADD SWAP1 DUP2 MSTORE PUSH1 0x20 ADD PUSH1 0x0 KECCAK256 PUSH1 0xC PUSH1 0xD SLOAD DUP2 SLOAD DUP2 LT PUSH2 0x1A87 JUMPI PUSH2 0x1A87 PUSH2 0x362C JUMP JUMPDEST SWAP1 PUSH1 0x0 MSTORE PUSH1 0x20 PUSH1 0x0 KECCAK256 SWAP1 PUSH1 0x4 MUL ADD PUSH1 0x3 ADD DUP4 DUP2 SLOAD DUP2 LT PUSH2 0x1AA9 JUMPI PUSH2 0x1AA9 PUSH2 0x362C JUMP JUMPDEST SWAP1 PUSH1 0x0 MSTORE PUSH1 0x20 PUSH1 0x0 KECCAK256 ADD SLOAD DUP2 SLOAD DUP2 LT PUSH2 0x1AC4 JUMPI PUSH2 0x1AC4 PUSH2 0x362C JUMP JUMPDEST SWAP1 PUSH1 0x0 MSTORE PUSH1 0x20 PUSH1 0x0 KECCAK256 SWAP1 PUSH1 0x3 MUL ADD PUSH1 0x0 ADD SLOAD DUP6 PUSH2 0x1AE1 SWAP2 SWAP1 PUSH2 0x34AF JUMP JUMPDEST PUSH2 0x1AEB SWAP2 SWAP1 PUSH2 0x35F3 JUMP JUMPDEST PUSH1 0xD SLOAD PUSH1 0x0 DUP2 DUP2 MSTORE PUSH1 0xA PUSH1 0x20 MSTORE PUSH1 0x40 DUP2 KECCAK256 PUSH1 0xC DUP1 SLOAD PUSH1 0xB SWAP5 SWAP1 DUP2 LT PUSH2 0x1B12 JUMPI PUSH2 0x1B12 PUSH2 0x362C JUMP JUMPDEST SWAP1 PUSH1 0x0 MSTORE PUSH1 0x20 PUSH1 0x0 KECCAK256 SWAP1 PUSH1 0x4 MUL ADD PUSH1 0x3 ADD DUP6 DUP2 SLOAD DUP2 LT PUSH2 0x1B34 JUMPI PUSH2 0x1B34 PUSH2 0x362C JUMP JUMPDEST SWAP1 PUSH1 0x0 MSTORE PUSH1 0x20 PUSH1 0x0 KECCAK256 ADD SLOAD DUP2 SLOAD DUP2 LT PUSH2 0x1B4F JUMPI PUSH2 0x1B4F PUSH2 0x362C JUMP JUMPDEST PUSH1 0x0 SWAP2 DUP3 MSTORE PUSH1 0x20 DUP1 DUP4 KECCAK256 PUSH1 0x2 PUSH1 0x3 SWAP1 SWAP4 MUL ADD DUP3 ADD SLOAD PUSH1 0x1 PUSH1 0x1 PUSH1 0xA0 SHL SUB AND DUP5 MSTORE DUP4 DUP2 ADD SWAP5 SWAP1 SWAP5 MSTORE PUSH1 0x40 SWAP3 DUP4 ADD DUP3 KECCAK256 PUSH1 0xD SLOAD DUP4 MSTORE SWAP1 SWAP4 MSTORE SWAP1 DUP2 KECCAK256 SWAP1 SWAP2 ADD DUP1 SLOAD SWAP1 SWAP2 SWAP1 PUSH2 0x1B9B SWAP1 DUP5 SWAP1 PUSH2 0x3615 JUMP JUMPDEST SWAP1 SWAP2 SSTORE POP POP PUSH1 0xD SLOAD PUSH1 0x0 DUP2 DUP2 MSTORE PUSH1 0xA PUSH1 0x20 MSTORE PUSH1 0x40 SWAP1 KECCAK256 PUSH1 0xC DUP1 SLOAD SWAP2 SWAP3 SWAP1 SWAP2 DUP2 LT PUSH2 0x1BC7 JUMPI PUSH2 0x1BC7 PUSH2 0x362C JUMP JUMPDEST SWAP1 PUSH1 0x0 MSTORE PUSH1 0x20 PUSH1 0x0 KECCAK256 SWAP1 PUSH1 0x4 MUL ADD PUSH1 0x3 ADD DUP3 DUP2 SLOAD DUP2 LT PUSH2 0x1BE9 JUMPI PUSH2 0x1BE9 PUSH2 0x362C JUMP JUMPDEST SWAP1 PUSH1 0x0 MSTORE PUSH1 0x20 PUSH1 0x0 KECCAK256 ADD SLOAD DUP2 SLOAD DUP2 LT PUSH2 0x1C04 JUMPI PUSH2 0x1C04 PUSH2 0x362C JUMP JUMPDEST SWAP1 PUSH1 0x0 MSTORE PUSH1 0x20 PUSH1 0x0 KECCAK256 SWAP1 PUSH1 0x3 MUL ADD PUSH1 0x0 ADD SLOAD DUP5 PUSH2 0x1C21 SWAP2 SWAP1 PUSH2 0x34AF JUMP JUMPDEST PUSH2 0x1C2B SWAP1 DUP5 PUSH2 0x3497 JUMP JUMPDEST SWAP3 POP DUP4 PUSH1 0xC PUSH1 0xD SLOAD DUP2 SLOAD DUP2 LT PUSH2 0x1C43 JUMPI PUSH2 0x1C43 PUSH2 0x362C JUMP JUMPDEST SWAP1 PUSH1 0x0 MSTORE PUSH1 0x20 PUSH1 0x0 KECCAK256 SWAP1 PUSH1 0x4 MUL ADD PUSH1 0x2 ADD PUSH1 0x0 DUP3 DUP3 SLOAD PUSH2 0x1C63 SWAP2 SWAP1 PUSH2 0x3615 JUMP JUMPDEST SWAP1 SWAP2 SSTORE POP POP PUSH1 0xD SLOAD PUSH1 0x0 DUP2 DUP2 MSTORE PUSH1 0xA PUSH1 0x20 MSTORE PUSH1 0x40 SWAP1 KECCAK256 PUSH1 0xC DUP1 SLOAD DUP8 SWAP4 SWAP1 DUP2 LT PUSH2 0x1C8E JUMPI PUSH2 0x1C8E PUSH2 0x362C JUMP JUMPDEST SWAP1 PUSH1 0x0 MSTORE PUSH1 0x20 PUSH1 0x0 KECCAK256 SWAP1 PUSH1 0x4 MUL ADD PUSH1 0x3 ADD DUP4 DUP2 SLOAD DUP2 LT PUSH2 0x1CB0 JUMPI PUSH2 0x1CB0 PUSH2 0x362C JUMP JUMPDEST SWAP1 PUSH1 0x0 MSTORE PUSH1 0x20 PUSH1 0x0 KECCAK256 ADD SLOAD DUP2 SLOAD DUP2 LT PUSH2 0x1CCB JUMPI PUSH2 0x1CCB PUSH2 0x362C JUMP JUMPDEST SWAP1 PUSH1 0x0 MSTORE PUSH1 0x20 PUSH1 0x0 KECCAK256 SWAP1 PUSH1 0x3 MUL ADD PUSH1 0x1 ADD PUSH1 0x0 DUP3 DUP3 SLOAD PUSH2 0x1CEB SWAP2 SWAP1 PUSH2 0x3615 JUMP JUMPDEST SWAP1 SWAP2 SSTORE POP PUSH1 0x0 SWAP5 POP POP JUMPDEST DUP1 PUSH2 0x1CFF DUP2 PUSH2 0x36B9 JUMP JUMPDEST SWAP2 POP POP PUSH2 0x1533 JUMP JUMPDEST PUSH2 0x1D0F PUSH2 0x1204 JUMP JUMPDEST PUSH1 0x7 SLOAD PUSH2 0x1D1C DUP2 DUP9 PUSH2 0x34AF JUMP JUMPDEST PUSH2 0x1D26 SWAP1 DUP6 PUSH2 0x3497 JUMP JUMPDEST PUSH2 0x1D30 SWAP2 SWAP1 PUSH2 0x35F3 JUMP JUMPDEST PUSH1 0x1 PUSH1 0x1 PUSH1 0xA0 SHL SUB DUP7 AND PUSH1 0x0 SWAP1 DUP2 MSTORE PUSH1 0xB PUSH1 0x20 SWAP1 DUP2 MSTORE PUSH1 0x40 DUP1 DUP4 KECCAK256 PUSH1 0xD SLOAD DUP5 MSTORE SWAP1 SWAP2 MSTORE DUP2 KECCAK256 DUP1 SLOAD SWAP1 SWAP2 SWAP1 PUSH2 0x1D65 SWAP1 DUP5 SWAP1 PUSH2 0x3497 JUMP JUMPDEST SWAP1 SWAP2 SSTORE POP POP POP POP PUSH1 0x1 PUSH1 0x1 PUSH1 0xA0 SHL SUB SWAP3 SWAP1 SWAP3 AND PUSH1 0x0 SWAP1 DUP2 MSTORE PUSH1 0xB PUSH1 0x20 SWAP1 DUP2 MSTORE PUSH1 0x40 DUP1 DUP4 KECCAK256 PUSH1 0xD SLOAD DUP5 MSTORE SWAP1 SWAP2 MSTORE SWAP1 KECCAK256 PUSH1 0x1 ADD DUP1 SLOAD PUSH1 0xFF NOT AND PUSH1 0x2 OR SWAP1 SSTORE POP POP POP JUMP JUMPDEST PUSH1 0x0 SLOAD PUSH1 0x1 PUSH1 0x1 PUSH1 0xA0 SHL SUB AND CALLER EQ PUSH2 0x1DD0 JUMPI PUSH1 0x40 MLOAD PUSH3 0x461BCD PUSH1 0xE5 SHL DUP2 MSTORE PUSH1 0x4 ADD PUSH2 0x8CC SWAP1 PUSH2 0x34CE JUMP JUMPDEST PUSH2 0x1DDA PUSH1 0x0 PUSH2 0x3286 JUMP JUMPDEST JUMP JUMPDEST PUSH1 0xA PUSH1 0x20 MSTORE DUP2 PUSH1 0x0 MSTORE PUSH1 0x40 PUSH1 0x0 KECCAK256 DUP2 DUP2 SLOAD DUP2 LT PUSH2 0x1DF8 JUMPI PUSH1 0x0 DUP1 REVERT JUMPDEST PUSH1 0x0 SWAP2 DUP3 MSTORE PUSH1 0x20 SWAP1 SWAP2 KECCAK256 PUSH1 0x3 SWAP1 SWAP2 MUL ADD DUP1 SLOAD PUSH1 0x1 DUP3 ADD SLOAD PUSH1 0x2 SWAP1 SWAP3 ADD SLOAD SWAP1 SWAP4 POP SWAP1 SWAP2 POP PUSH1 0x1 PUSH1 0x1 PUSH1 0xA0 SHL SUB AND DUP4 JUMP JUMPDEST PUSH1 0x0 PUSH1 0xC PUSH1 0xD SLOAD DUP2 SLOAD DUP2 LT PUSH2 0x1E3E JUMPI PUSH2 0x1E3E PUSH2 0x362C JUMP JUMPDEST PUSH1 0x0 SWAP2 DUP3 MSTORE PUSH1 0x20 DUP1 DUP4 KECCAK256 PUSH1 0x4 SWAP1 SWAP3 MUL SWAP1 SWAP2 ADD SLOAD PUSH1 0x1 PUSH1 0x1 PUSH1 0xA0 SHL SUB DUP6 AND DUP4 MSTORE PUSH1 0xB DUP3 MSTORE PUSH1 0x40 DUP1 DUP5 KECCAK256 PUSH1 0xD SLOAD DUP6 MSTORE SWAP1 SWAP3 MSTORE SWAP2 KECCAK256 SLOAD PUSH2 0xBB9 SWAP2 SWAP1 PUSH2 0x35F3 JUMP JUMPDEST PUSH1 0x0 TIMESTAMP PUSH1 0xC PUSH1 0xD SLOAD DUP2 SLOAD DUP2 LT PUSH2 0x1E93 JUMPI PUSH2 0x1E93 PUSH2 0x362C JUMP JUMPDEST SWAP1 PUSH1 0x0 MSTORE PUSH1 0x20 PUSH1 0x0 KECCAK256 SWAP1 PUSH1 0x4 MUL ADD PUSH1 0x1 ADD SLOAD PUSH2 0x1EAF SWAP2 SWAP1 PUSH2 0x3615 JUMP JUMPDEST SWAP1 POP SWAP1 JUMP JUMPDEST PUSH1 0x0 SLOAD PUSH1 0x1 PUSH1 0x1 PUSH1 0xA0 SHL SUB AND CALLER EQ PUSH2 0x1EDE JUMPI PUSH1 0x40 MLOAD PUSH3 0x461BCD PUSH1 0xE5 SHL DUP2 MSTORE PUSH1 0x4 ADD PUSH2 0x8CC SWAP1 PUSH2 0x34CE JUMP JUMPDEST PUSH1 0x1 PUSH1 0x1 PUSH1 0xA0 SHL SUB SWAP2 DUP3 AND PUSH1 0x0 SWAP1 DUP2 MSTORE PUSH1 0x3 PUSH1 0x20 MSTORE PUSH1 0x40 SWAP1 KECCAK256 DUP1 SLOAD PUSH1 0x1 PUSH1 0x1 PUSH1 0xA0 SHL SUB NOT AND SWAP2 SWAP1 SWAP3 AND OR SWAP1 SSTORE JUMP JUMPDEST CALLER PUSH1 0x0 PUSH1 0x6 SLOAD PUSH1 0x1 PUSH1 0xA0 SHL SWAP1 DIV PUSH1 0xFF AND PUSH1 0x1 DUP2 GT ISZERO PUSH2 0x1F2D JUMPI PUSH2 0x1F2D PUSH2 0x336A JUMP JUMPDEST EQ PUSH2 0x1F7A JUMPI PUSH1 0x40 MLOAD PUSH3 0x461BCD PUSH1 0xE5 SHL DUP2 MSTORE PUSH1 0x20 PUSH1 0x4 DUP3 ADD MSTORE PUSH1 0x1E PUSH1 0x24 DUP3 ADD MSTORE PUSH32 0x636F6E747261637420627573792C2074727920616761696E206C617465720000 PUSH1 0x44 DUP3 ADD MSTORE PUSH1 0x64 ADD PUSH2 0x8CC JUMP JUMPDEST PUSH1 0x1 PUSH1 0x1 PUSH1 0x1 PUSH1 0xA0 SHL SUB DUP3 AND PUSH1 0x0 SWAP1 DUP2 MSTORE PUSH1 0xB PUSH1 0x20 SWAP1 DUP2 MSTORE PUSH1 0x40 DUP1 DUP4 KECCAK256 PUSH1 0xD SLOAD DUP5 MSTORE SWAP1 SWAP2 MSTORE SWAP1 KECCAK256 PUSH1 0x1 ADD SLOAD PUSH1 0xFF AND PUSH1 0x3 DUP2 GT ISZERO PUSH2 0x1FB9 JUMPI PUSH2 0x1FB9 PUSH2 0x336A JUMP JUMPDEST EQ PUSH2 0x2006 JUMPI PUSH1 0x40 MLOAD PUSH3 0x461BCD PUSH1 0xE5 SHL DUP2 MSTORE PUSH1 0x20 PUSH1 0x4 DUP3 ADD MSTORE PUSH1 0x1C PUSH1 0x24 DUP3 ADD MSTORE PUSH32 0x796F75206E65656420746F20627579206F7074696F6E20666972737400000000 PUSH1 0x44 DUP3 ADD MSTORE PUSH1 0x64 ADD PUSH2 0x8CC JUMP JUMPDEST PUSH1 0x1 PUSH1 0x1 PUSH1 0xA0 SHL SUB DUP2 AND PUSH1 0x0 SWAP1 DUP2 MSTORE PUSH1 0xB PUSH1 0x20 SWAP1 DUP2 MSTORE PUSH1 0x40 DUP1 DUP4 KECCAK256 PUSH1 0xD SLOAD DUP5 MSTORE SWAP1 SWAP2 MSTORE SWAP1 KECCAK256 PUSH1 0x2 ADD SLOAD PUSH2 0x208A JUMPI PUSH1 0x40 MLOAD PUSH3 0x461BCD PUSH1 0xE5 SHL DUP2 MSTORE PUSH1 0x20 PUSH1 0x4 DUP3 ADD MSTORE PUSH1 0x26 PUSH1 0x24 DUP3 ADD MSTORE PUSH32 0x796F7572206F64657220686173206265656E2066696C6C6564206F722063616E PUSH1 0x44 DUP3 ADD MSTORE PUSH6 0x18D95B1B1959 PUSH1 0xD2 SHL PUSH1 0x64 DUP3 ADD MSTORE PUSH1 0x84 ADD PUSH2 0x8CC JUMP JUMPDEST PUSH1 0x6 DUP1 SLOAD PUSH1 0xFF PUSH1 0xA0 SHL NOT AND PUSH1 0x1 PUSH1 0xA0 SHL OR SWAP1 SSTORE PUSH1 0x1 PUSH1 0x1 PUSH1 0xA0 SHL SUB DUP2 AND PUSH1 0x0 DUP2 DUP2 MSTORE PUSH1 0xB PUSH1 0x20 SWAP1 DUP2 MSTORE PUSH1 0x40 DUP1 DUP4 KECCAK256 PUSH1 0xD SLOAD DUP5 MSTORE DUP3 MSTORE DUP1 DUP4 KECCAK256 PUSH1 0x2 ADD SLOAD SWAP4 DUP4 MSTORE PUSH1 0x9 SWAP1 SWAP2 MSTORE DUP2 KECCAK256 DUP1 SLOAD SWAP1 SWAP2 SWAP1 PUSH2 0x20E0 SWAP1 DUP5 SWAP1 PUSH2 0x3497 JUMP JUMPDEST SWAP1 SWAP2 SSTORE POP POP PUSH1 0x1 PUSH1 0x1 PUSH1 0xA0 SHL SUB DUP2 AND PUSH1 0x0 SWAP1 DUP2 MSTORE PUSH1 0xB PUSH1 0x20 SWAP1 DUP2 MSTORE PUSH1 0x40 DUP1 DUP4 KECCAK256 PUSH1 0xD DUP1 SLOAD DUP6 MSTORE SWAP3 MSTORE DUP3 KECCAK256 PUSH1 0x2 ADD DUP3 SWAP1 SSTORE SLOAD PUSH1 0xC DUP1 SLOAD SWAP1 SWAP2 SWAP1 DUP2 LT PUSH2 0x2126 JUMPI PUSH2 0x2126 PUSH2 0x362C JUMP JUMPDEST SWAP1 PUSH1 0x0 MSTORE PUSH1 0x20 PUSH1 0x0 KECCAK256 SWAP1 PUSH1 0x4 MUL ADD PUSH1 0x3 ADD DUP1 SLOAD DUP1 PUSH1 0x20 MUL PUSH1 0x20 ADD PUSH1 0x40 MLOAD SWAP1 DUP2 ADD PUSH1 0x40 MSTORE DUP1 SWAP3 SWAP2 SWAP1 DUP2 DUP2 MSTORE PUSH1 0x20 ADD DUP3 DUP1 SLOAD DUP1 ISZERO PUSH2 0x2181 JUMPI PUSH1 0x20 MUL DUP3 ADD SWAP2 SWAP1 PUSH1 0x0 MSTORE PUSH1 0x20 PUSH1 0x0 KECCAK256 SWAP1 JUMPDEST DUP2 SLOAD DUP2 MSTORE PUSH1 0x20 ADD SWAP1 PUSH1 0x1 ADD SWAP1 DUP1 DUP4 GT PUSH2 0x216D JUMPI JUMPDEST POP POP POP POP POP SWAP1 POP PUSH1 0x0 DUP1 JUMPDEST DUP3 MLOAD DUP2 LT ISZERO PUSH2 0x230B JUMPI DUP4 PUSH1 0x1 PUSH1 0x1 PUSH1 0xA0 SHL SUB AND PUSH1 0xA PUSH1 0x0 PUSH1 0xD SLOAD DUP2 MSTORE PUSH1 0x20 ADD SWAP1 DUP2 MSTORE PUSH1 0x20 ADD PUSH1 0x0 KECCAK256 DUP5 DUP4 DUP2 MLOAD DUP2 LT PUSH2 0x21C6 JUMPI PUSH2 0x21C6 PUSH2 0x362C JUMP JUMPDEST PUSH1 0x20 MUL PUSH1 0x20 ADD ADD MLOAD DUP2 SLOAD DUP2 LT PUSH2 0x21DE JUMPI PUSH2 0x21DE PUSH2 0x362C JUMP JUMPDEST PUSH1 0x0 SWAP2 DUP3 MSTORE PUSH1 0x20 SWAP1 SWAP2 KECCAK256 PUSH1 0x2 PUSH1 0x3 SWAP1 SWAP3 MUL ADD ADD SLOAD PUSH1 0x1 PUSH1 0x1 PUSH1 0xA0 SHL SUB AND EQ PUSH2 0x226F JUMPI DUP3 DUP2 DUP2 MLOAD DUP2 LT PUSH2 0x2212 JUMPI PUSH2 0x2212 PUSH2 0x362C JUMP JUMPDEST PUSH1 0x20 MUL PUSH1 0x20 ADD ADD MLOAD PUSH1 0xC PUSH1 0xD SLOAD DUP2 SLOAD DUP2 LT PUSH2 0x222F JUMPI PUSH2 0x222F PUSH2 0x362C JUMP JUMPDEST SWAP1 PUSH1 0x0 MSTORE PUSH1 0x20 PUSH1 0x0 KECCAK256 SWAP1 PUSH1 0x4 MUL ADD PUSH1 0x3 ADD DUP4 DUP2 SLOAD DUP2 LT PUSH2 0x2251 JUMPI PUSH2 0x2251 PUSH2 0x362C JUMP JUMPDEST PUSH1 0x0 SWAP2 DUP3 MSTORE PUSH1 0x20 SWAP1 SWAP2 KECCAK256 ADD SSTORE DUP2 PUSH2 0x2267 DUP2 PUSH2 0x3688 JUMP JUMPDEST SWAP3 POP POP PUSH2 0x22F9 JUMP JUMPDEST PUSH1 0xD SLOAD PUSH1 0x0 SWAP1 DUP2 MSTORE PUSH1 0xA PUSH1 0x20 MSTORE PUSH1 0x40 SWAP1 KECCAK256 DUP4 MLOAD DUP5 SWAP1 DUP4 SWAP1 DUP2 LT PUSH2 0x2294 JUMPI PUSH2 0x2294 PUSH2 0x362C JUMP JUMPDEST PUSH1 0x20 MUL PUSH1 0x20 ADD ADD MLOAD DUP2 SLOAD DUP2 LT PUSH2 0x22AC JUMPI PUSH2 0x22AC PUSH2 0x362C JUMP JUMPDEST SWAP1 PUSH1 0x0 MSTORE PUSH1 0x20 PUSH1 0x0 KECCAK256 SWAP1 PUSH1 0x3 MUL ADD PUSH1 0x1 ADD SLOAD PUSH1 0xC PUSH1 0xD SLOAD DUP2 SLOAD DUP2 LT PUSH2 0x22D3 JUMPI PUSH2 0x22D3 PUSH2 0x362C JUMP JUMPDEST SWAP1 PUSH1 0x0 MSTORE PUSH1 0x20 PUSH1 0x0 KECCAK256 SWAP1 PUSH1 0x4 MUL ADD PUSH1 0x2 ADD PUSH1 0x0 DUP3 DUP3 SLOAD PUSH2 0x22F3 SWAP2 SWAP1 PUSH2 0x3615 JUMP JUMPDEST SWAP1 SWAP2 SSTORE POP POP JUMPDEST DUP1 PUSH2 0x2303 DUP2 PUSH2 0x3688 JUMP JUMPDEST SWAP2 POP POP PUSH2 0x218C JUMP JUMPDEST POP PUSH1 0x0 JUMPDEST DUP2 DUP4 MLOAD PUSH2 0x231C SWAP2 SWAP1 PUSH2 0x3615 JUMP JUMPDEST DUP2 LT ISZERO PUSH2 0x2381 JUMPI PUSH1 0xC PUSH1 0xD SLOAD DUP2 SLOAD DUP2 LT PUSH2 0x2338 JUMPI PUSH2 0x2338 PUSH2 0x362C JUMP JUMPDEST SWAP1 PUSH1 0x0 MSTORE PUSH1 0x20 PUSH1 0x0 KECCAK256 SWAP1 PUSH1 0x4 MUL ADD PUSH1 0x3 ADD DUP1 SLOAD DUP1 PUSH2 0x2358 JUMPI PUSH2 0x2358 PUSH2 0x36A3 JUMP JUMPDEST PUSH1 0x1 SWAP1 SUB DUP2 DUP2 SWAP1 PUSH1 0x0 MSTORE PUSH1 0x20 PUSH1 0x0 KECCAK256 ADD PUSH1 0x0 SWAP1 SSTORE SWAP1 SSTORE DUP1 DUP1 PUSH2 0x2379 SWAP1 PUSH2 0x3688 JUMP JUMPDEST SWAP2 POP POP PUSH2 0x230F JUMP JUMPDEST POP POP PUSH1 0x6 DUP1 SLOAD PUSH1 0xFF PUSH1 0xA0 SHL NOT AND SWAP1 SSTORE POP POP JUMP JUMPDEST PUSH1 0x1 PUSH1 0x1 PUSH1 0xA0 SHL SUB DUP2 AND PUSH1 0x0 SWAP1 DUP2 MSTORE PUSH1 0x2 PUSH1 0x20 MSTORE PUSH1 0x40 DUP2 KECCAK256 SLOAD DUP2 SWAP1 PUSH2 0x23EF JUMPI PUSH1 0x40 MLOAD PUSH3 0x461BCD PUSH1 0xE5 SHL DUP2 MSTORE PUSH1 0x20 PUSH1 0x4 DUP3 ADD MSTORE PUSH1 0x11 PUSH1 0x24 DUP3 ADD MSTORE PUSH17 0x4E6F20746F6B656E73207374616B656421 PUSH1 0x78 SHL PUSH1 0x44 DUP3 ADD MSTORE PUSH1 0x64 ADD PUSH2 0x8CC JUMP JUMPDEST PUSH1 0x0 JUMPDEST PUSH1 0x5 SLOAD DUP2 LT ISZERO PUSH2 0x244B JUMPI PUSH2 0x242D DUP5 PUSH1 0x5 DUP4 DUP2 SLOAD DUP2 LT PUSH2 0x2413 JUMPI PUSH2 0x2413 PUSH2 0x362C JUMP JUMPDEST PUSH1 0x0 SWAP2 DUP3 MSTORE PUSH1 0x20 SWAP1 SWAP2 KECCAK256 ADD SLOAD PUSH1 0x1 PUSH1 0x1 PUSH1 0xA0 SHL SUB AND PUSH2 0xB38 JUMP JUMPDEST PUSH2 0x2437 SWAP1 DUP4 PUSH2 0x3497 JUMP JUMPDEST SWAP2 POP DUP1 PUSH2 0x2443 DUP2 PUSH2 0x3688 JUMP JUMPDEST SWAP2 POP POP PUSH2 0x23F2 JUMP JUMPDEST POP SWAP3 SWAP2 POP POP JUMP JUMPDEST PUSH2 0x1F4 CALLVALUE LT ISZERO PUSH2 0x2495 JUMPI PUSH1 0x40 MLOAD PUSH3 0x461BCD PUSH1 0xE5 SHL DUP2 MSTORE PUSH1 0x20 PUSH1 0x4 DUP3 ADD MSTORE PUSH1 0xE PUSH1 0x24 DUP3 ADD MSTORE PUSH14 0x4D696E2073697A65203D2035303 PUSH1 0x94 SHL PUSH1 0x44 DUP3 ADD MSTORE PUSH1 0x64 ADD PUSH2 0x8CC JUMP JUMPDEST CALLER PUSH1 0x0 SWAP1 DUP2 MSTORE PUSH1 0x9 PUSH1 0x20 MSTORE PUSH1 0x40 DUP2 KECCAK256 DUP1 SLOAD CALLVALUE SWAP3 SWAP1 PUSH2 0x24B4 SWAP1 DUP5 SWAP1 PUSH2 0x3497 JUMP JUMPDEST SWAP1 SWAP2 SSTORE POP POP JUMP JUMPDEST CALLER PUSH1 0x0 DUP2 DUP2 MSTORE PUSH1 0xB PUSH1 0x20 SWAP1 DUP2 MSTORE PUSH1 0x40 DUP1 DUP4 KECCAK256 PUSH1 0xD SLOAD DUP5 MSTORE SWAP1 SWAP2 MSTORE SWAP1 KECCAK256 PUSH1 0x1 ADD SLOAD PUSH1 0xFF AND PUSH1 0x2 DUP2 PUSH1 0x3 DUP2 GT ISZERO PUSH2 0x24F2 JUMPI PUSH2 0x24F2 PUSH2 0x336A JUMP JUMPDEST EQ DUP1 PUSH2 0x250F JUMPI POP PUSH1 0x1 DUP2 PUSH1 0x3 DUP2 GT ISZERO PUSH2 0x250D JUMPI PUSH2 0x250D PUSH2 0x336A JUMP JUMPDEST EQ JUMPDEST PUSH2 0x2552 JUMPI PUSH1 0x40 MLOAD PUSH3 0x461BCD PUSH1 0xE5 SHL DUP2 MSTORE PUSH1 0x20 PUSH1 0x4 DUP3 ADD MSTORE PUSH1 0x14 PUSH1 0x24 DUP3 ADD MSTORE PUSH20 0x2CB7BA903430BB32903737903837B9B4BA34B7B7 PUSH1 0x61 SHL PUSH1 0x44 DUP3 ADD MSTORE PUSH1 0x64 ADD PUSH2 0x8CC JUMP JUMPDEST TIMESTAMP PUSH1 0xC PUSH1 0xD SLOAD DUP2 SLOAD DUP2 LT PUSH2 0x2568 JUMPI PUSH2 0x2568 PUSH2 0x362C JUMP JUMPDEST SWAP1 PUSH1 0x0 MSTORE PUSH1 0x20 PUSH1 0x0 KECCAK256 SWAP1 PUSH1 0x4 MUL ADD PUSH1 0x1 ADD SLOAD GT ISZERO PUSH2 0x25C8 JUMPI PUSH1 0x40 MLOAD PUSH3 0x461BCD PUSH1 0xE5 SHL DUP2 MSTORE PUSH1 0x20 PUSH1 0x4 DUP3 ADD MSTORE PUSH1 0x1D PUSH1 0x24 DUP3 ADD MSTORE PUSH32 0x43616E6E6F74206578657263697365206265666F726520657870697279000000 PUSH1 0x44 DUP3 ADD MSTORE PUSH1 0x64 ADD PUSH2 0x8CC JUMP JUMPDEST PUSH1 0x3 DUP2 PUSH1 0x3 DUP2 GT ISZERO PUSH2 0x25DC JUMPI PUSH2 0x25DC PUSH2 0x336A JUMP JUMPDEST EQ ISZERO PUSH2 0x262A JUMPI PUSH1 0x40 MLOAD PUSH3 0x461BCD PUSH1 0xE5 SHL DUP2 MSTORE PUSH1 0x20 PUSH1 0x4 DUP3 ADD MSTORE PUSH1 0x17 PUSH1 0x24 DUP3 ADD MSTORE PUSH32 0x596F7520616C7265616479206578636572636973656420000000000000000000 PUSH1 0x44 DUP3 ADD MSTORE PUSH1 0x64 ADD PUSH2 0x8CC JUMP JUMPDEST PUSH1 0x1 PUSH1 0x1 PUSH1 0xA0 SHL SUB DUP3 AND PUSH1 0x0 SWAP1 DUP2 MSTORE PUSH1 0xB PUSH1 0x20 SWAP1 DUP2 MSTORE PUSH1 0x40 DUP1 DUP4 KECCAK256 PUSH1 0xD SLOAD DUP1 DUP6 MSTORE SWAP3 MSTORE DUP3 KECCAK256 SLOAD PUSH1 0xC DUP1 SLOAD SWAP2 SWAP4 SWAP3 SWAP1 SWAP2 DUP2 LT PUSH2 0x2667 JUMPI PUSH2 0x2667 PUSH2 0x362C JUMP JUMPDEST PUSH1 0x0 SWAP2 DUP3 MSTORE PUSH1 0x20 SWAP1 SWAP2 KECCAK256 PUSH1 0x4 SWAP1 SWAP2 MUL ADD SLOAD SWAP1 POP PUSH1 0x1 DUP4 PUSH1 0x3 DUP2 GT ISZERO PUSH2 0x268E JUMPI PUSH2 0x268E PUSH2 0x336A JUMP JUMPDEST EQ ISZERO PUSH2 0x2772 JUMPI PUSH1 0x0 DUP3 GT PUSH2 0x26F7 JUMPI PUSH1 0x40 MLOAD PUSH3 0x461BCD PUSH1 0xE5 SHL DUP2 MSTORE PUSH1 0x20 PUSH1 0x4 DUP3 ADD MSTORE PUSH1 0x2A PUSH1 0x24 DUP3 ADD MSTORE PUSH32 0x4E6F206F6E652073656C6C20796F75722062696420616E64206E6F7468696E67 PUSH1 0x44 DUP3 ADD MSTORE PUSH10 0x20746F20657870697265 PUSH1 0xB0 SHL PUSH1 0x64 DUP3 ADD MSTORE PUSH1 0x84 ADD PUSH2 0x8CC JUMP JUMPDEST DUP1 PUSH1 0x7 SLOAD LT PUSH2 0x273C JUMPI PUSH1 0x40 MLOAD PUSH3 0x461BCD PUSH1 0xE5 SHL DUP2 MSTORE PUSH1 0x20 PUSH1 0x4 DUP3 ADD MSTORE PUSH1 0x11 PUSH1 0x24 DUP3 ADD MSTORE PUSH17 0x45787069726520776F727468207A65726F PUSH1 0x78 SHL PUSH1 0x44 DUP3 ADD MSTORE PUSH1 0x64 ADD PUSH2 0x8CC JUMP JUMPDEST PUSH1 0x1 PUSH1 0x1 PUSH1 0xA0 SHL SUB DUP5 AND PUSH1 0x0 SWAP1 DUP2 MSTORE PUSH1 0xB PUSH1 0x20 SWAP1 DUP2 MSTORE PUSH1 0x40 DUP1 DUP4 KECCAK256 PUSH1 0xD SLOAD DUP5 MSTORE SWAP1 SWAP2 MSTORE SWAP1 KECCAK256 PUSH1 0x2 ADD SLOAD ISZERO PUSH2 0x2772 JUMPI PUSH2 0x2772 PUSH2 0x1F0C JUMP JUMPDEST PUSH1 0x2 DUP4 PUSH1 0x3 DUP2 GT ISZERO PUSH2 0x2786 JUMPI PUSH2 0x2786 PUSH2 0x336A JUMP JUMPDEST EQ ISZERO PUSH2 0x2817 JUMPI DUP1 PUSH1 0x7 SLOAD LT ISZERO PUSH2 0x27E0 JUMPI PUSH2 0x27A0 DUP2 DUP4 PUSH2 0x35F3 JUMP JUMPDEST PUSH1 0x1 PUSH1 0x1 PUSH1 0xA0 SHL SUB DUP6 AND PUSH1 0x0 SWAP1 DUP2 MSTORE PUSH1 0x9 PUSH1 0x20 MSTORE PUSH1 0x40 DUP2 KECCAK256 DUP1 SLOAD SWAP1 SWAP2 SWAP1 PUSH2 0x27C8 SWAP1 DUP5 SWAP1 PUSH2 0x3497 JUMP JUMPDEST SWAP1 SWAP2 SSTORE POP PUSH2 0x27D8 SWAP1 POP DUP2 DUP4 PUSH2 0x35F3 JUMP JUMPDEST PUSH1 0x10 SSTORE PUSH2 0x2898 JUMP JUMPDEST PUSH1 0x1 PUSH1 0x1 PUSH1 0xA0 SHL SUB DUP5 AND PUSH1 0x0 SWAP1 DUP2 MSTORE PUSH1 0x9 PUSH1 0x20 MSTORE PUSH1 0x40 DUP2 KECCAK256 DUP1 SLOAD DUP5 SWAP3 SWAP1 PUSH2 0x2808 SWAP1 DUP5 SWAP1 PUSH2 0x3497 JUMP JUMPDEST SWAP1 SWAP2 SSTORE POP POP PUSH1 0x10 DUP3 SWAP1 SSTORE PUSH2 0x2898 JUMP JUMPDEST DUP1 PUSH1 0x7 SLOAD LT ISZERO PUSH2 0x2898 JUMPI DUP1 PUSH1 0x7 SLOAD DUP3 PUSH2 0x2830 SWAP2 SWAP1 PUSH2 0x3615 JUMP JUMPDEST PUSH2 0x283A SWAP1 DUP5 PUSH2 0x34AF JUMP JUMPDEST PUSH2 0x2844 SWAP2 SWAP1 PUSH2 0x35F3 JUMP JUMPDEST PUSH1 0x1 PUSH1 0x1 PUSH1 0xA0 SHL SUB DUP6 AND PUSH1 0x0 SWAP1 DUP2 MSTORE PUSH1 0x9 PUSH1 0x20 MSTORE PUSH1 0x40 DUP2 KECCAK256 DUP1 SLOAD SWAP1 SWAP2 SWAP1 PUSH2 0x286C SWAP1 DUP5 SWAP1 PUSH2 0x3497 JUMP JUMPDEST SWAP1 SWAP2 SSTORE POP POP PUSH1 0x7 SLOAD DUP2 SWAP1 PUSH2 0x2880 SWAP1 DUP3 PUSH2 0x3615 JUMP JUMPDEST PUSH2 0x288A SWAP1 DUP5 PUSH2 0x34AF JUMP JUMPDEST PUSH2 0x2894 SWAP2 SWAP1 PUSH2 0x35F3 JUMP JUMPDEST PUSH1 0x10 SSTORE JUMPDEST POP POP POP PUSH1 0x1 PUSH1 0x1 PUSH1 0xA0 SHL SUB AND PUSH1 0x0 SWAP1 DUP2 MSTORE PUSH1 0xB PUSH1 0x20 SWAP1 DUP2 MSTORE PUSH1 0x40 DUP1 DUP4 KECCAK256 PUSH1 0xD SLOAD DUP5 MSTORE SWAP1 SWAP2 MSTORE SWAP1 KECCAK256 PUSH1 0x1 ADD DUP1 SLOAD PUSH1 0xFF NOT AND PUSH1 0x3 OR SWAP1 SSTORE JUMP JUMPDEST PUSH1 0x60 PUSH1 0xC PUSH1 0xD SLOAD DUP2 SLOAD DUP2 LT PUSH2 0x28E6 JUMPI PUSH2 0x28E6 PUSH2 0x362C JUMP JUMPDEST SWAP1 PUSH1 0x0 MSTORE PUSH1 0x20 PUSH1 0x0 KECCAK256 SWAP1 PUSH1 0x4 MUL ADD PUSH1 0x3 ADD DUP1 SLOAD DUP1 PUSH1 0x20 MUL PUSH1 0x20 ADD PUSH1 0x40 MLOAD SWAP1 DUP2 ADD PUSH1 0x40 MSTORE DUP1 SWAP3 SWAP2 SWAP1 DUP2 DUP2 MSTORE PUSH1 0x20 ADD DUP3 DUP1 SLOAD DUP1 ISZERO PUSH2 0x2941 JUMPI PUSH1 0x20 MUL DUP3 ADD SWAP2 SWAP1 PUSH1 0x0 MSTORE PUSH1 0x20 PUSH1 0x0 KECCAK256 SWAP1 JUMPDEST DUP2 SLOAD DUP2 MSTORE PUSH1 0x20 ADD SWAP1 PUSH1 0x1 ADD SWAP1 DUP1 DUP4 GT PUSH2 0x292D JUMPI JUMPDEST POP POP POP POP POP SWAP1 POP SWAP1 JUMP JUMPDEST PUSH1 0x0 DUP1 JUMPDEST PUSH1 0x5 SLOAD DUP2 LT ISZERO PUSH2 0x29AC JUMPI DUP3 PUSH1 0x1 PUSH1 0x1 PUSH1 0xA0 SHL SUB AND PUSH1 0x5 DUP3 DUP2 SLOAD DUP2 LT PUSH2 0x2976 JUMPI PUSH2 0x2976 PUSH2 0x362C JUMP JUMPDEST PUSH1 0x0 SWAP2 DUP3 MSTORE PUSH1 0x20 SWAP1 SWAP2 KECCAK256 ADD SLOAD PUSH1 0x1 PUSH1 0x1 PUSH1 0xA0 SHL SUB AND EQ ISZERO PUSH2 0x299A JUMPI POP PUSH1 0x1 SWAP3 SWAP2 POP POP JUMP JUMPDEST DUP1 PUSH2 0x29A4 DUP2 PUSH2 0x3688 JUMP JUMPDEST SWAP2 POP POP PUSH2 0x294F JUMP JUMPDEST POP PUSH1 0x0 SWAP3 SWAP2 POP POP JUMP JUMPDEST PUSH1 0x0 DUP1 PUSH1 0xC PUSH1 0xD SLOAD DUP2 SLOAD DUP2 LT PUSH2 0x29CD JUMPI PUSH2 0x29CD PUSH2 0x362C JUMP JUMPDEST SWAP1 PUSH1 0x0 MSTORE PUSH1 0x20 PUSH1 0x0 KECCAK256 SWAP1 PUSH1 0x4 MUL ADD PUSH1 0x3 ADD DUP1 SLOAD SWAP1 POP GT PUSH2 0x2A2F JUMPI PUSH1 0x40 MLOAD PUSH3 0x461BCD PUSH1 0xE5 SHL DUP2 MSTORE PUSH1 0x20 PUSH1 0x4 DUP3 ADD MSTORE PUSH1 0x1E PUSH1 0x24 DUP3 ADD MSTORE PUSH32 0x63616E6E6F742073656C6C206966207468657265206973206E6F206269640000 PUSH1 0x44 DUP3 ADD MSTORE PUSH1 0x64 ADD PUSH2 0x8CC JUMP JUMPDEST PUSH2 0x3E8 DUP3 LT ISZERO PUSH2 0x2A73 JUMPI PUSH1 0x40 MLOAD PUSH3 0x461BCD PUSH1 0xE5 SHL DUP2 MSTORE PUSH1 0x20 PUSH1 0x4 DUP3 ADD MSTORE PUSH1 0xF PUSH1 0x24 DUP3 ADD MSTORE PUSH15 0x6D696E2073697A65203D203130303 PUSH1 0x8C SHL PUSH1 0x44 DUP3 ADD MSTORE PUSH1 0x64 ADD PUSH2 0x8CC JUMP JUMPDEST PUSH1 0xC PUSH1 0xD SLOAD DUP2 SLOAD DUP2 LT PUSH2 0x2A88 JUMPI PUSH2 0x2A88 PUSH2 0x362C JUMP JUMPDEST SWAP1 PUSH1 0x0 MSTORE PUSH1 0x20 PUSH1 0x0 KECCAK256 SWAP1 PUSH1 0x4 MUL ADD PUSH1 0x2 ADD SLOAD DUP3 GT ISZERO PUSH2 0x2AD6 JUMPI PUSH1 0x40 MLOAD PUSH3 0x461BCD PUSH1 0xE5 SHL DUP2 MSTORE PUSH1 0x20 PUSH1 0x4 DUP3 ADD MSTORE PUSH1 0xA PUSH1 0x24 DUP3 ADD MSTORE PUSH10 0x6C6F7720737570706C79 PUSH1 0xB0 SHL PUSH1 0x44 DUP3 ADD MSTORE PUSH1 0x64 ADD PUSH2 0x8CC JUMP JUMPDEST PUSH1 0x0 DUP3 SWAP1 POP PUSH1 0x0 DUP1 DUP1 PUSH1 0x1 PUSH1 0xC PUSH1 0xD SLOAD DUP2 SLOAD DUP2 LT PUSH2 0x2AF6 JUMPI PUSH2 0x2AF6 PUSH2 0x362C JUMP JUMPDEST SWAP1 PUSH1 0x0 MSTORE PUSH1 0x20 PUSH1 0x0 KECCAK256 SWAP1 PUSH1 0x4 MUL ADD PUSH1 0x3 ADD DUP1 SLOAD SWAP1 POP PUSH2 0x2B15 SWAP2 SWAP1 PUSH2 0x3615 JUMP JUMPDEST SWAP1 POP JUMPDEST DUP4 ISZERO PUSH2 0x2CDF JUMPI PUSH1 0xD SLOAD PUSH1 0x0 DUP2 DUP2 MSTORE PUSH1 0xA PUSH1 0x20 MSTORE PUSH1 0x40 SWAP1 KECCAK256 PUSH1 0xC DUP1 SLOAD SWAP2 SWAP3 SWAP1 SWAP2 DUP2 LT PUSH2 0x2B45 JUMPI PUSH2 0x2B45 PUSH2 0x362C JUMP JUMPDEST SWAP1 PUSH1 0x0 MSTORE PUSH1 0x20 PUSH1 0x0 KECCAK256 SWAP1 PUSH1 0x4 MUL ADD PUSH1 0x3 ADD DUP3 DUP2 SLOAD DUP2 LT PUSH2 0x2B67 JUMPI PUSH2 0x2B67 PUSH2 0x362C JUMP JUMPDEST SWAP1 PUSH1 0x0 MSTORE PUSH1 0x20 PUSH1 0x0 KECCAK256 ADD SLOAD DUP2 SLOAD DUP2 LT PUSH2 0x2B82 JUMPI PUSH2 0x2B82 PUSH2 0x362C JUMP JUMPDEST SWAP1 PUSH1 0x0 MSTORE PUSH1 0x20 PUSH1 0x0 KECCAK256 SWAP1 PUSH1 0x3 MUL ADD PUSH1 0x1 ADD SLOAD SWAP2 POP DUP2 DUP5 LT PUSH2 0x2C3B JUMPI PUSH1 0xD SLOAD PUSH1 0x0 DUP2 DUP2 MSTORE PUSH1 0xA PUSH1 0x20 MSTORE PUSH1 0x40 SWAP1 KECCAK256 PUSH1 0xC DUP1 SLOAD SWAP2 SWAP3 SWAP1 SWAP2 DUP2 LT PUSH2 0x2BC4 JUMPI PUSH2 0x2BC4 PUSH2 0x362C JUMP JUMPDEST SWAP1 PUSH1 0x0 MSTORE PUSH1 0x20 PUSH1 0x0 KECCAK256 SWAP1 PUSH1 0x4 MUL ADD PUSH1 0x3 ADD DUP3 DUP2 SLOAD DUP2 LT PUSH2 0x2BE6 JUMPI PUSH2 0x2BE6 PUSH2 0x362C JUMP JUMPDEST SWAP1 PUSH1 0x0 MSTORE PUSH1 0x20 PUSH1 0x0 KECCAK256 ADD SLOAD DUP2 SLOAD DUP2 LT PUSH2 0x2C01 JUMPI PUSH2 0x2C01 PUSH2 0x362C JUMP JUMPDEST SWAP1 PUSH1 0x0 MSTORE PUSH1 0x20 PUSH1 0x0 KECCAK256 SWAP1 PUSH1 0x3 MUL ADD PUSH1 0x0 ADD SLOAD DUP3 PUSH2 0x2C1E SWAP2 SWAP1 PUSH2 0x34AF JUMP JUMPDEST PUSH2 0x2C28 SWAP1 DUP5 PUSH2 0x3497 JUMP JUMPDEST SWAP3 POP PUSH2 0x2C34 DUP3 DUP6 PUSH2 0x3615 JUMP JUMPDEST SWAP4 POP PUSH2 0x2CCD JUMP JUMPDEST PUSH1 0xD SLOAD PUSH1 0x0 DUP2 DUP2 MSTORE PUSH1 0xA PUSH1 0x20 MSTORE PUSH1 0x40 SWAP1 KECCAK256 PUSH1 0xC DUP1 SLOAD SWAP2 SWAP3 SWAP1 SWAP2 DUP2 LT PUSH2 0x2C62 JUMPI PUSH2 0x2C62 PUSH2 0x362C JUMP JUMPDEST SWAP1 PUSH1 0x0 MSTORE PUSH1 0x20 PUSH1 0x0 KECCAK256 SWAP1 PUSH1 0x4 MUL ADD PUSH1 0x3 ADD DUP3 DUP2 SLOAD DUP2 LT PUSH2 0x2C84 JUMPI PUSH2 0x2C84 PUSH2 0x362C JUMP JUMPDEST SWAP1 PUSH1 0x0 MSTORE PUSH1 0x20 PUSH1 0x0 KECCAK256 ADD SLOAD DUP2 SLOAD DUP2 LT PUSH2 0x2C9F JUMPI PUSH2 0x2C9F PUSH2 0x362C JUMP JUMPDEST SWAP1 PUSH1 0x0 MSTORE PUSH1 0x20 PUSH1 0x0 KECCAK256 SWAP1 PUSH1 0x3 MUL ADD PUSH1 0x0 ADD SLOAD DUP5 PUSH2 0x2CBC SWAP2 SWAP1 PUSH2 0x34AF JUMP JUMPDEST PUSH2 0x2CC6 SWAP1 DUP5 PUSH2 0x3497 JUMP JUMPDEST SWAP3 POP PUSH1 0x0 SWAP4 POP JUMPDEST DUP1 PUSH2 0x2CD7 DUP2 PUSH2 0x36B9 JUMP JUMPDEST SWAP2 POP POP PUSH2 0x2B18 JUMP JUMPDEST PUSH2 0x2CE9 DUP7 DUP5 PUSH2 0x35F3 JUMP JUMPDEST SWAP7 SWAP6 POP POP POP POP POP POP JUMP JUMPDEST PUSH1 0x1 PUSH1 0x1 PUSH1 0xA0 SHL SUB DUP1 DUP3 AND PUSH1 0x0 SWAP1 DUP2 MSTORE PUSH1 0x3 PUSH1 0x20 MSTORE PUSH1 0x40 DUP1 DUP3 KECCAK256 SLOAD DUP2 MLOAD PUSH4 0x3FABE5A3 PUSH1 0xE2 SHL DUP2 MSTORE SWAP2 MLOAD SWAP3 SWAP4 DUP5 SWAP4 SWAP2 AND SWAP2 DUP3 SWAP2 DUP5 SWAP2 DUP4 SWAP2 PUSH4 0xFEAF968C SWAP2 PUSH1 0x4 DUP1 DUP3 ADD SWAP3 PUSH1 0xA0 SWAP3 SWAP1 SWAP2 SWAP1 DUP3 SWAP1 SUB ADD DUP2 DUP7 GAS STATICCALL ISZERO DUP1 ISZERO PUSH2 0x2D54 JUMPI RETURNDATASIZE PUSH1 0x0 DUP1 RETURNDATACOPY RETURNDATASIZE PUSH1 0x0 REVERT JUMPDEST POP POP POP POP PUSH1 0x40 MLOAD RETURNDATASIZE PUSH1 0x1F NOT PUSH1 0x1F DUP3 ADD AND DUP3 ADD DUP1 PUSH1 0x40 MSTORE POP DUP2 ADD SWAP1 PUSH2 0x2D78 SWAP2 SWAP1 PUSH2 0x36EA JUMP JUMPDEST POP POP POP SWAP2 POP POP PUSH1 0x0 DUP3 PUSH1 0x1 PUSH1 0x1 PUSH1 0xA0 SHL SUB AND PUSH4 0x313CE567 PUSH1 0x40 MLOAD DUP2 PUSH4 0xFFFFFFFF AND PUSH1 0xE0 SHL DUP2 MSTORE PUSH1 0x4 ADD PUSH1 0x20 PUSH1 0x40 MLOAD DUP1 DUP4 SUB DUP2 DUP7 GAS STATICCALL ISZERO DUP1 ISZERO PUSH2 0x2DBE JUMPI RETURNDATASIZE PUSH1 0x0 DUP1 RETURNDATACOPY RETURNDATASIZE PUSH1 0x0 REVERT JUMPDEST POP POP POP POP PUSH1 0x40 MLOAD RETURNDATASIZE PUSH1 0x1F NOT PUSH1 0x1F DUP3 ADD AND DUP3 ADD DUP1 PUSH1 0x40 MSTORE POP DUP2 ADD SWAP1 PUSH2 0x2DE2 SWAP2 SWAP1 PUSH2 0x373A JUMP JUMPDEST SWAP2 SWAP8 PUSH1 0xFF SWAP1 SWAP3 AND SWAP7 POP SWAP1 SWAP5 POP POP POP POP POP JUMP JUMPDEST PUSH1 0x0 SLOAD PUSH1 0x1 PUSH1 0x1 PUSH1 0xA0 SHL SUB AND CALLER EQ PUSH2 0x2E1E JUMPI PUSH1 0x40 MLOAD PUSH3 0x461BCD PUSH1 0xE5 SHL DUP2 MSTORE PUSH1 0x4 ADD PUSH2 0x8CC SWAP1 PUSH2 0x34CE JUMP JUMPDEST PUSH1 0x1 PUSH1 0x1 PUSH1 0xA0 SHL SUB DUP2 AND PUSH2 0x2E83 JUMPI PUSH1 0x40 MLOAD PUSH3 0x461BCD PUSH1 0xE5 SHL DUP2 MSTORE PUSH1 0x20 PUSH1 0x4 DUP3 ADD MSTORE PUSH1 0x26 PUSH1 0x24 DUP3 ADD MSTORE PUSH32 0x4F776E61626C653A206E6577206F776E657220697320746865207A65726F2061 PUSH1 0x44 DUP3 ADD MSTORE PUSH6 0x646472657373 PUSH1 0xD0 SHL PUSH1 0x64 DUP3 ADD MSTORE PUSH1 0x84 ADD PUSH2 0x8CC JUMP JUMPDEST PUSH2 0x1201 DUP2 PUSH2 0x3286 JUMP JUMPDEST PUSH1 0x4 DUP2 DUP2 SLOAD DUP2 LT PUSH2 0x10ED JUMPI PUSH1 0x0 DUP1 REVERT JUMPDEST PUSH1 0x1 PUSH1 0x1 PUSH1 0xA0 SHL SUB DUP1 DUP3 AND PUSH1 0x0 SWAP1 DUP2 MSTORE PUSH1 0x1 PUSH1 0x20 SWAP1 DUP2 MSTORE PUSH1 0x40 DUP1 DUP4 KECCAK256 SWAP4 DUP7 AND DUP4 MSTORE SWAP3 SWAP1 MSTORE KECCAK256 SLOAD PUSH2 0x2F04 JUMPI PUSH1 0x1 PUSH1 0x1 PUSH1 0xA0 SHL SUB DUP3 AND PUSH1 0x0 SWAP1 DUP2 MSTORE PUSH1 0x2 PUSH1 0x20 MSTORE PUSH1 0x40 SWAP1 KECCAK256 SLOAD PUSH2 0x2EEA SWAP1 PUSH1 0x1 PUSH2 0x3497 JUMP JUMPDEST PUSH1 0x1 PUSH1 0x1 PUSH1 0xA0 SHL SUB DUP4 AND PUSH1 0x0 SWAP1 DUP2 MSTORE PUSH1 0x2 PUSH1 0x20 MSTORE PUSH1 0x40 SWAP1 KECCAK256 SSTORE JUMPDEST POP POP JUMP JUMPDEST PUSH1 0x0 DUP1 PUSH1 0x1 PUSH1 0xC PUSH1 0xD SLOAD DUP2 SLOAD DUP2 LT PUSH2 0x2F22 JUMPI PUSH2 0x2F22 PUSH2 0x362C JUMP JUMPDEST SWAP1 PUSH1 0x0 MSTORE PUSH1 0x20 PUSH1 0x0 KECCAK256 SWAP1 PUSH1 0x4 MUL ADD PUSH1 0x3 ADD DUP1 SLOAD SWAP1 POP PUSH2 0x2F41 SWAP2 SWAP1 PUSH2 0x3615 JUMP JUMPDEST SWAP1 POP PUSH1 0x0 JUMPDEST DUP2 DUP4 LT ISZERO PUSH2 0x3000 JUMPI PUSH1 0x2 PUSH2 0x2F5A DUP4 DUP6 PUSH2 0x3497 JUMP JUMPDEST PUSH2 0x2F64 SWAP2 SWAP1 PUSH2 0x35F3 JUMP JUMPDEST SWAP1 POP PUSH1 0xA PUSH1 0x0 PUSH1 0xD SLOAD DUP2 MSTORE PUSH1 0x20 ADD SWAP1 DUP2 MSTORE PUSH1 0x20 ADD PUSH1 0x0 KECCAK256 PUSH1 0xC PUSH1 0xD SLOAD DUP2 SLOAD DUP2 LT PUSH2 0x2F90 JUMPI PUSH2 0x2F90 PUSH2 0x362C JUMP JUMPDEST SWAP1 PUSH1 0x0 MSTORE PUSH1 0x20 PUSH1 0x0 KECCAK256 SWAP1 PUSH1 0x4 MUL ADD PUSH1 0x3 ADD DUP3 DUP2 SLOAD DUP2 LT PUSH2 0x2FB2 JUMPI PUSH2 0x2FB2 PUSH2 0x362C JUMP JUMPDEST SWAP1 PUSH1 0x0 MSTORE PUSH1 0x20 PUSH1 0x0 KECCAK256 ADD SLOAD DUP2 SLOAD DUP2 LT PUSH2 0x2FCD JUMPI PUSH2 0x2FCD PUSH2 0x362C JUMP JUMPDEST SWAP1 PUSH1 0x0 MSTORE PUSH1 0x20 PUSH1 0x0 KECCAK256 SWAP1 PUSH1 0x3 MUL ADD PUSH1 0x0 ADD SLOAD DUP5 GT ISZERO PUSH2 0x2FF8 JUMPI PUSH2 0x2FF1 DUP2 PUSH1 0x1 PUSH2 0x3497 JUMP JUMPDEST SWAP3 POP PUSH2 0x2F46 JUMP JUMPDEST DUP1 SWAP2 POP PUSH2 0x2F46 JUMP JUMPDEST DUP2 DUP4 EQ ISZERO PUSH2 0x309A JUMPI PUSH1 0xD SLOAD PUSH1 0x0 DUP2 DUP2 MSTORE PUSH1 0xA PUSH1 0x20 MSTORE PUSH1 0x40 SWAP1 KECCAK256 PUSH1 0xC DUP1 SLOAD SWAP2 SWAP3 SWAP1 SWAP2 DUP2 LT PUSH2 0x302F JUMPI PUSH2 0x302F PUSH2 0x362C JUMP JUMPDEST SWAP1 PUSH1 0x0 MSTORE PUSH1 0x20 PUSH1 0x0 KECCAK256 SWAP1 PUSH1 0x4 MUL ADD PUSH1 0x3 ADD DUP5 DUP2 SLOAD DUP2 LT PUSH2 0x3051 JUMPI PUSH2 0x3051 PUSH2 0x362C JUMP JUMPDEST SWAP1 PUSH1 0x0 MSTORE PUSH1 0x20 PUSH1 0x0 KECCAK256 ADD SLOAD DUP2 SLOAD DUP2 LT PUSH2 0x306C JUMPI PUSH2 0x306C PUSH2 0x362C JUMP JUMPDEST SWAP1 PUSH1 0x0 MSTORE PUSH1 0x20 PUSH1 0x0 KECCAK256 SWAP1 PUSH1 0x3 MUL ADD PUSH1 0x0 ADD SLOAD DUP5 GT ISZERO PUSH2 0x3097 JUMPI PUSH2 0x3090 DUP4 PUSH1 0x1 PUSH2 0x3497 JUMP JUMPDEST SWAP1 POP PUSH2 0x309A JUMP JUMPDEST POP DUP2 JUMPDEST PUSH1 0xC PUSH1 0xD SLOAD DUP2 SLOAD DUP2 LT PUSH2 0x30AF JUMPI PUSH2 0x30AF PUSH2 0x362C JUMP JUMPDEST SWAP1 PUSH1 0x0 MSTORE PUSH1 0x20 PUSH1 0x0 KECCAK256 SWAP1 PUSH1 0x4 MUL ADD PUSH1 0x3 ADD PUSH1 0x1 PUSH1 0xA PUSH1 0x0 PUSH1 0xD SLOAD DUP2 MSTORE PUSH1 0x20 ADD SWAP1 DUP2 MSTORE PUSH1 0x20 ADD PUSH1 0x0 KECCAK256 DUP1 SLOAD SWAP1 POP PUSH2 0x30E5 SWAP2 SWAP1 PUSH2 0x3615 JUMP JUMPDEST DUP2 SLOAD PUSH1 0x1 DUP2 DUP2 ADD DUP5 SSTORE PUSH1 0x0 SWAP4 DUP5 MSTORE PUSH1 0x20 SWAP1 SWAP4 KECCAK256 ADD SSTORE PUSH1 0xD SLOAD PUSH1 0xC DUP1 SLOAD SWAP1 SWAP2 SWAP1 DUP2 LT PUSH2 0x3112 JUMPI PUSH2 0x3112 PUSH2 0x362C JUMP JUMPDEST SWAP1 PUSH1 0x0 MSTORE PUSH1 0x20 PUSH1 0x0 KECCAK256 SWAP1 PUSH1 0x4 MUL ADD PUSH1 0x3 ADD DUP1 SLOAD SWAP1 POP PUSH2 0x3131 SWAP2 SWAP1 PUSH2 0x3615 JUMP JUMPDEST DUP2 LT ISZERO PUSH2 0x10D7 JUMPI PUSH1 0x0 PUSH1 0x1 PUSH1 0xC PUSH1 0xD SLOAD DUP2 SLOAD DUP2 LT PUSH2 0x3151 JUMPI PUSH2 0x3151 PUSH2 0x362C JUMP JUMPDEST SWAP1 PUSH1 0x0 MSTORE PUSH1 0x20 PUSH1 0x0 KECCAK256 SWAP1 PUSH1 0x4 MUL ADD PUSH1 0x3 ADD DUP1 SLOAD SWAP1 POP PUSH2 0x3170 SWAP2 SWAP1 PUSH2 0x3615 JUMP JUMPDEST SWAP1 POP JUMPDEST DUP2 DUP2 GT ISZERO PUSH2 0x321E JUMPI PUSH1 0xC PUSH1 0xD SLOAD DUP2 SLOAD DUP2 LT PUSH2 0x3190 JUMPI PUSH2 0x3190 PUSH2 0x362C JUMP JUMPDEST SWAP1 PUSH1 0x0 MSTORE PUSH1 0x20 PUSH1 0x0 KECCAK256 SWAP1 PUSH1 0x4 MUL ADD PUSH1 0x3 ADD PUSH1 0x1 DUP3 PUSH2 0x31AE SWAP2 SWAP1 PUSH2 0x3615 JUMP JUMPDEST DUP2 SLOAD DUP2 LT PUSH2 0x31BE JUMPI PUSH2 0x31BE PUSH2 0x362C JUMP JUMPDEST SWAP1 PUSH1 0x0 MSTORE PUSH1 0x20 PUSH1 0x0 KECCAK256 ADD SLOAD PUSH1 0xC PUSH1 0xD SLOAD DUP2 SLOAD DUP2 LT PUSH2 0x31DE JUMPI PUSH2 0x31DE PUSH2 0x362C JUMP JUMPDEST SWAP1 PUSH1 0x0 MSTORE PUSH1 0x20 PUSH1 0x0 KECCAK256 SWAP1 PUSH1 0x4 MUL ADD PUSH1 0x3 ADD DUP3 DUP2 SLOAD DUP2 LT PUSH2 0x3200 JUMPI PUSH2 0x3200 PUSH2 0x362C JUMP JUMPDEST PUSH1 0x0 SWAP2 DUP3 MSTORE PUSH1 0x20 SWAP1 SWAP2 KECCAK256 ADD SSTORE DUP1 PUSH2 0x3216 DUP2 PUSH2 0x36B9 JUMP JUMPDEST SWAP2 POP POP PUSH2 0x3173 JUMP JUMPDEST POP PUSH1 0xD SLOAD PUSH1 0x0 SWAP1 DUP2 MSTORE PUSH1 0xA PUSH1 0x20 MSTORE PUSH1 0x40 SWAP1 KECCAK256 SLOAD PUSH2 0x323D SWAP1 PUSH1 0x1 SWAP1 PUSH2 0x3615 JUMP JUMPDEST PUSH1 0xC PUSH1 0xD SLOAD DUP2 SLOAD DUP2 LT PUSH2 0x3252 JUMPI PUSH2 0x3252 PUSH2 0x362C JUMP JUMPDEST SWAP1 PUSH1 0x0 MSTORE PUSH1 0x20 PUSH1 0x0 KECCAK256 SWAP1 PUSH1 0x4 MUL ADD PUSH1 0x3 ADD DUP3 DUP2 SLOAD DUP2 LT PUSH2 0x3274 JUMPI PUSH2 0x3274 PUSH2 0x362C JUMP JUMPDEST PUSH1 0x0 SWAP2 DUP3 MSTORE PUSH1 0x20 SWAP1 SWAP2 KECCAK256 ADD SSTORE POP POP POP POP JUMP JUMPDEST PUSH1 0x0 DUP1 SLOAD PUSH1 0x1 PUSH1 0x1 PUSH1 0xA0 SHL SUB DUP4 DUP2 AND PUSH1 0x1 PUSH1 0x1 PUSH1 0xA0 SHL SUB NOT DUP4 AND DUP2 OR DUP5 SSTORE PUSH1 0x40 MLOAD SWAP2 SWAP1 SWAP3 AND SWAP3 DUP4 SWAP2 PUSH32 0x8BE0079C531659141344CD1FD0A4F28419497F9722A3DAAFE3B4186F6B6457E0 SWAP2 SWAP1 LOG3 POP POP JUMP JUMPDEST DUP1 CALLDATALOAD PUSH1 0x1 PUSH1 0x1 PUSH1 0xA0 SHL SUB DUP2 AND DUP2 EQ PUSH2 0x32ED JUMPI PUSH1 0x0 DUP1 REVERT JUMPDEST SWAP2 SWAP1 POP JUMP JUMPDEST PUSH1 0x0 PUSH1 0x20 DUP3 DUP5 SUB SLT ISZERO PUSH2 0x3304 JUMPI PUSH1 0x0 DUP1 REVERT JUMPDEST PUSH2 0x330D DUP3 PUSH2 0x32D6 JUMP JUMPDEST SWAP4 SWAP3 POP POP POP JUMP JUMPDEST PUSH1 0x0 DUP1 PUSH1 0x40 DUP4 DUP6 SUB SLT ISZERO PUSH2 0x3327 JUMPI PUSH1 0x0 DUP1 REVERT JUMPDEST DUP3 CALLDATALOAD SWAP2 POP PUSH2 0x3337 PUSH1 0x20 DUP5 ADD PUSH2 0x32D6 JUMP JUMPDEST SWAP1 POP SWAP3 POP SWAP3 SWAP1 POP JUMP JUMPDEST PUSH1 0x0 DUP1 PUSH1 0x40 DUP4 DUP6 SUB SLT ISZERO PUSH2 0x3353 JUMPI PUSH1 0x0 DUP1 REVERT JUMPDEST PUSH2 0x335C DUP4 PUSH2 0x32D6 JUMP JUMPDEST SWAP5 PUSH1 0x20 SWAP4 SWAP1 SWAP4 ADD CALLDATALOAD SWAP4 POP POP POP JUMP JUMPDEST PUSH4 0x4E487B71 PUSH1 0xE0 SHL PUSH1 0x0 MSTORE PUSH1 0x21 PUSH1 0x4 MSTORE PUSH1 0x24 PUSH1 0x0 REVERT JUMPDEST DUP4 DUP2 MSTORE PUSH1 0x60 DUP2 ADD PUSH1 0x4 DUP5 LT PUSH2 0x33A5 JUMPI PUSH4 0x4E487B71 PUSH1 0xE0 SHL PUSH1 0x0 MSTORE PUSH1 0x21 PUSH1 0x4 MSTORE PUSH1 0x24 PUSH1 0x0 REVERT JUMPDEST PUSH1 0x20 DUP3 ADD SWAP4 SWAP1 SWAP4 MSTORE PUSH1 0x40 ADD MSTORE SWAP2 SWAP1 POP JUMP JUMPDEST PUSH1 0x0 PUSH1 0x20 DUP3 DUP5 SUB SLT ISZERO PUSH2 0x33C8 JUMPI PUSH1 0x0 DUP1 REVERT JUMPDEST POP CALLDATALOAD SWAP2 SWAP1 POP JUMP JUMPDEST PUSH1 0x0 DUP1 PUSH1 0x40 DUP4 DUP6 SUB SLT ISZERO PUSH2 0x33E2 JUMPI PUSH1 0x0 DUP1 REVERT JUMPDEST PUSH2 0x33EB DUP4 PUSH2 0x32D6 JUMP JUMPDEST SWAP2 POP PUSH2 0x3337 PUSH1 0x20 DUP5 ADD PUSH2 0x32D6 JUMP JUMPDEST PUSH1 0x0 DUP1 PUSH1 0x40 DUP4 DUP6 SUB SLT ISZERO PUSH2 0x340C JUMPI PUSH1 0x0 DUP1 REVERT JUMPDEST POP POP DUP1 CALLDATALOAD SWAP3 PUSH1 0x20 SWAP1 SWAP2 ADD CALLDATALOAD SWAP2 POP JUMP JUMPDEST PUSH1 0x20 DUP1 DUP3 MSTORE DUP3 MLOAD DUP3 DUP3 ADD DUP2 SWAP1 MSTORE PUSH1 0x0 SWAP2 SWAP1 DUP5 DUP3 ADD SWAP1 PUSH1 0x40 DUP6 ADD SWAP1 DUP5 JUMPDEST DUP2 DUP2 LT ISZERO PUSH2 0x3453 JUMPI DUP4 MLOAD DUP4 MSTORE SWAP3 DUP5 ADD SWAP3 SWAP2 DUP5 ADD SWAP2 PUSH1 0x1 ADD PUSH2 0x3437 JUMP JUMPDEST POP SWAP1 SWAP7 SWAP6 POP POP POP POP POP POP JUMP JUMPDEST PUSH1 0x0 PUSH1 0x20 DUP3 DUP5 SUB SLT ISZERO PUSH2 0x3471 JUMPI PUSH1 0x0 DUP1 REVERT JUMPDEST DUP2 MLOAD DUP1 ISZERO ISZERO DUP2 EQ PUSH2 0x330D JUMPI PUSH1 0x0 DUP1 REVERT JUMPDEST PUSH4 0x4E487B71 PUSH1 0xE0 SHL PUSH1 0x0 MSTORE PUSH1 0x11 PUSH1 0x4 MSTORE PUSH1 0x24 PUSH1 0x0 REVERT JUMPDEST PUSH1 0x0 DUP3 NOT DUP3 GT ISZERO PUSH2 0x34AA JUMPI PUSH2 0x34AA PUSH2 0x3481 JUMP JUMPDEST POP ADD SWAP1 JUMP JUMPDEST PUSH1 0x0 DUP2 PUSH1 0x0 NOT DIV DUP4 GT DUP3 ISZERO ISZERO AND ISZERO PUSH2 0x34C9 JUMPI PUSH2 0x34C9 PUSH2 0x3481 JUMP JUMPDEST POP MUL SWAP1 JUMP JUMPDEST PUSH1 0x20 DUP1 DUP3 MSTORE DUP2 DUP2 ADD MSTORE PUSH32 0x4F776E61626C653A2063616C6C6572206973206E6F7420746865206F776E6572 PUSH1 0x40 DUP3 ADD MSTORE PUSH1 0x60 ADD SWAP1 JUMP JUMPDEST PUSH1 0x1 DUP2 DUP2 JUMPDEST DUP1 DUP6 GT ISZERO PUSH2 0x353E JUMPI DUP2 PUSH1 0x0 NOT DIV DUP3 GT ISZERO PUSH2 0x3524 JUMPI PUSH2 0x3524 PUSH2 0x3481 JUMP JUMPDEST DUP1 DUP6 AND ISZERO PUSH2 0x3531 JUMPI SWAP2 DUP2 MUL SWAP2 JUMPDEST SWAP4 DUP5 SHR SWAP4 SWAP1 DUP1 MUL SWAP1 PUSH2 0x3508 JUMP JUMPDEST POP SWAP3 POP SWAP3 SWAP1 POP JUMP JUMPDEST PUSH1 0x0 DUP3 PUSH2 0x3555 JUMPI POP PUSH1 0x1 PUSH2 0xBB9 JUMP JUMPDEST DUP2 PUSH2 0x3562 JUMPI POP PUSH1 0x0 PUSH2 0xBB9 JUMP JUMPDEST DUP2 PUSH1 0x1 DUP2 EQ PUSH2 0x3578 JUMPI PUSH1 0x2 DUP2 EQ PUSH2 0x3582 JUMPI PUSH2 0x359E JUMP JUMPDEST PUSH1 0x1 SWAP2 POP POP PUSH2 0xBB9 JUMP JUMPDEST PUSH1 0xFF DUP5 GT ISZERO PUSH2 0x3593 JUMPI PUSH2 0x3593 PUSH2 0x3481 JUMP JUMPDEST POP POP PUSH1 0x1 DUP3 SHL PUSH2 0xBB9 JUMP JUMPDEST POP PUSH1 0x20 DUP4 LT PUSH2 0x133 DUP4 LT AND PUSH1 0x4E DUP5 LT PUSH1 0xB DUP5 LT AND OR ISZERO PUSH2 0x35C1 JUMPI POP DUP2 DUP2 EXP PUSH2 0xBB9 JUMP JUMPDEST PUSH2 0x35CB DUP4 DUP4 PUSH2 0x3503 JUMP JUMPDEST DUP1 PUSH1 0x0 NOT DIV DUP3 GT ISZERO PUSH2 0x35DF JUMPI PUSH2 0x35DF PUSH2 0x3481 JUMP JUMPDEST MUL SWAP4 SWAP3 POP POP POP JUMP JUMPDEST PUSH1 0x0 PUSH2 0x330D DUP4 DUP4 PUSH2 0x3546 JUMP JUMPDEST PUSH1 0x0 DUP3 PUSH2 0x3610 JUMPI PUSH4 0x4E487B71 PUSH1 0xE0 SHL PUSH1 0x0 MSTORE PUSH1 0x12 PUSH1 0x4 MSTORE PUSH1 0x24 PUSH1 0x0 REVERT JUMPDEST POP DIV SWAP1 JUMP JUMPDEST PUSH1 0x0 DUP3 DUP3 LT ISZERO PUSH2 0x3627 JUMPI PUSH2 0x3627 PUSH2 0x3481 JUMP JUMPDEST POP SUB SWAP1 JUMP JUMPDEST PUSH4 0x4E487B71 PUSH1 0xE0 SHL PUSH1 0x0 MSTORE PUSH1 0x32 PUSH1 0x4 MSTORE PUSH1 0x24 PUSH1 0x0 REVERT JUMPDEST PUSH1 0x20 DUP1 DUP3 MSTORE PUSH1 0x26 SWAP1 DUP3 ADD MSTORE PUSH32 0x416C72656164792065787069726564206F7220746F6F20636C6F736520746F20 PUSH1 0x40 DUP3 ADD MSTORE PUSH6 0x657870697279 PUSH1 0xD0 SHL PUSH1 0x60 DUP3 ADD MSTORE PUSH1 0x80 ADD SWAP1 JUMP JUMPDEST PUSH1 0x0 PUSH1 0x0 NOT DUP3 EQ ISZERO PUSH2 0x369C JUMPI PUSH2 0x369C PUSH2 0x3481 JUMP JUMPDEST POP PUSH1 0x1 ADD SWAP1 JUMP JUMPDEST PUSH4 0x4E487B71 PUSH1 0xE0 SHL PUSH1 0x0 MSTORE PUSH1 0x31 PUSH1 0x4 MSTORE PUSH1 0x24 PUSH1 0x0 REVERT JUMPDEST PUSH1 0x0 DUP2 PUSH2 0x36C8 JUMPI PUSH2 0x36C8 PUSH2 0x3481 JUMP JUMPDEST POP PUSH1 0x0 NOT ADD SWAP1 JUMP JUMPDEST DUP1 MLOAD PUSH10 0xFFFFFFFFFFFFFFFFFFFF DUP2 AND DUP2 EQ PUSH2 0x32ED JUMPI PUSH1 0x0 DUP1 REVERT JUMPDEST PUSH1 0x0 DUP1 PUSH1 0x0 DUP1 PUSH1 0x0 PUSH1 0xA0 DUP7 DUP9 SUB SLT ISZERO PUSH2 0x3702 JUMPI PUSH1 0x0 DUP1 REVERT JUMPDEST PUSH2 0x370B DUP7 PUSH2 0x36D0 JUMP JUMPDEST SWAP5 POP PUSH1 0x20 DUP7 ADD MLOAD SWAP4 POP PUSH1 0x40 DUP7 ADD MLOAD SWAP3 POP PUSH1 0x60 DUP7 ADD MLOAD SWAP2 POP PUSH2 0x372E PUSH1 0x80 DUP8 ADD PUSH2 0x36D0 JUMP JUMPDEST SWAP1 POP SWAP3 SWAP6 POP SWAP3 SWAP6 SWAP1 SWAP4 POP JUMP JUMPDEST PUSH1 0x0 PUSH1 0x20 DUP3 DUP5 SUB SLT ISZERO PUSH2 0x374C JUMPI PUSH1 0x0 DUP1 REVERT JUMPDEST DUP2 MLOAD PUSH1 0xFF DUP2 AND DUP2 EQ PUSH2 0x330D JUMPI PUSH1 0x0 DUP1 REVERT INVALID LOG2 PUSH5 0x6970667358 0x22 SLT KECCAK256 0x23 0xCA RETURNDATACOPY MLOAD SWAP8 0xDC RETURN 0xB6 POP SWAP15 MULMOD LOG3 PUSH13 0xE6368129E63640A0D0FECDB75F DUP12 0x2B BYTE 0xC3 PUSH12 0xCF64736F6C634300080A0033 ","sha1":"47583a1595fdc2203df2178e7f3d4e67afa4bd66","source":"// SPDX-License-Identifier: MIT\npragma solidity ^0.8.0;\n\nimport \"@openzeppelin/contracts/access/Ownable.sol\";\nimport \"@openzeppelin/contracts/token/ERC20/IERC20.sol\";\nimport \"@chainlink/contracts/src/v0.8/interfaces/AggregatorV3Interface.sol\";\n\ncontract TokenFarm is Ownable {\n    // *********\n    // below is for old contracts\n    // mapping token address -> staker address -> amount\n    mapping(address => mapping(address => uint256)) public stakingBalance;\n    mapping(address => uint256) public uniqueTokensStaked;\n    mapping(address => address) public tokenPriceFeedMapping;\n    address[] public stakers;\n    address[] public allowedTokens;\n    IERC20 public dappToken;\n\n    // ******************\n    // the real contract is from here\n    // to do\n    // 1. sushi\n    // 2. transcation cost\n\n    // uncomment this below if need real ETH price !!!!!!!!\n    //import \"@chainlink/contracts/src/v0.6/interfaces/AggregatorV3Interface.sol\";\n\n    uint256 private constant NO_TRADE_CLOSE_TO_EXPIRE = 10; //seconds\n    uint256 private constant MIN_BUYER_SIZE = 1e2;\n    uint256 private constant MIN_SELLER_SIZE = 1e3;\n    uint256 private constant MIN_DEPOSIT_SIZE = 5e2;\n    uint256 private constant TRANSACTION_COST = 1; // so 1% for each trade or we use a formula\n\n    // prevent two people draw liquidity at same time\n    enum contract_status {\n        open,\n        locked\n    }\n    contract_status private STATUS = contract_status.open;\n\n    //Pricefeed interfaces from chainlink\n    // uncomment this below if need real ETH price !!!!!!!!\n    // AggregatorV3Interface internal ethFeed;\n    uint256 public ethPrice;\n\n    address payable contract_address;\n\n    // store cash balance for each user, not used in any option sub-pool\n    mapping(address => uint256) public cash_balance; // for testing, this value can be negtive, but not allowed in production\n\n    // bid_struct: each bid in bids (bids is the order book for each option)\n    struct bid_struct {\n        uint256 price; // usd per option\n        uint256 size; // number of option x strike\n        address user_id; //user address\n    }\n    // bids[id] is the order book for each option[id]\n    mapping(uint256 => bid_struct[]) public bids;\n\n    // user_struct saves all info for each user\n    enum option_side {\n        not_open,\n        buyer,\n        seller,\n        exercised\n    }\n    struct user_struct {\n        // size: for buyer is number of eth option x strike price he placed\n        // size: for seller is number of eth option x strike price x (1+ yield) on expiry day\n        uint256 size; //in USD,\n        option_side side; //after expiry, re-allocate payoff depends on buyer or seller of option\n        uint256 unusedpremium; //in USD, premium in the pool but not traded, for buyer only\n    }\n    // user[user_address][option-id] is each user\n    mapping(address => mapping(uint256 => user_struct)) public user;\n\n    // option_struct saves info for each option\n    struct option_struct {\n        uint256 strike; //Price in USD, for example 3300\n        uint256 expiry; //Unix timestamp of expiration time, in second\n        uint256 supply; //buyer place bid and seller can sell the bid; supply = number of option x strike\n        uint256[] order; //order book sequence pointer, low bid to high bid, bids[id][order[0]] is the lowest bid\n    }\n    // op[id] is each option\n    option_struct[] public op;\n\n    // ********************\n    // for testing purpose\n    uint256 private id = 0; // for testing we only have one option\n    uint256[] private order_for_test;\n    bid_struct[] private order_book_for_one_option;\n    // settlement_amount is only for testing purples, need to delete in production\n    uint256 public settlement_amount;\n    address public ethAddress;\n\n    // ********************\n\n    //Kovan feeds: https://docs.chain.link/docs/reference-contracts\n    constructor(address _dappTokenAddress, address _ethAddress) public {\n        dappToken = IERC20(_dappTokenAddress);\n\n        //ETH/USD Kovan feed\n        // uncomment this below if need real ETH price !!!!!!!!\n        // ethFeed = AggregatorV3Interface(0x9326BFA02ADD2366b30bacB125260Af641031331);\n        contract_address = payable(address(this));\n\n        // ********************\n        // create fake option for testing\n        option_struct memory option = option_struct({\n            strike: 3300 * 1e18, // in USDC\n            expiry: block.timestamp + 1 days, // 30seconds option, for testing purpose\n            supply: 0, // after buyer place bid, supply will increase, in producation initial value =0\n            order: order_for_test\n        });\n        op.push(option);\n        // for testing purpose i give you fake money to play\n        cash_balance[msg.sender] = 200000;\n        ethAddress = _ethAddress;\n        // ********************\n    }\n\n    function placeBid(uint256 newbid, uint256 premium) public {\n        // buyer place bid order but nothing traded yet\n        // newbid in usd, eth option price\n        address _user = msg.sender;\n        require(\n            op[id].expiry > block.timestamp - NO_TRADE_CLOSE_TO_EXPIRE,\n            \"Already expired or too close to expiry\"\n        );\n        require(\n            user[_user][id].side != option_side.seller,\n            \"seller of option cannot buy\"\n        );\n        require(premium >= MIN_BUYER_SIZE, \"Min size = 100\");\n        require(premium <= cash_balance[_user], \"not enough cash\"); //cash actually sell the balance first\n        // update buyer\n        // btw user.size only updated when seller sell the bid / only when trade\n        user[_user][id].side = option_side.buyer;\n        user[_user][id].unusedpremium += premium; //premium not used if seller not selling it\n        cash_balance[_user] -= premium;\n\n        // update option supply\n        // below line convert the same unit as option seller, ie: number of eth option x strike price (not number of eth option x ethPrice)\n        // 1x of dual contract needs: ethPrice/stirke size of option to hedge; size/strike > size/current spot!\n        // Warnning below line: first multiply then divide to keep precision\n        uint256 _size = (premium * op[id].strike) / newbid;\n        op[id].supply += _size;\n\n        // update order book\n        bids[id].push(bid_struct(newbid, _size, _user));\n        if (op[id].order.length == 0) {\n            op[id].order.push(bids[id].length - 1);\n        } else {\n            insertBid(newbid);\n        }\n    }\n\n    function cancelBid() public {\n        // to make it easy, cancel all bids for testing stage\n        // can make it cancel specific bid, but need more coding\n        address payable _user = payable(msg.sender);\n        require(\n            STATUS == contract_status.open,\n            \"contract busy, try again later\"\n        );\n        require(\n            user[_user][id].side == option_side.buyer,\n            \"you need to buy option first\"\n        );\n        require(\n            user[_user][id].unusedpremium > 0,\n            \"your oder has been filled or cancelled\"\n        );\n        STATUS = contract_status.locked;\n        // update buyer\n        //_user.transfer(user[_user][id].unusedpremium);\n        cash_balance[_user] += user[_user][id].unusedpremium;\n        user[_user][id].unusedpremium = 0;\n\n        // update order book and option supply\n        uint256[] memory old_order = op[id].order;\n        uint256 k = 0;\n        for (uint256 i = 0; i < old_order.length; i++) {\n            if (bids[id][old_order[i]].user_id != _user) {\n                // if this bid is not from this user\n                op[id].order[k] = old_order[i];\n                // k = how many bids we need to keep\n                k++;\n            } else {\n                op[id].supply -= bids[id][old_order[i]].size;\n            }\n        }\n        for (uint256 i = 0; i < old_order.length - k; i++) {\n            op[id].order.pop();\n        }\n        STATUS = contract_status.open;\n    }\n\n    function sellBid(uint256 seller_size) public {\n        // seller size is in usd, full notional / collateral collected\n        // seller option == buyer dual conntract!\n        address _user = msg.sender;\n        require(op[id].order.length > 0, \"cannot sell if there is no bid\");\n        require(\n            op[id].expiry > block.timestamp - NO_TRADE_CLOSE_TO_EXPIRE,\n            \"Already expired or too close to expiry\"\n        );\n        require(\n            user[_user][id].side != option_side.buyer,\n            \"buyer of option cannot sell\"\n        );\n        require(seller_size >= MIN_SELLER_SIZE, \"Min size = 1000\");\n        require(seller_size <= op[id].supply, \"low supply\");\n        require(seller_size <= cash_balance[_user], \"not enough cash\"); //cash actually sell the balance first\n        cash_balance[_user] -= seller_size;\n\n        // update order book\n        uint256 remain = seller_size;\n        uint256 sizexprice = 0;\n        uint256 each_size;\n        uint256 i = op[id].order.length - 1;\n        // sell multiple bids to have enough size\n        while (remain > 0) {\n            each_size = bids[id][op[id].order[i]].size;\n            if (remain >= each_size) {\n                // update buyer\n                user[bids[id][op[id].order[i]].user_id][id].size += each_size;\n                user[bids[id][op[id].order[i]].user_id][id]\n                    .unusedpremium -= ((each_size *\n                    bids[id][op[id].order[i]].price) / op[id].strike);\n                // update seller\n                sizexprice += (each_size * bids[id][op[id].order[i]].price);\n                // update option\n                op[id].supply -= each_size;\n                // update order book\n                bids[id][op[id].order[i]].size = 0;\n                // last one is the highest one, pop the highest bid\n                op[id].order.pop();\n                remain -= each_size;\n            } else {\n                // update buyer\n                user[bids[id][op[id].order[i]].user_id][id].size += remain;\n                user[bids[id][op[id].order[i]].user_id][id]\n                    .unusedpremium -= ((remain *\n                    bids[id][op[id].order[i]].price) / op[id].strike);\n                // update seller\n                sizexprice += (remain * bids[id][op[id].order[i]].price);\n                // update option\n                op[id].supply -= remain;\n                // update order book\n                bids[id][op[id].order[i]].size -= remain;\n                remain = 0;\n            }\n            i--;\n        }\n        // update seller\n        getEthPrice();\n        //expiry = (sizexprice / seller_size / ethPrice + 1 )x seller_size\n        user[_user][id].size += ((sizexprice + seller_size * ethPrice) /\n            ethPrice);\n        user[_user][id].side = option_side.seller;\n    }\n\n    function getBestBid(uint256 seller_size)\n        public\n        view\n        returns (uint256 average_bid)\n    {\n        // same logic as sellOption Function but not updating options and users\n        require(op[id].order.length > 0, \"cannot sell if there is no bid\");\n        require(seller_size >= MIN_SELLER_SIZE, \"min size = 1000\");\n        require(seller_size <= op[id].supply, \"low supply\");\n        uint256 remain = seller_size;\n        uint256 sizexprice = 0;\n        uint256 each_bid_amount;\n        uint256 i = op[id].order.length - 1;\n        while (remain > 0) {\n            each_bid_amount = bids[id][op[id].order[i]].size;\n            if (remain >= each_bid_amount) {\n                sizexprice += (each_bid_amount *\n                    bids[id][op[id].order[i]].price);\n                remain -= each_bid_amount;\n            } else {\n                sizexprice += (remain * bids[id][op[id].order[i]].price);\n                remain = 0;\n            }\n            i--;\n        }\n        average_bid = sizexprice / seller_size;\n        return average_bid;\n    }\n\n    function exercise() public {\n        // for testing purpose please set a fake eth price\n        address _user = msg.sender;\n        option_side _side = user[_user][id].side;\n        require(\n            _side == option_side.seller || _side == option_side.buyer,\n            \"You have no position\"\n        );\n        require(\n            op[id].expiry <= block.timestamp,\n            \"Cannot exercise before expiry\"\n        );\n        require(_side != option_side.exercised, \"You already excercised \");\n        uint256 _size = user[_user][id].size;\n        uint256 _strike = op[id].strike;\n        if (_side == option_side.buyer) {\n            require(_size > 0, \"No one sell your bid and nothing to expire\");\n            require(ethPrice < _strike, \"Expire worth zero\");\n            if (user[_user][id].unusedpremium > 0) {\n                cancelBid();\n            }\n        }\n        if (_side == option_side.seller) {\n            if (ethPrice < _strike) {\n                // Be very careful!!!!!!!!!!!!\n                // NEED to transfer/sushi USD into ETH here !!! below is ETH amount!!!\n                //_user.transfer(_size / _strike);\n                cash_balance[_user] += _size / _strike;\n                // please delete below line later\n                settlement_amount = _size / _strike;\n            } else {\n                //_user.transfer(_size);\n                cash_balance[_user] += _size;\n                // please delete below line later\n                settlement_amount = _size;\n            }\n        } else {\n            if (ethPrice < _strike) {\n                // below is for cash settlement in usd\n                // noted: when we record buyer size = usd_collected / %price * strike / ethPrice\n                //_user.transfer((_size * (_strike - ethPrice)) / _strike);\n                cash_balance[_user] += ((_size * (_strike - ethPrice)) /\n                    _strike);\n                // please delete below line later\n                settlement_amount = (_size * (_strike - ethPrice)) / _strike;\n            } // else do nothing: expire worth zero\n        }\n        user[_user][id].side = option_side.exercised;\n    }\n\n    function insertBid(uint256 newbid) internal {\n        // insert the newbid in to bids according to the newbid level, lowest bid at 0 position\n        uint256 left = 0;\n        uint256 right = op[id].order.length - 1;\n        uint256 mid;\n\n        // binary tree insert\n        while (left < right) {\n            mid = (left + right) / 2;\n            if (newbid > bids[id][op[id].order[mid]].price) {\n                left = mid + 1;\n            } else {\n                right = mid;\n            }\n        }\n        // when loop ends:\n        // if left > right mid is correct position to insert\n        // if left == right, need to compare once more with right\n        if (left == right) {\n            if (newbid > bids[id][op[id].order[left]].price) {\n                mid = left + 1;\n            } else {\n                mid = left;\n            }\n        }\n        // first push the pointer of newbid /last one of bids into the order array\n        op[id].order.push(bids[id].length - 1);\n        if (mid < op[id].order.length - 1) {\n            for (uint256 i = op[id].order.length - 1; i > mid; i--) {\n                // copy the old value to the right next one\n                op[id].order[i] = op[id].order[i - 1];\n            }\n            // insert the pointer(aka order) of newbid\n            op[id].order[mid] = bids[id].length - 1;\n        } // else if mid == order.lenghth, newbid is highest and already been pushed to the last one of order\n    }\n\n    //Returns the latest ETH price\n    function getEthPrice() public {\n        // uncomment this below if need real ETH price !!!!!!!!\n        //(\n        //    uint80 roundID,\n        //    int256 price,\n        //    uint startedAt,\n        //    uint timeStamp,\n        //    uint80 answeredInRound\n        //) = ethFeed.latestRoundData();\n        //// If the round is not complete yet, timestamp is 0\n        //require(timeStamp > 0, \"Round not complete\");\n        ////Price should never be negative thus cast int to unit is ok\n        ////Price is 8 decimal places and will require 1e10 correction later to 18 places\n        //ethPrice = uint256(price);\n        //ethPrice = 3799;\n        (uint256 price, uint256 decimals) = getTokenValue(ethAddress);\n        ethPrice = price * 1e10;\n    }\n\n    function deposit() public payable {\n        require(msg.value >= MIN_DEPOSIT_SIZE, \"Min size = 500\");\n        cash_balance[msg.sender] += msg.value;\n    }\n\n    function PoolBalance() public view returns (uint256) {\n        return (contract_address.balance);\n    }\n\n    function getOrder() public view returns (uint256[] memory) {\n        return op[id].order;\n    }\n\n    function userBalance(address _user) public view returns (uint256) {\n        return cash_balance[_user];\n    }\n\n    function userUnusedPremium(address _user) public view returns (uint256) {\n        return user[_user][id].unusedpremium;\n    }\n\n    function userSize(address _user) public view returns (uint256) {\n        return user[_user][id].size / op[id].strike;\n    }\n\n    function getSupply() public view returns (uint256) {\n        return op[id].supply;\n    }\n\n    function getETH() public view returns (uint256) {\n        (uint256 price, uint256 decimals) = getTokenValue(ethAddress);\n        return price * 1e10;\n    }\n\n    function SecondToExpiry() public view returns (uint256) {\n        return (op[id].expiry - block.timestamp);\n    }\n\n    function setFakeETH(uint256 _eth) public {\n        ethPrice = _eth;\n    }\n\n    function createFakeBuyer() private {\n        // for testing only, we create an option with some supply\n        // only use before before placeBid, otherwise order will be wrong!!!\n        address fake_user = 0xCA35b7d915458EF540aDe6068dFe2F44E8fa733c;\n        order_book_for_one_option.push(bid_struct(330, 1650, fake_user));\n        order_book_for_one_option.push(bid_struct(396, 1320, fake_user));\n        order_book_for_one_option.push(bid_struct(132, 6600, fake_user));\n        order_book_for_one_option.push(bid_struct(198, 16500, fake_user));\n        bids[id] = order_book_for_one_option;\n        user[fake_user][id].side = option_side.buyer;\n        user[fake_user][id].unusedpremium += 709;\n        op[id].supply += 26070;\n        op[id].order = [2, 3, 0, 1];\n        cash_balance[fake_user] = 100000;\n    }\n\n    // **************************\n    // we only need stake and unstake for now\n\n    function stakeTokens(uint256 _amount, address _token) public {\n        require(_amount > 0, \"Amount must be more than 0\");\n        require(tokenIsAllowed(_token), \"Token is currently no allowed\");\n        IERC20(_token).transferFrom(msg.sender, address(this), _amount);\n        updateUniqueTokensStaked(msg.sender, _token);\n        stakingBalance[_token][msg.sender] =\n            stakingBalance[_token][msg.sender] +\n            _amount;\n        if (uniqueTokensStaked[msg.sender] == 1) {\n            stakers.push(msg.sender);\n        }\n        cash_balance[msg.sender] += getUserSingleTokenValue(msg.sender, _token);\n    }\n\n    function unstakeTokens(address _token) public {\n        uint256 balance = stakingBalance[_token][msg.sender];\n        require(balance > 0, \"Cash balance cannot be 0\");\n        IERC20(_token).transfer(msg.sender, balance);\n        cash_balance[msg.sender] -= getUserSingleTokenValue(msg.sender, _token);\n        stakingBalance[_token][msg.sender] = 0;\n        uniqueTokensStaked[msg.sender] = uniqueTokensStaked[msg.sender] - 1;\n    }\n\n    // **************************\n    // below is just supportive functions we dont really need\n\n    function viewStakedToken(address _token) public returns (uint256) {\n        // this is useless btw...\n        uint256 balance = stakingBalance[_token][msg.sender];\n        return stakingBalance[_token][msg.sender];\n    }\n\n    function updateUniqueTokensStaked(address _user, address _token) internal {\n        if (stakingBalance[_token][_user] <= 0) {\n            uniqueTokensStaked[_user] = uniqueTokensStaked[_user] + 1;\n        }\n    }\n\n    function addAllowedTokens(address _token) public onlyOwner {\n        allowedTokens.push(_token);\n    }\n\n    function tokenIsAllowed(address _token) public returns (bool) {\n        for (\n            uint256 allowedTokensIndex = 0;\n            allowedTokensIndex < allowedTokens.length;\n            allowedTokensIndex++\n        ) {\n            if (allowedTokens[allowedTokensIndex] == _token) {\n                return true;\n            }\n        }\n        return false;\n    }\n\n    function setPriceFeedContract(address _token, address _priceFeed)\n        public\n        onlyOwner\n    {\n        tokenPriceFeedMapping[_token] = _priceFeed;\n    }\n\n    function issueTokens() public onlyOwner {\n        // Issue tokens to all stakers\n        for (\n            uint256 stakersIndex = 0;\n            stakersIndex < stakers.length;\n            stakersIndex++\n        ) {\n            address recipient = stakers[stakersIndex];\n            uint256 userTotalValue = getUserTotalValue(recipient);\n            dappToken.transfer(recipient, userTotalValue);\n        }\n    }\n\n    function getUserTotalValue(address _user) public view returns (uint256) {\n        uint256 totalValue = 0;\n        require(uniqueTokensStaked[_user] > 0, \"No tokens staked!\");\n        for (\n            uint256 allowedTokensIndex = 0;\n            allowedTokensIndex < allowedTokens.length;\n            allowedTokensIndex++\n        ) {\n            totalValue =\n                totalValue +\n                getUserSingleTokenValue(\n                    _user,\n                    allowedTokens[allowedTokensIndex]\n                );\n        }\n        return totalValue;\n    }\n\n    function getUserSingleTokenValue(address _user, address _token)\n        public\n        view\n        returns (uint256)\n    {\n        if (uniqueTokensStaked[_user] <= 0) {\n            return 0;\n        }\n        // price of the token * stakingBalance[_token][user]\n        (uint256 price, uint256 decimals) = getTokenValue(_token);\n        return // 10000000000000000000 ETH\n        // ETH/USD -> 10000000000\n        // 10 * 100 = 1,000\n        ((stakingBalance[_token][_user] * price) / (10**decimals));\n    }\n\n    function getTokenValue(address _token)\n        public\n        view\n        returns (uint256, uint256)\n    {\n        // priceFeedAddress\n        address priceFeedAddress = tokenPriceFeedMapping[_token];\n        AggregatorV3Interface priceFeed = AggregatorV3Interface(\n            priceFeedAddress\n        );\n        (, int256 price, , , ) = priceFeed.latestRoundData();\n        uint256 decimals = uint256(priceFeed.decimals());\n        return (uint256(price), decimals);\n    }\n}\n","sourcePath":"contracts/TokenFarm.sol","type":"contract","deployment":{"address":"0x3A551eA9a1D534008807B452472e77B6e51B27e5","chainid":"42","blockHeight":29162839}}