{"bytecode":"60806040526006805460ff60a01b191690556000600d553480156200002357600080fd5b506040516200394a3803806200394a8339810160408190526200004691620002e4565b620000513362000210565b600680546001600160a01b0384166001600160a01b03199182161790915560088054909116301790556040805160808101909152610ce48152600090602081016200009e42603c6200031c565b815260200160008152602001600e805480602002602001604051908101604052809291908181526020018280548015620000f857602002820191906000526020600020905b815481526020019060010190808311620000e3575b505050919092525050600c8054600181018255600091909152815160049091027fdf6966c971051c3d54ec59162606531493a51404a002842f56009d7e5cf4a8c781019182556020808401517fdf6966c971051c3d54ec59162606531493a51404a002842f56009d7e5cf4a8c883015560408401517fdf6966c971051c3d54ec59162606531493a51404a002842f56009d7e5cf4a8c9830155606084015180519495508594620001d0937fdf6966c971051c3d54ec59162606531493a51404a002842f56009d7e5cf4a8ca0192919091019062000260565b505033600090815260096020526040902062030d4090555050601180546001600160a01b0319166001600160a01b03929092169190911790555062000343565b600080546001600160a01b038381166001600160a01b0319831681178455604051919092169283917f8be0079c531659141344cd1fd0a4f28419497f9722a3daafe3b4186f6b6457e09190a35050565b8280548282559060005260206000209081019282156200029e579160200282015b828111156200029e57825182559160200191906001019062000281565b50620002ac929150620002b0565b5090565b5b80821115620002ac5760008155600101620002b1565b80516001600160a01b0381168114620002df57600080fd5b919050565b60008060408385031215620002f857600080fd5b6200030383620002c7565b91506200031360208401620002c7565b90509250929050565b600082198211156200033e57634e487b7160e01b600052601160045260246000fd5b500190565b6135f780620003536000396000f3fe6080604052600436106102305760003560e01c8063704bba691161012e578063d0e30db0116100ab578063f1c5d6c21161006f578063f1c5d6c21461072f578063f2fde38b14610764578063f670235614610784578063fd5e6dd1146107b1578063ff186b2e146107d157600080fd5b8063d0e30db0146106a0578063d32cb0fe146106a8578063d36dedd2146106bd578063dd5b8467146106df578063f14e96f11461070f57600080fd5b8063877dd39d116100f2578063877dd39d146106005780638da5cb5b146106205780639435c8871461063e578063af3f5e2214610653578063b83e02341461067357600080fd5b8063704bba691461055c578063715018a61461057c5780637b3889e7146105915780637b3c4baa146105a75780637e7f320d146105eb57600080fd5b806329161a00116101bc57806357c90de51161018057806357c90de5146104cf5780635e5f2e26146104ef5780635eb186f81461050f57806360ab58521461052f57806367c9b0171461054457600080fd5b806329161a00146103db5780632d1ad8b814610413578063387eadae1461043357806341398b151461046e5780634f0dcd391461048e57600080fd5b806316ed0f721161020357806316ed0f721461030e578063171e44ea1461032e5780631be0819c1461034e578063276b11da1461036d57806327927b3e1461038d57600080fd5b80630103c92b146102355780630bea440d1461027e57806314f6c3be146102a057806314feaa9d146102b5575b600080fd5b34801561024157600080fd5b5061026b610250366004613156565b6001600160a01b031660009081526009602052604090205490565b6040519081526020015b60405180910390f35b34801561028a57600080fd5b5061029e610299366004613178565b6107e7565b005b3480156102ac57600080fd5b5061026b6109f2565b3480156102c157600080fd5b506102ff6102d03660046131a4565b600b602090815260009283526040808420909152908252902080546001820154600290920154909160ff169083565b604051610275939291906131e4565b34801561031a57600080fd5b5061029e61032936600461321a565b600755565b34801561033a57600080fd5b5061029e610349366004613156565b610a16565b34801561035a57600080fd5b506008546001600160a01b03163161026b565b34801561037957600080fd5b5061026b610388366004613233565b610a92565b34801561039957600080fd5b506103c36103a8366004613156565b6003602052600090815260409020546001600160a01b031681565b6040516001600160a01b039091168152602001610275565b3480156103e757600080fd5b5061026b6103f6366004613233565b600160209081526000928352604080842090915290825290205481565b34801561041f57600080fd5b5061029e61042e366004613156565b610b19565b34801561043f57600080fd5b5061045361044e36600461321a565b610c35565b60408051938452602084019290925290820152606001610275565b34801561047a57600080fd5b506011546103c3906001600160a01b031681565b34801561049a57600080fd5b5061026b6104a9366004613156565b6001600160a01b0316600090815260016020908152604080832033845290915290205490565b3480156104db57600080fd5b5061029e6104ea36600461325d565b610c68565b3480156104fb57600080fd5b506103c361050a36600461321a565b610ff5565b34801561051b57600080fd5b506006546103c3906001600160a01b031681565b34801561053b57600080fd5b5061029e61101f565b34801561055057600080fd5b5061029e610ed7600755565b34801561056857600080fd5b5061029e61057736600461321a565b61111c565b34801561058857600080fd5b5061029e611c5e565b34801561059d57600080fd5b5061026b60105481565b3480156105b357600080fd5b506105c76105c236600461325d565b611c94565b6040805193845260208401929092526001600160a01b031690820152606001610275565b3480156105f757600080fd5b5061026b611cdf565b34801561060c57600080fd5b5061029e61061b366004613233565b611d18565b34801561062c57600080fd5b506000546001600160a01b03166103c3565b34801561064a57600080fd5b5061029e611d70565b34801561065f57600080fd5b5061026b61066e366004613156565b6121f8565b34801561067f57600080fd5b5061026b61068e366004613156565b60026020526000908152604090205481565b61029e6122b6565b3480156106b457600080fd5b5061029e61231f565b3480156106c957600080fd5b506106d2612733565b604051610275919061327f565b3480156106eb57600080fd5b506106ff6106fa366004613156565b6127af565b6040519015158152602001610275565b34801561071b57600080fd5b5061026b61072a36600461321a565b612819565b34801561073b57600080fd5b5061074f61074a366004613156565b612b57565b60408051928352602083019190915201610275565b34801561077057600080fd5b5061029e61077f366004613156565b612c58565b34801561079057600080fd5b5061026b61079f366004613156565b60096020526000908152604090205481565b3480156107bd57600080fd5b506103c36107cc36600461321a565b612cf0565b3480156107dd57600080fd5b5061026b60075481565b6000821161083c5760405162461bcd60e51b815260206004820152601a60248201527f416d6f756e74206d757374206265206d6f7265207468616e203000000000000060448201526064015b60405180910390fd5b610845816127af565b6108915760405162461bcd60e51b815260206004820152601d60248201527f546f6b656e2069732063757272656e746c79206e6f20616c6c6f7765640000006044820152606401610833565b6040516323b872dd60e01b8152336004820152306024820152604481018390526001600160a01b038216906323b872dd906064016020604051808303816000875af11580156108e4573d6000803e3d6000fd5b505050506040513d601f19601f8201168201806040525081019061090891906132c3565b506109133382612d00565b6001600160a01b03811660009081526001602090815260408083203384529091529020546109429083906132fb565b6001600160a01b0382166000908152600160208181526040808420338552825280842094909455600290529190205414156109ba57600480546001810182556000919091527f8a35acfbc15ff81a39ae7d344fd709f28e8600b4aa8c65c6b64bfe7fe36bd19b0180546001600160a01b031916331790555b6109c43382610a92565b336000908152600960205260409020546109de91906132fb565b336000908152600960205260409020555050565b60115460009081908190610a0e906001600160a01b0316612b57565b509392505050565b6000546001600160a01b03163314610a405760405162461bcd60e51b815260040161083390613313565b600580546001810182556000919091527f036b6384b5eca791c62761152d0c79bb0604c104a5fb6f4eb0703f3154bb3db00180546001600160a01b0319166001600160a01b0392909216919091179055565b6001600160a01b038216600090815260026020526040812054610ab757506000610b13565b600080610ac384612b57565b9092509050610ad381600a61342c565b6001600160a01b038086166000908152600160209081526040808320938a1683529290522054610b04908490613438565b610b0e9190613457565b925050505b92915050565b3360009081526009602052604090205480610b765760405162461bcd60e51b815260206004820152601860248201527f436173682062616c616e63652063616e6e6f74206265203000000000000000006044820152606401610833565b60405163a9059cbb60e01b8152336004820152602481018290526001600160a01b0383169063a9059cbb906044016020604051808303816000875af1158015610bc3573d6000803e3d6000fd5b505050506040513d601f19601f82011682018060405250810190610be791906132c3565b506001600160a01b03821660009081526001602081815260408084203385528252808420849055600290915290912054610c219190613479565b336000908152600260205260409020555050565b600c8181548110610c4557600080fd5b600091825260209091206004909102018054600182015460029092015490925083565b33610c74600a42613479565b600c600d5481548110610c8957610c89613490565b90600052602060002090600402016001015411610cb85760405162461bcd60e51b8152600401610833906134a6565b60026001600160a01b0382166000908152600b60209081526040808320600d54845290915290206001015460ff166003811115610cf757610cf76131ce565b1415610d455760405162461bcd60e51b815260206004820152601b60248201527f73656c6c6572206f66206f7074696f6e2063616e6e6f742062757900000000006044820152606401610833565b6064821015610d875760405162461bcd60e51b815260206004820152600e60248201526d04d696e2073697a65203d203130360941b6044820152606401610833565b6001600160a01b038116600090815260096020526040902054821115610de15760405162461bcd60e51b815260206004820152600f60248201526e0dcdee840cadcdeeaced040c6c2e6d608b1b6044820152606401610833565b6001600160a01b0381166000908152600b60209081526040808320600d8054855292528083206001908101805460ff191690911790559054825281206002018054849290610e309084906132fb565b90915550506001600160a01b03811660009081526009602052604081208054849290610e5d908490613479565b92505081905550600083600c600d5481548110610e7c57610e7c613490565b90600052602060002090600402016000015484610e999190613438565b610ea39190613457565b905080600c600d5481548110610ebb57610ebb613490565b90600052602060002090600402016002016000828254610edb91906132fb565b9091555050600d80546000908152600a6020908152604080832081516060810183528981528084018781526001600160a01b038981169483019485528354600180820186559488529590962091516003909502909101938455519083015551600290910180546001600160a01b0319169190921617905554600c80549091908110610f6857610f68613490565b6000918252602090912060036004909202010154610fe657600c600d5481548110610f9557610f95613490565b90600052602060002090600402016003016001600a6000600d54815260200190815260200160002080549050610fcb9190613479565b81546001810183556000928352602090922090910155610fef565b610fef84612d6c565b50505050565b6005818154811061100557600080fd5b6000918252602090912001546001600160a01b0316905081565b6000546001600160a01b031633146110495760405162461bcd60e51b815260040161083390613313565b60005b6004548110156111195760006004828154811061106b5761106b613490565b60009182526020822001546001600160a01b0316915061108a826121f8565b60065460405163a9059cbb60e01b81526001600160a01b0385811660048301526024820184905292935091169063a9059cbb906044016020604051808303816000875af11580156110df573d6000803e3d6000fd5b505050506040513d601f19601f8201168201806040525081019061110391906132c3565b5050508080611111906134ec565b91505061104c565b50565b60003390506000600c600d548154811061113857611138613490565b9060005260206000209060040201600301805490501161119a5760405162461bcd60e51b815260206004820152601e60248201527f63616e6e6f742073656c6c206966207468657265206973206e6f2062696400006044820152606401610833565b6111a5600a42613479565b600c600d54815481106111ba576111ba613490565b906000526020600020906004020160010154116111e95760405162461bcd60e51b8152600401610833906134a6565b60016001600160a01b0382166000908152600b60209081526040808320600d54845290915290206001015460ff166003811115611228576112286131ce565b14156112765760405162461bcd60e51b815260206004820152601b60248201527f6275796572206f66206f7074696f6e2063616e6e6f742073656c6c00000000006044820152606401610833565b6103e88210156112ba5760405162461bcd60e51b815260206004820152600f60248201526e04d696e2073697a65203d203130303608c1b6044820152606401610833565b600c600d54815481106112cf576112cf613490565b90600052602060002090600402016002015482111561131d5760405162461bcd60e51b815260206004820152600a6024820152696c6f7720737570706c7960b01b6044820152606401610833565b6001600160a01b0381166000908152600960205260409020548211156113775760405162461bcd60e51b815260206004820152600f60248201526e0dcdee840cadcdeeaced040c6c2e6d608b1b6044820152606401610833565b6001600160a01b0381166000908152600960205260408120805484929061139f908490613479565b925050819055506000829050600080806001600c600d54815481106113c6576113c6613490565b9060005260206000209060040201600301805490506113e59190613479565b90505b8315611bbc57600d546000818152600a60205260409020600c805491929091811061141557611415613490565b9060005260206000209060040201600301828154811061143757611437613490565b90600052602060002001548154811061145257611452613490565b906000526020600020906003020160010154915081841061183257600d546000818152600a60205260408120600c80548694600b94939291811061149857611498613490565b906000526020600020906004020160030185815481106114ba576114ba613490565b9060005260206000200154815481106114d5576114d5613490565b60009182526020808320600260039093020191909101546001600160a01b031683528281019390935260409182018120600d5482529092528120805490919061151f9084906132fb565b92505081905550600c600d548154811061153b5761153b613490565b906000526020600020906004020160000154600a6000600d548152602001908152602001600020600c600d548154811061157757611577613490565b9060005260206000209060040201600301838154811061159957611599613490565b9060005260206000200154815481106115b4576115b4613490565b906000526020600020906003020160000154836115d19190613438565b6115db9190613457565b600d546000818152600a60205260408120600c8054600b9490811061160257611602613490565b9060005260206000209060040201600301858154811061162457611624613490565b90600052602060002001548154811061163f5761163f613490565b6000918252602080832060026003909302018201546001600160a01b031684528381019490945260409283018220600d548352909352908120909101805490919061168b908490613479565b9091555050600d546000818152600a60205260409020600c80549192909181106116b7576116b7613490565b906000526020600020906004020160030182815481106116d9576116d9613490565b9060005260206000200154815481106116f4576116f4613490565b906000526020600020906003020160000154826117119190613438565b61171b90846132fb565b925081600c600d548154811061173357611733613490565b906000526020600020906004020160020160008282546117539190613479565b9091555050600d546000818152600a60205260408120600c805492939192909190811061178257611782613490565b906000526020600020906004020160030183815481106117a4576117a4613490565b9060005260206000200154815481106117bf576117bf613490565b906000526020600020906003020160010181905550600c600d54815481106117e9576117e9613490565b906000526020600020906004020160030180548061180957611809613507565b60019003818190600052602060002001600090559055818461182b9190613479565b9350611baa565b600d546000818152600a60205260408120600c80548894600b94939291811061185d5761185d613490565b9060005260206000209060040201600301858154811061187f5761187f613490565b90600052602060002001548154811061189a5761189a613490565b60009182526020808320600260039093020191909101546001600160a01b031683528281019390935260409182018120600d548252909252812080549091906118e49084906132fb565b92505081905550600c600d548154811061190057611900613490565b906000526020600020906004020160000154600a6000600d548152602001908152602001600020600c600d548154811061193c5761193c613490565b9060005260206000209060040201600301838154811061195e5761195e613490565b90600052602060002001548154811061197957611979613490565b906000526020600020906003020160000154856119969190613438565b6119a09190613457565b600d546000818152600a60205260408120600c8054600b949081106119c7576119c7613490565b906000526020600020906004020160030185815481106119e9576119e9613490565b906000526020600020015481548110611a0457611a04613490565b6000918252602080832060026003909302018201546001600160a01b031684528381019490945260409283018220600d5483529093529081209091018054909190611a50908490613479565b9091555050600d546000818152600a60205260409020600c8054919290918110611a7c57611a7c613490565b90600052602060002090600402016003018281548110611a9e57611a9e613490565b906000526020600020015481548110611ab957611ab9613490565b90600052602060002090600302016000015484611ad69190613438565b611ae090846132fb565b925083600c600d5481548110611af857611af8613490565b90600052602060002090600402016002016000828254611b189190613479565b9091555050600d546000818152600a60205260409020600c80548793908110611b4357611b43613490565b90600052602060002090600402016003018381548110611b6557611b65613490565b906000526020600020015481548110611b8057611b80613490565b90600052602060002090600302016001016000828254611ba09190613479565b9091555060009450505b80611bb48161351d565b9150506113e8565b611bc7610ed7600755565b600754611bd48188613438565b611bde90856132fb565b611be89190613457565b6001600160a01b0386166000908152600b60209081526040808320600d54845290915281208054909190611c1d9084906132fb565b909155505050506001600160a01b03929092166000908152600b60209081526040808320600d5484529091529020600101805460ff19166002179055505050565b6000546001600160a01b03163314611c885760405162461bcd60e51b815260040161083390613313565b611c9260006130ea565b565b600a6020528160005260406000208181548110611cb057600080fd5b60009182526020909120600390910201805460018201546002909201549093509091506001600160a01b031683565b600042600c600d5481548110611cf757611cf7613490565b906000526020600020906004020160010154611d139190613479565b905090565b6000546001600160a01b03163314611d425760405162461bcd60e51b815260040161083390613313565b6001600160a01b03918216600090815260036020526040902080546001600160a01b03191691909216179055565b336000600654600160a01b900460ff166001811115611d9157611d916131ce565b14611dde5760405162461bcd60e51b815260206004820152601e60248201527f636f6e747261637420627573792c2074727920616761696e206c6174657200006044820152606401610833565b60016001600160a01b0382166000908152600b60209081526040808320600d54845290915290206001015460ff166003811115611e1d57611e1d6131ce565b14611e6a5760405162461bcd60e51b815260206004820152601c60248201527f796f75206e65656420746f20627579206f7074696f6e206669727374000000006044820152606401610833565b6001600160a01b0381166000908152600b60209081526040808320600d548452909152902060020154611eee5760405162461bcd60e51b815260206004820152602660248201527f796f7572206f64657220686173206265656e2066696c6c6564206f722063616e60448201526518d95b1b195960d21b6064820152608401610833565b6006805460ff60a01b1916600160a01b1790556001600160a01b0381166000818152600b60209081526040808320600d548452825280832060020154938352600990915281208054909190611f449084906132fb565b90915550506001600160a01b0381166000908152600b60209081526040808320600d805485529252822060020182905554600c80549091908110611f8a57611f8a613490565b9060005260206000209060040201600301805480602002602001604051908101604052809291908181526020018280548015611fe557602002820191906000526020600020905b815481526020019060010190808311611fd1575b505050505090506000805b825181101561216f57836001600160a01b0316600a6000600d54815260200190815260200160002084838151811061202a5761202a613490565b60200260200101518154811061204257612042613490565b60009182526020909120600260039092020101546001600160a01b0316146120d35782818151811061207657612076613490565b6020026020010151600c600d548154811061209357612093613490565b906000526020600020906004020160030183815481106120b5576120b5613490565b600091825260209091200155816120cb816134ec565b92505061215d565b600d546000908152600a6020526040902083518490839081106120f8576120f8613490565b60200260200101518154811061211057612110613490565b906000526020600020906003020160010154600c600d548154811061213757612137613490565b906000526020600020906004020160020160008282546121579190613479565b90915550505b80612167816134ec565b915050611ff0565b5060005b8183516121809190613479565b8110156121e557600c600d548154811061219c5761219c613490565b90600052602060002090600402016003018054806121bc576121bc613507565b6001900381819060005260206000200160009055905580806121dd906134ec565b915050612173565b50506006805460ff60a01b191690555050565b6001600160a01b03811660009081526002602052604081205481906122535760405162461bcd60e51b81526020600482015260116024820152704e6f20746f6b656e73207374616b65642160781b6044820152606401610833565b60005b6005548110156122af57612291846005838154811061227757612277613490565b6000918252602090912001546001600160a01b0316610a92565b61229b90836132fb565b9150806122a7816134ec565b915050612256565b5092915050565b6101f43410156122f95760405162461bcd60e51b815260206004820152600e60248201526d04d696e2073697a65203d203530360941b6044820152606401610833565b33600090815260096020526040812080543492906123189084906132fb565b9091555050565b336000818152600b60209081526040808320600d54845290915290206001015460ff166002816003811115612356576123566131ce565b148061237357506001816003811115612371576123716131ce565b145b6123b65760405162461bcd60e51b81526020600482015260146024820152732cb7ba903430bb32903737903837b9b4ba34b7b760611b6044820152606401610833565b42600c600d54815481106123cc576123cc613490565b906000526020600020906004020160010154111561242c5760405162461bcd60e51b815260206004820152601d60248201527f43616e6e6f74206578657263697365206265666f7265206578706972790000006044820152606401610833565b6003816003811115612440576124406131ce565b141561248e5760405162461bcd60e51b815260206004820152601760248201527f596f7520616c72656164792065786365726369736564200000000000000000006044820152606401610833565b6001600160a01b0382166000908152600b60209081526040808320600d548085529252822054600c8054919392909181106124cb576124cb613490565b6000918252602090912060049091020154905060018360038111156124f2576124f26131ce565b14156125d6576000821161255b5760405162461bcd60e51b815260206004820152602a60248201527f4e6f206f6e652073656c6c20796f75722062696420616e64206e6f7468696e6760448201526920746f2065787069726560b01b6064820152608401610833565b80600754106125a05760405162461bcd60e51b815260206004820152601160248201527045787069726520776f727468207a65726f60781b6044820152606401610833565b6001600160a01b0384166000908152600b60209081526040808320600d548452909152902060020154156125d6576125d6611d70565b60028360038111156125ea576125ea6131ce565b141561267b57806007541015612644576126048183613457565b6001600160a01b0385166000908152600960205260408120805490919061262c9084906132fb565b9091555061263c90508183613457565b6010556126fc565b6001600160a01b0384166000908152600960205260408120805484929061266c9084906132fb565b909155505060108290556126fc565b8060075410156126fc5780600754826126949190613479565b61269e9084613438565b6126a89190613457565b6001600160a01b038516600090815260096020526040812080549091906126d09084906132fb565b909155505060075481906126e49082613479565b6126ee9084613438565b6126f89190613457565b6010555b5050506001600160a01b03166000908152600b60209081526040808320600d5484529091529020600101805460ff19166003179055565b6060600c600d548154811061274a5761274a613490565b90600052602060002090600402016003018054806020026020016040519081016040528092919081815260200182805480156127a557602002820191906000526020600020905b815481526020019060010190808311612791575b5050505050905090565b6000805b60055481101561281057826001600160a01b0316600582815481106127da576127da613490565b6000918252602090912001546001600160a01b031614156127fe5750600192915050565b80612808816134ec565b9150506127b3565b50600092915050565b600080600c600d548154811061283157612831613490565b906000526020600020906004020160030180549050116128935760405162461bcd60e51b815260206004820152601e60248201527f63616e6e6f742073656c6c206966207468657265206973206e6f2062696400006044820152606401610833565b6103e88210156128d75760405162461bcd60e51b815260206004820152600f60248201526e06d696e2073697a65203d203130303608c1b6044820152606401610833565b600c600d54815481106128ec576128ec613490565b90600052602060002090600402016002015482111561293a5760405162461bcd60e51b815260206004820152600a6024820152696c6f7720737570706c7960b01b6044820152606401610833565b6000829050600080806001600c600d548154811061295a5761295a613490565b9060005260206000209060040201600301805490506129799190613479565b90505b8315612b4357600d546000818152600a60205260409020600c80549192909181106129a9576129a9613490565b906000526020600020906004020160030182815481106129cb576129cb613490565b9060005260206000200154815481106129e6576129e6613490565b9060005260206000209060030201600101549150818410612a9f57600d546000818152600a60205260409020600c8054919290918110612a2857612a28613490565b90600052602060002090600402016003018281548110612a4a57612a4a613490565b906000526020600020015481548110612a6557612a65613490565b90600052602060002090600302016000015482612a829190613438565b612a8c90846132fb565b9250612a988285613479565b9350612b31565b600d546000818152600a60205260409020600c8054919290918110612ac657612ac6613490565b90600052602060002090600402016003018281548110612ae857612ae8613490565b906000526020600020015481548110612b0357612b03613490565b90600052602060002090600302016000015484612b209190613438565b612b2a90846132fb565b9250600093505b80612b3b8161351d565b91505061297c565b612b4d8684613457565b9695505050505050565b6001600160a01b03808216600090815260036020526040808220548151633fabe5a360e21b815291519293849391169182918491839163feaf968c9160048082019260a0929091908290030181865afa158015612bb8573d6000803e3d6000fd5b505050506040513d601f19601f82011682018060405250810190612bdc919061354e565b5050509150506000826001600160a01b031663313ce5676040518163ffffffff1660e01b8152600401602060405180830381865afa158015612c22573d6000803e3d6000fd5b505050506040513d601f19601f82011682018060405250810190612c46919061359e565b919760ff909216965090945050505050565b6000546001600160a01b03163314612c825760405162461bcd60e51b815260040161083390613313565b6001600160a01b038116612ce75760405162461bcd60e51b815260206004820152602660248201527f4f776e61626c653a206e6577206f776e657220697320746865207a65726f206160448201526564647265737360d01b6064820152608401610833565b611119816130ea565b6004818154811061100557600080fd5b6001600160a01b03808216600090815260016020908152604080832093861683529290522054612d68576001600160a01b038216600090815260026020526040902054612d4e9060016132fb565b6001600160a01b0383166000908152600260205260409020555b5050565b6000806001600c600d5481548110612d8657612d86613490565b906000526020600020906004020160030180549050612da59190613479565b905060005b81831015612e64576002612dbe83856132fb565b612dc89190613457565b9050600a6000600d548152602001908152602001600020600c600d5481548110612df457612df4613490565b90600052602060002090600402016003018281548110612e1657612e16613490565b906000526020600020015481548110612e3157612e31613490565b906000526020600020906003020160000154841115612e5c57612e558160016132fb565b9250612daa565b809150612daa565b81831415612efe57600d546000818152600a60205260409020600c8054919290918110612e9357612e93613490565b90600052602060002090600402016003018481548110612eb557612eb5613490565b906000526020600020015481548110612ed057612ed0613490565b906000526020600020906003020160000154841115612efb57612ef48360016132fb565b9050612efe565b50815b600c600d5481548110612f1357612f13613490565b90600052602060002090600402016003016001600a6000600d54815260200190815260200160002080549050612f499190613479565b815460018181018455600093845260209093200155600d54600c80549091908110612f7657612f76613490565b906000526020600020906004020160030180549050612f959190613479565b811015610fef5760006001600c600d5481548110612fb557612fb5613490565b906000526020600020906004020160030180549050612fd49190613479565b90505b8181111561308257600c600d5481548110612ff457612ff4613490565b90600052602060002090600402016003016001826130129190613479565b8154811061302257613022613490565b9060005260206000200154600c600d548154811061304257613042613490565b9060005260206000209060040201600301828154811061306457613064613490565b6000918252602090912001558061307a8161351d565b915050612fd7565b50600d546000908152600a60205260409020546130a190600190613479565b600c600d54815481106130b6576130b6613490565b906000526020600020906004020160030182815481106130d8576130d8613490565b60009182526020909120015550505050565b600080546001600160a01b038381166001600160a01b0319831681178455604051919092169283917f8be0079c531659141344cd1fd0a4f28419497f9722a3daafe3b4186f6b6457e09190a35050565b80356001600160a01b038116811461315157600080fd5b919050565b60006020828403121561316857600080fd5b6131718261313a565b9392505050565b6000806040838503121561318b57600080fd5b8235915061319b6020840161313a565b90509250929050565b600080604083850312156131b757600080fd5b6131c08361313a565b946020939093013593505050565b634e487b7160e01b600052602160045260246000fd5b838152606081016004841061320957634e487b7160e01b600052602160045260246000fd5b602082019390935260400152919050565b60006020828403121561322c57600080fd5b5035919050565b6000806040838503121561324657600080fd5b61324f8361313a565b915061319b6020840161313a565b6000806040838503121561327057600080fd5b50508035926020909101359150565b6020808252825182820181905260009190848201906040850190845b818110156132b75783518352928401929184019160010161329b565b50909695505050505050565b6000602082840312156132d557600080fd5b8151801515811461317157600080fd5b634e487b7160e01b600052601160045260246000fd5b6000821982111561330e5761330e6132e5565b500190565b6020808252818101527f4f776e61626c653a2063616c6c6572206973206e6f7420746865206f776e6572604082015260600190565b600181815b80851115613383578160001904821115613369576133696132e5565b8085161561337657918102915b93841c939080029061334d565b509250929050565b60008261339a57506001610b13565b816133a757506000610b13565b81600181146133bd57600281146133c7576133e3565b6001915050610b13565b60ff8411156133d8576133d86132e5565b50506001821b610b13565b5060208310610133831016604e8410600b8410161715613406575081810a610b13565b6134108383613348565b8060001904821115613424576134246132e5565b029392505050565b6000613171838361338b565b6000816000190483118215151615613452576134526132e5565b500290565b60008261347457634e487b7160e01b600052601260045260246000fd5b500490565b60008282101561348b5761348b6132e5565b500390565b634e487b7160e01b600052603260045260246000fd5b60208082526026908201527f416c72656164792065787069726564206f7220746f6f20636c6f736520746f2060408201526565787069727960d01b606082015260800190565b6000600019821415613500576135006132e5565b5060010190565b634e487b7160e01b600052603160045260246000fd5b60008161352c5761352c6132e5565b506000190190565b805169ffffffffffffffffffff8116811461315157600080fd5b600080600080600060a0868803121561356657600080fd5b61356f86613534565b945060208601519350604086015192506060860151915061359260808701613534565b90509295509295909350565b6000602082840312156135b057600080fd5b815160ff8116811461317157600080fdfea2646970667358221220378abbdb2e7e5ec8419fd87a6bbbd85d5f4d01faee243446ce56cce12ff8955964736f6c634300080a0033","bytecodeSha1":"dba5598d9b3db335db4b8818720fa258ce7dd865","type":"contract","abi":[{"inputs":[{"internalType":"address","name":"_dappTokenAddress","type":"address"},{"internalType":"address","name":"_ethAddress","type":"address"}],"stateMutability":"nonpayable","type":"constructor","name":"constructor"},{"anonymous":false,"inputs":[{"indexed":true,"internalType":"address","name":"previousOwner","type":"address"},{"indexed":true,"internalType":"address","name":"newOwner","type":"address"}],"name":"OwnershipTransferred","type":"event"},{"inputs":[],"name":"PoolBalance","outputs":[{"internalType":"uint256","name":"","type":"uint256"}],"stateMutability":"view","type":"function"},{"inputs":[],"name":"SecondToExpiry","outputs":[{"internalType":"uint256","name":"","type":"uint256"}],"stateMutability":"view","type":"function"},{"inputs":[{"internalType":"address","name":"_token","type":"address"}],"name":"addAllowedTokens","outputs":[],"stateMutability":"nonpayable","type":"function"},{"inputs":[{"internalType":"uint256","name":"","type":"uint256"}],"name":"allowedTokens","outputs":[{"internalType":"address","name":"","type":"address"}],"stateMutability":"view","type":"function"},{"inputs":[{"internalType":"uint256","name":"","type":"uint256"},{"internalType":"uint256","name":"","type":"uint256"}],"name":"bids","outputs":[{"internalType":"uint256","name":"price","type":"uint256"},{"internalType":"uint256","name":"size","type":"uint256"},{"internalType":"address","name":"user_id","type":"address"}],"stateMutability":"view","type":"function"},{"inputs":[],"name":"cancelBid","outputs":[],"stateMutability":"nonpayable","type":"function"},{"inputs":[{"internalType":"address","name":"","type":"address"}],"name":"cash_balance","outputs":[{"internalType":"uint256","name":"","type":"uint256"}],"stateMutability":"view","type":"function"},{"inputs":[],"name":"dappToken","outputs":[{"internalType":"contract IERC20","name":"","type":"address"}],"stateMutability":"view","type":"function"},{"inputs":[],"name":"deposit","outputs":[],"stateMutability":"payable","type":"function"},{"inputs":[],"name":"ethAddress","outputs":[{"internalType":"address","name":"","type":"address"}],"stateMutability":"view","type":"function"},{"inputs":[],"name":"ethPrice","outputs":[{"internalType":"uint256","name":"","type":"uint256"}],"stateMutability":"view","type":"function"},{"inputs":[],"name":"exercise","outputs":[],"stateMutability":"nonpayable","type":"function"},{"inputs":[{"internalType":"uint256","name":"seller_size","type":"uint256"}],"name":"getBestBid","outputs":[{"internalType":"uint256","name":"average_bid","type":"uint256"}],"stateMutability":"view","type":"function"},{"inputs":[],"name":"getETH","outputs":[{"internalType":"uint256","name":"","type":"uint256"}],"stateMutability":"view","type":"function"},{"inputs":[],"name":"getEthPrice","outputs":[],"stateMutability":"nonpayable","type":"function"},{"inputs":[],"name":"getOrder","outputs":[{"internalType":"uint256[]","name":"","type":"uint256[]"}],"stateMutability":"view","type":"function"},{"inputs":[{"internalType":"address","name":"_token","type":"address"}],"name":"getTokenValue","outputs":[{"internalType":"uint256","name":"","type":"uint256"},{"internalType":"uint256","name":"","type":"uint256"}],"stateMutability":"view","type":"function"},{"inputs":[{"internalType":"address","name":"_user","type":"address"},{"internalType":"address","name":"_token","type":"address"}],"name":"getUserSingleTokenValue","outputs":[{"internalType":"uint256","name":"","type":"uint256"}],"stateMutability":"view","type":"function"},{"inputs":[{"internalType":"address","name":"_user","type":"address"}],"name":"getUserTotalValue","outputs":[{"internalType":"uint256","name":"","type":"uint256"}],"stateMutability":"view","type":"function"},{"inputs":[],"name":"issueTokens","outputs":[],"stateMutability":"nonpayable","type":"function"},{"inputs":[{"internalType":"uint256","name":"","type":"uint256"}],"name":"op","outputs":[{"internalType":"uint256","name":"strike","type":"uint256"},{"internalType":"uint256","name":"expiry","type":"uint256"},{"internalType":"uint256","name":"supply","type":"uint256"}],"stateMutability":"view","type":"function"},{"inputs":[],"name":"owner","outputs":[{"internalType":"address","name":"","type":"address"}],"stateMutability":"view","type":"function"},{"inputs":[{"internalType":"uint256","name":"newbid","type":"uint256"},{"internalType":"uint256","name":"premium","type":"uint256"}],"name":"placeBid","outputs":[],"stateMutability":"nonpayable","type":"function"},{"inputs":[],"name":"renounceOwnership","outputs":[],"stateMutability":"nonpayable","type":"function"},{"inputs":[{"internalType":"uint256","name":"seller_size","type":"uint256"}],"name":"sellBid","outputs":[],"stateMutability":"nonpayable","type":"function"},{"inputs":[{"internalType":"uint256","name":"_eth","type":"uint256"}],"name":"setFakeETH","outputs":[],"stateMutability":"nonpayable","type":"function"},{"inputs":[{"internalType":"address","name":"_token","type":"address"},{"internalType":"address","name":"_priceFeed","type":"address"}],"name":"setPriceFeedContract","outputs":[],"stateMutability":"nonpayable","type":"function"},{"inputs":[],"name":"settlement_amount","outputs":[{"internalType":"uint256","name":"","type":"uint256"}],"stateMutability":"view","type":"function"},{"inputs":[{"internalType":"uint256","name":"_amount","type":"uint256"},{"internalType":"address","name":"_token","type":"address"}],"name":"stakeTokens","outputs":[],"stateMutability":"nonpayable","type":"function"},{"inputs":[{"internalType":"uint256","name":"","type":"uint256"}],"name":"stakers","outputs":[{"internalType":"address","name":"","type":"address"}],"stateMutability":"view","type":"function"},{"inputs":[{"internalType":"address","name":"","type":"address"},{"internalType":"address","name":"","type":"address"}],"name":"stakingBalance","outputs":[{"internalType":"uint256","name":"","type":"uint256"}],"stateMutability":"view","type":"function"},{"inputs":[{"internalType":"address","name":"_token","type":"address"}],"name":"tokenIsAllowed","outputs":[{"internalType":"bool","name":"","type":"bool"}],"stateMutability":"nonpayable","type":"function"},{"inputs":[{"internalType":"address","name":"","type":"address"}],"name":"tokenPriceFeedMapping","outputs":[{"internalType":"address","name":"","type":"address"}],"stateMutability":"view","type":"function"},{"inputs":[{"internalType":"address","name":"newOwner","type":"address"}],"name":"transferOwnership","outputs":[],"stateMutability":"nonpayable","type":"function"},{"inputs":[{"internalType":"address","name":"","type":"address"}],"name":"uniqueTokensStaked","outputs":[{"internalType":"uint256","name":"","type":"uint256"}],"stateMutability":"view","type":"function"},{"inputs":[{"internalType":"address","name":"_token","type":"address"}],"name":"unstakeTokens","outputs":[],"stateMutability":"nonpayable","type":"function"},{"inputs":[{"internalType":"address","name":"","type":"address"},{"internalType":"uint256","name":"","type":"uint256"}],"name":"user","outputs":[{"internalType":"uint256","name":"size","type":"uint256"},{"internalType":"enum TokenFarm.option_side","name":"side","type":"uint8"},{"internalType":"uint256","name":"unusedpremium","type":"uint256"}],"stateMutability":"view","type":"function"},{"inputs":[{"internalType":"address","name":"_user","type":"address"}],"name":"userBalance","outputs":[{"internalType":"uint256","name":"","type":"uint256"}],"stateMutability":"view","type":"function"},{"inputs":[{"internalType":"address","name":"_token","type":"address"}],"name":"viewStakedToken","outputs":[{"internalType":"uint256","name":"","type":"uint256"}],"stateMutability":"nonpayable","type":"function"}],"compiler":{"version":"0.8.10+commit.fc410830","evm_version":"istanbul","optimizer":{"enabled":true,"runs":200}},"contractName":"TokenFarm","language":"Solidity","natspec":{"methods":{"owner()":{"details":"Returns the address of the current owner."},"renounceOwnership()":{"details":"Leaves the contract without owner. It will not be possible to call `onlyOwner` functions anymore. Can only be called by the current owner. NOTE: Renouncing ownership will leave the contract without an owner, thereby removing any functionality that is only available to the owner."},"transferOwnership(address)":{"details":"Transfers ownership of the contract to a new account (`newOwner`). Can only be called by the current owner."}},"kind":"dev","version":1},"opcodes":"PUSH1 0x80 PUSH1 0x40 MSTORE PUSH1 0x4 CALLDATASIZE LT PUSH2 0x230 JUMPI PUSH1 0x0 CALLDATALOAD PUSH1 0xE0 SHR DUP1 PUSH4 0x704BBA69 GT PUSH2 0x12E JUMPI DUP1 PUSH4 0xD0E30DB0 GT PUSH2 0xAB JUMPI DUP1 PUSH4 0xF1C5D6C2 GT PUSH2 0x6F JUMPI DUP1 PUSH4 0xF1C5D6C2 EQ PUSH2 0x72F JUMPI DUP1 PUSH4 0xF2FDE38B EQ PUSH2 0x764 JUMPI DUP1 PUSH4 0xF6702356 EQ PUSH2 0x784 JUMPI DUP1 PUSH4 0xFD5E6DD1 EQ PUSH2 0x7B1 JUMPI DUP1 PUSH4 0xFF186B2E EQ PUSH2 0x7D1 JUMPI PUSH1 0x0 DUP1 REVERT JUMPDEST DUP1 PUSH4 0xD0E30DB0 EQ PUSH2 0x6A0 JUMPI DUP1 PUSH4 0xD32CB0FE EQ PUSH2 0x6A8 JUMPI DUP1 PUSH4 0xD36DEDD2 EQ PUSH2 0x6BD JUMPI DUP1 PUSH4 0xDD5B8467 EQ PUSH2 0x6DF JUMPI DUP1 PUSH4 0xF14E96F1 EQ PUSH2 0x70F JUMPI PUSH1 0x0 DUP1 REVERT JUMPDEST DUP1 PUSH4 0x877DD39D GT PUSH2 0xF2 JUMPI DUP1 PUSH4 0x877DD39D EQ PUSH2 0x600 JUMPI DUP1 PUSH4 0x8DA5CB5B EQ PUSH2 0x620 JUMPI DUP1 PUSH4 0x9435C887 EQ PUSH2 0x63E JUMPI DUP1 PUSH4 0xAF3F5E22 EQ PUSH2 0x653 JUMPI DUP1 PUSH4 0xB83E0234 EQ PUSH2 0x673 JUMPI PUSH1 0x0 DUP1 REVERT JUMPDEST DUP1 PUSH4 0x704BBA69 EQ PUSH2 0x55C JUMPI DUP1 PUSH4 0x715018A6 EQ PUSH2 0x57C JUMPI DUP1 PUSH4 0x7B3889E7 EQ PUSH2 0x591 JUMPI DUP1 PUSH4 0x7B3C4BAA EQ PUSH2 0x5A7 JUMPI DUP1 PUSH4 0x7E7F320D EQ PUSH2 0x5EB JUMPI PUSH1 0x0 DUP1 REVERT JUMPDEST DUP1 PUSH4 0x29161A00 GT PUSH2 0x1BC JUMPI DUP1 PUSH4 0x57C90DE5 GT PUSH2 0x180 JUMPI DUP1 PUSH4 0x57C90DE5 EQ PUSH2 0x4CF JUMPI DUP1 PUSH4 0x5E5F2E26 EQ PUSH2 0x4EF JUMPI DUP1 PUSH4 0x5EB186F8 EQ PUSH2 0x50F JUMPI DUP1 PUSH4 0x60AB5852 EQ PUSH2 0x52F JUMPI DUP1 PUSH4 0x67C9B017 EQ PUSH2 0x544 JUMPI PUSH1 0x0 DUP1 REVERT JUMPDEST DUP1 PUSH4 0x29161A00 EQ PUSH2 0x3DB JUMPI DUP1 PUSH4 0x2D1AD8B8 EQ PUSH2 0x413 JUMPI DUP1 PUSH4 0x387EADAE EQ PUSH2 0x433 JUMPI DUP1 PUSH4 0x41398B15 EQ PUSH2 0x46E JUMPI DUP1 PUSH4 0x4F0DCD39 EQ PUSH2 0x48E JUMPI PUSH1 0x0 DUP1 REVERT JUMPDEST DUP1 PUSH4 0x16ED0F72 GT PUSH2 0x203 JUMPI DUP1 PUSH4 0x16ED0F72 EQ PUSH2 0x30E JUMPI DUP1 PUSH4 0x171E44EA EQ PUSH2 0x32E JUMPI DUP1 PUSH4 0x1BE0819C EQ PUSH2 0x34E JUMPI DUP1 PUSH4 0x276B11DA EQ PUSH2 0x36D JUMPI DUP1 PUSH4 0x27927B3E EQ PUSH2 0x38D JUMPI PUSH1 0x0 DUP1 REVERT JUMPDEST DUP1 PUSH4 0x103C92B EQ PUSH2 0x235 JUMPI DUP1 PUSH4 0xBEA440D EQ PUSH2 0x27E JUMPI DUP1 PUSH4 0x14F6C3BE EQ PUSH2 0x2A0 JUMPI DUP1 PUSH4 0x14FEAA9D EQ PUSH2 0x2B5 JUMPI JUMPDEST PUSH1 0x0 DUP1 REVERT JUMPDEST CALLVALUE DUP1 ISZERO PUSH2 0x241 JUMPI PUSH1 0x0 DUP1 REVERT JUMPDEST POP PUSH2 0x26B PUSH2 0x250 CALLDATASIZE PUSH1 0x4 PUSH2 0x3156 JUMP JUMPDEST PUSH1 0x1 PUSH1 0x1 PUSH1 0xA0 SHL SUB AND PUSH1 0x0 SWAP1 DUP2 MSTORE PUSH1 0x9 PUSH1 0x20 MSTORE PUSH1 0x40 SWAP1 KECCAK256 SLOAD SWAP1 JUMP JUMPDEST PUSH1 0x40 MLOAD SWAP1 DUP2 MSTORE PUSH1 0x20 ADD JUMPDEST PUSH1 0x40 MLOAD DUP1 SWAP2 SUB SWAP1 RETURN JUMPDEST CALLVALUE DUP1 ISZERO PUSH2 0x28A JUMPI PUSH1 0x0 DUP1 REVERT JUMPDEST POP PUSH2 0x29E PUSH2 0x299 CALLDATASIZE PUSH1 0x4 PUSH2 0x3178 JUMP JUMPDEST PUSH2 0x7E7 JUMP JUMPDEST STOP JUMPDEST CALLVALUE DUP1 ISZERO PUSH2 0x2AC JUMPI PUSH1 0x0 DUP1 REVERT JUMPDEST POP PUSH2 0x26B PUSH2 0x9F2 JUMP JUMPDEST CALLVALUE DUP1 ISZERO PUSH2 0x2C1 JUMPI PUSH1 0x0 DUP1 REVERT JUMPDEST POP PUSH2 0x2FF PUSH2 0x2D0 CALLDATASIZE PUSH1 0x4 PUSH2 0x31A4 JUMP JUMPDEST PUSH1 0xB PUSH1 0x20 SWAP1 DUP2 MSTORE PUSH1 0x0 SWAP3 DUP4 MSTORE PUSH1 0x40 DUP1 DUP5 KECCAK256 SWAP1 SWAP2 MSTORE SWAP1 DUP3 MSTORE SWAP1 KECCAK256 DUP1 SLOAD PUSH1 0x1 DUP3 ADD SLOAD PUSH1 0x2 SWAP1 SWAP3 ADD SLOAD SWAP1 SWAP2 PUSH1 0xFF AND SWAP1 DUP4 JUMP JUMPDEST PUSH1 0x40 MLOAD PUSH2 0x275 SWAP4 SWAP3 SWAP2 SWAP1 PUSH2 0x31E4 JUMP JUMPDEST CALLVALUE DUP1 ISZERO PUSH2 0x31A JUMPI PUSH1 0x0 DUP1 REVERT JUMPDEST POP PUSH2 0x29E PUSH2 0x329 CALLDATASIZE PUSH1 0x4 PUSH2 0x321A JUMP JUMPDEST PUSH1 0x7 SSTORE JUMP JUMPDEST CALLVALUE DUP1 ISZERO PUSH2 0x33A JUMPI PUSH1 0x0 DUP1 REVERT JUMPDEST POP PUSH2 0x29E PUSH2 0x349 CALLDATASIZE PUSH1 0x4 PUSH2 0x3156 JUMP JUMPDEST PUSH2 0xA16 JUMP JUMPDEST CALLVALUE DUP1 ISZERO PUSH2 0x35A JUMPI PUSH1 0x0 DUP1 REVERT JUMPDEST POP PUSH1 0x8 SLOAD PUSH1 0x1 PUSH1 0x1 PUSH1 0xA0 SHL SUB AND BALANCE PUSH2 0x26B JUMP JUMPDEST CALLVALUE DUP1 ISZERO PUSH2 0x379 JUMPI PUSH1 0x0 DUP1 REVERT JUMPDEST POP PUSH2 0x26B PUSH2 0x388 CALLDATASIZE PUSH1 0x4 PUSH2 0x3233 JUMP JUMPDEST PUSH2 0xA92 JUMP JUMPDEST CALLVALUE DUP1 ISZERO PUSH2 0x399 JUMPI PUSH1 0x0 DUP1 REVERT JUMPDEST POP PUSH2 0x3C3 PUSH2 0x3A8 CALLDATASIZE PUSH1 0x4 PUSH2 0x3156 JUMP JUMPDEST PUSH1 0x3 PUSH1 0x20 MSTORE PUSH1 0x0 SWAP1 DUP2 MSTORE PUSH1 0x40 SWAP1 KECCAK256 SLOAD PUSH1 0x1 PUSH1 0x1 PUSH1 0xA0 SHL SUB AND DUP2 JUMP JUMPDEST PUSH1 0x40 MLOAD PUSH1 0x1 PUSH1 0x1 PUSH1 0xA0 SHL SUB SWAP1 SWAP2 AND DUP2 MSTORE PUSH1 0x20 ADD PUSH2 0x275 JUMP JUMPDEST CALLVALUE DUP1 ISZERO PUSH2 0x3E7 JUMPI PUSH1 0x0 DUP1 REVERT JUMPDEST POP PUSH2 0x26B PUSH2 0x3F6 CALLDATASIZE PUSH1 0x4 PUSH2 0x3233 JUMP JUMPDEST PUSH1 0x1 PUSH1 0x20 SWAP1 DUP2 MSTORE PUSH1 0x0 SWAP3 DUP4 MSTORE PUSH1 0x40 DUP1 DUP5 KECCAK256 SWAP1 SWAP2 MSTORE SWAP1 DUP3 MSTORE SWAP1 KECCAK256 SLOAD DUP2 JUMP JUMPDEST CALLVALUE DUP1 ISZERO PUSH2 0x41F JUMPI PUSH1 0x0 DUP1 REVERT JUMPDEST POP PUSH2 0x29E PUSH2 0x42E CALLDATASIZE PUSH1 0x4 PUSH2 0x3156 JUMP JUMPDEST PUSH2 0xB19 JUMP JUMPDEST CALLVALUE DUP1 ISZERO PUSH2 0x43F JUMPI PUSH1 0x0 DUP1 REVERT JUMPDEST POP PUSH2 0x453 PUSH2 0x44E CALLDATASIZE PUSH1 0x4 PUSH2 0x321A JUMP JUMPDEST PUSH2 0xC35 JUMP JUMPDEST PUSH1 0x40 DUP1 MLOAD SWAP4 DUP5 MSTORE PUSH1 0x20 DUP5 ADD SWAP3 SWAP1 SWAP3 MSTORE SWAP1 DUP3 ADD MSTORE PUSH1 0x60 ADD PUSH2 0x275 JUMP JUMPDEST CALLVALUE DUP1 ISZERO PUSH2 0x47A JUMPI PUSH1 0x0 DUP1 REVERT JUMPDEST POP PUSH1 0x11 SLOAD PUSH2 0x3C3 SWAP1 PUSH1 0x1 PUSH1 0x1 PUSH1 0xA0 SHL SUB AND DUP2 JUMP JUMPDEST CALLVALUE DUP1 ISZERO PUSH2 0x49A JUMPI PUSH1 0x0 DUP1 REVERT JUMPDEST POP PUSH2 0x26B PUSH2 0x4A9 CALLDATASIZE PUSH1 0x4 PUSH2 0x3156 JUMP JUMPDEST PUSH1 0x1 PUSH1 0x1 PUSH1 0xA0 SHL SUB AND PUSH1 0x0 SWAP1 DUP2 MSTORE PUSH1 0x1 PUSH1 0x20 SWAP1 DUP2 MSTORE PUSH1 0x40 DUP1 DUP4 KECCAK256 CALLER DUP5 MSTORE SWAP1 SWAP2 MSTORE SWAP1 KECCAK256 SLOAD SWAP1 JUMP JUMPDEST CALLVALUE DUP1 ISZERO PUSH2 0x4DB JUMPI PUSH1 0x0 DUP1 REVERT JUMPDEST POP PUSH2 0x29E PUSH2 0x4EA CALLDATASIZE PUSH1 0x4 PUSH2 0x325D JUMP JUMPDEST PUSH2 0xC68 JUMP JUMPDEST CALLVALUE DUP1 ISZERO PUSH2 0x4FB JUMPI PUSH1 0x0 DUP1 REVERT JUMPDEST POP PUSH2 0x3C3 PUSH2 0x50A CALLDATASIZE PUSH1 0x4 PUSH2 0x321A JUMP JUMPDEST PUSH2 0xFF5 JUMP JUMPDEST CALLVALUE DUP1 ISZERO PUSH2 0x51B JUMPI PUSH1 0x0 DUP1 REVERT JUMPDEST POP PUSH1 0x6 SLOAD PUSH2 0x3C3 SWAP1 PUSH1 0x1 PUSH1 0x1 PUSH1 0xA0 SHL SUB AND DUP2 JUMP JUMPDEST CALLVALUE DUP1 ISZERO PUSH2 0x53B JUMPI PUSH1 0x0 DUP1 REVERT JUMPDEST POP PUSH2 0x29E PUSH2 0x101F JUMP JUMPDEST CALLVALUE DUP1 ISZERO PUSH2 0x550 JUMPI PUSH1 0x0 DUP1 REVERT JUMPDEST POP PUSH2 0x29E PUSH2 0xED7 PUSH1 0x7 SSTORE JUMP JUMPDEST CALLVALUE DUP1 ISZERO PUSH2 0x568 JUMPI PUSH1 0x0 DUP1 REVERT JUMPDEST POP PUSH2 0x29E PUSH2 0x577 CALLDATASIZE PUSH1 0x4 PUSH2 0x321A JUMP JUMPDEST PUSH2 0x111C JUMP JUMPDEST CALLVALUE DUP1 ISZERO PUSH2 0x588 JUMPI PUSH1 0x0 DUP1 REVERT JUMPDEST POP PUSH2 0x29E PUSH2 0x1C5E JUMP JUMPDEST CALLVALUE DUP1 ISZERO PUSH2 0x59D JUMPI PUSH1 0x0 DUP1 REVERT JUMPDEST POP PUSH2 0x26B PUSH1 0x10 SLOAD DUP2 JUMP JUMPDEST CALLVALUE DUP1 ISZERO PUSH2 0x5B3 JUMPI PUSH1 0x0 DUP1 REVERT JUMPDEST POP PUSH2 0x5C7 PUSH2 0x5C2 CALLDATASIZE PUSH1 0x4 PUSH2 0x325D JUMP JUMPDEST PUSH2 0x1C94 JUMP JUMPDEST PUSH1 0x40 DUP1 MLOAD SWAP4 DUP5 MSTORE PUSH1 0x20 DUP5 ADD SWAP3 SWAP1 SWAP3 MSTORE PUSH1 0x1 PUSH1 0x1 PUSH1 0xA0 SHL SUB AND SWAP1 DUP3 ADD MSTORE PUSH1 0x60 ADD PUSH2 0x275 JUMP JUMPDEST CALLVALUE DUP1 ISZERO PUSH2 0x5F7 JUMPI PUSH1 0x0 DUP1 REVERT JUMPDEST POP PUSH2 0x26B PUSH2 0x1CDF JUMP JUMPDEST CALLVALUE DUP1 ISZERO PUSH2 0x60C JUMPI PUSH1 0x0 DUP1 REVERT JUMPDEST POP PUSH2 0x29E PUSH2 0x61B CALLDATASIZE PUSH1 0x4 PUSH2 0x3233 JUMP JUMPDEST PUSH2 0x1D18 JUMP JUMPDEST CALLVALUE DUP1 ISZERO PUSH2 0x62C JUMPI PUSH1 0x0 DUP1 REVERT JUMPDEST POP PUSH1 0x0 SLOAD PUSH1 0x1 PUSH1 0x1 PUSH1 0xA0 SHL SUB AND PUSH2 0x3C3 JUMP JUMPDEST CALLVALUE DUP1 ISZERO PUSH2 0x64A JUMPI PUSH1 0x0 DUP1 REVERT JUMPDEST POP PUSH2 0x29E PUSH2 0x1D70 JUMP JUMPDEST CALLVALUE DUP1 ISZERO PUSH2 0x65F JUMPI PUSH1 0x0 DUP1 REVERT JUMPDEST POP PUSH2 0x26B PUSH2 0x66E CALLDATASIZE PUSH1 0x4 PUSH2 0x3156 JUMP JUMPDEST PUSH2 0x21F8 JUMP JUMPDEST CALLVALUE DUP1 ISZERO PUSH2 0x67F JUMPI PUSH1 0x0 DUP1 REVERT JUMPDEST POP PUSH2 0x26B PUSH2 0x68E CALLDATASIZE PUSH1 0x4 PUSH2 0x3156 JUMP JUMPDEST PUSH1 0x2 PUSH1 0x20 MSTORE PUSH1 0x0 SWAP1 DUP2 MSTORE PUSH1 0x40 SWAP1 KECCAK256 SLOAD DUP2 JUMP JUMPDEST PUSH2 0x29E PUSH2 0x22B6 JUMP JUMPDEST CALLVALUE DUP1 ISZERO PUSH2 0x6B4 JUMPI PUSH1 0x0 DUP1 REVERT JUMPDEST POP PUSH2 0x29E PUSH2 0x231F JUMP JUMPDEST CALLVALUE DUP1 ISZERO PUSH2 0x6C9 JUMPI PUSH1 0x0 DUP1 REVERT JUMPDEST POP PUSH2 0x6D2 PUSH2 0x2733 JUMP JUMPDEST PUSH1 0x40 MLOAD PUSH2 0x275 SWAP2 SWAP1 PUSH2 0x327F JUMP JUMPDEST CALLVALUE DUP1 ISZERO PUSH2 0x6EB JUMPI PUSH1 0x0 DUP1 REVERT JUMPDEST POP PUSH2 0x6FF PUSH2 0x6FA CALLDATASIZE PUSH1 0x4 PUSH2 0x3156 JUMP JUMPDEST PUSH2 0x27AF JUMP JUMPDEST PUSH1 0x40 MLOAD SWAP1 ISZERO ISZERO DUP2 MSTORE PUSH1 0x20 ADD PUSH2 0x275 JUMP JUMPDEST CALLVALUE DUP1 ISZERO PUSH2 0x71B JUMPI PUSH1 0x0 DUP1 REVERT JUMPDEST POP PUSH2 0x26B PUSH2 0x72A CALLDATASIZE PUSH1 0x4 PUSH2 0x321A JUMP JUMPDEST PUSH2 0x2819 JUMP JUMPDEST CALLVALUE DUP1 ISZERO PUSH2 0x73B JUMPI PUSH1 0x0 DUP1 REVERT JUMPDEST POP PUSH2 0x74F PUSH2 0x74A CALLDATASIZE PUSH1 0x4 PUSH2 0x3156 JUMP JUMPDEST PUSH2 0x2B57 JUMP JUMPDEST PUSH1 0x40 DUP1 MLOAD SWAP3 DUP4 MSTORE PUSH1 0x20 DUP4 ADD SWAP2 SWAP1 SWAP2 MSTORE ADD PUSH2 0x275 JUMP JUMPDEST CALLVALUE DUP1 ISZERO PUSH2 0x770 JUMPI PUSH1 0x0 DUP1 REVERT JUMPDEST POP PUSH2 0x29E PUSH2 0x77F CALLDATASIZE PUSH1 0x4 PUSH2 0x3156 JUMP JUMPDEST PUSH2 0x2C58 JUMP JUMPDEST CALLVALUE DUP1 ISZERO PUSH2 0x790 JUMPI PUSH1 0x0 DUP1 REVERT JUMPDEST POP PUSH2 0x26B PUSH2 0x79F CALLDATASIZE PUSH1 0x4 PUSH2 0x3156 JUMP JUMPDEST PUSH1 0x9 PUSH1 0x20 MSTORE PUSH1 0x0 SWAP1 DUP2 MSTORE PUSH1 0x40 SWAP1 KECCAK256 SLOAD DUP2 JUMP JUMPDEST CALLVALUE DUP1 ISZERO PUSH2 0x7BD JUMPI PUSH1 0x0 DUP1 REVERT JUMPDEST POP PUSH2 0x3C3 PUSH2 0x7CC CALLDATASIZE PUSH1 0x4 PUSH2 0x321A JUMP JUMPDEST PUSH2 0x2CF0 JUMP JUMPDEST CALLVALUE DUP1 ISZERO PUSH2 0x7DD JUMPI PUSH1 0x0 DUP1 REVERT JUMPDEST POP PUSH2 0x26B PUSH1 0x7 SLOAD DUP2 JUMP JUMPDEST PUSH1 0x0 DUP3 GT PUSH2 0x83C JUMPI PUSH1 0x40 MLOAD PUSH3 0x461BCD PUSH1 0xE5 SHL DUP2 MSTORE PUSH1 0x20 PUSH1 0x4 DUP3 ADD MSTORE PUSH1 0x1A PUSH1 0x24 DUP3 ADD MSTORE PUSH32 0x416D6F756E74206D757374206265206D6F7265207468616E2030000000000000 PUSH1 0x44 DUP3 ADD MSTORE PUSH1 0x64 ADD JUMPDEST PUSH1 0x40 MLOAD DUP1 SWAP2 SUB SWAP1 REVERT JUMPDEST PUSH2 0x845 DUP2 PUSH2 0x27AF JUMP JUMPDEST PUSH2 0x891 JUMPI PUSH1 0x40 MLOAD PUSH3 0x461BCD PUSH1 0xE5 SHL DUP2 MSTORE PUSH1 0x20 PUSH1 0x4 DUP3 ADD MSTORE PUSH1 0x1D PUSH1 0x24 DUP3 ADD MSTORE PUSH32 0x546F6B656E2069732063757272656E746C79206E6F20616C6C6F776564000000 PUSH1 0x44 DUP3 ADD MSTORE PUSH1 0x64 ADD PUSH2 0x833 JUMP JUMPDEST PUSH1 0x40 MLOAD PUSH4 0x23B872DD PUSH1 0xE0 SHL DUP2 MSTORE CALLER PUSH1 0x4 DUP3 ADD MSTORE ADDRESS PUSH1 0x24 DUP3 ADD MSTORE PUSH1 0x44 DUP2 ADD DUP4 SWAP1 MSTORE PUSH1 0x1 PUSH1 0x1 PUSH1 0xA0 SHL SUB DUP3 AND SWAP1 PUSH4 0x23B872DD SWAP1 PUSH1 0x64 ADD PUSH1 0x20 PUSH1 0x40 MLOAD DUP1 DUP4 SUB DUP2 PUSH1 0x0 DUP8 GAS CALL ISZERO DUP1 ISZERO PUSH2 0x8E4 JUMPI RETURNDATASIZE PUSH1 0x0 DUP1 RETURNDATACOPY RETURNDATASIZE PUSH1 0x0 REVERT JUMPDEST POP POP POP POP PUSH1 0x40 MLOAD RETURNDATASIZE PUSH1 0x1F NOT PUSH1 0x1F DUP3 ADD AND DUP3 ADD DUP1 PUSH1 0x40 MSTORE POP DUP2 ADD SWAP1 PUSH2 0x908 SWAP2 SWAP1 PUSH2 0x32C3 JUMP JUMPDEST POP PUSH2 0x913 CALLER DUP3 PUSH2 0x2D00 JUMP JUMPDEST PUSH1 0x1 PUSH1 0x1 PUSH1 0xA0 SHL SUB DUP2 AND PUSH1 0x0 SWAP1 DUP2 MSTORE PUSH1 0x1 PUSH1 0x20 SWAP1 DUP2 MSTORE PUSH1 0x40 DUP1 DUP4 KECCAK256 CALLER DUP5 MSTORE SWAP1 SWAP2 MSTORE SWAP1 KECCAK256 SLOAD PUSH2 0x942 SWAP1 DUP4 SWAP1 PUSH2 0x32FB JUMP JUMPDEST PUSH1 0x1 PUSH1 0x1 PUSH1 0xA0 SHL SUB DUP3 AND PUSH1 0x0 SWAP1 DUP2 MSTORE PUSH1 0x1 PUSH1 0x20 DUP2 DUP2 MSTORE PUSH1 0x40 DUP1 DUP5 KECCAK256 CALLER DUP6 MSTORE DUP3 MSTORE DUP1 DUP5 KECCAK256 SWAP5 SWAP1 SWAP5 SSTORE PUSH1 0x2 SWAP1 MSTORE SWAP2 SWAP1 KECCAK256 SLOAD EQ ISZERO PUSH2 0x9BA JUMPI PUSH1 0x4 DUP1 SLOAD PUSH1 0x1 DUP2 ADD DUP3 SSTORE PUSH1 0x0 SWAP2 SWAP1 SWAP2 MSTORE PUSH32 0x8A35ACFBC15FF81A39AE7D344FD709F28E8600B4AA8C65C6B64BFE7FE36BD19B ADD DUP1 SLOAD PUSH1 0x1 PUSH1 0x1 PUSH1 0xA0 SHL SUB NOT AND CALLER OR SWAP1 SSTORE JUMPDEST PUSH2 0x9C4 CALLER DUP3 PUSH2 0xA92 JUMP JUMPDEST CALLER PUSH1 0x0 SWAP1 DUP2 MSTORE PUSH1 0x9 PUSH1 0x20 MSTORE PUSH1 0x40 SWAP1 KECCAK256 SLOAD PUSH2 0x9DE SWAP2 SWAP1 PUSH2 0x32FB JUMP JUMPDEST CALLER PUSH1 0x0 SWAP1 DUP2 MSTORE PUSH1 0x9 PUSH1 0x20 MSTORE PUSH1 0x40 SWAP1 KECCAK256 SSTORE POP POP JUMP JUMPDEST PUSH1 0x11 SLOAD PUSH1 0x0 SWAP1 DUP2 SWAP1 DUP2 SWAP1 PUSH2 0xA0E SWAP1 PUSH1 0x1 PUSH1 0x1 PUSH1 0xA0 SHL SUB AND PUSH2 0x2B57 JUMP JUMPDEST POP SWAP4 SWAP3 POP POP POP JUMP JUMPDEST PUSH1 0x0 SLOAD PUSH1 0x1 PUSH1 0x1 PUSH1 0xA0 SHL SUB AND CALLER EQ PUSH2 0xA40 JUMPI PUSH1 0x40 MLOAD PUSH3 0x461BCD PUSH1 0xE5 SHL DUP2 MSTORE PUSH1 0x4 ADD PUSH2 0x833 SWAP1 PUSH2 0x3313 JUMP JUMPDEST PUSH1 0x5 DUP1 SLOAD PUSH1 0x1 DUP2 ADD DUP3 SSTORE PUSH1 0x0 SWAP2 SWAP1 SWAP2 MSTORE PUSH32 0x36B6384B5ECA791C62761152D0C79BB0604C104A5FB6F4EB0703F3154BB3DB0 ADD DUP1 SLOAD PUSH1 0x1 PUSH1 0x1 PUSH1 0xA0 SHL SUB NOT AND PUSH1 0x1 PUSH1 0x1 PUSH1 0xA0 SHL SUB SWAP3 SWAP1 SWAP3 AND SWAP2 SWAP1 SWAP2 OR SWAP1 SSTORE JUMP JUMPDEST PUSH1 0x1 PUSH1 0x1 PUSH1 0xA0 SHL SUB DUP3 AND PUSH1 0x0 SWAP1 DUP2 MSTORE PUSH1 0x2 PUSH1 0x20 MSTORE PUSH1 0x40 DUP2 KECCAK256 SLOAD PUSH2 0xAB7 JUMPI POP PUSH1 0x0 PUSH2 0xB13 JUMP JUMPDEST PUSH1 0x0 DUP1 PUSH2 0xAC3 DUP5 PUSH2 0x2B57 JUMP JUMPDEST SWAP1 SWAP3 POP SWAP1 POP PUSH2 0xAD3 DUP2 PUSH1 0xA PUSH2 0x342C JUMP JUMPDEST PUSH1 0x1 PUSH1 0x1 PUSH1 0xA0 SHL SUB DUP1 DUP7 AND PUSH1 0x0 SWAP1 DUP2 MSTORE PUSH1 0x1 PUSH1 0x20 SWAP1 DUP2 MSTORE PUSH1 0x40 DUP1 DUP4 KECCAK256 SWAP4 DUP11 AND DUP4 MSTORE SWAP3 SWAP1 MSTORE KECCAK256 SLOAD PUSH2 0xB04 SWAP1 DUP5 SWAP1 PUSH2 0x3438 JUMP JUMPDEST PUSH2 0xB0E SWAP2 SWAP1 PUSH2 0x3457 JUMP JUMPDEST SWAP3 POP POP POP JUMPDEST SWAP3 SWAP2 POP POP JUMP JUMPDEST CALLER PUSH1 0x0 SWAP1 DUP2 MSTORE PUSH1 0x9 PUSH1 0x20 MSTORE PUSH1 0x40 SWAP1 KECCAK256 SLOAD DUP1 PUSH2 0xB76 JUMPI PUSH1 0x40 MLOAD PUSH3 0x461BCD PUSH1 0xE5 SHL DUP2 MSTORE PUSH1 0x20 PUSH1 0x4 DUP3 ADD MSTORE PUSH1 0x18 PUSH1 0x24 DUP3 ADD MSTORE PUSH32 0x436173682062616C616E63652063616E6E6F7420626520300000000000000000 PUSH1 0x44 DUP3 ADD MSTORE PUSH1 0x64 ADD PUSH2 0x833 JUMP JUMPDEST PUSH1 0x40 MLOAD PUSH4 0xA9059CBB PUSH1 0xE0 SHL DUP2 MSTORE CALLER PUSH1 0x4 DUP3 ADD MSTORE PUSH1 0x24 DUP2 ADD DUP3 SWAP1 MSTORE PUSH1 0x1 PUSH1 0x1 PUSH1 0xA0 SHL SUB DUP4 AND SWAP1 PUSH4 0xA9059CBB SWAP1 PUSH1 0x44 ADD PUSH1 0x20 PUSH1 0x40 MLOAD DUP1 DUP4 SUB DUP2 PUSH1 0x0 DUP8 GAS CALL ISZERO DUP1 ISZERO PUSH2 0xBC3 JUMPI RETURNDATASIZE PUSH1 0x0 DUP1 RETURNDATACOPY RETURNDATASIZE PUSH1 0x0 REVERT JUMPDEST POP POP POP POP PUSH1 0x40 MLOAD RETURNDATASIZE PUSH1 0x1F NOT PUSH1 0x1F DUP3 ADD AND DUP3 ADD DUP1 PUSH1 0x40 MSTORE POP DUP2 ADD SWAP1 PUSH2 0xBE7 SWAP2 SWAP1 PUSH2 0x32C3 JUMP JUMPDEST POP PUSH1 0x1 PUSH1 0x1 PUSH1 0xA0 SHL SUB DUP3 AND PUSH1 0x0 SWAP1 DUP2 MSTORE PUSH1 0x1 PUSH1 0x20 DUP2 DUP2 MSTORE PUSH1 0x40 DUP1 DUP5 KECCAK256 CALLER DUP6 MSTORE DUP3 MSTORE DUP1 DUP5 KECCAK256 DUP5 SWAP1 SSTORE PUSH1 0x2 SWAP1 SWAP2 MSTORE SWAP1 SWAP2 KECCAK256 SLOAD PUSH2 0xC21 SWAP2 SWAP1 PUSH2 0x3479 JUMP JUMPDEST CALLER PUSH1 0x0 SWAP1 DUP2 MSTORE PUSH1 0x2 PUSH1 0x20 MSTORE PUSH1 0x40 SWAP1 KECCAK256 SSTORE POP POP JUMP JUMPDEST PUSH1 0xC DUP2 DUP2 SLOAD DUP2 LT PUSH2 0xC45 JUMPI PUSH1 0x0 DUP1 REVERT JUMPDEST PUSH1 0x0 SWAP2 DUP3 MSTORE PUSH1 0x20 SWAP1 SWAP2 KECCAK256 PUSH1 0x4 SWAP1 SWAP2 MUL ADD DUP1 SLOAD PUSH1 0x1 DUP3 ADD SLOAD PUSH1 0x2 SWAP1 SWAP3 ADD SLOAD SWAP1 SWAP3 POP DUP4 JUMP JUMPDEST CALLER PUSH2 0xC74 PUSH1 0xA TIMESTAMP PUSH2 0x3479 JUMP JUMPDEST PUSH1 0xC PUSH1 0xD SLOAD DUP2 SLOAD DUP2 LT PUSH2 0xC89 JUMPI PUSH2 0xC89 PUSH2 0x3490 JUMP JUMPDEST SWAP1 PUSH1 0x0 MSTORE PUSH1 0x20 PUSH1 0x0 KECCAK256 SWAP1 PUSH1 0x4 MUL ADD PUSH1 0x1 ADD SLOAD GT PUSH2 0xCB8 JUMPI PUSH1 0x40 MLOAD PUSH3 0x461BCD PUSH1 0xE5 SHL DUP2 MSTORE PUSH1 0x4 ADD PUSH2 0x833 SWAP1 PUSH2 0x34A6 JUMP JUMPDEST PUSH1 0x2 PUSH1 0x1 PUSH1 0x1 PUSH1 0xA0 SHL SUB DUP3 AND PUSH1 0x0 SWAP1 DUP2 MSTORE PUSH1 0xB PUSH1 0x20 SWAP1 DUP2 MSTORE PUSH1 0x40 DUP1 DUP4 KECCAK256 PUSH1 0xD SLOAD DUP5 MSTORE SWAP1 SWAP2 MSTORE SWAP1 KECCAK256 PUSH1 0x1 ADD SLOAD PUSH1 0xFF AND PUSH1 0x3 DUP2 GT ISZERO PUSH2 0xCF7 JUMPI PUSH2 0xCF7 PUSH2 0x31CE JUMP JUMPDEST EQ ISZERO PUSH2 0xD45 JUMPI PUSH1 0x40 MLOAD PUSH3 0x461BCD PUSH1 0xE5 SHL DUP2 MSTORE PUSH1 0x20 PUSH1 0x4 DUP3 ADD MSTORE PUSH1 0x1B PUSH1 0x24 DUP3 ADD MSTORE PUSH32 0x73656C6C6572206F66206F7074696F6E2063616E6E6F74206275790000000000 PUSH1 0x44 DUP3 ADD MSTORE PUSH1 0x64 ADD PUSH2 0x833 JUMP JUMPDEST PUSH1 0x64 DUP3 LT ISZERO PUSH2 0xD87 JUMPI PUSH1 0x40 MLOAD PUSH3 0x461BCD PUSH1 0xE5 SHL DUP2 MSTORE PUSH1 0x20 PUSH1 0x4 DUP3 ADD MSTORE PUSH1 0xE PUSH1 0x24 DUP3 ADD MSTORE PUSH14 0x4D696E2073697A65203D2031303 PUSH1 0x94 SHL PUSH1 0x44 DUP3 ADD MSTORE PUSH1 0x64 ADD PUSH2 0x833 JUMP JUMPDEST PUSH1 0x1 PUSH1 0x1 PUSH1 0xA0 SHL SUB DUP2 AND PUSH1 0x0 SWAP1 DUP2 MSTORE PUSH1 0x9 PUSH1 0x20 MSTORE PUSH1 0x40 SWAP1 KECCAK256 SLOAD DUP3 GT ISZERO PUSH2 0xDE1 JUMPI PUSH1 0x40 MLOAD PUSH3 0x461BCD PUSH1 0xE5 SHL DUP2 MSTORE PUSH1 0x20 PUSH1 0x4 DUP3 ADD MSTORE PUSH1 0xF PUSH1 0x24 DUP3 ADD MSTORE PUSH15 0xDCDEE840CADCDEEACED040C6C2E6D PUSH1 0x8B SHL PUSH1 0x44 DUP3 ADD MSTORE PUSH1 0x64 ADD PUSH2 0x833 JUMP JUMPDEST PUSH1 0x1 PUSH1 0x1 PUSH1 0xA0 SHL SUB DUP2 AND PUSH1 0x0 SWAP1 DUP2 MSTORE PUSH1 0xB PUSH1 0x20 SWAP1 DUP2 MSTORE PUSH1 0x40 DUP1 DUP4 KECCAK256 PUSH1 0xD DUP1 SLOAD DUP6 MSTORE SWAP3 MSTORE DUP1 DUP4 KECCAK256 PUSH1 0x1 SWAP1 DUP2 ADD DUP1 SLOAD PUSH1 0xFF NOT AND SWAP1 SWAP2 OR SWAP1 SSTORE SWAP1 SLOAD DUP3 MSTORE DUP2 KECCAK256 PUSH1 0x2 ADD DUP1 SLOAD DUP5 SWAP3 SWAP1 PUSH2 0xE30 SWAP1 DUP5 SWAP1 PUSH2 0x32FB JUMP JUMPDEST SWAP1 SWAP2 SSTORE POP POP PUSH1 0x1 PUSH1 0x1 PUSH1 0xA0 SHL SUB DUP2 AND PUSH1 0x0 SWAP1 DUP2 MSTORE PUSH1 0x9 PUSH1 0x20 MSTORE PUSH1 0x40 DUP2 KECCAK256 DUP1 SLOAD DUP5 SWAP3 SWAP1 PUSH2 0xE5D SWAP1 DUP5 SWAP1 PUSH2 0x3479 JUMP JUMPDEST SWAP3 POP POP DUP2 SWAP1 SSTORE POP PUSH1 0x0 DUP4 PUSH1 0xC PUSH1 0xD SLOAD DUP2 SLOAD DUP2 LT PUSH2 0xE7C JUMPI PUSH2 0xE7C PUSH2 0x3490 JUMP JUMPDEST SWAP1 PUSH1 0x0 MSTORE PUSH1 0x20 PUSH1 0x0 KECCAK256 SWAP1 PUSH1 0x4 MUL ADD PUSH1 0x0 ADD SLOAD DUP5 PUSH2 0xE99 SWAP2 SWAP1 PUSH2 0x3438 JUMP JUMPDEST PUSH2 0xEA3 SWAP2 SWAP1 PUSH2 0x3457 JUMP JUMPDEST SWAP1 POP DUP1 PUSH1 0xC PUSH1 0xD SLOAD DUP2 SLOAD DUP2 LT PUSH2 0xEBB JUMPI PUSH2 0xEBB PUSH2 0x3490 JUMP JUMPDEST SWAP1 PUSH1 0x0 MSTORE PUSH1 0x20 PUSH1 0x0 KECCAK256 SWAP1 PUSH1 0x4 MUL ADD PUSH1 0x2 ADD PUSH1 0x0 DUP3 DUP3 SLOAD PUSH2 0xEDB SWAP2 SWAP1 PUSH2 0x32FB JUMP JUMPDEST SWAP1 SWAP2 SSTORE POP POP PUSH1 0xD DUP1 SLOAD PUSH1 0x0 SWAP1 DUP2 MSTORE PUSH1 0xA PUSH1 0x20 SWAP1 DUP2 MSTORE PUSH1 0x40 DUP1 DUP4 KECCAK256 DUP2 MLOAD PUSH1 0x60 DUP2 ADD DUP4 MSTORE DUP10 DUP2 MSTORE DUP1 DUP5 ADD DUP8 DUP2 MSTORE PUSH1 0x1 PUSH1 0x1 PUSH1 0xA0 SHL SUB DUP10 DUP2 AND SWAP5 DUP4 ADD SWAP5 DUP6 MSTORE DUP4 SLOAD PUSH1 0x1 DUP1 DUP3 ADD DUP7 SSTORE SWAP5 DUP9 MSTORE SWAP6 SWAP1 SWAP7 KECCAK256 SWAP2 MLOAD PUSH1 0x3 SWAP1 SWAP6 MUL SWAP1 SWAP2 ADD SWAP4 DUP5 SSTORE MLOAD SWAP1 DUP4 ADD SSTORE MLOAD PUSH1 0x2 SWAP1 SWAP2 ADD DUP1 SLOAD PUSH1 0x1 PUSH1 0x1 PUSH1 0xA0 SHL SUB NOT AND SWAP2 SWAP1 SWAP3 AND OR SWAP1 SSTORE SLOAD PUSH1 0xC DUP1 SLOAD SWAP1 SWAP2 SWAP1 DUP2 LT PUSH2 0xF68 JUMPI PUSH2 0xF68 PUSH2 0x3490 JUMP JUMPDEST PUSH1 0x0 SWAP2 DUP3 MSTORE PUSH1 0x20 SWAP1 SWAP2 KECCAK256 PUSH1 0x3 PUSH1 0x4 SWAP1 SWAP3 MUL ADD ADD SLOAD PUSH2 0xFE6 JUMPI PUSH1 0xC PUSH1 0xD SLOAD DUP2 SLOAD DUP2 LT PUSH2 0xF95 JUMPI PUSH2 0xF95 PUSH2 0x3490 JUMP JUMPDEST SWAP1 PUSH1 0x0 MSTORE PUSH1 0x20 PUSH1 0x0 KECCAK256 SWAP1 PUSH1 0x4 MUL ADD PUSH1 0x3 ADD PUSH1 0x1 PUSH1 0xA PUSH1 0x0 PUSH1 0xD SLOAD DUP2 MSTORE PUSH1 0x20 ADD SWAP1 DUP2 MSTORE PUSH1 0x20 ADD PUSH1 0x0 KECCAK256 DUP1 SLOAD SWAP1 POP PUSH2 0xFCB SWAP2 SWAP1 PUSH2 0x3479 JUMP JUMPDEST DUP2 SLOAD PUSH1 0x1 DUP2 ADD DUP4 SSTORE PUSH1 0x0 SWAP3 DUP4 MSTORE PUSH1 0x20 SWAP1 SWAP3 KECCAK256 SWAP1 SWAP2 ADD SSTORE PUSH2 0xFEF JUMP JUMPDEST PUSH2 0xFEF DUP5 PUSH2 0x2D6C JUMP JUMPDEST POP POP POP POP JUMP JUMPDEST PUSH1 0x5 DUP2 DUP2 SLOAD DUP2 LT PUSH2 0x1005 JUMPI PUSH1 0x0 DUP1 REVERT JUMPDEST PUSH1 0x0 SWAP2 DUP3 MSTORE PUSH1 0x20 SWAP1 SWAP2 KECCAK256 ADD SLOAD PUSH1 0x1 PUSH1 0x1 PUSH1 0xA0 SHL SUB AND SWAP1 POP DUP2 JUMP JUMPDEST PUSH1 0x0 SLOAD PUSH1 0x1 PUSH1 0x1 PUSH1 0xA0 SHL SUB AND CALLER EQ PUSH2 0x1049 JUMPI PUSH1 0x40 MLOAD PUSH3 0x461BCD PUSH1 0xE5 SHL DUP2 MSTORE PUSH1 0x4 ADD PUSH2 0x833 SWAP1 PUSH2 0x3313 JUMP JUMPDEST PUSH1 0x0 JUMPDEST PUSH1 0x4 SLOAD DUP2 LT ISZERO PUSH2 0x1119 JUMPI PUSH1 0x0 PUSH1 0x4 DUP3 DUP2 SLOAD DUP2 LT PUSH2 0x106B JUMPI PUSH2 0x106B PUSH2 0x3490 JUMP JUMPDEST PUSH1 0x0 SWAP2 DUP3 MSTORE PUSH1 0x20 DUP3 KECCAK256 ADD SLOAD PUSH1 0x1 PUSH1 0x1 PUSH1 0xA0 SHL SUB AND SWAP2 POP PUSH2 0x108A DUP3 PUSH2 0x21F8 JUMP JUMPDEST PUSH1 0x6 SLOAD PUSH1 0x40 MLOAD PUSH4 0xA9059CBB PUSH1 0xE0 SHL DUP2 MSTORE PUSH1 0x1 PUSH1 0x1 PUSH1 0xA0 SHL SUB DUP6 DUP2 AND PUSH1 0x4 DUP4 ADD MSTORE PUSH1 0x24 DUP3 ADD DUP5 SWAP1 MSTORE SWAP3 SWAP4 POP SWAP2 AND SWAP1 PUSH4 0xA9059CBB SWAP1 PUSH1 0x44 ADD PUSH1 0x20 PUSH1 0x40 MLOAD DUP1 DUP4 SUB DUP2 PUSH1 0x0 DUP8 GAS CALL ISZERO DUP1 ISZERO PUSH2 0x10DF JUMPI RETURNDATASIZE PUSH1 0x0 DUP1 RETURNDATACOPY RETURNDATASIZE PUSH1 0x0 REVERT JUMPDEST POP POP POP POP PUSH1 0x40 MLOAD RETURNDATASIZE PUSH1 0x1F NOT PUSH1 0x1F DUP3 ADD AND DUP3 ADD DUP1 PUSH1 0x40 MSTORE POP DUP2 ADD SWAP1 PUSH2 0x1103 SWAP2 SWAP1 PUSH2 0x32C3 JUMP JUMPDEST POP POP POP DUP1 DUP1 PUSH2 0x1111 SWAP1 PUSH2 0x34EC JUMP JUMPDEST SWAP2 POP POP PUSH2 0x104C JUMP JUMPDEST POP JUMP JUMPDEST PUSH1 0x0 CALLER SWAP1 POP PUSH1 0x0 PUSH1 0xC PUSH1 0xD SLOAD DUP2 SLOAD DUP2 LT PUSH2 0x1138 JUMPI PUSH2 0x1138 PUSH2 0x3490 JUMP JUMPDEST SWAP1 PUSH1 0x0 MSTORE PUSH1 0x20 PUSH1 0x0 KECCAK256 SWAP1 PUSH1 0x4 MUL ADD PUSH1 0x3 ADD DUP1 SLOAD SWAP1 POP GT PUSH2 0x119A JUMPI PUSH1 0x40 MLOAD PUSH3 0x461BCD PUSH1 0xE5 SHL DUP2 MSTORE PUSH1 0x20 PUSH1 0x4 DUP3 ADD MSTORE PUSH1 0x1E PUSH1 0x24 DUP3 ADD MSTORE PUSH32 0x63616E6E6F742073656C6C206966207468657265206973206E6F206269640000 PUSH1 0x44 DUP3 ADD MSTORE PUSH1 0x64 ADD PUSH2 0x833 JUMP JUMPDEST PUSH2 0x11A5 PUSH1 0xA TIMESTAMP PUSH2 0x3479 JUMP JUMPDEST PUSH1 0xC PUSH1 0xD SLOAD DUP2 SLOAD DUP2 LT PUSH2 0x11BA JUMPI PUSH2 0x11BA PUSH2 0x3490 JUMP JUMPDEST SWAP1 PUSH1 0x0 MSTORE PUSH1 0x20 PUSH1 0x0 KECCAK256 SWAP1 PUSH1 0x4 MUL ADD PUSH1 0x1 ADD SLOAD GT PUSH2 0x11E9 JUMPI PUSH1 0x40 MLOAD PUSH3 0x461BCD PUSH1 0xE5 SHL DUP2 MSTORE PUSH1 0x4 ADD PUSH2 0x833 SWAP1 PUSH2 0x34A6 JUMP JUMPDEST PUSH1 0x1 PUSH1 0x1 PUSH1 0x1 PUSH1 0xA0 SHL SUB DUP3 AND PUSH1 0x0 SWAP1 DUP2 MSTORE PUSH1 0xB PUSH1 0x20 SWAP1 DUP2 MSTORE PUSH1 0x40 DUP1 DUP4 KECCAK256 PUSH1 0xD SLOAD DUP5 MSTORE SWAP1 SWAP2 MSTORE SWAP1 KECCAK256 PUSH1 0x1 ADD SLOAD PUSH1 0xFF AND PUSH1 0x3 DUP2 GT ISZERO PUSH2 0x1228 JUMPI PUSH2 0x1228 PUSH2 0x31CE JUMP JUMPDEST EQ ISZERO PUSH2 0x1276 JUMPI PUSH1 0x40 MLOAD PUSH3 0x461BCD PUSH1 0xE5 SHL DUP2 MSTORE PUSH1 0x20 PUSH1 0x4 DUP3 ADD MSTORE PUSH1 0x1B PUSH1 0x24 DUP3 ADD MSTORE PUSH32 0x6275796572206F66206F7074696F6E2063616E6E6F742073656C6C0000000000 PUSH1 0x44 DUP3 ADD MSTORE PUSH1 0x64 ADD PUSH2 0x833 JUMP JUMPDEST PUSH2 0x3E8 DUP3 LT ISZERO PUSH2 0x12BA JUMPI PUSH1 0x40 MLOAD PUSH3 0x461BCD PUSH1 0xE5 SHL DUP2 MSTORE PUSH1 0x20 PUSH1 0x4 DUP3 ADD MSTORE PUSH1 0xF PUSH1 0x24 DUP3 ADD MSTORE PUSH15 0x4D696E2073697A65203D203130303 PUSH1 0x8C SHL PUSH1 0x44 DUP3 ADD MSTORE PUSH1 0x64 ADD PUSH2 0x833 JUMP JUMPDEST PUSH1 0xC PUSH1 0xD SLOAD DUP2 SLOAD DUP2 LT PUSH2 0x12CF JUMPI PUSH2 0x12CF PUSH2 0x3490 JUMP JUMPDEST SWAP1 PUSH1 0x0 MSTORE PUSH1 0x20 PUSH1 0x0 KECCAK256 SWAP1 PUSH1 0x4 MUL ADD PUSH1 0x2 ADD SLOAD DUP3 GT ISZERO PUSH2 0x131D JUMPI PUSH1 0x40 MLOAD PUSH3 0x461BCD PUSH1 0xE5 SHL DUP2 MSTORE PUSH1 0x20 PUSH1 0x4 DUP3 ADD MSTORE PUSH1 0xA PUSH1 0x24 DUP3 ADD MSTORE PUSH10 0x6C6F7720737570706C79 PUSH1 0xB0 SHL PUSH1 0x44 DUP3 ADD MSTORE PUSH1 0x64 ADD PUSH2 0x833 JUMP JUMPDEST PUSH1 0x1 PUSH1 0x1 PUSH1 0xA0 SHL SUB DUP2 AND PUSH1 0x0 SWAP1 DUP2 MSTORE PUSH1 0x9 PUSH1 0x20 MSTORE PUSH1 0x40 SWAP1 KECCAK256 SLOAD DUP3 GT ISZERO PUSH2 0x1377 JUMPI PUSH1 0x40 MLOAD PUSH3 0x461BCD PUSH1 0xE5 SHL DUP2 MSTORE PUSH1 0x20 PUSH1 0x4 DUP3 ADD MSTORE PUSH1 0xF PUSH1 0x24 DUP3 ADD MSTORE PUSH15 0xDCDEE840CADCDEEACED040C6C2E6D PUSH1 0x8B SHL PUSH1 0x44 DUP3 ADD MSTORE PUSH1 0x64 ADD PUSH2 0x833 JUMP JUMPDEST PUSH1 0x1 PUSH1 0x1 PUSH1 0xA0 SHL SUB DUP2 AND PUSH1 0x0 SWAP1 DUP2 MSTORE PUSH1 0x9 PUSH1 0x20 MSTORE PUSH1 0x40 DUP2 KECCAK256 DUP1 SLOAD DUP5 SWAP3 SWAP1 PUSH2 0x139F SWAP1 DUP5 SWAP1 PUSH2 0x3479 JUMP JUMPDEST SWAP3 POP POP DUP2 SWAP1 SSTORE POP PUSH1 0x0 DUP3 SWAP1 POP PUSH1 0x0 DUP1 DUP1 PUSH1 0x1 PUSH1 0xC PUSH1 0xD SLOAD DUP2 SLOAD DUP2 LT PUSH2 0x13C6 JUMPI PUSH2 0x13C6 PUSH2 0x3490 JUMP JUMPDEST SWAP1 PUSH1 0x0 MSTORE PUSH1 0x20 PUSH1 0x0 KECCAK256 SWAP1 PUSH1 0x4 MUL ADD PUSH1 0x3 ADD DUP1 SLOAD SWAP1 POP PUSH2 0x13E5 SWAP2 SWAP1 PUSH2 0x3479 JUMP JUMPDEST SWAP1 POP JUMPDEST DUP4 ISZERO PUSH2 0x1BBC JUMPI PUSH1 0xD SLOAD PUSH1 0x0 DUP2 DUP2 MSTORE PUSH1 0xA PUSH1 0x20 MSTORE PUSH1 0x40 SWAP1 KECCAK256 PUSH1 0xC DUP1 SLOAD SWAP2 SWAP3 SWAP1 SWAP2 DUP2 LT PUSH2 0x1415 JUMPI PUSH2 0x1415 PUSH2 0x3490 JUMP JUMPDEST SWAP1 PUSH1 0x0 MSTORE PUSH1 0x20 PUSH1 0x0 KECCAK256 SWAP1 PUSH1 0x4 MUL ADD PUSH1 0x3 ADD DUP3 DUP2 SLOAD DUP2 LT PUSH2 0x1437 JUMPI PUSH2 0x1437 PUSH2 0x3490 JUMP JUMPDEST SWAP1 PUSH1 0x0 MSTORE PUSH1 0x20 PUSH1 0x0 KECCAK256 ADD SLOAD DUP2 SLOAD DUP2 LT PUSH2 0x1452 JUMPI PUSH2 0x1452 PUSH2 0x3490 JUMP JUMPDEST SWAP1 PUSH1 0x0 MSTORE PUSH1 0x20 PUSH1 0x0 KECCAK256 SWAP1 PUSH1 0x3 MUL ADD PUSH1 0x1 ADD SLOAD SWAP2 POP DUP2 DUP5 LT PUSH2 0x1832 JUMPI PUSH1 0xD SLOAD PUSH1 0x0 DUP2 DUP2 MSTORE PUSH1 0xA PUSH1 0x20 MSTORE PUSH1 0x40 DUP2 KECCAK256 PUSH1 0xC DUP1 SLOAD DUP7 SWAP5 PUSH1 0xB SWAP5 SWAP4 SWAP3 SWAP2 DUP2 LT PUSH2 0x1498 JUMPI PUSH2 0x1498 PUSH2 0x3490 JUMP JUMPDEST SWAP1 PUSH1 0x0 MSTORE PUSH1 0x20 PUSH1 0x0 KECCAK256 SWAP1 PUSH1 0x4 MUL ADD PUSH1 0x3 ADD DUP6 DUP2 SLOAD DUP2 LT PUSH2 0x14BA JUMPI PUSH2 0x14BA PUSH2 0x3490 JUMP JUMPDEST SWAP1 PUSH1 0x0 MSTORE PUSH1 0x20 PUSH1 0x0 KECCAK256 ADD SLOAD DUP2 SLOAD DUP2 LT PUSH2 0x14D5 JUMPI PUSH2 0x14D5 PUSH2 0x3490 JUMP JUMPDEST PUSH1 0x0 SWAP2 DUP3 MSTORE PUSH1 0x20 DUP1 DUP4 KECCAK256 PUSH1 0x2 PUSH1 0x3 SWAP1 SWAP4 MUL ADD SWAP2 SWAP1 SWAP2 ADD SLOAD PUSH1 0x1 PUSH1 0x1 PUSH1 0xA0 SHL SUB AND DUP4 MSTORE DUP3 DUP2 ADD SWAP4 SWAP1 SWAP4 MSTORE PUSH1 0x40 SWAP2 DUP3 ADD DUP2 KECCAK256 PUSH1 0xD SLOAD DUP3 MSTORE SWAP1 SWAP3 MSTORE DUP2 KECCAK256 DUP1 SLOAD SWAP1 SWAP2 SWAP1 PUSH2 0x151F SWAP1 DUP5 SWAP1 PUSH2 0x32FB JUMP JUMPDEST SWAP3 POP POP DUP2 SWAP1 SSTORE POP PUSH1 0xC PUSH1 0xD SLOAD DUP2 SLOAD DUP2 LT PUSH2 0x153B JUMPI PUSH2 0x153B PUSH2 0x3490 JUMP JUMPDEST SWAP1 PUSH1 0x0 MSTORE PUSH1 0x20 PUSH1 0x0 KECCAK256 SWAP1 PUSH1 0x4 MUL ADD PUSH1 0x0 ADD SLOAD PUSH1 0xA PUSH1 0x0 PUSH1 0xD SLOAD DUP2 MSTORE PUSH1 0x20 ADD SWAP1 DUP2 MSTORE PUSH1 0x20 ADD PUSH1 0x0 KECCAK256 PUSH1 0xC PUSH1 0xD SLOAD DUP2 SLOAD DUP2 LT PUSH2 0x1577 JUMPI PUSH2 0x1577 PUSH2 0x3490 JUMP JUMPDEST SWAP1 PUSH1 0x0 MSTORE PUSH1 0x20 PUSH1 0x0 KECCAK256 SWAP1 PUSH1 0x4 MUL ADD PUSH1 0x3 ADD DUP4 DUP2 SLOAD DUP2 LT PUSH2 0x1599 JUMPI PUSH2 0x1599 PUSH2 0x3490 JUMP JUMPDEST SWAP1 PUSH1 0x0 MSTORE PUSH1 0x20 PUSH1 0x0 KECCAK256 ADD SLOAD DUP2 SLOAD DUP2 LT PUSH2 0x15B4 JUMPI PUSH2 0x15B4 PUSH2 0x3490 JUMP JUMPDEST SWAP1 PUSH1 0x0 MSTORE PUSH1 0x20 PUSH1 0x0 KECCAK256 SWAP1 PUSH1 0x3 MUL ADD PUSH1 0x0 ADD SLOAD DUP4 PUSH2 0x15D1 SWAP2 SWAP1 PUSH2 0x3438 JUMP JUMPDEST PUSH2 0x15DB SWAP2 SWAP1 PUSH2 0x3457 JUMP JUMPDEST PUSH1 0xD SLOAD PUSH1 0x0 DUP2 DUP2 MSTORE PUSH1 0xA PUSH1 0x20 MSTORE PUSH1 0x40 DUP2 KECCAK256 PUSH1 0xC DUP1 SLOAD PUSH1 0xB SWAP5 SWAP1 DUP2 LT PUSH2 0x1602 JUMPI PUSH2 0x1602 PUSH2 0x3490 JUMP JUMPDEST SWAP1 PUSH1 0x0 MSTORE PUSH1 0x20 PUSH1 0x0 KECCAK256 SWAP1 PUSH1 0x4 MUL ADD PUSH1 0x3 ADD DUP6 DUP2 SLOAD DUP2 LT PUSH2 0x1624 JUMPI PUSH2 0x1624 PUSH2 0x3490 JUMP JUMPDEST SWAP1 PUSH1 0x0 MSTORE PUSH1 0x20 PUSH1 0x0 KECCAK256 ADD SLOAD DUP2 SLOAD DUP2 LT PUSH2 0x163F JUMPI PUSH2 0x163F PUSH2 0x3490 JUMP JUMPDEST PUSH1 0x0 SWAP2 DUP3 MSTORE PUSH1 0x20 DUP1 DUP4 KECCAK256 PUSH1 0x2 PUSH1 0x3 SWAP1 SWAP4 MUL ADD DUP3 ADD SLOAD PUSH1 0x1 PUSH1 0x1 PUSH1 0xA0 SHL SUB AND DUP5 MSTORE DUP4 DUP2 ADD SWAP5 SWAP1 SWAP5 MSTORE PUSH1 0x40 SWAP3 DUP4 ADD DUP3 KECCAK256 PUSH1 0xD SLOAD DUP4 MSTORE SWAP1 SWAP4 MSTORE SWAP1 DUP2 KECCAK256 SWAP1 SWAP2 ADD DUP1 SLOAD SWAP1 SWAP2 SWAP1 PUSH2 0x168B SWAP1 DUP5 SWAP1 PUSH2 0x3479 JUMP JUMPDEST SWAP1 SWAP2 SSTORE POP POP PUSH1 0xD SLOAD PUSH1 0x0 DUP2 DUP2 MSTORE PUSH1 0xA PUSH1 0x20 MSTORE PUSH1 0x40 SWAP1 KECCAK256 PUSH1 0xC DUP1 SLOAD SWAP2 SWAP3 SWAP1 SWAP2 DUP2 LT PUSH2 0x16B7 JUMPI PUSH2 0x16B7 PUSH2 0x3490 JUMP JUMPDEST SWAP1 PUSH1 0x0 MSTORE PUSH1 0x20 PUSH1 0x0 KECCAK256 SWAP1 PUSH1 0x4 MUL ADD PUSH1 0x3 ADD DUP3 DUP2 SLOAD DUP2 LT PUSH2 0x16D9 JUMPI PUSH2 0x16D9 PUSH2 0x3490 JUMP JUMPDEST SWAP1 PUSH1 0x0 MSTORE PUSH1 0x20 PUSH1 0x0 KECCAK256 ADD SLOAD DUP2 SLOAD DUP2 LT PUSH2 0x16F4 JUMPI PUSH2 0x16F4 PUSH2 0x3490 JUMP JUMPDEST SWAP1 PUSH1 0x0 MSTORE PUSH1 0x20 PUSH1 0x0 KECCAK256 SWAP1 PUSH1 0x3 MUL ADD PUSH1 0x0 ADD SLOAD DUP3 PUSH2 0x1711 SWAP2 SWAP1 PUSH2 0x3438 JUMP JUMPDEST PUSH2 0x171B SWAP1 DUP5 PUSH2 0x32FB JUMP JUMPDEST SWAP3 POP DUP2 PUSH1 0xC PUSH1 0xD SLOAD DUP2 SLOAD DUP2 LT PUSH2 0x1733 JUMPI PUSH2 0x1733 PUSH2 0x3490 JUMP JUMPDEST SWAP1 PUSH1 0x0 MSTORE PUSH1 0x20 PUSH1 0x0 KECCAK256 SWAP1 PUSH1 0x4 MUL ADD PUSH1 0x2 ADD PUSH1 0x0 DUP3 DUP3 SLOAD PUSH2 0x1753 SWAP2 SWAP1 PUSH2 0x3479 JUMP JUMPDEST SWAP1 SWAP2 SSTORE POP POP PUSH1 0xD SLOAD PUSH1 0x0 DUP2 DUP2 MSTORE PUSH1 0xA PUSH1 0x20 MSTORE PUSH1 0x40 DUP2 KECCAK256 PUSH1 0xC DUP1 SLOAD SWAP3 SWAP4 SWAP2 SWAP3 SWAP1 SWAP2 SWAP1 DUP2 LT PUSH2 0x1782 JUMPI PUSH2 0x1782 PUSH2 0x3490 JUMP JUMPDEST SWAP1 PUSH1 0x0 MSTORE PUSH1 0x20 PUSH1 0x0 KECCAK256 SWAP1 PUSH1 0x4 MUL ADD PUSH1 0x3 ADD DUP4 DUP2 SLOAD DUP2 LT PUSH2 0x17A4 JUMPI PUSH2 0x17A4 PUSH2 0x3490 JUMP JUMPDEST SWAP1 PUSH1 0x0 MSTORE PUSH1 0x20 PUSH1 0x0 KECCAK256 ADD SLOAD DUP2 SLOAD DUP2 LT PUSH2 0x17BF JUMPI PUSH2 0x17BF PUSH2 0x3490 JUMP JUMPDEST SWAP1 PUSH1 0x0 MSTORE PUSH1 0x20 PUSH1 0x0 KECCAK256 SWAP1 PUSH1 0x3 MUL ADD PUSH1 0x1 ADD DUP2 SWAP1 SSTORE POP PUSH1 0xC PUSH1 0xD SLOAD DUP2 SLOAD DUP2 LT PUSH2 0x17E9 JUMPI PUSH2 0x17E9 PUSH2 0x3490 JUMP JUMPDEST SWAP1 PUSH1 0x0 MSTORE PUSH1 0x20 PUSH1 0x0 KECCAK256 SWAP1 PUSH1 0x4 MUL ADD PUSH1 0x3 ADD DUP1 SLOAD DUP1 PUSH2 0x1809 JUMPI PUSH2 0x1809 PUSH2 0x3507 JUMP JUMPDEST PUSH1 0x1 SWAP1 SUB DUP2 DUP2 SWAP1 PUSH1 0x0 MSTORE PUSH1 0x20 PUSH1 0x0 KECCAK256 ADD PUSH1 0x0 SWAP1 SSTORE SWAP1 SSTORE DUP2 DUP5 PUSH2 0x182B SWAP2 SWAP1 PUSH2 0x3479 JUMP JUMPDEST SWAP4 POP PUSH2 0x1BAA JUMP JUMPDEST PUSH1 0xD SLOAD PUSH1 0x0 DUP2 DUP2 MSTORE PUSH1 0xA PUSH1 0x20 MSTORE PUSH1 0x40 DUP2 KECCAK256 PUSH1 0xC DUP1 SLOAD DUP9 SWAP5 PUSH1 0xB SWAP5 SWAP4 SWAP3 SWAP2 DUP2 LT PUSH2 0x185D JUMPI PUSH2 0x185D PUSH2 0x3490 JUMP JUMPDEST SWAP1 PUSH1 0x0 MSTORE PUSH1 0x20 PUSH1 0x0 KECCAK256 SWAP1 PUSH1 0x4 MUL ADD PUSH1 0x3 ADD DUP6 DUP2 SLOAD DUP2 LT PUSH2 0x187F JUMPI PUSH2 0x187F PUSH2 0x3490 JUMP JUMPDEST SWAP1 PUSH1 0x0 MSTORE PUSH1 0x20 PUSH1 0x0 KECCAK256 ADD SLOAD DUP2 SLOAD DUP2 LT PUSH2 0x189A JUMPI PUSH2 0x189A PUSH2 0x3490 JUMP JUMPDEST PUSH1 0x0 SWAP2 DUP3 MSTORE PUSH1 0x20 DUP1 DUP4 KECCAK256 PUSH1 0x2 PUSH1 0x3 SWAP1 SWAP4 MUL ADD SWAP2 SWAP1 SWAP2 ADD SLOAD PUSH1 0x1 PUSH1 0x1 PUSH1 0xA0 SHL SUB AND DUP4 MSTORE DUP3 DUP2 ADD SWAP4 SWAP1 SWAP4 MSTORE PUSH1 0x40 SWAP2 DUP3 ADD DUP2 KECCAK256 PUSH1 0xD SLOAD DUP3 MSTORE SWAP1 SWAP3 MSTORE DUP2 KECCAK256 DUP1 SLOAD SWAP1 SWAP2 SWAP1 PUSH2 0x18E4 SWAP1 DUP5 SWAP1 PUSH2 0x32FB JUMP JUMPDEST SWAP3 POP POP DUP2 SWAP1 SSTORE POP PUSH1 0xC PUSH1 0xD SLOAD DUP2 SLOAD DUP2 LT PUSH2 0x1900 JUMPI PUSH2 0x1900 PUSH2 0x3490 JUMP JUMPDEST SWAP1 PUSH1 0x0 MSTORE PUSH1 0x20 PUSH1 0x0 KECCAK256 SWAP1 PUSH1 0x4 MUL ADD PUSH1 0x0 ADD SLOAD PUSH1 0xA PUSH1 0x0 PUSH1 0xD SLOAD DUP2 MSTORE PUSH1 0x20 ADD SWAP1 DUP2 MSTORE PUSH1 0x20 ADD PUSH1 0x0 KECCAK256 PUSH1 0xC PUSH1 0xD SLOAD DUP2 SLOAD DUP2 LT PUSH2 0x193C JUMPI PUSH2 0x193C PUSH2 0x3490 JUMP JUMPDEST SWAP1 PUSH1 0x0 MSTORE PUSH1 0x20 PUSH1 0x0 KECCAK256 SWAP1 PUSH1 0x4 MUL ADD PUSH1 0x3 ADD DUP4 DUP2 SLOAD DUP2 LT PUSH2 0x195E JUMPI PUSH2 0x195E PUSH2 0x3490 JUMP JUMPDEST SWAP1 PUSH1 0x0 MSTORE PUSH1 0x20 PUSH1 0x0 KECCAK256 ADD SLOAD DUP2 SLOAD DUP2 LT PUSH2 0x1979 JUMPI PUSH2 0x1979 PUSH2 0x3490 JUMP JUMPDEST SWAP1 PUSH1 0x0 MSTORE PUSH1 0x20 PUSH1 0x0 KECCAK256 SWAP1 PUSH1 0x3 MUL ADD PUSH1 0x0 ADD SLOAD DUP6 PUSH2 0x1996 SWAP2 SWAP1 PUSH2 0x3438 JUMP JUMPDEST PUSH2 0x19A0 SWAP2 SWAP1 PUSH2 0x3457 JUMP JUMPDEST PUSH1 0xD SLOAD PUSH1 0x0 DUP2 DUP2 MSTORE PUSH1 0xA PUSH1 0x20 MSTORE PUSH1 0x40 DUP2 KECCAK256 PUSH1 0xC DUP1 SLOAD PUSH1 0xB SWAP5 SWAP1 DUP2 LT PUSH2 0x19C7 JUMPI PUSH2 0x19C7 PUSH2 0x3490 JUMP JUMPDEST SWAP1 PUSH1 0x0 MSTORE PUSH1 0x20 PUSH1 0x0 KECCAK256 SWAP1 PUSH1 0x4 MUL ADD PUSH1 0x3 ADD DUP6 DUP2 SLOAD DUP2 LT PUSH2 0x19E9 JUMPI PUSH2 0x19E9 PUSH2 0x3490 JUMP JUMPDEST SWAP1 PUSH1 0x0 MSTORE PUSH1 0x20 PUSH1 0x0 KECCAK256 ADD SLOAD DUP2 SLOAD DUP2 LT PUSH2 0x1A04 JUMPI PUSH2 0x1A04 PUSH2 0x3490 JUMP JUMPDEST PUSH1 0x0 SWAP2 DUP3 MSTORE PUSH1 0x20 DUP1 DUP4 KECCAK256 PUSH1 0x2 PUSH1 0x3 SWAP1 SWAP4 MUL ADD DUP3 ADD SLOAD PUSH1 0x1 PUSH1 0x1 PUSH1 0xA0 SHL SUB AND DUP5 MSTORE DUP4 DUP2 ADD SWAP5 SWAP1 SWAP5 MSTORE PUSH1 0x40 SWAP3 DUP4 ADD DUP3 KECCAK256 PUSH1 0xD SLOAD DUP4 MSTORE SWAP1 SWAP4 MSTORE SWAP1 DUP2 KECCAK256 SWAP1 SWAP2 ADD DUP1 SLOAD SWAP1 SWAP2 SWAP1 PUSH2 0x1A50 SWAP1 DUP5 SWAP1 PUSH2 0x3479 JUMP JUMPDEST SWAP1 SWAP2 SSTORE POP POP PUSH1 0xD SLOAD PUSH1 0x0 DUP2 DUP2 MSTORE PUSH1 0xA PUSH1 0x20 MSTORE PUSH1 0x40 SWAP1 KECCAK256 PUSH1 0xC DUP1 SLOAD SWAP2 SWAP3 SWAP1 SWAP2 DUP2 LT PUSH2 0x1A7C JUMPI PUSH2 0x1A7C PUSH2 0x3490 JUMP JUMPDEST SWAP1 PUSH1 0x0 MSTORE PUSH1 0x20 PUSH1 0x0 KECCAK256 SWAP1 PUSH1 0x4 MUL ADD PUSH1 0x3 ADD DUP3 DUP2 SLOAD DUP2 LT PUSH2 0x1A9E JUMPI PUSH2 0x1A9E PUSH2 0x3490 JUMP JUMPDEST SWAP1 PUSH1 0x0 MSTORE PUSH1 0x20 PUSH1 0x0 KECCAK256 ADD SLOAD DUP2 SLOAD DUP2 LT PUSH2 0x1AB9 JUMPI PUSH2 0x1AB9 PUSH2 0x3490 JUMP JUMPDEST SWAP1 PUSH1 0x0 MSTORE PUSH1 0x20 PUSH1 0x0 KECCAK256 SWAP1 PUSH1 0x3 MUL ADD PUSH1 0x0 ADD SLOAD DUP5 PUSH2 0x1AD6 SWAP2 SWAP1 PUSH2 0x3438 JUMP JUMPDEST PUSH2 0x1AE0 SWAP1 DUP5 PUSH2 0x32FB JUMP JUMPDEST SWAP3 POP DUP4 PUSH1 0xC PUSH1 0xD SLOAD DUP2 SLOAD DUP2 LT PUSH2 0x1AF8 JUMPI PUSH2 0x1AF8 PUSH2 0x3490 JUMP JUMPDEST SWAP1 PUSH1 0x0 MSTORE PUSH1 0x20 PUSH1 0x0 KECCAK256 SWAP1 PUSH1 0x4 MUL ADD PUSH1 0x2 ADD PUSH1 0x0 DUP3 DUP3 SLOAD PUSH2 0x1B18 SWAP2 SWAP1 PUSH2 0x3479 JUMP JUMPDEST SWAP1 SWAP2 SSTORE POP POP PUSH1 0xD SLOAD PUSH1 0x0 DUP2 DUP2 MSTORE PUSH1 0xA PUSH1 0x20 MSTORE PUSH1 0x40 SWAP1 KECCAK256 PUSH1 0xC DUP1 SLOAD DUP8 SWAP4 SWAP1 DUP2 LT PUSH2 0x1B43 JUMPI PUSH2 0x1B43 PUSH2 0x3490 JUMP JUMPDEST SWAP1 PUSH1 0x0 MSTORE PUSH1 0x20 PUSH1 0x0 KECCAK256 SWAP1 PUSH1 0x4 MUL ADD PUSH1 0x3 ADD DUP4 DUP2 SLOAD DUP2 LT PUSH2 0x1B65 JUMPI PUSH2 0x1B65 PUSH2 0x3490 JUMP JUMPDEST SWAP1 PUSH1 0x0 MSTORE PUSH1 0x20 PUSH1 0x0 KECCAK256 ADD SLOAD DUP2 SLOAD DUP2 LT PUSH2 0x1B80 JUMPI PUSH2 0x1B80 PUSH2 0x3490 JUMP JUMPDEST SWAP1 PUSH1 0x0 MSTORE PUSH1 0x20 PUSH1 0x0 KECCAK256 SWAP1 PUSH1 0x3 MUL ADD PUSH1 0x1 ADD PUSH1 0x0 DUP3 DUP3 SLOAD PUSH2 0x1BA0 SWAP2 SWAP1 PUSH2 0x3479 JUMP JUMPDEST SWAP1 SWAP2 SSTORE POP PUSH1 0x0 SWAP5 POP POP JUMPDEST DUP1 PUSH2 0x1BB4 DUP2 PUSH2 0x351D JUMP JUMPDEST SWAP2 POP POP PUSH2 0x13E8 JUMP JUMPDEST PUSH2 0x1BC7 PUSH2 0xED7 PUSH1 0x7 SSTORE JUMP JUMPDEST PUSH1 0x7 SLOAD PUSH2 0x1BD4 DUP2 DUP9 PUSH2 0x3438 JUMP JUMPDEST PUSH2 0x1BDE SWAP1 DUP6 PUSH2 0x32FB JUMP JUMPDEST PUSH2 0x1BE8 SWAP2 SWAP1 PUSH2 0x3457 JUMP JUMPDEST PUSH1 0x1 PUSH1 0x1 PUSH1 0xA0 SHL SUB DUP7 AND PUSH1 0x0 SWAP1 DUP2 MSTORE PUSH1 0xB PUSH1 0x20 SWAP1 DUP2 MSTORE PUSH1 0x40 DUP1 DUP4 KECCAK256 PUSH1 0xD SLOAD DUP5 MSTORE SWAP1 SWAP2 MSTORE DUP2 KECCAK256 DUP1 SLOAD SWAP1 SWAP2 SWAP1 PUSH2 0x1C1D SWAP1 DUP5 SWAP1 PUSH2 0x32FB JUMP JUMPDEST SWAP1 SWAP2 SSTORE POP POP POP POP PUSH1 0x1 PUSH1 0x1 PUSH1 0xA0 SHL SUB SWAP3 SWAP1 SWAP3 AND PUSH1 0x0 SWAP1 DUP2 MSTORE PUSH1 0xB PUSH1 0x20 SWAP1 DUP2 MSTORE PUSH1 0x40 DUP1 DUP4 KECCAK256 PUSH1 0xD SLOAD DUP5 MSTORE SWAP1 SWAP2 MSTORE SWAP1 KECCAK256 PUSH1 0x1 ADD DUP1 SLOAD PUSH1 0xFF NOT AND PUSH1 0x2 OR SWAP1 SSTORE POP POP POP JUMP JUMPDEST PUSH1 0x0 SLOAD PUSH1 0x1 PUSH1 0x1 PUSH1 0xA0 SHL SUB AND CALLER EQ PUSH2 0x1C88 JUMPI PUSH1 0x40 MLOAD PUSH3 0x461BCD PUSH1 0xE5 SHL DUP2 MSTORE PUSH1 0x4 ADD PUSH2 0x833 SWAP1 PUSH2 0x3313 JUMP JUMPDEST PUSH2 0x1C92 PUSH1 0x0 PUSH2 0x30EA JUMP JUMPDEST JUMP JUMPDEST PUSH1 0xA PUSH1 0x20 MSTORE DUP2 PUSH1 0x0 MSTORE PUSH1 0x40 PUSH1 0x0 KECCAK256 DUP2 DUP2 SLOAD DUP2 LT PUSH2 0x1CB0 JUMPI PUSH1 0x0 DUP1 REVERT JUMPDEST PUSH1 0x0 SWAP2 DUP3 MSTORE PUSH1 0x20 SWAP1 SWAP2 KECCAK256 PUSH1 0x3 SWAP1 SWAP2 MUL ADD DUP1 SLOAD PUSH1 0x1 DUP3 ADD SLOAD PUSH1 0x2 SWAP1 SWAP3 ADD SLOAD SWAP1 SWAP4 POP SWAP1 SWAP2 POP PUSH1 0x1 PUSH1 0x1 PUSH1 0xA0 SHL SUB AND DUP4 JUMP JUMPDEST PUSH1 0x0 TIMESTAMP PUSH1 0xC PUSH1 0xD SLOAD DUP2 SLOAD DUP2 LT PUSH2 0x1CF7 JUMPI PUSH2 0x1CF7 PUSH2 0x3490 JUMP JUMPDEST SWAP1 PUSH1 0x0 MSTORE PUSH1 0x20 PUSH1 0x0 KECCAK256 SWAP1 PUSH1 0x4 MUL ADD PUSH1 0x1 ADD SLOAD PUSH2 0x1D13 SWAP2 SWAP1 PUSH2 0x3479 JUMP JUMPDEST SWAP1 POP SWAP1 JUMP JUMPDEST PUSH1 0x0 SLOAD PUSH1 0x1 PUSH1 0x1 PUSH1 0xA0 SHL SUB AND CALLER EQ PUSH2 0x1D42 JUMPI PUSH1 0x40 MLOAD PUSH3 0x461BCD PUSH1 0xE5 SHL DUP2 MSTORE PUSH1 0x4 ADD PUSH2 0x833 SWAP1 PUSH2 0x3313 JUMP JUMPDEST PUSH1 0x1 PUSH1 0x1 PUSH1 0xA0 SHL SUB SWAP2 DUP3 AND PUSH1 0x0 SWAP1 DUP2 MSTORE PUSH1 0x3 PUSH1 0x20 MSTORE PUSH1 0x40 SWAP1 KECCAK256 DUP1 SLOAD PUSH1 0x1 PUSH1 0x1 PUSH1 0xA0 SHL SUB NOT AND SWAP2 SWAP1 SWAP3 AND OR SWAP1 SSTORE JUMP JUMPDEST CALLER PUSH1 0x0 PUSH1 0x6 SLOAD PUSH1 0x1 PUSH1 0xA0 SHL SWAP1 DIV PUSH1 0xFF AND PUSH1 0x1 DUP2 GT ISZERO PUSH2 0x1D91 JUMPI PUSH2 0x1D91 PUSH2 0x31CE JUMP JUMPDEST EQ PUSH2 0x1DDE JUMPI PUSH1 0x40 MLOAD PUSH3 0x461BCD PUSH1 0xE5 SHL DUP2 MSTORE PUSH1 0x20 PUSH1 0x4 DUP3 ADD MSTORE PUSH1 0x1E PUSH1 0x24 DUP3 ADD MSTORE PUSH32 0x636F6E747261637420627573792C2074727920616761696E206C617465720000 PUSH1 0x44 DUP3 ADD MSTORE PUSH1 0x64 ADD PUSH2 0x833 JUMP JUMPDEST PUSH1 0x1 PUSH1 0x1 PUSH1 0x1 PUSH1 0xA0 SHL SUB DUP3 AND PUSH1 0x0 SWAP1 DUP2 MSTORE PUSH1 0xB PUSH1 0x20 SWAP1 DUP2 MSTORE PUSH1 0x40 DUP1 DUP4 KECCAK256 PUSH1 0xD SLOAD DUP5 MSTORE SWAP1 SWAP2 MSTORE SWAP1 KECCAK256 PUSH1 0x1 ADD SLOAD PUSH1 0xFF AND PUSH1 0x3 DUP2 GT ISZERO PUSH2 0x1E1D JUMPI PUSH2 0x1E1D PUSH2 0x31CE JUMP JUMPDEST EQ PUSH2 0x1E6A JUMPI PUSH1 0x40 MLOAD PUSH3 0x461BCD PUSH1 0xE5 SHL DUP2 MSTORE PUSH1 0x20 PUSH1 0x4 DUP3 ADD MSTORE PUSH1 0x1C PUSH1 0x24 DUP3 ADD MSTORE PUSH32 0x796F75206E65656420746F20627579206F7074696F6E20666972737400000000 PUSH1 0x44 DUP3 ADD MSTORE PUSH1 0x64 ADD PUSH2 0x833 JUMP JUMPDEST PUSH1 0x1 PUSH1 0x1 PUSH1 0xA0 SHL SUB DUP2 AND PUSH1 0x0 SWAP1 DUP2 MSTORE PUSH1 0xB PUSH1 0x20 SWAP1 DUP2 MSTORE PUSH1 0x40 DUP1 DUP4 KECCAK256 PUSH1 0xD SLOAD DUP5 MSTORE SWAP1 SWAP2 MSTORE SWAP1 KECCAK256 PUSH1 0x2 ADD SLOAD PUSH2 0x1EEE JUMPI PUSH1 0x40 MLOAD PUSH3 0x461BCD PUSH1 0xE5 SHL DUP2 MSTORE PUSH1 0x20 PUSH1 0x4 DUP3 ADD MSTORE PUSH1 0x26 PUSH1 0x24 DUP3 ADD MSTORE PUSH32 0x796F7572206F64657220686173206265656E2066696C6C6564206F722063616E PUSH1 0x44 DUP3 ADD MSTORE PUSH6 0x18D95B1B1959 PUSH1 0xD2 SHL PUSH1 0x64 DUP3 ADD MSTORE PUSH1 0x84 ADD PUSH2 0x833 JUMP JUMPDEST PUSH1 0x6 DUP1 SLOAD PUSH1 0xFF PUSH1 0xA0 SHL NOT AND PUSH1 0x1 PUSH1 0xA0 SHL OR SWAP1 SSTORE PUSH1 0x1 PUSH1 0x1 PUSH1 0xA0 SHL SUB DUP2 AND PUSH1 0x0 DUP2 DUP2 MSTORE PUSH1 0xB PUSH1 0x20 SWAP1 DUP2 MSTORE PUSH1 0x40 DUP1 DUP4 KECCAK256 PUSH1 0xD SLOAD DUP5 MSTORE DUP3 MSTORE DUP1 DUP4 KECCAK256 PUSH1 0x2 ADD SLOAD SWAP4 DUP4 MSTORE PUSH1 0x9 SWAP1 SWAP2 MSTORE DUP2 KECCAK256 DUP1 SLOAD SWAP1 SWAP2 SWAP1 PUSH2 0x1F44 SWAP1 DUP5 SWAP1 PUSH2 0x32FB JUMP JUMPDEST SWAP1 SWAP2 SSTORE POP POP PUSH1 0x1 PUSH1 0x1 PUSH1 0xA0 SHL SUB DUP2 AND PUSH1 0x0 SWAP1 DUP2 MSTORE PUSH1 0xB PUSH1 0x20 SWAP1 DUP2 MSTORE PUSH1 0x40 DUP1 DUP4 KECCAK256 PUSH1 0xD DUP1 SLOAD DUP6 MSTORE SWAP3 MSTORE DUP3 KECCAK256 PUSH1 0x2 ADD DUP3 SWAP1 SSTORE SLOAD PUSH1 0xC DUP1 SLOAD SWAP1 SWAP2 SWAP1 DUP2 LT PUSH2 0x1F8A JUMPI PUSH2 0x1F8A PUSH2 0x3490 JUMP JUMPDEST SWAP1 PUSH1 0x0 MSTORE PUSH1 0x20 PUSH1 0x0 KECCAK256 SWAP1 PUSH1 0x4 MUL ADD PUSH1 0x3 ADD DUP1 SLOAD DUP1 PUSH1 0x20 MUL PUSH1 0x20 ADD PUSH1 0x40 MLOAD SWAP1 DUP2 ADD PUSH1 0x40 MSTORE DUP1 SWAP3 SWAP2 SWAP1 DUP2 DUP2 MSTORE PUSH1 0x20 ADD DUP3 DUP1 SLOAD DUP1 ISZERO PUSH2 0x1FE5 JUMPI PUSH1 0x20 MUL DUP3 ADD SWAP2 SWAP1 PUSH1 0x0 MSTORE PUSH1 0x20 PUSH1 0x0 KECCAK256 SWAP1 JUMPDEST DUP2 SLOAD DUP2 MSTORE PUSH1 0x20 ADD SWAP1 PUSH1 0x1 ADD SWAP1 DUP1 DUP4 GT PUSH2 0x1FD1 JUMPI JUMPDEST POP POP POP POP POP SWAP1 POP PUSH1 0x0 DUP1 JUMPDEST DUP3 MLOAD DUP2 LT ISZERO PUSH2 0x216F JUMPI DUP4 PUSH1 0x1 PUSH1 0x1 PUSH1 0xA0 SHL SUB AND PUSH1 0xA PUSH1 0x0 PUSH1 0xD SLOAD DUP2 MSTORE PUSH1 0x20 ADD SWAP1 DUP2 MSTORE PUSH1 0x20 ADD PUSH1 0x0 KECCAK256 DUP5 DUP4 DUP2 MLOAD DUP2 LT PUSH2 0x202A JUMPI PUSH2 0x202A PUSH2 0x3490 JUMP JUMPDEST PUSH1 0x20 MUL PUSH1 0x20 ADD ADD MLOAD DUP2 SLOAD DUP2 LT PUSH2 0x2042 JUMPI PUSH2 0x2042 PUSH2 0x3490 JUMP JUMPDEST PUSH1 0x0 SWAP2 DUP3 MSTORE PUSH1 0x20 SWAP1 SWAP2 KECCAK256 PUSH1 0x2 PUSH1 0x3 SWAP1 SWAP3 MUL ADD ADD SLOAD PUSH1 0x1 PUSH1 0x1 PUSH1 0xA0 SHL SUB AND EQ PUSH2 0x20D3 JUMPI DUP3 DUP2 DUP2 MLOAD DUP2 LT PUSH2 0x2076 JUMPI PUSH2 0x2076 PUSH2 0x3490 JUMP JUMPDEST PUSH1 0x20 MUL PUSH1 0x20 ADD ADD MLOAD PUSH1 0xC PUSH1 0xD SLOAD DUP2 SLOAD DUP2 LT PUSH2 0x2093 JUMPI PUSH2 0x2093 PUSH2 0x3490 JUMP JUMPDEST SWAP1 PUSH1 0x0 MSTORE PUSH1 0x20 PUSH1 0x0 KECCAK256 SWAP1 PUSH1 0x4 MUL ADD PUSH1 0x3 ADD DUP4 DUP2 SLOAD DUP2 LT PUSH2 0x20B5 JUMPI PUSH2 0x20B5 PUSH2 0x3490 JUMP JUMPDEST PUSH1 0x0 SWAP2 DUP3 MSTORE PUSH1 0x20 SWAP1 SWAP2 KECCAK256 ADD SSTORE DUP2 PUSH2 0x20CB DUP2 PUSH2 0x34EC JUMP JUMPDEST SWAP3 POP POP PUSH2 0x215D JUMP JUMPDEST PUSH1 0xD SLOAD PUSH1 0x0 SWAP1 DUP2 MSTORE PUSH1 0xA PUSH1 0x20 MSTORE PUSH1 0x40 SWAP1 KECCAK256 DUP4 MLOAD DUP5 SWAP1 DUP4 SWAP1 DUP2 LT PUSH2 0x20F8 JUMPI PUSH2 0x20F8 PUSH2 0x3490 JUMP JUMPDEST PUSH1 0x20 MUL PUSH1 0x20 ADD ADD MLOAD DUP2 SLOAD DUP2 LT PUSH2 0x2110 JUMPI PUSH2 0x2110 PUSH2 0x3490 JUMP JUMPDEST SWAP1 PUSH1 0x0 MSTORE PUSH1 0x20 PUSH1 0x0 KECCAK256 SWAP1 PUSH1 0x3 MUL ADD PUSH1 0x1 ADD SLOAD PUSH1 0xC PUSH1 0xD SLOAD DUP2 SLOAD DUP2 LT PUSH2 0x2137 JUMPI PUSH2 0x2137 PUSH2 0x3490 JUMP JUMPDEST SWAP1 PUSH1 0x0 MSTORE PUSH1 0x20 PUSH1 0x0 KECCAK256 SWAP1 PUSH1 0x4 MUL ADD PUSH1 0x2 ADD PUSH1 0x0 DUP3 DUP3 SLOAD PUSH2 0x2157 SWAP2 SWAP1 PUSH2 0x3479 JUMP JUMPDEST SWAP1 SWAP2 SSTORE POP POP JUMPDEST DUP1 PUSH2 0x2167 DUP2 PUSH2 0x34EC JUMP JUMPDEST SWAP2 POP POP PUSH2 0x1FF0 JUMP JUMPDEST POP PUSH1 0x0 JUMPDEST DUP2 DUP4 MLOAD PUSH2 0x2180 SWAP2 SWAP1 PUSH2 0x3479 JUMP JUMPDEST DUP2 LT ISZERO PUSH2 0x21E5 JUMPI PUSH1 0xC PUSH1 0xD SLOAD DUP2 SLOAD DUP2 LT PUSH2 0x219C JUMPI PUSH2 0x219C PUSH2 0x3490 JUMP JUMPDEST SWAP1 PUSH1 0x0 MSTORE PUSH1 0x20 PUSH1 0x0 KECCAK256 SWAP1 PUSH1 0x4 MUL ADD PUSH1 0x3 ADD DUP1 SLOAD DUP1 PUSH2 0x21BC JUMPI PUSH2 0x21BC PUSH2 0x3507 JUMP JUMPDEST PUSH1 0x1 SWAP1 SUB DUP2 DUP2 SWAP1 PUSH1 0x0 MSTORE PUSH1 0x20 PUSH1 0x0 KECCAK256 ADD PUSH1 0x0 SWAP1 SSTORE SWAP1 SSTORE DUP1 DUP1 PUSH2 0x21DD SWAP1 PUSH2 0x34EC JUMP JUMPDEST SWAP2 POP POP PUSH2 0x2173 JUMP JUMPDEST POP POP PUSH1 0x6 DUP1 SLOAD PUSH1 0xFF PUSH1 0xA0 SHL NOT AND SWAP1 SSTORE POP POP JUMP JUMPDEST PUSH1 0x1 PUSH1 0x1 PUSH1 0xA0 SHL SUB DUP2 AND PUSH1 0x0 SWAP1 DUP2 MSTORE PUSH1 0x2 PUSH1 0x20 MSTORE PUSH1 0x40 DUP2 KECCAK256 SLOAD DUP2 SWAP1 PUSH2 0x2253 JUMPI PUSH1 0x40 MLOAD PUSH3 0x461BCD PUSH1 0xE5 SHL DUP2 MSTORE PUSH1 0x20 PUSH1 0x4 DUP3 ADD MSTORE PUSH1 0x11 PUSH1 0x24 DUP3 ADD MSTORE PUSH17 0x4E6F20746F6B656E73207374616B656421 PUSH1 0x78 SHL PUSH1 0x44 DUP3 ADD MSTORE PUSH1 0x64 ADD PUSH2 0x833 JUMP JUMPDEST PUSH1 0x0 JUMPDEST PUSH1 0x5 SLOAD DUP2 LT ISZERO PUSH2 0x22AF JUMPI PUSH2 0x2291 DUP5 PUSH1 0x5 DUP4 DUP2 SLOAD DUP2 LT PUSH2 0x2277 JUMPI PUSH2 0x2277 PUSH2 0x3490 JUMP JUMPDEST PUSH1 0x0 SWAP2 DUP3 MSTORE PUSH1 0x20 SWAP1 SWAP2 KECCAK256 ADD SLOAD PUSH1 0x1 PUSH1 0x1 PUSH1 0xA0 SHL SUB AND PUSH2 0xA92 JUMP JUMPDEST PUSH2 0x229B SWAP1 DUP4 PUSH2 0x32FB JUMP JUMPDEST SWAP2 POP DUP1 PUSH2 0x22A7 DUP2 PUSH2 0x34EC JUMP JUMPDEST SWAP2 POP POP PUSH2 0x2256 JUMP JUMPDEST POP SWAP3 SWAP2 POP POP JUMP JUMPDEST PUSH2 0x1F4 CALLVALUE LT ISZERO PUSH2 0x22F9 JUMPI PUSH1 0x40 MLOAD PUSH3 0x461BCD PUSH1 0xE5 SHL DUP2 MSTORE PUSH1 0x20 PUSH1 0x4 DUP3 ADD MSTORE PUSH1 0xE PUSH1 0x24 DUP3 ADD MSTORE PUSH14 0x4D696E2073697A65203D2035303 PUSH1 0x94 SHL PUSH1 0x44 DUP3 ADD MSTORE PUSH1 0x64 ADD PUSH2 0x833 JUMP JUMPDEST CALLER PUSH1 0x0 SWAP1 DUP2 MSTORE PUSH1 0x9 PUSH1 0x20 MSTORE PUSH1 0x40 DUP2 KECCAK256 DUP1 SLOAD CALLVALUE SWAP3 SWAP1 PUSH2 0x2318 SWAP1 DUP5 SWAP1 PUSH2 0x32FB JUMP JUMPDEST SWAP1 SWAP2 SSTORE POP POP JUMP JUMPDEST CALLER PUSH1 0x0 DUP2 DUP2 MSTORE PUSH1 0xB PUSH1 0x20 SWAP1 DUP2 MSTORE PUSH1 0x40 DUP1 DUP4 KECCAK256 PUSH1 0xD SLOAD DUP5 MSTORE SWAP1 SWAP2 MSTORE SWAP1 KECCAK256 PUSH1 0x1 ADD SLOAD PUSH1 0xFF AND PUSH1 0x2 DUP2 PUSH1 0x3 DUP2 GT ISZERO PUSH2 0x2356 JUMPI PUSH2 0x2356 PUSH2 0x31CE JUMP JUMPDEST EQ DUP1 PUSH2 0x2373 JUMPI POP PUSH1 0x1 DUP2 PUSH1 0x3 DUP2 GT ISZERO PUSH2 0x2371 JUMPI PUSH2 0x2371 PUSH2 0x31CE JUMP JUMPDEST EQ JUMPDEST PUSH2 0x23B6 JUMPI PUSH1 0x40 MLOAD PUSH3 0x461BCD PUSH1 0xE5 SHL DUP2 MSTORE PUSH1 0x20 PUSH1 0x4 DUP3 ADD MSTORE PUSH1 0x14 PUSH1 0x24 DUP3 ADD MSTORE PUSH20 0x2CB7BA903430BB32903737903837B9B4BA34B7B7 PUSH1 0x61 SHL PUSH1 0x44 DUP3 ADD MSTORE PUSH1 0x64 ADD PUSH2 0x833 JUMP JUMPDEST TIMESTAMP PUSH1 0xC PUSH1 0xD SLOAD DUP2 SLOAD DUP2 LT PUSH2 0x23CC JUMPI PUSH2 0x23CC PUSH2 0x3490 JUMP JUMPDEST SWAP1 PUSH1 0x0 MSTORE PUSH1 0x20 PUSH1 0x0 KECCAK256 SWAP1 PUSH1 0x4 MUL ADD PUSH1 0x1 ADD SLOAD GT ISZERO PUSH2 0x242C JUMPI PUSH1 0x40 MLOAD PUSH3 0x461BCD PUSH1 0xE5 SHL DUP2 MSTORE PUSH1 0x20 PUSH1 0x4 DUP3 ADD MSTORE PUSH1 0x1D PUSH1 0x24 DUP3 ADD MSTORE PUSH32 0x43616E6E6F74206578657263697365206265666F726520657870697279000000 PUSH1 0x44 DUP3 ADD MSTORE PUSH1 0x64 ADD PUSH2 0x833 JUMP JUMPDEST PUSH1 0x3 DUP2 PUSH1 0x3 DUP2 GT ISZERO PUSH2 0x2440 JUMPI PUSH2 0x2440 PUSH2 0x31CE JUMP JUMPDEST EQ ISZERO PUSH2 0x248E JUMPI PUSH1 0x40 MLOAD PUSH3 0x461BCD PUSH1 0xE5 SHL DUP2 MSTORE PUSH1 0x20 PUSH1 0x4 DUP3 ADD MSTORE PUSH1 0x17 PUSH1 0x24 DUP3 ADD MSTORE PUSH32 0x596F7520616C7265616479206578636572636973656420000000000000000000 PUSH1 0x44 DUP3 ADD MSTORE PUSH1 0x64 ADD PUSH2 0x833 JUMP JUMPDEST PUSH1 0x1 PUSH1 0x1 PUSH1 0xA0 SHL SUB DUP3 AND PUSH1 0x0 SWAP1 DUP2 MSTORE PUSH1 0xB PUSH1 0x20 SWAP1 DUP2 MSTORE PUSH1 0x40 DUP1 DUP4 KECCAK256 PUSH1 0xD SLOAD DUP1 DUP6 MSTORE SWAP3 MSTORE DUP3 KECCAK256 SLOAD PUSH1 0xC DUP1 SLOAD SWAP2 SWAP4 SWAP3 SWAP1 SWAP2 DUP2 LT PUSH2 0x24CB JUMPI PUSH2 0x24CB PUSH2 0x3490 JUMP JUMPDEST PUSH1 0x0 SWAP2 DUP3 MSTORE PUSH1 0x20 SWAP1 SWAP2 KECCAK256 PUSH1 0x4 SWAP1 SWAP2 MUL ADD SLOAD SWAP1 POP PUSH1 0x1 DUP4 PUSH1 0x3 DUP2 GT ISZERO PUSH2 0x24F2 JUMPI PUSH2 0x24F2 PUSH2 0x31CE JUMP JUMPDEST EQ ISZERO PUSH2 0x25D6 JUMPI PUSH1 0x0 DUP3 GT PUSH2 0x255B JUMPI PUSH1 0x40 MLOAD PUSH3 0x461BCD PUSH1 0xE5 SHL DUP2 MSTORE PUSH1 0x20 PUSH1 0x4 DUP3 ADD MSTORE PUSH1 0x2A PUSH1 0x24 DUP3 ADD MSTORE PUSH32 0x4E6F206F6E652073656C6C20796F75722062696420616E64206E6F7468696E67 PUSH1 0x44 DUP3 ADD MSTORE PUSH10 0x20746F20657870697265 PUSH1 0xB0 SHL PUSH1 0x64 DUP3 ADD MSTORE PUSH1 0x84 ADD PUSH2 0x833 JUMP JUMPDEST DUP1 PUSH1 0x7 SLOAD LT PUSH2 0x25A0 JUMPI PUSH1 0x40 MLOAD PUSH3 0x461BCD PUSH1 0xE5 SHL DUP2 MSTORE PUSH1 0x20 PUSH1 0x4 DUP3 ADD MSTORE PUSH1 0x11 PUSH1 0x24 DUP3 ADD MSTORE PUSH17 0x45787069726520776F727468207A65726F PUSH1 0x78 SHL PUSH1 0x44 DUP3 ADD MSTORE PUSH1 0x64 ADD PUSH2 0x833 JUMP JUMPDEST PUSH1 0x1 PUSH1 0x1 PUSH1 0xA0 SHL SUB DUP5 AND PUSH1 0x0 SWAP1 DUP2 MSTORE PUSH1 0xB PUSH1 0x20 SWAP1 DUP2 MSTORE PUSH1 0x40 DUP1 DUP4 KECCAK256 PUSH1 0xD SLOAD DUP5 MSTORE SWAP1 SWAP2 MSTORE SWAP1 KECCAK256 PUSH1 0x2 ADD SLOAD ISZERO PUSH2 0x25D6 JUMPI PUSH2 0x25D6 PUSH2 0x1D70 JUMP JUMPDEST PUSH1 0x2 DUP4 PUSH1 0x3 DUP2 GT ISZERO PUSH2 0x25EA JUMPI PUSH2 0x25EA PUSH2 0x31CE JUMP JUMPDEST EQ ISZERO PUSH2 0x267B JUMPI DUP1 PUSH1 0x7 SLOAD LT ISZERO PUSH2 0x2644 JUMPI PUSH2 0x2604 DUP2 DUP4 PUSH2 0x3457 JUMP JUMPDEST PUSH1 0x1 PUSH1 0x1 PUSH1 0xA0 SHL SUB DUP6 AND PUSH1 0x0 SWAP1 DUP2 MSTORE PUSH1 0x9 PUSH1 0x20 MSTORE PUSH1 0x40 DUP2 KECCAK256 DUP1 SLOAD SWAP1 SWAP2 SWAP1 PUSH2 0x262C SWAP1 DUP5 SWAP1 PUSH2 0x32FB JUMP JUMPDEST SWAP1 SWAP2 SSTORE POP PUSH2 0x263C SWAP1 POP DUP2 DUP4 PUSH2 0x3457 JUMP JUMPDEST PUSH1 0x10 SSTORE PUSH2 0x26FC JUMP JUMPDEST PUSH1 0x1 PUSH1 0x1 PUSH1 0xA0 SHL SUB DUP5 AND PUSH1 0x0 SWAP1 DUP2 MSTORE PUSH1 0x9 PUSH1 0x20 MSTORE PUSH1 0x40 DUP2 KECCAK256 DUP1 SLOAD DUP5 SWAP3 SWAP1 PUSH2 0x266C SWAP1 DUP5 SWAP1 PUSH2 0x32FB JUMP JUMPDEST SWAP1 SWAP2 SSTORE POP POP PUSH1 0x10 DUP3 SWAP1 SSTORE PUSH2 0x26FC JUMP JUMPDEST DUP1 PUSH1 0x7 SLOAD LT ISZERO PUSH2 0x26FC JUMPI DUP1 PUSH1 0x7 SLOAD DUP3 PUSH2 0x2694 SWAP2 SWAP1 PUSH2 0x3479 JUMP JUMPDEST PUSH2 0x269E SWAP1 DUP5 PUSH2 0x3438 JUMP JUMPDEST PUSH2 0x26A8 SWAP2 SWAP1 PUSH2 0x3457 JUMP JUMPDEST PUSH1 0x1 PUSH1 0x1 PUSH1 0xA0 SHL SUB DUP6 AND PUSH1 0x0 SWAP1 DUP2 MSTORE PUSH1 0x9 PUSH1 0x20 MSTORE PUSH1 0x40 DUP2 KECCAK256 DUP1 SLOAD SWAP1 SWAP2 SWAP1 PUSH2 0x26D0 SWAP1 DUP5 SWAP1 PUSH2 0x32FB JUMP JUMPDEST SWAP1 SWAP2 SSTORE POP POP PUSH1 0x7 SLOAD DUP2 SWAP1 PUSH2 0x26E4 SWAP1 DUP3 PUSH2 0x3479 JUMP JUMPDEST PUSH2 0x26EE SWAP1 DUP5 PUSH2 0x3438 JUMP JUMPDEST PUSH2 0x26F8 SWAP2 SWAP1 PUSH2 0x3457 JUMP JUMPDEST PUSH1 0x10 SSTORE JUMPDEST POP POP POP PUSH1 0x1 PUSH1 0x1 PUSH1 0xA0 SHL SUB AND PUSH1 0x0 SWAP1 DUP2 MSTORE PUSH1 0xB PUSH1 0x20 SWAP1 DUP2 MSTORE PUSH1 0x40 DUP1 DUP4 KECCAK256 PUSH1 0xD SLOAD DUP5 MSTORE SWAP1 SWAP2 MSTORE SWAP1 KECCAK256 PUSH1 0x1 ADD DUP1 SLOAD PUSH1 0xFF NOT AND PUSH1 0x3 OR SWAP1 SSTORE JUMP JUMPDEST PUSH1 0x60 PUSH1 0xC PUSH1 0xD SLOAD DUP2 SLOAD DUP2 LT PUSH2 0x274A JUMPI PUSH2 0x274A PUSH2 0x3490 JUMP JUMPDEST SWAP1 PUSH1 0x0 MSTORE PUSH1 0x20 PUSH1 0x0 KECCAK256 SWAP1 PUSH1 0x4 MUL ADD PUSH1 0x3 ADD DUP1 SLOAD DUP1 PUSH1 0x20 MUL PUSH1 0x20 ADD PUSH1 0x40 MLOAD SWAP1 DUP2 ADD PUSH1 0x40 MSTORE DUP1 SWAP3 SWAP2 SWAP1 DUP2 DUP2 MSTORE PUSH1 0x20 ADD DUP3 DUP1 SLOAD DUP1 ISZERO PUSH2 0x27A5 JUMPI PUSH1 0x20 MUL DUP3 ADD SWAP2 SWAP1 PUSH1 0x0 MSTORE PUSH1 0x20 PUSH1 0x0 KECCAK256 SWAP1 JUMPDEST DUP2 SLOAD DUP2 MSTORE PUSH1 0x20 ADD SWAP1 PUSH1 0x1 ADD SWAP1 DUP1 DUP4 GT PUSH2 0x2791 JUMPI JUMPDEST POP POP POP POP POP SWAP1 POP SWAP1 JUMP JUMPDEST PUSH1 0x0 DUP1 JUMPDEST PUSH1 0x5 SLOAD DUP2 LT ISZERO PUSH2 0x2810 JUMPI DUP3 PUSH1 0x1 PUSH1 0x1 PUSH1 0xA0 SHL SUB AND PUSH1 0x5 DUP3 DUP2 SLOAD DUP2 LT PUSH2 0x27DA JUMPI PUSH2 0x27DA PUSH2 0x3490 JUMP JUMPDEST PUSH1 0x0 SWAP2 DUP3 MSTORE PUSH1 0x20 SWAP1 SWAP2 KECCAK256 ADD SLOAD PUSH1 0x1 PUSH1 0x1 PUSH1 0xA0 SHL SUB AND EQ ISZERO PUSH2 0x27FE JUMPI POP PUSH1 0x1 SWAP3 SWAP2 POP POP JUMP JUMPDEST DUP1 PUSH2 0x2808 DUP2 PUSH2 0x34EC JUMP JUMPDEST SWAP2 POP POP PUSH2 0x27B3 JUMP JUMPDEST POP PUSH1 0x0 SWAP3 SWAP2 POP POP JUMP JUMPDEST PUSH1 0x0 DUP1 PUSH1 0xC PUSH1 0xD SLOAD DUP2 SLOAD DUP2 LT PUSH2 0x2831 JUMPI PUSH2 0x2831 PUSH2 0x3490 JUMP JUMPDEST SWAP1 PUSH1 0x0 MSTORE PUSH1 0x20 PUSH1 0x0 KECCAK256 SWAP1 PUSH1 0x4 MUL ADD PUSH1 0x3 ADD DUP1 SLOAD SWAP1 POP GT PUSH2 0x2893 JUMPI PUSH1 0x40 MLOAD PUSH3 0x461BCD PUSH1 0xE5 SHL DUP2 MSTORE PUSH1 0x20 PUSH1 0x4 DUP3 ADD MSTORE PUSH1 0x1E PUSH1 0x24 DUP3 ADD MSTORE PUSH32 0x63616E6E6F742073656C6C206966207468657265206973206E6F206269640000 PUSH1 0x44 DUP3 ADD MSTORE PUSH1 0x64 ADD PUSH2 0x833 JUMP JUMPDEST PUSH2 0x3E8 DUP3 LT ISZERO PUSH2 0x28D7 JUMPI PUSH1 0x40 MLOAD PUSH3 0x461BCD PUSH1 0xE5 SHL DUP2 MSTORE PUSH1 0x20 PUSH1 0x4 DUP3 ADD MSTORE PUSH1 0xF PUSH1 0x24 DUP3 ADD MSTORE PUSH15 0x6D696E2073697A65203D203130303 PUSH1 0x8C SHL PUSH1 0x44 DUP3 ADD MSTORE PUSH1 0x64 ADD PUSH2 0x833 JUMP JUMPDEST PUSH1 0xC PUSH1 0xD SLOAD DUP2 SLOAD DUP2 LT PUSH2 0x28EC JUMPI PUSH2 0x28EC PUSH2 0x3490 JUMP JUMPDEST SWAP1 PUSH1 0x0 MSTORE PUSH1 0x20 PUSH1 0x0 KECCAK256 SWAP1 PUSH1 0x4 MUL ADD PUSH1 0x2 ADD SLOAD DUP3 GT ISZERO PUSH2 0x293A JUMPI PUSH1 0x40 MLOAD PUSH3 0x461BCD PUSH1 0xE5 SHL DUP2 MSTORE PUSH1 0x20 PUSH1 0x4 DUP3 ADD MSTORE PUSH1 0xA PUSH1 0x24 DUP3 ADD MSTORE PUSH10 0x6C6F7720737570706C79 PUSH1 0xB0 SHL PUSH1 0x44 DUP3 ADD MSTORE PUSH1 0x64 ADD PUSH2 0x833 JUMP JUMPDEST PUSH1 0x0 DUP3 SWAP1 POP PUSH1 0x0 DUP1 DUP1 PUSH1 0x1 PUSH1 0xC PUSH1 0xD SLOAD DUP2 SLOAD DUP2 LT PUSH2 0x295A JUMPI PUSH2 0x295A PUSH2 0x3490 JUMP JUMPDEST SWAP1 PUSH1 0x0 MSTORE PUSH1 0x20 PUSH1 0x0 KECCAK256 SWAP1 PUSH1 0x4 MUL ADD PUSH1 0x3 ADD DUP1 SLOAD SWAP1 POP PUSH2 0x2979 SWAP2 SWAP1 PUSH2 0x3479 JUMP JUMPDEST SWAP1 POP JUMPDEST DUP4 ISZERO PUSH2 0x2B43 JUMPI PUSH1 0xD SLOAD PUSH1 0x0 DUP2 DUP2 MSTORE PUSH1 0xA PUSH1 0x20 MSTORE PUSH1 0x40 SWAP1 KECCAK256 PUSH1 0xC DUP1 SLOAD SWAP2 SWAP3 SWAP1 SWAP2 DUP2 LT PUSH2 0x29A9 JUMPI PUSH2 0x29A9 PUSH2 0x3490 JUMP JUMPDEST SWAP1 PUSH1 0x0 MSTORE PUSH1 0x20 PUSH1 0x0 KECCAK256 SWAP1 PUSH1 0x4 MUL ADD PUSH1 0x3 ADD DUP3 DUP2 SLOAD DUP2 LT PUSH2 0x29CB JUMPI PUSH2 0x29CB PUSH2 0x3490 JUMP JUMPDEST SWAP1 PUSH1 0x0 MSTORE PUSH1 0x20 PUSH1 0x0 KECCAK256 ADD SLOAD DUP2 SLOAD DUP2 LT PUSH2 0x29E6 JUMPI PUSH2 0x29E6 PUSH2 0x3490 JUMP JUMPDEST SWAP1 PUSH1 0x0 MSTORE PUSH1 0x20 PUSH1 0x0 KECCAK256 SWAP1 PUSH1 0x3 MUL ADD PUSH1 0x1 ADD SLOAD SWAP2 POP DUP2 DUP5 LT PUSH2 0x2A9F JUMPI PUSH1 0xD SLOAD PUSH1 0x0 DUP2 DUP2 MSTORE PUSH1 0xA PUSH1 0x20 MSTORE PUSH1 0x40 SWAP1 KECCAK256 PUSH1 0xC DUP1 SLOAD SWAP2 SWAP3 SWAP1 SWAP2 DUP2 LT PUSH2 0x2A28 JUMPI PUSH2 0x2A28 PUSH2 0x3490 JUMP JUMPDEST SWAP1 PUSH1 0x0 MSTORE PUSH1 0x20 PUSH1 0x0 KECCAK256 SWAP1 PUSH1 0x4 MUL ADD PUSH1 0x3 ADD DUP3 DUP2 SLOAD DUP2 LT PUSH2 0x2A4A JUMPI PUSH2 0x2A4A PUSH2 0x3490 JUMP JUMPDEST SWAP1 PUSH1 0x0 MSTORE PUSH1 0x20 PUSH1 0x0 KECCAK256 ADD SLOAD DUP2 SLOAD DUP2 LT PUSH2 0x2A65 JUMPI PUSH2 0x2A65 PUSH2 0x3490 JUMP JUMPDEST SWAP1 PUSH1 0x0 MSTORE PUSH1 0x20 PUSH1 0x0 KECCAK256 SWAP1 PUSH1 0x3 MUL ADD PUSH1 0x0 ADD SLOAD DUP3 PUSH2 0x2A82 SWAP2 SWAP1 PUSH2 0x3438 JUMP JUMPDEST PUSH2 0x2A8C SWAP1 DUP5 PUSH2 0x32FB JUMP JUMPDEST SWAP3 POP PUSH2 0x2A98 DUP3 DUP6 PUSH2 0x3479 JUMP JUMPDEST SWAP4 POP PUSH2 0x2B31 JUMP JUMPDEST PUSH1 0xD SLOAD PUSH1 0x0 DUP2 DUP2 MSTORE PUSH1 0xA PUSH1 0x20 MSTORE PUSH1 0x40 SWAP1 KECCAK256 PUSH1 0xC DUP1 SLOAD SWAP2 SWAP3 SWAP1 SWAP2 DUP2 LT PUSH2 0x2AC6 JUMPI PUSH2 0x2AC6 PUSH2 0x3490 JUMP JUMPDEST SWAP1 PUSH1 0x0 MSTORE PUSH1 0x20 PUSH1 0x0 KECCAK256 SWAP1 PUSH1 0x4 MUL ADD PUSH1 0x3 ADD DUP3 DUP2 SLOAD DUP2 LT PUSH2 0x2AE8 JUMPI PUSH2 0x2AE8 PUSH2 0x3490 JUMP JUMPDEST SWAP1 PUSH1 0x0 MSTORE PUSH1 0x20 PUSH1 0x0 KECCAK256 ADD SLOAD DUP2 SLOAD DUP2 LT PUSH2 0x2B03 JUMPI PUSH2 0x2B03 PUSH2 0x3490 JUMP JUMPDEST SWAP1 PUSH1 0x0 MSTORE PUSH1 0x20 PUSH1 0x0 KECCAK256 SWAP1 PUSH1 0x3 MUL ADD PUSH1 0x0 ADD SLOAD DUP5 PUSH2 0x2B20 SWAP2 SWAP1 PUSH2 0x3438 JUMP JUMPDEST PUSH2 0x2B2A SWAP1 DUP5 PUSH2 0x32FB JUMP JUMPDEST SWAP3 POP PUSH1 0x0 SWAP4 POP JUMPDEST DUP1 PUSH2 0x2B3B DUP2 PUSH2 0x351D JUMP JUMPDEST SWAP2 POP POP PUSH2 0x297C JUMP JUMPDEST PUSH2 0x2B4D DUP7 DUP5 PUSH2 0x3457 JUMP JUMPDEST SWAP7 SWAP6 POP POP POP POP POP POP JUMP JUMPDEST PUSH1 0x1 PUSH1 0x1 PUSH1 0xA0 SHL SUB DUP1 DUP3 AND PUSH1 0x0 SWAP1 DUP2 MSTORE PUSH1 0x3 PUSH1 0x20 MSTORE PUSH1 0x40 DUP1 DUP3 KECCAK256 SLOAD DUP2 MLOAD PUSH4 0x3FABE5A3 PUSH1 0xE2 SHL DUP2 MSTORE SWAP2 MLOAD SWAP3 SWAP4 DUP5 SWAP4 SWAP2 AND SWAP2 DUP3 SWAP2 DUP5 SWAP2 DUP4 SWAP2 PUSH4 0xFEAF968C SWAP2 PUSH1 0x4 DUP1 DUP3 ADD SWAP3 PUSH1 0xA0 SWAP3 SWAP1 SWAP2 SWAP1 DUP3 SWAP1 SUB ADD DUP2 DUP7 GAS STATICCALL ISZERO DUP1 ISZERO PUSH2 0x2BB8 JUMPI RETURNDATASIZE PUSH1 0x0 DUP1 RETURNDATACOPY RETURNDATASIZE PUSH1 0x0 REVERT JUMPDEST POP POP POP POP PUSH1 0x40 MLOAD RETURNDATASIZE PUSH1 0x1F NOT PUSH1 0x1F DUP3 ADD AND DUP3 ADD DUP1 PUSH1 0x40 MSTORE POP DUP2 ADD SWAP1 PUSH2 0x2BDC SWAP2 SWAP1 PUSH2 0x354E JUMP JUMPDEST POP POP POP SWAP2 POP POP PUSH1 0x0 DUP3 PUSH1 0x1 PUSH1 0x1 PUSH1 0xA0 SHL SUB AND PUSH4 0x313CE567 PUSH1 0x40 MLOAD DUP2 PUSH4 0xFFFFFFFF AND PUSH1 0xE0 SHL DUP2 MSTORE PUSH1 0x4 ADD PUSH1 0x20 PUSH1 0x40 MLOAD DUP1 DUP4 SUB DUP2 DUP7 GAS STATICCALL ISZERO DUP1 ISZERO PUSH2 0x2C22 JUMPI RETURNDATASIZE PUSH1 0x0 DUP1 RETURNDATACOPY RETURNDATASIZE PUSH1 0x0 REVERT JUMPDEST POP POP POP POP PUSH1 0x40 MLOAD RETURNDATASIZE PUSH1 0x1F NOT PUSH1 0x1F DUP3 ADD AND DUP3 ADD DUP1 PUSH1 0x40 MSTORE POP DUP2 ADD SWAP1 PUSH2 0x2C46 SWAP2 SWAP1 PUSH2 0x359E JUMP JUMPDEST SWAP2 SWAP8 PUSH1 0xFF SWAP1 SWAP3 AND SWAP7 POP SWAP1 SWAP5 POP POP POP POP POP JUMP JUMPDEST PUSH1 0x0 SLOAD PUSH1 0x1 PUSH1 0x1 PUSH1 0xA0 SHL SUB AND CALLER EQ PUSH2 0x2C82 JUMPI PUSH1 0x40 MLOAD PUSH3 0x461BCD PUSH1 0xE5 SHL DUP2 MSTORE PUSH1 0x4 ADD PUSH2 0x833 SWAP1 PUSH2 0x3313 JUMP JUMPDEST PUSH1 0x1 PUSH1 0x1 PUSH1 0xA0 SHL SUB DUP2 AND PUSH2 0x2CE7 JUMPI PUSH1 0x40 MLOAD PUSH3 0x461BCD PUSH1 0xE5 SHL DUP2 MSTORE PUSH1 0x20 PUSH1 0x4 DUP3 ADD MSTORE PUSH1 0x26 PUSH1 0x24 DUP3 ADD MSTORE PUSH32 0x4F776E61626C653A206E6577206F776E657220697320746865207A65726F2061 PUSH1 0x44 DUP3 ADD MSTORE PUSH6 0x646472657373 PUSH1 0xD0 SHL PUSH1 0x64 DUP3 ADD MSTORE PUSH1 0x84 ADD PUSH2 0x833 JUMP JUMPDEST PUSH2 0x1119 DUP2 PUSH2 0x30EA JUMP JUMPDEST PUSH1 0x4 DUP2 DUP2 SLOAD DUP2 LT PUSH2 0x1005 JUMPI PUSH1 0x0 DUP1 REVERT JUMPDEST PUSH1 0x1 PUSH1 0x1 PUSH1 0xA0 SHL SUB DUP1 DUP3 AND PUSH1 0x0 SWAP1 DUP2 MSTORE PUSH1 0x1 PUSH1 0x20 SWAP1 DUP2 MSTORE PUSH1 0x40 DUP1 DUP4 KECCAK256 SWAP4 DUP7 AND DUP4 MSTORE SWAP3 SWAP1 MSTORE KECCAK256 SLOAD PUSH2 0x2D68 JUMPI PUSH1 0x1 PUSH1 0x1 PUSH1 0xA0 SHL SUB DUP3 AND PUSH1 0x0 SWAP1 DUP2 MSTORE PUSH1 0x2 PUSH1 0x20 MSTORE PUSH1 0x40 SWAP1 KECCAK256 SLOAD PUSH2 0x2D4E SWAP1 PUSH1 0x1 PUSH2 0x32FB JUMP JUMPDEST PUSH1 0x1 PUSH1 0x1 PUSH1 0xA0 SHL SUB DUP4 AND PUSH1 0x0 SWAP1 DUP2 MSTORE PUSH1 0x2 PUSH1 0x20 MSTORE PUSH1 0x40 SWAP1 KECCAK256 SSTORE JUMPDEST POP POP JUMP JUMPDEST PUSH1 0x0 DUP1 PUSH1 0x1 PUSH1 0xC PUSH1 0xD SLOAD DUP2 SLOAD DUP2 LT PUSH2 0x2D86 JUMPI PUSH2 0x2D86 PUSH2 0x3490 JUMP JUMPDEST SWAP1 PUSH1 0x0 MSTORE PUSH1 0x20 PUSH1 0x0 KECCAK256 SWAP1 PUSH1 0x4 MUL ADD PUSH1 0x3 ADD DUP1 SLOAD SWAP1 POP PUSH2 0x2DA5 SWAP2 SWAP1 PUSH2 0x3479 JUMP JUMPDEST SWAP1 POP PUSH1 0x0 JUMPDEST DUP2 DUP4 LT ISZERO PUSH2 0x2E64 JUMPI PUSH1 0x2 PUSH2 0x2DBE DUP4 DUP6 PUSH2 0x32FB JUMP JUMPDEST PUSH2 0x2DC8 SWAP2 SWAP1 PUSH2 0x3457 JUMP JUMPDEST SWAP1 POP PUSH1 0xA PUSH1 0x0 PUSH1 0xD SLOAD DUP2 MSTORE PUSH1 0x20 ADD SWAP1 DUP2 MSTORE PUSH1 0x20 ADD PUSH1 0x0 KECCAK256 PUSH1 0xC PUSH1 0xD SLOAD DUP2 SLOAD DUP2 LT PUSH2 0x2DF4 JUMPI PUSH2 0x2DF4 PUSH2 0x3490 JUMP JUMPDEST SWAP1 PUSH1 0x0 MSTORE PUSH1 0x20 PUSH1 0x0 KECCAK256 SWAP1 PUSH1 0x4 MUL ADD PUSH1 0x3 ADD DUP3 DUP2 SLOAD DUP2 LT PUSH2 0x2E16 JUMPI PUSH2 0x2E16 PUSH2 0x3490 JUMP JUMPDEST SWAP1 PUSH1 0x0 MSTORE PUSH1 0x20 PUSH1 0x0 KECCAK256 ADD SLOAD DUP2 SLOAD DUP2 LT PUSH2 0x2E31 JUMPI PUSH2 0x2E31 PUSH2 0x3490 JUMP JUMPDEST SWAP1 PUSH1 0x0 MSTORE PUSH1 0x20 PUSH1 0x0 KECCAK256 SWAP1 PUSH1 0x3 MUL ADD PUSH1 0x0 ADD SLOAD DUP5 GT ISZERO PUSH2 0x2E5C JUMPI PUSH2 0x2E55 DUP2 PUSH1 0x1 PUSH2 0x32FB JUMP JUMPDEST SWAP3 POP PUSH2 0x2DAA JUMP JUMPDEST DUP1 SWAP2 POP PUSH2 0x2DAA JUMP JUMPDEST DUP2 DUP4 EQ ISZERO PUSH2 0x2EFE JUMPI PUSH1 0xD SLOAD PUSH1 0x0 DUP2 DUP2 MSTORE PUSH1 0xA PUSH1 0x20 MSTORE PUSH1 0x40 SWAP1 KECCAK256 PUSH1 0xC DUP1 SLOAD SWAP2 SWAP3 SWAP1 SWAP2 DUP2 LT PUSH2 0x2E93 JUMPI PUSH2 0x2E93 PUSH2 0x3490 JUMP JUMPDEST SWAP1 PUSH1 0x0 MSTORE PUSH1 0x20 PUSH1 0x0 KECCAK256 SWAP1 PUSH1 0x4 MUL ADD PUSH1 0x3 ADD DUP5 DUP2 SLOAD DUP2 LT PUSH2 0x2EB5 JUMPI PUSH2 0x2EB5 PUSH2 0x3490 JUMP JUMPDEST SWAP1 PUSH1 0x0 MSTORE PUSH1 0x20 PUSH1 0x0 KECCAK256 ADD SLOAD DUP2 SLOAD DUP2 LT PUSH2 0x2ED0 JUMPI PUSH2 0x2ED0 PUSH2 0x3490 JUMP JUMPDEST SWAP1 PUSH1 0x0 MSTORE PUSH1 0x20 PUSH1 0x0 KECCAK256 SWAP1 PUSH1 0x3 MUL ADD PUSH1 0x0 ADD SLOAD DUP5 GT ISZERO PUSH2 0x2EFB JUMPI PUSH2 0x2EF4 DUP4 PUSH1 0x1 PUSH2 0x32FB JUMP JUMPDEST SWAP1 POP PUSH2 0x2EFE JUMP JUMPDEST POP DUP2 JUMPDEST PUSH1 0xC PUSH1 0xD SLOAD DUP2 SLOAD DUP2 LT PUSH2 0x2F13 JUMPI PUSH2 0x2F13 PUSH2 0x3490 JUMP JUMPDEST SWAP1 PUSH1 0x0 MSTORE PUSH1 0x20 PUSH1 0x0 KECCAK256 SWAP1 PUSH1 0x4 MUL ADD PUSH1 0x3 ADD PUSH1 0x1 PUSH1 0xA PUSH1 0x0 PUSH1 0xD SLOAD DUP2 MSTORE PUSH1 0x20 ADD SWAP1 DUP2 MSTORE PUSH1 0x20 ADD PUSH1 0x0 KECCAK256 DUP1 SLOAD SWAP1 POP PUSH2 0x2F49 SWAP2 SWAP1 PUSH2 0x3479 JUMP JUMPDEST DUP2 SLOAD PUSH1 0x1 DUP2 DUP2 ADD DUP5 SSTORE PUSH1 0x0 SWAP4 DUP5 MSTORE PUSH1 0x20 SWAP1 SWAP4 KECCAK256 ADD SSTORE PUSH1 0xD SLOAD PUSH1 0xC DUP1 SLOAD SWAP1 SWAP2 SWAP1 DUP2 LT PUSH2 0x2F76 JUMPI PUSH2 0x2F76 PUSH2 0x3490 JUMP JUMPDEST SWAP1 PUSH1 0x0 MSTORE PUSH1 0x20 PUSH1 0x0 KECCAK256 SWAP1 PUSH1 0x4 MUL ADD PUSH1 0x3 ADD DUP1 SLOAD SWAP1 POP PUSH2 0x2F95 SWAP2 SWAP1 PUSH2 0x3479 JUMP JUMPDEST DUP2 LT ISZERO PUSH2 0xFEF JUMPI PUSH1 0x0 PUSH1 0x1 PUSH1 0xC PUSH1 0xD SLOAD DUP2 SLOAD DUP2 LT PUSH2 0x2FB5 JUMPI PUSH2 0x2FB5 PUSH2 0x3490 JUMP JUMPDEST SWAP1 PUSH1 0x0 MSTORE PUSH1 0x20 PUSH1 0x0 KECCAK256 SWAP1 PUSH1 0x4 MUL ADD PUSH1 0x3 ADD DUP1 SLOAD SWAP1 POP PUSH2 0x2FD4 SWAP2 SWAP1 PUSH2 0x3479 JUMP JUMPDEST SWAP1 POP JUMPDEST DUP2 DUP2 GT ISZERO PUSH2 0x3082 JUMPI PUSH1 0xC PUSH1 0xD SLOAD DUP2 SLOAD DUP2 LT PUSH2 0x2FF4 JUMPI PUSH2 0x2FF4 PUSH2 0x3490 JUMP JUMPDEST SWAP1 PUSH1 0x0 MSTORE PUSH1 0x20 PUSH1 0x0 KECCAK256 SWAP1 PUSH1 0x4 MUL ADD PUSH1 0x3 ADD PUSH1 0x1 DUP3 PUSH2 0x3012 SWAP2 SWAP1 PUSH2 0x3479 JUMP JUMPDEST DUP2 SLOAD DUP2 LT PUSH2 0x3022 JUMPI PUSH2 0x3022 PUSH2 0x3490 JUMP JUMPDEST SWAP1 PUSH1 0x0 MSTORE PUSH1 0x20 PUSH1 0x0 KECCAK256 ADD SLOAD PUSH1 0xC PUSH1 0xD SLOAD DUP2 SLOAD DUP2 LT PUSH2 0x3042 JUMPI PUSH2 0x3042 PUSH2 0x3490 JUMP JUMPDEST SWAP1 PUSH1 0x0 MSTORE PUSH1 0x20 PUSH1 0x0 KECCAK256 SWAP1 PUSH1 0x4 MUL ADD PUSH1 0x3 ADD DUP3 DUP2 SLOAD DUP2 LT PUSH2 0x3064 JUMPI PUSH2 0x3064 PUSH2 0x3490 JUMP JUMPDEST PUSH1 0x0 SWAP2 DUP3 MSTORE PUSH1 0x20 SWAP1 SWAP2 KECCAK256 ADD SSTORE DUP1 PUSH2 0x307A DUP2 PUSH2 0x351D JUMP JUMPDEST SWAP2 POP POP PUSH2 0x2FD7 JUMP JUMPDEST POP PUSH1 0xD SLOAD PUSH1 0x0 SWAP1 DUP2 MSTORE PUSH1 0xA PUSH1 0x20 MSTORE PUSH1 0x40 SWAP1 KECCAK256 SLOAD PUSH2 0x30A1 SWAP1 PUSH1 0x1 SWAP1 PUSH2 0x3479 JUMP JUMPDEST PUSH1 0xC PUSH1 0xD SLOAD DUP2 SLOAD DUP2 LT PUSH2 0x30B6 JUMPI PUSH2 0x30B6 PUSH2 0x3490 JUMP JUMPDEST SWAP1 PUSH1 0x0 MSTORE PUSH1 0x20 PUSH1 0x0 KECCAK256 SWAP1 PUSH1 0x4 MUL ADD PUSH1 0x3 ADD DUP3 DUP2 SLOAD DUP2 LT PUSH2 0x30D8 JUMPI PUSH2 0x30D8 PUSH2 0x3490 JUMP JUMPDEST PUSH1 0x0 SWAP2 DUP3 MSTORE PUSH1 0x20 SWAP1 SWAP2 KECCAK256 ADD SSTORE POP POP POP POP JUMP JUMPDEST PUSH1 0x0 DUP1 SLOAD PUSH1 0x1 PUSH1 0x1 PUSH1 0xA0 SHL SUB DUP4 DUP2 AND PUSH1 0x1 PUSH1 0x1 PUSH1 0xA0 SHL SUB NOT DUP4 AND DUP2 OR DUP5 SSTORE PUSH1 0x40 MLOAD SWAP2 SWAP1 SWAP3 AND SWAP3 DUP4 SWAP2 PUSH32 0x8BE0079C531659141344CD1FD0A4F28419497F9722A3DAAFE3B4186F6B6457E0 SWAP2 SWAP1 LOG3 POP POP JUMP JUMPDEST DUP1 CALLDATALOAD PUSH1 0x1 PUSH1 0x1 PUSH1 0xA0 SHL SUB DUP2 AND DUP2 EQ PUSH2 0x3151 JUMPI PUSH1 0x0 DUP1 REVERT JUMPDEST SWAP2 SWAP1 POP JUMP JUMPDEST PUSH1 0x0 PUSH1 0x20 DUP3 DUP5 SUB SLT ISZERO PUSH2 0x3168 JUMPI PUSH1 0x0 DUP1 REVERT JUMPDEST PUSH2 0x3171 DUP3 PUSH2 0x313A JUMP JUMPDEST SWAP4 SWAP3 POP POP POP JUMP JUMPDEST PUSH1 0x0 DUP1 PUSH1 0x40 DUP4 DUP6 SUB SLT ISZERO PUSH2 0x318B JUMPI PUSH1 0x0 DUP1 REVERT JUMPDEST DUP3 CALLDATALOAD SWAP2 POP PUSH2 0x319B PUSH1 0x20 DUP5 ADD PUSH2 0x313A JUMP JUMPDEST SWAP1 POP SWAP3 POP SWAP3 SWAP1 POP JUMP JUMPDEST PUSH1 0x0 DUP1 PUSH1 0x40 DUP4 DUP6 SUB SLT ISZERO PUSH2 0x31B7 JUMPI PUSH1 0x0 DUP1 REVERT JUMPDEST PUSH2 0x31C0 DUP4 PUSH2 0x313A JUMP JUMPDEST SWAP5 PUSH1 0x20 SWAP4 SWAP1 SWAP4 ADD CALLDATALOAD SWAP4 POP POP POP JUMP JUMPDEST PUSH4 0x4E487B71 PUSH1 0xE0 SHL PUSH1 0x0 MSTORE PUSH1 0x21 PUSH1 0x4 MSTORE PUSH1 0x24 PUSH1 0x0 REVERT JUMPDEST DUP4 DUP2 MSTORE PUSH1 0x60 DUP2 ADD PUSH1 0x4 DUP5 LT PUSH2 0x3209 JUMPI PUSH4 0x4E487B71 PUSH1 0xE0 SHL PUSH1 0x0 MSTORE PUSH1 0x21 PUSH1 0x4 MSTORE PUSH1 0x24 PUSH1 0x0 REVERT JUMPDEST PUSH1 0x20 DUP3 ADD SWAP4 SWAP1 SWAP4 MSTORE PUSH1 0x40 ADD MSTORE SWAP2 SWAP1 POP JUMP JUMPDEST PUSH1 0x0 PUSH1 0x20 DUP3 DUP5 SUB SLT ISZERO PUSH2 0x322C JUMPI PUSH1 0x0 DUP1 REVERT JUMPDEST POP CALLDATALOAD SWAP2 SWAP1 POP JUMP JUMPDEST PUSH1 0x0 DUP1 PUSH1 0x40 DUP4 DUP6 SUB SLT ISZERO PUSH2 0x3246 JUMPI PUSH1 0x0 DUP1 REVERT JUMPDEST PUSH2 0x324F DUP4 PUSH2 0x313A JUMP JUMPDEST SWAP2 POP PUSH2 0x319B PUSH1 0x20 DUP5 ADD PUSH2 0x313A JUMP JUMPDEST PUSH1 0x0 DUP1 PUSH1 0x40 DUP4 DUP6 SUB SLT ISZERO PUSH2 0x3270 JUMPI PUSH1 0x0 DUP1 REVERT JUMPDEST POP POP DUP1 CALLDATALOAD SWAP3 PUSH1 0x20 SWAP1 SWAP2 ADD CALLDATALOAD SWAP2 POP JUMP JUMPDEST PUSH1 0x20 DUP1 DUP3 MSTORE DUP3 MLOAD DUP3 DUP3 ADD DUP2 SWAP1 MSTORE PUSH1 0x0 SWAP2 SWAP1 DUP5 DUP3 ADD SWAP1 PUSH1 0x40 DUP6 ADD SWAP1 DUP5 JUMPDEST DUP2 DUP2 LT ISZERO PUSH2 0x32B7 JUMPI DUP4 MLOAD DUP4 MSTORE SWAP3 DUP5 ADD SWAP3 SWAP2 DUP5 ADD SWAP2 PUSH1 0x1 ADD PUSH2 0x329B JUMP JUMPDEST POP SWAP1 SWAP7 SWAP6 POP POP POP POP POP POP JUMP JUMPDEST PUSH1 0x0 PUSH1 0x20 DUP3 DUP5 SUB SLT ISZERO PUSH2 0x32D5 JUMPI PUSH1 0x0 DUP1 REVERT JUMPDEST DUP2 MLOAD DUP1 ISZERO ISZERO DUP2 EQ PUSH2 0x3171 JUMPI PUSH1 0x0 DUP1 REVERT JUMPDEST PUSH4 0x4E487B71 PUSH1 0xE0 SHL PUSH1 0x0 MSTORE PUSH1 0x11 PUSH1 0x4 MSTORE PUSH1 0x24 PUSH1 0x0 REVERT JUMPDEST PUSH1 0x0 DUP3 NOT DUP3 GT ISZERO PUSH2 0x330E JUMPI PUSH2 0x330E PUSH2 0x32E5 JUMP JUMPDEST POP ADD SWAP1 JUMP JUMPDEST PUSH1 0x20 DUP1 DUP3 MSTORE DUP2 DUP2 ADD MSTORE PUSH32 0x4F776E61626C653A2063616C6C6572206973206E6F7420746865206F776E6572 PUSH1 0x40 DUP3 ADD MSTORE PUSH1 0x60 ADD SWAP1 JUMP JUMPDEST PUSH1 0x1 DUP2 DUP2 JUMPDEST DUP1 DUP6 GT ISZERO PUSH2 0x3383 JUMPI DUP2 PUSH1 0x0 NOT DIV DUP3 GT ISZERO PUSH2 0x3369 JUMPI PUSH2 0x3369 PUSH2 0x32E5 JUMP JUMPDEST DUP1 DUP6 AND ISZERO PUSH2 0x3376 JUMPI SWAP2 DUP2 MUL SWAP2 JUMPDEST SWAP4 DUP5 SHR SWAP4 SWAP1 DUP1 MUL SWAP1 PUSH2 0x334D JUMP JUMPDEST POP SWAP3 POP SWAP3 SWAP1 POP JUMP JUMPDEST PUSH1 0x0 DUP3 PUSH2 0x339A JUMPI POP PUSH1 0x1 PUSH2 0xB13 JUMP JUMPDEST DUP2 PUSH2 0x33A7 JUMPI POP PUSH1 0x0 PUSH2 0xB13 JUMP JUMPDEST DUP2 PUSH1 0x1 DUP2 EQ PUSH2 0x33BD JUMPI PUSH1 0x2 DUP2 EQ PUSH2 0x33C7 JUMPI PUSH2 0x33E3 JUMP JUMPDEST PUSH1 0x1 SWAP2 POP POP PUSH2 0xB13 JUMP JUMPDEST PUSH1 0xFF DUP5 GT ISZERO PUSH2 0x33D8 JUMPI PUSH2 0x33D8 PUSH2 0x32E5 JUMP JUMPDEST POP POP PUSH1 0x1 DUP3 SHL PUSH2 0xB13 JUMP JUMPDEST POP PUSH1 0x20 DUP4 LT PUSH2 0x133 DUP4 LT AND PUSH1 0x4E DUP5 LT PUSH1 0xB DUP5 LT AND OR ISZERO PUSH2 0x3406 JUMPI POP DUP2 DUP2 EXP PUSH2 0xB13 JUMP JUMPDEST PUSH2 0x3410 DUP4 DUP4 PUSH2 0x3348 JUMP JUMPDEST DUP1 PUSH1 0x0 NOT DIV DUP3 GT ISZERO PUSH2 0x3424 JUMPI PUSH2 0x3424 PUSH2 0x32E5 JUMP JUMPDEST MUL SWAP4 SWAP3 POP POP POP JUMP JUMPDEST PUSH1 0x0 PUSH2 0x3171 DUP4 DUP4 PUSH2 0x338B JUMP JUMPDEST PUSH1 0x0 DUP2 PUSH1 0x0 NOT DIV DUP4 GT DUP3 ISZERO ISZERO AND ISZERO PUSH2 0x3452 JUMPI PUSH2 0x3452 PUSH2 0x32E5 JUMP JUMPDEST POP MUL SWAP1 JUMP JUMPDEST PUSH1 0x0 DUP3 PUSH2 0x3474 JUMPI PUSH4 0x4E487B71 PUSH1 0xE0 SHL PUSH1 0x0 MSTORE PUSH1 0x12 PUSH1 0x4 MSTORE PUSH1 0x24 PUSH1 0x0 REVERT JUMPDEST POP DIV SWAP1 JUMP JUMPDEST PUSH1 0x0 DUP3 DUP3 LT ISZERO PUSH2 0x348B JUMPI PUSH2 0x348B PUSH2 0x32E5 JUMP JUMPDEST POP SUB SWAP1 JUMP JUMPDEST PUSH4 0x4E487B71 PUSH1 0xE0 SHL PUSH1 0x0 MSTORE PUSH1 0x32 PUSH1 0x4 MSTORE PUSH1 0x24 PUSH1 0x0 REVERT JUMPDEST PUSH1 0x20 DUP1 DUP3 MSTORE PUSH1 0x26 SWAP1 DUP3 ADD MSTORE PUSH32 0x416C72656164792065787069726564206F7220746F6F20636C6F736520746F20 PUSH1 0x40 DUP3 ADD MSTORE PUSH6 0x657870697279 PUSH1 0xD0 SHL PUSH1 0x60 DUP3 ADD MSTORE PUSH1 0x80 ADD SWAP1 JUMP JUMPDEST PUSH1 0x0 PUSH1 0x0 NOT DUP3 EQ ISZERO PUSH2 0x3500 JUMPI PUSH2 0x3500 PUSH2 0x32E5 JUMP JUMPDEST POP PUSH1 0x1 ADD SWAP1 JUMP JUMPDEST PUSH4 0x4E487B71 PUSH1 0xE0 SHL PUSH1 0x0 MSTORE PUSH1 0x31 PUSH1 0x4 MSTORE PUSH1 0x24 PUSH1 0x0 REVERT JUMPDEST PUSH1 0x0 DUP2 PUSH2 0x352C JUMPI PUSH2 0x352C PUSH2 0x32E5 JUMP JUMPDEST POP PUSH1 0x0 NOT ADD SWAP1 JUMP JUMPDEST DUP1 MLOAD PUSH10 0xFFFFFFFFFFFFFFFFFFFF DUP2 AND DUP2 EQ PUSH2 0x3151 JUMPI PUSH1 0x0 DUP1 REVERT JUMPDEST PUSH1 0x0 DUP1 PUSH1 0x0 DUP1 PUSH1 0x0 PUSH1 0xA0 DUP7 DUP9 SUB SLT ISZERO PUSH2 0x3566 JUMPI PUSH1 0x0 DUP1 REVERT JUMPDEST PUSH2 0x356F DUP7 PUSH2 0x3534 JUMP JUMPDEST SWAP5 POP PUSH1 0x20 DUP7 ADD MLOAD SWAP4 POP PUSH1 0x40 DUP7 ADD MLOAD SWAP3 POP PUSH1 0x60 DUP7 ADD MLOAD SWAP2 POP PUSH2 0x3592 PUSH1 0x80 DUP8 ADD PUSH2 0x3534 JUMP JUMPDEST SWAP1 POP SWAP3 SWAP6 POP SWAP3 SWAP6 SWAP1 SWAP4 POP JUMP JUMPDEST PUSH1 0x0 PUSH1 0x20 DUP3 DUP5 SUB SLT ISZERO PUSH2 0x35B0 JUMPI PUSH1 0x0 DUP1 REVERT JUMPDEST DUP2 MLOAD PUSH1 0xFF DUP2 AND DUP2 EQ PUSH2 0x3171 JUMPI PUSH1 0x0 DUP1 REVERT INVALID LOG2 PUSH5 0x6970667358 0x22 SLT KECCAK256 CALLDATACOPY DUP11 0xBB 0xDB 0x2E PUSH31 0x5EC8419FD87A6BBBD85D5F4D01FAEE243446CE56CCE12FF8955964736F6C63 NUMBER STOP ADDMOD EXP STOP CALLER ","sha1":"513ced1c76a95b4c26aaf4d6772354b53cce8e16","source":"// SPDX-License-Identifier: MIT\npragma solidity ^0.8.0;\n\nimport \"@openzeppelin/contracts/access/Ownable.sol\";\nimport \"@openzeppelin/contracts/token/ERC20/IERC20.sol\";\nimport \"@chainlink/contracts/src/v0.8/interfaces/AggregatorV3Interface.sol\";\n\ncontract TokenFarm is Ownable {\n    // *********\n    // below is for old contracts\n    // mapping token address -> staker address -> amount\n    mapping(address => mapping(address => uint256)) public stakingBalance;\n    mapping(address => uint256) public uniqueTokensStaked;\n    mapping(address => address) public tokenPriceFeedMapping;\n    address[] public stakers;\n    address[] public allowedTokens;\n    IERC20 public dappToken;\n\n    // ******************\n    // the real contract is from here\n    // to do\n    // 1. sushi\n    // 2. transcation cost\n\n    // uncomment this below if need real ETH price !!!!!!!!\n    //import \"@chainlink/contracts/src/v0.6/interfaces/AggregatorV3Interface.sol\";\n\n    uint256 private constant NO_TRADE_CLOSE_TO_EXPIRE = 10; //seconds\n    uint256 private constant MIN_BUYER_SIZE = 1e2;\n    uint256 private constant MIN_SELLER_SIZE = 1e3;\n    uint256 private constant MIN_DEPOSIT_SIZE = 5e2;\n    uint256 private constant TRANSACTION_COST = 1; // so 1% for each trade or we use a formula\n\n    // prevent two people draw liquidity at same time\n    enum contract_status {\n        open,\n        locked\n    }\n    contract_status private STATUS = contract_status.open;\n\n    //Pricefeed interfaces from chainlink\n    // uncomment this below if need real ETH price !!!!!!!!\n    // AggregatorV3Interface internal ethFeed;\n    uint256 public ethPrice;\n\n    address payable contract_address;\n\n    // store cash balance for each user, not used in any option sub-pool\n    mapping(address => uint256) public cash_balance;\n\n    // bid_struct: each bid in bids (bids is the order book for each option)\n    struct bid_struct {\n        uint256 price; // usd per option\n        uint256 size; // number of option x strike\n        address user_id; //user address\n    }\n    // bids[id] is the order book for each option[id]\n    mapping(uint256 => bid_struct[]) public bids;\n\n    // user_struct saves all info for each user\n    enum option_side {\n        not_open,\n        buyer,\n        seller,\n        exercised\n    }\n    struct user_struct {\n        // size: for buyer is number of eth option x strike price he placed\n        // size: for seller is number of eth option x strike price x (1+ yield) on expiry day\n        uint256 size; //in USD,\n        option_side side; //after expiry, re-allocate payoff depends on buyer or seller of option\n        uint256 unusedpremium; //in USD, premium in the pool but not traded, for buyer only\n    }\n    // user[user_address][option-id] is each user\n    mapping(address => mapping(uint256 => user_struct)) public user;\n\n    // option_struct saves info for each option\n    struct option_struct {\n        uint256 strike; //Price in USD, for example 3300\n        uint256 expiry; //Unix timestamp of expiration time, in second\n        uint256 supply; //buyer place bid and seller can sell the bid; supply = number of option x strike\n        uint256[] order; //order book sequence pointer, low bid to high bid, bids[id][order[0]] is the lowest bid\n    }\n    // op[id] is each option\n    option_struct[] public op;\n\n    // ********************\n    // for testing purpose\n    uint256 private id = 0; // for testing we only have one option\n    uint256[] private order_for_test;\n    bid_struct[] private order_book_for_one_option;\n    // settlement_amount is only for testing purples, need to delete in production\n    uint256 public settlement_amount;\n    address public ethAddress;\n\n    // ********************\n\n    //Kovan feeds: https://docs.chain.link/docs/reference-contracts\n    constructor(address _dappTokenAddress, address _ethAddress) public {\n        dappToken = IERC20(_dappTokenAddress);\n\n        //ETH/USD Kovan feed\n        // uncomment this below if need real ETH price !!!!!!!!\n        // ethFeed = AggregatorV3Interface(0x9326BFA02ADD2366b30bacB125260Af641031331);\n        contract_address = payable(address(this));\n\n        // ********************\n        // create fake option for testing\n        option_struct memory option = option_struct({\n            strike: 3300, // in USDC\n            expiry: block.timestamp + 60, // 30seconds option, for testing purpose\n            supply: 0, // after buyer place bid, supply will increase, in producation initial value =0\n            order: order_for_test\n        });\n        op.push(option);\n        // for testing purpose i give you fake money to play\n        cash_balance[msg.sender] = 200000;\n        ethAddress = _ethAddress;\n        // ********************\n    }\n\n    function placeBid(uint256 newbid, uint256 premium) public {\n        // buyer place bid order but nothing traded yet\n        // newbid in usd, eth option price\n        address _user = msg.sender;\n        require(\n            op[id].expiry > block.timestamp - NO_TRADE_CLOSE_TO_EXPIRE,\n            \"Already expired or too close to expiry\"\n        );\n        require(\n            user[_user][id].side != option_side.seller,\n            \"seller of option cannot buy\"\n        );\n        require(premium >= MIN_BUYER_SIZE, \"Min size = 100\");\n        require(premium <= cash_balance[_user], \"not enough cash\"); //cash actually sell the balance first\n        // update buyer\n        // btw user.size only updated when seller sell the bid / only when trade\n        user[_user][id].side = option_side.buyer;\n        user[_user][id].unusedpremium += premium; //premium not used if seller not selling it\n        cash_balance[_user] -= premium;\n\n        // update option supply\n        // below line convert the same unit as option seller, ie: number of eth option x strike price (not number of eth option x ethPrice)\n        // 1x of dual contract needs: ethPrice/stirke size of option to hedge; size/strike > size/current spot!\n        // Warnning below line: first multiply then divide to keep precision\n        uint256 _size = (premium * op[id].strike) / newbid;\n        op[id].supply += _size;\n\n        // update order book\n        bids[id].push(bid_struct(newbid, _size, _user));\n        if (op[id].order.length == 0) {\n            op[id].order.push(bids[id].length - 1);\n        } else {\n            insertBid(newbid);\n        }\n    }\n\n    function cancelBid() public {\n        // to make it easy, cancel all bids for testing stage\n        // can make it cancel specific bid, but need more coding\n        address payable _user = payable(msg.sender);\n        require(\n            STATUS == contract_status.open,\n            \"contract busy, try again later\"\n        );\n        require(\n            user[_user][id].side == option_side.buyer,\n            \"you need to buy option first\"\n        );\n        require(\n            user[_user][id].unusedpremium > 0,\n            \"your oder has been filled or cancelled\"\n        );\n        STATUS = contract_status.locked;\n        // update buyer\n        //_user.transfer(user[_user][id].unusedpremium);\n        cash_balance[_user] += user[_user][id].unusedpremium;\n        user[_user][id].unusedpremium = 0;\n\n        // update order book and option supply\n        uint256[] memory old_order = op[id].order;\n        uint256 k = 0;\n        for (uint256 i = 0; i < old_order.length; i++) {\n            if (bids[id][old_order[i]].user_id != _user) {\n                // if this bid is not from this user\n                op[id].order[k] = old_order[i];\n                // k = how many bids we need to keep\n                k++;\n            } else {\n                op[id].supply -= bids[id][old_order[i]].size;\n            }\n        }\n        for (uint256 i = 0; i < old_order.length - k; i++) {\n            op[id].order.pop();\n        }\n        STATUS = contract_status.open;\n    }\n\n    function sellBid(uint256 seller_size) public {\n        // seller size is in usd, full notional / collateral collected\n        // seller option == buyer dual conntract!\n        address _user = msg.sender;\n        require(op[id].order.length > 0, \"cannot sell if there is no bid\");\n        require(\n            op[id].expiry > block.timestamp - NO_TRADE_CLOSE_TO_EXPIRE,\n            \"Already expired or too close to expiry\"\n        );\n        require(\n            user[_user][id].side != option_side.buyer,\n            \"buyer of option cannot sell\"\n        );\n        require(seller_size >= MIN_SELLER_SIZE, \"Min size = 1000\");\n        require(seller_size <= op[id].supply, \"low supply\");\n        require(seller_size <= cash_balance[_user], \"not enough cash\"); //cash actually sell the balance first\n        cash_balance[_user] -= seller_size;\n\n        // update order book\n        uint256 remain = seller_size;\n        uint256 sizexprice = 0;\n        uint256 each_size;\n        uint256 i = op[id].order.length - 1;\n        // sell multiple bids to have enough size\n        while (remain > 0) {\n            each_size = bids[id][op[id].order[i]].size;\n            if (remain >= each_size) {\n                // update buyer\n                user[bids[id][op[id].order[i]].user_id][id].size += each_size;\n                user[bids[id][op[id].order[i]].user_id][id]\n                    .unusedpremium -= ((each_size *\n                    bids[id][op[id].order[i]].price) / op[id].strike);\n                // update seller\n                sizexprice += (each_size * bids[id][op[id].order[i]].price);\n                // update option\n                op[id].supply -= each_size;\n                // update order book\n                bids[id][op[id].order[i]].size = 0;\n                // last one is the highest one, pop the highest bid\n                op[id].order.pop();\n                remain -= each_size;\n            } else {\n                // update buyer\n                user[bids[id][op[id].order[i]].user_id][id].size += remain;\n                user[bids[id][op[id].order[i]].user_id][id]\n                    .unusedpremium -= ((remain *\n                    bids[id][op[id].order[i]].price) / op[id].strike);\n                // update seller\n                sizexprice += (remain * bids[id][op[id].order[i]].price);\n                // update option\n                op[id].supply -= remain;\n                // update order book\n                bids[id][op[id].order[i]].size -= remain;\n                remain = 0;\n            }\n            i--;\n        }\n        // update seller\n        getEthPrice();\n        //expiry = (sizexprice / seller_size / ethPrice + 1 )x seller_size\n        user[_user][id].size += ((sizexprice + seller_size * ethPrice) /\n            ethPrice);\n        user[_user][id].side = option_side.seller;\n    }\n\n    function getBestBid(uint256 seller_size)\n        public\n        view\n        returns (uint256 average_bid)\n    {\n        // same logic as sellOption Function but not updating options and users\n        require(op[id].order.length > 0, \"cannot sell if there is no bid\");\n        require(seller_size >= MIN_SELLER_SIZE, \"min size = 1000\");\n        require(seller_size <= op[id].supply, \"low supply\");\n        uint256 remain = seller_size;\n        uint256 sizexprice = 0;\n        uint256 each_bid_amount;\n        uint256 i = op[id].order.length - 1;\n        while (remain > 0) {\n            each_bid_amount = bids[id][op[id].order[i]].size;\n            if (remain >= each_bid_amount) {\n                sizexprice += (each_bid_amount *\n                    bids[id][op[id].order[i]].price);\n                remain -= each_bid_amount;\n            } else {\n                sizexprice += (remain * bids[id][op[id].order[i]].price);\n                remain = 0;\n            }\n            i--;\n        }\n        average_bid = sizexprice / seller_size;\n        return average_bid;\n    }\n\n    function exercise() public {\n        // for testing purpose please set a fake eth price\n        address _user = msg.sender;\n        option_side _side = user[_user][id].side;\n        require(\n            _side == option_side.seller || _side == option_side.buyer,\n            \"You have no position\"\n        );\n        require(\n            op[id].expiry <= block.timestamp,\n            \"Cannot exercise before expiry\"\n        );\n        require(_side != option_side.exercised, \"You already excercised \");\n        uint256 _size = user[_user][id].size;\n        uint256 _strike = op[id].strike;\n        if (_side == option_side.buyer) {\n            require(_size > 0, \"No one sell your bid and nothing to expire\");\n            require(ethPrice < _strike, \"Expire worth zero\");\n            if (user[_user][id].unusedpremium > 0) {\n                cancelBid();\n            }\n        }\n        if (_side == option_side.seller) {\n            if (ethPrice < _strike) {\n                // Be very careful!!!!!!!!!!!!\n                // NEED to transfer/sushi USD into ETH here !!! below is ETH amount!!!\n                //_user.transfer(_size / _strike);\n                cash_balance[_user] += _size / _strike;\n                // please delete below line later\n                settlement_amount = _size / _strike;\n            } else {\n                //_user.transfer(_size);\n                cash_balance[_user] += _size;\n                // please delete below line later\n                settlement_amount = _size;\n            }\n        } else {\n            if (ethPrice < _strike) {\n                // below is for cash settlement in usd\n                // noted: when we record buyer size = usd_collected / %price * strike / ethPrice\n                //_user.transfer((_size * (_strike - ethPrice)) / _strike);\n                cash_balance[_user] += ((_size * (_strike - ethPrice)) /\n                    _strike);\n                // please delete below line later\n                settlement_amount = (_size * (_strike - ethPrice)) / _strike;\n            } // else do nothing: expire worth zero\n        }\n        user[_user][id].side = option_side.exercised;\n    }\n\n    function insertBid(uint256 newbid) internal {\n        // insert the newbid in to bids according to the newbid level, lowest bid at 0 position\n        uint256 left = 0;\n        uint256 right = op[id].order.length - 1;\n        uint256 mid;\n\n        // binary tree insert\n        while (left < right) {\n            mid = (left + right) / 2;\n            if (newbid > bids[id][op[id].order[mid]].price) {\n                left = mid + 1;\n            } else {\n                right = mid;\n            }\n        }\n        // when loop ends:\n        // if left > right mid is correct position to insert\n        // if left == right, need to compare once more with right\n        if (left == right) {\n            if (newbid > bids[id][op[id].order[left]].price) {\n                mid = left + 1;\n            } else {\n                mid = left;\n            }\n        }\n        // first push the pointer of newbid /last one of bids into the order array\n        op[id].order.push(bids[id].length - 1);\n        if (mid < op[id].order.length - 1) {\n            for (uint256 i = op[id].order.length - 1; i > mid; i--) {\n                // copy the old value to the right next one\n                op[id].order[i] = op[id].order[i - 1];\n            }\n            // insert the pointer(aka order) of newbid\n            op[id].order[mid] = bids[id].length - 1;\n        } // else if mid == order.lenghth, newbid is highest and already been pushed to the last one of order\n    }\n\n    //Returns the latest ETH price\n    function getEthPrice() public {\n        // uncomment this below if need real ETH price !!!!!!!!\n        //(\n        //    uint80 roundID,\n        //    int256 price,\n        //    uint startedAt,\n        //    uint timeStamp,\n        //    uint80 answeredInRound\n        //) = ethFeed.latestRoundData();\n        //// If the round is not complete yet, timestamp is 0\n        //require(timeStamp > 0, \"Round not complete\");\n        ////Price should never be negative thus cast int to unit is ok\n        ////Price is 8 decimal places and will require 1e10 correction later to 18 places\n        //ethPrice = uint256(price);\n        ethPrice = 3799;\n    }\n\n    function deposit() public payable {\n        require(msg.value >= MIN_DEPOSIT_SIZE, \"Min size = 500\");\n        cash_balance[msg.sender] += msg.value;\n    }\n\n    function PoolBalance() public view returns (uint256) {\n        return (contract_address.balance);\n    }\n\n    function getOrder() public view returns (uint256[] memory) {\n        return op[id].order;\n    }\n\n    function userBalance(address _user) public view returns (uint256) {\n        return cash_balance[_user];\n    }\n\n    function getETH() public view returns (uint256) {\n        (uint256 price, uint256 decimals) = getTokenValue(ethAddress);\n        return price;\n    }\n\n    function SecondToExpiry() public view returns (uint256) {\n        return (op[id].expiry - block.timestamp);\n    }\n\n    function setFakeETH(uint256 _eth) public {\n        ethPrice = _eth;\n    }\n\n    function createFakeBuyer() private {\n        // for testing only, we create an option with some supply\n        // only use before before placeBid, otherwise order will be wrong!!!\n        address fake_user = 0xCA35b7d915458EF540aDe6068dFe2F44E8fa733c;\n        order_book_for_one_option.push(bid_struct(330, 1650, fake_user));\n        order_book_for_one_option.push(bid_struct(396, 1320, fake_user));\n        order_book_for_one_option.push(bid_struct(132, 6600, fake_user));\n        order_book_for_one_option.push(bid_struct(198, 16500, fake_user));\n        bids[id] = order_book_for_one_option;\n        user[fake_user][id].side = option_side.buyer;\n        user[fake_user][id].unusedpremium += 709;\n        op[id].supply += 26070;\n        op[id].order = [2, 3, 0, 1];\n        cash_balance[fake_user] = 100000;\n    }\n\n    // **************************\n    // we only need stake and unstake for now\n\n    function stakeTokens(uint256 _amount, address _token) public {\n        require(_amount > 0, \"Amount must be more than 0\");\n        require(tokenIsAllowed(_token), \"Token is currently no allowed\");\n        IERC20(_token).transferFrom(msg.sender, address(this), _amount);\n        updateUniqueTokensStaked(msg.sender, _token);\n        stakingBalance[_token][msg.sender] =\n            stakingBalance[_token][msg.sender] +\n            _amount;\n        if (uniqueTokensStaked[msg.sender] == 1) {\n            stakers.push(msg.sender);\n        }\n        cash_balance[msg.sender] =\n            cash_balance[msg.sender] +\n            getUserSingleTokenValue(msg.sender, _token);\n    }\n\n    function unstakeTokens(address _token) public {\n        uint256 balance = cash_balance[msg.sender];\n        require(balance > 0, \"Cash balance cannot be 0\");\n        IERC20(_token).transfer(msg.sender, balance);\n        stakingBalance[_token][msg.sender] = 0;\n        uniqueTokensStaked[msg.sender] = uniqueTokensStaked[msg.sender] - 1;\n    }\n\n    // **************************\n    // below is just supportive functions we dont really need\n\n    function viewStakedToken(address _token) public returns (uint256) {\n        // this is useless btw...\n        uint256 balance = stakingBalance[_token][msg.sender];\n        return stakingBalance[_token][msg.sender];\n    }\n\n    function updateUniqueTokensStaked(address _user, address _token) internal {\n        if (stakingBalance[_token][_user] <= 0) {\n            uniqueTokensStaked[_user] = uniqueTokensStaked[_user] + 1;\n        }\n    }\n\n    function addAllowedTokens(address _token) public onlyOwner {\n        allowedTokens.push(_token);\n    }\n\n    function tokenIsAllowed(address _token) public returns (bool) {\n        for (\n            uint256 allowedTokensIndex = 0;\n            allowedTokensIndex < allowedTokens.length;\n            allowedTokensIndex++\n        ) {\n            if (allowedTokens[allowedTokensIndex] == _token) {\n                return true;\n            }\n        }\n        return false;\n    }\n\n    function setPriceFeedContract(address _token, address _priceFeed)\n        public\n        onlyOwner\n    {\n        tokenPriceFeedMapping[_token] = _priceFeed;\n    }\n\n    function issueTokens() public onlyOwner {\n        // Issue tokens to all stakers\n        for (\n            uint256 stakersIndex = 0;\n            stakersIndex < stakers.length;\n            stakersIndex++\n        ) {\n            address recipient = stakers[stakersIndex];\n            uint256 userTotalValue = getUserTotalValue(recipient);\n            dappToken.transfer(recipient, userTotalValue);\n        }\n    }\n\n    function getUserTotalValue(address _user) public view returns (uint256) {\n        uint256 totalValue = 0;\n        require(uniqueTokensStaked[_user] > 0, \"No tokens staked!\");\n        for (\n            uint256 allowedTokensIndex = 0;\n            allowedTokensIndex < allowedTokens.length;\n            allowedTokensIndex++\n        ) {\n            totalValue =\n                totalValue +\n                getUserSingleTokenValue(\n                    _user,\n                    allowedTokens[allowedTokensIndex]\n                );\n        }\n        return totalValue;\n    }\n\n    function getUserSingleTokenValue(address _user, address _token)\n        public\n        view\n        returns (uint256)\n    {\n        if (uniqueTokensStaked[_user] <= 0) {\n            return 0;\n        }\n        // price of the token * stakingBalance[_token][user]\n        (uint256 price, uint256 decimals) = getTokenValue(_token);\n        return // 10000000000000000000 ETH\n        // ETH/USD -> 10000000000\n        // 10 * 100 = 1,000\n        ((stakingBalance[_token][_user] * price) / (10**decimals));\n    }\n\n    function getTokenValue(address _token)\n        public\n        view\n        returns (uint256, uint256)\n    {\n        // priceFeedAddress\n        address priceFeedAddress = tokenPriceFeedMapping[_token];\n        AggregatorV3Interface priceFeed = AggregatorV3Interface(\n            priceFeedAddress\n        );\n        (, int256 price, , , ) = priceFeed.latestRoundData();\n        uint256 decimals = uint256(priceFeed.decimals());\n        return (uint256(price), decimals);\n    }\n}\n","sourcePath":"contracts/TokenFarm.sol","deployment":{"address":"0x6FBcD23345bBB492976Bf1f67209Ab70dF37650e","chainid":"42","blockHeight":29156894}}