{"abi":[{"inputs":[{"internalType":"address","name":"_dappTokenAddress","type":"address"},{"internalType":"address","name":"_ethAddress","type":"address"}],"stateMutability":"nonpayable","type":"constructor","name":"constructor"},{"anonymous":false,"inputs":[{"indexed":true,"internalType":"address","name":"previousOwner","type":"address"},{"indexed":true,"internalType":"address","name":"newOwner","type":"address"}],"name":"OwnershipTransferred","type":"event"},{"inputs":[],"name":"PoolBalance","outputs":[{"internalType":"uint256","name":"","type":"uint256"}],"stateMutability":"view","type":"function"},{"inputs":[],"name":"SecondToExpiry","outputs":[{"internalType":"uint256","name":"","type":"uint256"}],"stateMutability":"view","type":"function"},{"inputs":[{"internalType":"address","name":"_token","type":"address"}],"name":"addAllowedTokens","outputs":[],"stateMutability":"nonpayable","type":"function"},{"inputs":[{"internalType":"uint256","name":"","type":"uint256"}],"name":"allowedTokens","outputs":[{"internalType":"address","name":"","type":"address"}],"stateMutability":"view","type":"function"},{"inputs":[{"internalType":"uint256","name":"","type":"uint256"},{"internalType":"uint256","name":"","type":"uint256"}],"name":"bids","outputs":[{"internalType":"uint256","name":"price","type":"uint256"},{"internalType":"uint256","name":"size","type":"uint256"},{"internalType":"address","name":"user_id","type":"address"}],"stateMutability":"view","type":"function"},{"inputs":[],"name":"cancelBid","outputs":[],"stateMutability":"nonpayable","type":"function"},{"inputs":[{"internalType":"address","name":"","type":"address"}],"name":"cash_balance","outputs":[{"internalType":"uint256","name":"","type":"uint256"}],"stateMutability":"view","type":"function"},{"inputs":[],"name":"dappToken","outputs":[{"internalType":"contract IERC20","name":"","type":"address"}],"stateMutability":"view","type":"function"},{"inputs":[],"name":"deposit","outputs":[],"stateMutability":"payable","type":"function"},{"inputs":[],"name":"ethPrice","outputs":[{"internalType":"uint256","name":"","type":"uint256"}],"stateMutability":"view","type":"function"},{"inputs":[],"name":"exercise","outputs":[],"stateMutability":"nonpayable","type":"function"},{"inputs":[{"internalType":"uint256","name":"seller_size","type":"uint256"}],"name":"getBestBid","outputs":[{"internalType":"uint256","name":"average_bid","type":"uint256"}],"stateMutability":"view","type":"function"},{"inputs":[],"name":"getEthPrice","outputs":[],"stateMutability":"nonpayable","type":"function"},{"inputs":[],"name":"getOrder","outputs":[{"internalType":"uint256[]","name":"","type":"uint256[]"}],"stateMutability":"view","type":"function"},{"inputs":[{"internalType":"address","name":"_token","type":"address"}],"name":"getTokenValue","outputs":[{"internalType":"uint256","name":"","type":"uint256"},{"internalType":"uint256","name":"","type":"uint256"}],"stateMutability":"view","type":"function"},{"inputs":[{"internalType":"address","name":"_user","type":"address"},{"internalType":"address","name":"_token","type":"address"}],"name":"getUserSingleTokenValue","outputs":[{"internalType":"uint256","name":"","type":"uint256"}],"stateMutability":"view","type":"function"},{"inputs":[{"internalType":"address","name":"_user","type":"address"}],"name":"getUserTotalValue","outputs":[{"internalType":"uint256","name":"","type":"uint256"}],"stateMutability":"view","type":"function"},{"inputs":[],"name":"issueTokens","outputs":[],"stateMutability":"nonpayable","type":"function"},{"inputs":[{"internalType":"uint256","name":"","type":"uint256"}],"name":"op","outputs":[{"internalType":"uint256","name":"strike","type":"uint256"},{"internalType":"uint256","name":"expiry","type":"uint256"},{"internalType":"uint256","name":"supply","type":"uint256"}],"stateMutability":"view","type":"function"},{"inputs":[],"name":"owner","outputs":[{"internalType":"address","name":"","type":"address"}],"stateMutability":"view","type":"function"},{"inputs":[{"internalType":"uint256","name":"newbid","type":"uint256"},{"internalType":"uint256","name":"premium","type":"uint256"}],"name":"placeBid","outputs":[],"stateMutability":"nonpayable","type":"function"},{"inputs":[],"name":"renounceOwnership","outputs":[],"stateMutability":"nonpayable","type":"function"},{"inputs":[{"internalType":"uint256","name":"seller_size","type":"uint256"}],"name":"sellBid","outputs":[],"stateMutability":"nonpayable","type":"function"},{"inputs":[{"internalType":"uint256","name":"_eth","type":"uint256"}],"name":"setFakeETH","outputs":[],"stateMutability":"nonpayable","type":"function"},{"inputs":[{"internalType":"address","name":"_token","type":"address"},{"internalType":"address","name":"_priceFeed","type":"address"}],"name":"setPriceFeedContract","outputs":[],"stateMutability":"nonpayable","type":"function"},{"inputs":[],"name":"settlement_amount","outputs":[{"internalType":"uint256","name":"","type":"uint256"}],"stateMutability":"view","type":"function"},{"inputs":[{"internalType":"uint256","name":"_amount","type":"uint256"},{"internalType":"address","name":"_token","type":"address"}],"name":"stakeTokens","outputs":[],"stateMutability":"nonpayable","type":"function"},{"inputs":[{"internalType":"uint256","name":"","type":"uint256"}],"name":"stakers","outputs":[{"internalType":"address","name":"","type":"address"}],"stateMutability":"view","type":"function"},{"inputs":[{"internalType":"address","name":"","type":"address"},{"internalType":"address","name":"","type":"address"}],"name":"stakingBalance","outputs":[{"internalType":"uint256","name":"","type":"uint256"}],"stateMutability":"view","type":"function"},{"inputs":[{"internalType":"address","name":"_token","type":"address"}],"name":"tokenIsAllowed","outputs":[{"internalType":"bool","name":"","type":"bool"}],"stateMutability":"nonpayable","type":"function"},{"inputs":[{"internalType":"address","name":"","type":"address"}],"name":"tokenPriceFeedMapping","outputs":[{"internalType":"address","name":"","type":"address"}],"stateMutability":"view","type":"function"},{"inputs":[{"internalType":"address","name":"newOwner","type":"address"}],"name":"transferOwnership","outputs":[],"stateMutability":"nonpayable","type":"function"},{"inputs":[{"internalType":"address","name":"","type":"address"}],"name":"uniqueTokensStaked","outputs":[{"internalType":"uint256","name":"","type":"uint256"}],"stateMutability":"view","type":"function"},{"inputs":[{"internalType":"address","name":"_token","type":"address"}],"name":"unstakeTokens","outputs":[],"stateMutability":"nonpayable","type":"function"},{"inputs":[{"internalType":"address","name":"","type":"address"},{"internalType":"uint256","name":"","type":"uint256"}],"name":"user","outputs":[{"internalType":"uint256","name":"size","type":"uint256"},{"internalType":"enum TokenFarm.option_side","name":"side","type":"uint8"},{"internalType":"uint256","name":"unusedpremium","type":"uint256"}],"stateMutability":"view","type":"function"},{"inputs":[],"name":"userBalance","outputs":[{"internalType":"uint256","name":"","type":"uint256"}],"stateMutability":"view","type":"function"},{"inputs":[{"internalType":"address","name":"_token","type":"address"}],"name":"viewStakedToken","outputs":[{"internalType":"uint256","name":"","type":"uint256"}],"stateMutability":"nonpayable","type":"function"}],"bytecode":"60806040526006805460ff60a01b191690556000600d553480156200002357600080fd5b5060405162003888380380620038888339810160408190526200004691620002c6565b6200005133620001f2565b600680546001600160a01b0384166001600160a01b03199182161790915560088054909116301790556040805160808101909152610ce48152600090602081016200009e42603c620002fe565b815260200160008152602001600e805480602002602001604051908101604052809291908181526020018280548015620000f857602002820191906000526020600020905b815481526020019060010190808311620000e3575b505050919092525050600c8054600181018255600091909152815160049091027fdf6966c971051c3d54ec59162606531493a51404a002842f56009d7e5cf4a8c781019182556020808401517fdf6966c971051c3d54ec59162606531493a51404a002842f56009d7e5cf4a8c883015560408401517fdf6966c971051c3d54ec59162606531493a51404a002842f56009d7e5cf4a8c9830155606084015180519495508594620001d0937fdf6966c971051c3d54ec59162606531493a51404a002842f56009d7e5cf4a8ca0192919091019062000242565b505033600090815260096020526040902062030d409055506200032592505050565b600080546001600160a01b038381166001600160a01b0319831681178455604051919092169283917f8be0079c531659141344cd1fd0a4f28419497f9722a3daafe3b4186f6b6457e09190a35050565b82805482825590600052602060002090810192821562000280579160200282015b828111156200028057825182559160200191906001019062000263565b506200028e92915062000292565b5090565b5b808211156200028e576000815560010162000293565b80516001600160a01b0381168114620002c157600080fd5b919050565b60008060408385031215620002da57600080fd5b620002e583620002a9565b9150620002f560208401620002a9565b90509250929050565b600082198211156200032057634e487b7160e01b600052601160045260246000fd5b500190565b61355380620003356000396000f3fe60806040526004361061021a5760003560e01c80637b3889e711610123578063d0e30db0116100ab578063f1c5d6c21161006f578063f1c5d6c2146106d0578063f2fde38b14610705578063f670235614610725578063fd5e6dd114610752578063ff186b2e1461077257600080fd5b8063d0e30db014610641578063d32cb0fe14610649578063d36dedd21461065e578063dd5b846714610680578063f14e96f1146106b057600080fd5b80638da5cb5b116100f25780638da5cb5b1461059f5780639435c887146105bd578063af3f5e22146105d2578063b83e0234146105f2578063bf1527651461061f57600080fd5b80637b3889e7146105105780637b3c4baa146105265780637e7f320d1461056a578063877dd39d1461057f57600080fd5b8063387eadae116101a65780635eb186f8116101755780635eb186f81461048e57806360ab5852146104ae57806367c9b017146104c3578063704bba69146104db578063715018a6146104fb57600080fd5b8063387eadae146103d25780634f0dcd391461040d57806357c90de51461044e5780635e5f2e261461046e57600080fd5b80631be0819c116101ed5780631be0819c146102e3578063276b11da1461030c57806327927b3e1461032c57806329161a001461037a5780632d1ad8b8146103b257600080fd5b80630bea440d1461021f57806314feaa9d1461024157806316ed0f72146102a3578063171e44ea146102c3575b600080fd5b34801561022b57600080fd5b5061023f61023a3660046130b2565b610788565b005b34801561024d57600080fd5b5061028b61025c3660046130de565b600b602090815260009283526040808420909152908252902080546001820154600290920154909160ff169083565b60405161029a9392919061311e565b60405180910390f35b3480156102af57600080fd5b5061023f6102be366004613154565b600755565b3480156102cf57600080fd5b5061023f6102de36600461316d565b61095f565b3480156102ef57600080fd5b506008546001600160a01b0316315b60405190815260200161029a565b34801561031857600080fd5b506102fe61032736600461318f565b6109db565b34801561033857600080fd5b5061036261034736600461316d565b6003602052600090815260409020546001600160a01b031681565b6040516001600160a01b03909116815260200161029a565b34801561038657600080fd5b506102fe61039536600461318f565b600160209081526000928352604080842090915290825290205481565b3480156103be57600080fd5b5061023f6103cd36600461316d565b610a62565b3480156103de57600080fd5b506103f26103ed366004613154565b610b92565b6040805193845260208401929092529082015260600161029a565b34801561041957600080fd5b506102fe61042836600461316d565b6001600160a01b0316600090815260016020908152604080832033845290915290205490565b34801561045a57600080fd5b5061023f6104693660046131b9565b610bc5565b34801561047a57600080fd5b50610362610489366004613154565b610f52565b34801561049a57600080fd5b50600654610362906001600160a01b031681565b3480156104ba57600080fd5b5061023f610f7c565b3480156104cf57600080fd5b5061023f610ed7600755565b3480156104e757600080fd5b5061023f6104f6366004613154565b611079565b34801561050757600080fd5b5061023f611bbb565b34801561051c57600080fd5b506102fe60105481565b34801561053257600080fd5b506105466105413660046131b9565b611bf1565b6040805193845260208401929092526001600160a01b03169082015260600161029a565b34801561057657600080fd5b506102fe611c3c565b34801561058b57600080fd5b5061023f61059a36600461318f565b611c75565b3480156105ab57600080fd5b506000546001600160a01b0316610362565b3480156105c957600080fd5b5061023f611ccd565b3480156105de57600080fd5b506102fe6105ed36600461316d565b612155565b3480156105fe57600080fd5b506102fe61060d36600461316d565b60026020526000908152604090205481565b34801561062b57600080fd5b50336000908152600960205260409020546102fe565b61023f612213565b34801561065557600080fd5b5061023f61227c565b34801561066a57600080fd5b50610673612690565b60405161029a91906131db565b34801561068c57600080fd5b506106a061069b36600461316d565b61270c565b604051901515815260200161029a565b3480156106bc57600080fd5b506102fe6106cb366004613154565b612776565b3480156106dc57600080fd5b506106f06106eb36600461316d565b612ab4565b6040805192835260208301919091520161029a565b34801561071157600080fd5b5061023f61072036600461316d565b612bb5565b34801561073157600080fd5b506102fe61074036600461316d565b60096020526000908152604090205481565b34801561075e57600080fd5b5061036261076d366004613154565b612c4d565b34801561077e57600080fd5b506102fe60075481565b600082116107dd5760405162461bcd60e51b815260206004820152601a60248201527f416d6f756e74206d757374206265206d6f7265207468616e203000000000000060448201526064015b60405180910390fd5b6107e68161270c565b6108325760405162461bcd60e51b815260206004820152601d60248201527f546f6b656e2069732063757272656e746c79206e6f20616c6c6f77656400000060448201526064016107d4565b6040516323b872dd60e01b8152336004820152306024820152604481018390526001600160a01b038216906323b872dd906064016020604051808303816000875af1158015610885573d6000803e3d6000fd5b505050506040513d601f19601f820116820180604052508101906108a9919061321f565b506108b43382612c5d565b6001600160a01b03811660009081526001602090815260408083203384529091529020546108e3908390613257565b6001600160a01b03821660009081526001602081815260408084203385528252808420949094556002905291902054141561095b57600480546001810182556000919091527f8a35acfbc15ff81a39ae7d344fd709f28e8600b4aa8c65c6b64bfe7fe36bd19b0180546001600160a01b031916331790555b5050565b6000546001600160a01b031633146109895760405162461bcd60e51b81526004016107d49061326f565b600580546001810182556000919091527f036b6384b5eca791c62761152d0c79bb0604c104a5fb6f4eb0703f3154bb3db00180546001600160a01b0319166001600160a01b0392909216919091179055565b6001600160a01b038216600090815260026020526040812054610a0057506000610a5c565b600080610a0c84612ab4565b9092509050610a1c81600a613388565b6001600160a01b038086166000908152600160209081526040808320938a1683529290522054610a4d908490613394565b610a5791906133b3565b925050505b92915050565b6001600160a01b038116600090815260016020908152604080832033845290915290205480610ad35760405162461bcd60e51b815260206004820152601b60248201527f5374616b696e672062616c616e63652063616e6e6f742062652030000000000060448201526064016107d4565b60405163a9059cbb60e01b8152336004820152602481018290526001600160a01b0383169063a9059cbb906044016020604051808303816000875af1158015610b20573d6000803e3d6000fd5b505050506040513d601f19601f82011682018060405250810190610b44919061321f565b506001600160a01b03821660009081526001602081815260408084203385528252808420849055600290915290912054610b7e91906133d5565b336000908152600260205260409020555050565b600c8181548110610ba257600080fd5b600091825260209091206004909102018054600182015460029092015490925083565b33610bd1600a426133d5565b600c600d5481548110610be657610be66133ec565b90600052602060002090600402016001015411610c155760405162461bcd60e51b81526004016107d490613402565b60026001600160a01b0382166000908152600b60209081526040808320600d54845290915290206001015460ff166003811115610c5457610c54613108565b1415610ca25760405162461bcd60e51b815260206004820152601b60248201527f73656c6c6572206f66206f7074696f6e2063616e6e6f7420627579000000000060448201526064016107d4565b6064821015610ce45760405162461bcd60e51b815260206004820152600e60248201526d04d696e2073697a65203d203130360941b60448201526064016107d4565b6001600160a01b038116600090815260096020526040902054821115610d3e5760405162461bcd60e51b815260206004820152600f60248201526e0dcdee840cadcdeeaced040c6c2e6d608b1b60448201526064016107d4565b6001600160a01b0381166000908152600b60209081526040808320600d8054855292528083206001908101805460ff191690911790559054825281206002018054849290610d8d908490613257565b90915550506001600160a01b03811660009081526009602052604081208054849290610dba9084906133d5565b92505081905550600083600c600d5481548110610dd957610dd96133ec565b90600052602060002090600402016000015484610df69190613394565b610e0091906133b3565b905080600c600d5481548110610e1857610e186133ec565b90600052602060002090600402016002016000828254610e389190613257565b9091555050600d80546000908152600a6020908152604080832081516060810183528981528084018781526001600160a01b038981169483019485528354600180820186559488529590962091516003909502909101938455519083015551600290910180546001600160a01b0319169190921617905554600c80549091908110610ec557610ec56133ec565b6000918252602090912060036004909202010154610f4357600c600d5481548110610ef257610ef26133ec565b90600052602060002090600402016003016001600a6000600d54815260200190815260200160002080549050610f2891906133d5565b81546001810183556000928352602090922090910155610f4c565b610f4c84612cc8565b50505050565b60058181548110610f6257600080fd5b6000918252602090912001546001600160a01b0316905081565b6000546001600160a01b03163314610fa65760405162461bcd60e51b81526004016107d49061326f565b60005b60045481101561107657600060048281548110610fc857610fc86133ec565b60009182526020822001546001600160a01b03169150610fe782612155565b60065460405163a9059cbb60e01b81526001600160a01b0385811660048301526024820184905292935091169063a9059cbb906044016020604051808303816000875af115801561103c573d6000803e3d6000fd5b505050506040513d601f19601f82011682018060405250810190611060919061321f565b505050808061106e90613448565b915050610fa9565b50565b60003390506000600c600d5481548110611095576110956133ec565b906000526020600020906004020160030180549050116110f75760405162461bcd60e51b815260206004820152601e60248201527f63616e6e6f742073656c6c206966207468657265206973206e6f20626964000060448201526064016107d4565b611102600a426133d5565b600c600d5481548110611117576111176133ec565b906000526020600020906004020160010154116111465760405162461bcd60e51b81526004016107d490613402565b60016001600160a01b0382166000908152600b60209081526040808320600d54845290915290206001015460ff16600381111561118557611185613108565b14156111d35760405162461bcd60e51b815260206004820152601b60248201527f6275796572206f66206f7074696f6e2063616e6e6f742073656c6c000000000060448201526064016107d4565b6103e88210156112175760405162461bcd60e51b815260206004820152600f60248201526e04d696e2073697a65203d203130303608c1b60448201526064016107d4565b600c600d548154811061122c5761122c6133ec565b90600052602060002090600402016002015482111561127a5760405162461bcd60e51b815260206004820152600a6024820152696c6f7720737570706c7960b01b60448201526064016107d4565b6001600160a01b0381166000908152600960205260409020548211156112d45760405162461bcd60e51b815260206004820152600f60248201526e0dcdee840cadcdeeaced040c6c2e6d608b1b60448201526064016107d4565b6001600160a01b038116600090815260096020526040812080548492906112fc9084906133d5565b925050819055506000829050600080806001600c600d5481548110611323576113236133ec565b90600052602060002090600402016003018054905061134291906133d5565b90505b8315611b1957600d546000818152600a60205260409020600c8054919290918110611372576113726133ec565b90600052602060002090600402016003018281548110611394576113946133ec565b9060005260206000200154815481106113af576113af6133ec565b906000526020600020906003020160010154915081841061178f57600d546000818152600a60205260408120600c80548694600b9493929181106113f5576113f56133ec565b90600052602060002090600402016003018581548110611417576114176133ec565b906000526020600020015481548110611432576114326133ec565b60009182526020808320600260039093020191909101546001600160a01b031683528281019390935260409182018120600d5482529092528120805490919061147c908490613257565b92505081905550600c600d5481548110611498576114986133ec565b906000526020600020906004020160000154600a6000600d548152602001908152602001600020600c600d54815481106114d4576114d46133ec565b906000526020600020906004020160030183815481106114f6576114f66133ec565b906000526020600020015481548110611511576115116133ec565b9060005260206000209060030201600001548361152e9190613394565b61153891906133b3565b600d546000818152600a60205260408120600c8054600b9490811061155f5761155f6133ec565b90600052602060002090600402016003018581548110611581576115816133ec565b90600052602060002001548154811061159c5761159c6133ec565b6000918252602080832060026003909302018201546001600160a01b031684528381019490945260409283018220600d54835290935290812090910180549091906115e89084906133d5565b9091555050600d546000818152600a60205260409020600c8054919290918110611614576116146133ec565b90600052602060002090600402016003018281548110611636576116366133ec565b906000526020600020015481548110611651576116516133ec565b9060005260206000209060030201600001548261166e9190613394565b6116789084613257565b925081600c600d5481548110611690576116906133ec565b906000526020600020906004020160020160008282546116b091906133d5565b9091555050600d546000818152600a60205260408120600c80549293919290919081106116df576116df6133ec565b90600052602060002090600402016003018381548110611701576117016133ec565b90600052602060002001548154811061171c5761171c6133ec565b906000526020600020906003020160010181905550600c600d5481548110611746576117466133ec565b906000526020600020906004020160030180548061176657611766613463565b60019003818190600052602060002001600090559055818461178891906133d5565b9350611b07565b600d546000818152600a60205260408120600c80548894600b9493929181106117ba576117ba6133ec565b906000526020600020906004020160030185815481106117dc576117dc6133ec565b9060005260206000200154815481106117f7576117f76133ec565b60009182526020808320600260039093020191909101546001600160a01b031683528281019390935260409182018120600d54825290925281208054909190611841908490613257565b92505081905550600c600d548154811061185d5761185d6133ec565b906000526020600020906004020160000154600a6000600d548152602001908152602001600020600c600d5481548110611899576118996133ec565b906000526020600020906004020160030183815481106118bb576118bb6133ec565b9060005260206000200154815481106118d6576118d66133ec565b906000526020600020906003020160000154856118f39190613394565b6118fd91906133b3565b600d546000818152600a60205260408120600c8054600b94908110611924576119246133ec565b90600052602060002090600402016003018581548110611946576119466133ec565b906000526020600020015481548110611961576119616133ec565b6000918252602080832060026003909302018201546001600160a01b031684528381019490945260409283018220600d54835290935290812090910180549091906119ad9084906133d5565b9091555050600d546000818152600a60205260409020600c80549192909181106119d9576119d96133ec565b906000526020600020906004020160030182815481106119fb576119fb6133ec565b906000526020600020015481548110611a1657611a166133ec565b90600052602060002090600302016000015484611a339190613394565b611a3d9084613257565b925083600c600d5481548110611a5557611a556133ec565b90600052602060002090600402016002016000828254611a7591906133d5565b9091555050600d546000818152600a60205260409020600c80548793908110611aa057611aa06133ec565b90600052602060002090600402016003018381548110611ac257611ac26133ec565b906000526020600020015481548110611add57611add6133ec565b90600052602060002090600302016001016000828254611afd91906133d5565b9091555060009450505b80611b1181613479565b915050611345565b611b24610ed7600755565b600754611b318188613394565b611b3b9085613257565b611b4591906133b3565b6001600160a01b0386166000908152600b60209081526040808320600d54845290915281208054909190611b7a908490613257565b909155505050506001600160a01b03929092166000908152600b60209081526040808320600d5484529091529020600101805460ff19166002179055505050565b6000546001600160a01b03163314611be55760405162461bcd60e51b81526004016107d49061326f565b611bef6000613046565b565b600a6020528160005260406000208181548110611c0d57600080fd5b60009182526020909120600390910201805460018201546002909201549093509091506001600160a01b031683565b600042600c600d5481548110611c5457611c546133ec565b906000526020600020906004020160010154611c7091906133d5565b905090565b6000546001600160a01b03163314611c9f5760405162461bcd60e51b81526004016107d49061326f565b6001600160a01b03918216600090815260036020526040902080546001600160a01b03191691909216179055565b336000600654600160a01b900460ff166001811115611cee57611cee613108565b14611d3b5760405162461bcd60e51b815260206004820152601e60248201527f636f6e747261637420627573792c2074727920616761696e206c61746572000060448201526064016107d4565b60016001600160a01b0382166000908152600b60209081526040808320600d54845290915290206001015460ff166003811115611d7a57611d7a613108565b14611dc75760405162461bcd60e51b815260206004820152601c60248201527f796f75206e65656420746f20627579206f7074696f6e2066697273740000000060448201526064016107d4565b6001600160a01b0381166000908152600b60209081526040808320600d548452909152902060020154611e4b5760405162461bcd60e51b815260206004820152602660248201527f796f7572206f64657220686173206265656e2066696c6c6564206f722063616e60448201526518d95b1b195960d21b60648201526084016107d4565b6006805460ff60a01b1916600160a01b1790556001600160a01b0381166000818152600b60209081526040808320600d548452825280832060020154938352600990915281208054909190611ea1908490613257565b90915550506001600160a01b0381166000908152600b60209081526040808320600d805485529252822060020182905554600c80549091908110611ee757611ee76133ec565b9060005260206000209060040201600301805480602002602001604051908101604052809291908181526020018280548015611f4257602002820191906000526020600020905b815481526020019060010190808311611f2e575b505050505090506000805b82518110156120cc57836001600160a01b0316600a6000600d548152602001908152602001600020848381518110611f8757611f876133ec565b602002602001015181548110611f9f57611f9f6133ec565b60009182526020909120600260039092020101546001600160a01b03161461203057828181518110611fd357611fd36133ec565b6020026020010151600c600d5481548110611ff057611ff06133ec565b90600052602060002090600402016003018381548110612012576120126133ec565b6000918252602090912001558161202881613448565b9250506120ba565b600d546000908152600a602052604090208351849083908110612055576120556133ec565b60200260200101518154811061206d5761206d6133ec565b906000526020600020906003020160010154600c600d5481548110612094576120946133ec565b906000526020600020906004020160020160008282546120b491906133d5565b90915550505b806120c481613448565b915050611f4d565b5060005b8183516120dd91906133d5565b81101561214257600c600d54815481106120f9576120f96133ec565b906000526020600020906004020160030180548061211957612119613463565b60019003818190600052602060002001600090559055808061213a90613448565b9150506120d0565b50506006805460ff60a01b191690555050565b6001600160a01b03811660009081526002602052604081205481906121b05760405162461bcd60e51b81526020600482015260116024820152704e6f20746f6b656e73207374616b65642160781b60448201526064016107d4565b60005b60055481101561220c576121ee84600583815481106121d4576121d46133ec565b6000918252602090912001546001600160a01b03166109db565b6121f89083613257565b91508061220481613448565b9150506121b3565b5092915050565b6101f43410156122565760405162461bcd60e51b815260206004820152600e60248201526d04d696e2073697a65203d203530360941b60448201526064016107d4565b3360009081526009602052604081208054349290612275908490613257565b9091555050565b336000818152600b60209081526040808320600d54845290915290206001015460ff1660028160038111156122b3576122b3613108565b14806122d0575060018160038111156122ce576122ce613108565b145b6123135760405162461bcd60e51b81526020600482015260146024820152732cb7ba903430bb32903737903837b9b4ba34b7b760611b60448201526064016107d4565b42600c600d5481548110612329576123296133ec565b90600052602060002090600402016001015411156123895760405162461bcd60e51b815260206004820152601d60248201527f43616e6e6f74206578657263697365206265666f72652065787069727900000060448201526064016107d4565b600381600381111561239d5761239d613108565b14156123eb5760405162461bcd60e51b815260206004820152601760248201527f596f7520616c726561647920657863657263697365642000000000000000000060448201526064016107d4565b6001600160a01b0382166000908152600b60209081526040808320600d548085529252822054600c805491939290918110612428576124286133ec565b60009182526020909120600490910201549050600183600381111561244f5761244f613108565b141561253357600082116124b85760405162461bcd60e51b815260206004820152602a60248201527f4e6f206f6e652073656c6c20796f75722062696420616e64206e6f7468696e6760448201526920746f2065787069726560b01b60648201526084016107d4565b80600754106124fd5760405162461bcd60e51b815260206004820152601160248201527045787069726520776f727468207a65726f60781b60448201526064016107d4565b6001600160a01b0384166000908152600b60209081526040808320600d5484529091529020600201541561253357612533611ccd565b600283600381111561254757612547613108565b14156125d8578060075410156125a15761256181836133b3565b6001600160a01b03851660009081526009602052604081208054909190612589908490613257565b90915550612599905081836133b3565b601055612659565b6001600160a01b038416600090815260096020526040812080548492906125c9908490613257565b90915550506010829055612659565b8060075410156126595780600754826125f191906133d5565b6125fb9084613394565b61260591906133b3565b6001600160a01b0385166000908152600960205260408120805490919061262d908490613257565b9091555050600754819061264190826133d5565b61264b9084613394565b61265591906133b3565b6010555b5050506001600160a01b03166000908152600b60209081526040808320600d5484529091529020600101805460ff19166003179055565b6060600c600d54815481106126a7576126a76133ec565b906000526020600020906004020160030180548060200260200160405190810160405280929190818152602001828054801561270257602002820191906000526020600020905b8154815260200190600101908083116126ee575b5050505050905090565b6000805b60055481101561276d57826001600160a01b031660058281548110612737576127376133ec565b6000918252602090912001546001600160a01b0316141561275b5750600192915050565b8061276581613448565b915050612710565b50600092915050565b600080600c600d548154811061278e5761278e6133ec565b906000526020600020906004020160030180549050116127f05760405162461bcd60e51b815260206004820152601e60248201527f63616e6e6f742073656c6c206966207468657265206973206e6f20626964000060448201526064016107d4565b6103e88210156128345760405162461bcd60e51b815260206004820152600f60248201526e06d696e2073697a65203d203130303608c1b60448201526064016107d4565b600c600d5481548110612849576128496133ec565b9060005260206000209060040201600201548211156128975760405162461bcd60e51b815260206004820152600a6024820152696c6f7720737570706c7960b01b60448201526064016107d4565b6000829050600080806001600c600d54815481106128b7576128b76133ec565b9060005260206000209060040201600301805490506128d691906133d5565b90505b8315612aa057600d546000818152600a60205260409020600c8054919290918110612906576129066133ec565b90600052602060002090600402016003018281548110612928576129286133ec565b906000526020600020015481548110612943576129436133ec565b90600052602060002090600302016001015491508184106129fc57600d546000818152600a60205260409020600c8054919290918110612985576129856133ec565b906000526020600020906004020160030182815481106129a7576129a76133ec565b9060005260206000200154815481106129c2576129c26133ec565b906000526020600020906003020160000154826129df9190613394565b6129e99084613257565b92506129f582856133d5565b9350612a8e565b600d546000818152600a60205260409020600c8054919290918110612a2357612a236133ec565b90600052602060002090600402016003018281548110612a4557612a456133ec565b906000526020600020015481548110612a6057612a606133ec565b90600052602060002090600302016000015484612a7d9190613394565b612a879084613257565b9250600093505b80612a9881613479565b9150506128d9565b612aaa86846133b3565b9695505050505050565b6001600160a01b03808216600090815260036020526040808220548151633fabe5a360e21b815291519293849391169182918491839163feaf968c9160048082019260a0929091908290030181865afa158015612b15573d6000803e3d6000fd5b505050506040513d601f19601f82011682018060405250810190612b3991906134aa565b5050509150506000826001600160a01b031663313ce5676040518163ffffffff1660e01b8152600401602060405180830381865afa158015612b7f573d6000803e3d6000fd5b505050506040513d601f19601f82011682018060405250810190612ba391906134fa565b919760ff909216965090945050505050565b6000546001600160a01b03163314612bdf5760405162461bcd60e51b81526004016107d49061326f565b6001600160a01b038116612c445760405162461bcd60e51b815260206004820152602660248201527f4f776e61626c653a206e6577206f776e657220697320746865207a65726f206160448201526564647265737360d01b60648201526084016107d4565b61107681613046565b60048181548110610f6257600080fd5b6001600160a01b0380821660009081526001602090815260408083209386168352929052205461095b576001600160a01b038216600090815260026020526040902054612cab906001613257565b6001600160a01b0383166000908152600260205260409020555050565b6000806001600c600d5481548110612ce257612ce26133ec565b906000526020600020906004020160030180549050612d0191906133d5565b905060005b81831015612dc0576002612d1a8385613257565b612d2491906133b3565b9050600a6000600d548152602001908152602001600020600c600d5481548110612d5057612d506133ec565b90600052602060002090600402016003018281548110612d7257612d726133ec565b906000526020600020015481548110612d8d57612d8d6133ec565b906000526020600020906003020160000154841115612db857612db1816001613257565b9250612d06565b809150612d06565b81831415612e5a57600d546000818152600a60205260409020600c8054919290918110612def57612def6133ec565b90600052602060002090600402016003018481548110612e1157612e116133ec565b906000526020600020015481548110612e2c57612e2c6133ec565b906000526020600020906003020160000154841115612e5757612e50836001613257565b9050612e5a565b50815b600c600d5481548110612e6f57612e6f6133ec565b90600052602060002090600402016003016001600a6000600d54815260200190815260200160002080549050612ea591906133d5565b815460018181018455600093845260209093200155600d54600c80549091908110612ed257612ed26133ec565b906000526020600020906004020160030180549050612ef191906133d5565b811015610f4c5760006001600c600d5481548110612f1157612f116133ec565b906000526020600020906004020160030180549050612f3091906133d5565b90505b81811115612fde57600c600d5481548110612f5057612f506133ec565b9060005260206000209060040201600301600182612f6e91906133d5565b81548110612f7e57612f7e6133ec565b9060005260206000200154600c600d5481548110612f9e57612f9e6133ec565b90600052602060002090600402016003018281548110612fc057612fc06133ec565b60009182526020909120015580612fd681613479565b915050612f33565b50600d546000908152600a6020526040902054612ffd906001906133d5565b600c600d5481548110613012576130126133ec565b90600052602060002090600402016003018281548110613034576130346133ec565b60009182526020909120015550505050565b600080546001600160a01b038381166001600160a01b0319831681178455604051919092169283917f8be0079c531659141344cd1fd0a4f28419497f9722a3daafe3b4186f6b6457e09190a35050565b80356001600160a01b03811681146130ad57600080fd5b919050565b600080604083850312156130c557600080fd5b823591506130d560208401613096565b90509250929050565b600080604083850312156130f157600080fd5b6130fa83613096565b946020939093013593505050565b634e487b7160e01b600052602160045260246000fd5b838152606081016004841061314357634e487b7160e01b600052602160045260246000fd5b602082019390935260400152919050565b60006020828403121561316657600080fd5b5035919050565b60006020828403121561317f57600080fd5b61318882613096565b9392505050565b600080604083850312156131a257600080fd5b6131ab83613096565b91506130d560208401613096565b600080604083850312156131cc57600080fd5b50508035926020909101359150565b6020808252825182820181905260009190848201906040850190845b81811015613213578351835292840192918401916001016131f7565b50909695505050505050565b60006020828403121561323157600080fd5b8151801515811461318857600080fd5b634e487b7160e01b600052601160045260246000fd5b6000821982111561326a5761326a613241565b500190565b6020808252818101527f4f776e61626c653a2063616c6c6572206973206e6f7420746865206f776e6572604082015260600190565b600181815b808511156132df5781600019048211156132c5576132c5613241565b808516156132d257918102915b93841c93908002906132a9565b509250929050565b6000826132f657506001610a5c565b8161330357506000610a5c565b816001811461331957600281146133235761333f565b6001915050610a5c565b60ff84111561333457613334613241565b50506001821b610a5c565b5060208310610133831016604e8410600b8410161715613362575081810a610a5c565b61336c83836132a4565b806000190482111561338057613380613241565b029392505050565b600061318883836132e7565b60008160001904831182151516156133ae576133ae613241565b500290565b6000826133d057634e487b7160e01b600052601260045260246000fd5b500490565b6000828210156133e7576133e7613241565b500390565b634e487b7160e01b600052603260045260246000fd5b60208082526026908201527f416c72656164792065787069726564206f7220746f6f20636c6f736520746f2060408201526565787069727960d01b606082015260800190565b600060001982141561345c5761345c613241565b5060010190565b634e487b7160e01b600052603160045260246000fd5b60008161348857613488613241565b506000190190565b805169ffffffffffffffffffff811681146130ad57600080fd5b600080600080600060a086880312156134c257600080fd5b6134cb86613490565b94506020860151935060408601519250606086015191506134ee60808701613490565b90509295509295909350565b60006020828403121561350c57600080fd5b815160ff8116811461318857600080fdfea26469706673582212208a77d5d8ab19fd38f16252ef97ba9ba5a3d4a9c7c0c33db956cbd032c6ce7a0264736f6c634300080a0033","bytecodeSha1":"cc2610b5283a3e14b7ed4c97e60a5bafa2a18c2a","compiler":{"evm_version":"istanbul","optimizer":{"enabled":true,"runs":200},"version":"0.8.10+commit.fc410830"},"contractName":"TokenFarm","language":"Solidity","natspec":{"kind":"dev","methods":{"owner()":{"details":"Returns the address of the current owner."},"renounceOwnership()":{"details":"Leaves the contract without owner. It will not be possible to call `onlyOwner` functions anymore. Can only be called by the current owner. NOTE: Renouncing ownership will leave the contract without an owner, thereby removing any functionality that is only available to the owner."},"transferOwnership(address)":{"details":"Transfers ownership of the contract to a new account (`newOwner`). Can only be called by the current owner."}},"version":1},"opcodes":"PUSH1 0x80 PUSH1 0x40 MSTORE PUSH1 0x4 CALLDATASIZE LT PUSH2 0x21A JUMPI PUSH1 0x0 CALLDATALOAD PUSH1 0xE0 SHR DUP1 PUSH4 0x7B3889E7 GT PUSH2 0x123 JUMPI DUP1 PUSH4 0xD0E30DB0 GT PUSH2 0xAB JUMPI DUP1 PUSH4 0xF1C5D6C2 GT PUSH2 0x6F JUMPI DUP1 PUSH4 0xF1C5D6C2 EQ PUSH2 0x6D0 JUMPI DUP1 PUSH4 0xF2FDE38B EQ PUSH2 0x705 JUMPI DUP1 PUSH4 0xF6702356 EQ PUSH2 0x725 JUMPI DUP1 PUSH4 0xFD5E6DD1 EQ PUSH2 0x752 JUMPI DUP1 PUSH4 0xFF186B2E EQ PUSH2 0x772 JUMPI PUSH1 0x0 DUP1 REVERT JUMPDEST DUP1 PUSH4 0xD0E30DB0 EQ PUSH2 0x641 JUMPI DUP1 PUSH4 0xD32CB0FE EQ PUSH2 0x649 JUMPI DUP1 PUSH4 0xD36DEDD2 EQ PUSH2 0x65E JUMPI DUP1 PUSH4 0xDD5B8467 EQ PUSH2 0x680 JUMPI DUP1 PUSH4 0xF14E96F1 EQ PUSH2 0x6B0 JUMPI PUSH1 0x0 DUP1 REVERT JUMPDEST DUP1 PUSH4 0x8DA5CB5B GT PUSH2 0xF2 JUMPI DUP1 PUSH4 0x8DA5CB5B EQ PUSH2 0x59F JUMPI DUP1 PUSH4 0x9435C887 EQ PUSH2 0x5BD JUMPI DUP1 PUSH4 0xAF3F5E22 EQ PUSH2 0x5D2 JUMPI DUP1 PUSH4 0xB83E0234 EQ PUSH2 0x5F2 JUMPI DUP1 PUSH4 0xBF152765 EQ PUSH2 0x61F JUMPI PUSH1 0x0 DUP1 REVERT JUMPDEST DUP1 PUSH4 0x7B3889E7 EQ PUSH2 0x510 JUMPI DUP1 PUSH4 0x7B3C4BAA EQ PUSH2 0x526 JUMPI DUP1 PUSH4 0x7E7F320D EQ PUSH2 0x56A JUMPI DUP1 PUSH4 0x877DD39D EQ PUSH2 0x57F JUMPI PUSH1 0x0 DUP1 REVERT JUMPDEST DUP1 PUSH4 0x387EADAE GT PUSH2 0x1A6 JUMPI DUP1 PUSH4 0x5EB186F8 GT PUSH2 0x175 JUMPI DUP1 PUSH4 0x5EB186F8 EQ PUSH2 0x48E JUMPI DUP1 PUSH4 0x60AB5852 EQ PUSH2 0x4AE JUMPI DUP1 PUSH4 0x67C9B017 EQ PUSH2 0x4C3 JUMPI DUP1 PUSH4 0x704BBA69 EQ PUSH2 0x4DB JUMPI DUP1 PUSH4 0x715018A6 EQ PUSH2 0x4FB JUMPI PUSH1 0x0 DUP1 REVERT JUMPDEST DUP1 PUSH4 0x387EADAE EQ PUSH2 0x3D2 JUMPI DUP1 PUSH4 0x4F0DCD39 EQ PUSH2 0x40D JUMPI DUP1 PUSH4 0x57C90DE5 EQ PUSH2 0x44E JUMPI DUP1 PUSH4 0x5E5F2E26 EQ PUSH2 0x46E JUMPI PUSH1 0x0 DUP1 REVERT JUMPDEST DUP1 PUSH4 0x1BE0819C GT PUSH2 0x1ED JUMPI DUP1 PUSH4 0x1BE0819C EQ PUSH2 0x2E3 JUMPI DUP1 PUSH4 0x276B11DA EQ PUSH2 0x30C JUMPI DUP1 PUSH4 0x27927B3E EQ PUSH2 0x32C JUMPI DUP1 PUSH4 0x29161A00 EQ PUSH2 0x37A JUMPI DUP1 PUSH4 0x2D1AD8B8 EQ PUSH2 0x3B2 JUMPI PUSH1 0x0 DUP1 REVERT JUMPDEST DUP1 PUSH4 0xBEA440D EQ PUSH2 0x21F JUMPI DUP1 PUSH4 0x14FEAA9D EQ PUSH2 0x241 JUMPI DUP1 PUSH4 0x16ED0F72 EQ PUSH2 0x2A3 JUMPI DUP1 PUSH4 0x171E44EA EQ PUSH2 0x2C3 JUMPI JUMPDEST PUSH1 0x0 DUP1 REVERT JUMPDEST CALLVALUE DUP1 ISZERO PUSH2 0x22B JUMPI PUSH1 0x0 DUP1 REVERT JUMPDEST POP PUSH2 0x23F PUSH2 0x23A CALLDATASIZE PUSH1 0x4 PUSH2 0x30B2 JUMP JUMPDEST PUSH2 0x788 JUMP JUMPDEST STOP JUMPDEST CALLVALUE DUP1 ISZERO PUSH2 0x24D JUMPI PUSH1 0x0 DUP1 REVERT JUMPDEST POP PUSH2 0x28B PUSH2 0x25C CALLDATASIZE PUSH1 0x4 PUSH2 0x30DE JUMP JUMPDEST PUSH1 0xB PUSH1 0x20 SWAP1 DUP2 MSTORE PUSH1 0x0 SWAP3 DUP4 MSTORE PUSH1 0x40 DUP1 DUP5 KECCAK256 SWAP1 SWAP2 MSTORE SWAP1 DUP3 MSTORE SWAP1 KECCAK256 DUP1 SLOAD PUSH1 0x1 DUP3 ADD SLOAD PUSH1 0x2 SWAP1 SWAP3 ADD SLOAD SWAP1 SWAP2 PUSH1 0xFF AND SWAP1 DUP4 JUMP JUMPDEST PUSH1 0x40 MLOAD PUSH2 0x29A SWAP4 SWAP3 SWAP2 SWAP1 PUSH2 0x311E JUMP JUMPDEST PUSH1 0x40 MLOAD DUP1 SWAP2 SUB SWAP1 RETURN JUMPDEST CALLVALUE DUP1 ISZERO PUSH2 0x2AF JUMPI PUSH1 0x0 DUP1 REVERT JUMPDEST POP PUSH2 0x23F PUSH2 0x2BE CALLDATASIZE PUSH1 0x4 PUSH2 0x3154 JUMP JUMPDEST PUSH1 0x7 SSTORE JUMP JUMPDEST CALLVALUE DUP1 ISZERO PUSH2 0x2CF JUMPI PUSH1 0x0 DUP1 REVERT JUMPDEST POP PUSH2 0x23F PUSH2 0x2DE CALLDATASIZE PUSH1 0x4 PUSH2 0x316D JUMP JUMPDEST PUSH2 0x95F JUMP JUMPDEST CALLVALUE DUP1 ISZERO PUSH2 0x2EF JUMPI PUSH1 0x0 DUP1 REVERT JUMPDEST POP PUSH1 0x8 SLOAD PUSH1 0x1 PUSH1 0x1 PUSH1 0xA0 SHL SUB AND BALANCE JUMPDEST PUSH1 0x40 MLOAD SWAP1 DUP2 MSTORE PUSH1 0x20 ADD PUSH2 0x29A JUMP JUMPDEST CALLVALUE DUP1 ISZERO PUSH2 0x318 JUMPI PUSH1 0x0 DUP1 REVERT JUMPDEST POP PUSH2 0x2FE PUSH2 0x327 CALLDATASIZE PUSH1 0x4 PUSH2 0x318F JUMP JUMPDEST PUSH2 0x9DB JUMP JUMPDEST CALLVALUE DUP1 ISZERO PUSH2 0x338 JUMPI PUSH1 0x0 DUP1 REVERT JUMPDEST POP PUSH2 0x362 PUSH2 0x347 CALLDATASIZE PUSH1 0x4 PUSH2 0x316D JUMP JUMPDEST PUSH1 0x3 PUSH1 0x20 MSTORE PUSH1 0x0 SWAP1 DUP2 MSTORE PUSH1 0x40 SWAP1 KECCAK256 SLOAD PUSH1 0x1 PUSH1 0x1 PUSH1 0xA0 SHL SUB AND DUP2 JUMP JUMPDEST PUSH1 0x40 MLOAD PUSH1 0x1 PUSH1 0x1 PUSH1 0xA0 SHL SUB SWAP1 SWAP2 AND DUP2 MSTORE PUSH1 0x20 ADD PUSH2 0x29A JUMP JUMPDEST CALLVALUE DUP1 ISZERO PUSH2 0x386 JUMPI PUSH1 0x0 DUP1 REVERT JUMPDEST POP PUSH2 0x2FE PUSH2 0x395 CALLDATASIZE PUSH1 0x4 PUSH2 0x318F JUMP JUMPDEST PUSH1 0x1 PUSH1 0x20 SWAP1 DUP2 MSTORE PUSH1 0x0 SWAP3 DUP4 MSTORE PUSH1 0x40 DUP1 DUP5 KECCAK256 SWAP1 SWAP2 MSTORE SWAP1 DUP3 MSTORE SWAP1 KECCAK256 SLOAD DUP2 JUMP JUMPDEST CALLVALUE DUP1 ISZERO PUSH2 0x3BE JUMPI PUSH1 0x0 DUP1 REVERT JUMPDEST POP PUSH2 0x23F PUSH2 0x3CD CALLDATASIZE PUSH1 0x4 PUSH2 0x316D JUMP JUMPDEST PUSH2 0xA62 JUMP JUMPDEST CALLVALUE DUP1 ISZERO PUSH2 0x3DE JUMPI PUSH1 0x0 DUP1 REVERT JUMPDEST POP PUSH2 0x3F2 PUSH2 0x3ED CALLDATASIZE PUSH1 0x4 PUSH2 0x3154 JUMP JUMPDEST PUSH2 0xB92 JUMP JUMPDEST PUSH1 0x40 DUP1 MLOAD SWAP4 DUP5 MSTORE PUSH1 0x20 DUP5 ADD SWAP3 SWAP1 SWAP3 MSTORE SWAP1 DUP3 ADD MSTORE PUSH1 0x60 ADD PUSH2 0x29A JUMP JUMPDEST CALLVALUE DUP1 ISZERO PUSH2 0x419 JUMPI PUSH1 0x0 DUP1 REVERT JUMPDEST POP PUSH2 0x2FE PUSH2 0x428 CALLDATASIZE PUSH1 0x4 PUSH2 0x316D JUMP JUMPDEST PUSH1 0x1 PUSH1 0x1 PUSH1 0xA0 SHL SUB AND PUSH1 0x0 SWAP1 DUP2 MSTORE PUSH1 0x1 PUSH1 0x20 SWAP1 DUP2 MSTORE PUSH1 0x40 DUP1 DUP4 KECCAK256 CALLER DUP5 MSTORE SWAP1 SWAP2 MSTORE SWAP1 KECCAK256 SLOAD SWAP1 JUMP JUMPDEST CALLVALUE DUP1 ISZERO PUSH2 0x45A JUMPI PUSH1 0x0 DUP1 REVERT JUMPDEST POP PUSH2 0x23F PUSH2 0x469 CALLDATASIZE PUSH1 0x4 PUSH2 0x31B9 JUMP JUMPDEST PUSH2 0xBC5 JUMP JUMPDEST CALLVALUE DUP1 ISZERO PUSH2 0x47A JUMPI PUSH1 0x0 DUP1 REVERT JUMPDEST POP PUSH2 0x362 PUSH2 0x489 CALLDATASIZE PUSH1 0x4 PUSH2 0x3154 JUMP JUMPDEST PUSH2 0xF52 JUMP JUMPDEST CALLVALUE DUP1 ISZERO PUSH2 0x49A JUMPI PUSH1 0x0 DUP1 REVERT JUMPDEST POP PUSH1 0x6 SLOAD PUSH2 0x362 SWAP1 PUSH1 0x1 PUSH1 0x1 PUSH1 0xA0 SHL SUB AND DUP2 JUMP JUMPDEST CALLVALUE DUP1 ISZERO PUSH2 0x4BA JUMPI PUSH1 0x0 DUP1 REVERT JUMPDEST POP PUSH2 0x23F PUSH2 0xF7C JUMP JUMPDEST CALLVALUE DUP1 ISZERO PUSH2 0x4CF JUMPI PUSH1 0x0 DUP1 REVERT JUMPDEST POP PUSH2 0x23F PUSH2 0xED7 PUSH1 0x7 SSTORE JUMP JUMPDEST CALLVALUE DUP1 ISZERO PUSH2 0x4E7 JUMPI PUSH1 0x0 DUP1 REVERT JUMPDEST POP PUSH2 0x23F PUSH2 0x4F6 CALLDATASIZE PUSH1 0x4 PUSH2 0x3154 JUMP JUMPDEST PUSH2 0x1079 JUMP JUMPDEST CALLVALUE DUP1 ISZERO PUSH2 0x507 JUMPI PUSH1 0x0 DUP1 REVERT JUMPDEST POP PUSH2 0x23F PUSH2 0x1BBB JUMP JUMPDEST CALLVALUE DUP1 ISZERO PUSH2 0x51C JUMPI PUSH1 0x0 DUP1 REVERT JUMPDEST POP PUSH2 0x2FE PUSH1 0x10 SLOAD DUP2 JUMP JUMPDEST CALLVALUE DUP1 ISZERO PUSH2 0x532 JUMPI PUSH1 0x0 DUP1 REVERT JUMPDEST POP PUSH2 0x546 PUSH2 0x541 CALLDATASIZE PUSH1 0x4 PUSH2 0x31B9 JUMP JUMPDEST PUSH2 0x1BF1 JUMP JUMPDEST PUSH1 0x40 DUP1 MLOAD SWAP4 DUP5 MSTORE PUSH1 0x20 DUP5 ADD SWAP3 SWAP1 SWAP3 MSTORE PUSH1 0x1 PUSH1 0x1 PUSH1 0xA0 SHL SUB AND SWAP1 DUP3 ADD MSTORE PUSH1 0x60 ADD PUSH2 0x29A JUMP JUMPDEST CALLVALUE DUP1 ISZERO PUSH2 0x576 JUMPI PUSH1 0x0 DUP1 REVERT JUMPDEST POP PUSH2 0x2FE PUSH2 0x1C3C JUMP JUMPDEST CALLVALUE DUP1 ISZERO PUSH2 0x58B JUMPI PUSH1 0x0 DUP1 REVERT JUMPDEST POP PUSH2 0x23F PUSH2 0x59A CALLDATASIZE PUSH1 0x4 PUSH2 0x318F JUMP JUMPDEST PUSH2 0x1C75 JUMP JUMPDEST CALLVALUE DUP1 ISZERO PUSH2 0x5AB JUMPI PUSH1 0x0 DUP1 REVERT JUMPDEST POP PUSH1 0x0 SLOAD PUSH1 0x1 PUSH1 0x1 PUSH1 0xA0 SHL SUB AND PUSH2 0x362 JUMP JUMPDEST CALLVALUE DUP1 ISZERO PUSH2 0x5C9 JUMPI PUSH1 0x0 DUP1 REVERT JUMPDEST POP PUSH2 0x23F PUSH2 0x1CCD JUMP JUMPDEST CALLVALUE DUP1 ISZERO PUSH2 0x5DE JUMPI PUSH1 0x0 DUP1 REVERT JUMPDEST POP PUSH2 0x2FE PUSH2 0x5ED CALLDATASIZE PUSH1 0x4 PUSH2 0x316D JUMP JUMPDEST PUSH2 0x2155 JUMP JUMPDEST CALLVALUE DUP1 ISZERO PUSH2 0x5FE JUMPI PUSH1 0x0 DUP1 REVERT JUMPDEST POP PUSH2 0x2FE PUSH2 0x60D CALLDATASIZE PUSH1 0x4 PUSH2 0x316D JUMP JUMPDEST PUSH1 0x2 PUSH1 0x20 MSTORE PUSH1 0x0 SWAP1 DUP2 MSTORE PUSH1 0x40 SWAP1 KECCAK256 SLOAD DUP2 JUMP JUMPDEST CALLVALUE DUP1 ISZERO PUSH2 0x62B JUMPI PUSH1 0x0 DUP1 REVERT JUMPDEST POP CALLER PUSH1 0x0 SWAP1 DUP2 MSTORE PUSH1 0x9 PUSH1 0x20 MSTORE PUSH1 0x40 SWAP1 KECCAK256 SLOAD PUSH2 0x2FE JUMP JUMPDEST PUSH2 0x23F PUSH2 0x2213 JUMP JUMPDEST CALLVALUE DUP1 ISZERO PUSH2 0x655 JUMPI PUSH1 0x0 DUP1 REVERT JUMPDEST POP PUSH2 0x23F PUSH2 0x227C JUMP JUMPDEST CALLVALUE DUP1 ISZERO PUSH2 0x66A JUMPI PUSH1 0x0 DUP1 REVERT JUMPDEST POP PUSH2 0x673 PUSH2 0x2690 JUMP JUMPDEST PUSH1 0x40 MLOAD PUSH2 0x29A SWAP2 SWAP1 PUSH2 0x31DB JUMP JUMPDEST CALLVALUE DUP1 ISZERO PUSH2 0x68C JUMPI PUSH1 0x0 DUP1 REVERT JUMPDEST POP PUSH2 0x6A0 PUSH2 0x69B CALLDATASIZE PUSH1 0x4 PUSH2 0x316D JUMP JUMPDEST PUSH2 0x270C JUMP JUMPDEST PUSH1 0x40 MLOAD SWAP1 ISZERO ISZERO DUP2 MSTORE PUSH1 0x20 ADD PUSH2 0x29A JUMP JUMPDEST CALLVALUE DUP1 ISZERO PUSH2 0x6BC JUMPI PUSH1 0x0 DUP1 REVERT JUMPDEST POP PUSH2 0x2FE PUSH2 0x6CB CALLDATASIZE PUSH1 0x4 PUSH2 0x3154 JUMP JUMPDEST PUSH2 0x2776 JUMP JUMPDEST CALLVALUE DUP1 ISZERO PUSH2 0x6DC JUMPI PUSH1 0x0 DUP1 REVERT JUMPDEST POP PUSH2 0x6F0 PUSH2 0x6EB CALLDATASIZE PUSH1 0x4 PUSH2 0x316D JUMP JUMPDEST PUSH2 0x2AB4 JUMP JUMPDEST PUSH1 0x40 DUP1 MLOAD SWAP3 DUP4 MSTORE PUSH1 0x20 DUP4 ADD SWAP2 SWAP1 SWAP2 MSTORE ADD PUSH2 0x29A JUMP JUMPDEST CALLVALUE DUP1 ISZERO PUSH2 0x711 JUMPI PUSH1 0x0 DUP1 REVERT JUMPDEST POP PUSH2 0x23F PUSH2 0x720 CALLDATASIZE PUSH1 0x4 PUSH2 0x316D JUMP JUMPDEST PUSH2 0x2BB5 JUMP JUMPDEST CALLVALUE DUP1 ISZERO PUSH2 0x731 JUMPI PUSH1 0x0 DUP1 REVERT JUMPDEST POP PUSH2 0x2FE PUSH2 0x740 CALLDATASIZE PUSH1 0x4 PUSH2 0x316D JUMP JUMPDEST PUSH1 0x9 PUSH1 0x20 MSTORE PUSH1 0x0 SWAP1 DUP2 MSTORE PUSH1 0x40 SWAP1 KECCAK256 SLOAD DUP2 JUMP JUMPDEST CALLVALUE DUP1 ISZERO PUSH2 0x75E JUMPI PUSH1 0x0 DUP1 REVERT JUMPDEST POP PUSH2 0x362 PUSH2 0x76D CALLDATASIZE PUSH1 0x4 PUSH2 0x3154 JUMP JUMPDEST PUSH2 0x2C4D JUMP JUMPDEST CALLVALUE DUP1 ISZERO PUSH2 0x77E JUMPI PUSH1 0x0 DUP1 REVERT JUMPDEST POP PUSH2 0x2FE PUSH1 0x7 SLOAD DUP2 JUMP JUMPDEST PUSH1 0x0 DUP3 GT PUSH2 0x7DD JUMPI PUSH1 0x40 MLOAD PUSH3 0x461BCD PUSH1 0xE5 SHL DUP2 MSTORE PUSH1 0x20 PUSH1 0x4 DUP3 ADD MSTORE PUSH1 0x1A PUSH1 0x24 DUP3 ADD MSTORE PUSH32 0x416D6F756E74206D757374206265206D6F7265207468616E2030000000000000 PUSH1 0x44 DUP3 ADD MSTORE PUSH1 0x64 ADD JUMPDEST PUSH1 0x40 MLOAD DUP1 SWAP2 SUB SWAP1 REVERT JUMPDEST PUSH2 0x7E6 DUP2 PUSH2 0x270C JUMP JUMPDEST PUSH2 0x832 JUMPI PUSH1 0x40 MLOAD PUSH3 0x461BCD PUSH1 0xE5 SHL DUP2 MSTORE PUSH1 0x20 PUSH1 0x4 DUP3 ADD MSTORE PUSH1 0x1D PUSH1 0x24 DUP3 ADD MSTORE PUSH32 0x546F6B656E2069732063757272656E746C79206E6F20616C6C6F776564000000 PUSH1 0x44 DUP3 ADD MSTORE PUSH1 0x64 ADD PUSH2 0x7D4 JUMP JUMPDEST PUSH1 0x40 MLOAD PUSH4 0x23B872DD PUSH1 0xE0 SHL DUP2 MSTORE CALLER PUSH1 0x4 DUP3 ADD MSTORE ADDRESS PUSH1 0x24 DUP3 ADD MSTORE PUSH1 0x44 DUP2 ADD DUP4 SWAP1 MSTORE PUSH1 0x1 PUSH1 0x1 PUSH1 0xA0 SHL SUB DUP3 AND SWAP1 PUSH4 0x23B872DD SWAP1 PUSH1 0x64 ADD PUSH1 0x20 PUSH1 0x40 MLOAD DUP1 DUP4 SUB DUP2 PUSH1 0x0 DUP8 GAS CALL ISZERO DUP1 ISZERO PUSH2 0x885 JUMPI RETURNDATASIZE PUSH1 0x0 DUP1 RETURNDATACOPY RETURNDATASIZE PUSH1 0x0 REVERT JUMPDEST POP POP POP POP PUSH1 0x40 MLOAD RETURNDATASIZE PUSH1 0x1F NOT PUSH1 0x1F DUP3 ADD AND DUP3 ADD DUP1 PUSH1 0x40 MSTORE POP DUP2 ADD SWAP1 PUSH2 0x8A9 SWAP2 SWAP1 PUSH2 0x321F JUMP JUMPDEST POP PUSH2 0x8B4 CALLER DUP3 PUSH2 0x2C5D JUMP JUMPDEST PUSH1 0x1 PUSH1 0x1 PUSH1 0xA0 SHL SUB DUP2 AND PUSH1 0x0 SWAP1 DUP2 MSTORE PUSH1 0x1 PUSH1 0x20 SWAP1 DUP2 MSTORE PUSH1 0x40 DUP1 DUP4 KECCAK256 CALLER DUP5 MSTORE SWAP1 SWAP2 MSTORE SWAP1 KECCAK256 SLOAD PUSH2 0x8E3 SWAP1 DUP4 SWAP1 PUSH2 0x3257 JUMP JUMPDEST PUSH1 0x1 PUSH1 0x1 PUSH1 0xA0 SHL SUB DUP3 AND PUSH1 0x0 SWAP1 DUP2 MSTORE PUSH1 0x1 PUSH1 0x20 DUP2 DUP2 MSTORE PUSH1 0x40 DUP1 DUP5 KECCAK256 CALLER DUP6 MSTORE DUP3 MSTORE DUP1 DUP5 KECCAK256 SWAP5 SWAP1 SWAP5 SSTORE PUSH1 0x2 SWAP1 MSTORE SWAP2 SWAP1 KECCAK256 SLOAD EQ ISZERO PUSH2 0x95B JUMPI PUSH1 0x4 DUP1 SLOAD PUSH1 0x1 DUP2 ADD DUP3 SSTORE PUSH1 0x0 SWAP2 SWAP1 SWAP2 MSTORE PUSH32 0x8A35ACFBC15FF81A39AE7D344FD709F28E8600B4AA8C65C6B64BFE7FE36BD19B ADD DUP1 SLOAD PUSH1 0x1 PUSH1 0x1 PUSH1 0xA0 SHL SUB NOT AND CALLER OR SWAP1 SSTORE JUMPDEST POP POP JUMP JUMPDEST PUSH1 0x0 SLOAD PUSH1 0x1 PUSH1 0x1 PUSH1 0xA0 SHL SUB AND CALLER EQ PUSH2 0x989 JUMPI PUSH1 0x40 MLOAD PUSH3 0x461BCD PUSH1 0xE5 SHL DUP2 MSTORE PUSH1 0x4 ADD PUSH2 0x7D4 SWAP1 PUSH2 0x326F JUMP JUMPDEST PUSH1 0x5 DUP1 SLOAD PUSH1 0x1 DUP2 ADD DUP3 SSTORE PUSH1 0x0 SWAP2 SWAP1 SWAP2 MSTORE PUSH32 0x36B6384B5ECA791C62761152D0C79BB0604C104A5FB6F4EB0703F3154BB3DB0 ADD DUP1 SLOAD PUSH1 0x1 PUSH1 0x1 PUSH1 0xA0 SHL SUB NOT AND PUSH1 0x1 PUSH1 0x1 PUSH1 0xA0 SHL SUB SWAP3 SWAP1 SWAP3 AND SWAP2 SWAP1 SWAP2 OR SWAP1 SSTORE JUMP JUMPDEST PUSH1 0x1 PUSH1 0x1 PUSH1 0xA0 SHL SUB DUP3 AND PUSH1 0x0 SWAP1 DUP2 MSTORE PUSH1 0x2 PUSH1 0x20 MSTORE PUSH1 0x40 DUP2 KECCAK256 SLOAD PUSH2 0xA00 JUMPI POP PUSH1 0x0 PUSH2 0xA5C JUMP JUMPDEST PUSH1 0x0 DUP1 PUSH2 0xA0C DUP5 PUSH2 0x2AB4 JUMP JUMPDEST SWAP1 SWAP3 POP SWAP1 POP PUSH2 0xA1C DUP2 PUSH1 0xA PUSH2 0x3388 JUMP JUMPDEST PUSH1 0x1 PUSH1 0x1 PUSH1 0xA0 SHL SUB DUP1 DUP7 AND PUSH1 0x0 SWAP1 DUP2 MSTORE PUSH1 0x1 PUSH1 0x20 SWAP1 DUP2 MSTORE PUSH1 0x40 DUP1 DUP4 KECCAK256 SWAP4 DUP11 AND DUP4 MSTORE SWAP3 SWAP1 MSTORE KECCAK256 SLOAD PUSH2 0xA4D SWAP1 DUP5 SWAP1 PUSH2 0x3394 JUMP JUMPDEST PUSH2 0xA57 SWAP2 SWAP1 PUSH2 0x33B3 JUMP JUMPDEST SWAP3 POP POP POP JUMPDEST SWAP3 SWAP2 POP POP JUMP JUMPDEST PUSH1 0x1 PUSH1 0x1 PUSH1 0xA0 SHL SUB DUP2 AND PUSH1 0x0 SWAP1 DUP2 MSTORE PUSH1 0x1 PUSH1 0x20 SWAP1 DUP2 MSTORE PUSH1 0x40 DUP1 DUP4 KECCAK256 CALLER DUP5 MSTORE SWAP1 SWAP2 MSTORE SWAP1 KECCAK256 SLOAD DUP1 PUSH2 0xAD3 JUMPI PUSH1 0x40 MLOAD PUSH3 0x461BCD PUSH1 0xE5 SHL DUP2 MSTORE PUSH1 0x20 PUSH1 0x4 DUP3 ADD MSTORE PUSH1 0x1B PUSH1 0x24 DUP3 ADD MSTORE PUSH32 0x5374616B696E672062616C616E63652063616E6E6F7420626520300000000000 PUSH1 0x44 DUP3 ADD MSTORE PUSH1 0x64 ADD PUSH2 0x7D4 JUMP JUMPDEST PUSH1 0x40 MLOAD PUSH4 0xA9059CBB PUSH1 0xE0 SHL DUP2 MSTORE CALLER PUSH1 0x4 DUP3 ADD MSTORE PUSH1 0x24 DUP2 ADD DUP3 SWAP1 MSTORE PUSH1 0x1 PUSH1 0x1 PUSH1 0xA0 SHL SUB DUP4 AND SWAP1 PUSH4 0xA9059CBB SWAP1 PUSH1 0x44 ADD PUSH1 0x20 PUSH1 0x40 MLOAD DUP1 DUP4 SUB DUP2 PUSH1 0x0 DUP8 GAS CALL ISZERO DUP1 ISZERO PUSH2 0xB20 JUMPI RETURNDATASIZE PUSH1 0x0 DUP1 RETURNDATACOPY RETURNDATASIZE PUSH1 0x0 REVERT JUMPDEST POP POP POP POP PUSH1 0x40 MLOAD RETURNDATASIZE PUSH1 0x1F NOT PUSH1 0x1F DUP3 ADD AND DUP3 ADD DUP1 PUSH1 0x40 MSTORE POP DUP2 ADD SWAP1 PUSH2 0xB44 SWAP2 SWAP1 PUSH2 0x321F JUMP JUMPDEST POP PUSH1 0x1 PUSH1 0x1 PUSH1 0xA0 SHL SUB DUP3 AND PUSH1 0x0 SWAP1 DUP2 MSTORE PUSH1 0x1 PUSH1 0x20 DUP2 DUP2 MSTORE PUSH1 0x40 DUP1 DUP5 KECCAK256 CALLER DUP6 MSTORE DUP3 MSTORE DUP1 DUP5 KECCAK256 DUP5 SWAP1 SSTORE PUSH1 0x2 SWAP1 SWAP2 MSTORE SWAP1 SWAP2 KECCAK256 SLOAD PUSH2 0xB7E SWAP2 SWAP1 PUSH2 0x33D5 JUMP JUMPDEST CALLER PUSH1 0x0 SWAP1 DUP2 MSTORE PUSH1 0x2 PUSH1 0x20 MSTORE PUSH1 0x40 SWAP1 KECCAK256 SSTORE POP POP JUMP JUMPDEST PUSH1 0xC DUP2 DUP2 SLOAD DUP2 LT PUSH2 0xBA2 JUMPI PUSH1 0x0 DUP1 REVERT JUMPDEST PUSH1 0x0 SWAP2 DUP3 MSTORE PUSH1 0x20 SWAP1 SWAP2 KECCAK256 PUSH1 0x4 SWAP1 SWAP2 MUL ADD DUP1 SLOAD PUSH1 0x1 DUP3 ADD SLOAD PUSH1 0x2 SWAP1 SWAP3 ADD SLOAD SWAP1 SWAP3 POP DUP4 JUMP JUMPDEST CALLER PUSH2 0xBD1 PUSH1 0xA TIMESTAMP PUSH2 0x33D5 JUMP JUMPDEST PUSH1 0xC PUSH1 0xD SLOAD DUP2 SLOAD DUP2 LT PUSH2 0xBE6 JUMPI PUSH2 0xBE6 PUSH2 0x33EC JUMP JUMPDEST SWAP1 PUSH1 0x0 MSTORE PUSH1 0x20 PUSH1 0x0 KECCAK256 SWAP1 PUSH1 0x4 MUL ADD PUSH1 0x1 ADD SLOAD GT PUSH2 0xC15 JUMPI PUSH1 0x40 MLOAD PUSH3 0x461BCD PUSH1 0xE5 SHL DUP2 MSTORE PUSH1 0x4 ADD PUSH2 0x7D4 SWAP1 PUSH2 0x3402 JUMP JUMPDEST PUSH1 0x2 PUSH1 0x1 PUSH1 0x1 PUSH1 0xA0 SHL SUB DUP3 AND PUSH1 0x0 SWAP1 DUP2 MSTORE PUSH1 0xB PUSH1 0x20 SWAP1 DUP2 MSTORE PUSH1 0x40 DUP1 DUP4 KECCAK256 PUSH1 0xD SLOAD DUP5 MSTORE SWAP1 SWAP2 MSTORE SWAP1 KECCAK256 PUSH1 0x1 ADD SLOAD PUSH1 0xFF AND PUSH1 0x3 DUP2 GT ISZERO PUSH2 0xC54 JUMPI PUSH2 0xC54 PUSH2 0x3108 JUMP JUMPDEST EQ ISZERO PUSH2 0xCA2 JUMPI PUSH1 0x40 MLOAD PUSH3 0x461BCD PUSH1 0xE5 SHL DUP2 MSTORE PUSH1 0x20 PUSH1 0x4 DUP3 ADD MSTORE PUSH1 0x1B PUSH1 0x24 DUP3 ADD MSTORE PUSH32 0x73656C6C6572206F66206F7074696F6E2063616E6E6F74206275790000000000 PUSH1 0x44 DUP3 ADD MSTORE PUSH1 0x64 ADD PUSH2 0x7D4 JUMP JUMPDEST PUSH1 0x64 DUP3 LT ISZERO PUSH2 0xCE4 JUMPI PUSH1 0x40 MLOAD PUSH3 0x461BCD PUSH1 0xE5 SHL DUP2 MSTORE PUSH1 0x20 PUSH1 0x4 DUP3 ADD MSTORE PUSH1 0xE PUSH1 0x24 DUP3 ADD MSTORE PUSH14 0x4D696E2073697A65203D2031303 PUSH1 0x94 SHL PUSH1 0x44 DUP3 ADD MSTORE PUSH1 0x64 ADD PUSH2 0x7D4 JUMP JUMPDEST PUSH1 0x1 PUSH1 0x1 PUSH1 0xA0 SHL SUB DUP2 AND PUSH1 0x0 SWAP1 DUP2 MSTORE PUSH1 0x9 PUSH1 0x20 MSTORE PUSH1 0x40 SWAP1 KECCAK256 SLOAD DUP3 GT ISZERO PUSH2 0xD3E JUMPI PUSH1 0x40 MLOAD PUSH3 0x461BCD PUSH1 0xE5 SHL DUP2 MSTORE PUSH1 0x20 PUSH1 0x4 DUP3 ADD MSTORE PUSH1 0xF PUSH1 0x24 DUP3 ADD MSTORE PUSH15 0xDCDEE840CADCDEEACED040C6C2E6D PUSH1 0x8B SHL PUSH1 0x44 DUP3 ADD MSTORE PUSH1 0x64 ADD PUSH2 0x7D4 JUMP JUMPDEST PUSH1 0x1 PUSH1 0x1 PUSH1 0xA0 SHL SUB DUP2 AND PUSH1 0x0 SWAP1 DUP2 MSTORE PUSH1 0xB PUSH1 0x20 SWAP1 DUP2 MSTORE PUSH1 0x40 DUP1 DUP4 KECCAK256 PUSH1 0xD DUP1 SLOAD DUP6 MSTORE SWAP3 MSTORE DUP1 DUP4 KECCAK256 PUSH1 0x1 SWAP1 DUP2 ADD DUP1 SLOAD PUSH1 0xFF NOT AND SWAP1 SWAP2 OR SWAP1 SSTORE SWAP1 SLOAD DUP3 MSTORE DUP2 KECCAK256 PUSH1 0x2 ADD DUP1 SLOAD DUP5 SWAP3 SWAP1 PUSH2 0xD8D SWAP1 DUP5 SWAP1 PUSH2 0x3257 JUMP JUMPDEST SWAP1 SWAP2 SSTORE POP POP PUSH1 0x1 PUSH1 0x1 PUSH1 0xA0 SHL SUB DUP2 AND PUSH1 0x0 SWAP1 DUP2 MSTORE PUSH1 0x9 PUSH1 0x20 MSTORE PUSH1 0x40 DUP2 KECCAK256 DUP1 SLOAD DUP5 SWAP3 SWAP1 PUSH2 0xDBA SWAP1 DUP5 SWAP1 PUSH2 0x33D5 JUMP JUMPDEST SWAP3 POP POP DUP2 SWAP1 SSTORE POP PUSH1 0x0 DUP4 PUSH1 0xC PUSH1 0xD SLOAD DUP2 SLOAD DUP2 LT PUSH2 0xDD9 JUMPI PUSH2 0xDD9 PUSH2 0x33EC JUMP JUMPDEST SWAP1 PUSH1 0x0 MSTORE PUSH1 0x20 PUSH1 0x0 KECCAK256 SWAP1 PUSH1 0x4 MUL ADD PUSH1 0x0 ADD SLOAD DUP5 PUSH2 0xDF6 SWAP2 SWAP1 PUSH2 0x3394 JUMP JUMPDEST PUSH2 0xE00 SWAP2 SWAP1 PUSH2 0x33B3 JUMP JUMPDEST SWAP1 POP DUP1 PUSH1 0xC PUSH1 0xD SLOAD DUP2 SLOAD DUP2 LT PUSH2 0xE18 JUMPI PUSH2 0xE18 PUSH2 0x33EC JUMP JUMPDEST SWAP1 PUSH1 0x0 MSTORE PUSH1 0x20 PUSH1 0x0 KECCAK256 SWAP1 PUSH1 0x4 MUL ADD PUSH1 0x2 ADD PUSH1 0x0 DUP3 DUP3 SLOAD PUSH2 0xE38 SWAP2 SWAP1 PUSH2 0x3257 JUMP JUMPDEST SWAP1 SWAP2 SSTORE POP POP PUSH1 0xD DUP1 SLOAD PUSH1 0x0 SWAP1 DUP2 MSTORE PUSH1 0xA PUSH1 0x20 SWAP1 DUP2 MSTORE PUSH1 0x40 DUP1 DUP4 KECCAK256 DUP2 MLOAD PUSH1 0x60 DUP2 ADD DUP4 MSTORE DUP10 DUP2 MSTORE DUP1 DUP5 ADD DUP8 DUP2 MSTORE PUSH1 0x1 PUSH1 0x1 PUSH1 0xA0 SHL SUB DUP10 DUP2 AND SWAP5 DUP4 ADD SWAP5 DUP6 MSTORE DUP4 SLOAD PUSH1 0x1 DUP1 DUP3 ADD DUP7 SSTORE SWAP5 DUP9 MSTORE SWAP6 SWAP1 SWAP7 KECCAK256 SWAP2 MLOAD PUSH1 0x3 SWAP1 SWAP6 MUL SWAP1 SWAP2 ADD SWAP4 DUP5 SSTORE MLOAD SWAP1 DUP4 ADD SSTORE MLOAD PUSH1 0x2 SWAP1 SWAP2 ADD DUP1 SLOAD PUSH1 0x1 PUSH1 0x1 PUSH1 0xA0 SHL SUB NOT AND SWAP2 SWAP1 SWAP3 AND OR SWAP1 SSTORE SLOAD PUSH1 0xC DUP1 SLOAD SWAP1 SWAP2 SWAP1 DUP2 LT PUSH2 0xEC5 JUMPI PUSH2 0xEC5 PUSH2 0x33EC JUMP JUMPDEST PUSH1 0x0 SWAP2 DUP3 MSTORE PUSH1 0x20 SWAP1 SWAP2 KECCAK256 PUSH1 0x3 PUSH1 0x4 SWAP1 SWAP3 MUL ADD ADD SLOAD PUSH2 0xF43 JUMPI PUSH1 0xC PUSH1 0xD SLOAD DUP2 SLOAD DUP2 LT PUSH2 0xEF2 JUMPI PUSH2 0xEF2 PUSH2 0x33EC JUMP JUMPDEST SWAP1 PUSH1 0x0 MSTORE PUSH1 0x20 PUSH1 0x0 KECCAK256 SWAP1 PUSH1 0x4 MUL ADD PUSH1 0x3 ADD PUSH1 0x1 PUSH1 0xA PUSH1 0x0 PUSH1 0xD SLOAD DUP2 MSTORE PUSH1 0x20 ADD SWAP1 DUP2 MSTORE PUSH1 0x20 ADD PUSH1 0x0 KECCAK256 DUP1 SLOAD SWAP1 POP PUSH2 0xF28 SWAP2 SWAP1 PUSH2 0x33D5 JUMP JUMPDEST DUP2 SLOAD PUSH1 0x1 DUP2 ADD DUP4 SSTORE PUSH1 0x0 SWAP3 DUP4 MSTORE PUSH1 0x20 SWAP1 SWAP3 KECCAK256 SWAP1 SWAP2 ADD SSTORE PUSH2 0xF4C JUMP JUMPDEST PUSH2 0xF4C DUP5 PUSH2 0x2CC8 JUMP JUMPDEST POP POP POP POP JUMP JUMPDEST PUSH1 0x5 DUP2 DUP2 SLOAD DUP2 LT PUSH2 0xF62 JUMPI PUSH1 0x0 DUP1 REVERT JUMPDEST PUSH1 0x0 SWAP2 DUP3 MSTORE PUSH1 0x20 SWAP1 SWAP2 KECCAK256 ADD SLOAD PUSH1 0x1 PUSH1 0x1 PUSH1 0xA0 SHL SUB AND SWAP1 POP DUP2 JUMP JUMPDEST PUSH1 0x0 SLOAD PUSH1 0x1 PUSH1 0x1 PUSH1 0xA0 SHL SUB AND CALLER EQ PUSH2 0xFA6 JUMPI PUSH1 0x40 MLOAD PUSH3 0x461BCD PUSH1 0xE5 SHL DUP2 MSTORE PUSH1 0x4 ADD PUSH2 0x7D4 SWAP1 PUSH2 0x326F JUMP JUMPDEST PUSH1 0x0 JUMPDEST PUSH1 0x4 SLOAD DUP2 LT ISZERO PUSH2 0x1076 JUMPI PUSH1 0x0 PUSH1 0x4 DUP3 DUP2 SLOAD DUP2 LT PUSH2 0xFC8 JUMPI PUSH2 0xFC8 PUSH2 0x33EC JUMP JUMPDEST PUSH1 0x0 SWAP2 DUP3 MSTORE PUSH1 0x20 DUP3 KECCAK256 ADD SLOAD PUSH1 0x1 PUSH1 0x1 PUSH1 0xA0 SHL SUB AND SWAP2 POP PUSH2 0xFE7 DUP3 PUSH2 0x2155 JUMP JUMPDEST PUSH1 0x6 SLOAD PUSH1 0x40 MLOAD PUSH4 0xA9059CBB PUSH1 0xE0 SHL DUP2 MSTORE PUSH1 0x1 PUSH1 0x1 PUSH1 0xA0 SHL SUB DUP6 DUP2 AND PUSH1 0x4 DUP4 ADD MSTORE PUSH1 0x24 DUP3 ADD DUP5 SWAP1 MSTORE SWAP3 SWAP4 POP SWAP2 AND SWAP1 PUSH4 0xA9059CBB SWAP1 PUSH1 0x44 ADD PUSH1 0x20 PUSH1 0x40 MLOAD DUP1 DUP4 SUB DUP2 PUSH1 0x0 DUP8 GAS CALL ISZERO DUP1 ISZERO PUSH2 0x103C JUMPI RETURNDATASIZE PUSH1 0x0 DUP1 RETURNDATACOPY RETURNDATASIZE PUSH1 0x0 REVERT JUMPDEST POP POP POP POP PUSH1 0x40 MLOAD RETURNDATASIZE PUSH1 0x1F NOT PUSH1 0x1F DUP3 ADD AND DUP3 ADD DUP1 PUSH1 0x40 MSTORE POP DUP2 ADD SWAP1 PUSH2 0x1060 SWAP2 SWAP1 PUSH2 0x321F JUMP JUMPDEST POP POP POP DUP1 DUP1 PUSH2 0x106E SWAP1 PUSH2 0x3448 JUMP JUMPDEST SWAP2 POP POP PUSH2 0xFA9 JUMP JUMPDEST POP JUMP JUMPDEST PUSH1 0x0 CALLER SWAP1 POP PUSH1 0x0 PUSH1 0xC PUSH1 0xD SLOAD DUP2 SLOAD DUP2 LT PUSH2 0x1095 JUMPI PUSH2 0x1095 PUSH2 0x33EC JUMP JUMPDEST SWAP1 PUSH1 0x0 MSTORE PUSH1 0x20 PUSH1 0x0 KECCAK256 SWAP1 PUSH1 0x4 MUL ADD PUSH1 0x3 ADD DUP1 SLOAD SWAP1 POP GT PUSH2 0x10F7 JUMPI PUSH1 0x40 MLOAD PUSH3 0x461BCD PUSH1 0xE5 SHL DUP2 MSTORE PUSH1 0x20 PUSH1 0x4 DUP3 ADD MSTORE PUSH1 0x1E PUSH1 0x24 DUP3 ADD MSTORE PUSH32 0x63616E6E6F742073656C6C206966207468657265206973206E6F206269640000 PUSH1 0x44 DUP3 ADD MSTORE PUSH1 0x64 ADD PUSH2 0x7D4 JUMP JUMPDEST PUSH2 0x1102 PUSH1 0xA TIMESTAMP PUSH2 0x33D5 JUMP JUMPDEST PUSH1 0xC PUSH1 0xD SLOAD DUP2 SLOAD DUP2 LT PUSH2 0x1117 JUMPI PUSH2 0x1117 PUSH2 0x33EC JUMP JUMPDEST SWAP1 PUSH1 0x0 MSTORE PUSH1 0x20 PUSH1 0x0 KECCAK256 SWAP1 PUSH1 0x4 MUL ADD PUSH1 0x1 ADD SLOAD GT PUSH2 0x1146 JUMPI PUSH1 0x40 MLOAD PUSH3 0x461BCD PUSH1 0xE5 SHL DUP2 MSTORE PUSH1 0x4 ADD PUSH2 0x7D4 SWAP1 PUSH2 0x3402 JUMP JUMPDEST PUSH1 0x1 PUSH1 0x1 PUSH1 0x1 PUSH1 0xA0 SHL SUB DUP3 AND PUSH1 0x0 SWAP1 DUP2 MSTORE PUSH1 0xB PUSH1 0x20 SWAP1 DUP2 MSTORE PUSH1 0x40 DUP1 DUP4 KECCAK256 PUSH1 0xD SLOAD DUP5 MSTORE SWAP1 SWAP2 MSTORE SWAP1 KECCAK256 PUSH1 0x1 ADD SLOAD PUSH1 0xFF AND PUSH1 0x3 DUP2 GT ISZERO PUSH2 0x1185 JUMPI PUSH2 0x1185 PUSH2 0x3108 JUMP JUMPDEST EQ ISZERO PUSH2 0x11D3 JUMPI PUSH1 0x40 MLOAD PUSH3 0x461BCD PUSH1 0xE5 SHL DUP2 MSTORE PUSH1 0x20 PUSH1 0x4 DUP3 ADD MSTORE PUSH1 0x1B PUSH1 0x24 DUP3 ADD MSTORE PUSH32 0x6275796572206F66206F7074696F6E2063616E6E6F742073656C6C0000000000 PUSH1 0x44 DUP3 ADD MSTORE PUSH1 0x64 ADD PUSH2 0x7D4 JUMP JUMPDEST PUSH2 0x3E8 DUP3 LT ISZERO PUSH2 0x1217 JUMPI PUSH1 0x40 MLOAD PUSH3 0x461BCD PUSH1 0xE5 SHL DUP2 MSTORE PUSH1 0x20 PUSH1 0x4 DUP3 ADD MSTORE PUSH1 0xF PUSH1 0x24 DUP3 ADD MSTORE PUSH15 0x4D696E2073697A65203D203130303 PUSH1 0x8C SHL PUSH1 0x44 DUP3 ADD MSTORE PUSH1 0x64 ADD PUSH2 0x7D4 JUMP JUMPDEST PUSH1 0xC PUSH1 0xD SLOAD DUP2 SLOAD DUP2 LT PUSH2 0x122C JUMPI PUSH2 0x122C PUSH2 0x33EC JUMP JUMPDEST SWAP1 PUSH1 0x0 MSTORE PUSH1 0x20 PUSH1 0x0 KECCAK256 SWAP1 PUSH1 0x4 MUL ADD PUSH1 0x2 ADD SLOAD DUP3 GT ISZERO PUSH2 0x127A JUMPI PUSH1 0x40 MLOAD PUSH3 0x461BCD PUSH1 0xE5 SHL DUP2 MSTORE PUSH1 0x20 PUSH1 0x4 DUP3 ADD MSTORE PUSH1 0xA PUSH1 0x24 DUP3 ADD MSTORE PUSH10 0x6C6F7720737570706C79 PUSH1 0xB0 SHL PUSH1 0x44 DUP3 ADD MSTORE PUSH1 0x64 ADD PUSH2 0x7D4 JUMP JUMPDEST PUSH1 0x1 PUSH1 0x1 PUSH1 0xA0 SHL SUB DUP2 AND PUSH1 0x0 SWAP1 DUP2 MSTORE PUSH1 0x9 PUSH1 0x20 MSTORE PUSH1 0x40 SWAP1 KECCAK256 SLOAD DUP3 GT ISZERO PUSH2 0x12D4 JUMPI PUSH1 0x40 MLOAD PUSH3 0x461BCD PUSH1 0xE5 SHL DUP2 MSTORE PUSH1 0x20 PUSH1 0x4 DUP3 ADD MSTORE PUSH1 0xF PUSH1 0x24 DUP3 ADD MSTORE PUSH15 0xDCDEE840CADCDEEACED040C6C2E6D PUSH1 0x8B SHL PUSH1 0x44 DUP3 ADD MSTORE PUSH1 0x64 ADD PUSH2 0x7D4 JUMP JUMPDEST PUSH1 0x1 PUSH1 0x1 PUSH1 0xA0 SHL SUB DUP2 AND PUSH1 0x0 SWAP1 DUP2 MSTORE PUSH1 0x9 PUSH1 0x20 MSTORE PUSH1 0x40 DUP2 KECCAK256 DUP1 SLOAD DUP5 SWAP3 SWAP1 PUSH2 0x12FC SWAP1 DUP5 SWAP1 PUSH2 0x33D5 JUMP JUMPDEST SWAP3 POP POP DUP2 SWAP1 SSTORE POP PUSH1 0x0 DUP3 SWAP1 POP PUSH1 0x0 DUP1 DUP1 PUSH1 0x1 PUSH1 0xC PUSH1 0xD SLOAD DUP2 SLOAD DUP2 LT PUSH2 0x1323 JUMPI PUSH2 0x1323 PUSH2 0x33EC JUMP JUMPDEST SWAP1 PUSH1 0x0 MSTORE PUSH1 0x20 PUSH1 0x0 KECCAK256 SWAP1 PUSH1 0x4 MUL ADD PUSH1 0x3 ADD DUP1 SLOAD SWAP1 POP PUSH2 0x1342 SWAP2 SWAP1 PUSH2 0x33D5 JUMP JUMPDEST SWAP1 POP JUMPDEST DUP4 ISZERO PUSH2 0x1B19 JUMPI PUSH1 0xD SLOAD PUSH1 0x0 DUP2 DUP2 MSTORE PUSH1 0xA PUSH1 0x20 MSTORE PUSH1 0x40 SWAP1 KECCAK256 PUSH1 0xC DUP1 SLOAD SWAP2 SWAP3 SWAP1 SWAP2 DUP2 LT PUSH2 0x1372 JUMPI PUSH2 0x1372 PUSH2 0x33EC JUMP JUMPDEST SWAP1 PUSH1 0x0 MSTORE PUSH1 0x20 PUSH1 0x0 KECCAK256 SWAP1 PUSH1 0x4 MUL ADD PUSH1 0x3 ADD DUP3 DUP2 SLOAD DUP2 LT PUSH2 0x1394 JUMPI PUSH2 0x1394 PUSH2 0x33EC JUMP JUMPDEST SWAP1 PUSH1 0x0 MSTORE PUSH1 0x20 PUSH1 0x0 KECCAK256 ADD SLOAD DUP2 SLOAD DUP2 LT PUSH2 0x13AF JUMPI PUSH2 0x13AF PUSH2 0x33EC JUMP JUMPDEST SWAP1 PUSH1 0x0 MSTORE PUSH1 0x20 PUSH1 0x0 KECCAK256 SWAP1 PUSH1 0x3 MUL ADD PUSH1 0x1 ADD SLOAD SWAP2 POP DUP2 DUP5 LT PUSH2 0x178F JUMPI PUSH1 0xD SLOAD PUSH1 0x0 DUP2 DUP2 MSTORE PUSH1 0xA PUSH1 0x20 MSTORE PUSH1 0x40 DUP2 KECCAK256 PUSH1 0xC DUP1 SLOAD DUP7 SWAP5 PUSH1 0xB SWAP5 SWAP4 SWAP3 SWAP2 DUP2 LT PUSH2 0x13F5 JUMPI PUSH2 0x13F5 PUSH2 0x33EC JUMP JUMPDEST SWAP1 PUSH1 0x0 MSTORE PUSH1 0x20 PUSH1 0x0 KECCAK256 SWAP1 PUSH1 0x4 MUL ADD PUSH1 0x3 ADD DUP6 DUP2 SLOAD DUP2 LT PUSH2 0x1417 JUMPI PUSH2 0x1417 PUSH2 0x33EC JUMP JUMPDEST SWAP1 PUSH1 0x0 MSTORE PUSH1 0x20 PUSH1 0x0 KECCAK256 ADD SLOAD DUP2 SLOAD DUP2 LT PUSH2 0x1432 JUMPI PUSH2 0x1432 PUSH2 0x33EC JUMP JUMPDEST PUSH1 0x0 SWAP2 DUP3 MSTORE PUSH1 0x20 DUP1 DUP4 KECCAK256 PUSH1 0x2 PUSH1 0x3 SWAP1 SWAP4 MUL ADD SWAP2 SWAP1 SWAP2 ADD SLOAD PUSH1 0x1 PUSH1 0x1 PUSH1 0xA0 SHL SUB AND DUP4 MSTORE DUP3 DUP2 ADD SWAP4 SWAP1 SWAP4 MSTORE PUSH1 0x40 SWAP2 DUP3 ADD DUP2 KECCAK256 PUSH1 0xD SLOAD DUP3 MSTORE SWAP1 SWAP3 MSTORE DUP2 KECCAK256 DUP1 SLOAD SWAP1 SWAP2 SWAP1 PUSH2 0x147C SWAP1 DUP5 SWAP1 PUSH2 0x3257 JUMP JUMPDEST SWAP3 POP POP DUP2 SWAP1 SSTORE POP PUSH1 0xC PUSH1 0xD SLOAD DUP2 SLOAD DUP2 LT PUSH2 0x1498 JUMPI PUSH2 0x1498 PUSH2 0x33EC JUMP JUMPDEST SWAP1 PUSH1 0x0 MSTORE PUSH1 0x20 PUSH1 0x0 KECCAK256 SWAP1 PUSH1 0x4 MUL ADD PUSH1 0x0 ADD SLOAD PUSH1 0xA PUSH1 0x0 PUSH1 0xD SLOAD DUP2 MSTORE PUSH1 0x20 ADD SWAP1 DUP2 MSTORE PUSH1 0x20 ADD PUSH1 0x0 KECCAK256 PUSH1 0xC PUSH1 0xD SLOAD DUP2 SLOAD DUP2 LT PUSH2 0x14D4 JUMPI PUSH2 0x14D4 PUSH2 0x33EC JUMP JUMPDEST SWAP1 PUSH1 0x0 MSTORE PUSH1 0x20 PUSH1 0x0 KECCAK256 SWAP1 PUSH1 0x4 MUL ADD PUSH1 0x3 ADD DUP4 DUP2 SLOAD DUP2 LT PUSH2 0x14F6 JUMPI PUSH2 0x14F6 PUSH2 0x33EC JUMP JUMPDEST SWAP1 PUSH1 0x0 MSTORE PUSH1 0x20 PUSH1 0x0 KECCAK256 ADD SLOAD DUP2 SLOAD DUP2 LT PUSH2 0x1511 JUMPI PUSH2 0x1511 PUSH2 0x33EC JUMP JUMPDEST SWAP1 PUSH1 0x0 MSTORE PUSH1 0x20 PUSH1 0x0 KECCAK256 SWAP1 PUSH1 0x3 MUL ADD PUSH1 0x0 ADD SLOAD DUP4 PUSH2 0x152E SWAP2 SWAP1 PUSH2 0x3394 JUMP JUMPDEST PUSH2 0x1538 SWAP2 SWAP1 PUSH2 0x33B3 JUMP JUMPDEST PUSH1 0xD SLOAD PUSH1 0x0 DUP2 DUP2 MSTORE PUSH1 0xA PUSH1 0x20 MSTORE PUSH1 0x40 DUP2 KECCAK256 PUSH1 0xC DUP1 SLOAD PUSH1 0xB SWAP5 SWAP1 DUP2 LT PUSH2 0x155F JUMPI PUSH2 0x155F PUSH2 0x33EC JUMP JUMPDEST SWAP1 PUSH1 0x0 MSTORE PUSH1 0x20 PUSH1 0x0 KECCAK256 SWAP1 PUSH1 0x4 MUL ADD PUSH1 0x3 ADD DUP6 DUP2 SLOAD DUP2 LT PUSH2 0x1581 JUMPI PUSH2 0x1581 PUSH2 0x33EC JUMP JUMPDEST SWAP1 PUSH1 0x0 MSTORE PUSH1 0x20 PUSH1 0x0 KECCAK256 ADD SLOAD DUP2 SLOAD DUP2 LT PUSH2 0x159C JUMPI PUSH2 0x159C PUSH2 0x33EC JUMP JUMPDEST PUSH1 0x0 SWAP2 DUP3 MSTORE PUSH1 0x20 DUP1 DUP4 KECCAK256 PUSH1 0x2 PUSH1 0x3 SWAP1 SWAP4 MUL ADD DUP3 ADD SLOAD PUSH1 0x1 PUSH1 0x1 PUSH1 0xA0 SHL SUB AND DUP5 MSTORE DUP4 DUP2 ADD SWAP5 SWAP1 SWAP5 MSTORE PUSH1 0x40 SWAP3 DUP4 ADD DUP3 KECCAK256 PUSH1 0xD SLOAD DUP4 MSTORE SWAP1 SWAP4 MSTORE SWAP1 DUP2 KECCAK256 SWAP1 SWAP2 ADD DUP1 SLOAD SWAP1 SWAP2 SWAP1 PUSH2 0x15E8 SWAP1 DUP5 SWAP1 PUSH2 0x33D5 JUMP JUMPDEST SWAP1 SWAP2 SSTORE POP POP PUSH1 0xD SLOAD PUSH1 0x0 DUP2 DUP2 MSTORE PUSH1 0xA PUSH1 0x20 MSTORE PUSH1 0x40 SWAP1 KECCAK256 PUSH1 0xC DUP1 SLOAD SWAP2 SWAP3 SWAP1 SWAP2 DUP2 LT PUSH2 0x1614 JUMPI PUSH2 0x1614 PUSH2 0x33EC JUMP JUMPDEST SWAP1 PUSH1 0x0 MSTORE PUSH1 0x20 PUSH1 0x0 KECCAK256 SWAP1 PUSH1 0x4 MUL ADD PUSH1 0x3 ADD DUP3 DUP2 SLOAD DUP2 LT PUSH2 0x1636 JUMPI PUSH2 0x1636 PUSH2 0x33EC JUMP JUMPDEST SWAP1 PUSH1 0x0 MSTORE PUSH1 0x20 PUSH1 0x0 KECCAK256 ADD SLOAD DUP2 SLOAD DUP2 LT PUSH2 0x1651 JUMPI PUSH2 0x1651 PUSH2 0x33EC JUMP JUMPDEST SWAP1 PUSH1 0x0 MSTORE PUSH1 0x20 PUSH1 0x0 KECCAK256 SWAP1 PUSH1 0x3 MUL ADD PUSH1 0x0 ADD SLOAD DUP3 PUSH2 0x166E SWAP2 SWAP1 PUSH2 0x3394 JUMP JUMPDEST PUSH2 0x1678 SWAP1 DUP5 PUSH2 0x3257 JUMP JUMPDEST SWAP3 POP DUP2 PUSH1 0xC PUSH1 0xD SLOAD DUP2 SLOAD DUP2 LT PUSH2 0x1690 JUMPI PUSH2 0x1690 PUSH2 0x33EC JUMP JUMPDEST SWAP1 PUSH1 0x0 MSTORE PUSH1 0x20 PUSH1 0x0 KECCAK256 SWAP1 PUSH1 0x4 MUL ADD PUSH1 0x2 ADD PUSH1 0x0 DUP3 DUP3 SLOAD PUSH2 0x16B0 SWAP2 SWAP1 PUSH2 0x33D5 JUMP JUMPDEST SWAP1 SWAP2 SSTORE POP POP PUSH1 0xD SLOAD PUSH1 0x0 DUP2 DUP2 MSTORE PUSH1 0xA PUSH1 0x20 MSTORE PUSH1 0x40 DUP2 KECCAK256 PUSH1 0xC DUP1 SLOAD SWAP3 SWAP4 SWAP2 SWAP3 SWAP1 SWAP2 SWAP1 DUP2 LT PUSH2 0x16DF JUMPI PUSH2 0x16DF PUSH2 0x33EC JUMP JUMPDEST SWAP1 PUSH1 0x0 MSTORE PUSH1 0x20 PUSH1 0x0 KECCAK256 SWAP1 PUSH1 0x4 MUL ADD PUSH1 0x3 ADD DUP4 DUP2 SLOAD DUP2 LT PUSH2 0x1701 JUMPI PUSH2 0x1701 PUSH2 0x33EC JUMP JUMPDEST SWAP1 PUSH1 0x0 MSTORE PUSH1 0x20 PUSH1 0x0 KECCAK256 ADD SLOAD DUP2 SLOAD DUP2 LT PUSH2 0x171C JUMPI PUSH2 0x171C PUSH2 0x33EC JUMP JUMPDEST SWAP1 PUSH1 0x0 MSTORE PUSH1 0x20 PUSH1 0x0 KECCAK256 SWAP1 PUSH1 0x3 MUL ADD PUSH1 0x1 ADD DUP2 SWAP1 SSTORE POP PUSH1 0xC PUSH1 0xD SLOAD DUP2 SLOAD DUP2 LT PUSH2 0x1746 JUMPI PUSH2 0x1746 PUSH2 0x33EC JUMP JUMPDEST SWAP1 PUSH1 0x0 MSTORE PUSH1 0x20 PUSH1 0x0 KECCAK256 SWAP1 PUSH1 0x4 MUL ADD PUSH1 0x3 ADD DUP1 SLOAD DUP1 PUSH2 0x1766 JUMPI PUSH2 0x1766 PUSH2 0x3463 JUMP JUMPDEST PUSH1 0x1 SWAP1 SUB DUP2 DUP2 SWAP1 PUSH1 0x0 MSTORE PUSH1 0x20 PUSH1 0x0 KECCAK256 ADD PUSH1 0x0 SWAP1 SSTORE SWAP1 SSTORE DUP2 DUP5 PUSH2 0x1788 SWAP2 SWAP1 PUSH2 0x33D5 JUMP JUMPDEST SWAP4 POP PUSH2 0x1B07 JUMP JUMPDEST PUSH1 0xD SLOAD PUSH1 0x0 DUP2 DUP2 MSTORE PUSH1 0xA PUSH1 0x20 MSTORE PUSH1 0x40 DUP2 KECCAK256 PUSH1 0xC DUP1 SLOAD DUP9 SWAP5 PUSH1 0xB SWAP5 SWAP4 SWAP3 SWAP2 DUP2 LT PUSH2 0x17BA JUMPI PUSH2 0x17BA PUSH2 0x33EC JUMP JUMPDEST SWAP1 PUSH1 0x0 MSTORE PUSH1 0x20 PUSH1 0x0 KECCAK256 SWAP1 PUSH1 0x4 MUL ADD PUSH1 0x3 ADD DUP6 DUP2 SLOAD DUP2 LT PUSH2 0x17DC JUMPI PUSH2 0x17DC PUSH2 0x33EC JUMP JUMPDEST SWAP1 PUSH1 0x0 MSTORE PUSH1 0x20 PUSH1 0x0 KECCAK256 ADD SLOAD DUP2 SLOAD DUP2 LT PUSH2 0x17F7 JUMPI PUSH2 0x17F7 PUSH2 0x33EC JUMP JUMPDEST PUSH1 0x0 SWAP2 DUP3 MSTORE PUSH1 0x20 DUP1 DUP4 KECCAK256 PUSH1 0x2 PUSH1 0x3 SWAP1 SWAP4 MUL ADD SWAP2 SWAP1 SWAP2 ADD SLOAD PUSH1 0x1 PUSH1 0x1 PUSH1 0xA0 SHL SUB AND DUP4 MSTORE DUP3 DUP2 ADD SWAP4 SWAP1 SWAP4 MSTORE PUSH1 0x40 SWAP2 DUP3 ADD DUP2 KECCAK256 PUSH1 0xD SLOAD DUP3 MSTORE SWAP1 SWAP3 MSTORE DUP2 KECCAK256 DUP1 SLOAD SWAP1 SWAP2 SWAP1 PUSH2 0x1841 SWAP1 DUP5 SWAP1 PUSH2 0x3257 JUMP JUMPDEST SWAP3 POP POP DUP2 SWAP1 SSTORE POP PUSH1 0xC PUSH1 0xD SLOAD DUP2 SLOAD DUP2 LT PUSH2 0x185D JUMPI PUSH2 0x185D PUSH2 0x33EC JUMP JUMPDEST SWAP1 PUSH1 0x0 MSTORE PUSH1 0x20 PUSH1 0x0 KECCAK256 SWAP1 PUSH1 0x4 MUL ADD PUSH1 0x0 ADD SLOAD PUSH1 0xA PUSH1 0x0 PUSH1 0xD SLOAD DUP2 MSTORE PUSH1 0x20 ADD SWAP1 DUP2 MSTORE PUSH1 0x20 ADD PUSH1 0x0 KECCAK256 PUSH1 0xC PUSH1 0xD SLOAD DUP2 SLOAD DUP2 LT PUSH2 0x1899 JUMPI PUSH2 0x1899 PUSH2 0x33EC JUMP JUMPDEST SWAP1 PUSH1 0x0 MSTORE PUSH1 0x20 PUSH1 0x0 KECCAK256 SWAP1 PUSH1 0x4 MUL ADD PUSH1 0x3 ADD DUP4 DUP2 SLOAD DUP2 LT PUSH2 0x18BB JUMPI PUSH2 0x18BB PUSH2 0x33EC JUMP JUMPDEST SWAP1 PUSH1 0x0 MSTORE PUSH1 0x20 PUSH1 0x0 KECCAK256 ADD SLOAD DUP2 SLOAD DUP2 LT PUSH2 0x18D6 JUMPI PUSH2 0x18D6 PUSH2 0x33EC JUMP JUMPDEST SWAP1 PUSH1 0x0 MSTORE PUSH1 0x20 PUSH1 0x0 KECCAK256 SWAP1 PUSH1 0x3 MUL ADD PUSH1 0x0 ADD SLOAD DUP6 PUSH2 0x18F3 SWAP2 SWAP1 PUSH2 0x3394 JUMP JUMPDEST PUSH2 0x18FD SWAP2 SWAP1 PUSH2 0x33B3 JUMP JUMPDEST PUSH1 0xD SLOAD PUSH1 0x0 DUP2 DUP2 MSTORE PUSH1 0xA PUSH1 0x20 MSTORE PUSH1 0x40 DUP2 KECCAK256 PUSH1 0xC DUP1 SLOAD PUSH1 0xB SWAP5 SWAP1 DUP2 LT PUSH2 0x1924 JUMPI PUSH2 0x1924 PUSH2 0x33EC JUMP JUMPDEST SWAP1 PUSH1 0x0 MSTORE PUSH1 0x20 PUSH1 0x0 KECCAK256 SWAP1 PUSH1 0x4 MUL ADD PUSH1 0x3 ADD DUP6 DUP2 SLOAD DUP2 LT PUSH2 0x1946 JUMPI PUSH2 0x1946 PUSH2 0x33EC JUMP JUMPDEST SWAP1 PUSH1 0x0 MSTORE PUSH1 0x20 PUSH1 0x0 KECCAK256 ADD SLOAD DUP2 SLOAD DUP2 LT PUSH2 0x1961 JUMPI PUSH2 0x1961 PUSH2 0x33EC JUMP JUMPDEST PUSH1 0x0 SWAP2 DUP3 MSTORE PUSH1 0x20 DUP1 DUP4 KECCAK256 PUSH1 0x2 PUSH1 0x3 SWAP1 SWAP4 MUL ADD DUP3 ADD SLOAD PUSH1 0x1 PUSH1 0x1 PUSH1 0xA0 SHL SUB AND DUP5 MSTORE DUP4 DUP2 ADD SWAP5 SWAP1 SWAP5 MSTORE PUSH1 0x40 SWAP3 DUP4 ADD DUP3 KECCAK256 PUSH1 0xD SLOAD DUP4 MSTORE SWAP1 SWAP4 MSTORE SWAP1 DUP2 KECCAK256 SWAP1 SWAP2 ADD DUP1 SLOAD SWAP1 SWAP2 SWAP1 PUSH2 0x19AD SWAP1 DUP5 SWAP1 PUSH2 0x33D5 JUMP JUMPDEST SWAP1 SWAP2 SSTORE POP POP PUSH1 0xD SLOAD PUSH1 0x0 DUP2 DUP2 MSTORE PUSH1 0xA PUSH1 0x20 MSTORE PUSH1 0x40 SWAP1 KECCAK256 PUSH1 0xC DUP1 SLOAD SWAP2 SWAP3 SWAP1 SWAP2 DUP2 LT PUSH2 0x19D9 JUMPI PUSH2 0x19D9 PUSH2 0x33EC JUMP JUMPDEST SWAP1 PUSH1 0x0 MSTORE PUSH1 0x20 PUSH1 0x0 KECCAK256 SWAP1 PUSH1 0x4 MUL ADD PUSH1 0x3 ADD DUP3 DUP2 SLOAD DUP2 LT PUSH2 0x19FB JUMPI PUSH2 0x19FB PUSH2 0x33EC JUMP JUMPDEST SWAP1 PUSH1 0x0 MSTORE PUSH1 0x20 PUSH1 0x0 KECCAK256 ADD SLOAD DUP2 SLOAD DUP2 LT PUSH2 0x1A16 JUMPI PUSH2 0x1A16 PUSH2 0x33EC JUMP JUMPDEST SWAP1 PUSH1 0x0 MSTORE PUSH1 0x20 PUSH1 0x0 KECCAK256 SWAP1 PUSH1 0x3 MUL ADD PUSH1 0x0 ADD SLOAD DUP5 PUSH2 0x1A33 SWAP2 SWAP1 PUSH2 0x3394 JUMP JUMPDEST PUSH2 0x1A3D SWAP1 DUP5 PUSH2 0x3257 JUMP JUMPDEST SWAP3 POP DUP4 PUSH1 0xC PUSH1 0xD SLOAD DUP2 SLOAD DUP2 LT PUSH2 0x1A55 JUMPI PUSH2 0x1A55 PUSH2 0x33EC JUMP JUMPDEST SWAP1 PUSH1 0x0 MSTORE PUSH1 0x20 PUSH1 0x0 KECCAK256 SWAP1 PUSH1 0x4 MUL ADD PUSH1 0x2 ADD PUSH1 0x0 DUP3 DUP3 SLOAD PUSH2 0x1A75 SWAP2 SWAP1 PUSH2 0x33D5 JUMP JUMPDEST SWAP1 SWAP2 SSTORE POP POP PUSH1 0xD SLOAD PUSH1 0x0 DUP2 DUP2 MSTORE PUSH1 0xA PUSH1 0x20 MSTORE PUSH1 0x40 SWAP1 KECCAK256 PUSH1 0xC DUP1 SLOAD DUP8 SWAP4 SWAP1 DUP2 LT PUSH2 0x1AA0 JUMPI PUSH2 0x1AA0 PUSH2 0x33EC JUMP JUMPDEST SWAP1 PUSH1 0x0 MSTORE PUSH1 0x20 PUSH1 0x0 KECCAK256 SWAP1 PUSH1 0x4 MUL ADD PUSH1 0x3 ADD DUP4 DUP2 SLOAD DUP2 LT PUSH2 0x1AC2 JUMPI PUSH2 0x1AC2 PUSH2 0x33EC JUMP JUMPDEST SWAP1 PUSH1 0x0 MSTORE PUSH1 0x20 PUSH1 0x0 KECCAK256 ADD SLOAD DUP2 SLOAD DUP2 LT PUSH2 0x1ADD JUMPI PUSH2 0x1ADD PUSH2 0x33EC JUMP JUMPDEST SWAP1 PUSH1 0x0 MSTORE PUSH1 0x20 PUSH1 0x0 KECCAK256 SWAP1 PUSH1 0x3 MUL ADD PUSH1 0x1 ADD PUSH1 0x0 DUP3 DUP3 SLOAD PUSH2 0x1AFD SWAP2 SWAP1 PUSH2 0x33D5 JUMP JUMPDEST SWAP1 SWAP2 SSTORE POP PUSH1 0x0 SWAP5 POP POP JUMPDEST DUP1 PUSH2 0x1B11 DUP2 PUSH2 0x3479 JUMP JUMPDEST SWAP2 POP POP PUSH2 0x1345 JUMP JUMPDEST PUSH2 0x1B24 PUSH2 0xED7 PUSH1 0x7 SSTORE JUMP JUMPDEST PUSH1 0x7 SLOAD PUSH2 0x1B31 DUP2 DUP9 PUSH2 0x3394 JUMP JUMPDEST PUSH2 0x1B3B SWAP1 DUP6 PUSH2 0x3257 JUMP JUMPDEST PUSH2 0x1B45 SWAP2 SWAP1 PUSH2 0x33B3 JUMP JUMPDEST PUSH1 0x1 PUSH1 0x1 PUSH1 0xA0 SHL SUB DUP7 AND PUSH1 0x0 SWAP1 DUP2 MSTORE PUSH1 0xB PUSH1 0x20 SWAP1 DUP2 MSTORE PUSH1 0x40 DUP1 DUP4 KECCAK256 PUSH1 0xD SLOAD DUP5 MSTORE SWAP1 SWAP2 MSTORE DUP2 KECCAK256 DUP1 SLOAD SWAP1 SWAP2 SWAP1 PUSH2 0x1B7A SWAP1 DUP5 SWAP1 PUSH2 0x3257 JUMP JUMPDEST SWAP1 SWAP2 SSTORE POP POP POP POP PUSH1 0x1 PUSH1 0x1 PUSH1 0xA0 SHL SUB SWAP3 SWAP1 SWAP3 AND PUSH1 0x0 SWAP1 DUP2 MSTORE PUSH1 0xB PUSH1 0x20 SWAP1 DUP2 MSTORE PUSH1 0x40 DUP1 DUP4 KECCAK256 PUSH1 0xD SLOAD DUP5 MSTORE SWAP1 SWAP2 MSTORE SWAP1 KECCAK256 PUSH1 0x1 ADD DUP1 SLOAD PUSH1 0xFF NOT AND PUSH1 0x2 OR SWAP1 SSTORE POP POP POP JUMP JUMPDEST PUSH1 0x0 SLOAD PUSH1 0x1 PUSH1 0x1 PUSH1 0xA0 SHL SUB AND CALLER EQ PUSH2 0x1BE5 JUMPI PUSH1 0x40 MLOAD PUSH3 0x461BCD PUSH1 0xE5 SHL DUP2 MSTORE PUSH1 0x4 ADD PUSH2 0x7D4 SWAP1 PUSH2 0x326F JUMP JUMPDEST PUSH2 0x1BEF PUSH1 0x0 PUSH2 0x3046 JUMP JUMPDEST JUMP JUMPDEST PUSH1 0xA PUSH1 0x20 MSTORE DUP2 PUSH1 0x0 MSTORE PUSH1 0x40 PUSH1 0x0 KECCAK256 DUP2 DUP2 SLOAD DUP2 LT PUSH2 0x1C0D JUMPI PUSH1 0x0 DUP1 REVERT JUMPDEST PUSH1 0x0 SWAP2 DUP3 MSTORE PUSH1 0x20 SWAP1 SWAP2 KECCAK256 PUSH1 0x3 SWAP1 SWAP2 MUL ADD DUP1 SLOAD PUSH1 0x1 DUP3 ADD SLOAD PUSH1 0x2 SWAP1 SWAP3 ADD SLOAD SWAP1 SWAP4 POP SWAP1 SWAP2 POP PUSH1 0x1 PUSH1 0x1 PUSH1 0xA0 SHL SUB AND DUP4 JUMP JUMPDEST PUSH1 0x0 TIMESTAMP PUSH1 0xC PUSH1 0xD SLOAD DUP2 SLOAD DUP2 LT PUSH2 0x1C54 JUMPI PUSH2 0x1C54 PUSH2 0x33EC JUMP JUMPDEST SWAP1 PUSH1 0x0 MSTORE PUSH1 0x20 PUSH1 0x0 KECCAK256 SWAP1 PUSH1 0x4 MUL ADD PUSH1 0x1 ADD SLOAD PUSH2 0x1C70 SWAP2 SWAP1 PUSH2 0x33D5 JUMP JUMPDEST SWAP1 POP SWAP1 JUMP JUMPDEST PUSH1 0x0 SLOAD PUSH1 0x1 PUSH1 0x1 PUSH1 0xA0 SHL SUB AND CALLER EQ PUSH2 0x1C9F JUMPI PUSH1 0x40 MLOAD PUSH3 0x461BCD PUSH1 0xE5 SHL DUP2 MSTORE PUSH1 0x4 ADD PUSH2 0x7D4 SWAP1 PUSH2 0x326F JUMP JUMPDEST PUSH1 0x1 PUSH1 0x1 PUSH1 0xA0 SHL SUB SWAP2 DUP3 AND PUSH1 0x0 SWAP1 DUP2 MSTORE PUSH1 0x3 PUSH1 0x20 MSTORE PUSH1 0x40 SWAP1 KECCAK256 DUP1 SLOAD PUSH1 0x1 PUSH1 0x1 PUSH1 0xA0 SHL SUB NOT AND SWAP2 SWAP1 SWAP3 AND OR SWAP1 SSTORE JUMP JUMPDEST CALLER PUSH1 0x0 PUSH1 0x6 SLOAD PUSH1 0x1 PUSH1 0xA0 SHL SWAP1 DIV PUSH1 0xFF AND PUSH1 0x1 DUP2 GT ISZERO PUSH2 0x1CEE JUMPI PUSH2 0x1CEE PUSH2 0x3108 JUMP JUMPDEST EQ PUSH2 0x1D3B JUMPI PUSH1 0x40 MLOAD PUSH3 0x461BCD PUSH1 0xE5 SHL DUP2 MSTORE PUSH1 0x20 PUSH1 0x4 DUP3 ADD MSTORE PUSH1 0x1E PUSH1 0x24 DUP3 ADD MSTORE PUSH32 0x636F6E747261637420627573792C2074727920616761696E206C617465720000 PUSH1 0x44 DUP3 ADD MSTORE PUSH1 0x64 ADD PUSH2 0x7D4 JUMP JUMPDEST PUSH1 0x1 PUSH1 0x1 PUSH1 0x1 PUSH1 0xA0 SHL SUB DUP3 AND PUSH1 0x0 SWAP1 DUP2 MSTORE PUSH1 0xB PUSH1 0x20 SWAP1 DUP2 MSTORE PUSH1 0x40 DUP1 DUP4 KECCAK256 PUSH1 0xD SLOAD DUP5 MSTORE SWAP1 SWAP2 MSTORE SWAP1 KECCAK256 PUSH1 0x1 ADD SLOAD PUSH1 0xFF AND PUSH1 0x3 DUP2 GT ISZERO PUSH2 0x1D7A JUMPI PUSH2 0x1D7A PUSH2 0x3108 JUMP JUMPDEST EQ PUSH2 0x1DC7 JUMPI PUSH1 0x40 MLOAD PUSH3 0x461BCD PUSH1 0xE5 SHL DUP2 MSTORE PUSH1 0x20 PUSH1 0x4 DUP3 ADD MSTORE PUSH1 0x1C PUSH1 0x24 DUP3 ADD MSTORE PUSH32 0x796F75206E65656420746F20627579206F7074696F6E20666972737400000000 PUSH1 0x44 DUP3 ADD MSTORE PUSH1 0x64 ADD PUSH2 0x7D4 JUMP JUMPDEST PUSH1 0x1 PUSH1 0x1 PUSH1 0xA0 SHL SUB DUP2 AND PUSH1 0x0 SWAP1 DUP2 MSTORE PUSH1 0xB PUSH1 0x20 SWAP1 DUP2 MSTORE PUSH1 0x40 DUP1 DUP4 KECCAK256 PUSH1 0xD SLOAD DUP5 MSTORE SWAP1 SWAP2 MSTORE SWAP1 KECCAK256 PUSH1 0x2 ADD SLOAD PUSH2 0x1E4B JUMPI PUSH1 0x40 MLOAD PUSH3 0x461BCD PUSH1 0xE5 SHL DUP2 MSTORE PUSH1 0x20 PUSH1 0x4 DUP3 ADD MSTORE PUSH1 0x26 PUSH1 0x24 DUP3 ADD MSTORE PUSH32 0x796F7572206F64657220686173206265656E2066696C6C6564206F722063616E PUSH1 0x44 DUP3 ADD MSTORE PUSH6 0x18D95B1B1959 PUSH1 0xD2 SHL PUSH1 0x64 DUP3 ADD MSTORE PUSH1 0x84 ADD PUSH2 0x7D4 JUMP JUMPDEST PUSH1 0x6 DUP1 SLOAD PUSH1 0xFF PUSH1 0xA0 SHL NOT AND PUSH1 0x1 PUSH1 0xA0 SHL OR SWAP1 SSTORE PUSH1 0x1 PUSH1 0x1 PUSH1 0xA0 SHL SUB DUP2 AND PUSH1 0x0 DUP2 DUP2 MSTORE PUSH1 0xB PUSH1 0x20 SWAP1 DUP2 MSTORE PUSH1 0x40 DUP1 DUP4 KECCAK256 PUSH1 0xD SLOAD DUP5 MSTORE DUP3 MSTORE DUP1 DUP4 KECCAK256 PUSH1 0x2 ADD SLOAD SWAP4 DUP4 MSTORE PUSH1 0x9 SWAP1 SWAP2 MSTORE DUP2 KECCAK256 DUP1 SLOAD SWAP1 SWAP2 SWAP1 PUSH2 0x1EA1 SWAP1 DUP5 SWAP1 PUSH2 0x3257 JUMP JUMPDEST SWAP1 SWAP2 SSTORE POP POP PUSH1 0x1 PUSH1 0x1 PUSH1 0xA0 SHL SUB DUP2 AND PUSH1 0x0 SWAP1 DUP2 MSTORE PUSH1 0xB PUSH1 0x20 SWAP1 DUP2 MSTORE PUSH1 0x40 DUP1 DUP4 KECCAK256 PUSH1 0xD DUP1 SLOAD DUP6 MSTORE SWAP3 MSTORE DUP3 KECCAK256 PUSH1 0x2 ADD DUP3 SWAP1 SSTORE SLOAD PUSH1 0xC DUP1 SLOAD SWAP1 SWAP2 SWAP1 DUP2 LT PUSH2 0x1EE7 JUMPI PUSH2 0x1EE7 PUSH2 0x33EC JUMP JUMPDEST SWAP1 PUSH1 0x0 MSTORE PUSH1 0x20 PUSH1 0x0 KECCAK256 SWAP1 PUSH1 0x4 MUL ADD PUSH1 0x3 ADD DUP1 SLOAD DUP1 PUSH1 0x20 MUL PUSH1 0x20 ADD PUSH1 0x40 MLOAD SWAP1 DUP2 ADD PUSH1 0x40 MSTORE DUP1 SWAP3 SWAP2 SWAP1 DUP2 DUP2 MSTORE PUSH1 0x20 ADD DUP3 DUP1 SLOAD DUP1 ISZERO PUSH2 0x1F42 JUMPI PUSH1 0x20 MUL DUP3 ADD SWAP2 SWAP1 PUSH1 0x0 MSTORE PUSH1 0x20 PUSH1 0x0 KECCAK256 SWAP1 JUMPDEST DUP2 SLOAD DUP2 MSTORE PUSH1 0x20 ADD SWAP1 PUSH1 0x1 ADD SWAP1 DUP1 DUP4 GT PUSH2 0x1F2E JUMPI JUMPDEST POP POP POP POP POP SWAP1 POP PUSH1 0x0 DUP1 JUMPDEST DUP3 MLOAD DUP2 LT ISZERO PUSH2 0x20CC JUMPI DUP4 PUSH1 0x1 PUSH1 0x1 PUSH1 0xA0 SHL SUB AND PUSH1 0xA PUSH1 0x0 PUSH1 0xD SLOAD DUP2 MSTORE PUSH1 0x20 ADD SWAP1 DUP2 MSTORE PUSH1 0x20 ADD PUSH1 0x0 KECCAK256 DUP5 DUP4 DUP2 MLOAD DUP2 LT PUSH2 0x1F87 JUMPI PUSH2 0x1F87 PUSH2 0x33EC JUMP JUMPDEST PUSH1 0x20 MUL PUSH1 0x20 ADD ADD MLOAD DUP2 SLOAD DUP2 LT PUSH2 0x1F9F JUMPI PUSH2 0x1F9F PUSH2 0x33EC JUMP JUMPDEST PUSH1 0x0 SWAP2 DUP3 MSTORE PUSH1 0x20 SWAP1 SWAP2 KECCAK256 PUSH1 0x2 PUSH1 0x3 SWAP1 SWAP3 MUL ADD ADD SLOAD PUSH1 0x1 PUSH1 0x1 PUSH1 0xA0 SHL SUB AND EQ PUSH2 0x2030 JUMPI DUP3 DUP2 DUP2 MLOAD DUP2 LT PUSH2 0x1FD3 JUMPI PUSH2 0x1FD3 PUSH2 0x33EC JUMP JUMPDEST PUSH1 0x20 MUL PUSH1 0x20 ADD ADD MLOAD PUSH1 0xC PUSH1 0xD SLOAD DUP2 SLOAD DUP2 LT PUSH2 0x1FF0 JUMPI PUSH2 0x1FF0 PUSH2 0x33EC JUMP JUMPDEST SWAP1 PUSH1 0x0 MSTORE PUSH1 0x20 PUSH1 0x0 KECCAK256 SWAP1 PUSH1 0x4 MUL ADD PUSH1 0x3 ADD DUP4 DUP2 SLOAD DUP2 LT PUSH2 0x2012 JUMPI PUSH2 0x2012 PUSH2 0x33EC JUMP JUMPDEST PUSH1 0x0 SWAP2 DUP3 MSTORE PUSH1 0x20 SWAP1 SWAP2 KECCAK256 ADD SSTORE DUP2 PUSH2 0x2028 DUP2 PUSH2 0x3448 JUMP JUMPDEST SWAP3 POP POP PUSH2 0x20BA JUMP JUMPDEST PUSH1 0xD SLOAD PUSH1 0x0 SWAP1 DUP2 MSTORE PUSH1 0xA PUSH1 0x20 MSTORE PUSH1 0x40 SWAP1 KECCAK256 DUP4 MLOAD DUP5 SWAP1 DUP4 SWAP1 DUP2 LT PUSH2 0x2055 JUMPI PUSH2 0x2055 PUSH2 0x33EC JUMP JUMPDEST PUSH1 0x20 MUL PUSH1 0x20 ADD ADD MLOAD DUP2 SLOAD DUP2 LT PUSH2 0x206D JUMPI PUSH2 0x206D PUSH2 0x33EC JUMP JUMPDEST SWAP1 PUSH1 0x0 MSTORE PUSH1 0x20 PUSH1 0x0 KECCAK256 SWAP1 PUSH1 0x3 MUL ADD PUSH1 0x1 ADD SLOAD PUSH1 0xC PUSH1 0xD SLOAD DUP2 SLOAD DUP2 LT PUSH2 0x2094 JUMPI PUSH2 0x2094 PUSH2 0x33EC JUMP JUMPDEST SWAP1 PUSH1 0x0 MSTORE PUSH1 0x20 PUSH1 0x0 KECCAK256 SWAP1 PUSH1 0x4 MUL ADD PUSH1 0x2 ADD PUSH1 0x0 DUP3 DUP3 SLOAD PUSH2 0x20B4 SWAP2 SWAP1 PUSH2 0x33D5 JUMP JUMPDEST SWAP1 SWAP2 SSTORE POP POP JUMPDEST DUP1 PUSH2 0x20C4 DUP2 PUSH2 0x3448 JUMP JUMPDEST SWAP2 POP POP PUSH2 0x1F4D JUMP JUMPDEST POP PUSH1 0x0 JUMPDEST DUP2 DUP4 MLOAD PUSH2 0x20DD SWAP2 SWAP1 PUSH2 0x33D5 JUMP JUMPDEST DUP2 LT ISZERO PUSH2 0x2142 JUMPI PUSH1 0xC PUSH1 0xD SLOAD DUP2 SLOAD DUP2 LT PUSH2 0x20F9 JUMPI PUSH2 0x20F9 PUSH2 0x33EC JUMP JUMPDEST SWAP1 PUSH1 0x0 MSTORE PUSH1 0x20 PUSH1 0x0 KECCAK256 SWAP1 PUSH1 0x4 MUL ADD PUSH1 0x3 ADD DUP1 SLOAD DUP1 PUSH2 0x2119 JUMPI PUSH2 0x2119 PUSH2 0x3463 JUMP JUMPDEST PUSH1 0x1 SWAP1 SUB DUP2 DUP2 SWAP1 PUSH1 0x0 MSTORE PUSH1 0x20 PUSH1 0x0 KECCAK256 ADD PUSH1 0x0 SWAP1 SSTORE SWAP1 SSTORE DUP1 DUP1 PUSH2 0x213A SWAP1 PUSH2 0x3448 JUMP JUMPDEST SWAP2 POP POP PUSH2 0x20D0 JUMP JUMPDEST POP POP PUSH1 0x6 DUP1 SLOAD PUSH1 0xFF PUSH1 0xA0 SHL NOT AND SWAP1 SSTORE POP POP JUMP JUMPDEST PUSH1 0x1 PUSH1 0x1 PUSH1 0xA0 SHL SUB DUP2 AND PUSH1 0x0 SWAP1 DUP2 MSTORE PUSH1 0x2 PUSH1 0x20 MSTORE PUSH1 0x40 DUP2 KECCAK256 SLOAD DUP2 SWAP1 PUSH2 0x21B0 JUMPI PUSH1 0x40 MLOAD PUSH3 0x461BCD PUSH1 0xE5 SHL DUP2 MSTORE PUSH1 0x20 PUSH1 0x4 DUP3 ADD MSTORE PUSH1 0x11 PUSH1 0x24 DUP3 ADD MSTORE PUSH17 0x4E6F20746F6B656E73207374616B656421 PUSH1 0x78 SHL PUSH1 0x44 DUP3 ADD MSTORE PUSH1 0x64 ADD PUSH2 0x7D4 JUMP JUMPDEST PUSH1 0x0 JUMPDEST PUSH1 0x5 SLOAD DUP2 LT ISZERO PUSH2 0x220C JUMPI PUSH2 0x21EE DUP5 PUSH1 0x5 DUP4 DUP2 SLOAD DUP2 LT PUSH2 0x21D4 JUMPI PUSH2 0x21D4 PUSH2 0x33EC JUMP JUMPDEST PUSH1 0x0 SWAP2 DUP3 MSTORE PUSH1 0x20 SWAP1 SWAP2 KECCAK256 ADD SLOAD PUSH1 0x1 PUSH1 0x1 PUSH1 0xA0 SHL SUB AND PUSH2 0x9DB JUMP JUMPDEST PUSH2 0x21F8 SWAP1 DUP4 PUSH2 0x3257 JUMP JUMPDEST SWAP2 POP DUP1 PUSH2 0x2204 DUP2 PUSH2 0x3448 JUMP JUMPDEST SWAP2 POP POP PUSH2 0x21B3 JUMP JUMPDEST POP SWAP3 SWAP2 POP POP JUMP JUMPDEST PUSH2 0x1F4 CALLVALUE LT ISZERO PUSH2 0x2256 JUMPI PUSH1 0x40 MLOAD PUSH3 0x461BCD PUSH1 0xE5 SHL DUP2 MSTORE PUSH1 0x20 PUSH1 0x4 DUP3 ADD MSTORE PUSH1 0xE PUSH1 0x24 DUP3 ADD MSTORE PUSH14 0x4D696E2073697A65203D2035303 PUSH1 0x94 SHL PUSH1 0x44 DUP3 ADD MSTORE PUSH1 0x64 ADD PUSH2 0x7D4 JUMP JUMPDEST CALLER PUSH1 0x0 SWAP1 DUP2 MSTORE PUSH1 0x9 PUSH1 0x20 MSTORE PUSH1 0x40 DUP2 KECCAK256 DUP1 SLOAD CALLVALUE SWAP3 SWAP1 PUSH2 0x2275 SWAP1 DUP5 SWAP1 PUSH2 0x3257 JUMP JUMPDEST SWAP1 SWAP2 SSTORE POP POP JUMP JUMPDEST CALLER PUSH1 0x0 DUP2 DUP2 MSTORE PUSH1 0xB PUSH1 0x20 SWAP1 DUP2 MSTORE PUSH1 0x40 DUP1 DUP4 KECCAK256 PUSH1 0xD SLOAD DUP5 MSTORE SWAP1 SWAP2 MSTORE SWAP1 KECCAK256 PUSH1 0x1 ADD SLOAD PUSH1 0xFF AND PUSH1 0x2 DUP2 PUSH1 0x3 DUP2 GT ISZERO PUSH2 0x22B3 JUMPI PUSH2 0x22B3 PUSH2 0x3108 JUMP JUMPDEST EQ DUP1 PUSH2 0x22D0 JUMPI POP PUSH1 0x1 DUP2 PUSH1 0x3 DUP2 GT ISZERO PUSH2 0x22CE JUMPI PUSH2 0x22CE PUSH2 0x3108 JUMP JUMPDEST EQ JUMPDEST PUSH2 0x2313 JUMPI PUSH1 0x40 MLOAD PUSH3 0x461BCD PUSH1 0xE5 SHL DUP2 MSTORE PUSH1 0x20 PUSH1 0x4 DUP3 ADD MSTORE PUSH1 0x14 PUSH1 0x24 DUP3 ADD MSTORE PUSH20 0x2CB7BA903430BB32903737903837B9B4BA34B7B7 PUSH1 0x61 SHL PUSH1 0x44 DUP3 ADD MSTORE PUSH1 0x64 ADD PUSH2 0x7D4 JUMP JUMPDEST TIMESTAMP PUSH1 0xC PUSH1 0xD SLOAD DUP2 SLOAD DUP2 LT PUSH2 0x2329 JUMPI PUSH2 0x2329 PUSH2 0x33EC JUMP JUMPDEST SWAP1 PUSH1 0x0 MSTORE PUSH1 0x20 PUSH1 0x0 KECCAK256 SWAP1 PUSH1 0x4 MUL ADD PUSH1 0x1 ADD SLOAD GT ISZERO PUSH2 0x2389 JUMPI PUSH1 0x40 MLOAD PUSH3 0x461BCD PUSH1 0xE5 SHL DUP2 MSTORE PUSH1 0x20 PUSH1 0x4 DUP3 ADD MSTORE PUSH1 0x1D PUSH1 0x24 DUP3 ADD MSTORE PUSH32 0x43616E6E6F74206578657263697365206265666F726520657870697279000000 PUSH1 0x44 DUP3 ADD MSTORE PUSH1 0x64 ADD PUSH2 0x7D4 JUMP JUMPDEST PUSH1 0x3 DUP2 PUSH1 0x3 DUP2 GT ISZERO PUSH2 0x239D JUMPI PUSH2 0x239D PUSH2 0x3108 JUMP JUMPDEST EQ ISZERO PUSH2 0x23EB JUMPI PUSH1 0x40 MLOAD PUSH3 0x461BCD PUSH1 0xE5 SHL DUP2 MSTORE PUSH1 0x20 PUSH1 0x4 DUP3 ADD MSTORE PUSH1 0x17 PUSH1 0x24 DUP3 ADD MSTORE PUSH32 0x596F7520616C7265616479206578636572636973656420000000000000000000 PUSH1 0x44 DUP3 ADD MSTORE PUSH1 0x64 ADD PUSH2 0x7D4 JUMP JUMPDEST PUSH1 0x1 PUSH1 0x1 PUSH1 0xA0 SHL SUB DUP3 AND PUSH1 0x0 SWAP1 DUP2 MSTORE PUSH1 0xB PUSH1 0x20 SWAP1 DUP2 MSTORE PUSH1 0x40 DUP1 DUP4 KECCAK256 PUSH1 0xD SLOAD DUP1 DUP6 MSTORE SWAP3 MSTORE DUP3 KECCAK256 SLOAD PUSH1 0xC DUP1 SLOAD SWAP2 SWAP4 SWAP3 SWAP1 SWAP2 DUP2 LT PUSH2 0x2428 JUMPI PUSH2 0x2428 PUSH2 0x33EC JUMP JUMPDEST PUSH1 0x0 SWAP2 DUP3 MSTORE PUSH1 0x20 SWAP1 SWAP2 KECCAK256 PUSH1 0x4 SWAP1 SWAP2 MUL ADD SLOAD SWAP1 POP PUSH1 0x1 DUP4 PUSH1 0x3 DUP2 GT ISZERO PUSH2 0x244F JUMPI PUSH2 0x244F PUSH2 0x3108 JUMP JUMPDEST EQ ISZERO PUSH2 0x2533 JUMPI PUSH1 0x0 DUP3 GT PUSH2 0x24B8 JUMPI PUSH1 0x40 MLOAD PUSH3 0x461BCD PUSH1 0xE5 SHL DUP2 MSTORE PUSH1 0x20 PUSH1 0x4 DUP3 ADD MSTORE PUSH1 0x2A PUSH1 0x24 DUP3 ADD MSTORE PUSH32 0x4E6F206F6E652073656C6C20796F75722062696420616E64206E6F7468696E67 PUSH1 0x44 DUP3 ADD MSTORE PUSH10 0x20746F20657870697265 PUSH1 0xB0 SHL PUSH1 0x64 DUP3 ADD MSTORE PUSH1 0x84 ADD PUSH2 0x7D4 JUMP JUMPDEST DUP1 PUSH1 0x7 SLOAD LT PUSH2 0x24FD JUMPI PUSH1 0x40 MLOAD PUSH3 0x461BCD PUSH1 0xE5 SHL DUP2 MSTORE PUSH1 0x20 PUSH1 0x4 DUP3 ADD MSTORE PUSH1 0x11 PUSH1 0x24 DUP3 ADD MSTORE PUSH17 0x45787069726520776F727468207A65726F PUSH1 0x78 SHL PUSH1 0x44 DUP3 ADD MSTORE PUSH1 0x64 ADD PUSH2 0x7D4 JUMP JUMPDEST PUSH1 0x1 PUSH1 0x1 PUSH1 0xA0 SHL SUB DUP5 AND PUSH1 0x0 SWAP1 DUP2 MSTORE PUSH1 0xB PUSH1 0x20 SWAP1 DUP2 MSTORE PUSH1 0x40 DUP1 DUP4 KECCAK256 PUSH1 0xD SLOAD DUP5 MSTORE SWAP1 SWAP2 MSTORE SWAP1 KECCAK256 PUSH1 0x2 ADD SLOAD ISZERO PUSH2 0x2533 JUMPI PUSH2 0x2533 PUSH2 0x1CCD JUMP JUMPDEST PUSH1 0x2 DUP4 PUSH1 0x3 DUP2 GT ISZERO PUSH2 0x2547 JUMPI PUSH2 0x2547 PUSH2 0x3108 JUMP JUMPDEST EQ ISZERO PUSH2 0x25D8 JUMPI DUP1 PUSH1 0x7 SLOAD LT ISZERO PUSH2 0x25A1 JUMPI PUSH2 0x2561 DUP2 DUP4 PUSH2 0x33B3 JUMP JUMPDEST PUSH1 0x1 PUSH1 0x1 PUSH1 0xA0 SHL SUB DUP6 AND PUSH1 0x0 SWAP1 DUP2 MSTORE PUSH1 0x9 PUSH1 0x20 MSTORE PUSH1 0x40 DUP2 KECCAK256 DUP1 SLOAD SWAP1 SWAP2 SWAP1 PUSH2 0x2589 SWAP1 DUP5 SWAP1 PUSH2 0x3257 JUMP JUMPDEST SWAP1 SWAP2 SSTORE POP PUSH2 0x2599 SWAP1 POP DUP2 DUP4 PUSH2 0x33B3 JUMP JUMPDEST PUSH1 0x10 SSTORE PUSH2 0x2659 JUMP JUMPDEST PUSH1 0x1 PUSH1 0x1 PUSH1 0xA0 SHL SUB DUP5 AND PUSH1 0x0 SWAP1 DUP2 MSTORE PUSH1 0x9 PUSH1 0x20 MSTORE PUSH1 0x40 DUP2 KECCAK256 DUP1 SLOAD DUP5 SWAP3 SWAP1 PUSH2 0x25C9 SWAP1 DUP5 SWAP1 PUSH2 0x3257 JUMP JUMPDEST SWAP1 SWAP2 SSTORE POP POP PUSH1 0x10 DUP3 SWAP1 SSTORE PUSH2 0x2659 JUMP JUMPDEST DUP1 PUSH1 0x7 SLOAD LT ISZERO PUSH2 0x2659 JUMPI DUP1 PUSH1 0x7 SLOAD DUP3 PUSH2 0x25F1 SWAP2 SWAP1 PUSH2 0x33D5 JUMP JUMPDEST PUSH2 0x25FB SWAP1 DUP5 PUSH2 0x3394 JUMP JUMPDEST PUSH2 0x2605 SWAP2 SWAP1 PUSH2 0x33B3 JUMP JUMPDEST PUSH1 0x1 PUSH1 0x1 PUSH1 0xA0 SHL SUB DUP6 AND PUSH1 0x0 SWAP1 DUP2 MSTORE PUSH1 0x9 PUSH1 0x20 MSTORE PUSH1 0x40 DUP2 KECCAK256 DUP1 SLOAD SWAP1 SWAP2 SWAP1 PUSH2 0x262D SWAP1 DUP5 SWAP1 PUSH2 0x3257 JUMP JUMPDEST SWAP1 SWAP2 SSTORE POP POP PUSH1 0x7 SLOAD DUP2 SWAP1 PUSH2 0x2641 SWAP1 DUP3 PUSH2 0x33D5 JUMP JUMPDEST PUSH2 0x264B SWAP1 DUP5 PUSH2 0x3394 JUMP JUMPDEST PUSH2 0x2655 SWAP2 SWAP1 PUSH2 0x33B3 JUMP JUMPDEST PUSH1 0x10 SSTORE JUMPDEST POP POP POP PUSH1 0x1 PUSH1 0x1 PUSH1 0xA0 SHL SUB AND PUSH1 0x0 SWAP1 DUP2 MSTORE PUSH1 0xB PUSH1 0x20 SWAP1 DUP2 MSTORE PUSH1 0x40 DUP1 DUP4 KECCAK256 PUSH1 0xD SLOAD DUP5 MSTORE SWAP1 SWAP2 MSTORE SWAP1 KECCAK256 PUSH1 0x1 ADD DUP1 SLOAD PUSH1 0xFF NOT AND PUSH1 0x3 OR SWAP1 SSTORE JUMP JUMPDEST PUSH1 0x60 PUSH1 0xC PUSH1 0xD SLOAD DUP2 SLOAD DUP2 LT PUSH2 0x26A7 JUMPI PUSH2 0x26A7 PUSH2 0x33EC JUMP JUMPDEST SWAP1 PUSH1 0x0 MSTORE PUSH1 0x20 PUSH1 0x0 KECCAK256 SWAP1 PUSH1 0x4 MUL ADD PUSH1 0x3 ADD DUP1 SLOAD DUP1 PUSH1 0x20 MUL PUSH1 0x20 ADD PUSH1 0x40 MLOAD SWAP1 DUP2 ADD PUSH1 0x40 MSTORE DUP1 SWAP3 SWAP2 SWAP1 DUP2 DUP2 MSTORE PUSH1 0x20 ADD DUP3 DUP1 SLOAD DUP1 ISZERO PUSH2 0x2702 JUMPI PUSH1 0x20 MUL DUP3 ADD SWAP2 SWAP1 PUSH1 0x0 MSTORE PUSH1 0x20 PUSH1 0x0 KECCAK256 SWAP1 JUMPDEST DUP2 SLOAD DUP2 MSTORE PUSH1 0x20 ADD SWAP1 PUSH1 0x1 ADD SWAP1 DUP1 DUP4 GT PUSH2 0x26EE JUMPI JUMPDEST POP POP POP POP POP SWAP1 POP SWAP1 JUMP JUMPDEST PUSH1 0x0 DUP1 JUMPDEST PUSH1 0x5 SLOAD DUP2 LT ISZERO PUSH2 0x276D JUMPI DUP3 PUSH1 0x1 PUSH1 0x1 PUSH1 0xA0 SHL SUB AND PUSH1 0x5 DUP3 DUP2 SLOAD DUP2 LT PUSH2 0x2737 JUMPI PUSH2 0x2737 PUSH2 0x33EC JUMP JUMPDEST PUSH1 0x0 SWAP2 DUP3 MSTORE PUSH1 0x20 SWAP1 SWAP2 KECCAK256 ADD SLOAD PUSH1 0x1 PUSH1 0x1 PUSH1 0xA0 SHL SUB AND EQ ISZERO PUSH2 0x275B JUMPI POP PUSH1 0x1 SWAP3 SWAP2 POP POP JUMP JUMPDEST DUP1 PUSH2 0x2765 DUP2 PUSH2 0x3448 JUMP JUMPDEST SWAP2 POP POP PUSH2 0x2710 JUMP JUMPDEST POP PUSH1 0x0 SWAP3 SWAP2 POP POP JUMP JUMPDEST PUSH1 0x0 DUP1 PUSH1 0xC PUSH1 0xD SLOAD DUP2 SLOAD DUP2 LT PUSH2 0x278E JUMPI PUSH2 0x278E PUSH2 0x33EC JUMP JUMPDEST SWAP1 PUSH1 0x0 MSTORE PUSH1 0x20 PUSH1 0x0 KECCAK256 SWAP1 PUSH1 0x4 MUL ADD PUSH1 0x3 ADD DUP1 SLOAD SWAP1 POP GT PUSH2 0x27F0 JUMPI PUSH1 0x40 MLOAD PUSH3 0x461BCD PUSH1 0xE5 SHL DUP2 MSTORE PUSH1 0x20 PUSH1 0x4 DUP3 ADD MSTORE PUSH1 0x1E PUSH1 0x24 DUP3 ADD MSTORE PUSH32 0x63616E6E6F742073656C6C206966207468657265206973206E6F206269640000 PUSH1 0x44 DUP3 ADD MSTORE PUSH1 0x64 ADD PUSH2 0x7D4 JUMP JUMPDEST PUSH2 0x3E8 DUP3 LT ISZERO PUSH2 0x2834 JUMPI PUSH1 0x40 MLOAD PUSH3 0x461BCD PUSH1 0xE5 SHL DUP2 MSTORE PUSH1 0x20 PUSH1 0x4 DUP3 ADD MSTORE PUSH1 0xF PUSH1 0x24 DUP3 ADD MSTORE PUSH15 0x6D696E2073697A65203D203130303 PUSH1 0x8C SHL PUSH1 0x44 DUP3 ADD MSTORE PUSH1 0x64 ADD PUSH2 0x7D4 JUMP JUMPDEST PUSH1 0xC PUSH1 0xD SLOAD DUP2 SLOAD DUP2 LT PUSH2 0x2849 JUMPI PUSH2 0x2849 PUSH2 0x33EC JUMP JUMPDEST SWAP1 PUSH1 0x0 MSTORE PUSH1 0x20 PUSH1 0x0 KECCAK256 SWAP1 PUSH1 0x4 MUL ADD PUSH1 0x2 ADD SLOAD DUP3 GT ISZERO PUSH2 0x2897 JUMPI PUSH1 0x40 MLOAD PUSH3 0x461BCD PUSH1 0xE5 SHL DUP2 MSTORE PUSH1 0x20 PUSH1 0x4 DUP3 ADD MSTORE PUSH1 0xA PUSH1 0x24 DUP3 ADD MSTORE PUSH10 0x6C6F7720737570706C79 PUSH1 0xB0 SHL PUSH1 0x44 DUP3 ADD MSTORE PUSH1 0x64 ADD PUSH2 0x7D4 JUMP JUMPDEST PUSH1 0x0 DUP3 SWAP1 POP PUSH1 0x0 DUP1 DUP1 PUSH1 0x1 PUSH1 0xC PUSH1 0xD SLOAD DUP2 SLOAD DUP2 LT PUSH2 0x28B7 JUMPI PUSH2 0x28B7 PUSH2 0x33EC JUMP JUMPDEST SWAP1 PUSH1 0x0 MSTORE PUSH1 0x20 PUSH1 0x0 KECCAK256 SWAP1 PUSH1 0x4 MUL ADD PUSH1 0x3 ADD DUP1 SLOAD SWAP1 POP PUSH2 0x28D6 SWAP2 SWAP1 PUSH2 0x33D5 JUMP JUMPDEST SWAP1 POP JUMPDEST DUP4 ISZERO PUSH2 0x2AA0 JUMPI PUSH1 0xD SLOAD PUSH1 0x0 DUP2 DUP2 MSTORE PUSH1 0xA PUSH1 0x20 MSTORE PUSH1 0x40 SWAP1 KECCAK256 PUSH1 0xC DUP1 SLOAD SWAP2 SWAP3 SWAP1 SWAP2 DUP2 LT PUSH2 0x2906 JUMPI PUSH2 0x2906 PUSH2 0x33EC JUMP JUMPDEST SWAP1 PUSH1 0x0 MSTORE PUSH1 0x20 PUSH1 0x0 KECCAK256 SWAP1 PUSH1 0x4 MUL ADD PUSH1 0x3 ADD DUP3 DUP2 SLOAD DUP2 LT PUSH2 0x2928 JUMPI PUSH2 0x2928 PUSH2 0x33EC JUMP JUMPDEST SWAP1 PUSH1 0x0 MSTORE PUSH1 0x20 PUSH1 0x0 KECCAK256 ADD SLOAD DUP2 SLOAD DUP2 LT PUSH2 0x2943 JUMPI PUSH2 0x2943 PUSH2 0x33EC JUMP JUMPDEST SWAP1 PUSH1 0x0 MSTORE PUSH1 0x20 PUSH1 0x0 KECCAK256 SWAP1 PUSH1 0x3 MUL ADD PUSH1 0x1 ADD SLOAD SWAP2 POP DUP2 DUP5 LT PUSH2 0x29FC JUMPI PUSH1 0xD SLOAD PUSH1 0x0 DUP2 DUP2 MSTORE PUSH1 0xA PUSH1 0x20 MSTORE PUSH1 0x40 SWAP1 KECCAK256 PUSH1 0xC DUP1 SLOAD SWAP2 SWAP3 SWAP1 SWAP2 DUP2 LT PUSH2 0x2985 JUMPI PUSH2 0x2985 PUSH2 0x33EC JUMP JUMPDEST SWAP1 PUSH1 0x0 MSTORE PUSH1 0x20 PUSH1 0x0 KECCAK256 SWAP1 PUSH1 0x4 MUL ADD PUSH1 0x3 ADD DUP3 DUP2 SLOAD DUP2 LT PUSH2 0x29A7 JUMPI PUSH2 0x29A7 PUSH2 0x33EC JUMP JUMPDEST SWAP1 PUSH1 0x0 MSTORE PUSH1 0x20 PUSH1 0x0 KECCAK256 ADD SLOAD DUP2 SLOAD DUP2 LT PUSH2 0x29C2 JUMPI PUSH2 0x29C2 PUSH2 0x33EC JUMP JUMPDEST SWAP1 PUSH1 0x0 MSTORE PUSH1 0x20 PUSH1 0x0 KECCAK256 SWAP1 PUSH1 0x3 MUL ADD PUSH1 0x0 ADD SLOAD DUP3 PUSH2 0x29DF SWAP2 SWAP1 PUSH2 0x3394 JUMP JUMPDEST PUSH2 0x29E9 SWAP1 DUP5 PUSH2 0x3257 JUMP JUMPDEST SWAP3 POP PUSH2 0x29F5 DUP3 DUP6 PUSH2 0x33D5 JUMP JUMPDEST SWAP4 POP PUSH2 0x2A8E JUMP JUMPDEST PUSH1 0xD SLOAD PUSH1 0x0 DUP2 DUP2 MSTORE PUSH1 0xA PUSH1 0x20 MSTORE PUSH1 0x40 SWAP1 KECCAK256 PUSH1 0xC DUP1 SLOAD SWAP2 SWAP3 SWAP1 SWAP2 DUP2 LT PUSH2 0x2A23 JUMPI PUSH2 0x2A23 PUSH2 0x33EC JUMP JUMPDEST SWAP1 PUSH1 0x0 MSTORE PUSH1 0x20 PUSH1 0x0 KECCAK256 SWAP1 PUSH1 0x4 MUL ADD PUSH1 0x3 ADD DUP3 DUP2 SLOAD DUP2 LT PUSH2 0x2A45 JUMPI PUSH2 0x2A45 PUSH2 0x33EC JUMP JUMPDEST SWAP1 PUSH1 0x0 MSTORE PUSH1 0x20 PUSH1 0x0 KECCAK256 ADD SLOAD DUP2 SLOAD DUP2 LT PUSH2 0x2A60 JUMPI PUSH2 0x2A60 PUSH2 0x33EC JUMP JUMPDEST SWAP1 PUSH1 0x0 MSTORE PUSH1 0x20 PUSH1 0x0 KECCAK256 SWAP1 PUSH1 0x3 MUL ADD PUSH1 0x0 ADD SLOAD DUP5 PUSH2 0x2A7D SWAP2 SWAP1 PUSH2 0x3394 JUMP JUMPDEST PUSH2 0x2A87 SWAP1 DUP5 PUSH2 0x3257 JUMP JUMPDEST SWAP3 POP PUSH1 0x0 SWAP4 POP JUMPDEST DUP1 PUSH2 0x2A98 DUP2 PUSH2 0x3479 JUMP JUMPDEST SWAP2 POP POP PUSH2 0x28D9 JUMP JUMPDEST PUSH2 0x2AAA DUP7 DUP5 PUSH2 0x33B3 JUMP JUMPDEST SWAP7 SWAP6 POP POP POP POP POP POP JUMP JUMPDEST PUSH1 0x1 PUSH1 0x1 PUSH1 0xA0 SHL SUB DUP1 DUP3 AND PUSH1 0x0 SWAP1 DUP2 MSTORE PUSH1 0x3 PUSH1 0x20 MSTORE PUSH1 0x40 DUP1 DUP3 KECCAK256 SLOAD DUP2 MLOAD PUSH4 0x3FABE5A3 PUSH1 0xE2 SHL DUP2 MSTORE SWAP2 MLOAD SWAP3 SWAP4 DUP5 SWAP4 SWAP2 AND SWAP2 DUP3 SWAP2 DUP5 SWAP2 DUP4 SWAP2 PUSH4 0xFEAF968C SWAP2 PUSH1 0x4 DUP1 DUP3 ADD SWAP3 PUSH1 0xA0 SWAP3 SWAP1 SWAP2 SWAP1 DUP3 SWAP1 SUB ADD DUP2 DUP7 GAS STATICCALL ISZERO DUP1 ISZERO PUSH2 0x2B15 JUMPI RETURNDATASIZE PUSH1 0x0 DUP1 RETURNDATACOPY RETURNDATASIZE PUSH1 0x0 REVERT JUMPDEST POP POP POP POP PUSH1 0x40 MLOAD RETURNDATASIZE PUSH1 0x1F NOT PUSH1 0x1F DUP3 ADD AND DUP3 ADD DUP1 PUSH1 0x40 MSTORE POP DUP2 ADD SWAP1 PUSH2 0x2B39 SWAP2 SWAP1 PUSH2 0x34AA JUMP JUMPDEST POP POP POP SWAP2 POP POP PUSH1 0x0 DUP3 PUSH1 0x1 PUSH1 0x1 PUSH1 0xA0 SHL SUB AND PUSH4 0x313CE567 PUSH1 0x40 MLOAD DUP2 PUSH4 0xFFFFFFFF AND PUSH1 0xE0 SHL DUP2 MSTORE PUSH1 0x4 ADD PUSH1 0x20 PUSH1 0x40 MLOAD DUP1 DUP4 SUB DUP2 DUP7 GAS STATICCALL ISZERO DUP1 ISZERO PUSH2 0x2B7F JUMPI RETURNDATASIZE PUSH1 0x0 DUP1 RETURNDATACOPY RETURNDATASIZE PUSH1 0x0 REVERT JUMPDEST POP POP POP POP PUSH1 0x40 MLOAD RETURNDATASIZE PUSH1 0x1F NOT PUSH1 0x1F DUP3 ADD AND DUP3 ADD DUP1 PUSH1 0x40 MSTORE POP DUP2 ADD SWAP1 PUSH2 0x2BA3 SWAP2 SWAP1 PUSH2 0x34FA JUMP JUMPDEST SWAP2 SWAP8 PUSH1 0xFF SWAP1 SWAP3 AND SWAP7 POP SWAP1 SWAP5 POP POP POP POP POP JUMP JUMPDEST PUSH1 0x0 SLOAD PUSH1 0x1 PUSH1 0x1 PUSH1 0xA0 SHL SUB AND CALLER EQ PUSH2 0x2BDF JUMPI PUSH1 0x40 MLOAD PUSH3 0x461BCD PUSH1 0xE5 SHL DUP2 MSTORE PUSH1 0x4 ADD PUSH2 0x7D4 SWAP1 PUSH2 0x326F JUMP JUMPDEST PUSH1 0x1 PUSH1 0x1 PUSH1 0xA0 SHL SUB DUP2 AND PUSH2 0x2C44 JUMPI PUSH1 0x40 MLOAD PUSH3 0x461BCD PUSH1 0xE5 SHL DUP2 MSTORE PUSH1 0x20 PUSH1 0x4 DUP3 ADD MSTORE PUSH1 0x26 PUSH1 0x24 DUP3 ADD MSTORE PUSH32 0x4F776E61626C653A206E6577206F776E657220697320746865207A65726F2061 PUSH1 0x44 DUP3 ADD MSTORE PUSH6 0x646472657373 PUSH1 0xD0 SHL PUSH1 0x64 DUP3 ADD MSTORE PUSH1 0x84 ADD PUSH2 0x7D4 JUMP JUMPDEST PUSH2 0x1076 DUP2 PUSH2 0x3046 JUMP JUMPDEST PUSH1 0x4 DUP2 DUP2 SLOAD DUP2 LT PUSH2 0xF62 JUMPI PUSH1 0x0 DUP1 REVERT JUMPDEST PUSH1 0x1 PUSH1 0x1 PUSH1 0xA0 SHL SUB DUP1 DUP3 AND PUSH1 0x0 SWAP1 DUP2 MSTORE PUSH1 0x1 PUSH1 0x20 SWAP1 DUP2 MSTORE PUSH1 0x40 DUP1 DUP4 KECCAK256 SWAP4 DUP7 AND DUP4 MSTORE SWAP3 SWAP1 MSTORE KECCAK256 SLOAD PUSH2 0x95B JUMPI PUSH1 0x1 PUSH1 0x1 PUSH1 0xA0 SHL SUB DUP3 AND PUSH1 0x0 SWAP1 DUP2 MSTORE PUSH1 0x2 PUSH1 0x20 MSTORE PUSH1 0x40 SWAP1 KECCAK256 SLOAD PUSH2 0x2CAB SWAP1 PUSH1 0x1 PUSH2 0x3257 JUMP JUMPDEST PUSH1 0x1 PUSH1 0x1 PUSH1 0xA0 SHL SUB DUP4 AND PUSH1 0x0 SWAP1 DUP2 MSTORE PUSH1 0x2 PUSH1 0x20 MSTORE PUSH1 0x40 SWAP1 KECCAK256 SSTORE POP POP JUMP JUMPDEST PUSH1 0x0 DUP1 PUSH1 0x1 PUSH1 0xC PUSH1 0xD SLOAD DUP2 SLOAD DUP2 LT PUSH2 0x2CE2 JUMPI PUSH2 0x2CE2 PUSH2 0x33EC JUMP JUMPDEST SWAP1 PUSH1 0x0 MSTORE PUSH1 0x20 PUSH1 0x0 KECCAK256 SWAP1 PUSH1 0x4 MUL ADD PUSH1 0x3 ADD DUP1 SLOAD SWAP1 POP PUSH2 0x2D01 SWAP2 SWAP1 PUSH2 0x33D5 JUMP JUMPDEST SWAP1 POP PUSH1 0x0 JUMPDEST DUP2 DUP4 LT ISZERO PUSH2 0x2DC0 JUMPI PUSH1 0x2 PUSH2 0x2D1A DUP4 DUP6 PUSH2 0x3257 JUMP JUMPDEST PUSH2 0x2D24 SWAP2 SWAP1 PUSH2 0x33B3 JUMP JUMPDEST SWAP1 POP PUSH1 0xA PUSH1 0x0 PUSH1 0xD SLOAD DUP2 MSTORE PUSH1 0x20 ADD SWAP1 DUP2 MSTORE PUSH1 0x20 ADD PUSH1 0x0 KECCAK256 PUSH1 0xC PUSH1 0xD SLOAD DUP2 SLOAD DUP2 LT PUSH2 0x2D50 JUMPI PUSH2 0x2D50 PUSH2 0x33EC JUMP JUMPDEST SWAP1 PUSH1 0x0 MSTORE PUSH1 0x20 PUSH1 0x0 KECCAK256 SWAP1 PUSH1 0x4 MUL ADD PUSH1 0x3 ADD DUP3 DUP2 SLOAD DUP2 LT PUSH2 0x2D72 JUMPI PUSH2 0x2D72 PUSH2 0x33EC JUMP JUMPDEST SWAP1 PUSH1 0x0 MSTORE PUSH1 0x20 PUSH1 0x0 KECCAK256 ADD SLOAD DUP2 SLOAD DUP2 LT PUSH2 0x2D8D JUMPI PUSH2 0x2D8D PUSH2 0x33EC JUMP JUMPDEST SWAP1 PUSH1 0x0 MSTORE PUSH1 0x20 PUSH1 0x0 KECCAK256 SWAP1 PUSH1 0x3 MUL ADD PUSH1 0x0 ADD SLOAD DUP5 GT ISZERO PUSH2 0x2DB8 JUMPI PUSH2 0x2DB1 DUP2 PUSH1 0x1 PUSH2 0x3257 JUMP JUMPDEST SWAP3 POP PUSH2 0x2D06 JUMP JUMPDEST DUP1 SWAP2 POP PUSH2 0x2D06 JUMP JUMPDEST DUP2 DUP4 EQ ISZERO PUSH2 0x2E5A JUMPI PUSH1 0xD SLOAD PUSH1 0x0 DUP2 DUP2 MSTORE PUSH1 0xA PUSH1 0x20 MSTORE PUSH1 0x40 SWAP1 KECCAK256 PUSH1 0xC DUP1 SLOAD SWAP2 SWAP3 SWAP1 SWAP2 DUP2 LT PUSH2 0x2DEF JUMPI PUSH2 0x2DEF PUSH2 0x33EC JUMP JUMPDEST SWAP1 PUSH1 0x0 MSTORE PUSH1 0x20 PUSH1 0x0 KECCAK256 SWAP1 PUSH1 0x4 MUL ADD PUSH1 0x3 ADD DUP5 DUP2 SLOAD DUP2 LT PUSH2 0x2E11 JUMPI PUSH2 0x2E11 PUSH2 0x33EC JUMP JUMPDEST SWAP1 PUSH1 0x0 MSTORE PUSH1 0x20 PUSH1 0x0 KECCAK256 ADD SLOAD DUP2 SLOAD DUP2 LT PUSH2 0x2E2C JUMPI PUSH2 0x2E2C PUSH2 0x33EC JUMP JUMPDEST SWAP1 PUSH1 0x0 MSTORE PUSH1 0x20 PUSH1 0x0 KECCAK256 SWAP1 PUSH1 0x3 MUL ADD PUSH1 0x0 ADD SLOAD DUP5 GT ISZERO PUSH2 0x2E57 JUMPI PUSH2 0x2E50 DUP4 PUSH1 0x1 PUSH2 0x3257 JUMP JUMPDEST SWAP1 POP PUSH2 0x2E5A JUMP JUMPDEST POP DUP2 JUMPDEST PUSH1 0xC PUSH1 0xD SLOAD DUP2 SLOAD DUP2 LT PUSH2 0x2E6F JUMPI PUSH2 0x2E6F PUSH2 0x33EC JUMP JUMPDEST SWAP1 PUSH1 0x0 MSTORE PUSH1 0x20 PUSH1 0x0 KECCAK256 SWAP1 PUSH1 0x4 MUL ADD PUSH1 0x3 ADD PUSH1 0x1 PUSH1 0xA PUSH1 0x0 PUSH1 0xD SLOAD DUP2 MSTORE PUSH1 0x20 ADD SWAP1 DUP2 MSTORE PUSH1 0x20 ADD PUSH1 0x0 KECCAK256 DUP1 SLOAD SWAP1 POP PUSH2 0x2EA5 SWAP2 SWAP1 PUSH2 0x33D5 JUMP JUMPDEST DUP2 SLOAD PUSH1 0x1 DUP2 DUP2 ADD DUP5 SSTORE PUSH1 0x0 SWAP4 DUP5 MSTORE PUSH1 0x20 SWAP1 SWAP4 KECCAK256 ADD SSTORE PUSH1 0xD SLOAD PUSH1 0xC DUP1 SLOAD SWAP1 SWAP2 SWAP1 DUP2 LT PUSH2 0x2ED2 JUMPI PUSH2 0x2ED2 PUSH2 0x33EC JUMP JUMPDEST SWAP1 PUSH1 0x0 MSTORE PUSH1 0x20 PUSH1 0x0 KECCAK256 SWAP1 PUSH1 0x4 MUL ADD PUSH1 0x3 ADD DUP1 SLOAD SWAP1 POP PUSH2 0x2EF1 SWAP2 SWAP1 PUSH2 0x33D5 JUMP JUMPDEST DUP2 LT ISZERO PUSH2 0xF4C JUMPI PUSH1 0x0 PUSH1 0x1 PUSH1 0xC PUSH1 0xD SLOAD DUP2 SLOAD DUP2 LT PUSH2 0x2F11 JUMPI PUSH2 0x2F11 PUSH2 0x33EC JUMP JUMPDEST SWAP1 PUSH1 0x0 MSTORE PUSH1 0x20 PUSH1 0x0 KECCAK256 SWAP1 PUSH1 0x4 MUL ADD PUSH1 0x3 ADD DUP1 SLOAD SWAP1 POP PUSH2 0x2F30 SWAP2 SWAP1 PUSH2 0x33D5 JUMP JUMPDEST SWAP1 POP JUMPDEST DUP2 DUP2 GT ISZERO PUSH2 0x2FDE JUMPI PUSH1 0xC PUSH1 0xD SLOAD DUP2 SLOAD DUP2 LT PUSH2 0x2F50 JUMPI PUSH2 0x2F50 PUSH2 0x33EC JUMP JUMPDEST SWAP1 PUSH1 0x0 MSTORE PUSH1 0x20 PUSH1 0x0 KECCAK256 SWAP1 PUSH1 0x4 MUL ADD PUSH1 0x3 ADD PUSH1 0x1 DUP3 PUSH2 0x2F6E SWAP2 SWAP1 PUSH2 0x33D5 JUMP JUMPDEST DUP2 SLOAD DUP2 LT PUSH2 0x2F7E JUMPI PUSH2 0x2F7E PUSH2 0x33EC JUMP JUMPDEST SWAP1 PUSH1 0x0 MSTORE PUSH1 0x20 PUSH1 0x0 KECCAK256 ADD SLOAD PUSH1 0xC PUSH1 0xD SLOAD DUP2 SLOAD DUP2 LT PUSH2 0x2F9E JUMPI PUSH2 0x2F9E PUSH2 0x33EC JUMP JUMPDEST SWAP1 PUSH1 0x0 MSTORE PUSH1 0x20 PUSH1 0x0 KECCAK256 SWAP1 PUSH1 0x4 MUL ADD PUSH1 0x3 ADD DUP3 DUP2 SLOAD DUP2 LT PUSH2 0x2FC0 JUMPI PUSH2 0x2FC0 PUSH2 0x33EC JUMP JUMPDEST PUSH1 0x0 SWAP2 DUP3 MSTORE PUSH1 0x20 SWAP1 SWAP2 KECCAK256 ADD SSTORE DUP1 PUSH2 0x2FD6 DUP2 PUSH2 0x3479 JUMP JUMPDEST SWAP2 POP POP PUSH2 0x2F33 JUMP JUMPDEST POP PUSH1 0xD SLOAD PUSH1 0x0 SWAP1 DUP2 MSTORE PUSH1 0xA PUSH1 0x20 MSTORE PUSH1 0x40 SWAP1 KECCAK256 SLOAD PUSH2 0x2FFD SWAP1 PUSH1 0x1 SWAP1 PUSH2 0x33D5 JUMP JUMPDEST PUSH1 0xC PUSH1 0xD SLOAD DUP2 SLOAD DUP2 LT PUSH2 0x3012 JUMPI PUSH2 0x3012 PUSH2 0x33EC JUMP JUMPDEST SWAP1 PUSH1 0x0 MSTORE PUSH1 0x20 PUSH1 0x0 KECCAK256 SWAP1 PUSH1 0x4 MUL ADD PUSH1 0x3 ADD DUP3 DUP2 SLOAD DUP2 LT PUSH2 0x3034 JUMPI PUSH2 0x3034 PUSH2 0x33EC JUMP JUMPDEST PUSH1 0x0 SWAP2 DUP3 MSTORE PUSH1 0x20 SWAP1 SWAP2 KECCAK256 ADD SSTORE POP POP POP POP JUMP JUMPDEST PUSH1 0x0 DUP1 SLOAD PUSH1 0x1 PUSH1 0x1 PUSH1 0xA0 SHL SUB DUP4 DUP2 AND PUSH1 0x1 PUSH1 0x1 PUSH1 0xA0 SHL SUB NOT DUP4 AND DUP2 OR DUP5 SSTORE PUSH1 0x40 MLOAD SWAP2 SWAP1 SWAP3 AND SWAP3 DUP4 SWAP2 PUSH32 0x8BE0079C531659141344CD1FD0A4F28419497F9722A3DAAFE3B4186F6B6457E0 SWAP2 SWAP1 LOG3 POP POP JUMP JUMPDEST DUP1 CALLDATALOAD PUSH1 0x1 PUSH1 0x1 PUSH1 0xA0 SHL SUB DUP2 AND DUP2 EQ PUSH2 0x30AD JUMPI PUSH1 0x0 DUP1 REVERT JUMPDEST SWAP2 SWAP1 POP JUMP JUMPDEST PUSH1 0x0 DUP1 PUSH1 0x40 DUP4 DUP6 SUB SLT ISZERO PUSH2 0x30C5 JUMPI PUSH1 0x0 DUP1 REVERT JUMPDEST DUP3 CALLDATALOAD SWAP2 POP PUSH2 0x30D5 PUSH1 0x20 DUP5 ADD PUSH2 0x3096 JUMP JUMPDEST SWAP1 POP SWAP3 POP SWAP3 SWAP1 POP JUMP JUMPDEST PUSH1 0x0 DUP1 PUSH1 0x40 DUP4 DUP6 SUB SLT ISZERO PUSH2 0x30F1 JUMPI PUSH1 0x0 DUP1 REVERT JUMPDEST PUSH2 0x30FA DUP4 PUSH2 0x3096 JUMP JUMPDEST SWAP5 PUSH1 0x20 SWAP4 SWAP1 SWAP4 ADD CALLDATALOAD SWAP4 POP POP POP JUMP JUMPDEST PUSH4 0x4E487B71 PUSH1 0xE0 SHL PUSH1 0x0 MSTORE PUSH1 0x21 PUSH1 0x4 MSTORE PUSH1 0x24 PUSH1 0x0 REVERT JUMPDEST DUP4 DUP2 MSTORE PUSH1 0x60 DUP2 ADD PUSH1 0x4 DUP5 LT PUSH2 0x3143 JUMPI PUSH4 0x4E487B71 PUSH1 0xE0 SHL PUSH1 0x0 MSTORE PUSH1 0x21 PUSH1 0x4 MSTORE PUSH1 0x24 PUSH1 0x0 REVERT JUMPDEST PUSH1 0x20 DUP3 ADD SWAP4 SWAP1 SWAP4 MSTORE PUSH1 0x40 ADD MSTORE SWAP2 SWAP1 POP JUMP JUMPDEST PUSH1 0x0 PUSH1 0x20 DUP3 DUP5 SUB SLT ISZERO PUSH2 0x3166 JUMPI PUSH1 0x0 DUP1 REVERT JUMPDEST POP CALLDATALOAD SWAP2 SWAP1 POP JUMP JUMPDEST PUSH1 0x0 PUSH1 0x20 DUP3 DUP5 SUB SLT ISZERO PUSH2 0x317F JUMPI PUSH1 0x0 DUP1 REVERT JUMPDEST PUSH2 0x3188 DUP3 PUSH2 0x3096 JUMP JUMPDEST SWAP4 SWAP3 POP POP POP JUMP JUMPDEST PUSH1 0x0 DUP1 PUSH1 0x40 DUP4 DUP6 SUB SLT ISZERO PUSH2 0x31A2 JUMPI PUSH1 0x0 DUP1 REVERT JUMPDEST PUSH2 0x31AB DUP4 PUSH2 0x3096 JUMP JUMPDEST SWAP2 POP PUSH2 0x30D5 PUSH1 0x20 DUP5 ADD PUSH2 0x3096 JUMP JUMPDEST PUSH1 0x0 DUP1 PUSH1 0x40 DUP4 DUP6 SUB SLT ISZERO PUSH2 0x31CC JUMPI PUSH1 0x0 DUP1 REVERT JUMPDEST POP POP DUP1 CALLDATALOAD SWAP3 PUSH1 0x20 SWAP1 SWAP2 ADD CALLDATALOAD SWAP2 POP JUMP JUMPDEST PUSH1 0x20 DUP1 DUP3 MSTORE DUP3 MLOAD DUP3 DUP3 ADD DUP2 SWAP1 MSTORE PUSH1 0x0 SWAP2 SWAP1 DUP5 DUP3 ADD SWAP1 PUSH1 0x40 DUP6 ADD SWAP1 DUP5 JUMPDEST DUP2 DUP2 LT ISZERO PUSH2 0x3213 JUMPI DUP4 MLOAD DUP4 MSTORE SWAP3 DUP5 ADD SWAP3 SWAP2 DUP5 ADD SWAP2 PUSH1 0x1 ADD PUSH2 0x31F7 JUMP JUMPDEST POP SWAP1 SWAP7 SWAP6 POP POP POP POP POP POP JUMP JUMPDEST PUSH1 0x0 PUSH1 0x20 DUP3 DUP5 SUB SLT ISZERO PUSH2 0x3231 JUMPI PUSH1 0x0 DUP1 REVERT JUMPDEST DUP2 MLOAD DUP1 ISZERO ISZERO DUP2 EQ PUSH2 0x3188 JUMPI PUSH1 0x0 DUP1 REVERT JUMPDEST PUSH4 0x4E487B71 PUSH1 0xE0 SHL PUSH1 0x0 MSTORE PUSH1 0x11 PUSH1 0x4 MSTORE PUSH1 0x24 PUSH1 0x0 REVERT JUMPDEST PUSH1 0x0 DUP3 NOT DUP3 GT ISZERO PUSH2 0x326A JUMPI PUSH2 0x326A PUSH2 0x3241 JUMP JUMPDEST POP ADD SWAP1 JUMP JUMPDEST PUSH1 0x20 DUP1 DUP3 MSTORE DUP2 DUP2 ADD MSTORE PUSH32 0x4F776E61626C653A2063616C6C6572206973206E6F7420746865206F776E6572 PUSH1 0x40 DUP3 ADD MSTORE PUSH1 0x60 ADD SWAP1 JUMP JUMPDEST PUSH1 0x1 DUP2 DUP2 JUMPDEST DUP1 DUP6 GT ISZERO PUSH2 0x32DF JUMPI DUP2 PUSH1 0x0 NOT DIV DUP3 GT ISZERO PUSH2 0x32C5 JUMPI PUSH2 0x32C5 PUSH2 0x3241 JUMP JUMPDEST DUP1 DUP6 AND ISZERO PUSH2 0x32D2 JUMPI SWAP2 DUP2 MUL SWAP2 JUMPDEST SWAP4 DUP5 SHR SWAP4 SWAP1 DUP1 MUL SWAP1 PUSH2 0x32A9 JUMP JUMPDEST POP SWAP3 POP SWAP3 SWAP1 POP JUMP JUMPDEST PUSH1 0x0 DUP3 PUSH2 0x32F6 JUMPI POP PUSH1 0x1 PUSH2 0xA5C JUMP JUMPDEST DUP2 PUSH2 0x3303 JUMPI POP PUSH1 0x0 PUSH2 0xA5C JUMP JUMPDEST DUP2 PUSH1 0x1 DUP2 EQ PUSH2 0x3319 JUMPI PUSH1 0x2 DUP2 EQ PUSH2 0x3323 JUMPI PUSH2 0x333F JUMP JUMPDEST PUSH1 0x1 SWAP2 POP POP PUSH2 0xA5C JUMP JUMPDEST PUSH1 0xFF DUP5 GT ISZERO PUSH2 0x3334 JUMPI PUSH2 0x3334 PUSH2 0x3241 JUMP JUMPDEST POP POP PUSH1 0x1 DUP3 SHL PUSH2 0xA5C JUMP JUMPDEST POP PUSH1 0x20 DUP4 LT PUSH2 0x133 DUP4 LT AND PUSH1 0x4E DUP5 LT PUSH1 0xB DUP5 LT AND OR ISZERO PUSH2 0x3362 JUMPI POP DUP2 DUP2 EXP PUSH2 0xA5C JUMP JUMPDEST PUSH2 0x336C DUP4 DUP4 PUSH2 0x32A4 JUMP JUMPDEST DUP1 PUSH1 0x0 NOT DIV DUP3 GT ISZERO PUSH2 0x3380 JUMPI PUSH2 0x3380 PUSH2 0x3241 JUMP JUMPDEST MUL SWAP4 SWAP3 POP POP POP JUMP JUMPDEST PUSH1 0x0 PUSH2 0x3188 DUP4 DUP4 PUSH2 0x32E7 JUMP JUMPDEST PUSH1 0x0 DUP2 PUSH1 0x0 NOT DIV DUP4 GT DUP3 ISZERO ISZERO AND ISZERO PUSH2 0x33AE JUMPI PUSH2 0x33AE PUSH2 0x3241 JUMP JUMPDEST POP MUL SWAP1 JUMP JUMPDEST PUSH1 0x0 DUP3 PUSH2 0x33D0 JUMPI PUSH4 0x4E487B71 PUSH1 0xE0 SHL PUSH1 0x0 MSTORE PUSH1 0x12 PUSH1 0x4 MSTORE PUSH1 0x24 PUSH1 0x0 REVERT JUMPDEST POP DIV SWAP1 JUMP JUMPDEST PUSH1 0x0 DUP3 DUP3 LT ISZERO PUSH2 0x33E7 JUMPI PUSH2 0x33E7 PUSH2 0x3241 JUMP JUMPDEST POP SUB SWAP1 JUMP JUMPDEST PUSH4 0x4E487B71 PUSH1 0xE0 SHL PUSH1 0x0 MSTORE PUSH1 0x32 PUSH1 0x4 MSTORE PUSH1 0x24 PUSH1 0x0 REVERT JUMPDEST PUSH1 0x20 DUP1 DUP3 MSTORE PUSH1 0x26 SWAP1 DUP3 ADD MSTORE PUSH32 0x416C72656164792065787069726564206F7220746F6F20636C6F736520746F20 PUSH1 0x40 DUP3 ADD MSTORE PUSH6 0x657870697279 PUSH1 0xD0 SHL PUSH1 0x60 DUP3 ADD MSTORE PUSH1 0x80 ADD SWAP1 JUMP JUMPDEST PUSH1 0x0 PUSH1 0x0 NOT DUP3 EQ ISZERO PUSH2 0x345C JUMPI PUSH2 0x345C PUSH2 0x3241 JUMP JUMPDEST POP PUSH1 0x1 ADD SWAP1 JUMP JUMPDEST PUSH4 0x4E487B71 PUSH1 0xE0 SHL PUSH1 0x0 MSTORE PUSH1 0x31 PUSH1 0x4 MSTORE PUSH1 0x24 PUSH1 0x0 REVERT JUMPDEST PUSH1 0x0 DUP2 PUSH2 0x3488 JUMPI PUSH2 0x3488 PUSH2 0x3241 JUMP JUMPDEST POP PUSH1 0x0 NOT ADD SWAP1 JUMP JUMPDEST DUP1 MLOAD PUSH10 0xFFFFFFFFFFFFFFFFFFFF DUP2 AND DUP2 EQ PUSH2 0x30AD JUMPI PUSH1 0x0 DUP1 REVERT JUMPDEST PUSH1 0x0 DUP1 PUSH1 0x0 DUP1 PUSH1 0x0 PUSH1 0xA0 DUP7 DUP9 SUB SLT ISZERO PUSH2 0x34C2 JUMPI PUSH1 0x0 DUP1 REVERT JUMPDEST PUSH2 0x34CB DUP7 PUSH2 0x3490 JUMP JUMPDEST SWAP5 POP PUSH1 0x20 DUP7 ADD MLOAD SWAP4 POP PUSH1 0x40 DUP7 ADD MLOAD SWAP3 POP PUSH1 0x60 DUP7 ADD MLOAD SWAP2 POP PUSH2 0x34EE PUSH1 0x80 DUP8 ADD PUSH2 0x3490 JUMP JUMPDEST SWAP1 POP SWAP3 SWAP6 POP SWAP3 SWAP6 SWAP1 SWAP4 POP JUMP JUMPDEST PUSH1 0x0 PUSH1 0x20 DUP3 DUP5 SUB SLT ISZERO PUSH2 0x350C JUMPI PUSH1 0x0 DUP1 REVERT JUMPDEST DUP2 MLOAD PUSH1 0xFF DUP2 AND DUP2 EQ PUSH2 0x3188 JUMPI PUSH1 0x0 DUP1 REVERT INVALID LOG2 PUSH5 0x6970667358 0x22 SLT KECCAK256 DUP11 PUSH24 0xD5D8AB19FD38F16252EF97BA9BA5A3D4A9C7C0C33DB956CB 0xD0 ORIGIN 0xC6 0xCE PUSH27 0x264736F6C634300080A0033000000000000000000000000000000 ","sha1":"0f4a2fc8b041a823d5bc1a4d71b64799e71fb6d2","source":"// SPDX-License-Identifier: MIT\npragma solidity ^0.8.0;\n\nimport \"@openzeppelin/contracts/access/Ownable.sol\";\nimport \"@openzeppelin/contracts/token/ERC20/IERC20.sol\";\nimport \"@chainlink/contracts/src/v0.8/interfaces/AggregatorV3Interface.sol\";\n\ncontract TokenFarm is Ownable {\n    // *********\n    // below is for old contracts\n    // mapping token address -> staker address -> amount\n    mapping(address => mapping(address => uint256)) public stakingBalance;\n    mapping(address => uint256) public uniqueTokensStaked;\n    mapping(address => address) public tokenPriceFeedMapping;\n    address[] public stakers;\n    address[] public allowedTokens;\n    IERC20 public dappToken;\n\n    // ******************\n    // the real contract is from here\n    // to do\n    // 1. sushi\n    // 2. transcation cost\n\n    // uncomment this below if need real ETH price !!!!!!!!\n    //import \"@chainlink/contracts/src/v0.6/interfaces/AggregatorV3Interface.sol\";\n\n    uint256 private constant NO_TRADE_CLOSE_TO_EXPIRE = 10; //seconds\n    uint256 private constant MIN_BUYER_SIZE = 1e2;\n    uint256 private constant MIN_SELLER_SIZE = 1e3;\n    uint256 private constant MIN_DEPOSIT_SIZE = 5e2;\n    uint256 private constant TRANSACTION_COST = 1; // so 1% for each trade or we use a formula\n\n    // prevent two people draw liquidity at same time\n    enum contract_status {\n        open,\n        locked\n    }\n    contract_status private STATUS = contract_status.open;\n\n    //Pricefeed interfaces from chainlink\n    // uncomment this below if need real ETH price !!!!!!!!\n    // AggregatorV3Interface internal ethFeed;\n    uint256 public ethPrice;\n\n    address payable contract_address;\n\n    // store cash balance for each user, not used in any option sub-pool\n    mapping(address => uint256) public cash_balance;\n\n    // bid_struct: each bid in bids (bids is the order book for each option)\n    struct bid_struct {\n        uint256 price; // usd per option\n        uint256 size; // number of option x strike\n        address user_id; //user address\n    }\n    // bids[id] is the order book for each option[id]\n    mapping(uint256 => bid_struct[]) public bids;\n\n    // user_struct saves all info for each user\n    enum option_side {\n        not_open,\n        buyer,\n        seller,\n        exercised\n    }\n    struct user_struct {\n        // size: for buyer is number of eth option x strike price he placed\n        // size: for seller is number of eth option x strike price x (1+ yield) on expiry day\n        uint256 size; //in USD,\n        option_side side; //after expiry, re-allocate payoff depends on buyer or seller of option\n        uint256 unusedpremium; //in USD, premium in the pool but not traded, for buyer only\n    }\n    // user[user_address][option-id] is each user\n    mapping(address => mapping(uint256 => user_struct)) public user;\n\n    // option_struct saves info for each option\n    struct option_struct {\n        uint256 strike; //Price in USD, for example 3300\n        uint256 expiry; //Unix timestamp of expiration time, in second\n        uint256 supply; //buyer place bid and seller can sell the bid; supply = number of option x strike\n        uint256[] order; //order book sequence pointer, low bid to high bid, bids[id][order[0]] is the lowest bid\n    }\n    // op[id] is each option\n    option_struct[] public op;\n\n    // ********************\n    // for testing purpose\n    uint256 private id = 0; // for testing we only have one option\n    uint256[] private order_for_test;\n    bid_struct[] private order_book_for_one_option;\n    // settlement_amount is only for testing purples, need to delete in production\n    uint256 public settlement_amount;\n\n    // ********************\n\n    //Kovan feeds: https://docs.chain.link/docs/reference-contracts\n    constructor(address _dappTokenAddress, address _ethAddress) public {\n        dappToken = IERC20(_dappTokenAddress);\n\n        //ETH/USD Kovan feed\n        // uncomment this below if need real ETH price !!!!!!!!\n        // ethFeed = AggregatorV3Interface(0x9326BFA02ADD2366b30bacB125260Af641031331);\n        contract_address = payable(address(this));\n\n        // ********************\n        // create fake option for testing\n        option_struct memory option = option_struct({\n            strike: 3300, // in USDC\n            expiry: block.timestamp + 60, // 30seconds option, for testing purpose\n            supply: 0, // after buyer place bid, supply will increase, in producation initial value =0\n            order: order_for_test\n        });\n        op.push(option);\n        // for testing purpose i give you fake money to play\n        cash_balance[msg.sender] = 200000;\n        // ********************\n    }\n\n    function placeBid(uint256 newbid, uint256 premium) public {\n        // buyer place bid order but nothing traded yet\n        // newbid in usd, eth option price\n        address _user = msg.sender;\n        require(\n            op[id].expiry > block.timestamp - NO_TRADE_CLOSE_TO_EXPIRE,\n            \"Already expired or too close to expiry\"\n        );\n        require(\n            user[_user][id].side != option_side.seller,\n            \"seller of option cannot buy\"\n        );\n        require(premium >= MIN_BUYER_SIZE, \"Min size = 100\");\n        require(premium <= cash_balance[_user], \"not enough cash\"); //cash actually sell the balance first\n        // update buyer\n        // btw user.size only updated when seller sell the bid / only when trade\n        user[_user][id].side = option_side.buyer;\n        user[_user][id].unusedpremium += premium; //premium not used if seller not selling it\n        cash_balance[_user] -= premium;\n\n        // update option supply\n        // below line convert the same unit as option seller, ie: number of eth option x strike price (not number of eth option x ethPrice)\n        // 1x of dual contract needs: ethPrice/stirke size of option to hedge; size/strike > size/current spot!\n        // Warnning below line: first multiply then divide to keep precision\n        uint256 _size = (premium * op[id].strike) / newbid;\n        op[id].supply += _size;\n\n        // update order book\n        bids[id].push(bid_struct(newbid, _size, _user));\n        if (op[id].order.length == 0) {\n            op[id].order.push(bids[id].length - 1);\n        } else {\n            insertBid(newbid);\n        }\n    }\n\n    function cancelBid() public {\n        // to make it easy, cancel all bids for testing stage\n        // can make it cancel specific bid, but need more coding\n        address payable _user = payable(msg.sender);\n        require(\n            STATUS == contract_status.open,\n            \"contract busy, try again later\"\n        );\n        require(\n            user[_user][id].side == option_side.buyer,\n            \"you need to buy option first\"\n        );\n        require(\n            user[_user][id].unusedpremium > 0,\n            \"your oder has been filled or cancelled\"\n        );\n        STATUS = contract_status.locked;\n        // update buyer\n        //_user.transfer(user[_user][id].unusedpremium);\n        cash_balance[_user] += user[_user][id].unusedpremium;\n        user[_user][id].unusedpremium = 0;\n\n        // update order book and option supply\n        uint256[] memory old_order = op[id].order;\n        uint256 k = 0;\n        for (uint256 i = 0; i < old_order.length; i++) {\n            if (bids[id][old_order[i]].user_id != _user) {\n                // if this bid is not from this user\n                op[id].order[k] = old_order[i];\n                // k = how many bids we need to keep\n                k++;\n            } else {\n                op[id].supply -= bids[id][old_order[i]].size;\n            }\n        }\n        for (uint256 i = 0; i < old_order.length - k; i++) {\n            op[id].order.pop();\n        }\n        STATUS = contract_status.open;\n    }\n\n    function sellBid(uint256 seller_size) public {\n        // seller size is in usd, full notional / collateral collected\n        // seller option == buyer dual conntract!\n        address _user = msg.sender;\n        require(op[id].order.length > 0, \"cannot sell if there is no bid\");\n        require(\n            op[id].expiry > block.timestamp - NO_TRADE_CLOSE_TO_EXPIRE,\n            \"Already expired or too close to expiry\"\n        );\n        require(\n            user[_user][id].side != option_side.buyer,\n            \"buyer of option cannot sell\"\n        );\n        require(seller_size >= MIN_SELLER_SIZE, \"Min size = 1000\");\n        require(seller_size <= op[id].supply, \"low supply\");\n        require(seller_size <= cash_balance[_user], \"not enough cash\"); //cash actually sell the balance first\n        cash_balance[_user] -= seller_size;\n\n        // update order book\n        uint256 remain = seller_size;\n        uint256 sizexprice = 0;\n        uint256 each_size;\n        uint256 i = op[id].order.length - 1;\n        // sell multiple bids to have enough size\n        while (remain > 0) {\n            each_size = bids[id][op[id].order[i]].size;\n            if (remain >= each_size) {\n                // update buyer\n                user[bids[id][op[id].order[i]].user_id][id].size += each_size;\n                user[bids[id][op[id].order[i]].user_id][id]\n                    .unusedpremium -= ((each_size *\n                    bids[id][op[id].order[i]].price) / op[id].strike);\n                // update seller\n                sizexprice += (each_size * bids[id][op[id].order[i]].price);\n                // update option\n                op[id].supply -= each_size;\n                // update order book\n                bids[id][op[id].order[i]].size = 0;\n                // last one is the highest one, pop the highest bid\n                op[id].order.pop();\n                remain -= each_size;\n            } else {\n                // update buyer\n                user[bids[id][op[id].order[i]].user_id][id].size += remain;\n                user[bids[id][op[id].order[i]].user_id][id]\n                    .unusedpremium -= ((remain *\n                    bids[id][op[id].order[i]].price) / op[id].strike);\n                // update seller\n                sizexprice += (remain * bids[id][op[id].order[i]].price);\n                // update option\n                op[id].supply -= remain;\n                // update order book\n                bids[id][op[id].order[i]].size -= remain;\n                remain = 0;\n            }\n            i--;\n        }\n        // update seller\n        getEthPrice();\n        //expiry = (sizexprice / seller_size / ethPrice + 1 )x seller_size\n        user[_user][id].size += ((sizexprice + seller_size * ethPrice) /\n            ethPrice);\n        user[_user][id].side = option_side.seller;\n    }\n\n    function getBestBid(uint256 seller_size)\n        public\n        view\n        returns (uint256 average_bid)\n    {\n        // same logic as sellOption Function but not updating options and users\n        require(op[id].order.length > 0, \"cannot sell if there is no bid\");\n        require(seller_size >= MIN_SELLER_SIZE, \"min size = 1000\");\n        require(seller_size <= op[id].supply, \"low supply\");\n        uint256 remain = seller_size;\n        uint256 sizexprice = 0;\n        uint256 each_bid_amount;\n        uint256 i = op[id].order.length - 1;\n        while (remain > 0) {\n            each_bid_amount = bids[id][op[id].order[i]].size;\n            if (remain >= each_bid_amount) {\n                sizexprice += (each_bid_amount *\n                    bids[id][op[id].order[i]].price);\n                remain -= each_bid_amount;\n            } else {\n                sizexprice += (remain * bids[id][op[id].order[i]].price);\n                remain = 0;\n            }\n            i--;\n        }\n        average_bid = sizexprice / seller_size;\n        return average_bid;\n    }\n\n    function exercise() public {\n        // for testing purpose please set a fake eth price\n        address _user = msg.sender;\n        option_side _side = user[_user][id].side;\n        require(\n            _side == option_side.seller || _side == option_side.buyer,\n            \"You have no position\"\n        );\n        require(\n            op[id].expiry <= block.timestamp,\n            \"Cannot exercise before expiry\"\n        );\n        require(_side != option_side.exercised, \"You already excercised \");\n        uint256 _size = user[_user][id].size;\n        uint256 _strike = op[id].strike;\n        if (_side == option_side.buyer) {\n            require(_size > 0, \"No one sell your bid and nothing to expire\");\n            require(ethPrice < _strike, \"Expire worth zero\");\n            if (user[_user][id].unusedpremium > 0) {\n                cancelBid();\n            }\n        }\n        if (_side == option_side.seller) {\n            if (ethPrice < _strike) {\n                // Be very careful!!!!!!!!!!!!\n                // NEED to transfer/sushi USD into ETH here !!! below is ETH amount!!!\n                //_user.transfer(_size / _strike);\n                cash_balance[_user] += _size / _strike;\n                // please delete below line later\n                settlement_amount = _size / _strike;\n            } else {\n                //_user.transfer(_size);\n                cash_balance[_user] += _size;\n                // please delete below line later\n                settlement_amount = _size;\n            }\n        } else {\n            if (ethPrice < _strike) {\n                // below is for cash settlement in usd\n                // noted: when we record buyer size = usd_collected / %price * strike / ethPrice\n                //_user.transfer((_size * (_strike - ethPrice)) / _strike);\n                cash_balance[_user] += ((_size * (_strike - ethPrice)) /\n                    _strike);\n                // please delete below line later\n                settlement_amount = (_size * (_strike - ethPrice)) / _strike;\n            } // else do nothing: expire worth zero\n        }\n        user[_user][id].side = option_side.exercised;\n    }\n\n    function insertBid(uint256 newbid) internal {\n        // insert the newbid in to bids according to the newbid level, lowest bid at 0 position\n        uint256 left = 0;\n        uint256 right = op[id].order.length - 1;\n        uint256 mid;\n\n        // binary tree insert\n        while (left < right) {\n            mid = (left + right) / 2;\n            if (newbid > bids[id][op[id].order[mid]].price) {\n                left = mid + 1;\n            } else {\n                right = mid;\n            }\n        }\n        // when loop ends:\n        // if left > right mid is correct position to insert\n        // if left == right, need to compare once more with right\n        if (left == right) {\n            if (newbid > bids[id][op[id].order[left]].price) {\n                mid = left + 1;\n            } else {\n                mid = left;\n            }\n        }\n        // first push the pointer of newbid /last one of bids into the order array\n        op[id].order.push(bids[id].length - 1);\n        if (mid < op[id].order.length - 1) {\n            for (uint256 i = op[id].order.length - 1; i > mid; i--) {\n                // copy the old value to the right next one\n                op[id].order[i] = op[id].order[i - 1];\n            }\n            // insert the pointer(aka order) of newbid\n            op[id].order[mid] = bids[id].length - 1;\n        } // else if mid == order.lenghth, newbid is highest and already been pushed to the last one of order\n    }\n\n    //Returns the latest ETH price\n    function getEthPrice() public {\n        // uncomment this below if need real ETH price !!!!!!!!\n        //(\n        //    uint80 roundID,\n        //    int256 price,\n        //    uint startedAt,\n        //    uint timeStamp,\n        //    uint80 answeredInRound\n        //) = ethFeed.latestRoundData();\n        //// If the round is not complete yet, timestamp is 0\n        //require(timeStamp > 0, \"Round not complete\");\n        ////Price should never be negative thus cast int to unit is ok\n        ////Price is 8 decimal places and will require 1e10 correction later to 18 places\n        //ethPrice = uint256(price);\n        ethPrice = 3799;\n    }\n\n    function deposit() public payable {\n        require(msg.value >= MIN_DEPOSIT_SIZE, \"Min size = 500\");\n        cash_balance[msg.sender] += msg.value;\n    }\n\n    function PoolBalance() public view returns (uint256) {\n        return (contract_address.balance);\n    }\n\n    function getOrder() public view returns (uint256[] memory) {\n        return op[id].order;\n    }\n\n    function userBalance() public view returns (uint256) {\n        return cash_balance[msg.sender];\n    }\n\n    function SecondToExpiry() public view returns (uint256) {\n        return (op[id].expiry - block.timestamp);\n    }\n\n    function setFakeETH(uint256 _eth) public {\n        ethPrice = _eth;\n    }\n\n    function createFakeBuyer() private {\n        // for testing only, we create an option with some supply\n        // only use before before placeBid, otherwise order will be wrong!!!\n        address fake_user = 0xCA35b7d915458EF540aDe6068dFe2F44E8fa733c;\n        order_book_for_one_option.push(bid_struct(330, 1650, fake_user));\n        order_book_for_one_option.push(bid_struct(396, 1320, fake_user));\n        order_book_for_one_option.push(bid_struct(132, 6600, fake_user));\n        order_book_for_one_option.push(bid_struct(198, 16500, fake_user));\n        bids[id] = order_book_for_one_option;\n        user[fake_user][id].side = option_side.buyer;\n        user[fake_user][id].unusedpremium += 709;\n        op[id].supply += 26070;\n        op[id].order = [2, 3, 0, 1];\n        cash_balance[fake_user] = 100000;\n    }\n\n    // **************************\n    // we only need stake and unstake for now\n\n    function stakeTokens(uint256 _amount, address _token) public {\n        require(_amount > 0, \"Amount must be more than 0\");\n        require(tokenIsAllowed(_token), \"Token is currently no allowed\");\n        IERC20(_token).transferFrom(msg.sender, address(this), _amount);\n        updateUniqueTokensStaked(msg.sender, _token);\n        stakingBalance[_token][msg.sender] =\n            stakingBalance[_token][msg.sender] +\n            _amount;\n        if (uniqueTokensStaked[msg.sender] == 1) {\n            stakers.push(msg.sender);\n        }\n    }\n\n    function unstakeTokens(address _token) public {\n        uint256 balance = stakingBalance[_token][msg.sender];\n        require(balance > 0, \"Staking balance cannot be 0\");\n        IERC20(_token).transfer(msg.sender, balance);\n        stakingBalance[_token][msg.sender] = 0;\n        uniqueTokensStaked[msg.sender] = uniqueTokensStaked[msg.sender] - 1;\n    }\n\n    // **************************\n    // below is just supportive functions we dont really need\n\n    function viewStakedToken(address _token) public returns (uint256) {\n        // this is useless btw...\n        uint256 balance = stakingBalance[_token][msg.sender];\n        return stakingBalance[_token][msg.sender];\n    }\n\n    function updateUniqueTokensStaked(address _user, address _token) internal {\n        if (stakingBalance[_token][_user] <= 0) {\n            uniqueTokensStaked[_user] = uniqueTokensStaked[_user] + 1;\n        }\n    }\n\n    function addAllowedTokens(address _token) public onlyOwner {\n        allowedTokens.push(_token);\n    }\n\n    function tokenIsAllowed(address _token) public returns (bool) {\n        for (\n            uint256 allowedTokensIndex = 0;\n            allowedTokensIndex < allowedTokens.length;\n            allowedTokensIndex++\n        ) {\n            if (allowedTokens[allowedTokensIndex] == _token) {\n                return true;\n            }\n        }\n        return false;\n    }\n\n    function setPriceFeedContract(address _token, address _priceFeed)\n        public\n        onlyOwner\n    {\n        tokenPriceFeedMapping[_token] = _priceFeed;\n    }\n\n    function issueTokens() public onlyOwner {\n        // Issue tokens to all stakers\n        for (\n            uint256 stakersIndex = 0;\n            stakersIndex < stakers.length;\n            stakersIndex++\n        ) {\n            address recipient = stakers[stakersIndex];\n            uint256 userTotalValue = getUserTotalValue(recipient);\n            dappToken.transfer(recipient, userTotalValue);\n        }\n    }\n\n    function getUserTotalValue(address _user) public view returns (uint256) {\n        uint256 totalValue = 0;\n        require(uniqueTokensStaked[_user] > 0, \"No tokens staked!\");\n        for (\n            uint256 allowedTokensIndex = 0;\n            allowedTokensIndex < allowedTokens.length;\n            allowedTokensIndex++\n        ) {\n            totalValue =\n                totalValue +\n                getUserSingleTokenValue(\n                    _user,\n                    allowedTokens[allowedTokensIndex]\n                );\n        }\n        return totalValue;\n    }\n\n    function getUserSingleTokenValue(address _user, address _token)\n        public\n        view\n        returns (uint256)\n    {\n        if (uniqueTokensStaked[_user] <= 0) {\n            return 0;\n        }\n        // price of the token * stakingBalance[_token][user]\n        (uint256 price, uint256 decimals) = getTokenValue(_token);\n        return // 10000000000000000000 ETH\n        // ETH/USD -> 10000000000\n        // 10 * 100 = 1,000\n        ((stakingBalance[_token][_user] * price) / (10**decimals));\n    }\n\n    function getTokenValue(address _token)\n        public\n        view\n        returns (uint256, uint256)\n    {\n        // priceFeedAddress\n        address priceFeedAddress = tokenPriceFeedMapping[_token];\n        AggregatorV3Interface priceFeed = AggregatorV3Interface(\n            priceFeedAddress\n        );\n        (, int256 price, , , ) = priceFeed.latestRoundData();\n        uint256 decimals = uint256(priceFeed.decimals());\n        return (uint256(price), decimals);\n    }\n}\n","sourcePath":"contracts/TokenFarm.sol","type":"contract","deployment":{"address":"0x8396f2739dA3f0CA84f5fce2A48f5c0E1051C0Ee","chainid":"42","blockHeight":29146782}}