{"abi":[{"inputs":[{"internalType":"address","name":"_dappTokenAddress","type":"address"},{"internalType":"address","name":"_ethAddress","type":"address"}],"stateMutability":"nonpayable","type":"constructor","name":"constructor"},{"anonymous":false,"inputs":[{"indexed":true,"internalType":"address","name":"previousOwner","type":"address"},{"indexed":true,"internalType":"address","name":"newOwner","type":"address"}],"name":"OwnershipTransferred","type":"event"},{"inputs":[],"name":"PoolBalance","outputs":[{"internalType":"uint256","name":"","type":"uint256"}],"stateMutability":"view","type":"function"},{"inputs":[],"name":"SecondToExpiry","outputs":[{"internalType":"uint256","name":"","type":"uint256"}],"stateMutability":"view","type":"function"},{"inputs":[{"internalType":"address","name":"_token","type":"address"}],"name":"addAllowedTokens","outputs":[],"stateMutability":"nonpayable","type":"function"},{"inputs":[{"internalType":"uint256","name":"","type":"uint256"}],"name":"allowedTokens","outputs":[{"internalType":"address","name":"","type":"address"}],"stateMutability":"view","type":"function"},{"inputs":[{"internalType":"uint256","name":"","type":"uint256"},{"internalType":"uint256","name":"","type":"uint256"}],"name":"bids","outputs":[{"internalType":"uint256","name":"price","type":"uint256"},{"internalType":"uint256","name":"size","type":"uint256"},{"internalType":"address","name":"user_id","type":"address"}],"stateMutability":"view","type":"function"},{"inputs":[],"name":"cancelBid","outputs":[],"stateMutability":"nonpayable","type":"function"},{"inputs":[{"internalType":"address","name":"","type":"address"}],"name":"cash_balance","outputs":[{"internalType":"uint256","name":"","type":"uint256"}],"stateMutability":"view","type":"function"},{"inputs":[],"name":"dappToken","outputs":[{"internalType":"contract IERC20","name":"","type":"address"}],"stateMutability":"view","type":"function"},{"inputs":[],"name":"deposit","outputs":[],"stateMutability":"payable","type":"function"},{"inputs":[],"name":"ethAddress","outputs":[{"internalType":"address","name":"","type":"address"}],"stateMutability":"view","type":"function"},{"inputs":[],"name":"ethPrice","outputs":[{"internalType":"uint256","name":"","type":"uint256"}],"stateMutability":"view","type":"function"},{"inputs":[],"name":"exercise","outputs":[],"stateMutability":"nonpayable","type":"function"},{"inputs":[{"internalType":"uint256","name":"seller_size","type":"uint256"}],"name":"getBestBid","outputs":[{"internalType":"uint256","name":"average_bid","type":"uint256"}],"stateMutability":"view","type":"function"},{"inputs":[],"name":"getBid","outputs":[{"internalType":"uint256","name":"","type":"uint256"}],"stateMutability":"view","type":"function"},{"inputs":[],"name":"getETH","outputs":[{"internalType":"uint256","name":"","type":"uint256"}],"stateMutability":"view","type":"function"},{"inputs":[],"name":"getEthPrice","outputs":[],"stateMutability":"nonpayable","type":"function"},{"inputs":[],"name":"getOrder","outputs":[{"internalType":"uint256[]","name":"","type":"uint256[]"}],"stateMutability":"view","type":"function"},{"inputs":[{"internalType":"address","name":"_user","type":"address"}],"name":"getSide","outputs":[{"internalType":"uint256","name":"","type":"uint256"}],"stateMutability":"view","type":"function"},{"inputs":[],"name":"getSupply","outputs":[{"internalType":"uint256","name":"","type":"uint256"}],"stateMutability":"view","type":"function"},{"inputs":[{"internalType":"address","name":"_token","type":"address"}],"name":"getTokenValue","outputs":[{"internalType":"uint256","name":"","type":"uint256"},{"internalType":"uint256","name":"","type":"uint256"}],"stateMutability":"view","type":"function"},{"inputs":[{"internalType":"address","name":"_user","type":"address"},{"internalType":"address","name":"_token","type":"address"}],"name":"getUserSingleTokenValue","outputs":[{"internalType":"uint256","name":"","type":"uint256"}],"stateMutability":"view","type":"function"},{"inputs":[{"internalType":"address","name":"_user","type":"address"}],"name":"getUserTotalValue","outputs":[{"internalType":"uint256","name":"","type":"uint256"}],"stateMutability":"view","type":"function"},{"inputs":[],"name":"issueTokens","outputs":[],"stateMutability":"nonpayable","type":"function"},{"inputs":[{"internalType":"uint256","name":"","type":"uint256"}],"name":"op","outputs":[{"internalType":"uint256","name":"strike","type":"uint256"},{"internalType":"uint256","name":"expiry","type":"uint256"},{"internalType":"uint256","name":"supply","type":"uint256"}],"stateMutability":"view","type":"function"},{"inputs":[],"name":"owner","outputs":[{"internalType":"address","name":"","type":"address"}],"stateMutability":"view","type":"function"},{"inputs":[{"internalType":"uint256","name":"newbid","type":"uint256"},{"internalType":"uint256","name":"premium","type":"uint256"}],"name":"placeBid","outputs":[],"stateMutability":"nonpayable","type":"function"},{"inputs":[],"name":"renounceOwnership","outputs":[],"stateMutability":"nonpayable","type":"function"},{"inputs":[{"internalType":"uint256","name":"seller_size","type":"uint256"}],"name":"sellBid","outputs":[],"stateMutability":"nonpayable","type":"function"},{"inputs":[{"internalType":"uint256","name":"_eth","type":"uint256"}],"name":"setFakeETH","outputs":[],"stateMutability":"nonpayable","type":"function"},{"inputs":[{"internalType":"address","name":"_token","type":"address"},{"internalType":"address","name":"_priceFeed","type":"address"}],"name":"setPriceFeedContract","outputs":[],"stateMutability":"nonpayable","type":"function"},{"inputs":[],"name":"settlement_amount","outputs":[{"internalType":"uint256","name":"","type":"uint256"}],"stateMutability":"view","type":"function"},{"inputs":[{"internalType":"uint256","name":"_amount","type":"uint256"},{"internalType":"address","name":"_token","type":"address"}],"name":"stakeTokens","outputs":[],"stateMutability":"nonpayable","type":"function"},{"inputs":[{"internalType":"uint256","name":"","type":"uint256"}],"name":"stakers","outputs":[{"internalType":"address","name":"","type":"address"}],"stateMutability":"view","type":"function"},{"inputs":[{"internalType":"address","name":"","type":"address"},{"internalType":"address","name":"","type":"address"}],"name":"stakingBalance","outputs":[{"internalType":"uint256","name":"","type":"uint256"}],"stateMutability":"view","type":"function"},{"inputs":[{"internalType":"address","name":"_token","type":"address"}],"name":"tokenIsAllowed","outputs":[{"internalType":"bool","name":"","type":"bool"}],"stateMutability":"nonpayable","type":"function"},{"inputs":[{"internalType":"address","name":"","type":"address"}],"name":"tokenPriceFeedMapping","outputs":[{"internalType":"address","name":"","type":"address"}],"stateMutability":"view","type":"function"},{"inputs":[{"internalType":"address","name":"newOwner","type":"address"}],"name":"transferOwnership","outputs":[],"stateMutability":"nonpayable","type":"function"},{"inputs":[{"internalType":"address","name":"","type":"address"}],"name":"uniqueTokensStaked","outputs":[{"internalType":"uint256","name":"","type":"uint256"}],"stateMutability":"view","type":"function"},{"inputs":[{"internalType":"address","name":"_token","type":"address"}],"name":"unstakeTokens","outputs":[],"stateMutability":"nonpayable","type":"function"},{"inputs":[{"internalType":"address","name":"","type":"address"},{"internalType":"uint256","name":"","type":"uint256"}],"name":"user","outputs":[{"internalType":"uint256","name":"size","type":"uint256"},{"internalType":"enum TokenFarm.option_side","name":"side","type":"uint8"},{"internalType":"uint256","name":"unusedpremium","type":"uint256"}],"stateMutability":"view","type":"function"},{"inputs":[{"internalType":"address","name":"_user","type":"address"}],"name":"userBalance","outputs":[{"internalType":"uint256","name":"","type":"uint256"}],"stateMutability":"view","type":"function"},{"inputs":[{"internalType":"address","name":"_user","type":"address"}],"name":"userSize","outputs":[{"internalType":"uint256","name":"","type":"uint256"}],"stateMutability":"view","type":"function"},{"inputs":[{"internalType":"address","name":"_user","type":"address"}],"name":"userUnusedPremium","outputs":[{"internalType":"uint256","name":"","type":"uint256"}],"stateMutability":"view","type":"function"},{"inputs":[{"internalType":"address","name":"_token","type":"address"}],"name":"viewStakedToken","outputs":[{"internalType":"uint256","name":"","type":"uint256"}],"stateMutability":"nonpayable","type":"function"}],"bytecode":"60806040526006805460ff60a01b191690556000600d553480156200002357600080fd5b5060405162003a1c38038062003a1c8339810160408190526200004691620002ed565b620000513362000219565b600680546001600160a01b0384166001600160a01b0319918216179091556008805490911630179055604080516080810190915268b2e4b323d9c5100000815260009060208101620000a7426201518062000325565b815260200160008152602001600e8054806020026020016040519081016040528092919081815260200182805480156200010157602002820191906000526020600020905b815481526020019060010190808311620000ec575b505050919092525050600c8054600181018255600091909152815160049091027fdf6966c971051c3d54ec59162606531493a51404a002842f56009d7e5cf4a8c781019182556020808401517fdf6966c971051c3d54ec59162606531493a51404a002842f56009d7e5cf4a8c883015560408401517fdf6966c971051c3d54ec59162606531493a51404a002842f56009d7e5cf4a8c9830155606084015180519495508594620001d9937fdf6966c971051c3d54ec59162606531493a51404a002842f56009d7e5cf4a8ca0192919091019062000269565b505033600090815260096020526040902062030d4090555050601180546001600160a01b0319166001600160a01b0392909216919091179055506200034c565b600080546001600160a01b038381166001600160a01b0319831681178455604051919092169283917f8be0079c531659141344cd1fd0a4f28419497f9722a3daafe3b4186f6b6457e09190a35050565b828054828255906000526020600020908101928215620002a7579160200282015b82811115620002a75782518255916020019190600101906200028a565b50620002b5929150620002b9565b5090565b5b80821115620002b55760008155600101620002ba565b80516001600160a01b0381168114620002e857600080fd5b919050565b600080604083850312156200030157600080fd5b6200030c83620002d0565b91506200031c60208401620002d0565b90509250929050565b600082198211156200034757634e487b7160e01b600052601160045260246000fd5b500190565b6136c0806200035c6000396000f3fe6080604052600436106102675760003560e01c8063704bba6911610144578063d0e30db0116100b6578063f1c5d6c21161007a578063f1c5d6c2146107f0578063f275834414610825578063f2fde38b1461086b578063f67023561461088b578063fd5e6dd1146108b8578063ff186b2e146108d857600080fd5b8063d0e30db014610761578063d32cb0fe14610769578063d36dedd21461077e578063dd5b8467146107a0578063f14e96f1146107d057600080fd5b80637e7f320d116101085780637e7f320d146106ac578063877dd39d146106c15780638da5cb5b146106e15780639435c887146106ff578063af3f5e2214610714578063b83e02341461073457600080fd5b8063704bba69146105da578063715018a6146105fa5780637b3889e71461060f5780637b3c4baa146106255780637b468de61461066957600080fd5b80632d1ad8b8116101dd5780635e5f2e26116101a15780635e5f2e261461053b5780635eb186f81461055b57806360ab58521461057b57806363c82ab01461059057806367c9b017146105b05780636c9c2faf146105c557600080fd5b80632d1ad8b81461045f578063387eadae1461047f57806341398b15146104ba5780634f0dcd39146104da57806357c90de51461051b57600080fd5b806316ed0f721161022f57806316ed0f721461035a578063171e44ea1461037a5780631be0819c1461039a578063276b11da146103b957806327927b3e146103d957806329161a001461042757600080fd5b80630103c92b1461026c578063099a019d146102b55780630bea440d146102ca57806314f6c3be146102ec57806314feaa9d14610301575b600080fd5b34801561027857600080fd5b506102a261028736600461321f565b6001600160a01b031660009081526009602052604090205490565b6040519081526020015b60405180910390f35b3480156102c157600080fd5b506102a26108ee565b3480156102d657600080fd5b506102ea6102e5366004613241565b6109a3565b005b3480156102f857600080fd5b506102a2610b93565b34801561030d57600080fd5b5061034b61031c36600461326d565b600b602090815260009283526040808420909152908252902080546001820154600290920154909160ff169083565b6040516102ac939291906132ad565b34801561036657600080fd5b506102ea6103753660046132e3565b600755565b34801561038657600080fd5b506102ea61039536600461321f565b610bca565b3480156103a657600080fd5b506008546001600160a01b0316316102a2565b3480156103c557600080fd5b506102a26103d43660046132fc565b610c46565b3480156103e557600080fd5b5061040f6103f436600461321f565b6003602052600090815260409020546001600160a01b031681565b6040516001600160a01b0390911681526020016102ac565b34801561043357600080fd5b506102a26104423660046132fc565b600160209081526000928352604080842090915290825290205481565b34801561046b57600080fd5b506102ea61047a36600461321f565b610ccd565b34801561048b57600080fd5b5061049f61049a3660046132e3565b610e2b565b604080519384526020840192909252908201526060016102ac565b3480156104c657600080fd5b5060115461040f906001600160a01b031681565b3480156104e657600080fd5b506102a26104f536600461321f565b6001600160a01b0316600090815260016020908152604080832033845290915290205490565b34801561052757600080fd5b506102ea610536366004613326565b610e5e565b34801561054757600080fd5b5061040f6105563660046132e3565b6111eb565b34801561056757600080fd5b5060065461040f906001600160a01b031681565b34801561058757600080fd5b506102ea611215565b34801561059c57600080fd5b506102a26105ab36600461321f565b611312565b3480156105bc57600080fd5b506102ea61134f565b3480156105d157600080fd5b506102a2611384565b3480156105e657600080fd5b506102ea6105f53660046132e3565b6113b2565b34801561060657600080fd5b506102ea611d28565b34801561061b57600080fd5b506102a260105481565b34801561063157600080fd5b50610645610640366004613326565b611d5e565b6040805193845260208401929092526001600160a01b0316908201526060016102ac565b34801561067557600080fd5b506102a261068436600461321f565b6001600160a01b03166000908152600b60209081526040808320600d54845290915290205490565b3480156106b857600080fd5b506102a2611da9565b3480156106cd57600080fd5b506102ea6106dc3660046132fc565b611de2565b3480156106ed57600080fd5b506000546001600160a01b031661040f565b34801561070b57600080fd5b506102ea611e3a565b34801561072057600080fd5b506102a261072f36600461321f565b6122c2565b34801561074057600080fd5b506102a261074f36600461321f565b60026020526000908152604090205481565b6102ea612380565b34801561077557600080fd5b506102ea6123e9565b34801561078a57600080fd5b506107936127fd565b6040516102ac9190613348565b3480156107ac57600080fd5b506107c06107bb36600461321f565b612879565b60405190151581526020016102ac565b3480156107dc57600080fd5b506102a26107eb3660046132e3565b6128e3565b3480156107fc57600080fd5b5061081061080b36600461321f565b612c20565b604080519283526020830191909152016102ac565b34801561083157600080fd5b506102a261084036600461321f565b6001600160a01b03166000908152600b60209081526040808320600d54845290915290206002015490565b34801561087757600080fd5b506102ea61088636600461321f565b612d21565b34801561089757600080fd5b506102a26108a636600461321f565b60096020526000908152604090205481565b3480156108c457600080fd5b5061040f6108d33660046132e3565b612db9565b3480156108e457600080fd5b506102a260075481565b6000600a6000600d548152602001908152602001600020600c600d548154811061091a5761091a61338c565b90600052602060002090600402016003016001600c600d54815481106109425761094261338c565b90600052602060002090600402016003018054905061096191906133b8565b815481106109715761097161338c565b90600052602060002001548154811061098c5761098c61338c565b906000526020600020906003020160000154905090565b600082116109f85760405162461bcd60e51b815260206004820152601a60248201527f416d6f756e74206d757374206265206d6f7265207468616e203000000000000060448201526064015b60405180910390fd5b610a0181612879565b610a4d5760405162461bcd60e51b815260206004820152601d60248201527f546f6b656e2069732063757272656e746c79206e6f20616c6c6f77656400000060448201526064016109ef565b6040516323b872dd60e01b8152336004820152306024820152604481018390526001600160a01b038216906323b872dd906064016020604051808303816000875af1158015610aa0573d6000803e3d6000fd5b505050506040513d601f19601f82011682018060405250810190610ac491906133cf565b50610acf3382612dc9565b6001600160a01b0381166000908152600160209081526040808320338452909152902054610afe9083906133f1565b6001600160a01b038216600090815260016020818152604080842033855282528084209490945560029052919020541415610b7657600480546001810182556000919091527f8a35acfbc15ff81a39ae7d344fd709f28e8600b4aa8c65c6b64bfe7fe36bd19b0180546001600160a01b031916331790555b610b7f336122c2565b336000908152600960205260409020555050565b60115460009081908190610baf906001600160a01b0316612c20565b9092509050610bc3826402540be400613409565b9250505090565b6000546001600160a01b03163314610bf45760405162461bcd60e51b81526004016109ef90613428565b600580546001810182556000919091527f036b6384b5eca791c62761152d0c79bb0604c104a5fb6f4eb0703f3154bb3db00180546001600160a01b0319166001600160a01b0392909216919091179055565b6001600160a01b038216600090815260026020526040812054610c6b57506000610cc7565b600080610c7784612c20565b9092509050610c8781600a613541565b6001600160a01b038086166000908152600160209081526040808320938a1683529290522054610cb8908490613409565b610cc2919061354d565b925050505b92915050565b6001600160a01b038116600090815260016020908152604080832033845290915290205480610d3e5760405162461bcd60e51b815260206004820152601860248201527f436173682062616c616e63652063616e6e6f742062652030000000000000000060448201526064016109ef565b60405163a9059cbb60e01b8152336004820152602481018290526001600160a01b0383169063a9059cbb906044016020604051808303816000875af1158015610d8b573d6000803e3d6000fd5b505050506040513d601f19601f82011682018060405250810190610daf91906133cf565b50610dba3383610c46565b3360009081526009602052604081208054909190610dd99084906133b8565b90915550506001600160a01b03821660009081526001602081815260408084203385528252808420849055600290915290912054610e1791906133b8565b336000908152600260205260409020555050565b600c8181548110610e3b57600080fd5b600091825260209091206004909102018054600182015460029092015490925083565b33610e6a600a426133b8565b600c600d5481548110610e7f57610e7f61338c565b90600052602060002090600402016001015411610eae5760405162461bcd60e51b81526004016109ef9061356f565b60026001600160a01b0382166000908152600b60209081526040808320600d54845290915290206001015460ff166003811115610eed57610eed613297565b1415610f3b5760405162461bcd60e51b815260206004820152601b60248201527f73656c6c6572206f66206f7074696f6e2063616e6e6f7420627579000000000060448201526064016109ef565b6064821015610f7d5760405162461bcd60e51b815260206004820152600e60248201526d04d696e2073697a65203d203130360941b60448201526064016109ef565b6001600160a01b038116600090815260096020526040902054821115610fd75760405162461bcd60e51b815260206004820152600f60248201526e0dcdee840cadcdeeaced040c6c2e6d608b1b60448201526064016109ef565b6001600160a01b0381166000908152600b60209081526040808320600d8054855292528083206001908101805460ff1916909117905590548252812060020180548492906110269084906133f1565b90915550506001600160a01b038116600090815260096020526040812080548492906110539084906133b8565b92505081905550600083600c600d54815481106110725761107261338c565b9060005260206000209060040201600001548461108f9190613409565b611099919061354d565b905080600c600d54815481106110b1576110b161338c565b906000526020600020906004020160020160008282546110d191906133f1565b9091555050600d80546000908152600a6020908152604080832081516060810183528981528084018781526001600160a01b038981169483019485528354600180820186559488529590962091516003909502909101938455519083015551600290910180546001600160a01b0319169190921617905554600c8054909190811061115e5761115e61338c565b60009182526020909120600360049092020101546111dc57600c600d548154811061118b5761118b61338c565b90600052602060002090600402016003016001600a6000600d548152602001908152602001600020805490506111c191906133b8565b815460018101835560009283526020909220909101556111e5565b6111e584612e35565b50505050565b600581815481106111fb57600080fd5b6000918252602090912001546001600160a01b0316905081565b6000546001600160a01b0316331461123f5760405162461bcd60e51b81526004016109ef90613428565b60005b60045481101561130f576000600482815481106112615761126161338c565b60009182526020822001546001600160a01b03169150611280826122c2565b60065460405163a9059cbb60e01b81526001600160a01b0385811660048301526024820184905292935091169063a9059cbb906044016020604051808303816000875af11580156112d5573d6000803e3d6000fd5b505050506040513d601f19601f820116820180604052508101906112f991906133cf565b5050508080611307906135b5565b915050611242565b50565b6001600160a01b0381166000908152600b60209081526040808320600d54845290915281206001015460ff166003811115610cc757610cc7613297565b6011546000908190611369906001600160a01b0316612c20565b909250905061137d826402540be400613409565b6007555050565b6000600c600d548154811061139b5761139b61338c565b906000526020600020906004020160020154905090565b336113be600a426133b8565b600c600d54815481106113d3576113d361338c565b906000526020600020906004020160010154116114025760405162461bcd60e51b81526004016109ef9061356f565b60648210156114445760405162461bcd60e51b815260206004820152600e60248201526d04d696e2073697a65203d203130360941b60448201526064016109ef565b6001600160a01b0381166000908152600960205260408120805484929061146c9084906133b8565b925050819055506000829050600080806001600c600d54815481106114935761149361338c565b9060005260206000209060040201600301805490506114b291906133b8565b90505b8315611c8957600d546000818152600a60205260409020600c80549192909181106114e2576114e261338c565b906000526020600020906004020160030182815481106115045761150461338c565b90600052602060002001548154811061151f5761151f61338c565b90600052602060002090600302016001015491508184106118ff57600d546000818152600a60205260408120600c80548694600b9493929181106115655761156561338c565b906000526020600020906004020160030185815481106115875761158761338c565b9060005260206000200154815481106115a2576115a261338c565b60009182526020808320600260039093020191909101546001600160a01b031683528281019390935260409182018120600d548252909252812080549091906115ec9084906133f1565b92505081905550600c600d54815481106116085761160861338c565b906000526020600020906004020160000154600a6000600d548152602001908152602001600020600c600d54815481106116445761164461338c565b906000526020600020906004020160030183815481106116665761166661338c565b9060005260206000200154815481106116815761168161338c565b9060005260206000209060030201600001548361169e9190613409565b6116a8919061354d565b600d546000818152600a60205260408120600c8054600b949081106116cf576116cf61338c565b906000526020600020906004020160030185815481106116f1576116f161338c565b90600052602060002001548154811061170c5761170c61338c565b6000918252602080832060026003909302018201546001600160a01b031684528381019490945260409283018220600d54835290935290812090910180549091906117589084906133b8565b9091555050600d546000818152600a60205260409020600c80549192909181106117845761178461338c565b906000526020600020906004020160030182815481106117a6576117a661338c565b9060005260206000200154815481106117c1576117c161338c565b906000526020600020906003020160000154826117de9190613409565b6117e890846133f1565b925081600c600d54815481106118005761180061338c565b9060005260206000209060040201600201600082825461182091906133b8565b9091555050600d546000818152600a60205260408120600c805492939192909190811061184f5761184f61338c565b906000526020600020906004020160030183815481106118715761187161338c565b90600052602060002001548154811061188c5761188c61338c565b906000526020600020906003020160010181905550600c600d54815481106118b6576118b661338c565b90600052602060002090600402016003018054806118d6576118d66135d0565b6001900381819060005260206000200160009055905581846118f891906133b8565b9350611c77565b600d546000818152600a60205260408120600c80548894600b94939291811061192a5761192a61338c565b9060005260206000209060040201600301858154811061194c5761194c61338c565b9060005260206000200154815481106119675761196761338c565b60009182526020808320600260039093020191909101546001600160a01b031683528281019390935260409182018120600d548252909252812080549091906119b19084906133f1565b92505081905550600c600d54815481106119cd576119cd61338c565b906000526020600020906004020160000154600a6000600d548152602001908152602001600020600c600d5481548110611a0957611a0961338c565b90600052602060002090600402016003018381548110611a2b57611a2b61338c565b906000526020600020015481548110611a4657611a4661338c565b90600052602060002090600302016000015485611a639190613409565b611a6d919061354d565b600d546000818152600a60205260408120600c8054600b94908110611a9457611a9461338c565b90600052602060002090600402016003018581548110611ab657611ab661338c565b906000526020600020015481548110611ad157611ad161338c565b6000918252602080832060026003909302018201546001600160a01b031684528381019490945260409283018220600d5483529093529081209091018054909190611b1d9084906133b8565b9091555050600d546000818152600a60205260409020600c8054919290918110611b4957611b4961338c565b90600052602060002090600402016003018281548110611b6b57611b6b61338c565b906000526020600020015481548110611b8657611b8661338c565b90600052602060002090600302016000015484611ba39190613409565b611bad90846133f1565b925083600c600d5481548110611bc557611bc561338c565b90600052602060002090600402016002016000828254611be591906133b8565b9091555050600d546000818152600a60205260409020600c80548793908110611c1057611c1061338c565b90600052602060002090600402016003018381548110611c3257611c3261338c565b906000526020600020015481548110611c4d57611c4d61338c565b90600052602060002090600302016001016000828254611c6d91906133b8565b9091555060009450505b80611c81816135e6565b9150506114b5565b611c9161134f565b600754611c9e8188613409565b611ca890856133f1565b611cb2919061354d565b6001600160a01b0386166000908152600b60209081526040808320600d54845290915281208054909190611ce79084906133f1565b909155505050506001600160a01b03929092166000908152600b60209081526040808320600d5484529091529020600101805460ff19166002179055505050565b6000546001600160a01b03163314611d525760405162461bcd60e51b81526004016109ef90613428565b611d5c60006131b3565b565b600a6020528160005260406000208181548110611d7a57600080fd5b60009182526020909120600390910201805460018201546002909201549093509091506001600160a01b031683565b600042600c600d5481548110611dc157611dc161338c565b906000526020600020906004020160010154611ddd91906133b8565b905090565b6000546001600160a01b03163314611e0c5760405162461bcd60e51b81526004016109ef90613428565b6001600160a01b03918216600090815260036020526040902080546001600160a01b03191691909216179055565b336000600654600160a01b900460ff166001811115611e5b57611e5b613297565b14611ea85760405162461bcd60e51b815260206004820152601e60248201527f636f6e747261637420627573792c2074727920616761696e206c61746572000060448201526064016109ef565b60016001600160a01b0382166000908152600b60209081526040808320600d54845290915290206001015460ff166003811115611ee757611ee7613297565b14611f345760405162461bcd60e51b815260206004820152601c60248201527f796f75206e65656420746f20627579206f7074696f6e2066697273740000000060448201526064016109ef565b6001600160a01b0381166000908152600b60209081526040808320600d548452909152902060020154611fb85760405162461bcd60e51b815260206004820152602660248201527f796f7572206f64657220686173206265656e2066696c6c6564206f722063616e60448201526518d95b1b195960d21b60648201526084016109ef565b6006805460ff60a01b1916600160a01b1790556001600160a01b0381166000818152600b60209081526040808320600d54845282528083206002015493835260099091528120805490919061200e9084906133f1565b90915550506001600160a01b0381166000908152600b60209081526040808320600d805485529252822060020182905554600c805490919081106120545761205461338c565b90600052602060002090600402016003018054806020026020016040519081016040528092919081815260200182805480156120af57602002820191906000526020600020905b81548152602001906001019080831161209b575b505050505090506000805b825181101561223957836001600160a01b0316600a6000600d5481526020019081526020016000208483815181106120f4576120f461338c565b60200260200101518154811061210c5761210c61338c565b60009182526020909120600260039092020101546001600160a01b03161461219d578281815181106121405761214061338c565b6020026020010151600c600d548154811061215d5761215d61338c565b9060005260206000209060040201600301838154811061217f5761217f61338c565b60009182526020909120015581612195816135b5565b925050612227565b600d546000908152600a6020526040902083518490839081106121c2576121c261338c565b6020026020010151815481106121da576121da61338c565b906000526020600020906003020160010154600c600d54815481106122015761220161338c565b9060005260206000209060040201600201600082825461222191906133b8565b90915550505b80612231816135b5565b9150506120ba565b5060005b81835161224a91906133b8565b8110156122af57600c600d54815481106122665761226661338c565b9060005260206000209060040201600301805480612286576122866135d0565b6001900381819060005260206000200160009055905580806122a7906135b5565b91505061223d565b50506006805460ff60a01b191690555050565b6001600160a01b038116600090815260026020526040812054819061231d5760405162461bcd60e51b81526020600482015260116024820152704e6f20746f6b656e73207374616b65642160781b60448201526064016109ef565b60005b6005548110156123795761235b84600583815481106123415761234161338c565b6000918252602090912001546001600160a01b0316610c46565b61236590836133f1565b915080612371816135b5565b915050612320565b5092915050565b6101f43410156123c35760405162461bcd60e51b815260206004820152600e60248201526d04d696e2073697a65203d203530360941b60448201526064016109ef565b33600090815260096020526040812080543492906123e29084906133f1565b9091555050565b336000818152600b60209081526040808320600d54845290915290206001015460ff16600281600381111561242057612420613297565b148061243d5750600181600381111561243b5761243b613297565b145b6124805760405162461bcd60e51b81526020600482015260146024820152732cb7ba903430bb32903737903837b9b4ba34b7b760611b60448201526064016109ef565b42600c600d54815481106124965761249661338c565b90600052602060002090600402016001015411156124f65760405162461bcd60e51b815260206004820152601d60248201527f43616e6e6f74206578657263697365206265666f72652065787069727900000060448201526064016109ef565b600381600381111561250a5761250a613297565b14156125585760405162461bcd60e51b815260206004820152601760248201527f596f7520616c726561647920657863657263697365642000000000000000000060448201526064016109ef565b6001600160a01b0382166000908152600b60209081526040808320600d548085529252822054600c8054919392909181106125955761259561338c565b6000918252602090912060049091020154905060018360038111156125bc576125bc613297565b14156126a057600082116126255760405162461bcd60e51b815260206004820152602a60248201527f4e6f206f6e652073656c6c20796f75722062696420616e64206e6f7468696e6760448201526920746f2065787069726560b01b60648201526084016109ef565b806007541061266a5760405162461bcd60e51b815260206004820152601160248201527045787069726520776f727468207a65726f60781b60448201526064016109ef565b6001600160a01b0384166000908152600b60209081526040808320600d548452909152902060020154156126a0576126a0611e3a565b60028360038111156126b4576126b4613297565b14156127455780600754101561270e576126ce818361354d565b6001600160a01b038516600090815260096020526040812080549091906126f69084906133f1565b909155506127069050818361354d565b6010556127c6565b6001600160a01b038416600090815260096020526040812080548492906127369084906133f1565b909155505060108290556127c6565b8060075410156127c657806007548261275e91906133b8565b6127689084613409565b612772919061354d565b6001600160a01b0385166000908152600960205260408120805490919061279a9084906133f1565b909155505060075481906127ae90826133b8565b6127b89084613409565b6127c2919061354d565b6010555b5050506001600160a01b03166000908152600b60209081526040808320600d5484529091529020600101805460ff19166003179055565b6060600c600d54815481106128145761281461338c565b906000526020600020906004020160030180548060200260200160405190810160405280929190818152602001828054801561286f57602002820191906000526020600020905b81548152602001906001019080831161285b575b5050505050905090565b6000805b6005548110156128da57826001600160a01b0316600582815481106128a4576128a461338c565b6000918252602090912001546001600160a01b031614156128c85750600192915050565b806128d2816135b5565b91505061287d565b50600092915050565b600080600c600d54815481106128fb576128fb61338c565b9060005260206000209060040201600301805490501161295d5760405162461bcd60e51b815260206004820152601e60248201527f63616e6e6f742073656c6c206966207468657265206973206e6f20626964000060448201526064016109ef565b60648210156129a05760405162461bcd60e51b815260206004820152600f60248201526e06d696e2073697a65203d203130303608c1b60448201526064016109ef565b600c600d54815481106129b5576129b561338c565b906000526020600020906004020160020154821115612a035760405162461bcd60e51b815260206004820152600a6024820152696c6f7720737570706c7960b01b60448201526064016109ef565b6000829050600080806001600c600d5481548110612a2357612a2361338c565b906000526020600020906004020160030180549050612a4291906133b8565b90505b8315612c0c57600d546000818152600a60205260409020600c8054919290918110612a7257612a7261338c565b90600052602060002090600402016003018281548110612a9457612a9461338c565b906000526020600020015481548110612aaf57612aaf61338c565b9060005260206000209060030201600101549150818410612b6857600d546000818152600a60205260409020600c8054919290918110612af157612af161338c565b90600052602060002090600402016003018281548110612b1357612b1361338c565b906000526020600020015481548110612b2e57612b2e61338c565b90600052602060002090600302016000015482612b4b9190613409565b612b5590846133f1565b9250612b6182856133b8565b9350612bfa565b600d546000818152600a60205260409020600c8054919290918110612b8f57612b8f61338c565b90600052602060002090600402016003018281548110612bb157612bb161338c565b906000526020600020015481548110612bcc57612bcc61338c565b90600052602060002090600302016000015484612be99190613409565b612bf390846133f1565b9250600093505b80612c04816135e6565b915050612a45565b612c16868461354d565b9695505050505050565b6001600160a01b03808216600090815260036020526040808220548151633fabe5a360e21b815291519293849391169182918491839163feaf968c9160048082019260a0929091908290030181865afa158015612c81573d6000803e3d6000fd5b505050506040513d601f19601f82011682018060405250810190612ca59190613617565b5050509150506000826001600160a01b031663313ce5676040518163ffffffff1660e01b8152600401602060405180830381865afa158015612ceb573d6000803e3d6000fd5b505050506040513d601f19601f82011682018060405250810190612d0f9190613667565b919760ff909216965090945050505050565b6000546001600160a01b03163314612d4b5760405162461bcd60e51b81526004016109ef90613428565b6001600160a01b038116612db05760405162461bcd60e51b815260206004820152602660248201527f4f776e61626c653a206e6577206f776e657220697320746865207a65726f206160448201526564647265737360d01b60648201526084016109ef565b61130f816131b3565b600481815481106111fb57600080fd5b6001600160a01b03808216600090815260016020908152604080832093861683529290522054612e31576001600160a01b038216600090815260026020526040902054612e179060016133f1565b6001600160a01b0383166000908152600260205260409020555b5050565b6000806001600c600d5481548110612e4f57612e4f61338c565b906000526020600020906004020160030180549050612e6e91906133b8565b905060005b81831015612f2d576002612e8783856133f1565b612e91919061354d565b9050600a6000600d548152602001908152602001600020600c600d5481548110612ebd57612ebd61338c565b90600052602060002090600402016003018281548110612edf57612edf61338c565b906000526020600020015481548110612efa57612efa61338c565b906000526020600020906003020160000154841115612f2557612f1e8160016133f1565b9250612e73565b809150612e73565b81831415612fc757600d546000818152600a60205260409020600c8054919290918110612f5c57612f5c61338c565b90600052602060002090600402016003018481548110612f7e57612f7e61338c565b906000526020600020015481548110612f9957612f9961338c565b906000526020600020906003020160000154841115612fc457612fbd8360016133f1565b9050612fc7565b50815b600c600d5481548110612fdc57612fdc61338c565b90600052602060002090600402016003016001600a6000600d5481526020019081526020016000208054905061301291906133b8565b815460018181018455600093845260209093200155600d54600c8054909190811061303f5761303f61338c565b90600052602060002090600402016003018054905061305e91906133b8565b8110156111e55760006001600c600d548154811061307e5761307e61338c565b90600052602060002090600402016003018054905061309d91906133b8565b90505b8181111561314b57600c600d54815481106130bd576130bd61338c565b90600052602060002090600402016003016001826130db91906133b8565b815481106130eb576130eb61338c565b9060005260206000200154600c600d548154811061310b5761310b61338c565b9060005260206000209060040201600301828154811061312d5761312d61338c565b60009182526020909120015580613143816135e6565b9150506130a0565b50600d546000908152600a602052604090205461316a906001906133b8565b600c600d548154811061317f5761317f61338c565b906000526020600020906004020160030182815481106131a1576131a161338c565b60009182526020909120015550505050565b600080546001600160a01b038381166001600160a01b0319831681178455604051919092169283917f8be0079c531659141344cd1fd0a4f28419497f9722a3daafe3b4186f6b6457e09190a35050565b80356001600160a01b038116811461321a57600080fd5b919050565b60006020828403121561323157600080fd5b61323a82613203565b9392505050565b6000806040838503121561325457600080fd5b8235915061326460208401613203565b90509250929050565b6000806040838503121561328057600080fd5b61328983613203565b946020939093013593505050565b634e487b7160e01b600052602160045260246000fd5b83815260608101600484106132d257634e487b7160e01b600052602160045260246000fd5b602082019390935260400152919050565b6000602082840312156132f557600080fd5b5035919050565b6000806040838503121561330f57600080fd5b61331883613203565b915061326460208401613203565b6000806040838503121561333957600080fd5b50508035926020909101359150565b6020808252825182820181905260009190848201906040850190845b8181101561338057835183529284019291840191600101613364565b50909695505050505050565b634e487b7160e01b600052603260045260246000fd5b634e487b7160e01b600052601160045260246000fd5b6000828210156133ca576133ca6133a2565b500390565b6000602082840312156133e157600080fd5b8151801515811461323a57600080fd5b60008219821115613404576134046133a2565b500190565b6000816000190483118215151615613423576134236133a2565b500290565b6020808252818101527f4f776e61626c653a2063616c6c6572206973206e6f7420746865206f776e6572604082015260600190565b600181815b8085111561349857816000190482111561347e5761347e6133a2565b8085161561348b57918102915b93841c9390800290613462565b509250929050565b6000826134af57506001610cc7565b816134bc57506000610cc7565b81600181146134d257600281146134dc576134f8565b6001915050610cc7565b60ff8411156134ed576134ed6133a2565b50506001821b610cc7565b5060208310610133831016604e8410600b841016171561351b575081810a610cc7565b613525838361345d565b8060001904821115613539576135396133a2565b029392505050565b600061323a83836134a0565b60008261356a57634e487b7160e01b600052601260045260246000fd5b500490565b60208082526026908201527f416c72656164792065787069726564206f7220746f6f20636c6f736520746f2060408201526565787069727960d01b606082015260800190565b60006000198214156135c9576135c96133a2565b5060010190565b634e487b7160e01b600052603160045260246000fd5b6000816135f5576135f56133a2565b506000190190565b805169ffffffffffffffffffff8116811461321a57600080fd5b600080600080600060a0868803121561362f57600080fd5b613638866135fd565b945060208601519350604086015192506060860151915061365b608087016135fd565b90509295509295909350565b60006020828403121561367957600080fd5b815160ff8116811461323a57600080fdfea2646970667358221220a3b3fd795da9e1c788a89c7b5732c6ac5d31df30b797ad01b184370fe7285abf64736f6c634300080a0033","bytecodeSha1":"5e6b19ac25bdef99772e887c215c5b65ecdf3b75","compiler":{"evm_version":"istanbul","optimizer":{"enabled":true,"runs":200},"version":"0.8.10+commit.fc410830"},"contractName":"TokenFarm","language":"Solidity","natspec":{"kind":"dev","methods":{"owner()":{"details":"Returns the address of the current owner."},"renounceOwnership()":{"details":"Leaves the contract without owner. It will not be possible to call `onlyOwner` functions anymore. Can only be called by the current owner. NOTE: Renouncing ownership will leave the contract without an owner, thereby removing any functionality that is only available to the owner."},"transferOwnership(address)":{"details":"Transfers ownership of the contract to a new account (`newOwner`). Can only be called by the current owner."}},"version":1},"opcodes":"PUSH1 0x80 PUSH1 0x40 MSTORE PUSH1 0x4 CALLDATASIZE LT PUSH2 0x267 JUMPI PUSH1 0x0 CALLDATALOAD PUSH1 0xE0 SHR DUP1 PUSH4 0x704BBA69 GT PUSH2 0x144 JUMPI DUP1 PUSH4 0xD0E30DB0 GT PUSH2 0xB6 JUMPI DUP1 PUSH4 0xF1C5D6C2 GT PUSH2 0x7A JUMPI DUP1 PUSH4 0xF1C5D6C2 EQ PUSH2 0x7F0 JUMPI DUP1 PUSH4 0xF2758344 EQ PUSH2 0x825 JUMPI DUP1 PUSH4 0xF2FDE38B EQ PUSH2 0x86B JUMPI DUP1 PUSH4 0xF6702356 EQ PUSH2 0x88B JUMPI DUP1 PUSH4 0xFD5E6DD1 EQ PUSH2 0x8B8 JUMPI DUP1 PUSH4 0xFF186B2E EQ PUSH2 0x8D8 JUMPI PUSH1 0x0 DUP1 REVERT JUMPDEST DUP1 PUSH4 0xD0E30DB0 EQ PUSH2 0x761 JUMPI DUP1 PUSH4 0xD32CB0FE EQ PUSH2 0x769 JUMPI DUP1 PUSH4 0xD36DEDD2 EQ PUSH2 0x77E JUMPI DUP1 PUSH4 0xDD5B8467 EQ PUSH2 0x7A0 JUMPI DUP1 PUSH4 0xF14E96F1 EQ PUSH2 0x7D0 JUMPI PUSH1 0x0 DUP1 REVERT JUMPDEST DUP1 PUSH4 0x7E7F320D GT PUSH2 0x108 JUMPI DUP1 PUSH4 0x7E7F320D EQ PUSH2 0x6AC JUMPI DUP1 PUSH4 0x877DD39D EQ PUSH2 0x6C1 JUMPI DUP1 PUSH4 0x8DA5CB5B EQ PUSH2 0x6E1 JUMPI DUP1 PUSH4 0x9435C887 EQ PUSH2 0x6FF JUMPI DUP1 PUSH4 0xAF3F5E22 EQ PUSH2 0x714 JUMPI DUP1 PUSH4 0xB83E0234 EQ PUSH2 0x734 JUMPI PUSH1 0x0 DUP1 REVERT JUMPDEST DUP1 PUSH4 0x704BBA69 EQ PUSH2 0x5DA JUMPI DUP1 PUSH4 0x715018A6 EQ PUSH2 0x5FA JUMPI DUP1 PUSH4 0x7B3889E7 EQ PUSH2 0x60F JUMPI DUP1 PUSH4 0x7B3C4BAA EQ PUSH2 0x625 JUMPI DUP1 PUSH4 0x7B468DE6 EQ PUSH2 0x669 JUMPI PUSH1 0x0 DUP1 REVERT JUMPDEST DUP1 PUSH4 0x2D1AD8B8 GT PUSH2 0x1DD JUMPI DUP1 PUSH4 0x5E5F2E26 GT PUSH2 0x1A1 JUMPI DUP1 PUSH4 0x5E5F2E26 EQ PUSH2 0x53B JUMPI DUP1 PUSH4 0x5EB186F8 EQ PUSH2 0x55B JUMPI DUP1 PUSH4 0x60AB5852 EQ PUSH2 0x57B JUMPI DUP1 PUSH4 0x63C82AB0 EQ PUSH2 0x590 JUMPI DUP1 PUSH4 0x67C9B017 EQ PUSH2 0x5B0 JUMPI DUP1 PUSH4 0x6C9C2FAF EQ PUSH2 0x5C5 JUMPI PUSH1 0x0 DUP1 REVERT JUMPDEST DUP1 PUSH4 0x2D1AD8B8 EQ PUSH2 0x45F JUMPI DUP1 PUSH4 0x387EADAE EQ PUSH2 0x47F JUMPI DUP1 PUSH4 0x41398B15 EQ PUSH2 0x4BA JUMPI DUP1 PUSH4 0x4F0DCD39 EQ PUSH2 0x4DA JUMPI DUP1 PUSH4 0x57C90DE5 EQ PUSH2 0x51B JUMPI PUSH1 0x0 DUP1 REVERT JUMPDEST DUP1 PUSH4 0x16ED0F72 GT PUSH2 0x22F JUMPI DUP1 PUSH4 0x16ED0F72 EQ PUSH2 0x35A JUMPI DUP1 PUSH4 0x171E44EA EQ PUSH2 0x37A JUMPI DUP1 PUSH4 0x1BE0819C EQ PUSH2 0x39A JUMPI DUP1 PUSH4 0x276B11DA EQ PUSH2 0x3B9 JUMPI DUP1 PUSH4 0x27927B3E EQ PUSH2 0x3D9 JUMPI DUP1 PUSH4 0x29161A00 EQ PUSH2 0x427 JUMPI PUSH1 0x0 DUP1 REVERT JUMPDEST DUP1 PUSH4 0x103C92B EQ PUSH2 0x26C JUMPI DUP1 PUSH4 0x99A019D EQ PUSH2 0x2B5 JUMPI DUP1 PUSH4 0xBEA440D EQ PUSH2 0x2CA JUMPI DUP1 PUSH4 0x14F6C3BE EQ PUSH2 0x2EC JUMPI DUP1 PUSH4 0x14FEAA9D EQ PUSH2 0x301 JUMPI JUMPDEST PUSH1 0x0 DUP1 REVERT JUMPDEST CALLVALUE DUP1 ISZERO PUSH2 0x278 JUMPI PUSH1 0x0 DUP1 REVERT JUMPDEST POP PUSH2 0x2A2 PUSH2 0x287 CALLDATASIZE PUSH1 0x4 PUSH2 0x321F JUMP JUMPDEST PUSH1 0x1 PUSH1 0x1 PUSH1 0xA0 SHL SUB AND PUSH1 0x0 SWAP1 DUP2 MSTORE PUSH1 0x9 PUSH1 0x20 MSTORE PUSH1 0x40 SWAP1 KECCAK256 SLOAD SWAP1 JUMP JUMPDEST PUSH1 0x40 MLOAD SWAP1 DUP2 MSTORE PUSH1 0x20 ADD JUMPDEST PUSH1 0x40 MLOAD DUP1 SWAP2 SUB SWAP1 RETURN JUMPDEST CALLVALUE DUP1 ISZERO PUSH2 0x2C1 JUMPI PUSH1 0x0 DUP1 REVERT JUMPDEST POP PUSH2 0x2A2 PUSH2 0x8EE JUMP JUMPDEST CALLVALUE DUP1 ISZERO PUSH2 0x2D6 JUMPI PUSH1 0x0 DUP1 REVERT JUMPDEST POP PUSH2 0x2EA PUSH2 0x2E5 CALLDATASIZE PUSH1 0x4 PUSH2 0x3241 JUMP JUMPDEST PUSH2 0x9A3 JUMP JUMPDEST STOP JUMPDEST CALLVALUE DUP1 ISZERO PUSH2 0x2F8 JUMPI PUSH1 0x0 DUP1 REVERT JUMPDEST POP PUSH2 0x2A2 PUSH2 0xB93 JUMP JUMPDEST CALLVALUE DUP1 ISZERO PUSH2 0x30D JUMPI PUSH1 0x0 DUP1 REVERT JUMPDEST POP PUSH2 0x34B PUSH2 0x31C CALLDATASIZE PUSH1 0x4 PUSH2 0x326D JUMP JUMPDEST PUSH1 0xB PUSH1 0x20 SWAP1 DUP2 MSTORE PUSH1 0x0 SWAP3 DUP4 MSTORE PUSH1 0x40 DUP1 DUP5 KECCAK256 SWAP1 SWAP2 MSTORE SWAP1 DUP3 MSTORE SWAP1 KECCAK256 DUP1 SLOAD PUSH1 0x1 DUP3 ADD SLOAD PUSH1 0x2 SWAP1 SWAP3 ADD SLOAD SWAP1 SWAP2 PUSH1 0xFF AND SWAP1 DUP4 JUMP JUMPDEST PUSH1 0x40 MLOAD PUSH2 0x2AC SWAP4 SWAP3 SWAP2 SWAP1 PUSH2 0x32AD JUMP JUMPDEST CALLVALUE DUP1 ISZERO PUSH2 0x366 JUMPI PUSH1 0x0 DUP1 REVERT JUMPDEST POP PUSH2 0x2EA PUSH2 0x375 CALLDATASIZE PUSH1 0x4 PUSH2 0x32E3 JUMP JUMPDEST PUSH1 0x7 SSTORE JUMP JUMPDEST CALLVALUE DUP1 ISZERO PUSH2 0x386 JUMPI PUSH1 0x0 DUP1 REVERT JUMPDEST POP PUSH2 0x2EA PUSH2 0x395 CALLDATASIZE PUSH1 0x4 PUSH2 0x321F JUMP JUMPDEST PUSH2 0xBCA JUMP JUMPDEST CALLVALUE DUP1 ISZERO PUSH2 0x3A6 JUMPI PUSH1 0x0 DUP1 REVERT JUMPDEST POP PUSH1 0x8 SLOAD PUSH1 0x1 PUSH1 0x1 PUSH1 0xA0 SHL SUB AND BALANCE PUSH2 0x2A2 JUMP JUMPDEST CALLVALUE DUP1 ISZERO PUSH2 0x3C5 JUMPI PUSH1 0x0 DUP1 REVERT JUMPDEST POP PUSH2 0x2A2 PUSH2 0x3D4 CALLDATASIZE PUSH1 0x4 PUSH2 0x32FC JUMP JUMPDEST PUSH2 0xC46 JUMP JUMPDEST CALLVALUE DUP1 ISZERO PUSH2 0x3E5 JUMPI PUSH1 0x0 DUP1 REVERT JUMPDEST POP PUSH2 0x40F PUSH2 0x3F4 CALLDATASIZE PUSH1 0x4 PUSH2 0x321F JUMP JUMPDEST PUSH1 0x3 PUSH1 0x20 MSTORE PUSH1 0x0 SWAP1 DUP2 MSTORE PUSH1 0x40 SWAP1 KECCAK256 SLOAD PUSH1 0x1 PUSH1 0x1 PUSH1 0xA0 SHL SUB AND DUP2 JUMP JUMPDEST PUSH1 0x40 MLOAD PUSH1 0x1 PUSH1 0x1 PUSH1 0xA0 SHL SUB SWAP1 SWAP2 AND DUP2 MSTORE PUSH1 0x20 ADD PUSH2 0x2AC JUMP JUMPDEST CALLVALUE DUP1 ISZERO PUSH2 0x433 JUMPI PUSH1 0x0 DUP1 REVERT JUMPDEST POP PUSH2 0x2A2 PUSH2 0x442 CALLDATASIZE PUSH1 0x4 PUSH2 0x32FC JUMP JUMPDEST PUSH1 0x1 PUSH1 0x20 SWAP1 DUP2 MSTORE PUSH1 0x0 SWAP3 DUP4 MSTORE PUSH1 0x40 DUP1 DUP5 KECCAK256 SWAP1 SWAP2 MSTORE SWAP1 DUP3 MSTORE SWAP1 KECCAK256 SLOAD DUP2 JUMP JUMPDEST CALLVALUE DUP1 ISZERO PUSH2 0x46B JUMPI PUSH1 0x0 DUP1 REVERT JUMPDEST POP PUSH2 0x2EA PUSH2 0x47A CALLDATASIZE PUSH1 0x4 PUSH2 0x321F JUMP JUMPDEST PUSH2 0xCCD JUMP JUMPDEST CALLVALUE DUP1 ISZERO PUSH2 0x48B JUMPI PUSH1 0x0 DUP1 REVERT JUMPDEST POP PUSH2 0x49F PUSH2 0x49A CALLDATASIZE PUSH1 0x4 PUSH2 0x32E3 JUMP JUMPDEST PUSH2 0xE2B JUMP JUMPDEST PUSH1 0x40 DUP1 MLOAD SWAP4 DUP5 MSTORE PUSH1 0x20 DUP5 ADD SWAP3 SWAP1 SWAP3 MSTORE SWAP1 DUP3 ADD MSTORE PUSH1 0x60 ADD PUSH2 0x2AC JUMP JUMPDEST CALLVALUE DUP1 ISZERO PUSH2 0x4C6 JUMPI PUSH1 0x0 DUP1 REVERT JUMPDEST POP PUSH1 0x11 SLOAD PUSH2 0x40F SWAP1 PUSH1 0x1 PUSH1 0x1 PUSH1 0xA0 SHL SUB AND DUP2 JUMP JUMPDEST CALLVALUE DUP1 ISZERO PUSH2 0x4E6 JUMPI PUSH1 0x0 DUP1 REVERT JUMPDEST POP PUSH2 0x2A2 PUSH2 0x4F5 CALLDATASIZE PUSH1 0x4 PUSH2 0x321F JUMP JUMPDEST PUSH1 0x1 PUSH1 0x1 PUSH1 0xA0 SHL SUB AND PUSH1 0x0 SWAP1 DUP2 MSTORE PUSH1 0x1 PUSH1 0x20 SWAP1 DUP2 MSTORE PUSH1 0x40 DUP1 DUP4 KECCAK256 CALLER DUP5 MSTORE SWAP1 SWAP2 MSTORE SWAP1 KECCAK256 SLOAD SWAP1 JUMP JUMPDEST CALLVALUE DUP1 ISZERO PUSH2 0x527 JUMPI PUSH1 0x0 DUP1 REVERT JUMPDEST POP PUSH2 0x2EA PUSH2 0x536 CALLDATASIZE PUSH1 0x4 PUSH2 0x3326 JUMP JUMPDEST PUSH2 0xE5E JUMP JUMPDEST CALLVALUE DUP1 ISZERO PUSH2 0x547 JUMPI PUSH1 0x0 DUP1 REVERT JUMPDEST POP PUSH2 0x40F PUSH2 0x556 CALLDATASIZE PUSH1 0x4 PUSH2 0x32E3 JUMP JUMPDEST PUSH2 0x11EB JUMP JUMPDEST CALLVALUE DUP1 ISZERO PUSH2 0x567 JUMPI PUSH1 0x0 DUP1 REVERT JUMPDEST POP PUSH1 0x6 SLOAD PUSH2 0x40F SWAP1 PUSH1 0x1 PUSH1 0x1 PUSH1 0xA0 SHL SUB AND DUP2 JUMP JUMPDEST CALLVALUE DUP1 ISZERO PUSH2 0x587 JUMPI PUSH1 0x0 DUP1 REVERT JUMPDEST POP PUSH2 0x2EA PUSH2 0x1215 JUMP JUMPDEST CALLVALUE DUP1 ISZERO PUSH2 0x59C JUMPI PUSH1 0x0 DUP1 REVERT JUMPDEST POP PUSH2 0x2A2 PUSH2 0x5AB CALLDATASIZE PUSH1 0x4 PUSH2 0x321F JUMP JUMPDEST PUSH2 0x1312 JUMP JUMPDEST CALLVALUE DUP1 ISZERO PUSH2 0x5BC JUMPI PUSH1 0x0 DUP1 REVERT JUMPDEST POP PUSH2 0x2EA PUSH2 0x134F JUMP JUMPDEST CALLVALUE DUP1 ISZERO PUSH2 0x5D1 JUMPI PUSH1 0x0 DUP1 REVERT JUMPDEST POP PUSH2 0x2A2 PUSH2 0x1384 JUMP JUMPDEST CALLVALUE DUP1 ISZERO PUSH2 0x5E6 JUMPI PUSH1 0x0 DUP1 REVERT JUMPDEST POP PUSH2 0x2EA PUSH2 0x5F5 CALLDATASIZE PUSH1 0x4 PUSH2 0x32E3 JUMP JUMPDEST PUSH2 0x13B2 JUMP JUMPDEST CALLVALUE DUP1 ISZERO PUSH2 0x606 JUMPI PUSH1 0x0 DUP1 REVERT JUMPDEST POP PUSH2 0x2EA PUSH2 0x1D28 JUMP JUMPDEST CALLVALUE DUP1 ISZERO PUSH2 0x61B JUMPI PUSH1 0x0 DUP1 REVERT JUMPDEST POP PUSH2 0x2A2 PUSH1 0x10 SLOAD DUP2 JUMP JUMPDEST CALLVALUE DUP1 ISZERO PUSH2 0x631 JUMPI PUSH1 0x0 DUP1 REVERT JUMPDEST POP PUSH2 0x645 PUSH2 0x640 CALLDATASIZE PUSH1 0x4 PUSH2 0x3326 JUMP JUMPDEST PUSH2 0x1D5E JUMP JUMPDEST PUSH1 0x40 DUP1 MLOAD SWAP4 DUP5 MSTORE PUSH1 0x20 DUP5 ADD SWAP3 SWAP1 SWAP3 MSTORE PUSH1 0x1 PUSH1 0x1 PUSH1 0xA0 SHL SUB AND SWAP1 DUP3 ADD MSTORE PUSH1 0x60 ADD PUSH2 0x2AC JUMP JUMPDEST CALLVALUE DUP1 ISZERO PUSH2 0x675 JUMPI PUSH1 0x0 DUP1 REVERT JUMPDEST POP PUSH2 0x2A2 PUSH2 0x684 CALLDATASIZE PUSH1 0x4 PUSH2 0x321F JUMP JUMPDEST PUSH1 0x1 PUSH1 0x1 PUSH1 0xA0 SHL SUB AND PUSH1 0x0 SWAP1 DUP2 MSTORE PUSH1 0xB PUSH1 0x20 SWAP1 DUP2 MSTORE PUSH1 0x40 DUP1 DUP4 KECCAK256 PUSH1 0xD SLOAD DUP5 MSTORE SWAP1 SWAP2 MSTORE SWAP1 KECCAK256 SLOAD SWAP1 JUMP JUMPDEST CALLVALUE DUP1 ISZERO PUSH2 0x6B8 JUMPI PUSH1 0x0 DUP1 REVERT JUMPDEST POP PUSH2 0x2A2 PUSH2 0x1DA9 JUMP JUMPDEST CALLVALUE DUP1 ISZERO PUSH2 0x6CD JUMPI PUSH1 0x0 DUP1 REVERT JUMPDEST POP PUSH2 0x2EA PUSH2 0x6DC CALLDATASIZE PUSH1 0x4 PUSH2 0x32FC JUMP JUMPDEST PUSH2 0x1DE2 JUMP JUMPDEST CALLVALUE DUP1 ISZERO PUSH2 0x6ED JUMPI PUSH1 0x0 DUP1 REVERT JUMPDEST POP PUSH1 0x0 SLOAD PUSH1 0x1 PUSH1 0x1 PUSH1 0xA0 SHL SUB AND PUSH2 0x40F JUMP JUMPDEST CALLVALUE DUP1 ISZERO PUSH2 0x70B JUMPI PUSH1 0x0 DUP1 REVERT JUMPDEST POP PUSH2 0x2EA PUSH2 0x1E3A JUMP JUMPDEST CALLVALUE DUP1 ISZERO PUSH2 0x720 JUMPI PUSH1 0x0 DUP1 REVERT JUMPDEST POP PUSH2 0x2A2 PUSH2 0x72F CALLDATASIZE PUSH1 0x4 PUSH2 0x321F JUMP JUMPDEST PUSH2 0x22C2 JUMP JUMPDEST CALLVALUE DUP1 ISZERO PUSH2 0x740 JUMPI PUSH1 0x0 DUP1 REVERT JUMPDEST POP PUSH2 0x2A2 PUSH2 0x74F CALLDATASIZE PUSH1 0x4 PUSH2 0x321F JUMP JUMPDEST PUSH1 0x2 PUSH1 0x20 MSTORE PUSH1 0x0 SWAP1 DUP2 MSTORE PUSH1 0x40 SWAP1 KECCAK256 SLOAD DUP2 JUMP JUMPDEST PUSH2 0x2EA PUSH2 0x2380 JUMP JUMPDEST CALLVALUE DUP1 ISZERO PUSH2 0x775 JUMPI PUSH1 0x0 DUP1 REVERT JUMPDEST POP PUSH2 0x2EA PUSH2 0x23E9 JUMP JUMPDEST CALLVALUE DUP1 ISZERO PUSH2 0x78A JUMPI PUSH1 0x0 DUP1 REVERT JUMPDEST POP PUSH2 0x793 PUSH2 0x27FD JUMP JUMPDEST PUSH1 0x40 MLOAD PUSH2 0x2AC SWAP2 SWAP1 PUSH2 0x3348 JUMP JUMPDEST CALLVALUE DUP1 ISZERO PUSH2 0x7AC JUMPI PUSH1 0x0 DUP1 REVERT JUMPDEST POP PUSH2 0x7C0 PUSH2 0x7BB CALLDATASIZE PUSH1 0x4 PUSH2 0x321F JUMP JUMPDEST PUSH2 0x2879 JUMP JUMPDEST PUSH1 0x40 MLOAD SWAP1 ISZERO ISZERO DUP2 MSTORE PUSH1 0x20 ADD PUSH2 0x2AC JUMP JUMPDEST CALLVALUE DUP1 ISZERO PUSH2 0x7DC JUMPI PUSH1 0x0 DUP1 REVERT JUMPDEST POP PUSH2 0x2A2 PUSH2 0x7EB CALLDATASIZE PUSH1 0x4 PUSH2 0x32E3 JUMP JUMPDEST PUSH2 0x28E3 JUMP JUMPDEST CALLVALUE DUP1 ISZERO PUSH2 0x7FC JUMPI PUSH1 0x0 DUP1 REVERT JUMPDEST POP PUSH2 0x810 PUSH2 0x80B CALLDATASIZE PUSH1 0x4 PUSH2 0x321F JUMP JUMPDEST PUSH2 0x2C20 JUMP JUMPDEST PUSH1 0x40 DUP1 MLOAD SWAP3 DUP4 MSTORE PUSH1 0x20 DUP4 ADD SWAP2 SWAP1 SWAP2 MSTORE ADD PUSH2 0x2AC JUMP JUMPDEST CALLVALUE DUP1 ISZERO PUSH2 0x831 JUMPI PUSH1 0x0 DUP1 REVERT JUMPDEST POP PUSH2 0x2A2 PUSH2 0x840 CALLDATASIZE PUSH1 0x4 PUSH2 0x321F JUMP JUMPDEST PUSH1 0x1 PUSH1 0x1 PUSH1 0xA0 SHL SUB AND PUSH1 0x0 SWAP1 DUP2 MSTORE PUSH1 0xB PUSH1 0x20 SWAP1 DUP2 MSTORE PUSH1 0x40 DUP1 DUP4 KECCAK256 PUSH1 0xD SLOAD DUP5 MSTORE SWAP1 SWAP2 MSTORE SWAP1 KECCAK256 PUSH1 0x2 ADD SLOAD SWAP1 JUMP JUMPDEST CALLVALUE DUP1 ISZERO PUSH2 0x877 JUMPI PUSH1 0x0 DUP1 REVERT JUMPDEST POP PUSH2 0x2EA PUSH2 0x886 CALLDATASIZE PUSH1 0x4 PUSH2 0x321F JUMP JUMPDEST PUSH2 0x2D21 JUMP JUMPDEST CALLVALUE DUP1 ISZERO PUSH2 0x897 JUMPI PUSH1 0x0 DUP1 REVERT JUMPDEST POP PUSH2 0x2A2 PUSH2 0x8A6 CALLDATASIZE PUSH1 0x4 PUSH2 0x321F JUMP JUMPDEST PUSH1 0x9 PUSH1 0x20 MSTORE PUSH1 0x0 SWAP1 DUP2 MSTORE PUSH1 0x40 SWAP1 KECCAK256 SLOAD DUP2 JUMP JUMPDEST CALLVALUE DUP1 ISZERO PUSH2 0x8C4 JUMPI PUSH1 0x0 DUP1 REVERT JUMPDEST POP PUSH2 0x40F PUSH2 0x8D3 CALLDATASIZE PUSH1 0x4 PUSH2 0x32E3 JUMP JUMPDEST PUSH2 0x2DB9 JUMP JUMPDEST CALLVALUE DUP1 ISZERO PUSH2 0x8E4 JUMPI PUSH1 0x0 DUP1 REVERT JUMPDEST POP PUSH2 0x2A2 PUSH1 0x7 SLOAD DUP2 JUMP JUMPDEST PUSH1 0x0 PUSH1 0xA PUSH1 0x0 PUSH1 0xD SLOAD DUP2 MSTORE PUSH1 0x20 ADD SWAP1 DUP2 MSTORE PUSH1 0x20 ADD PUSH1 0x0 KECCAK256 PUSH1 0xC PUSH1 0xD SLOAD DUP2 SLOAD DUP2 LT PUSH2 0x91A JUMPI PUSH2 0x91A PUSH2 0x338C JUMP JUMPDEST SWAP1 PUSH1 0x0 MSTORE PUSH1 0x20 PUSH1 0x0 KECCAK256 SWAP1 PUSH1 0x4 MUL ADD PUSH1 0x3 ADD PUSH1 0x1 PUSH1 0xC PUSH1 0xD SLOAD DUP2 SLOAD DUP2 LT PUSH2 0x942 JUMPI PUSH2 0x942 PUSH2 0x338C JUMP JUMPDEST SWAP1 PUSH1 0x0 MSTORE PUSH1 0x20 PUSH1 0x0 KECCAK256 SWAP1 PUSH1 0x4 MUL ADD PUSH1 0x3 ADD DUP1 SLOAD SWAP1 POP PUSH2 0x961 SWAP2 SWAP1 PUSH2 0x33B8 JUMP JUMPDEST DUP2 SLOAD DUP2 LT PUSH2 0x971 JUMPI PUSH2 0x971 PUSH2 0x338C JUMP JUMPDEST SWAP1 PUSH1 0x0 MSTORE PUSH1 0x20 PUSH1 0x0 KECCAK256 ADD SLOAD DUP2 SLOAD DUP2 LT PUSH2 0x98C JUMPI PUSH2 0x98C PUSH2 0x338C JUMP JUMPDEST SWAP1 PUSH1 0x0 MSTORE PUSH1 0x20 PUSH1 0x0 KECCAK256 SWAP1 PUSH1 0x3 MUL ADD PUSH1 0x0 ADD SLOAD SWAP1 POP SWAP1 JUMP JUMPDEST PUSH1 0x0 DUP3 GT PUSH2 0x9F8 JUMPI PUSH1 0x40 MLOAD PUSH3 0x461BCD PUSH1 0xE5 SHL DUP2 MSTORE PUSH1 0x20 PUSH1 0x4 DUP3 ADD MSTORE PUSH1 0x1A PUSH1 0x24 DUP3 ADD MSTORE PUSH32 0x416D6F756E74206D757374206265206D6F7265207468616E2030000000000000 PUSH1 0x44 DUP3 ADD MSTORE PUSH1 0x64 ADD JUMPDEST PUSH1 0x40 MLOAD DUP1 SWAP2 SUB SWAP1 REVERT JUMPDEST PUSH2 0xA01 DUP2 PUSH2 0x2879 JUMP JUMPDEST PUSH2 0xA4D JUMPI PUSH1 0x40 MLOAD PUSH3 0x461BCD PUSH1 0xE5 SHL DUP2 MSTORE PUSH1 0x20 PUSH1 0x4 DUP3 ADD MSTORE PUSH1 0x1D PUSH1 0x24 DUP3 ADD MSTORE PUSH32 0x546F6B656E2069732063757272656E746C79206E6F20616C6C6F776564000000 PUSH1 0x44 DUP3 ADD MSTORE PUSH1 0x64 ADD PUSH2 0x9EF JUMP JUMPDEST PUSH1 0x40 MLOAD PUSH4 0x23B872DD PUSH1 0xE0 SHL DUP2 MSTORE CALLER PUSH1 0x4 DUP3 ADD MSTORE ADDRESS PUSH1 0x24 DUP3 ADD MSTORE PUSH1 0x44 DUP2 ADD DUP4 SWAP1 MSTORE PUSH1 0x1 PUSH1 0x1 PUSH1 0xA0 SHL SUB DUP3 AND SWAP1 PUSH4 0x23B872DD SWAP1 PUSH1 0x64 ADD PUSH1 0x20 PUSH1 0x40 MLOAD DUP1 DUP4 SUB DUP2 PUSH1 0x0 DUP8 GAS CALL ISZERO DUP1 ISZERO PUSH2 0xAA0 JUMPI RETURNDATASIZE PUSH1 0x0 DUP1 RETURNDATACOPY RETURNDATASIZE PUSH1 0x0 REVERT JUMPDEST POP POP POP POP PUSH1 0x40 MLOAD RETURNDATASIZE PUSH1 0x1F NOT PUSH1 0x1F DUP3 ADD AND DUP3 ADD DUP1 PUSH1 0x40 MSTORE POP DUP2 ADD SWAP1 PUSH2 0xAC4 SWAP2 SWAP1 PUSH2 0x33CF JUMP JUMPDEST POP PUSH2 0xACF CALLER DUP3 PUSH2 0x2DC9 JUMP JUMPDEST PUSH1 0x1 PUSH1 0x1 PUSH1 0xA0 SHL SUB DUP2 AND PUSH1 0x0 SWAP1 DUP2 MSTORE PUSH1 0x1 PUSH1 0x20 SWAP1 DUP2 MSTORE PUSH1 0x40 DUP1 DUP4 KECCAK256 CALLER DUP5 MSTORE SWAP1 SWAP2 MSTORE SWAP1 KECCAK256 SLOAD PUSH2 0xAFE SWAP1 DUP4 SWAP1 PUSH2 0x33F1 JUMP JUMPDEST PUSH1 0x1 PUSH1 0x1 PUSH1 0xA0 SHL SUB DUP3 AND PUSH1 0x0 SWAP1 DUP2 MSTORE PUSH1 0x1 PUSH1 0x20 DUP2 DUP2 MSTORE PUSH1 0x40 DUP1 DUP5 KECCAK256 CALLER DUP6 MSTORE DUP3 MSTORE DUP1 DUP5 KECCAK256 SWAP5 SWAP1 SWAP5 SSTORE PUSH1 0x2 SWAP1 MSTORE SWAP2 SWAP1 KECCAK256 SLOAD EQ ISZERO PUSH2 0xB76 JUMPI PUSH1 0x4 DUP1 SLOAD PUSH1 0x1 DUP2 ADD DUP3 SSTORE PUSH1 0x0 SWAP2 SWAP1 SWAP2 MSTORE PUSH32 0x8A35ACFBC15FF81A39AE7D344FD709F28E8600B4AA8C65C6B64BFE7FE36BD19B ADD DUP1 SLOAD PUSH1 0x1 PUSH1 0x1 PUSH1 0xA0 SHL SUB NOT AND CALLER OR SWAP1 SSTORE JUMPDEST PUSH2 0xB7F CALLER PUSH2 0x22C2 JUMP JUMPDEST CALLER PUSH1 0x0 SWAP1 DUP2 MSTORE PUSH1 0x9 PUSH1 0x20 MSTORE PUSH1 0x40 SWAP1 KECCAK256 SSTORE POP POP JUMP JUMPDEST PUSH1 0x11 SLOAD PUSH1 0x0 SWAP1 DUP2 SWAP1 DUP2 SWAP1 PUSH2 0xBAF SWAP1 PUSH1 0x1 PUSH1 0x1 PUSH1 0xA0 SHL SUB AND PUSH2 0x2C20 JUMP JUMPDEST SWAP1 SWAP3 POP SWAP1 POP PUSH2 0xBC3 DUP3 PUSH5 0x2540BE400 PUSH2 0x3409 JUMP JUMPDEST SWAP3 POP POP POP SWAP1 JUMP JUMPDEST PUSH1 0x0 SLOAD PUSH1 0x1 PUSH1 0x1 PUSH1 0xA0 SHL SUB AND CALLER EQ PUSH2 0xBF4 JUMPI PUSH1 0x40 MLOAD PUSH3 0x461BCD PUSH1 0xE5 SHL DUP2 MSTORE PUSH1 0x4 ADD PUSH2 0x9EF SWAP1 PUSH2 0x3428 JUMP JUMPDEST PUSH1 0x5 DUP1 SLOAD PUSH1 0x1 DUP2 ADD DUP3 SSTORE PUSH1 0x0 SWAP2 SWAP1 SWAP2 MSTORE PUSH32 0x36B6384B5ECA791C62761152D0C79BB0604C104A5FB6F4EB0703F3154BB3DB0 ADD DUP1 SLOAD PUSH1 0x1 PUSH1 0x1 PUSH1 0xA0 SHL SUB NOT AND PUSH1 0x1 PUSH1 0x1 PUSH1 0xA0 SHL SUB SWAP3 SWAP1 SWAP3 AND SWAP2 SWAP1 SWAP2 OR SWAP1 SSTORE JUMP JUMPDEST PUSH1 0x1 PUSH1 0x1 PUSH1 0xA0 SHL SUB DUP3 AND PUSH1 0x0 SWAP1 DUP2 MSTORE PUSH1 0x2 PUSH1 0x20 MSTORE PUSH1 0x40 DUP2 KECCAK256 SLOAD PUSH2 0xC6B JUMPI POP PUSH1 0x0 PUSH2 0xCC7 JUMP JUMPDEST PUSH1 0x0 DUP1 PUSH2 0xC77 DUP5 PUSH2 0x2C20 JUMP JUMPDEST SWAP1 SWAP3 POP SWAP1 POP PUSH2 0xC87 DUP2 PUSH1 0xA PUSH2 0x3541 JUMP JUMPDEST PUSH1 0x1 PUSH1 0x1 PUSH1 0xA0 SHL SUB DUP1 DUP7 AND PUSH1 0x0 SWAP1 DUP2 MSTORE PUSH1 0x1 PUSH1 0x20 SWAP1 DUP2 MSTORE PUSH1 0x40 DUP1 DUP4 KECCAK256 SWAP4 DUP11 AND DUP4 MSTORE SWAP3 SWAP1 MSTORE KECCAK256 SLOAD PUSH2 0xCB8 SWAP1 DUP5 SWAP1 PUSH2 0x3409 JUMP JUMPDEST PUSH2 0xCC2 SWAP2 SWAP1 PUSH2 0x354D JUMP JUMPDEST SWAP3 POP POP POP JUMPDEST SWAP3 SWAP2 POP POP JUMP JUMPDEST PUSH1 0x1 PUSH1 0x1 PUSH1 0xA0 SHL SUB DUP2 AND PUSH1 0x0 SWAP1 DUP2 MSTORE PUSH1 0x1 PUSH1 0x20 SWAP1 DUP2 MSTORE PUSH1 0x40 DUP1 DUP4 KECCAK256 CALLER DUP5 MSTORE SWAP1 SWAP2 MSTORE SWAP1 KECCAK256 SLOAD DUP1 PUSH2 0xD3E JUMPI PUSH1 0x40 MLOAD PUSH3 0x461BCD PUSH1 0xE5 SHL DUP2 MSTORE PUSH1 0x20 PUSH1 0x4 DUP3 ADD MSTORE PUSH1 0x18 PUSH1 0x24 DUP3 ADD MSTORE PUSH32 0x436173682062616C616E63652063616E6E6F7420626520300000000000000000 PUSH1 0x44 DUP3 ADD MSTORE PUSH1 0x64 ADD PUSH2 0x9EF JUMP JUMPDEST PUSH1 0x40 MLOAD PUSH4 0xA9059CBB PUSH1 0xE0 SHL DUP2 MSTORE CALLER PUSH1 0x4 DUP3 ADD MSTORE PUSH1 0x24 DUP2 ADD DUP3 SWAP1 MSTORE PUSH1 0x1 PUSH1 0x1 PUSH1 0xA0 SHL SUB DUP4 AND SWAP1 PUSH4 0xA9059CBB SWAP1 PUSH1 0x44 ADD PUSH1 0x20 PUSH1 0x40 MLOAD DUP1 DUP4 SUB DUP2 PUSH1 0x0 DUP8 GAS CALL ISZERO DUP1 ISZERO PUSH2 0xD8B JUMPI RETURNDATASIZE PUSH1 0x0 DUP1 RETURNDATACOPY RETURNDATASIZE PUSH1 0x0 REVERT JUMPDEST POP POP POP POP PUSH1 0x40 MLOAD RETURNDATASIZE PUSH1 0x1F NOT PUSH1 0x1F DUP3 ADD AND DUP3 ADD DUP1 PUSH1 0x40 MSTORE POP DUP2 ADD SWAP1 PUSH2 0xDAF SWAP2 SWAP1 PUSH2 0x33CF JUMP JUMPDEST POP PUSH2 0xDBA CALLER DUP4 PUSH2 0xC46 JUMP JUMPDEST CALLER PUSH1 0x0 SWAP1 DUP2 MSTORE PUSH1 0x9 PUSH1 0x20 MSTORE PUSH1 0x40 DUP2 KECCAK256 DUP1 SLOAD SWAP1 SWAP2 SWAP1 PUSH2 0xDD9 SWAP1 DUP5 SWAP1 PUSH2 0x33B8 JUMP JUMPDEST SWAP1 SWAP2 SSTORE POP POP PUSH1 0x1 PUSH1 0x1 PUSH1 0xA0 SHL SUB DUP3 AND PUSH1 0x0 SWAP1 DUP2 MSTORE PUSH1 0x1 PUSH1 0x20 DUP2 DUP2 MSTORE PUSH1 0x40 DUP1 DUP5 KECCAK256 CALLER DUP6 MSTORE DUP3 MSTORE DUP1 DUP5 KECCAK256 DUP5 SWAP1 SSTORE PUSH1 0x2 SWAP1 SWAP2 MSTORE SWAP1 SWAP2 KECCAK256 SLOAD PUSH2 0xE17 SWAP2 SWAP1 PUSH2 0x33B8 JUMP JUMPDEST CALLER PUSH1 0x0 SWAP1 DUP2 MSTORE PUSH1 0x2 PUSH1 0x20 MSTORE PUSH1 0x40 SWAP1 KECCAK256 SSTORE POP POP JUMP JUMPDEST PUSH1 0xC DUP2 DUP2 SLOAD DUP2 LT PUSH2 0xE3B JUMPI PUSH1 0x0 DUP1 REVERT JUMPDEST PUSH1 0x0 SWAP2 DUP3 MSTORE PUSH1 0x20 SWAP1 SWAP2 KECCAK256 PUSH1 0x4 SWAP1 SWAP2 MUL ADD DUP1 SLOAD PUSH1 0x1 DUP3 ADD SLOAD PUSH1 0x2 SWAP1 SWAP3 ADD SLOAD SWAP1 SWAP3 POP DUP4 JUMP JUMPDEST CALLER PUSH2 0xE6A PUSH1 0xA TIMESTAMP PUSH2 0x33B8 JUMP JUMPDEST PUSH1 0xC PUSH1 0xD SLOAD DUP2 SLOAD DUP2 LT PUSH2 0xE7F JUMPI PUSH2 0xE7F PUSH2 0x338C JUMP JUMPDEST SWAP1 PUSH1 0x0 MSTORE PUSH1 0x20 PUSH1 0x0 KECCAK256 SWAP1 PUSH1 0x4 MUL ADD PUSH1 0x1 ADD SLOAD GT PUSH2 0xEAE JUMPI PUSH1 0x40 MLOAD PUSH3 0x461BCD PUSH1 0xE5 SHL DUP2 MSTORE PUSH1 0x4 ADD PUSH2 0x9EF SWAP1 PUSH2 0x356F JUMP JUMPDEST PUSH1 0x2 PUSH1 0x1 PUSH1 0x1 PUSH1 0xA0 SHL SUB DUP3 AND PUSH1 0x0 SWAP1 DUP2 MSTORE PUSH1 0xB PUSH1 0x20 SWAP1 DUP2 MSTORE PUSH1 0x40 DUP1 DUP4 KECCAK256 PUSH1 0xD SLOAD DUP5 MSTORE SWAP1 SWAP2 MSTORE SWAP1 KECCAK256 PUSH1 0x1 ADD SLOAD PUSH1 0xFF AND PUSH1 0x3 DUP2 GT ISZERO PUSH2 0xEED JUMPI PUSH2 0xEED PUSH2 0x3297 JUMP JUMPDEST EQ ISZERO PUSH2 0xF3B JUMPI PUSH1 0x40 MLOAD PUSH3 0x461BCD PUSH1 0xE5 SHL DUP2 MSTORE PUSH1 0x20 PUSH1 0x4 DUP3 ADD MSTORE PUSH1 0x1B PUSH1 0x24 DUP3 ADD MSTORE PUSH32 0x73656C6C6572206F66206F7074696F6E2063616E6E6F74206275790000000000 PUSH1 0x44 DUP3 ADD MSTORE PUSH1 0x64 ADD PUSH2 0x9EF JUMP JUMPDEST PUSH1 0x64 DUP3 LT ISZERO PUSH2 0xF7D JUMPI PUSH1 0x40 MLOAD PUSH3 0x461BCD PUSH1 0xE5 SHL DUP2 MSTORE PUSH1 0x20 PUSH1 0x4 DUP3 ADD MSTORE PUSH1 0xE PUSH1 0x24 DUP3 ADD MSTORE PUSH14 0x4D696E2073697A65203D2031303 PUSH1 0x94 SHL PUSH1 0x44 DUP3 ADD MSTORE PUSH1 0x64 ADD PUSH2 0x9EF JUMP JUMPDEST PUSH1 0x1 PUSH1 0x1 PUSH1 0xA0 SHL SUB DUP2 AND PUSH1 0x0 SWAP1 DUP2 MSTORE PUSH1 0x9 PUSH1 0x20 MSTORE PUSH1 0x40 SWAP1 KECCAK256 SLOAD DUP3 GT ISZERO PUSH2 0xFD7 JUMPI PUSH1 0x40 MLOAD PUSH3 0x461BCD PUSH1 0xE5 SHL DUP2 MSTORE PUSH1 0x20 PUSH1 0x4 DUP3 ADD MSTORE PUSH1 0xF PUSH1 0x24 DUP3 ADD MSTORE PUSH15 0xDCDEE840CADCDEEACED040C6C2E6D PUSH1 0x8B SHL PUSH1 0x44 DUP3 ADD MSTORE PUSH1 0x64 ADD PUSH2 0x9EF JUMP JUMPDEST PUSH1 0x1 PUSH1 0x1 PUSH1 0xA0 SHL SUB DUP2 AND PUSH1 0x0 SWAP1 DUP2 MSTORE PUSH1 0xB PUSH1 0x20 SWAP1 DUP2 MSTORE PUSH1 0x40 DUP1 DUP4 KECCAK256 PUSH1 0xD DUP1 SLOAD DUP6 MSTORE SWAP3 MSTORE DUP1 DUP4 KECCAK256 PUSH1 0x1 SWAP1 DUP2 ADD DUP1 SLOAD PUSH1 0xFF NOT AND SWAP1 SWAP2 OR SWAP1 SSTORE SWAP1 SLOAD DUP3 MSTORE DUP2 KECCAK256 PUSH1 0x2 ADD DUP1 SLOAD DUP5 SWAP3 SWAP1 PUSH2 0x1026 SWAP1 DUP5 SWAP1 PUSH2 0x33F1 JUMP JUMPDEST SWAP1 SWAP2 SSTORE POP POP PUSH1 0x1 PUSH1 0x1 PUSH1 0xA0 SHL SUB DUP2 AND PUSH1 0x0 SWAP1 DUP2 MSTORE PUSH1 0x9 PUSH1 0x20 MSTORE PUSH1 0x40 DUP2 KECCAK256 DUP1 SLOAD DUP5 SWAP3 SWAP1 PUSH2 0x1053 SWAP1 DUP5 SWAP1 PUSH2 0x33B8 JUMP JUMPDEST SWAP3 POP POP DUP2 SWAP1 SSTORE POP PUSH1 0x0 DUP4 PUSH1 0xC PUSH1 0xD SLOAD DUP2 SLOAD DUP2 LT PUSH2 0x1072 JUMPI PUSH2 0x1072 PUSH2 0x338C JUMP JUMPDEST SWAP1 PUSH1 0x0 MSTORE PUSH1 0x20 PUSH1 0x0 KECCAK256 SWAP1 PUSH1 0x4 MUL ADD PUSH1 0x0 ADD SLOAD DUP5 PUSH2 0x108F SWAP2 SWAP1 PUSH2 0x3409 JUMP JUMPDEST PUSH2 0x1099 SWAP2 SWAP1 PUSH2 0x354D JUMP JUMPDEST SWAP1 POP DUP1 PUSH1 0xC PUSH1 0xD SLOAD DUP2 SLOAD DUP2 LT PUSH2 0x10B1 JUMPI PUSH2 0x10B1 PUSH2 0x338C JUMP JUMPDEST SWAP1 PUSH1 0x0 MSTORE PUSH1 0x20 PUSH1 0x0 KECCAK256 SWAP1 PUSH1 0x4 MUL ADD PUSH1 0x2 ADD PUSH1 0x0 DUP3 DUP3 SLOAD PUSH2 0x10D1 SWAP2 SWAP1 PUSH2 0x33F1 JUMP JUMPDEST SWAP1 SWAP2 SSTORE POP POP PUSH1 0xD DUP1 SLOAD PUSH1 0x0 SWAP1 DUP2 MSTORE PUSH1 0xA PUSH1 0x20 SWAP1 DUP2 MSTORE PUSH1 0x40 DUP1 DUP4 KECCAK256 DUP2 MLOAD PUSH1 0x60 DUP2 ADD DUP4 MSTORE DUP10 DUP2 MSTORE DUP1 DUP5 ADD DUP8 DUP2 MSTORE PUSH1 0x1 PUSH1 0x1 PUSH1 0xA0 SHL SUB DUP10 DUP2 AND SWAP5 DUP4 ADD SWAP5 DUP6 MSTORE DUP4 SLOAD PUSH1 0x1 DUP1 DUP3 ADD DUP7 SSTORE SWAP5 DUP9 MSTORE SWAP6 SWAP1 SWAP7 KECCAK256 SWAP2 MLOAD PUSH1 0x3 SWAP1 SWAP6 MUL SWAP1 SWAP2 ADD SWAP4 DUP5 SSTORE MLOAD SWAP1 DUP4 ADD SSTORE MLOAD PUSH1 0x2 SWAP1 SWAP2 ADD DUP1 SLOAD PUSH1 0x1 PUSH1 0x1 PUSH1 0xA0 SHL SUB NOT AND SWAP2 SWAP1 SWAP3 AND OR SWAP1 SSTORE SLOAD PUSH1 0xC DUP1 SLOAD SWAP1 SWAP2 SWAP1 DUP2 LT PUSH2 0x115E JUMPI PUSH2 0x115E PUSH2 0x338C JUMP JUMPDEST PUSH1 0x0 SWAP2 DUP3 MSTORE PUSH1 0x20 SWAP1 SWAP2 KECCAK256 PUSH1 0x3 PUSH1 0x4 SWAP1 SWAP3 MUL ADD ADD SLOAD PUSH2 0x11DC JUMPI PUSH1 0xC PUSH1 0xD SLOAD DUP2 SLOAD DUP2 LT PUSH2 0x118B JUMPI PUSH2 0x118B PUSH2 0x338C JUMP JUMPDEST SWAP1 PUSH1 0x0 MSTORE PUSH1 0x20 PUSH1 0x0 KECCAK256 SWAP1 PUSH1 0x4 MUL ADD PUSH1 0x3 ADD PUSH1 0x1 PUSH1 0xA PUSH1 0x0 PUSH1 0xD SLOAD DUP2 MSTORE PUSH1 0x20 ADD SWAP1 DUP2 MSTORE PUSH1 0x20 ADD PUSH1 0x0 KECCAK256 DUP1 SLOAD SWAP1 POP PUSH2 0x11C1 SWAP2 SWAP1 PUSH2 0x33B8 JUMP JUMPDEST DUP2 SLOAD PUSH1 0x1 DUP2 ADD DUP4 SSTORE PUSH1 0x0 SWAP3 DUP4 MSTORE PUSH1 0x20 SWAP1 SWAP3 KECCAK256 SWAP1 SWAP2 ADD SSTORE PUSH2 0x11E5 JUMP JUMPDEST PUSH2 0x11E5 DUP5 PUSH2 0x2E35 JUMP JUMPDEST POP POP POP POP JUMP JUMPDEST PUSH1 0x5 DUP2 DUP2 SLOAD DUP2 LT PUSH2 0x11FB JUMPI PUSH1 0x0 DUP1 REVERT JUMPDEST PUSH1 0x0 SWAP2 DUP3 MSTORE PUSH1 0x20 SWAP1 SWAP2 KECCAK256 ADD SLOAD PUSH1 0x1 PUSH1 0x1 PUSH1 0xA0 SHL SUB AND SWAP1 POP DUP2 JUMP JUMPDEST PUSH1 0x0 SLOAD PUSH1 0x1 PUSH1 0x1 PUSH1 0xA0 SHL SUB AND CALLER EQ PUSH2 0x123F JUMPI PUSH1 0x40 MLOAD PUSH3 0x461BCD PUSH1 0xE5 SHL DUP2 MSTORE PUSH1 0x4 ADD PUSH2 0x9EF SWAP1 PUSH2 0x3428 JUMP JUMPDEST PUSH1 0x0 JUMPDEST PUSH1 0x4 SLOAD DUP2 LT ISZERO PUSH2 0x130F JUMPI PUSH1 0x0 PUSH1 0x4 DUP3 DUP2 SLOAD DUP2 LT PUSH2 0x1261 JUMPI PUSH2 0x1261 PUSH2 0x338C JUMP JUMPDEST PUSH1 0x0 SWAP2 DUP3 MSTORE PUSH1 0x20 DUP3 KECCAK256 ADD SLOAD PUSH1 0x1 PUSH1 0x1 PUSH1 0xA0 SHL SUB AND SWAP2 POP PUSH2 0x1280 DUP3 PUSH2 0x22C2 JUMP JUMPDEST PUSH1 0x6 SLOAD PUSH1 0x40 MLOAD PUSH4 0xA9059CBB PUSH1 0xE0 SHL DUP2 MSTORE PUSH1 0x1 PUSH1 0x1 PUSH1 0xA0 SHL SUB DUP6 DUP2 AND PUSH1 0x4 DUP4 ADD MSTORE PUSH1 0x24 DUP3 ADD DUP5 SWAP1 MSTORE SWAP3 SWAP4 POP SWAP2 AND SWAP1 PUSH4 0xA9059CBB SWAP1 PUSH1 0x44 ADD PUSH1 0x20 PUSH1 0x40 MLOAD DUP1 DUP4 SUB DUP2 PUSH1 0x0 DUP8 GAS CALL ISZERO DUP1 ISZERO PUSH2 0x12D5 JUMPI RETURNDATASIZE PUSH1 0x0 DUP1 RETURNDATACOPY RETURNDATASIZE PUSH1 0x0 REVERT JUMPDEST POP POP POP POP PUSH1 0x40 MLOAD RETURNDATASIZE PUSH1 0x1F NOT PUSH1 0x1F DUP3 ADD AND DUP3 ADD DUP1 PUSH1 0x40 MSTORE POP DUP2 ADD SWAP1 PUSH2 0x12F9 SWAP2 SWAP1 PUSH2 0x33CF JUMP JUMPDEST POP POP POP DUP1 DUP1 PUSH2 0x1307 SWAP1 PUSH2 0x35B5 JUMP JUMPDEST SWAP2 POP POP PUSH2 0x1242 JUMP JUMPDEST POP JUMP JUMPDEST PUSH1 0x1 PUSH1 0x1 PUSH1 0xA0 SHL SUB DUP2 AND PUSH1 0x0 SWAP1 DUP2 MSTORE PUSH1 0xB PUSH1 0x20 SWAP1 DUP2 MSTORE PUSH1 0x40 DUP1 DUP4 KECCAK256 PUSH1 0xD SLOAD DUP5 MSTORE SWAP1 SWAP2 MSTORE DUP2 KECCAK256 PUSH1 0x1 ADD SLOAD PUSH1 0xFF AND PUSH1 0x3 DUP2 GT ISZERO PUSH2 0xCC7 JUMPI PUSH2 0xCC7 PUSH2 0x3297 JUMP JUMPDEST PUSH1 0x11 SLOAD PUSH1 0x0 SWAP1 DUP2 SWAP1 PUSH2 0x1369 SWAP1 PUSH1 0x1 PUSH1 0x1 PUSH1 0xA0 SHL SUB AND PUSH2 0x2C20 JUMP JUMPDEST SWAP1 SWAP3 POP SWAP1 POP PUSH2 0x137D DUP3 PUSH5 0x2540BE400 PUSH2 0x3409 JUMP JUMPDEST PUSH1 0x7 SSTORE POP POP JUMP JUMPDEST PUSH1 0x0 PUSH1 0xC PUSH1 0xD SLOAD DUP2 SLOAD DUP2 LT PUSH2 0x139B JUMPI PUSH2 0x139B PUSH2 0x338C JUMP JUMPDEST SWAP1 PUSH1 0x0 MSTORE PUSH1 0x20 PUSH1 0x0 KECCAK256 SWAP1 PUSH1 0x4 MUL ADD PUSH1 0x2 ADD SLOAD SWAP1 POP SWAP1 JUMP JUMPDEST CALLER PUSH2 0x13BE PUSH1 0xA TIMESTAMP PUSH2 0x33B8 JUMP JUMPDEST PUSH1 0xC PUSH1 0xD SLOAD DUP2 SLOAD DUP2 LT PUSH2 0x13D3 JUMPI PUSH2 0x13D3 PUSH2 0x338C JUMP JUMPDEST SWAP1 PUSH1 0x0 MSTORE PUSH1 0x20 PUSH1 0x0 KECCAK256 SWAP1 PUSH1 0x4 MUL ADD PUSH1 0x1 ADD SLOAD GT PUSH2 0x1402 JUMPI PUSH1 0x40 MLOAD PUSH3 0x461BCD PUSH1 0xE5 SHL DUP2 MSTORE PUSH1 0x4 ADD PUSH2 0x9EF SWAP1 PUSH2 0x356F JUMP JUMPDEST PUSH1 0x64 DUP3 LT ISZERO PUSH2 0x1444 JUMPI PUSH1 0x40 MLOAD PUSH3 0x461BCD PUSH1 0xE5 SHL DUP2 MSTORE PUSH1 0x20 PUSH1 0x4 DUP3 ADD MSTORE PUSH1 0xE PUSH1 0x24 DUP3 ADD MSTORE PUSH14 0x4D696E2073697A65203D2031303 PUSH1 0x94 SHL PUSH1 0x44 DUP3 ADD MSTORE PUSH1 0x64 ADD PUSH2 0x9EF JUMP JUMPDEST PUSH1 0x1 PUSH1 0x1 PUSH1 0xA0 SHL SUB DUP2 AND PUSH1 0x0 SWAP1 DUP2 MSTORE PUSH1 0x9 PUSH1 0x20 MSTORE PUSH1 0x40 DUP2 KECCAK256 DUP1 SLOAD DUP5 SWAP3 SWAP1 PUSH2 0x146C SWAP1 DUP5 SWAP1 PUSH2 0x33B8 JUMP JUMPDEST SWAP3 POP POP DUP2 SWAP1 SSTORE POP PUSH1 0x0 DUP3 SWAP1 POP PUSH1 0x0 DUP1 DUP1 PUSH1 0x1 PUSH1 0xC PUSH1 0xD SLOAD DUP2 SLOAD DUP2 LT PUSH2 0x1493 JUMPI PUSH2 0x1493 PUSH2 0x338C JUMP JUMPDEST SWAP1 PUSH1 0x0 MSTORE PUSH1 0x20 PUSH1 0x0 KECCAK256 SWAP1 PUSH1 0x4 MUL ADD PUSH1 0x3 ADD DUP1 SLOAD SWAP1 POP PUSH2 0x14B2 SWAP2 SWAP1 PUSH2 0x33B8 JUMP JUMPDEST SWAP1 POP JUMPDEST DUP4 ISZERO PUSH2 0x1C89 JUMPI PUSH1 0xD SLOAD PUSH1 0x0 DUP2 DUP2 MSTORE PUSH1 0xA PUSH1 0x20 MSTORE PUSH1 0x40 SWAP1 KECCAK256 PUSH1 0xC DUP1 SLOAD SWAP2 SWAP3 SWAP1 SWAP2 DUP2 LT PUSH2 0x14E2 JUMPI PUSH2 0x14E2 PUSH2 0x338C JUMP JUMPDEST SWAP1 PUSH1 0x0 MSTORE PUSH1 0x20 PUSH1 0x0 KECCAK256 SWAP1 PUSH1 0x4 MUL ADD PUSH1 0x3 ADD DUP3 DUP2 SLOAD DUP2 LT PUSH2 0x1504 JUMPI PUSH2 0x1504 PUSH2 0x338C JUMP JUMPDEST SWAP1 PUSH1 0x0 MSTORE PUSH1 0x20 PUSH1 0x0 KECCAK256 ADD SLOAD DUP2 SLOAD DUP2 LT PUSH2 0x151F JUMPI PUSH2 0x151F PUSH2 0x338C JUMP JUMPDEST SWAP1 PUSH1 0x0 MSTORE PUSH1 0x20 PUSH1 0x0 KECCAK256 SWAP1 PUSH1 0x3 MUL ADD PUSH1 0x1 ADD SLOAD SWAP2 POP DUP2 DUP5 LT PUSH2 0x18FF JUMPI PUSH1 0xD SLOAD PUSH1 0x0 DUP2 DUP2 MSTORE PUSH1 0xA PUSH1 0x20 MSTORE PUSH1 0x40 DUP2 KECCAK256 PUSH1 0xC DUP1 SLOAD DUP7 SWAP5 PUSH1 0xB SWAP5 SWAP4 SWAP3 SWAP2 DUP2 LT PUSH2 0x1565 JUMPI PUSH2 0x1565 PUSH2 0x338C JUMP JUMPDEST SWAP1 PUSH1 0x0 MSTORE PUSH1 0x20 PUSH1 0x0 KECCAK256 SWAP1 PUSH1 0x4 MUL ADD PUSH1 0x3 ADD DUP6 DUP2 SLOAD DUP2 LT PUSH2 0x1587 JUMPI PUSH2 0x1587 PUSH2 0x338C JUMP JUMPDEST SWAP1 PUSH1 0x0 MSTORE PUSH1 0x20 PUSH1 0x0 KECCAK256 ADD SLOAD DUP2 SLOAD DUP2 LT PUSH2 0x15A2 JUMPI PUSH2 0x15A2 PUSH2 0x338C JUMP JUMPDEST PUSH1 0x0 SWAP2 DUP3 MSTORE PUSH1 0x20 DUP1 DUP4 KECCAK256 PUSH1 0x2 PUSH1 0x3 SWAP1 SWAP4 MUL ADD SWAP2 SWAP1 SWAP2 ADD SLOAD PUSH1 0x1 PUSH1 0x1 PUSH1 0xA0 SHL SUB AND DUP4 MSTORE DUP3 DUP2 ADD SWAP4 SWAP1 SWAP4 MSTORE PUSH1 0x40 SWAP2 DUP3 ADD DUP2 KECCAK256 PUSH1 0xD SLOAD DUP3 MSTORE SWAP1 SWAP3 MSTORE DUP2 KECCAK256 DUP1 SLOAD SWAP1 SWAP2 SWAP1 PUSH2 0x15EC SWAP1 DUP5 SWAP1 PUSH2 0x33F1 JUMP JUMPDEST SWAP3 POP POP DUP2 SWAP1 SSTORE POP PUSH1 0xC PUSH1 0xD SLOAD DUP2 SLOAD DUP2 LT PUSH2 0x1608 JUMPI PUSH2 0x1608 PUSH2 0x338C JUMP JUMPDEST SWAP1 PUSH1 0x0 MSTORE PUSH1 0x20 PUSH1 0x0 KECCAK256 SWAP1 PUSH1 0x4 MUL ADD PUSH1 0x0 ADD SLOAD PUSH1 0xA PUSH1 0x0 PUSH1 0xD SLOAD DUP2 MSTORE PUSH1 0x20 ADD SWAP1 DUP2 MSTORE PUSH1 0x20 ADD PUSH1 0x0 KECCAK256 PUSH1 0xC PUSH1 0xD SLOAD DUP2 SLOAD DUP2 LT PUSH2 0x1644 JUMPI PUSH2 0x1644 PUSH2 0x338C JUMP JUMPDEST SWAP1 PUSH1 0x0 MSTORE PUSH1 0x20 PUSH1 0x0 KECCAK256 SWAP1 PUSH1 0x4 MUL ADD PUSH1 0x3 ADD DUP4 DUP2 SLOAD DUP2 LT PUSH2 0x1666 JUMPI PUSH2 0x1666 PUSH2 0x338C JUMP JUMPDEST SWAP1 PUSH1 0x0 MSTORE PUSH1 0x20 PUSH1 0x0 KECCAK256 ADD SLOAD DUP2 SLOAD DUP2 LT PUSH2 0x1681 JUMPI PUSH2 0x1681 PUSH2 0x338C JUMP JUMPDEST SWAP1 PUSH1 0x0 MSTORE PUSH1 0x20 PUSH1 0x0 KECCAK256 SWAP1 PUSH1 0x3 MUL ADD PUSH1 0x0 ADD SLOAD DUP4 PUSH2 0x169E SWAP2 SWAP1 PUSH2 0x3409 JUMP JUMPDEST PUSH2 0x16A8 SWAP2 SWAP1 PUSH2 0x354D JUMP JUMPDEST PUSH1 0xD SLOAD PUSH1 0x0 DUP2 DUP2 MSTORE PUSH1 0xA PUSH1 0x20 MSTORE PUSH1 0x40 DUP2 KECCAK256 PUSH1 0xC DUP1 SLOAD PUSH1 0xB SWAP5 SWAP1 DUP2 LT PUSH2 0x16CF JUMPI PUSH2 0x16CF PUSH2 0x338C JUMP JUMPDEST SWAP1 PUSH1 0x0 MSTORE PUSH1 0x20 PUSH1 0x0 KECCAK256 SWAP1 PUSH1 0x4 MUL ADD PUSH1 0x3 ADD DUP6 DUP2 SLOAD DUP2 LT PUSH2 0x16F1 JUMPI PUSH2 0x16F1 PUSH2 0x338C JUMP JUMPDEST SWAP1 PUSH1 0x0 MSTORE PUSH1 0x20 PUSH1 0x0 KECCAK256 ADD SLOAD DUP2 SLOAD DUP2 LT PUSH2 0x170C JUMPI PUSH2 0x170C PUSH2 0x338C JUMP JUMPDEST PUSH1 0x0 SWAP2 DUP3 MSTORE PUSH1 0x20 DUP1 DUP4 KECCAK256 PUSH1 0x2 PUSH1 0x3 SWAP1 SWAP4 MUL ADD DUP3 ADD SLOAD PUSH1 0x1 PUSH1 0x1 PUSH1 0xA0 SHL SUB AND DUP5 MSTORE DUP4 DUP2 ADD SWAP5 SWAP1 SWAP5 MSTORE PUSH1 0x40 SWAP3 DUP4 ADD DUP3 KECCAK256 PUSH1 0xD SLOAD DUP4 MSTORE SWAP1 SWAP4 MSTORE SWAP1 DUP2 KECCAK256 SWAP1 SWAP2 ADD DUP1 SLOAD SWAP1 SWAP2 SWAP1 PUSH2 0x1758 SWAP1 DUP5 SWAP1 PUSH2 0x33B8 JUMP JUMPDEST SWAP1 SWAP2 SSTORE POP POP PUSH1 0xD SLOAD PUSH1 0x0 DUP2 DUP2 MSTORE PUSH1 0xA PUSH1 0x20 MSTORE PUSH1 0x40 SWAP1 KECCAK256 PUSH1 0xC DUP1 SLOAD SWAP2 SWAP3 SWAP1 SWAP2 DUP2 LT PUSH2 0x1784 JUMPI PUSH2 0x1784 PUSH2 0x338C JUMP JUMPDEST SWAP1 PUSH1 0x0 MSTORE PUSH1 0x20 PUSH1 0x0 KECCAK256 SWAP1 PUSH1 0x4 MUL ADD PUSH1 0x3 ADD DUP3 DUP2 SLOAD DUP2 LT PUSH2 0x17A6 JUMPI PUSH2 0x17A6 PUSH2 0x338C JUMP JUMPDEST SWAP1 PUSH1 0x0 MSTORE PUSH1 0x20 PUSH1 0x0 KECCAK256 ADD SLOAD DUP2 SLOAD DUP2 LT PUSH2 0x17C1 JUMPI PUSH2 0x17C1 PUSH2 0x338C JUMP JUMPDEST SWAP1 PUSH1 0x0 MSTORE PUSH1 0x20 PUSH1 0x0 KECCAK256 SWAP1 PUSH1 0x3 MUL ADD PUSH1 0x0 ADD SLOAD DUP3 PUSH2 0x17DE SWAP2 SWAP1 PUSH2 0x3409 JUMP JUMPDEST PUSH2 0x17E8 SWAP1 DUP5 PUSH2 0x33F1 JUMP JUMPDEST SWAP3 POP DUP2 PUSH1 0xC PUSH1 0xD SLOAD DUP2 SLOAD DUP2 LT PUSH2 0x1800 JUMPI PUSH2 0x1800 PUSH2 0x338C JUMP JUMPDEST SWAP1 PUSH1 0x0 MSTORE PUSH1 0x20 PUSH1 0x0 KECCAK256 SWAP1 PUSH1 0x4 MUL ADD PUSH1 0x2 ADD PUSH1 0x0 DUP3 DUP3 SLOAD PUSH2 0x1820 SWAP2 SWAP1 PUSH2 0x33B8 JUMP JUMPDEST SWAP1 SWAP2 SSTORE POP POP PUSH1 0xD SLOAD PUSH1 0x0 DUP2 DUP2 MSTORE PUSH1 0xA PUSH1 0x20 MSTORE PUSH1 0x40 DUP2 KECCAK256 PUSH1 0xC DUP1 SLOAD SWAP3 SWAP4 SWAP2 SWAP3 SWAP1 SWAP2 SWAP1 DUP2 LT PUSH2 0x184F JUMPI PUSH2 0x184F PUSH2 0x338C JUMP JUMPDEST SWAP1 PUSH1 0x0 MSTORE PUSH1 0x20 PUSH1 0x0 KECCAK256 SWAP1 PUSH1 0x4 MUL ADD PUSH1 0x3 ADD DUP4 DUP2 SLOAD DUP2 LT PUSH2 0x1871 JUMPI PUSH2 0x1871 PUSH2 0x338C JUMP JUMPDEST SWAP1 PUSH1 0x0 MSTORE PUSH1 0x20 PUSH1 0x0 KECCAK256 ADD SLOAD DUP2 SLOAD DUP2 LT PUSH2 0x188C JUMPI PUSH2 0x188C PUSH2 0x338C JUMP JUMPDEST SWAP1 PUSH1 0x0 MSTORE PUSH1 0x20 PUSH1 0x0 KECCAK256 SWAP1 PUSH1 0x3 MUL ADD PUSH1 0x1 ADD DUP2 SWAP1 SSTORE POP PUSH1 0xC PUSH1 0xD SLOAD DUP2 SLOAD DUP2 LT PUSH2 0x18B6 JUMPI PUSH2 0x18B6 PUSH2 0x338C JUMP JUMPDEST SWAP1 PUSH1 0x0 MSTORE PUSH1 0x20 PUSH1 0x0 KECCAK256 SWAP1 PUSH1 0x4 MUL ADD PUSH1 0x3 ADD DUP1 SLOAD DUP1 PUSH2 0x18D6 JUMPI PUSH2 0x18D6 PUSH2 0x35D0 JUMP JUMPDEST PUSH1 0x1 SWAP1 SUB DUP2 DUP2 SWAP1 PUSH1 0x0 MSTORE PUSH1 0x20 PUSH1 0x0 KECCAK256 ADD PUSH1 0x0 SWAP1 SSTORE SWAP1 SSTORE DUP2 DUP5 PUSH2 0x18F8 SWAP2 SWAP1 PUSH2 0x33B8 JUMP JUMPDEST SWAP4 POP PUSH2 0x1C77 JUMP JUMPDEST PUSH1 0xD SLOAD PUSH1 0x0 DUP2 DUP2 MSTORE PUSH1 0xA PUSH1 0x20 MSTORE PUSH1 0x40 DUP2 KECCAK256 PUSH1 0xC DUP1 SLOAD DUP9 SWAP5 PUSH1 0xB SWAP5 SWAP4 SWAP3 SWAP2 DUP2 LT PUSH2 0x192A JUMPI PUSH2 0x192A PUSH2 0x338C JUMP JUMPDEST SWAP1 PUSH1 0x0 MSTORE PUSH1 0x20 PUSH1 0x0 KECCAK256 SWAP1 PUSH1 0x4 MUL ADD PUSH1 0x3 ADD DUP6 DUP2 SLOAD DUP2 LT PUSH2 0x194C JUMPI PUSH2 0x194C PUSH2 0x338C JUMP JUMPDEST SWAP1 PUSH1 0x0 MSTORE PUSH1 0x20 PUSH1 0x0 KECCAK256 ADD SLOAD DUP2 SLOAD DUP2 LT PUSH2 0x1967 JUMPI PUSH2 0x1967 PUSH2 0x338C JUMP JUMPDEST PUSH1 0x0 SWAP2 DUP3 MSTORE PUSH1 0x20 DUP1 DUP4 KECCAK256 PUSH1 0x2 PUSH1 0x3 SWAP1 SWAP4 MUL ADD SWAP2 SWAP1 SWAP2 ADD SLOAD PUSH1 0x1 PUSH1 0x1 PUSH1 0xA0 SHL SUB AND DUP4 MSTORE DUP3 DUP2 ADD SWAP4 SWAP1 SWAP4 MSTORE PUSH1 0x40 SWAP2 DUP3 ADD DUP2 KECCAK256 PUSH1 0xD SLOAD DUP3 MSTORE SWAP1 SWAP3 MSTORE DUP2 KECCAK256 DUP1 SLOAD SWAP1 SWAP2 SWAP1 PUSH2 0x19B1 SWAP1 DUP5 SWAP1 PUSH2 0x33F1 JUMP JUMPDEST SWAP3 POP POP DUP2 SWAP1 SSTORE POP PUSH1 0xC PUSH1 0xD SLOAD DUP2 SLOAD DUP2 LT PUSH2 0x19CD JUMPI PUSH2 0x19CD PUSH2 0x338C JUMP JUMPDEST SWAP1 PUSH1 0x0 MSTORE PUSH1 0x20 PUSH1 0x0 KECCAK256 SWAP1 PUSH1 0x4 MUL ADD PUSH1 0x0 ADD SLOAD PUSH1 0xA PUSH1 0x0 PUSH1 0xD SLOAD DUP2 MSTORE PUSH1 0x20 ADD SWAP1 DUP2 MSTORE PUSH1 0x20 ADD PUSH1 0x0 KECCAK256 PUSH1 0xC PUSH1 0xD SLOAD DUP2 SLOAD DUP2 LT PUSH2 0x1A09 JUMPI PUSH2 0x1A09 PUSH2 0x338C JUMP JUMPDEST SWAP1 PUSH1 0x0 MSTORE PUSH1 0x20 PUSH1 0x0 KECCAK256 SWAP1 PUSH1 0x4 MUL ADD PUSH1 0x3 ADD DUP4 DUP2 SLOAD DUP2 LT PUSH2 0x1A2B JUMPI PUSH2 0x1A2B PUSH2 0x338C JUMP JUMPDEST SWAP1 PUSH1 0x0 MSTORE PUSH1 0x20 PUSH1 0x0 KECCAK256 ADD SLOAD DUP2 SLOAD DUP2 LT PUSH2 0x1A46 JUMPI PUSH2 0x1A46 PUSH2 0x338C JUMP JUMPDEST SWAP1 PUSH1 0x0 MSTORE PUSH1 0x20 PUSH1 0x0 KECCAK256 SWAP1 PUSH1 0x3 MUL ADD PUSH1 0x0 ADD SLOAD DUP6 PUSH2 0x1A63 SWAP2 SWAP1 PUSH2 0x3409 JUMP JUMPDEST PUSH2 0x1A6D SWAP2 SWAP1 PUSH2 0x354D JUMP JUMPDEST PUSH1 0xD SLOAD PUSH1 0x0 DUP2 DUP2 MSTORE PUSH1 0xA PUSH1 0x20 MSTORE PUSH1 0x40 DUP2 KECCAK256 PUSH1 0xC DUP1 SLOAD PUSH1 0xB SWAP5 SWAP1 DUP2 LT PUSH2 0x1A94 JUMPI PUSH2 0x1A94 PUSH2 0x338C JUMP JUMPDEST SWAP1 PUSH1 0x0 MSTORE PUSH1 0x20 PUSH1 0x0 KECCAK256 SWAP1 PUSH1 0x4 MUL ADD PUSH1 0x3 ADD DUP6 DUP2 SLOAD DUP2 LT PUSH2 0x1AB6 JUMPI PUSH2 0x1AB6 PUSH2 0x338C JUMP JUMPDEST SWAP1 PUSH1 0x0 MSTORE PUSH1 0x20 PUSH1 0x0 KECCAK256 ADD SLOAD DUP2 SLOAD DUP2 LT PUSH2 0x1AD1 JUMPI PUSH2 0x1AD1 PUSH2 0x338C JUMP JUMPDEST PUSH1 0x0 SWAP2 DUP3 MSTORE PUSH1 0x20 DUP1 DUP4 KECCAK256 PUSH1 0x2 PUSH1 0x3 SWAP1 SWAP4 MUL ADD DUP3 ADD SLOAD PUSH1 0x1 PUSH1 0x1 PUSH1 0xA0 SHL SUB AND DUP5 MSTORE DUP4 DUP2 ADD SWAP5 SWAP1 SWAP5 MSTORE PUSH1 0x40 SWAP3 DUP4 ADD DUP3 KECCAK256 PUSH1 0xD SLOAD DUP4 MSTORE SWAP1 SWAP4 MSTORE SWAP1 DUP2 KECCAK256 SWAP1 SWAP2 ADD DUP1 SLOAD SWAP1 SWAP2 SWAP1 PUSH2 0x1B1D SWAP1 DUP5 SWAP1 PUSH2 0x33B8 JUMP JUMPDEST SWAP1 SWAP2 SSTORE POP POP PUSH1 0xD SLOAD PUSH1 0x0 DUP2 DUP2 MSTORE PUSH1 0xA PUSH1 0x20 MSTORE PUSH1 0x40 SWAP1 KECCAK256 PUSH1 0xC DUP1 SLOAD SWAP2 SWAP3 SWAP1 SWAP2 DUP2 LT PUSH2 0x1B49 JUMPI PUSH2 0x1B49 PUSH2 0x338C JUMP JUMPDEST SWAP1 PUSH1 0x0 MSTORE PUSH1 0x20 PUSH1 0x0 KECCAK256 SWAP1 PUSH1 0x4 MUL ADD PUSH1 0x3 ADD DUP3 DUP2 SLOAD DUP2 LT PUSH2 0x1B6B JUMPI PUSH2 0x1B6B PUSH2 0x338C JUMP JUMPDEST SWAP1 PUSH1 0x0 MSTORE PUSH1 0x20 PUSH1 0x0 KECCAK256 ADD SLOAD DUP2 SLOAD DUP2 LT PUSH2 0x1B86 JUMPI PUSH2 0x1B86 PUSH2 0x338C JUMP JUMPDEST SWAP1 PUSH1 0x0 MSTORE PUSH1 0x20 PUSH1 0x0 KECCAK256 SWAP1 PUSH1 0x3 MUL ADD PUSH1 0x0 ADD SLOAD DUP5 PUSH2 0x1BA3 SWAP2 SWAP1 PUSH2 0x3409 JUMP JUMPDEST PUSH2 0x1BAD SWAP1 DUP5 PUSH2 0x33F1 JUMP JUMPDEST SWAP3 POP DUP4 PUSH1 0xC PUSH1 0xD SLOAD DUP2 SLOAD DUP2 LT PUSH2 0x1BC5 JUMPI PUSH2 0x1BC5 PUSH2 0x338C JUMP JUMPDEST SWAP1 PUSH1 0x0 MSTORE PUSH1 0x20 PUSH1 0x0 KECCAK256 SWAP1 PUSH1 0x4 MUL ADD PUSH1 0x2 ADD PUSH1 0x0 DUP3 DUP3 SLOAD PUSH2 0x1BE5 SWAP2 SWAP1 PUSH2 0x33B8 JUMP JUMPDEST SWAP1 SWAP2 SSTORE POP POP PUSH1 0xD SLOAD PUSH1 0x0 DUP2 DUP2 MSTORE PUSH1 0xA PUSH1 0x20 MSTORE PUSH1 0x40 SWAP1 KECCAK256 PUSH1 0xC DUP1 SLOAD DUP8 SWAP4 SWAP1 DUP2 LT PUSH2 0x1C10 JUMPI PUSH2 0x1C10 PUSH2 0x338C JUMP JUMPDEST SWAP1 PUSH1 0x0 MSTORE PUSH1 0x20 PUSH1 0x0 KECCAK256 SWAP1 PUSH1 0x4 MUL ADD PUSH1 0x3 ADD DUP4 DUP2 SLOAD DUP2 LT PUSH2 0x1C32 JUMPI PUSH2 0x1C32 PUSH2 0x338C JUMP JUMPDEST SWAP1 PUSH1 0x0 MSTORE PUSH1 0x20 PUSH1 0x0 KECCAK256 ADD SLOAD DUP2 SLOAD DUP2 LT PUSH2 0x1C4D JUMPI PUSH2 0x1C4D PUSH2 0x338C JUMP JUMPDEST SWAP1 PUSH1 0x0 MSTORE PUSH1 0x20 PUSH1 0x0 KECCAK256 SWAP1 PUSH1 0x3 MUL ADD PUSH1 0x1 ADD PUSH1 0x0 DUP3 DUP3 SLOAD PUSH2 0x1C6D SWAP2 SWAP1 PUSH2 0x33B8 JUMP JUMPDEST SWAP1 SWAP2 SSTORE POP PUSH1 0x0 SWAP5 POP POP JUMPDEST DUP1 PUSH2 0x1C81 DUP2 PUSH2 0x35E6 JUMP JUMPDEST SWAP2 POP POP PUSH2 0x14B5 JUMP JUMPDEST PUSH2 0x1C91 PUSH2 0x134F JUMP JUMPDEST PUSH1 0x7 SLOAD PUSH2 0x1C9E DUP2 DUP9 PUSH2 0x3409 JUMP JUMPDEST PUSH2 0x1CA8 SWAP1 DUP6 PUSH2 0x33F1 JUMP JUMPDEST PUSH2 0x1CB2 SWAP2 SWAP1 PUSH2 0x354D JUMP JUMPDEST PUSH1 0x1 PUSH1 0x1 PUSH1 0xA0 SHL SUB DUP7 AND PUSH1 0x0 SWAP1 DUP2 MSTORE PUSH1 0xB PUSH1 0x20 SWAP1 DUP2 MSTORE PUSH1 0x40 DUP1 DUP4 KECCAK256 PUSH1 0xD SLOAD DUP5 MSTORE SWAP1 SWAP2 MSTORE DUP2 KECCAK256 DUP1 SLOAD SWAP1 SWAP2 SWAP1 PUSH2 0x1CE7 SWAP1 DUP5 SWAP1 PUSH2 0x33F1 JUMP JUMPDEST SWAP1 SWAP2 SSTORE POP POP POP POP PUSH1 0x1 PUSH1 0x1 PUSH1 0xA0 SHL SUB SWAP3 SWAP1 SWAP3 AND PUSH1 0x0 SWAP1 DUP2 MSTORE PUSH1 0xB PUSH1 0x20 SWAP1 DUP2 MSTORE PUSH1 0x40 DUP1 DUP4 KECCAK256 PUSH1 0xD SLOAD DUP5 MSTORE SWAP1 SWAP2 MSTORE SWAP1 KECCAK256 PUSH1 0x1 ADD DUP1 SLOAD PUSH1 0xFF NOT AND PUSH1 0x2 OR SWAP1 SSTORE POP POP POP JUMP JUMPDEST PUSH1 0x0 SLOAD PUSH1 0x1 PUSH1 0x1 PUSH1 0xA0 SHL SUB AND CALLER EQ PUSH2 0x1D52 JUMPI PUSH1 0x40 MLOAD PUSH3 0x461BCD PUSH1 0xE5 SHL DUP2 MSTORE PUSH1 0x4 ADD PUSH2 0x9EF SWAP1 PUSH2 0x3428 JUMP JUMPDEST PUSH2 0x1D5C PUSH1 0x0 PUSH2 0x31B3 JUMP JUMPDEST JUMP JUMPDEST PUSH1 0xA PUSH1 0x20 MSTORE DUP2 PUSH1 0x0 MSTORE PUSH1 0x40 PUSH1 0x0 KECCAK256 DUP2 DUP2 SLOAD DUP2 LT PUSH2 0x1D7A JUMPI PUSH1 0x0 DUP1 REVERT JUMPDEST PUSH1 0x0 SWAP2 DUP3 MSTORE PUSH1 0x20 SWAP1 SWAP2 KECCAK256 PUSH1 0x3 SWAP1 SWAP2 MUL ADD DUP1 SLOAD PUSH1 0x1 DUP3 ADD SLOAD PUSH1 0x2 SWAP1 SWAP3 ADD SLOAD SWAP1 SWAP4 POP SWAP1 SWAP2 POP PUSH1 0x1 PUSH1 0x1 PUSH1 0xA0 SHL SUB AND DUP4 JUMP JUMPDEST PUSH1 0x0 TIMESTAMP PUSH1 0xC PUSH1 0xD SLOAD DUP2 SLOAD DUP2 LT PUSH2 0x1DC1 JUMPI PUSH2 0x1DC1 PUSH2 0x338C JUMP JUMPDEST SWAP1 PUSH1 0x0 MSTORE PUSH1 0x20 PUSH1 0x0 KECCAK256 SWAP1 PUSH1 0x4 MUL ADD PUSH1 0x1 ADD SLOAD PUSH2 0x1DDD SWAP2 SWAP1 PUSH2 0x33B8 JUMP JUMPDEST SWAP1 POP SWAP1 JUMP JUMPDEST PUSH1 0x0 SLOAD PUSH1 0x1 PUSH1 0x1 PUSH1 0xA0 SHL SUB AND CALLER EQ PUSH2 0x1E0C JUMPI PUSH1 0x40 MLOAD PUSH3 0x461BCD PUSH1 0xE5 SHL DUP2 MSTORE PUSH1 0x4 ADD PUSH2 0x9EF SWAP1 PUSH2 0x3428 JUMP JUMPDEST PUSH1 0x1 PUSH1 0x1 PUSH1 0xA0 SHL SUB SWAP2 DUP3 AND PUSH1 0x0 SWAP1 DUP2 MSTORE PUSH1 0x3 PUSH1 0x20 MSTORE PUSH1 0x40 SWAP1 KECCAK256 DUP1 SLOAD PUSH1 0x1 PUSH1 0x1 PUSH1 0xA0 SHL SUB NOT AND SWAP2 SWAP1 SWAP3 AND OR SWAP1 SSTORE JUMP JUMPDEST CALLER PUSH1 0x0 PUSH1 0x6 SLOAD PUSH1 0x1 PUSH1 0xA0 SHL SWAP1 DIV PUSH1 0xFF AND PUSH1 0x1 DUP2 GT ISZERO PUSH2 0x1E5B JUMPI PUSH2 0x1E5B PUSH2 0x3297 JUMP JUMPDEST EQ PUSH2 0x1EA8 JUMPI PUSH1 0x40 MLOAD PUSH3 0x461BCD PUSH1 0xE5 SHL DUP2 MSTORE PUSH1 0x20 PUSH1 0x4 DUP3 ADD MSTORE PUSH1 0x1E PUSH1 0x24 DUP3 ADD MSTORE PUSH32 0x636F6E747261637420627573792C2074727920616761696E206C617465720000 PUSH1 0x44 DUP3 ADD MSTORE PUSH1 0x64 ADD PUSH2 0x9EF JUMP JUMPDEST PUSH1 0x1 PUSH1 0x1 PUSH1 0x1 PUSH1 0xA0 SHL SUB DUP3 AND PUSH1 0x0 SWAP1 DUP2 MSTORE PUSH1 0xB PUSH1 0x20 SWAP1 DUP2 MSTORE PUSH1 0x40 DUP1 DUP4 KECCAK256 PUSH1 0xD SLOAD DUP5 MSTORE SWAP1 SWAP2 MSTORE SWAP1 KECCAK256 PUSH1 0x1 ADD SLOAD PUSH1 0xFF AND PUSH1 0x3 DUP2 GT ISZERO PUSH2 0x1EE7 JUMPI PUSH2 0x1EE7 PUSH2 0x3297 JUMP JUMPDEST EQ PUSH2 0x1F34 JUMPI PUSH1 0x40 MLOAD PUSH3 0x461BCD PUSH1 0xE5 SHL DUP2 MSTORE PUSH1 0x20 PUSH1 0x4 DUP3 ADD MSTORE PUSH1 0x1C PUSH1 0x24 DUP3 ADD MSTORE PUSH32 0x796F75206E65656420746F20627579206F7074696F6E20666972737400000000 PUSH1 0x44 DUP3 ADD MSTORE PUSH1 0x64 ADD PUSH2 0x9EF JUMP JUMPDEST PUSH1 0x1 PUSH1 0x1 PUSH1 0xA0 SHL SUB DUP2 AND PUSH1 0x0 SWAP1 DUP2 MSTORE PUSH1 0xB PUSH1 0x20 SWAP1 DUP2 MSTORE PUSH1 0x40 DUP1 DUP4 KECCAK256 PUSH1 0xD SLOAD DUP5 MSTORE SWAP1 SWAP2 MSTORE SWAP1 KECCAK256 PUSH1 0x2 ADD SLOAD PUSH2 0x1FB8 JUMPI PUSH1 0x40 MLOAD PUSH3 0x461BCD PUSH1 0xE5 SHL DUP2 MSTORE PUSH1 0x20 PUSH1 0x4 DUP3 ADD MSTORE PUSH1 0x26 PUSH1 0x24 DUP3 ADD MSTORE PUSH32 0x796F7572206F64657220686173206265656E2066696C6C6564206F722063616E PUSH1 0x44 DUP3 ADD MSTORE PUSH6 0x18D95B1B1959 PUSH1 0xD2 SHL PUSH1 0x64 DUP3 ADD MSTORE PUSH1 0x84 ADD PUSH2 0x9EF JUMP JUMPDEST PUSH1 0x6 DUP1 SLOAD PUSH1 0xFF PUSH1 0xA0 SHL NOT AND PUSH1 0x1 PUSH1 0xA0 SHL OR SWAP1 SSTORE PUSH1 0x1 PUSH1 0x1 PUSH1 0xA0 SHL SUB DUP2 AND PUSH1 0x0 DUP2 DUP2 MSTORE PUSH1 0xB PUSH1 0x20 SWAP1 DUP2 MSTORE PUSH1 0x40 DUP1 DUP4 KECCAK256 PUSH1 0xD SLOAD DUP5 MSTORE DUP3 MSTORE DUP1 DUP4 KECCAK256 PUSH1 0x2 ADD SLOAD SWAP4 DUP4 MSTORE PUSH1 0x9 SWAP1 SWAP2 MSTORE DUP2 KECCAK256 DUP1 SLOAD SWAP1 SWAP2 SWAP1 PUSH2 0x200E SWAP1 DUP5 SWAP1 PUSH2 0x33F1 JUMP JUMPDEST SWAP1 SWAP2 SSTORE POP POP PUSH1 0x1 PUSH1 0x1 PUSH1 0xA0 SHL SUB DUP2 AND PUSH1 0x0 SWAP1 DUP2 MSTORE PUSH1 0xB PUSH1 0x20 SWAP1 DUP2 MSTORE PUSH1 0x40 DUP1 DUP4 KECCAK256 PUSH1 0xD DUP1 SLOAD DUP6 MSTORE SWAP3 MSTORE DUP3 KECCAK256 PUSH1 0x2 ADD DUP3 SWAP1 SSTORE SLOAD PUSH1 0xC DUP1 SLOAD SWAP1 SWAP2 SWAP1 DUP2 LT PUSH2 0x2054 JUMPI PUSH2 0x2054 PUSH2 0x338C JUMP JUMPDEST SWAP1 PUSH1 0x0 MSTORE PUSH1 0x20 PUSH1 0x0 KECCAK256 SWAP1 PUSH1 0x4 MUL ADD PUSH1 0x3 ADD DUP1 SLOAD DUP1 PUSH1 0x20 MUL PUSH1 0x20 ADD PUSH1 0x40 MLOAD SWAP1 DUP2 ADD PUSH1 0x40 MSTORE DUP1 SWAP3 SWAP2 SWAP1 DUP2 DUP2 MSTORE PUSH1 0x20 ADD DUP3 DUP1 SLOAD DUP1 ISZERO PUSH2 0x20AF JUMPI PUSH1 0x20 MUL DUP3 ADD SWAP2 SWAP1 PUSH1 0x0 MSTORE PUSH1 0x20 PUSH1 0x0 KECCAK256 SWAP1 JUMPDEST DUP2 SLOAD DUP2 MSTORE PUSH1 0x20 ADD SWAP1 PUSH1 0x1 ADD SWAP1 DUP1 DUP4 GT PUSH2 0x209B JUMPI JUMPDEST POP POP POP POP POP SWAP1 POP PUSH1 0x0 DUP1 JUMPDEST DUP3 MLOAD DUP2 LT ISZERO PUSH2 0x2239 JUMPI DUP4 PUSH1 0x1 PUSH1 0x1 PUSH1 0xA0 SHL SUB AND PUSH1 0xA PUSH1 0x0 PUSH1 0xD SLOAD DUP2 MSTORE PUSH1 0x20 ADD SWAP1 DUP2 MSTORE PUSH1 0x20 ADD PUSH1 0x0 KECCAK256 DUP5 DUP4 DUP2 MLOAD DUP2 LT PUSH2 0x20F4 JUMPI PUSH2 0x20F4 PUSH2 0x338C JUMP JUMPDEST PUSH1 0x20 MUL PUSH1 0x20 ADD ADD MLOAD DUP2 SLOAD DUP2 LT PUSH2 0x210C JUMPI PUSH2 0x210C PUSH2 0x338C JUMP JUMPDEST PUSH1 0x0 SWAP2 DUP3 MSTORE PUSH1 0x20 SWAP1 SWAP2 KECCAK256 PUSH1 0x2 PUSH1 0x3 SWAP1 SWAP3 MUL ADD ADD SLOAD PUSH1 0x1 PUSH1 0x1 PUSH1 0xA0 SHL SUB AND EQ PUSH2 0x219D JUMPI DUP3 DUP2 DUP2 MLOAD DUP2 LT PUSH2 0x2140 JUMPI PUSH2 0x2140 PUSH2 0x338C JUMP JUMPDEST PUSH1 0x20 MUL PUSH1 0x20 ADD ADD MLOAD PUSH1 0xC PUSH1 0xD SLOAD DUP2 SLOAD DUP2 LT PUSH2 0x215D JUMPI PUSH2 0x215D PUSH2 0x338C JUMP JUMPDEST SWAP1 PUSH1 0x0 MSTORE PUSH1 0x20 PUSH1 0x0 KECCAK256 SWAP1 PUSH1 0x4 MUL ADD PUSH1 0x3 ADD DUP4 DUP2 SLOAD DUP2 LT PUSH2 0x217F JUMPI PUSH2 0x217F PUSH2 0x338C JUMP JUMPDEST PUSH1 0x0 SWAP2 DUP3 MSTORE PUSH1 0x20 SWAP1 SWAP2 KECCAK256 ADD SSTORE DUP2 PUSH2 0x2195 DUP2 PUSH2 0x35B5 JUMP JUMPDEST SWAP3 POP POP PUSH2 0x2227 JUMP JUMPDEST PUSH1 0xD SLOAD PUSH1 0x0 SWAP1 DUP2 MSTORE PUSH1 0xA PUSH1 0x20 MSTORE PUSH1 0x40 SWAP1 KECCAK256 DUP4 MLOAD DUP5 SWAP1 DUP4 SWAP1 DUP2 LT PUSH2 0x21C2 JUMPI PUSH2 0x21C2 PUSH2 0x338C JUMP JUMPDEST PUSH1 0x20 MUL PUSH1 0x20 ADD ADD MLOAD DUP2 SLOAD DUP2 LT PUSH2 0x21DA JUMPI PUSH2 0x21DA PUSH2 0x338C JUMP JUMPDEST SWAP1 PUSH1 0x0 MSTORE PUSH1 0x20 PUSH1 0x0 KECCAK256 SWAP1 PUSH1 0x3 MUL ADD PUSH1 0x1 ADD SLOAD PUSH1 0xC PUSH1 0xD SLOAD DUP2 SLOAD DUP2 LT PUSH2 0x2201 JUMPI PUSH2 0x2201 PUSH2 0x338C JUMP JUMPDEST SWAP1 PUSH1 0x0 MSTORE PUSH1 0x20 PUSH1 0x0 KECCAK256 SWAP1 PUSH1 0x4 MUL ADD PUSH1 0x2 ADD PUSH1 0x0 DUP3 DUP3 SLOAD PUSH2 0x2221 SWAP2 SWAP1 PUSH2 0x33B8 JUMP JUMPDEST SWAP1 SWAP2 SSTORE POP POP JUMPDEST DUP1 PUSH2 0x2231 DUP2 PUSH2 0x35B5 JUMP JUMPDEST SWAP2 POP POP PUSH2 0x20BA JUMP JUMPDEST POP PUSH1 0x0 JUMPDEST DUP2 DUP4 MLOAD PUSH2 0x224A SWAP2 SWAP1 PUSH2 0x33B8 JUMP JUMPDEST DUP2 LT ISZERO PUSH2 0x22AF JUMPI PUSH1 0xC PUSH1 0xD SLOAD DUP2 SLOAD DUP2 LT PUSH2 0x2266 JUMPI PUSH2 0x2266 PUSH2 0x338C JUMP JUMPDEST SWAP1 PUSH1 0x0 MSTORE PUSH1 0x20 PUSH1 0x0 KECCAK256 SWAP1 PUSH1 0x4 MUL ADD PUSH1 0x3 ADD DUP1 SLOAD DUP1 PUSH2 0x2286 JUMPI PUSH2 0x2286 PUSH2 0x35D0 JUMP JUMPDEST PUSH1 0x1 SWAP1 SUB DUP2 DUP2 SWAP1 PUSH1 0x0 MSTORE PUSH1 0x20 PUSH1 0x0 KECCAK256 ADD PUSH1 0x0 SWAP1 SSTORE SWAP1 SSTORE DUP1 DUP1 PUSH2 0x22A7 SWAP1 PUSH2 0x35B5 JUMP JUMPDEST SWAP2 POP POP PUSH2 0x223D JUMP JUMPDEST POP POP PUSH1 0x6 DUP1 SLOAD PUSH1 0xFF PUSH1 0xA0 SHL NOT AND SWAP1 SSTORE POP POP JUMP JUMPDEST PUSH1 0x1 PUSH1 0x1 PUSH1 0xA0 SHL SUB DUP2 AND PUSH1 0x0 SWAP1 DUP2 MSTORE PUSH1 0x2 PUSH1 0x20 MSTORE PUSH1 0x40 DUP2 KECCAK256 SLOAD DUP2 SWAP1 PUSH2 0x231D JUMPI PUSH1 0x40 MLOAD PUSH3 0x461BCD PUSH1 0xE5 SHL DUP2 MSTORE PUSH1 0x20 PUSH1 0x4 DUP3 ADD MSTORE PUSH1 0x11 PUSH1 0x24 DUP3 ADD MSTORE PUSH17 0x4E6F20746F6B656E73207374616B656421 PUSH1 0x78 SHL PUSH1 0x44 DUP3 ADD MSTORE PUSH1 0x64 ADD PUSH2 0x9EF JUMP JUMPDEST PUSH1 0x0 JUMPDEST PUSH1 0x5 SLOAD DUP2 LT ISZERO PUSH2 0x2379 JUMPI PUSH2 0x235B DUP5 PUSH1 0x5 DUP4 DUP2 SLOAD DUP2 LT PUSH2 0x2341 JUMPI PUSH2 0x2341 PUSH2 0x338C JUMP JUMPDEST PUSH1 0x0 SWAP2 DUP3 MSTORE PUSH1 0x20 SWAP1 SWAP2 KECCAK256 ADD SLOAD PUSH1 0x1 PUSH1 0x1 PUSH1 0xA0 SHL SUB AND PUSH2 0xC46 JUMP JUMPDEST PUSH2 0x2365 SWAP1 DUP4 PUSH2 0x33F1 JUMP JUMPDEST SWAP2 POP DUP1 PUSH2 0x2371 DUP2 PUSH2 0x35B5 JUMP JUMPDEST SWAP2 POP POP PUSH2 0x2320 JUMP JUMPDEST POP SWAP3 SWAP2 POP POP JUMP JUMPDEST PUSH2 0x1F4 CALLVALUE LT ISZERO PUSH2 0x23C3 JUMPI PUSH1 0x40 MLOAD PUSH3 0x461BCD PUSH1 0xE5 SHL DUP2 MSTORE PUSH1 0x20 PUSH1 0x4 DUP3 ADD MSTORE PUSH1 0xE PUSH1 0x24 DUP3 ADD MSTORE PUSH14 0x4D696E2073697A65203D2035303 PUSH1 0x94 SHL PUSH1 0x44 DUP3 ADD MSTORE PUSH1 0x64 ADD PUSH2 0x9EF JUMP JUMPDEST CALLER PUSH1 0x0 SWAP1 DUP2 MSTORE PUSH1 0x9 PUSH1 0x20 MSTORE PUSH1 0x40 DUP2 KECCAK256 DUP1 SLOAD CALLVALUE SWAP3 SWAP1 PUSH2 0x23E2 SWAP1 DUP5 SWAP1 PUSH2 0x33F1 JUMP JUMPDEST SWAP1 SWAP2 SSTORE POP POP JUMP JUMPDEST CALLER PUSH1 0x0 DUP2 DUP2 MSTORE PUSH1 0xB PUSH1 0x20 SWAP1 DUP2 MSTORE PUSH1 0x40 DUP1 DUP4 KECCAK256 PUSH1 0xD SLOAD DUP5 MSTORE SWAP1 SWAP2 MSTORE SWAP1 KECCAK256 PUSH1 0x1 ADD SLOAD PUSH1 0xFF AND PUSH1 0x2 DUP2 PUSH1 0x3 DUP2 GT ISZERO PUSH2 0x2420 JUMPI PUSH2 0x2420 PUSH2 0x3297 JUMP JUMPDEST EQ DUP1 PUSH2 0x243D JUMPI POP PUSH1 0x1 DUP2 PUSH1 0x3 DUP2 GT ISZERO PUSH2 0x243B JUMPI PUSH2 0x243B PUSH2 0x3297 JUMP JUMPDEST EQ JUMPDEST PUSH2 0x2480 JUMPI PUSH1 0x40 MLOAD PUSH3 0x461BCD PUSH1 0xE5 SHL DUP2 MSTORE PUSH1 0x20 PUSH1 0x4 DUP3 ADD MSTORE PUSH1 0x14 PUSH1 0x24 DUP3 ADD MSTORE PUSH20 0x2CB7BA903430BB32903737903837B9B4BA34B7B7 PUSH1 0x61 SHL PUSH1 0x44 DUP3 ADD MSTORE PUSH1 0x64 ADD PUSH2 0x9EF JUMP JUMPDEST TIMESTAMP PUSH1 0xC PUSH1 0xD SLOAD DUP2 SLOAD DUP2 LT PUSH2 0x2496 JUMPI PUSH2 0x2496 PUSH2 0x338C JUMP JUMPDEST SWAP1 PUSH1 0x0 MSTORE PUSH1 0x20 PUSH1 0x0 KECCAK256 SWAP1 PUSH1 0x4 MUL ADD PUSH1 0x1 ADD SLOAD GT ISZERO PUSH2 0x24F6 JUMPI PUSH1 0x40 MLOAD PUSH3 0x461BCD PUSH1 0xE5 SHL DUP2 MSTORE PUSH1 0x20 PUSH1 0x4 DUP3 ADD MSTORE PUSH1 0x1D PUSH1 0x24 DUP3 ADD MSTORE PUSH32 0x43616E6E6F74206578657263697365206265666F726520657870697279000000 PUSH1 0x44 DUP3 ADD MSTORE PUSH1 0x64 ADD PUSH2 0x9EF JUMP JUMPDEST PUSH1 0x3 DUP2 PUSH1 0x3 DUP2 GT ISZERO PUSH2 0x250A JUMPI PUSH2 0x250A PUSH2 0x3297 JUMP JUMPDEST EQ ISZERO PUSH2 0x2558 JUMPI PUSH1 0x40 MLOAD PUSH3 0x461BCD PUSH1 0xE5 SHL DUP2 MSTORE PUSH1 0x20 PUSH1 0x4 DUP3 ADD MSTORE PUSH1 0x17 PUSH1 0x24 DUP3 ADD MSTORE PUSH32 0x596F7520616C7265616479206578636572636973656420000000000000000000 PUSH1 0x44 DUP3 ADD MSTORE PUSH1 0x64 ADD PUSH2 0x9EF JUMP JUMPDEST PUSH1 0x1 PUSH1 0x1 PUSH1 0xA0 SHL SUB DUP3 AND PUSH1 0x0 SWAP1 DUP2 MSTORE PUSH1 0xB PUSH1 0x20 SWAP1 DUP2 MSTORE PUSH1 0x40 DUP1 DUP4 KECCAK256 PUSH1 0xD SLOAD DUP1 DUP6 MSTORE SWAP3 MSTORE DUP3 KECCAK256 SLOAD PUSH1 0xC DUP1 SLOAD SWAP2 SWAP4 SWAP3 SWAP1 SWAP2 DUP2 LT PUSH2 0x2595 JUMPI PUSH2 0x2595 PUSH2 0x338C JUMP JUMPDEST PUSH1 0x0 SWAP2 DUP3 MSTORE PUSH1 0x20 SWAP1 SWAP2 KECCAK256 PUSH1 0x4 SWAP1 SWAP2 MUL ADD SLOAD SWAP1 POP PUSH1 0x1 DUP4 PUSH1 0x3 DUP2 GT ISZERO PUSH2 0x25BC JUMPI PUSH2 0x25BC PUSH2 0x3297 JUMP JUMPDEST EQ ISZERO PUSH2 0x26A0 JUMPI PUSH1 0x0 DUP3 GT PUSH2 0x2625 JUMPI PUSH1 0x40 MLOAD PUSH3 0x461BCD PUSH1 0xE5 SHL DUP2 MSTORE PUSH1 0x20 PUSH1 0x4 DUP3 ADD MSTORE PUSH1 0x2A PUSH1 0x24 DUP3 ADD MSTORE PUSH32 0x4E6F206F6E652073656C6C20796F75722062696420616E64206E6F7468696E67 PUSH1 0x44 DUP3 ADD MSTORE PUSH10 0x20746F20657870697265 PUSH1 0xB0 SHL PUSH1 0x64 DUP3 ADD MSTORE PUSH1 0x84 ADD PUSH2 0x9EF JUMP JUMPDEST DUP1 PUSH1 0x7 SLOAD LT PUSH2 0x266A JUMPI PUSH1 0x40 MLOAD PUSH3 0x461BCD PUSH1 0xE5 SHL DUP2 MSTORE PUSH1 0x20 PUSH1 0x4 DUP3 ADD MSTORE PUSH1 0x11 PUSH1 0x24 DUP3 ADD MSTORE PUSH17 0x45787069726520776F727468207A65726F PUSH1 0x78 SHL PUSH1 0x44 DUP3 ADD MSTORE PUSH1 0x64 ADD PUSH2 0x9EF JUMP JUMPDEST PUSH1 0x1 PUSH1 0x1 PUSH1 0xA0 SHL SUB DUP5 AND PUSH1 0x0 SWAP1 DUP2 MSTORE PUSH1 0xB PUSH1 0x20 SWAP1 DUP2 MSTORE PUSH1 0x40 DUP1 DUP4 KECCAK256 PUSH1 0xD SLOAD DUP5 MSTORE SWAP1 SWAP2 MSTORE SWAP1 KECCAK256 PUSH1 0x2 ADD SLOAD ISZERO PUSH2 0x26A0 JUMPI PUSH2 0x26A0 PUSH2 0x1E3A JUMP JUMPDEST PUSH1 0x2 DUP4 PUSH1 0x3 DUP2 GT ISZERO PUSH2 0x26B4 JUMPI PUSH2 0x26B4 PUSH2 0x3297 JUMP JUMPDEST EQ ISZERO PUSH2 0x2745 JUMPI DUP1 PUSH1 0x7 SLOAD LT ISZERO PUSH2 0x270E JUMPI PUSH2 0x26CE DUP2 DUP4 PUSH2 0x354D JUMP JUMPDEST PUSH1 0x1 PUSH1 0x1 PUSH1 0xA0 SHL SUB DUP6 AND PUSH1 0x0 SWAP1 DUP2 MSTORE PUSH1 0x9 PUSH1 0x20 MSTORE PUSH1 0x40 DUP2 KECCAK256 DUP1 SLOAD SWAP1 SWAP2 SWAP1 PUSH2 0x26F6 SWAP1 DUP5 SWAP1 PUSH2 0x33F1 JUMP JUMPDEST SWAP1 SWAP2 SSTORE POP PUSH2 0x2706 SWAP1 POP DUP2 DUP4 PUSH2 0x354D JUMP JUMPDEST PUSH1 0x10 SSTORE PUSH2 0x27C6 JUMP JUMPDEST PUSH1 0x1 PUSH1 0x1 PUSH1 0xA0 SHL SUB DUP5 AND PUSH1 0x0 SWAP1 DUP2 MSTORE PUSH1 0x9 PUSH1 0x20 MSTORE PUSH1 0x40 DUP2 KECCAK256 DUP1 SLOAD DUP5 SWAP3 SWAP1 PUSH2 0x2736 SWAP1 DUP5 SWAP1 PUSH2 0x33F1 JUMP JUMPDEST SWAP1 SWAP2 SSTORE POP POP PUSH1 0x10 DUP3 SWAP1 SSTORE PUSH2 0x27C6 JUMP JUMPDEST DUP1 PUSH1 0x7 SLOAD LT ISZERO PUSH2 0x27C6 JUMPI DUP1 PUSH1 0x7 SLOAD DUP3 PUSH2 0x275E SWAP2 SWAP1 PUSH2 0x33B8 JUMP JUMPDEST PUSH2 0x2768 SWAP1 DUP5 PUSH2 0x3409 JUMP JUMPDEST PUSH2 0x2772 SWAP2 SWAP1 PUSH2 0x354D JUMP JUMPDEST PUSH1 0x1 PUSH1 0x1 PUSH1 0xA0 SHL SUB DUP6 AND PUSH1 0x0 SWAP1 DUP2 MSTORE PUSH1 0x9 PUSH1 0x20 MSTORE PUSH1 0x40 DUP2 KECCAK256 DUP1 SLOAD SWAP1 SWAP2 SWAP1 PUSH2 0x279A SWAP1 DUP5 SWAP1 PUSH2 0x33F1 JUMP JUMPDEST SWAP1 SWAP2 SSTORE POP POP PUSH1 0x7 SLOAD DUP2 SWAP1 PUSH2 0x27AE SWAP1 DUP3 PUSH2 0x33B8 JUMP JUMPDEST PUSH2 0x27B8 SWAP1 DUP5 PUSH2 0x3409 JUMP JUMPDEST PUSH2 0x27C2 SWAP2 SWAP1 PUSH2 0x354D JUMP JUMPDEST PUSH1 0x10 SSTORE JUMPDEST POP POP POP PUSH1 0x1 PUSH1 0x1 PUSH1 0xA0 SHL SUB AND PUSH1 0x0 SWAP1 DUP2 MSTORE PUSH1 0xB PUSH1 0x20 SWAP1 DUP2 MSTORE PUSH1 0x40 DUP1 DUP4 KECCAK256 PUSH1 0xD SLOAD DUP5 MSTORE SWAP1 SWAP2 MSTORE SWAP1 KECCAK256 PUSH1 0x1 ADD DUP1 SLOAD PUSH1 0xFF NOT AND PUSH1 0x3 OR SWAP1 SSTORE JUMP JUMPDEST PUSH1 0x60 PUSH1 0xC PUSH1 0xD SLOAD DUP2 SLOAD DUP2 LT PUSH2 0x2814 JUMPI PUSH2 0x2814 PUSH2 0x338C JUMP JUMPDEST SWAP1 PUSH1 0x0 MSTORE PUSH1 0x20 PUSH1 0x0 KECCAK256 SWAP1 PUSH1 0x4 MUL ADD PUSH1 0x3 ADD DUP1 SLOAD DUP1 PUSH1 0x20 MUL PUSH1 0x20 ADD PUSH1 0x40 MLOAD SWAP1 DUP2 ADD PUSH1 0x40 MSTORE DUP1 SWAP3 SWAP2 SWAP1 DUP2 DUP2 MSTORE PUSH1 0x20 ADD DUP3 DUP1 SLOAD DUP1 ISZERO PUSH2 0x286F JUMPI PUSH1 0x20 MUL DUP3 ADD SWAP2 SWAP1 PUSH1 0x0 MSTORE PUSH1 0x20 PUSH1 0x0 KECCAK256 SWAP1 JUMPDEST DUP2 SLOAD DUP2 MSTORE PUSH1 0x20 ADD SWAP1 PUSH1 0x1 ADD SWAP1 DUP1 DUP4 GT PUSH2 0x285B JUMPI JUMPDEST POP POP POP POP POP SWAP1 POP SWAP1 JUMP JUMPDEST PUSH1 0x0 DUP1 JUMPDEST PUSH1 0x5 SLOAD DUP2 LT ISZERO PUSH2 0x28DA JUMPI DUP3 PUSH1 0x1 PUSH1 0x1 PUSH1 0xA0 SHL SUB AND PUSH1 0x5 DUP3 DUP2 SLOAD DUP2 LT PUSH2 0x28A4 JUMPI PUSH2 0x28A4 PUSH2 0x338C JUMP JUMPDEST PUSH1 0x0 SWAP2 DUP3 MSTORE PUSH1 0x20 SWAP1 SWAP2 KECCAK256 ADD SLOAD PUSH1 0x1 PUSH1 0x1 PUSH1 0xA0 SHL SUB AND EQ ISZERO PUSH2 0x28C8 JUMPI POP PUSH1 0x1 SWAP3 SWAP2 POP POP JUMP JUMPDEST DUP1 PUSH2 0x28D2 DUP2 PUSH2 0x35B5 JUMP JUMPDEST SWAP2 POP POP PUSH2 0x287D JUMP JUMPDEST POP PUSH1 0x0 SWAP3 SWAP2 POP POP JUMP JUMPDEST PUSH1 0x0 DUP1 PUSH1 0xC PUSH1 0xD SLOAD DUP2 SLOAD DUP2 LT PUSH2 0x28FB JUMPI PUSH2 0x28FB PUSH2 0x338C JUMP JUMPDEST SWAP1 PUSH1 0x0 MSTORE PUSH1 0x20 PUSH1 0x0 KECCAK256 SWAP1 PUSH1 0x4 MUL ADD PUSH1 0x3 ADD DUP1 SLOAD SWAP1 POP GT PUSH2 0x295D JUMPI PUSH1 0x40 MLOAD PUSH3 0x461BCD PUSH1 0xE5 SHL DUP2 MSTORE PUSH1 0x20 PUSH1 0x4 DUP3 ADD MSTORE PUSH1 0x1E PUSH1 0x24 DUP3 ADD MSTORE PUSH32 0x63616E6E6F742073656C6C206966207468657265206973206E6F206269640000 PUSH1 0x44 DUP3 ADD MSTORE PUSH1 0x64 ADD PUSH2 0x9EF JUMP JUMPDEST PUSH1 0x64 DUP3 LT ISZERO PUSH2 0x29A0 JUMPI PUSH1 0x40 MLOAD PUSH3 0x461BCD PUSH1 0xE5 SHL DUP2 MSTORE PUSH1 0x20 PUSH1 0x4 DUP3 ADD MSTORE PUSH1 0xF PUSH1 0x24 DUP3 ADD MSTORE PUSH15 0x6D696E2073697A65203D203130303 PUSH1 0x8C SHL PUSH1 0x44 DUP3 ADD MSTORE PUSH1 0x64 ADD PUSH2 0x9EF JUMP JUMPDEST PUSH1 0xC PUSH1 0xD SLOAD DUP2 SLOAD DUP2 LT PUSH2 0x29B5 JUMPI PUSH2 0x29B5 PUSH2 0x338C JUMP JUMPDEST SWAP1 PUSH1 0x0 MSTORE PUSH1 0x20 PUSH1 0x0 KECCAK256 SWAP1 PUSH1 0x4 MUL ADD PUSH1 0x2 ADD SLOAD DUP3 GT ISZERO PUSH2 0x2A03 JUMPI PUSH1 0x40 MLOAD PUSH3 0x461BCD PUSH1 0xE5 SHL DUP2 MSTORE PUSH1 0x20 PUSH1 0x4 DUP3 ADD MSTORE PUSH1 0xA PUSH1 0x24 DUP3 ADD MSTORE PUSH10 0x6C6F7720737570706C79 PUSH1 0xB0 SHL PUSH1 0x44 DUP3 ADD MSTORE PUSH1 0x64 ADD PUSH2 0x9EF JUMP JUMPDEST PUSH1 0x0 DUP3 SWAP1 POP PUSH1 0x0 DUP1 DUP1 PUSH1 0x1 PUSH1 0xC PUSH1 0xD SLOAD DUP2 SLOAD DUP2 LT PUSH2 0x2A23 JUMPI PUSH2 0x2A23 PUSH2 0x338C JUMP JUMPDEST SWAP1 PUSH1 0x0 MSTORE PUSH1 0x20 PUSH1 0x0 KECCAK256 SWAP1 PUSH1 0x4 MUL ADD PUSH1 0x3 ADD DUP1 SLOAD SWAP1 POP PUSH2 0x2A42 SWAP2 SWAP1 PUSH2 0x33B8 JUMP JUMPDEST SWAP1 POP JUMPDEST DUP4 ISZERO PUSH2 0x2C0C JUMPI PUSH1 0xD SLOAD PUSH1 0x0 DUP2 DUP2 MSTORE PUSH1 0xA PUSH1 0x20 MSTORE PUSH1 0x40 SWAP1 KECCAK256 PUSH1 0xC DUP1 SLOAD SWAP2 SWAP3 SWAP1 SWAP2 DUP2 LT PUSH2 0x2A72 JUMPI PUSH2 0x2A72 PUSH2 0x338C JUMP JUMPDEST SWAP1 PUSH1 0x0 MSTORE PUSH1 0x20 PUSH1 0x0 KECCAK256 SWAP1 PUSH1 0x4 MUL ADD PUSH1 0x3 ADD DUP3 DUP2 SLOAD DUP2 LT PUSH2 0x2A94 JUMPI PUSH2 0x2A94 PUSH2 0x338C JUMP JUMPDEST SWAP1 PUSH1 0x0 MSTORE PUSH1 0x20 PUSH1 0x0 KECCAK256 ADD SLOAD DUP2 SLOAD DUP2 LT PUSH2 0x2AAF JUMPI PUSH2 0x2AAF PUSH2 0x338C JUMP JUMPDEST SWAP1 PUSH1 0x0 MSTORE PUSH1 0x20 PUSH1 0x0 KECCAK256 SWAP1 PUSH1 0x3 MUL ADD PUSH1 0x1 ADD SLOAD SWAP2 POP DUP2 DUP5 LT PUSH2 0x2B68 JUMPI PUSH1 0xD SLOAD PUSH1 0x0 DUP2 DUP2 MSTORE PUSH1 0xA PUSH1 0x20 MSTORE PUSH1 0x40 SWAP1 KECCAK256 PUSH1 0xC DUP1 SLOAD SWAP2 SWAP3 SWAP1 SWAP2 DUP2 LT PUSH2 0x2AF1 JUMPI PUSH2 0x2AF1 PUSH2 0x338C JUMP JUMPDEST SWAP1 PUSH1 0x0 MSTORE PUSH1 0x20 PUSH1 0x0 KECCAK256 SWAP1 PUSH1 0x4 MUL ADD PUSH1 0x3 ADD DUP3 DUP2 SLOAD DUP2 LT PUSH2 0x2B13 JUMPI PUSH2 0x2B13 PUSH2 0x338C JUMP JUMPDEST SWAP1 PUSH1 0x0 MSTORE PUSH1 0x20 PUSH1 0x0 KECCAK256 ADD SLOAD DUP2 SLOAD DUP2 LT PUSH2 0x2B2E JUMPI PUSH2 0x2B2E PUSH2 0x338C JUMP JUMPDEST SWAP1 PUSH1 0x0 MSTORE PUSH1 0x20 PUSH1 0x0 KECCAK256 SWAP1 PUSH1 0x3 MUL ADD PUSH1 0x0 ADD SLOAD DUP3 PUSH2 0x2B4B SWAP2 SWAP1 PUSH2 0x3409 JUMP JUMPDEST PUSH2 0x2B55 SWAP1 DUP5 PUSH2 0x33F1 JUMP JUMPDEST SWAP3 POP PUSH2 0x2B61 DUP3 DUP6 PUSH2 0x33B8 JUMP JUMPDEST SWAP4 POP PUSH2 0x2BFA JUMP JUMPDEST PUSH1 0xD SLOAD PUSH1 0x0 DUP2 DUP2 MSTORE PUSH1 0xA PUSH1 0x20 MSTORE PUSH1 0x40 SWAP1 KECCAK256 PUSH1 0xC DUP1 SLOAD SWAP2 SWAP3 SWAP1 SWAP2 DUP2 LT PUSH2 0x2B8F JUMPI PUSH2 0x2B8F PUSH2 0x338C JUMP JUMPDEST SWAP1 PUSH1 0x0 MSTORE PUSH1 0x20 PUSH1 0x0 KECCAK256 SWAP1 PUSH1 0x4 MUL ADD PUSH1 0x3 ADD DUP3 DUP2 SLOAD DUP2 LT PUSH2 0x2BB1 JUMPI PUSH2 0x2BB1 PUSH2 0x338C JUMP JUMPDEST SWAP1 PUSH1 0x0 MSTORE PUSH1 0x20 PUSH1 0x0 KECCAK256 ADD SLOAD DUP2 SLOAD DUP2 LT PUSH2 0x2BCC JUMPI PUSH2 0x2BCC PUSH2 0x338C JUMP JUMPDEST SWAP1 PUSH1 0x0 MSTORE PUSH1 0x20 PUSH1 0x0 KECCAK256 SWAP1 PUSH1 0x3 MUL ADD PUSH1 0x0 ADD SLOAD DUP5 PUSH2 0x2BE9 SWAP2 SWAP1 PUSH2 0x3409 JUMP JUMPDEST PUSH2 0x2BF3 SWAP1 DUP5 PUSH2 0x33F1 JUMP JUMPDEST SWAP3 POP PUSH1 0x0 SWAP4 POP JUMPDEST DUP1 PUSH2 0x2C04 DUP2 PUSH2 0x35E6 JUMP JUMPDEST SWAP2 POP POP PUSH2 0x2A45 JUMP JUMPDEST PUSH2 0x2C16 DUP7 DUP5 PUSH2 0x354D JUMP JUMPDEST SWAP7 SWAP6 POP POP POP POP POP POP JUMP JUMPDEST PUSH1 0x1 PUSH1 0x1 PUSH1 0xA0 SHL SUB DUP1 DUP3 AND PUSH1 0x0 SWAP1 DUP2 MSTORE PUSH1 0x3 PUSH1 0x20 MSTORE PUSH1 0x40 DUP1 DUP3 KECCAK256 SLOAD DUP2 MLOAD PUSH4 0x3FABE5A3 PUSH1 0xE2 SHL DUP2 MSTORE SWAP2 MLOAD SWAP3 SWAP4 DUP5 SWAP4 SWAP2 AND SWAP2 DUP3 SWAP2 DUP5 SWAP2 DUP4 SWAP2 PUSH4 0xFEAF968C SWAP2 PUSH1 0x4 DUP1 DUP3 ADD SWAP3 PUSH1 0xA0 SWAP3 SWAP1 SWAP2 SWAP1 DUP3 SWAP1 SUB ADD DUP2 DUP7 GAS STATICCALL ISZERO DUP1 ISZERO PUSH2 0x2C81 JUMPI RETURNDATASIZE PUSH1 0x0 DUP1 RETURNDATACOPY RETURNDATASIZE PUSH1 0x0 REVERT JUMPDEST POP POP POP POP PUSH1 0x40 MLOAD RETURNDATASIZE PUSH1 0x1F NOT PUSH1 0x1F DUP3 ADD AND DUP3 ADD DUP1 PUSH1 0x40 MSTORE POP DUP2 ADD SWAP1 PUSH2 0x2CA5 SWAP2 SWAP1 PUSH2 0x3617 JUMP JUMPDEST POP POP POP SWAP2 POP POP PUSH1 0x0 DUP3 PUSH1 0x1 PUSH1 0x1 PUSH1 0xA0 SHL SUB AND PUSH4 0x313CE567 PUSH1 0x40 MLOAD DUP2 PUSH4 0xFFFFFFFF AND PUSH1 0xE0 SHL DUP2 MSTORE PUSH1 0x4 ADD PUSH1 0x20 PUSH1 0x40 MLOAD DUP1 DUP4 SUB DUP2 DUP7 GAS STATICCALL ISZERO DUP1 ISZERO PUSH2 0x2CEB JUMPI RETURNDATASIZE PUSH1 0x0 DUP1 RETURNDATACOPY RETURNDATASIZE PUSH1 0x0 REVERT JUMPDEST POP POP POP POP PUSH1 0x40 MLOAD RETURNDATASIZE PUSH1 0x1F NOT PUSH1 0x1F DUP3 ADD AND DUP3 ADD DUP1 PUSH1 0x40 MSTORE POP DUP2 ADD SWAP1 PUSH2 0x2D0F SWAP2 SWAP1 PUSH2 0x3667 JUMP JUMPDEST SWAP2 SWAP8 PUSH1 0xFF SWAP1 SWAP3 AND SWAP7 POP SWAP1 SWAP5 POP POP POP POP POP JUMP JUMPDEST PUSH1 0x0 SLOAD PUSH1 0x1 PUSH1 0x1 PUSH1 0xA0 SHL SUB AND CALLER EQ PUSH2 0x2D4B JUMPI PUSH1 0x40 MLOAD PUSH3 0x461BCD PUSH1 0xE5 SHL DUP2 MSTORE PUSH1 0x4 ADD PUSH2 0x9EF SWAP1 PUSH2 0x3428 JUMP JUMPDEST PUSH1 0x1 PUSH1 0x1 PUSH1 0xA0 SHL SUB DUP2 AND PUSH2 0x2DB0 JUMPI PUSH1 0x40 MLOAD PUSH3 0x461BCD PUSH1 0xE5 SHL DUP2 MSTORE PUSH1 0x20 PUSH1 0x4 DUP3 ADD MSTORE PUSH1 0x26 PUSH1 0x24 DUP3 ADD MSTORE PUSH32 0x4F776E61626C653A206E6577206F776E657220697320746865207A65726F2061 PUSH1 0x44 DUP3 ADD MSTORE PUSH6 0x646472657373 PUSH1 0xD0 SHL PUSH1 0x64 DUP3 ADD MSTORE PUSH1 0x84 ADD PUSH2 0x9EF JUMP JUMPDEST PUSH2 0x130F DUP2 PUSH2 0x31B3 JUMP JUMPDEST PUSH1 0x4 DUP2 DUP2 SLOAD DUP2 LT PUSH2 0x11FB JUMPI PUSH1 0x0 DUP1 REVERT JUMPDEST PUSH1 0x1 PUSH1 0x1 PUSH1 0xA0 SHL SUB DUP1 DUP3 AND PUSH1 0x0 SWAP1 DUP2 MSTORE PUSH1 0x1 PUSH1 0x20 SWAP1 DUP2 MSTORE PUSH1 0x40 DUP1 DUP4 KECCAK256 SWAP4 DUP7 AND DUP4 MSTORE SWAP3 SWAP1 MSTORE KECCAK256 SLOAD PUSH2 0x2E31 JUMPI PUSH1 0x1 PUSH1 0x1 PUSH1 0xA0 SHL SUB DUP3 AND PUSH1 0x0 SWAP1 DUP2 MSTORE PUSH1 0x2 PUSH1 0x20 MSTORE PUSH1 0x40 SWAP1 KECCAK256 SLOAD PUSH2 0x2E17 SWAP1 PUSH1 0x1 PUSH2 0x33F1 JUMP JUMPDEST PUSH1 0x1 PUSH1 0x1 PUSH1 0xA0 SHL SUB DUP4 AND PUSH1 0x0 SWAP1 DUP2 MSTORE PUSH1 0x2 PUSH1 0x20 MSTORE PUSH1 0x40 SWAP1 KECCAK256 SSTORE JUMPDEST POP POP JUMP JUMPDEST PUSH1 0x0 DUP1 PUSH1 0x1 PUSH1 0xC PUSH1 0xD SLOAD DUP2 SLOAD DUP2 LT PUSH2 0x2E4F JUMPI PUSH2 0x2E4F PUSH2 0x338C JUMP JUMPDEST SWAP1 PUSH1 0x0 MSTORE PUSH1 0x20 PUSH1 0x0 KECCAK256 SWAP1 PUSH1 0x4 MUL ADD PUSH1 0x3 ADD DUP1 SLOAD SWAP1 POP PUSH2 0x2E6E SWAP2 SWAP1 PUSH2 0x33B8 JUMP JUMPDEST SWAP1 POP PUSH1 0x0 JUMPDEST DUP2 DUP4 LT ISZERO PUSH2 0x2F2D JUMPI PUSH1 0x2 PUSH2 0x2E87 DUP4 DUP6 PUSH2 0x33F1 JUMP JUMPDEST PUSH2 0x2E91 SWAP2 SWAP1 PUSH2 0x354D JUMP JUMPDEST SWAP1 POP PUSH1 0xA PUSH1 0x0 PUSH1 0xD SLOAD DUP2 MSTORE PUSH1 0x20 ADD SWAP1 DUP2 MSTORE PUSH1 0x20 ADD PUSH1 0x0 KECCAK256 PUSH1 0xC PUSH1 0xD SLOAD DUP2 SLOAD DUP2 LT PUSH2 0x2EBD JUMPI PUSH2 0x2EBD PUSH2 0x338C JUMP JUMPDEST SWAP1 PUSH1 0x0 MSTORE PUSH1 0x20 PUSH1 0x0 KECCAK256 SWAP1 PUSH1 0x4 MUL ADD PUSH1 0x3 ADD DUP3 DUP2 SLOAD DUP2 LT PUSH2 0x2EDF JUMPI PUSH2 0x2EDF PUSH2 0x338C JUMP JUMPDEST SWAP1 PUSH1 0x0 MSTORE PUSH1 0x20 PUSH1 0x0 KECCAK256 ADD SLOAD DUP2 SLOAD DUP2 LT PUSH2 0x2EFA JUMPI PUSH2 0x2EFA PUSH2 0x338C JUMP JUMPDEST SWAP1 PUSH1 0x0 MSTORE PUSH1 0x20 PUSH1 0x0 KECCAK256 SWAP1 PUSH1 0x3 MUL ADD PUSH1 0x0 ADD SLOAD DUP5 GT ISZERO PUSH2 0x2F25 JUMPI PUSH2 0x2F1E DUP2 PUSH1 0x1 PUSH2 0x33F1 JUMP JUMPDEST SWAP3 POP PUSH2 0x2E73 JUMP JUMPDEST DUP1 SWAP2 POP PUSH2 0x2E73 JUMP JUMPDEST DUP2 DUP4 EQ ISZERO PUSH2 0x2FC7 JUMPI PUSH1 0xD SLOAD PUSH1 0x0 DUP2 DUP2 MSTORE PUSH1 0xA PUSH1 0x20 MSTORE PUSH1 0x40 SWAP1 KECCAK256 PUSH1 0xC DUP1 SLOAD SWAP2 SWAP3 SWAP1 SWAP2 DUP2 LT PUSH2 0x2F5C JUMPI PUSH2 0x2F5C PUSH2 0x338C JUMP JUMPDEST SWAP1 PUSH1 0x0 MSTORE PUSH1 0x20 PUSH1 0x0 KECCAK256 SWAP1 PUSH1 0x4 MUL ADD PUSH1 0x3 ADD DUP5 DUP2 SLOAD DUP2 LT PUSH2 0x2F7E JUMPI PUSH2 0x2F7E PUSH2 0x338C JUMP JUMPDEST SWAP1 PUSH1 0x0 MSTORE PUSH1 0x20 PUSH1 0x0 KECCAK256 ADD SLOAD DUP2 SLOAD DUP2 LT PUSH2 0x2F99 JUMPI PUSH2 0x2F99 PUSH2 0x338C JUMP JUMPDEST SWAP1 PUSH1 0x0 MSTORE PUSH1 0x20 PUSH1 0x0 KECCAK256 SWAP1 PUSH1 0x3 MUL ADD PUSH1 0x0 ADD SLOAD DUP5 GT ISZERO PUSH2 0x2FC4 JUMPI PUSH2 0x2FBD DUP4 PUSH1 0x1 PUSH2 0x33F1 JUMP JUMPDEST SWAP1 POP PUSH2 0x2FC7 JUMP JUMPDEST POP DUP2 JUMPDEST PUSH1 0xC PUSH1 0xD SLOAD DUP2 SLOAD DUP2 LT PUSH2 0x2FDC JUMPI PUSH2 0x2FDC PUSH2 0x338C JUMP JUMPDEST SWAP1 PUSH1 0x0 MSTORE PUSH1 0x20 PUSH1 0x0 KECCAK256 SWAP1 PUSH1 0x4 MUL ADD PUSH1 0x3 ADD PUSH1 0x1 PUSH1 0xA PUSH1 0x0 PUSH1 0xD SLOAD DUP2 MSTORE PUSH1 0x20 ADD SWAP1 DUP2 MSTORE PUSH1 0x20 ADD PUSH1 0x0 KECCAK256 DUP1 SLOAD SWAP1 POP PUSH2 0x3012 SWAP2 SWAP1 PUSH2 0x33B8 JUMP JUMPDEST DUP2 SLOAD PUSH1 0x1 DUP2 DUP2 ADD DUP5 SSTORE PUSH1 0x0 SWAP4 DUP5 MSTORE PUSH1 0x20 SWAP1 SWAP4 KECCAK256 ADD SSTORE PUSH1 0xD SLOAD PUSH1 0xC DUP1 SLOAD SWAP1 SWAP2 SWAP1 DUP2 LT PUSH2 0x303F JUMPI PUSH2 0x303F PUSH2 0x338C JUMP JUMPDEST SWAP1 PUSH1 0x0 MSTORE PUSH1 0x20 PUSH1 0x0 KECCAK256 SWAP1 PUSH1 0x4 MUL ADD PUSH1 0x3 ADD DUP1 SLOAD SWAP1 POP PUSH2 0x305E SWAP2 SWAP1 PUSH2 0x33B8 JUMP JUMPDEST DUP2 LT ISZERO PUSH2 0x11E5 JUMPI PUSH1 0x0 PUSH1 0x1 PUSH1 0xC PUSH1 0xD SLOAD DUP2 SLOAD DUP2 LT PUSH2 0x307E JUMPI PUSH2 0x307E PUSH2 0x338C JUMP JUMPDEST SWAP1 PUSH1 0x0 MSTORE PUSH1 0x20 PUSH1 0x0 KECCAK256 SWAP1 PUSH1 0x4 MUL ADD PUSH1 0x3 ADD DUP1 SLOAD SWAP1 POP PUSH2 0x309D SWAP2 SWAP1 PUSH2 0x33B8 JUMP JUMPDEST SWAP1 POP JUMPDEST DUP2 DUP2 GT ISZERO PUSH2 0x314B JUMPI PUSH1 0xC PUSH1 0xD SLOAD DUP2 SLOAD DUP2 LT PUSH2 0x30BD JUMPI PUSH2 0x30BD PUSH2 0x338C JUMP JUMPDEST SWAP1 PUSH1 0x0 MSTORE PUSH1 0x20 PUSH1 0x0 KECCAK256 SWAP1 PUSH1 0x4 MUL ADD PUSH1 0x3 ADD PUSH1 0x1 DUP3 PUSH2 0x30DB SWAP2 SWAP1 PUSH2 0x33B8 JUMP JUMPDEST DUP2 SLOAD DUP2 LT PUSH2 0x30EB JUMPI PUSH2 0x30EB PUSH2 0x338C JUMP JUMPDEST SWAP1 PUSH1 0x0 MSTORE PUSH1 0x20 PUSH1 0x0 KECCAK256 ADD SLOAD PUSH1 0xC PUSH1 0xD SLOAD DUP2 SLOAD DUP2 LT PUSH2 0x310B JUMPI PUSH2 0x310B PUSH2 0x338C JUMP JUMPDEST SWAP1 PUSH1 0x0 MSTORE PUSH1 0x20 PUSH1 0x0 KECCAK256 SWAP1 PUSH1 0x4 MUL ADD PUSH1 0x3 ADD DUP3 DUP2 SLOAD DUP2 LT PUSH2 0x312D JUMPI PUSH2 0x312D PUSH2 0x338C JUMP JUMPDEST PUSH1 0x0 SWAP2 DUP3 MSTORE PUSH1 0x20 SWAP1 SWAP2 KECCAK256 ADD SSTORE DUP1 PUSH2 0x3143 DUP2 PUSH2 0x35E6 JUMP JUMPDEST SWAP2 POP POP PUSH2 0x30A0 JUMP JUMPDEST POP PUSH1 0xD SLOAD PUSH1 0x0 SWAP1 DUP2 MSTORE PUSH1 0xA PUSH1 0x20 MSTORE PUSH1 0x40 SWAP1 KECCAK256 SLOAD PUSH2 0x316A SWAP1 PUSH1 0x1 SWAP1 PUSH2 0x33B8 JUMP JUMPDEST PUSH1 0xC PUSH1 0xD SLOAD DUP2 SLOAD DUP2 LT PUSH2 0x317F JUMPI PUSH2 0x317F PUSH2 0x338C JUMP JUMPDEST SWAP1 PUSH1 0x0 MSTORE PUSH1 0x20 PUSH1 0x0 KECCAK256 SWAP1 PUSH1 0x4 MUL ADD PUSH1 0x3 ADD DUP3 DUP2 SLOAD DUP2 LT PUSH2 0x31A1 JUMPI PUSH2 0x31A1 PUSH2 0x338C JUMP JUMPDEST PUSH1 0x0 SWAP2 DUP3 MSTORE PUSH1 0x20 SWAP1 SWAP2 KECCAK256 ADD SSTORE POP POP POP POP JUMP JUMPDEST PUSH1 0x0 DUP1 SLOAD PUSH1 0x1 PUSH1 0x1 PUSH1 0xA0 SHL SUB DUP4 DUP2 AND PUSH1 0x1 PUSH1 0x1 PUSH1 0xA0 SHL SUB NOT DUP4 AND DUP2 OR DUP5 SSTORE PUSH1 0x40 MLOAD SWAP2 SWAP1 SWAP3 AND SWAP3 DUP4 SWAP2 PUSH32 0x8BE0079C531659141344CD1FD0A4F28419497F9722A3DAAFE3B4186F6B6457E0 SWAP2 SWAP1 LOG3 POP POP JUMP JUMPDEST DUP1 CALLDATALOAD PUSH1 0x1 PUSH1 0x1 PUSH1 0xA0 SHL SUB DUP2 AND DUP2 EQ PUSH2 0x321A JUMPI PUSH1 0x0 DUP1 REVERT JUMPDEST SWAP2 SWAP1 POP JUMP JUMPDEST PUSH1 0x0 PUSH1 0x20 DUP3 DUP5 SUB SLT ISZERO PUSH2 0x3231 JUMPI PUSH1 0x0 DUP1 REVERT JUMPDEST PUSH2 0x323A DUP3 PUSH2 0x3203 JUMP JUMPDEST SWAP4 SWAP3 POP POP POP JUMP JUMPDEST PUSH1 0x0 DUP1 PUSH1 0x40 DUP4 DUP6 SUB SLT ISZERO PUSH2 0x3254 JUMPI PUSH1 0x0 DUP1 REVERT JUMPDEST DUP3 CALLDATALOAD SWAP2 POP PUSH2 0x3264 PUSH1 0x20 DUP5 ADD PUSH2 0x3203 JUMP JUMPDEST SWAP1 POP SWAP3 POP SWAP3 SWAP1 POP JUMP JUMPDEST PUSH1 0x0 DUP1 PUSH1 0x40 DUP4 DUP6 SUB SLT ISZERO PUSH2 0x3280 JUMPI PUSH1 0x0 DUP1 REVERT JUMPDEST PUSH2 0x3289 DUP4 PUSH2 0x3203 JUMP JUMPDEST SWAP5 PUSH1 0x20 SWAP4 SWAP1 SWAP4 ADD CALLDATALOAD SWAP4 POP POP POP JUMP JUMPDEST PUSH4 0x4E487B71 PUSH1 0xE0 SHL PUSH1 0x0 MSTORE PUSH1 0x21 PUSH1 0x4 MSTORE PUSH1 0x24 PUSH1 0x0 REVERT JUMPDEST DUP4 DUP2 MSTORE PUSH1 0x60 DUP2 ADD PUSH1 0x4 DUP5 LT PUSH2 0x32D2 JUMPI PUSH4 0x4E487B71 PUSH1 0xE0 SHL PUSH1 0x0 MSTORE PUSH1 0x21 PUSH1 0x4 MSTORE PUSH1 0x24 PUSH1 0x0 REVERT JUMPDEST PUSH1 0x20 DUP3 ADD SWAP4 SWAP1 SWAP4 MSTORE PUSH1 0x40 ADD MSTORE SWAP2 SWAP1 POP JUMP JUMPDEST PUSH1 0x0 PUSH1 0x20 DUP3 DUP5 SUB SLT ISZERO PUSH2 0x32F5 JUMPI PUSH1 0x0 DUP1 REVERT JUMPDEST POP CALLDATALOAD SWAP2 SWAP1 POP JUMP JUMPDEST PUSH1 0x0 DUP1 PUSH1 0x40 DUP4 DUP6 SUB SLT ISZERO PUSH2 0x330F JUMPI PUSH1 0x0 DUP1 REVERT JUMPDEST PUSH2 0x3318 DUP4 PUSH2 0x3203 JUMP JUMPDEST SWAP2 POP PUSH2 0x3264 PUSH1 0x20 DUP5 ADD PUSH2 0x3203 JUMP JUMPDEST PUSH1 0x0 DUP1 PUSH1 0x40 DUP4 DUP6 SUB SLT ISZERO PUSH2 0x3339 JUMPI PUSH1 0x0 DUP1 REVERT JUMPDEST POP POP DUP1 CALLDATALOAD SWAP3 PUSH1 0x20 SWAP1 SWAP2 ADD CALLDATALOAD SWAP2 POP JUMP JUMPDEST PUSH1 0x20 DUP1 DUP3 MSTORE DUP3 MLOAD DUP3 DUP3 ADD DUP2 SWAP1 MSTORE PUSH1 0x0 SWAP2 SWAP1 DUP5 DUP3 ADD SWAP1 PUSH1 0x40 DUP6 ADD SWAP1 DUP5 JUMPDEST DUP2 DUP2 LT ISZERO PUSH2 0x3380 JUMPI DUP4 MLOAD DUP4 MSTORE SWAP3 DUP5 ADD SWAP3 SWAP2 DUP5 ADD SWAP2 PUSH1 0x1 ADD PUSH2 0x3364 JUMP JUMPDEST POP SWAP1 SWAP7 SWAP6 POP POP POP POP POP POP JUMP JUMPDEST PUSH4 0x4E487B71 PUSH1 0xE0 SHL PUSH1 0x0 MSTORE PUSH1 0x32 PUSH1 0x4 MSTORE PUSH1 0x24 PUSH1 0x0 REVERT JUMPDEST PUSH4 0x4E487B71 PUSH1 0xE0 SHL PUSH1 0x0 MSTORE PUSH1 0x11 PUSH1 0x4 MSTORE PUSH1 0x24 PUSH1 0x0 REVERT JUMPDEST PUSH1 0x0 DUP3 DUP3 LT ISZERO PUSH2 0x33CA JUMPI PUSH2 0x33CA PUSH2 0x33A2 JUMP JUMPDEST POP SUB SWAP1 JUMP JUMPDEST PUSH1 0x0 PUSH1 0x20 DUP3 DUP5 SUB SLT ISZERO PUSH2 0x33E1 JUMPI PUSH1 0x0 DUP1 REVERT JUMPDEST DUP2 MLOAD DUP1 ISZERO ISZERO DUP2 EQ PUSH2 0x323A JUMPI PUSH1 0x0 DUP1 REVERT JUMPDEST PUSH1 0x0 DUP3 NOT DUP3 GT ISZERO PUSH2 0x3404 JUMPI PUSH2 0x3404 PUSH2 0x33A2 JUMP JUMPDEST POP ADD SWAP1 JUMP JUMPDEST PUSH1 0x0 DUP2 PUSH1 0x0 NOT DIV DUP4 GT DUP3 ISZERO ISZERO AND ISZERO PUSH2 0x3423 JUMPI PUSH2 0x3423 PUSH2 0x33A2 JUMP JUMPDEST POP MUL SWAP1 JUMP JUMPDEST PUSH1 0x20 DUP1 DUP3 MSTORE DUP2 DUP2 ADD MSTORE PUSH32 0x4F776E61626C653A2063616C6C6572206973206E6F7420746865206F776E6572 PUSH1 0x40 DUP3 ADD MSTORE PUSH1 0x60 ADD SWAP1 JUMP JUMPDEST PUSH1 0x1 DUP2 DUP2 JUMPDEST DUP1 DUP6 GT ISZERO PUSH2 0x3498 JUMPI DUP2 PUSH1 0x0 NOT DIV DUP3 GT ISZERO PUSH2 0x347E JUMPI PUSH2 0x347E PUSH2 0x33A2 JUMP JUMPDEST DUP1 DUP6 AND ISZERO PUSH2 0x348B JUMPI SWAP2 DUP2 MUL SWAP2 JUMPDEST SWAP4 DUP5 SHR SWAP4 SWAP1 DUP1 MUL SWAP1 PUSH2 0x3462 JUMP JUMPDEST POP SWAP3 POP SWAP3 SWAP1 POP JUMP JUMPDEST PUSH1 0x0 DUP3 PUSH2 0x34AF JUMPI POP PUSH1 0x1 PUSH2 0xCC7 JUMP JUMPDEST DUP2 PUSH2 0x34BC JUMPI POP PUSH1 0x0 PUSH2 0xCC7 JUMP JUMPDEST DUP2 PUSH1 0x1 DUP2 EQ PUSH2 0x34D2 JUMPI PUSH1 0x2 DUP2 EQ PUSH2 0x34DC JUMPI PUSH2 0x34F8 JUMP JUMPDEST PUSH1 0x1 SWAP2 POP POP PUSH2 0xCC7 JUMP JUMPDEST PUSH1 0xFF DUP5 GT ISZERO PUSH2 0x34ED JUMPI PUSH2 0x34ED PUSH2 0x33A2 JUMP JUMPDEST POP POP PUSH1 0x1 DUP3 SHL PUSH2 0xCC7 JUMP JUMPDEST POP PUSH1 0x20 DUP4 LT PUSH2 0x133 DUP4 LT AND PUSH1 0x4E DUP5 LT PUSH1 0xB DUP5 LT AND OR ISZERO PUSH2 0x351B JUMPI POP DUP2 DUP2 EXP PUSH2 0xCC7 JUMP JUMPDEST PUSH2 0x3525 DUP4 DUP4 PUSH2 0x345D JUMP JUMPDEST DUP1 PUSH1 0x0 NOT DIV DUP3 GT ISZERO PUSH2 0x3539 JUMPI PUSH2 0x3539 PUSH2 0x33A2 JUMP JUMPDEST MUL SWAP4 SWAP3 POP POP POP JUMP JUMPDEST PUSH1 0x0 PUSH2 0x323A DUP4 DUP4 PUSH2 0x34A0 JUMP JUMPDEST PUSH1 0x0 DUP3 PUSH2 0x356A JUMPI PUSH4 0x4E487B71 PUSH1 0xE0 SHL PUSH1 0x0 MSTORE PUSH1 0x12 PUSH1 0x4 MSTORE PUSH1 0x24 PUSH1 0x0 REVERT JUMPDEST POP DIV SWAP1 JUMP JUMPDEST PUSH1 0x20 DUP1 DUP3 MSTORE PUSH1 0x26 SWAP1 DUP3 ADD MSTORE PUSH32 0x416C72656164792065787069726564206F7220746F6F20636C6F736520746F20 PUSH1 0x40 DUP3 ADD MSTORE PUSH6 0x657870697279 PUSH1 0xD0 SHL PUSH1 0x60 DUP3 ADD MSTORE PUSH1 0x80 ADD SWAP1 JUMP JUMPDEST PUSH1 0x0 PUSH1 0x0 NOT DUP3 EQ ISZERO PUSH2 0x35C9 JUMPI PUSH2 0x35C9 PUSH2 0x33A2 JUMP JUMPDEST POP PUSH1 0x1 ADD SWAP1 JUMP JUMPDEST PUSH4 0x4E487B71 PUSH1 0xE0 SHL PUSH1 0x0 MSTORE PUSH1 0x31 PUSH1 0x4 MSTORE PUSH1 0x24 PUSH1 0x0 REVERT JUMPDEST PUSH1 0x0 DUP2 PUSH2 0x35F5 JUMPI PUSH2 0x35F5 PUSH2 0x33A2 JUMP JUMPDEST POP PUSH1 0x0 NOT ADD SWAP1 JUMP JUMPDEST DUP1 MLOAD PUSH10 0xFFFFFFFFFFFFFFFFFFFF DUP2 AND DUP2 EQ PUSH2 0x321A JUMPI PUSH1 0x0 DUP1 REVERT JUMPDEST PUSH1 0x0 DUP1 PUSH1 0x0 DUP1 PUSH1 0x0 PUSH1 0xA0 DUP7 DUP9 SUB SLT ISZERO PUSH2 0x362F JUMPI PUSH1 0x0 DUP1 REVERT JUMPDEST PUSH2 0x3638 DUP7 PUSH2 0x35FD JUMP JUMPDEST SWAP5 POP PUSH1 0x20 DUP7 ADD MLOAD SWAP4 POP PUSH1 0x40 DUP7 ADD MLOAD SWAP3 POP PUSH1 0x60 DUP7 ADD MLOAD SWAP2 POP PUSH2 0x365B PUSH1 0x80 DUP8 ADD PUSH2 0x35FD JUMP JUMPDEST SWAP1 POP SWAP3 SWAP6 POP SWAP3 SWAP6 SWAP1 SWAP4 POP JUMP JUMPDEST PUSH1 0x0 PUSH1 0x20 DUP3 DUP5 SUB SLT ISZERO PUSH2 0x3679 JUMPI PUSH1 0x0 DUP1 REVERT JUMPDEST DUP2 MLOAD PUSH1 0xFF DUP2 AND DUP2 EQ PUSH2 0x323A JUMPI PUSH1 0x0 DUP1 REVERT INVALID LOG2 PUSH5 0x6970667358 0x22 SLT KECCAK256 LOG3 0xB3 REVERT PUSH26 0x5DA9E1C788A89C7B5732C6AC5D31DF30B797AD01B184370FE728 GAS 0xBF PUSH5 0x736F6C6343 STOP ADDMOD EXP STOP CALLER ","sha1":"db99996cf8a779762d169d395da0e6ca0bcce952","source":"// SPDX-License-Identifier: MIT\npragma solidity ^0.8.0;\n\nimport \"@openzeppelin/contracts/access/Ownable.sol\";\nimport \"@openzeppelin/contracts/token/ERC20/IERC20.sol\";\nimport \"@chainlink/contracts/src/v0.8/interfaces/AggregatorV3Interface.sol\";\n\ncontract TokenFarm is Ownable {\n    // *********\n    // below is for old contracts\n    // mapping token address -> staker address -> amount\n    mapping(address => mapping(address => uint256)) public stakingBalance;\n    mapping(address => uint256) public uniqueTokensStaked;\n    mapping(address => address) public tokenPriceFeedMapping;\n    address[] public stakers;\n    address[] public allowedTokens;\n    IERC20 public dappToken;\n\n    // ******************\n    // the real contract is from here\n    // to do\n    // 1. sushi\n    // 2. transcation cost\n\n    // uncomment this below if need real ETH price !!!!!!!!\n    //import \"@chainlink/contracts/src/v0.6/interfaces/AggregatorV3Interface.sol\";\n\n    uint256 private constant NO_TRADE_CLOSE_TO_EXPIRE = 10; //seconds\n    uint256 private constant MIN_BUYER_SIZE = 1e2;\n    uint256 private constant MIN_SELLER_SIZE = 1e2;\n    uint256 private constant MIN_DEPOSIT_SIZE = 5e2;\n    uint256 private constant TRANSACTION_COST = 1; // so 1% for each trade or we use a formula\n\n    // prevent two people draw liquidity at same time\n    enum contract_status {\n        open,\n        locked\n    }\n    contract_status private STATUS = contract_status.open;\n\n    //Pricefeed interfaces from chainlink\n    // uncomment this below if need real ETH price !!!!!!!!\n    // AggregatorV3Interface internal ethFeed;\n    uint256 public ethPrice;\n\n    address payable contract_address;\n\n    // store cash balance for each user, not used in any option sub-pool\n    mapping(address => uint256) public cash_balance; // for testing, this value can be negtive, but not allowed in production\n\n    // bid_struct: each bid in bids (bids is the order book for each option)\n    struct bid_struct {\n        uint256 price; // usd per option\n        uint256 size; // number of option x strike\n        address user_id; //user address\n    }\n    // bids[id] is the order book for each option[id]\n    mapping(uint256 => bid_struct[]) public bids;\n\n    // user_struct saves all info for each user\n    enum option_side {\n        not_open,\n        buyer,\n        seller,\n        exercised\n    }\n    struct user_struct {\n        // size: for buyer is number of eth option x strike price he placed\n        // size: for seller is number of eth option x strike price x (1+ yield) on expiry day\n        uint256 size; //in USD,\n        option_side side; //after expiry, re-allocate payoff depends on buyer or seller of option\n        uint256 unusedpremium; //in USD, premium in the pool but not traded, for buyer only\n    }\n    // user[user_address][option-id] is each user\n    mapping(address => mapping(uint256 => user_struct)) public user;\n\n    // option_struct saves info for each option\n    struct option_struct {\n        uint256 strike; //Price in USD, for example 3300\n        uint256 expiry; //Unix timestamp of expiration time, in second\n        uint256 supply; //buyer place bid and seller can sell the bid; supply = number of option x strike\n        uint256[] order; //order book sequence pointer, low bid to high bid, bids[id][order[0]] is the lowest bid\n    }\n    // op[id] is each option\n    option_struct[] public op;\n\n    // ********************\n    // for testing purpose\n    uint256 private id = 0; // for testing we only have one option\n    uint256[] private order_for_test;\n    bid_struct[] private order_book_for_one_option;\n    // settlement_amount is only for testing purples, need to delete in production\n    uint256 public settlement_amount;\n    address public ethAddress;\n\n    // ********************\n\n    //Kovan feeds: https://docs.chain.link/docs/reference-contracts\n    constructor(address _dappTokenAddress, address _ethAddress) public {\n        dappToken = IERC20(_dappTokenAddress);\n\n        //ETH/USD Kovan feed\n        // uncomment this below if need real ETH price !!!!!!!!\n        // ethFeed = AggregatorV3Interface(0x9326BFA02ADD2366b30bacB125260Af641031331);\n        contract_address = payable(address(this));\n\n        // ********************\n        // create fake option for testing\n        option_struct memory option = option_struct({\n            strike: 3300 * 1e18, // in USDC\n            expiry: block.timestamp + 1 days, // 30seconds option, for testing purpose\n            supply: 0, // after buyer place bid, supply will increase, in producation initial value =0\n            order: order_for_test\n        });\n        op.push(option);\n        // for testing purpose i give you fake money to play\n        cash_balance[msg.sender] = 200000;\n        ethAddress = _ethAddress;\n        // ********************\n    }\n\n    function placeBid(uint256 newbid, uint256 premium) public {\n        // buyer place bid order but nothing traded yet\n        // newbid in usd, eth option price\n        address _user = msg.sender;\n        require(\n            op[id].expiry > block.timestamp - NO_TRADE_CLOSE_TO_EXPIRE,\n            \"Already expired or too close to expiry\"\n        );\n        require(\n            user[_user][id].side != option_side.seller,\n            \"seller of option cannot buy\"\n        );\n        require(premium >= MIN_BUYER_SIZE, \"Min size = 100\");\n        require(premium <= cash_balance[_user], \"not enough cash\"); //cash actually sell the balance first\n        // update buyer\n        // btw user.size only updated when seller sell the bid / only when trade\n        user[_user][id].side = option_side.buyer;\n        user[_user][id].unusedpremium += premium; //premium not used if seller not selling it\n        cash_balance[_user] -= premium;\n\n        // update option supply\n        // below line convert the same unit as option seller, ie: number of eth option x strike price (not number of eth option x ethPrice)\n        // 1x of dual contract needs: ethPrice/stirke size of option to hedge; size/strike > size/current spot!\n        // Warnning below line: first multiply then divide to keep precision\n        uint256 _size = (premium * op[id].strike) / newbid;\n        op[id].supply += _size;\n\n        // update order book\n        bids[id].push(bid_struct(newbid, _size, _user));\n        if (op[id].order.length == 0) {\n            op[id].order.push(bids[id].length - 1);\n        } else {\n            insertBid(newbid);\n        }\n    }\n\n    function cancelBid() public {\n        // to make it easy, cancel all bids for testing stage\n        // can make it cancel specific bid, but need more coding\n        address payable _user = payable(msg.sender);\n        require(\n            STATUS == contract_status.open,\n            \"contract busy, try again later\"\n        );\n        require(\n            user[_user][id].side == option_side.buyer,\n            \"you need to buy option first\"\n        );\n        require(\n            user[_user][id].unusedpremium > 0,\n            \"your oder has been filled or cancelled\"\n        );\n        STATUS = contract_status.locked;\n        // update buyer\n        //_user.transfer(user[_user][id].unusedpremium);\n        cash_balance[_user] += user[_user][id].unusedpremium;\n        user[_user][id].unusedpremium = 0;\n\n        // update order book and option supply\n        uint256[] memory old_order = op[id].order;\n        uint256 k = 0;\n        for (uint256 i = 0; i < old_order.length; i++) {\n            if (bids[id][old_order[i]].user_id != _user) {\n                // if this bid is not from this user\n                op[id].order[k] = old_order[i];\n                // k = how many bids we need to keep\n                k++;\n            } else {\n                op[id].supply -= bids[id][old_order[i]].size;\n            }\n        }\n        for (uint256 i = 0; i < old_order.length - k; i++) {\n            op[id].order.pop();\n        }\n        STATUS = contract_status.open;\n    }\n\n    function sellBid(uint256 seller_size) public {\n        // seller size is in usd, full notional / collateral collected\n        // seller option == buyer dual conntract!\n        address _user = msg.sender;\n        //require(op[id].order.length > 0, \"cannot sell if there is no bid\");\n        require(\n            op[id].expiry > block.timestamp - NO_TRADE_CLOSE_TO_EXPIRE,\n            \"Already expired or too close to expiry\"\n        );\n        //require(\n        //    user[_user][id].side != option_side.buyer,\n        //    \"buyer of option cannot sell\"\n        //);\n        require(seller_size >= MIN_SELLER_SIZE, \"Min size = 100\");\n        //require(seller_size <= op[id].supply, \"low supply\");\n        //require(seller_size <= cash_balance[_user], \"not enough cash\"); //cash actually sell the balance first\n        cash_balance[_user] -= seller_size;\n\n        // update order book\n        uint256 remain = seller_size;\n        uint256 sizexprice = 0;\n        uint256 each_size;\n        uint256 i = op[id].order.length - 1;\n        // sell multiple bids to have enough size\n        while (remain > 0) {\n            each_size = bids[id][op[id].order[i]].size;\n            if (remain >= each_size) {\n                // update buyer\n                user[bids[id][op[id].order[i]].user_id][id].size += each_size;\n                user[bids[id][op[id].order[i]].user_id][id]\n                    .unusedpremium -= ((each_size *\n                    bids[id][op[id].order[i]].price) / op[id].strike);\n                // update seller\n                sizexprice += (each_size * bids[id][op[id].order[i]].price);\n                // update option\n                op[id].supply -= each_size;\n                // update order book\n                bids[id][op[id].order[i]].size = 0;\n                // last one is the highest one, pop the highest bid\n                op[id].order.pop();\n                remain -= each_size;\n            } else {\n                // update buyer\n                user[bids[id][op[id].order[i]].user_id][id].size += remain;\n                user[bids[id][op[id].order[i]].user_id][id]\n                    .unusedpremium -= ((remain *\n                    bids[id][op[id].order[i]].price) / op[id].strike);\n                // update seller\n                sizexprice += (remain * bids[id][op[id].order[i]].price);\n                // update option\n                op[id].supply -= remain;\n                // update order book\n                bids[id][op[id].order[i]].size -= remain;\n                remain = 0;\n            }\n            i--;\n        }\n        // update seller\n        getEthPrice();\n        //expiry = (sizexprice / seller_size / ethPrice + 1 )x seller_size\n        user[_user][id].size += ((sizexprice + seller_size * ethPrice) /\n            ethPrice);\n        user[_user][id].side = option_side.seller;\n    }\n\n    function getBestBid(uint256 seller_size)\n        public\n        view\n        returns (uint256 average_bid)\n    {\n        // same logic as sellOption Function but not updating options and users\n        require(op[id].order.length > 0, \"cannot sell if there is no bid\");\n        require(seller_size >= MIN_SELLER_SIZE, \"min size = 1000\");\n        require(seller_size <= op[id].supply, \"low supply\");\n        uint256 remain = seller_size;\n        uint256 sizexprice = 0;\n        uint256 each_bid_amount;\n        uint256 i = op[id].order.length - 1;\n        while (remain > 0) {\n            each_bid_amount = bids[id][op[id].order[i]].size;\n            if (remain >= each_bid_amount) {\n                sizexprice += (each_bid_amount *\n                    bids[id][op[id].order[i]].price);\n                remain -= each_bid_amount;\n            } else {\n                sizexprice += (remain * bids[id][op[id].order[i]].price);\n                remain = 0;\n            }\n            i--;\n        }\n        average_bid = sizexprice / seller_size;\n        return average_bid;\n    }\n\n    function exercise() public {\n        // for testing purpose please set a fake eth price\n        address _user = msg.sender;\n        option_side _side = user[_user][id].side;\n        require(\n            _side == option_side.seller || _side == option_side.buyer,\n            \"You have no position\"\n        );\n        require(\n            op[id].expiry <= block.timestamp,\n            \"Cannot exercise before expiry\"\n        );\n        require(_side != option_side.exercised, \"You already excercised \");\n        uint256 _size = user[_user][id].size;\n        uint256 _strike = op[id].strike;\n        if (_side == option_side.buyer) {\n            require(_size > 0, \"No one sell your bid and nothing to expire\");\n            require(ethPrice < _strike, \"Expire worth zero\");\n            if (user[_user][id].unusedpremium > 0) {\n                cancelBid();\n            }\n        }\n        if (_side == option_side.seller) {\n            if (ethPrice < _strike) {\n                // Be very careful!!!!!!!!!!!!\n                // NEED to transfer/sushi USD into ETH here !!! below is ETH amount!!!\n                //_user.transfer(_size / _strike);\n                cash_balance[_user] += _size / _strike;\n                // please delete below line later\n                settlement_amount = _size / _strike;\n            } else {\n                //_user.transfer(_size);\n                cash_balance[_user] += _size;\n                // please delete below line later\n                settlement_amount = _size;\n            }\n        } else {\n            if (ethPrice < _strike) {\n                // below is for cash settlement in usd\n                // noted: when we record buyer size = usd_collected / %price * strike / ethPrice\n                //_user.transfer((_size * (_strike - ethPrice)) / _strike);\n                cash_balance[_user] += ((_size * (_strike - ethPrice)) /\n                    _strike);\n                // please delete below line later\n                settlement_amount = (_size * (_strike - ethPrice)) / _strike;\n            } // else do nothing: expire worth zero\n        }\n        user[_user][id].side = option_side.exercised;\n    }\n\n    function insertBid(uint256 newbid) internal {\n        // insert the newbid in to bids according to the newbid level, lowest bid at 0 position\n        uint256 left = 0;\n        uint256 right = op[id].order.length - 1;\n        uint256 mid;\n\n        // binary tree insert\n        while (left < right) {\n            mid = (left + right) / 2;\n            if (newbid > bids[id][op[id].order[mid]].price) {\n                left = mid + 1;\n            } else {\n                right = mid;\n            }\n        }\n        // when loop ends:\n        // if left > right mid is correct position to insert\n        // if left == right, need to compare once more with right\n        if (left == right) {\n            if (newbid > bids[id][op[id].order[left]].price) {\n                mid = left + 1;\n            } else {\n                mid = left;\n            }\n        }\n        // first push the pointer of newbid /last one of bids into the order array\n        op[id].order.push(bids[id].length - 1);\n        if (mid < op[id].order.length - 1) {\n            for (uint256 i = op[id].order.length - 1; i > mid; i--) {\n                // copy the old value to the right next one\n                op[id].order[i] = op[id].order[i - 1];\n            }\n            // insert the pointer(aka order) of newbid\n            op[id].order[mid] = bids[id].length - 1;\n        } // else if mid == order.lenghth, newbid is highest and already been pushed to the last one of order\n    }\n\n    //Returns the latest ETH price\n    function getEthPrice() public {\n        // uncomment this below if need real ETH price !!!!!!!!\n        //(\n        //    uint80 roundID,\n        //    int256 price,\n        //    uint startedAt,\n        //    uint timeStamp,\n        //    uint80 answeredInRound\n        //) = ethFeed.latestRoundData();\n        //// If the round is not complete yet, timestamp is 0\n        //require(timeStamp > 0, \"Round not complete\");\n        ////Price should never be negative thus cast int to unit is ok\n        ////Price is 8 decimal places and will require 1e10 correction later to 18 places\n        //ethPrice = uint256(price);\n        //ethPrice = 3799;\n        (uint256 price, uint256 decimals) = getTokenValue(ethAddress);\n        ethPrice = price * 1e10;\n    }\n\n    function deposit() public payable {\n        require(msg.value >= MIN_DEPOSIT_SIZE, \"Min size = 500\");\n        cash_balance[msg.sender] += msg.value;\n    }\n\n    function PoolBalance() public view returns (uint256) {\n        return (contract_address.balance);\n    }\n\n    function getOrder() public view returns (uint256[] memory) {\n        return op[id].order;\n    }\n\n    function getBid() public view returns (uint256) {\n        return bids[id][op[id].order[op[id].order.length - 1]].price;\n    }\n\n    function userBalance(address _user) public view returns (uint256) {\n        return cash_balance[_user];\n    }\n\n    function userUnusedPremium(address _user) public view returns (uint256) {\n        return user[_user][id].unusedpremium;\n    }\n\n    function userSize(address _user) public view returns (uint256) {\n        return user[_user][id].size;\n    }\n\n    function getSupply() public view returns (uint256) {\n        return op[id].supply;\n    }\n\n    function getETH() public view returns (uint256) {\n        (uint256 price, uint256 decimals) = getTokenValue(ethAddress);\n        return price * 1e10;\n    }\n\n    function getSide(address _user) public view returns (uint256) {\n        return uint256(user[_user][id].side);\n    }\n\n    function SecondToExpiry() public view returns (uint256) {\n        return (op[id].expiry - block.timestamp);\n    }\n\n    function setFakeETH(uint256 _eth) public {\n        ethPrice = _eth;\n    }\n\n    function createFakeBuyer() private {\n        // for testing only, we create an option with some supply\n        // only use before before placeBid, otherwise order will be wrong!!!\n        address fake_user = 0xCA35b7d915458EF540aDe6068dFe2F44E8fa733c;\n        order_book_for_one_option.push(bid_struct(330, 1650, fake_user));\n        order_book_for_one_option.push(bid_struct(396, 1320, fake_user));\n        order_book_for_one_option.push(bid_struct(132, 6600, fake_user));\n        order_book_for_one_option.push(bid_struct(198, 16500, fake_user));\n        bids[id] = order_book_for_one_option;\n        user[fake_user][id].side = option_side.buyer;\n        user[fake_user][id].unusedpremium += 709;\n        op[id].supply += 26070;\n        op[id].order = [2, 3, 0, 1];\n        cash_balance[fake_user] = 100000;\n    }\n\n    // **************************\n    // we only need stake and unstake for now\n\n    function stakeTokens(uint256 _amount, address _token) public {\n        require(_amount > 0, \"Amount must be more than 0\");\n        require(tokenIsAllowed(_token), \"Token is currently no allowed\");\n        IERC20(_token).transferFrom(msg.sender, address(this), _amount);\n        updateUniqueTokensStaked(msg.sender, _token);\n        stakingBalance[_token][msg.sender] =\n            stakingBalance[_token][msg.sender] +\n            _amount;\n        if (uniqueTokensStaked[msg.sender] == 1) {\n            stakers.push(msg.sender);\n        }\n        cash_balance[msg.sender] = getUserTotalValue(msg.sender);\n    }\n\n    function unstakeTokens(address _token) public {\n        uint256 balance = stakingBalance[_token][msg.sender];\n        require(balance > 0, \"Cash balance cannot be 0\");\n        IERC20(_token).transfer(msg.sender, balance);\n        cash_balance[msg.sender] -= getUserSingleTokenValue(msg.sender, _token);\n        stakingBalance[_token][msg.sender] = 0;\n        uniqueTokensStaked[msg.sender] = uniqueTokensStaked[msg.sender] - 1;\n    }\n\n    // **************************\n    // below is just supportive functions we dont really need\n\n    function viewStakedToken(address _token) public returns (uint256) {\n        // this is useless btw...\n        uint256 balance = stakingBalance[_token][msg.sender];\n        return stakingBalance[_token][msg.sender];\n    }\n\n    function updateUniqueTokensStaked(address _user, address _token) internal {\n        if (stakingBalance[_token][_user] <= 0) {\n            uniqueTokensStaked[_user] = uniqueTokensStaked[_user] + 1;\n        }\n    }\n\n    function addAllowedTokens(address _token) public onlyOwner {\n        allowedTokens.push(_token);\n    }\n\n    function tokenIsAllowed(address _token) public returns (bool) {\n        for (\n            uint256 allowedTokensIndex = 0;\n            allowedTokensIndex < allowedTokens.length;\n            allowedTokensIndex++\n        ) {\n            if (allowedTokens[allowedTokensIndex] == _token) {\n                return true;\n            }\n        }\n        return false;\n    }\n\n    function setPriceFeedContract(address _token, address _priceFeed)\n        public\n        onlyOwner\n    {\n        tokenPriceFeedMapping[_token] = _priceFeed;\n    }\n\n    function issueTokens() public onlyOwner {\n        // Issue tokens to all stakers\n        for (\n            uint256 stakersIndex = 0;\n            stakersIndex < stakers.length;\n            stakersIndex++\n        ) {\n            address recipient = stakers[stakersIndex];\n            uint256 userTotalValue = getUserTotalValue(recipient);\n            dappToken.transfer(recipient, userTotalValue);\n        }\n    }\n\n    function getUserTotalValue(address _user) public view returns (uint256) {\n        uint256 totalValue = 0;\n        require(uniqueTokensStaked[_user] > 0, \"No tokens staked!\");\n        for (\n            uint256 allowedTokensIndex = 0;\n            allowedTokensIndex < allowedTokens.length;\n            allowedTokensIndex++\n        ) {\n            totalValue =\n                totalValue +\n                getUserSingleTokenValue(\n                    _user,\n                    allowedTokens[allowedTokensIndex]\n                );\n        }\n        return totalValue;\n    }\n\n    function getUserSingleTokenValue(address _user, address _token)\n        public\n        view\n        returns (uint256)\n    {\n        if (uniqueTokensStaked[_user] <= 0) {\n            return 0;\n        }\n        // price of the token * stakingBalance[_token][user]\n        (uint256 price, uint256 decimals) = getTokenValue(_token);\n        return // 10000000000000000000 ETH\n        // ETH/USD -> 10000000000\n        // 10 * 100 = 1,000\n        ((stakingBalance[_token][_user] * price) / (10**decimals));\n    }\n\n    function getTokenValue(address _token)\n        public\n        view\n        returns (uint256, uint256)\n    {\n        // priceFeedAddress\n        address priceFeedAddress = tokenPriceFeedMapping[_token];\n        AggregatorV3Interface priceFeed = AggregatorV3Interface(\n            priceFeedAddress\n        );\n        (, int256 price, , , ) = priceFeed.latestRoundData();\n        uint256 decimals = uint256(priceFeed.decimals());\n        return (uint256(price), decimals);\n    }\n}\n","sourcePath":"contracts/TokenFarm.sol","type":"contract","deployment":{"address":"0xa3A0002C1e104204F955607d4F53134659A8e9Ab","chainid":"42","blockHeight":29178616}}