{
  "abi": [
    {
      "inputs": [],
      "stateMutability": "nonpayable",
      "type": "constructor"
    },
    {
      "inputs": [
        {
          "internalType": "uint256",
          "name": "_new",
          "type": "uint256"
        }
      ],
      "name": "addBid",
      "outputs": [
        {
          "internalType": "uint256[]",
          "name": "",
          "type": "uint256[]"
        }
      ],
      "stateMutability": "nonpayable",
      "type": "function"
    },
    {
      "inputs": [
        {
          "internalType": "uint256",
          "name": "ask_size",
          "type": "uint256"
        }
      ],
      "name": "averageBid",
      "outputs": [
        {
          "internalType": "uint256",
          "name": "average_bid",
          "type": "uint256"
        }
      ],
      "stateMutability": "view",
      "type": "function"
    },
    {
      "inputs": [
        {
          "internalType": "uint256",
          "name": "",
          "type": "uint256"
        }
      ],
      "name": "bid_order",
      "outputs": [
        {
          "internalType": "uint256",
          "name": "",
          "type": "uint256"
        }
      ],
      "stateMutability": "view",
      "type": "function"
    },
    {
      "inputs": [
        {
          "internalType": "uint256",
          "name": "",
          "type": "uint256"
        }
      ],
      "name": "bids",
      "outputs": [
        {
          "internalType": "uint256",
          "name": "price_percent",
          "type": "uint256"
        },
        {
          "internalType": "uint256",
          "name": "amount",
          "type": "uint256"
        }
      ],
      "stateMutability": "view",
      "type": "function"
    },
    {
      "inputs": [],
      "name": "getBidOrder",
      "outputs": [
        {
          "internalType": "uint256[]",
          "name": "",
          "type": "uint256[]"
        }
      ],
      "stateMutability": "view",
      "type": "function"
    },
    {
      "inputs": [],
      "name": "getBids",
      "outputs": [
        {
          "components": [
            {
              "internalType": "uint256",
              "name": "price_percent",
              "type": "uint256"
            },
            {
              "internalType": "uint256",
              "name": "amount",
              "type": "uint256"
            }
          ],
          "internalType": "struct insert.bid_struct[]",
          "name": "",
          "type": "tuple[]"
        }
      ],
      "stateMutability": "view",
      "type": "function"
    },
    {
      "inputs": [],
      "name": "getlen",
      "outputs": [
        {
          "internalType": "uint256",
          "name": "",
          "type": "uint256"
        }
      ],
      "stateMutability": "view",
      "type": "function"
    },
    {
      "inputs": [],
      "name": "mid",
      "outputs": [
        {
          "internalType": "uint256",
          "name": "",
          "type": "uint256"
        }
      ],
      "stateMutability": "view",
      "type": "function"
    },
    {
      "inputs": [],
      "name": "newbid",
      "outputs": [
        {
          "internalType": "uint256",
          "name": "",
          "type": "uint256"
        }
      ],
      "stateMutability": "view",
      "type": "function"
    },
    {
      "inputs": [
        {
          "internalType": "uint256",
          "name": "ask_size",
          "type": "uint256"
        }
      ],
      "name": "sellBid",
      "outputs": [
        {
          "internalType": "uint256",
          "name": "average_bid",
          "type": "uint256"
        }
      ],
      "stateMutability": "nonpayable",
      "type": "function"
    },
    {
      "inputs": [],
      "name": "supply",
      "outputs": [
        {
          "internalType": "uint256",
          "name": "",
          "type": "uint256"
        }
      ],
      "stateMutability": "view",
      "type": "function"
    }
  ],
  "bytecode": "61010060405260026080908152600360a0819052600060c052600160e05261002891600461014b565b5061465060045534801561003b57600080fd5b50604080518082018252600a81526107d060208083019182526002805460018181018355600083815295519183027f405787fa12a823e0f2b7631cc41b3ba8828b3321ca811111fa75cd3aa3bb5ace8181019390935594517f405787fa12a823e0f2b7631cc41b3ba8828b3321ca811111fa75cd3aa3bb5acf9586015586518088018852600c81526103e881860190815284548084018655858952915191850280850192909255519086015586518088018852600681526127108186019081528454808401865585895291519185028085019290925551908601558651808801909752600887526113889387019384528254908101835594829052945193029384019290925590519101556101b0565b82805482825590600052602060002090810192821561018b579160200282015b8281111561018b578251829060ff1690559160200191906001019061016b565b5061019792915061019b565b5090565b5b80821115610197576000815560010161019c565b610d31806101bf6000396000f3fe608060405234801561001057600080fd5b50600436106100a95760003560e01c8063696cfa7711610071578063696cfa771461012e578063704bba69146101415780637fdcf01f14610154578063b81c78ec1461015c578063d982097314610171578063f7dacb4a1461017957600080fd5b806303ca835c146100ae578063047fc9aa146100d457806314b0e266146100dd5780632e94420f146100fd5780634423c5f114610106575b600080fd5b6100c16100bc366004610b86565b610182565b6040519081526020015b60405180910390f35b6100c160045481565b6100f06100eb366004610b86565b6101a3565b6040516100cb9190610b9f565b6100c160015481565b610119610114366004610b86565b61049c565b604080519283526020830191909152016100cb565b6100c161013c366004610b86565b6104ca565b6100c161014f366004610b86565b610733565b6003546100c1565b610164610abb565b6040516100cb9190610be3565b6100f0610b2e565b6100c160005481565b6003818154811061019257600080fd5b600091825260209091200154905081565b606060008060016003805490506101ba9190610c48565b6000858155604080518082019091528681526113886020820181815260028054600181018255818652935193027f405787fa12a823e0f2b7631cc41b3ba8828b3321ca811111fa75cd3aa3bb5ace810193909355517f405787fa12a823e0f2b7631cc41b3ba8828b3321ca811111fa75cd3aa3bb5acf9092019190915560048054939450909290919061024e908490610c5f565b90915550505b808210156102e05760026102688284610c5f565b6102729190610c77565b60018190556003805460029290811061028d5761028d610c99565b9060005260206000200154815481106102a8576102a8610c99565b90600052602060002090600202016000015460005411156102d757600180546102d091610c5f565b9150610254565b50600154610254565b8082141561034c576002600383815481106102fd576102fd610c99565b90600052602060002001548154811061031857610318610c99565b90600052602060002090600202016000015460005411156103465761033e826001610c5f565b60015561034c565b60018290555b600380546001808201835560008390527fc2575a0e9e593c00f959f8c92f12db2869c3395a3b0502d05e2516446f71f85b820191909155905461038f9190610c48565b6001541015610442576003546000906103aa90600190610c48565b90505b6001548111156104105760036103c4600183610c48565b815481106103d4576103d4610c99565b9060005260206000200154600382815481106103f2576103f2610c99565b6000918252602090912001558061040881610caf565b9150506103ad565b5060035461042090600190610c48565b60036001548154811061043557610435610c99565b6000918252602090912001555b600380548060200260200160405190810160405280929190818152602001828054801561048e57602002820191906000526020600020905b81548152602001906001019080831161047a575b505050505092505050919050565b600281815481106104ac57600080fd5b60009182526020909120600290910201805460019091015490915082565b60006103e88210156105155760405162461bcd60e51b815260206004820152600f60248201526e06d696e2073697a65203d203130303608c1b60448201526064015b60405180910390fd5b60045482111561055b5760405162461bcd60e51b81526020600482015260116024820152706e6f7420656e6f75676820737570706c7960781b604482015260640161050c565b6003548290600090819061057190600190610c48565b90505b82156107205760026003828154811061058f5761058f610c99565b9060005260206000200154815481106105aa576105aa610c99565b90600052602060002090600202016001015483106106b0576002600382815481106105d7576105d7610c99565b9060005260206000200154815481106105f2576105f2610c99565b90600052602060002090600202016000015460026003838154811061061957610619610c99565b90600052602060002001548154811061063457610634610c99565b9060005260206000209060020201600101546106509190610cc6565b61065a9083610c5f565b915060026003828154811061067157610671610c99565b90600052602060002001548154811061068c5761068c610c99565b906000526020600020906002020160010154836106a99190610c48565b925061070e565b6002600382815481106106c5576106c5610c99565b9060005260206000200154815481106106e0576106e0610c99565b906000526020600020906002020160000154836106fd9190610cc6565b6107079083610c5f565b9150600092505b8061071881610caf565b915050610574565b61072a8583610c77565b95945050505050565b60006103e88210156107795760405162461bcd60e51b815260206004820152600f60248201526e06d696e2073697a65203d203130303608c1b604482015260640161050c565b6004548211156107bf5760405162461bcd60e51b81526020600482015260116024820152706e6f7420656e6f75676820737570706c7960781b604482015260640161050c565b600354829060009081906107d590600190610c48565b90505b8215610720576002600382815481106107f3576107f3610c99565b90600052602060002001548154811061080e5761080e610c99565b90600052602060002090600202016001015483106109dc5760026003828154811061083b5761083b610c99565b90600052602060002001548154811061085657610856610c99565b90600052602060002090600202016000015460026003838154811061087d5761087d610c99565b90600052602060002001548154811061089857610898610c99565b9060005260206000209060020201600101546108b49190610cc6565b6108be9083610c5f565b91506002600382815481106108d5576108d5610c99565b9060005260206000200154815481106108f0576108f0610c99565b9060005260206000209060020201600101548361090d9190610c48565b925060026003828154811061092457610924610c99565b90600052602060002001548154811061093f5761093f610c99565b906000526020600020906002020160010154600460008282546109629190610c48565b92505081905550600060026003838154811061098057610980610c99565b90600052602060002001548154811061099b5761099b610c99565b90600052602060002090600202016001018190555060038054806109c1576109c1610ce5565b60019003818190600052602060002001600090559055610aa9565b6002600382815481106109f1576109f1610c99565b906000526020600020015481548110610a0c57610a0c610c99565b90600052602060002090600202016000015483610a299190610cc6565b610a339083610c5f565b915082600260038381548110610a4b57610a4b610c99565b906000526020600020015481548110610a6657610a66610c99565b90600052602060002090600202016001016000828254610a869190610c48565b925050819055508260046000828254610a9f9190610c48565b9091555060009350505b80610ab381610caf565b9150506107d8565b60606002805480602002602001604051908101604052809291908181526020016000905b82821015610b2557838290600052602060002090600202016040518060400160405290816000820154815260200160018201548152505081526020019060010190610adf565b50505050905090565b60606003805480602002602001604051908101604052809291908181526020018280548015610b7c57602002820191906000526020600020905b815481526020019060010190808311610b68575b5050505050905090565b600060208284031215610b9857600080fd5b5035919050565b6020808252825182820181905260009190848201906040850190845b81811015610bd757835183529284019291840191600101610bbb565b50909695505050505050565b602080825282518282018190526000919060409081850190868401855b82811015610c2557815180518552860151868501529284019290850190600101610c00565b5091979650505050505050565b634e487b7160e01b600052601160045260246000fd5b600082821015610c5a57610c5a610c32565b500390565b60008219821115610c7257610c72610c32565b500190565b600082610c9457634e487b7160e01b600052601260045260246000fd5b500490565b634e487b7160e01b600052603260045260246000fd5b600081610cbe57610cbe610c32565b506000190190565b6000816000190483118215151615610ce057610ce0610c32565b500290565b634e487b7160e01b600052603160045260246000fdfea2646970667358221220ab2a318c661127827b4c11b154e025458c3c25099ad343c55a7d4422f89b2e2564736f6c634300080a0033",
  "bytecodeSha1": "67c31d189dc8ccbc7b866c5ccac321a7e779204c",
  "compiler": {
    "evm_version": "istanbul",
    "optimizer": {
      "enabled": true,
      "runs": 200
    },
    "version": "0.8.10+commit.fc410830"
  },
  "contractName": "insert",
  "language": "Solidity",
  "natspec": {
    "kind": "dev",
    "methods": {},
    "version": 1
  },
  "opcodes": "PUSH1 0x80 PUSH1 0x40 MSTORE CALLVALUE DUP1 ISZERO PUSH2 0x10 JUMPI PUSH1 0x0 DUP1 REVERT JUMPDEST POP PUSH1 0x4 CALLDATASIZE LT PUSH2 0xA9 JUMPI PUSH1 0x0 CALLDATALOAD PUSH1 0xE0 SHR DUP1 PUSH4 0x696CFA77 GT PUSH2 0x71 JUMPI DUP1 PUSH4 0x696CFA77 EQ PUSH2 0x12E JUMPI DUP1 PUSH4 0x704BBA69 EQ PUSH2 0x141 JUMPI DUP1 PUSH4 0x7FDCF01F EQ PUSH2 0x154 JUMPI DUP1 PUSH4 0xB81C78EC EQ PUSH2 0x15C JUMPI DUP1 PUSH4 0xD9820973 EQ PUSH2 0x171 JUMPI DUP1 PUSH4 0xF7DACB4A EQ PUSH2 0x179 JUMPI PUSH1 0x0 DUP1 REVERT JUMPDEST DUP1 PUSH4 0x3CA835C EQ PUSH2 0xAE JUMPI DUP1 PUSH4 0x47FC9AA EQ PUSH2 0xD4 JUMPI DUP1 PUSH4 0x14B0E266 EQ PUSH2 0xDD JUMPI DUP1 PUSH4 0x2E94420F EQ PUSH2 0xFD JUMPI DUP1 PUSH4 0x4423C5F1 EQ PUSH2 0x106 JUMPI JUMPDEST PUSH1 0x0 DUP1 REVERT JUMPDEST PUSH2 0xC1 PUSH2 0xBC CALLDATASIZE PUSH1 0x4 PUSH2 0xB86 JUMP JUMPDEST PUSH2 0x182 JUMP JUMPDEST PUSH1 0x40 MLOAD SWAP1 DUP2 MSTORE PUSH1 0x20 ADD JUMPDEST PUSH1 0x40 MLOAD DUP1 SWAP2 SUB SWAP1 RETURN JUMPDEST PUSH2 0xC1 PUSH1 0x4 SLOAD DUP2 JUMP JUMPDEST PUSH2 0xF0 PUSH2 0xEB CALLDATASIZE PUSH1 0x4 PUSH2 0xB86 JUMP JUMPDEST PUSH2 0x1A3 JUMP JUMPDEST PUSH1 0x40 MLOAD PUSH2 0xCB SWAP2 SWAP1 PUSH2 0xB9F JUMP JUMPDEST PUSH2 0xC1 PUSH1 0x1 SLOAD DUP2 JUMP JUMPDEST PUSH2 0x119 PUSH2 0x114 CALLDATASIZE PUSH1 0x4 PUSH2 0xB86 JUMP JUMPDEST PUSH2 0x49C JUMP JUMPDEST PUSH1 0x40 DUP1 MLOAD SWAP3 DUP4 MSTORE PUSH1 0x20 DUP4 ADD SWAP2 SWAP1 SWAP2 MSTORE ADD PUSH2 0xCB JUMP JUMPDEST PUSH2 0xC1 PUSH2 0x13C CALLDATASIZE PUSH1 0x4 PUSH2 0xB86 JUMP JUMPDEST PUSH2 0x4CA JUMP JUMPDEST PUSH2 0xC1 PUSH2 0x14F CALLDATASIZE PUSH1 0x4 PUSH2 0xB86 JUMP JUMPDEST PUSH2 0x733 JUMP JUMPDEST PUSH1 0x3 SLOAD PUSH2 0xC1 JUMP JUMPDEST PUSH2 0x164 PUSH2 0xABB JUMP JUMPDEST PUSH1 0x40 MLOAD PUSH2 0xCB SWAP2 SWAP1 PUSH2 0xBE3 JUMP JUMPDEST PUSH2 0xF0 PUSH2 0xB2E JUMP JUMPDEST PUSH2 0xC1 PUSH1 0x0 SLOAD DUP2 JUMP JUMPDEST PUSH1 0x3 DUP2 DUP2 SLOAD DUP2 LT PUSH2 0x192 JUMPI PUSH1 0x0 DUP1 REVERT JUMPDEST PUSH1 0x0 SWAP2 DUP3 MSTORE PUSH1 0x20 SWAP1 SWAP2 KECCAK256 ADD SLOAD SWAP1 POP DUP2 JUMP JUMPDEST PUSH1 0x60 PUSH1 0x0 DUP1 PUSH1 0x1 PUSH1 0x3 DUP1 SLOAD SWAP1 POP PUSH2 0x1BA SWAP2 SWAP1 PUSH2 0xC48 JUMP JUMPDEST PUSH1 0x0 DUP6 DUP2 SSTORE PUSH1 0x40 DUP1 MLOAD DUP1 DUP3 ADD SWAP1 SWAP2 MSTORE DUP7 DUP2 MSTORE PUSH2 0x1388 PUSH1 0x20 DUP3 ADD DUP2 DUP2 MSTORE PUSH1 0x2 DUP1 SLOAD PUSH1 0x1 DUP2 ADD DUP3 SSTORE DUP2 DUP7 MSTORE SWAP4 MLOAD SWAP4 MUL PUSH32 0x405787FA12A823E0F2B7631CC41B3BA8828B3321CA811111FA75CD3AA3BB5ACE DUP2 ADD SWAP4 SWAP1 SWAP4 SSTORE MLOAD PUSH32 0x405787FA12A823E0F2B7631CC41B3BA8828B3321CA811111FA75CD3AA3BB5ACF SWAP1 SWAP3 ADD SWAP2 SWAP1 SWAP2 SSTORE PUSH1 0x4 DUP1 SLOAD SWAP4 SWAP5 POP SWAP1 SWAP3 SWAP1 SWAP2 SWAP1 PUSH2 0x24E SWAP1 DUP5 SWAP1 PUSH2 0xC5F JUMP JUMPDEST SWAP1 SWAP2 SSTORE POP POP JUMPDEST DUP1 DUP3 LT ISZERO PUSH2 0x2E0 JUMPI PUSH1 0x2 PUSH2 0x268 DUP3 DUP5 PUSH2 0xC5F JUMP JUMPDEST PUSH2 0x272 SWAP2 SWAP1 PUSH2 0xC77 JUMP JUMPDEST PUSH1 0x1 DUP2 SWAP1 SSTORE PUSH1 0x3 DUP1 SLOAD PUSH1 0x2 SWAP3 SWAP1 DUP2 LT PUSH2 0x28D JUMPI PUSH2 0x28D PUSH2 0xC99 JUMP JUMPDEST SWAP1 PUSH1 0x0 MSTORE PUSH1 0x20 PUSH1 0x0 KECCAK256 ADD SLOAD DUP2 SLOAD DUP2 LT PUSH2 0x2A8 JUMPI PUSH2 0x2A8 PUSH2 0xC99 JUMP JUMPDEST SWAP1 PUSH1 0x0 MSTORE PUSH1 0x20 PUSH1 0x0 KECCAK256 SWAP1 PUSH1 0x2 MUL ADD PUSH1 0x0 ADD SLOAD PUSH1 0x0 SLOAD GT ISZERO PUSH2 0x2D7 JUMPI PUSH1 0x1 DUP1 SLOAD PUSH2 0x2D0 SWAP2 PUSH2 0xC5F JUMP JUMPDEST SWAP2 POP PUSH2 0x254 JUMP JUMPDEST POP PUSH1 0x1 SLOAD PUSH2 0x254 JUMP JUMPDEST DUP1 DUP3 EQ ISZERO PUSH2 0x34C JUMPI PUSH1 0x2 PUSH1 0x3 DUP4 DUP2 SLOAD DUP2 LT PUSH2 0x2FD JUMPI PUSH2 0x2FD PUSH2 0xC99 JUMP JUMPDEST SWAP1 PUSH1 0x0 MSTORE PUSH1 0x20 PUSH1 0x0 KECCAK256 ADD SLOAD DUP2 SLOAD DUP2 LT PUSH2 0x318 JUMPI PUSH2 0x318 PUSH2 0xC99 JUMP JUMPDEST SWAP1 PUSH1 0x0 MSTORE PUSH1 0x20 PUSH1 0x0 KECCAK256 SWAP1 PUSH1 0x2 MUL ADD PUSH1 0x0 ADD SLOAD PUSH1 0x0 SLOAD GT ISZERO PUSH2 0x346 JUMPI PUSH2 0x33E DUP3 PUSH1 0x1 PUSH2 0xC5F JUMP JUMPDEST PUSH1 0x1 SSTORE PUSH2 0x34C JUMP JUMPDEST PUSH1 0x1 DUP3 SWAP1 SSTORE JUMPDEST PUSH1 0x3 DUP1 SLOAD PUSH1 0x1 DUP1 DUP3 ADD DUP4 SSTORE PUSH1 0x0 DUP4 SWAP1 MSTORE PUSH32 0xC2575A0E9E593C00F959F8C92F12DB2869C3395A3B0502D05E2516446F71F85B DUP3 ADD SWAP2 SWAP1 SWAP2 SSTORE SWAP1 SLOAD PUSH2 0x38F SWAP2 SWAP1 PUSH2 0xC48 JUMP JUMPDEST PUSH1 0x1 SLOAD LT ISZERO PUSH2 0x442 JUMPI PUSH1 0x3 SLOAD PUSH1 0x0 SWAP1 PUSH2 0x3AA SWAP1 PUSH1 0x1 SWAP1 PUSH2 0xC48 JUMP JUMPDEST SWAP1 POP JUMPDEST PUSH1 0x1 SLOAD DUP2 GT ISZERO PUSH2 0x410 JUMPI PUSH1 0x3 PUSH2 0x3C4 PUSH1 0x1 DUP4 PUSH2 0xC48 JUMP JUMPDEST DUP2 SLOAD DUP2 LT PUSH2 0x3D4 JUMPI PUSH2 0x3D4 PUSH2 0xC99 JUMP JUMPDEST SWAP1 PUSH1 0x0 MSTORE PUSH1 0x20 PUSH1 0x0 KECCAK256 ADD SLOAD PUSH1 0x3 DUP3 DUP2 SLOAD DUP2 LT PUSH2 0x3F2 JUMPI PUSH2 0x3F2 PUSH2 0xC99 JUMP JUMPDEST PUSH1 0x0 SWAP2 DUP3 MSTORE PUSH1 0x20 SWAP1 SWAP2 KECCAK256 ADD SSTORE DUP1 PUSH2 0x408 DUP2 PUSH2 0xCAF JUMP JUMPDEST SWAP2 POP POP PUSH2 0x3AD JUMP JUMPDEST POP PUSH1 0x3 SLOAD PUSH2 0x420 SWAP1 PUSH1 0x1 SWAP1 PUSH2 0xC48 JUMP JUMPDEST PUSH1 0x3 PUSH1 0x1 SLOAD DUP2 SLOAD DUP2 LT PUSH2 0x435 JUMPI PUSH2 0x435 PUSH2 0xC99 JUMP JUMPDEST PUSH1 0x0 SWAP2 DUP3 MSTORE PUSH1 0x20 SWAP1 SWAP2 KECCAK256 ADD SSTORE JUMPDEST PUSH1 0x3 DUP1 SLOAD DUP1 PUSH1 0x20 MUL PUSH1 0x20 ADD PUSH1 0x40 MLOAD SWAP1 DUP2 ADD PUSH1 0x40 MSTORE DUP1 SWAP3 SWAP2 SWAP1 DUP2 DUP2 MSTORE PUSH1 0x20 ADD DUP3 DUP1 SLOAD DUP1 ISZERO PUSH2 0x48E JUMPI PUSH1 0x20 MUL DUP3 ADD SWAP2 SWAP1 PUSH1 0x0 MSTORE PUSH1 0x20 PUSH1 0x0 KECCAK256 SWAP1 JUMPDEST DUP2 SLOAD DUP2 MSTORE PUSH1 0x20 ADD SWAP1 PUSH1 0x1 ADD SWAP1 DUP1 DUP4 GT PUSH2 0x47A JUMPI JUMPDEST POP POP POP POP POP SWAP3 POP POP POP SWAP2 SWAP1 POP JUMP JUMPDEST PUSH1 0x2 DUP2 DUP2 SLOAD DUP2 LT PUSH2 0x4AC JUMPI PUSH1 0x0 DUP1 REVERT JUMPDEST PUSH1 0x0 SWAP2 DUP3 MSTORE PUSH1 0x20 SWAP1 SWAP2 KECCAK256 PUSH1 0x2 SWAP1 SWAP2 MUL ADD DUP1 SLOAD PUSH1 0x1 SWAP1 SWAP2 ADD SLOAD SWAP1 SWAP2 POP DUP3 JUMP JUMPDEST PUSH1 0x0 PUSH2 0x3E8 DUP3 LT ISZERO PUSH2 0x515 JUMPI PUSH1 0x40 MLOAD PUSH3 0x461BCD PUSH1 0xE5 SHL DUP2 MSTORE PUSH1 0x20 PUSH1 0x4 DUP3 ADD MSTORE PUSH1 0xF PUSH1 0x24 DUP3 ADD MSTORE PUSH15 0x6D696E2073697A65203D203130303 PUSH1 0x8C SHL PUSH1 0x44 DUP3 ADD MSTORE PUSH1 0x64 ADD JUMPDEST PUSH1 0x40 MLOAD DUP1 SWAP2 SUB SWAP1 REVERT JUMPDEST PUSH1 0x4 SLOAD DUP3 GT ISZERO PUSH2 0x55B JUMPI PUSH1 0x40 MLOAD PUSH3 0x461BCD PUSH1 0xE5 SHL DUP2 MSTORE PUSH1 0x20 PUSH1 0x4 DUP3 ADD MSTORE PUSH1 0x11 PUSH1 0x24 DUP3 ADD MSTORE PUSH17 0x6E6F7420656E6F75676820737570706C79 PUSH1 0x78 SHL PUSH1 0x44 DUP3 ADD MSTORE PUSH1 0x64 ADD PUSH2 0x50C JUMP JUMPDEST PUSH1 0x3 SLOAD DUP3 SWAP1 PUSH1 0x0 SWAP1 DUP2 SWAP1 PUSH2 0x571 SWAP1 PUSH1 0x1 SWAP1 PUSH2 0xC48 JUMP JUMPDEST SWAP1 POP JUMPDEST DUP3 ISZERO PUSH2 0x720 JUMPI PUSH1 0x2 PUSH1 0x3 DUP3 DUP2 SLOAD DUP2 LT PUSH2 0x58F JUMPI PUSH2 0x58F PUSH2 0xC99 JUMP JUMPDEST SWAP1 PUSH1 0x0 MSTORE PUSH1 0x20 PUSH1 0x0 KECCAK256 ADD SLOAD DUP2 SLOAD DUP2 LT PUSH2 0x5AA JUMPI PUSH2 0x5AA PUSH2 0xC99 JUMP JUMPDEST SWAP1 PUSH1 0x0 MSTORE PUSH1 0x20 PUSH1 0x0 KECCAK256 SWAP1 PUSH1 0x2 MUL ADD PUSH1 0x1 ADD SLOAD DUP4 LT PUSH2 0x6B0 JUMPI PUSH1 0x2 PUSH1 0x3 DUP3 DUP2 SLOAD DUP2 LT PUSH2 0x5D7 JUMPI PUSH2 0x5D7 PUSH2 0xC99 JUMP JUMPDEST SWAP1 PUSH1 0x0 MSTORE PUSH1 0x20 PUSH1 0x0 KECCAK256 ADD SLOAD DUP2 SLOAD DUP2 LT PUSH2 0x5F2 JUMPI PUSH2 0x5F2 PUSH2 0xC99 JUMP JUMPDEST SWAP1 PUSH1 0x0 MSTORE PUSH1 0x20 PUSH1 0x0 KECCAK256 SWAP1 PUSH1 0x2 MUL ADD PUSH1 0x0 ADD SLOAD PUSH1 0x2 PUSH1 0x3 DUP4 DUP2 SLOAD DUP2 LT PUSH2 0x619 JUMPI PUSH2 0x619 PUSH2 0xC99 JUMP JUMPDEST SWAP1 PUSH1 0x0 MSTORE PUSH1 0x20 PUSH1 0x0 KECCAK256 ADD SLOAD DUP2 SLOAD DUP2 LT PUSH2 0x634 JUMPI PUSH2 0x634 PUSH2 0xC99 JUMP JUMPDEST SWAP1 PUSH1 0x0 MSTORE PUSH1 0x20 PUSH1 0x0 KECCAK256 SWAP1 PUSH1 0x2 MUL ADD PUSH1 0x1 ADD SLOAD PUSH2 0x650 SWAP2 SWAP1 PUSH2 0xCC6 JUMP JUMPDEST PUSH2 0x65A SWAP1 DUP4 PUSH2 0xC5F JUMP JUMPDEST SWAP2 POP PUSH1 0x2 PUSH1 0x3 DUP3 DUP2 SLOAD DUP2 LT PUSH2 0x671 JUMPI PUSH2 0x671 PUSH2 0xC99 JUMP JUMPDEST SWAP1 PUSH1 0x0 MSTORE PUSH1 0x20 PUSH1 0x0 KECCAK256 ADD SLOAD DUP2 SLOAD DUP2 LT PUSH2 0x68C JUMPI PUSH2 0x68C PUSH2 0xC99 JUMP JUMPDEST SWAP1 PUSH1 0x0 MSTORE PUSH1 0x20 PUSH1 0x0 KECCAK256 SWAP1 PUSH1 0x2 MUL ADD PUSH1 0x1 ADD SLOAD DUP4 PUSH2 0x6A9 SWAP2 SWAP1 PUSH2 0xC48 JUMP JUMPDEST SWAP3 POP PUSH2 0x70E JUMP JUMPDEST PUSH1 0x2 PUSH1 0x3 DUP3 DUP2 SLOAD DUP2 LT PUSH2 0x6C5 JUMPI PUSH2 0x6C5 PUSH2 0xC99 JUMP JUMPDEST SWAP1 PUSH1 0x0 MSTORE PUSH1 0x20 PUSH1 0x0 KECCAK256 ADD SLOAD DUP2 SLOAD DUP2 LT PUSH2 0x6E0 JUMPI PUSH2 0x6E0 PUSH2 0xC99 JUMP JUMPDEST SWAP1 PUSH1 0x0 MSTORE PUSH1 0x20 PUSH1 0x0 KECCAK256 SWAP1 PUSH1 0x2 MUL ADD PUSH1 0x0 ADD SLOAD DUP4 PUSH2 0x6FD SWAP2 SWAP1 PUSH2 0xCC6 JUMP JUMPDEST PUSH2 0x707 SWAP1 DUP4 PUSH2 0xC5F JUMP JUMPDEST SWAP2 POP PUSH1 0x0 SWAP3 POP JUMPDEST DUP1 PUSH2 0x718 DUP2 PUSH2 0xCAF JUMP JUMPDEST SWAP2 POP POP PUSH2 0x574 JUMP JUMPDEST PUSH2 0x72A DUP6 DUP4 PUSH2 0xC77 JUMP JUMPDEST SWAP6 SWAP5 POP POP POP POP POP JUMP JUMPDEST PUSH1 0x0 PUSH2 0x3E8 DUP3 LT ISZERO PUSH2 0x779 JUMPI PUSH1 0x40 MLOAD PUSH3 0x461BCD PUSH1 0xE5 SHL DUP2 MSTORE PUSH1 0x20 PUSH1 0x4 DUP3 ADD MSTORE PUSH1 0xF PUSH1 0x24 DUP3 ADD MSTORE PUSH15 0x6D696E2073697A65203D203130303 PUSH1 0x8C SHL PUSH1 0x44 DUP3 ADD MSTORE PUSH1 0x64 ADD PUSH2 0x50C JUMP JUMPDEST PUSH1 0x4 SLOAD DUP3 GT ISZERO PUSH2 0x7BF JUMPI PUSH1 0x40 MLOAD PUSH3 0x461BCD PUSH1 0xE5 SHL DUP2 MSTORE PUSH1 0x20 PUSH1 0x4 DUP3 ADD MSTORE PUSH1 0x11 PUSH1 0x24 DUP3 ADD MSTORE PUSH17 0x6E6F7420656E6F75676820737570706C79 PUSH1 0x78 SHL PUSH1 0x44 DUP3 ADD MSTORE PUSH1 0x64 ADD PUSH2 0x50C JUMP JUMPDEST PUSH1 0x3 SLOAD DUP3 SWAP1 PUSH1 0x0 SWAP1 DUP2 SWAP1 PUSH2 0x7D5 SWAP1 PUSH1 0x1 SWAP1 PUSH2 0xC48 JUMP JUMPDEST SWAP1 POP JUMPDEST DUP3 ISZERO PUSH2 0x720 JUMPI PUSH1 0x2 PUSH1 0x3 DUP3 DUP2 SLOAD DUP2 LT PUSH2 0x7F3 JUMPI PUSH2 0x7F3 PUSH2 0xC99 JUMP JUMPDEST SWAP1 PUSH1 0x0 MSTORE PUSH1 0x20 PUSH1 0x0 KECCAK256 ADD SLOAD DUP2 SLOAD DUP2 LT PUSH2 0x80E JUMPI PUSH2 0x80E PUSH2 0xC99 JUMP JUMPDEST SWAP1 PUSH1 0x0 MSTORE PUSH1 0x20 PUSH1 0x0 KECCAK256 SWAP1 PUSH1 0x2 MUL ADD PUSH1 0x1 ADD SLOAD DUP4 LT PUSH2 0x9DC JUMPI PUSH1 0x2 PUSH1 0x3 DUP3 DUP2 SLOAD DUP2 LT PUSH2 0x83B JUMPI PUSH2 0x83B PUSH2 0xC99 JUMP JUMPDEST SWAP1 PUSH1 0x0 MSTORE PUSH1 0x20 PUSH1 0x0 KECCAK256 ADD SLOAD DUP2 SLOAD DUP2 LT PUSH2 0x856 JUMPI PUSH2 0x856 PUSH2 0xC99 JUMP JUMPDEST SWAP1 PUSH1 0x0 MSTORE PUSH1 0x20 PUSH1 0x0 KECCAK256 SWAP1 PUSH1 0x2 MUL ADD PUSH1 0x0 ADD SLOAD PUSH1 0x2 PUSH1 0x3 DUP4 DUP2 SLOAD DUP2 LT PUSH2 0x87D JUMPI PUSH2 0x87D PUSH2 0xC99 JUMP JUMPDEST SWAP1 PUSH1 0x0 MSTORE PUSH1 0x20 PUSH1 0x0 KECCAK256 ADD SLOAD DUP2 SLOAD DUP2 LT PUSH2 0x898 JUMPI PUSH2 0x898 PUSH2 0xC99 JUMP JUMPDEST SWAP1 PUSH1 0x0 MSTORE PUSH1 0x20 PUSH1 0x0 KECCAK256 SWAP1 PUSH1 0x2 MUL ADD PUSH1 0x1 ADD SLOAD PUSH2 0x8B4 SWAP2 SWAP1 PUSH2 0xCC6 JUMP JUMPDEST PUSH2 0x8BE SWAP1 DUP4 PUSH2 0xC5F JUMP JUMPDEST SWAP2 POP PUSH1 0x2 PUSH1 0x3 DUP3 DUP2 SLOAD DUP2 LT PUSH2 0x8D5 JUMPI PUSH2 0x8D5 PUSH2 0xC99 JUMP JUMPDEST SWAP1 PUSH1 0x0 MSTORE PUSH1 0x20 PUSH1 0x0 KECCAK256 ADD SLOAD DUP2 SLOAD DUP2 LT PUSH2 0x8F0 JUMPI PUSH2 0x8F0 PUSH2 0xC99 JUMP JUMPDEST SWAP1 PUSH1 0x0 MSTORE PUSH1 0x20 PUSH1 0x0 KECCAK256 SWAP1 PUSH1 0x2 MUL ADD PUSH1 0x1 ADD SLOAD DUP4 PUSH2 0x90D SWAP2 SWAP1 PUSH2 0xC48 JUMP JUMPDEST SWAP3 POP PUSH1 0x2 PUSH1 0x3 DUP3 DUP2 SLOAD DUP2 LT PUSH2 0x924 JUMPI PUSH2 0x924 PUSH2 0xC99 JUMP JUMPDEST SWAP1 PUSH1 0x0 MSTORE PUSH1 0x20 PUSH1 0x0 KECCAK256 ADD SLOAD DUP2 SLOAD DUP2 LT PUSH2 0x93F JUMPI PUSH2 0x93F PUSH2 0xC99 JUMP JUMPDEST SWAP1 PUSH1 0x0 MSTORE PUSH1 0x20 PUSH1 0x0 KECCAK256 SWAP1 PUSH1 0x2 MUL ADD PUSH1 0x1 ADD SLOAD PUSH1 0x4 PUSH1 0x0 DUP3 DUP3 SLOAD PUSH2 0x962 SWAP2 SWAP1 PUSH2 0xC48 JUMP JUMPDEST SWAP3 POP POP DUP2 SWAP1 SSTORE POP PUSH1 0x0 PUSH1 0x2 PUSH1 0x3 DUP4 DUP2 SLOAD DUP2 LT PUSH2 0x980 JUMPI PUSH2 0x980 PUSH2 0xC99 JUMP JUMPDEST SWAP1 PUSH1 0x0 MSTORE PUSH1 0x20 PUSH1 0x0 KECCAK256 ADD SLOAD DUP2 SLOAD DUP2 LT PUSH2 0x99B JUMPI PUSH2 0x99B PUSH2 0xC99 JUMP JUMPDEST SWAP1 PUSH1 0x0 MSTORE PUSH1 0x20 PUSH1 0x0 KECCAK256 SWAP1 PUSH1 0x2 MUL ADD PUSH1 0x1 ADD DUP2 SWAP1 SSTORE POP PUSH1 0x3 DUP1 SLOAD DUP1 PUSH2 0x9C1 JUMPI PUSH2 0x9C1 PUSH2 0xCE5 JUMP JUMPDEST PUSH1 0x1 SWAP1 SUB DUP2 DUP2 SWAP1 PUSH1 0x0 MSTORE PUSH1 0x20 PUSH1 0x0 KECCAK256 ADD PUSH1 0x0 SWAP1 SSTORE SWAP1 SSTORE PUSH2 0xAA9 JUMP JUMPDEST PUSH1 0x2 PUSH1 0x3 DUP3 DUP2 SLOAD DUP2 LT PUSH2 0x9F1 JUMPI PUSH2 0x9F1 PUSH2 0xC99 JUMP JUMPDEST SWAP1 PUSH1 0x0 MSTORE PUSH1 0x20 PUSH1 0x0 KECCAK256 ADD SLOAD DUP2 SLOAD DUP2 LT PUSH2 0xA0C JUMPI PUSH2 0xA0C PUSH2 0xC99 JUMP JUMPDEST SWAP1 PUSH1 0x0 MSTORE PUSH1 0x20 PUSH1 0x0 KECCAK256 SWAP1 PUSH1 0x2 MUL ADD PUSH1 0x0 ADD SLOAD DUP4 PUSH2 0xA29 SWAP2 SWAP1 PUSH2 0xCC6 JUMP JUMPDEST PUSH2 0xA33 SWAP1 DUP4 PUSH2 0xC5F JUMP JUMPDEST SWAP2 POP DUP3 PUSH1 0x2 PUSH1 0x3 DUP4 DUP2 SLOAD DUP2 LT PUSH2 0xA4B JUMPI PUSH2 0xA4B PUSH2 0xC99 JUMP JUMPDEST SWAP1 PUSH1 0x0 MSTORE PUSH1 0x20 PUSH1 0x0 KECCAK256 ADD SLOAD DUP2 SLOAD DUP2 LT PUSH2 0xA66 JUMPI PUSH2 0xA66 PUSH2 0xC99 JUMP JUMPDEST SWAP1 PUSH1 0x0 MSTORE PUSH1 0x20 PUSH1 0x0 KECCAK256 SWAP1 PUSH1 0x2 MUL ADD PUSH1 0x1 ADD PUSH1 0x0 DUP3 DUP3 SLOAD PUSH2 0xA86 SWAP2 SWAP1 PUSH2 0xC48 JUMP JUMPDEST SWAP3 POP POP DUP2 SWAP1 SSTORE POP DUP3 PUSH1 0x4 PUSH1 0x0 DUP3 DUP3 SLOAD PUSH2 0xA9F SWAP2 SWAP1 PUSH2 0xC48 JUMP JUMPDEST SWAP1 SWAP2 SSTORE POP PUSH1 0x0 SWAP4 POP POP JUMPDEST DUP1 PUSH2 0xAB3 DUP2 PUSH2 0xCAF JUMP JUMPDEST SWAP2 POP POP PUSH2 0x7D8 JUMP JUMPDEST PUSH1 0x60 PUSH1 0x2 DUP1 SLOAD DUP1 PUSH1 0x20 MUL PUSH1 0x20 ADD PUSH1 0x40 MLOAD SWAP1 DUP2 ADD PUSH1 0x40 MSTORE DUP1 SWAP3 SWAP2 SWAP1 DUP2 DUP2 MSTORE PUSH1 0x20 ADD PUSH1 0x0 SWAP1 JUMPDEST DUP3 DUP3 LT ISZERO PUSH2 0xB25 JUMPI DUP4 DUP3 SWAP1 PUSH1 0x0 MSTORE PUSH1 0x20 PUSH1 0x0 KECCAK256 SWAP1 PUSH1 0x2 MUL ADD PUSH1 0x40 MLOAD DUP1 PUSH1 0x40 ADD PUSH1 0x40 MSTORE SWAP1 DUP2 PUSH1 0x0 DUP3 ADD SLOAD DUP2 MSTORE PUSH1 0x20 ADD PUSH1 0x1 DUP3 ADD SLOAD DUP2 MSTORE POP POP DUP2 MSTORE PUSH1 0x20 ADD SWAP1 PUSH1 0x1 ADD SWAP1 PUSH2 0xADF JUMP JUMPDEST POP POP POP POP SWAP1 POP SWAP1 JUMP JUMPDEST PUSH1 0x60 PUSH1 0x3 DUP1 SLOAD DUP1 PUSH1 0x20 MUL PUSH1 0x20 ADD PUSH1 0x40 MLOAD SWAP1 DUP2 ADD PUSH1 0x40 MSTORE DUP1 SWAP3 SWAP2 SWAP1 DUP2 DUP2 MSTORE PUSH1 0x20 ADD DUP3 DUP1 SLOAD DUP1 ISZERO PUSH2 0xB7C JUMPI PUSH1 0x20 MUL DUP3 ADD SWAP2 SWAP1 PUSH1 0x0 MSTORE PUSH1 0x20 PUSH1 0x0 KECCAK256 SWAP1 JUMPDEST DUP2 SLOAD DUP2 MSTORE PUSH1 0x20 ADD SWAP1 PUSH1 0x1 ADD SWAP1 DUP1 DUP4 GT PUSH2 0xB68 JUMPI JUMPDEST POP POP POP POP POP SWAP1 POP SWAP1 JUMP JUMPDEST PUSH1 0x0 PUSH1 0x20 DUP3 DUP5 SUB SLT ISZERO PUSH2 0xB98 JUMPI PUSH1 0x0 DUP1 REVERT JUMPDEST POP CALLDATALOAD SWAP2 SWAP1 POP JUMP JUMPDEST PUSH1 0x20 DUP1 DUP3 MSTORE DUP3 MLOAD DUP3 DUP3 ADD DUP2 SWAP1 MSTORE PUSH1 0x0 SWAP2 SWAP1 DUP5 DUP3 ADD SWAP1 PUSH1 0x40 DUP6 ADD SWAP1 DUP5 JUMPDEST DUP2 DUP2 LT ISZERO PUSH2 0xBD7 JUMPI DUP4 MLOAD DUP4 MSTORE SWAP3 DUP5 ADD SWAP3 SWAP2 DUP5 ADD SWAP2 PUSH1 0x1 ADD PUSH2 0xBBB JUMP JUMPDEST POP SWAP1 SWAP7 SWAP6 POP POP POP POP POP POP JUMP JUMPDEST PUSH1 0x20 DUP1 DUP3 MSTORE DUP3 MLOAD DUP3 DUP3 ADD DUP2 SWAP1 MSTORE PUSH1 0x0 SWAP2 SWAP1 PUSH1 0x40 SWAP1 DUP2 DUP6 ADD SWAP1 DUP7 DUP5 ADD DUP6 JUMPDEST DUP3 DUP2 LT ISZERO PUSH2 0xC25 JUMPI DUP2 MLOAD DUP1 MLOAD DUP6 MSTORE DUP7 ADD MLOAD DUP7 DUP6 ADD MSTORE SWAP3 DUP5 ADD SWAP3 SWAP1 DUP6 ADD SWAP1 PUSH1 0x1 ADD PUSH2 0xC00 JUMP JUMPDEST POP SWAP2 SWAP8 SWAP7 POP POP POP POP POP POP POP JUMP JUMPDEST PUSH4 0x4E487B71 PUSH1 0xE0 SHL PUSH1 0x0 MSTORE PUSH1 0x11 PUSH1 0x4 MSTORE PUSH1 0x24 PUSH1 0x0 REVERT JUMPDEST PUSH1 0x0 DUP3 DUP3 LT ISZERO PUSH2 0xC5A JUMPI PUSH2 0xC5A PUSH2 0xC32 JUMP JUMPDEST POP SUB SWAP1 JUMP JUMPDEST PUSH1 0x0 DUP3 NOT DUP3 GT ISZERO PUSH2 0xC72 JUMPI PUSH2 0xC72 PUSH2 0xC32 JUMP JUMPDEST POP ADD SWAP1 JUMP JUMPDEST PUSH1 0x0 DUP3 PUSH2 0xC94 JUMPI PUSH4 0x4E487B71 PUSH1 0xE0 SHL PUSH1 0x0 MSTORE PUSH1 0x12 PUSH1 0x4 MSTORE PUSH1 0x24 PUSH1 0x0 REVERT JUMPDEST POP DIV SWAP1 JUMP JUMPDEST PUSH4 0x4E487B71 PUSH1 0xE0 SHL PUSH1 0x0 MSTORE PUSH1 0x32 PUSH1 0x4 MSTORE PUSH1 0x24 PUSH1 0x0 REVERT JUMPDEST PUSH1 0x0 DUP2 PUSH2 0xCBE JUMPI PUSH2 0xCBE PUSH2 0xC32 JUMP JUMPDEST POP PUSH1 0x0 NOT ADD SWAP1 JUMP JUMPDEST PUSH1 0x0 DUP2 PUSH1 0x0 NOT DIV DUP4 GT DUP3 ISZERO ISZERO AND ISZERO PUSH2 0xCE0 JUMPI PUSH2 0xCE0 PUSH2 0xC32 JUMP JUMPDEST POP MUL SWAP1 JUMP JUMPDEST PUSH4 0x4E487B71 PUSH1 0xE0 SHL PUSH1 0x0 MSTORE PUSH1 0x31 PUSH1 0x4 MSTORE PUSH1 0x24 PUSH1 0x0 REVERT INVALID LOG2 PUSH5 0x6970667358 0x22 SLT KECCAK256 0xAB 0x2A BALANCE DUP13 PUSH7 0x1127827B4C11B1 SLOAD 0xE0 0x25 GASLIMIT DUP13 EXTCODECOPY 0x25 MULMOD SWAP11 0xD3 NUMBER 0xC5 GAS PUSH30 0x4422F89B2E2564736F6C634300080A003300000000000000000000000000 ",
  "sha1": "850ad4eef3fdf97f9994b75faef9fe8d2befe7a7",
  "source": "// SPDX-License-Identifier: MIT\npragma solidity >0.6.7;\n\ncontract insert {\n    //uint256[] public bid = [12,10,8,6];\n    uint256 public newbid;\n    uint256 public mid;\n    struct bid_struct {\n        uint256 price_percent;\n        uint256 amount;\n    }\n    bid_struct[] public bids;\n    uint256[] public bid_order = [2, 3, 0, 1];\n\n    uint256 public supply = 18000;\n\n    constructor() {\n        bids.push(bid_struct(10, 2000));\n        bids.push(bid_struct(12, 1000));\n        bids.push(bid_struct(6, 10000));\n        bids.push(bid_struct(8, 5000));\n    }\n\n    function averageBid(uint256 ask_size)\n        public\n        view\n        returns (uint256 average_bid)\n    {\n        require(ask_size >= 1000, \"min size = 1000\");\n        require(ask_size <= supply, \"not enough supply\");\n        uint256 _size = ask_size;\n        uint256 _sizexprice = 0;\n        uint256 i = bid_order.length - 1;\n        while (_size > 0) {\n            if (_size >= bids[bid_order[i]].amount) {\n                _sizexprice += (bids[bid_order[i]].amount *\n                    bids[bid_order[i]].price_percent);\n                _size = _size - bids[bid_order[i]].amount;\n            } else {\n                _sizexprice += (_size * bids[bid_order[i]].price_percent);\n                _size = 0;\n            }\n            i--;\n        }\n        average_bid = _sizexprice / ask_size;\n        return average_bid;\n    }\n\n    function sellBid(uint256 ask_size) public returns (uint256 average_bid) {\n        require(ask_size >= 1000, \"min size = 1000\");\n        require(ask_size <= supply, \"not enough supply\");\n        uint256 _size = ask_size;\n        uint256 _sizexprice = 0;\n        uint256 i = bid_order.length - 1;\n        while (_size > 0) {\n            if (_size >= bids[bid_order[i]].amount) {\n                _sizexprice += (bids[bid_order[i]].amount *\n                    bids[bid_order[i]].price_percent);\n                _size -= bids[bid_order[i]].amount;\n                supply -= bids[bid_order[i]].amount;\n                bids[bid_order[i]].amount = 0;\n                // last one is the highest one, pop the highest bid\n                bid_order.pop();\n            } else {\n                _sizexprice += (_size * bids[bid_order[i]].price_percent);\n                bids[bid_order[i]].amount -= _size;\n                supply -= _size;\n                _size = 0;\n            }\n            i--;\n        }\n        average_bid = _sizexprice / ask_size;\n        return average_bid;\n    }\n\n    function addBid(uint256 _new) public returns (uint256[] memory) {\n        uint256 left = 0;\n        uint256 right = bid_order.length - 1;\n        newbid = _new;\n        bids.push(bid_struct(newbid, 5000));\n        supply += 5000;\n\n        // binary tree insert\n        while (left < right) {\n            mid = (left + right) / 2;\n            if (newbid > bids[bid_order[mid]].price_percent) {\n                left = mid + 1;\n            } else {\n                right = mid;\n            }\n        }\n        // when loop ends:\n        // if left > right mid is correct position to insert\n        // if left == right, need to compare once more with right\n        if (left == right) {\n            if (newbid > bids[bid_order[left]].price_percent) {\n                mid = left + 1;\n            } else {\n                mid = left;\n            }\n        }\n        // push the new bid into the bid_order array\n        bid_order.push(bid_order.length); //bid length is increasing 1 here\n        if (mid < bid_order.length - 1) {\n            for (uint256 i = bid_order.length - 1; i > mid; i--) {\n                bid_order[i] = bid_order[i - 1];\n            }\n            bid_order[mid] = bid_order.length - 1; // bid length has increased 1 earlier\n        } // else if mid == bid_order.lenghth, newbid is highest and already been pushed to the last one of bid_order\n        return bid_order;\n    }\n\n    function getBidOrder() public view returns (uint256[] memory) {\n        return bid_order;\n    }\n\n    function getBids() public view returns (bid_struct[] memory) {\n        return bids;\n    }\n\n    function getlen() public view returns (uint256) {\n        return (bid_order.length);\n    }\n}\n",
  "sourcePath": "contracts/toy_contracts/order_book.sol",
  "type": "contract"
}