{
  "abi": [
    {
      "inputs": [
        {
          "internalType": "uint256",
          "name": "optionId",
          "type": "uint256"
        },
        {
          "internalType": "uint256",
          "name": "price",
          "type": "uint256"
        },
        {
          "internalType": "uint256",
          "name": "totalPremium",
          "type": "uint256"
        }
      ],
      "name": "buyOption",
      "outputs": [],
      "stateMutability": "nonpayable",
      "type": "function"
    },
    {
      "inputs": [
        {
          "internalType": "uint256",
          "name": "amount",
          "type": "uint256"
        },
        {
          "internalType": "address",
          "name": "tokenAddress",
          "type": "address"
        }
      ],
      "name": "deposit",
      "outputs": [
        {
          "internalType": "bool",
          "name": "",
          "type": "bool"
        }
      ],
      "stateMutability": "nonpayable",
      "type": "function"
    },
    {
      "inputs": [
        {
          "internalType": "uint256",
          "name": "optionId",
          "type": "uint256"
        }
      ],
      "name": "exerciseOption",
      "outputs": [
        {
          "internalType": "uint256",
          "name": "",
          "type": "uint256"
        }
      ],
      "stateMutability": "nonpayable",
      "type": "function"
    },
    {
      "inputs": [
        {
          "internalType": "address",
          "name": "tokenAddress",
          "type": "address"
        }
      ],
      "name": "getBalance",
      "outputs": [
        {
          "internalType": "uint256",
          "name": "",
          "type": "uint256"
        }
      ],
      "stateMutability": "nonpayable",
      "type": "function"
    },
    {
      "inputs": [
        {
          "internalType": "uint256",
          "name": "optionId",
          "type": "uint256"
        }
      ],
      "name": "getOptionBalance",
      "outputs": [
        {
          "internalType": "uint256",
          "name": "",
          "type": "uint256"
        }
      ],
      "stateMutability": "nonpayable",
      "type": "function"
    },
    {
      "inputs": [
        {
          "internalType": "uint256",
          "name": "optionId",
          "type": "uint256"
        },
        {
          "internalType": "uint256",
          "name": "amount",
          "type": "uint256"
        }
      ],
      "name": "sellOption",
      "outputs": [],
      "stateMutability": "nonpayable",
      "type": "function"
    },
    {
      "inputs": [
        {
          "internalType": "uint256",
          "name": "amount",
          "type": "uint256"
        },
        {
          "internalType": "address",
          "name": "tokenAddress",
          "type": "address"
        }
      ],
      "name": "withdraw",
      "outputs": [
        {
          "internalType": "bool",
          "name": "",
          "type": "bool"
        }
      ],
      "stateMutability": "nonpayable",
      "type": "function"
    }
  ],
  "bytecode": "608060405234801561001057600080fd5b50610210806100206000396000f3fe608060405234801561001057600080fd5b506004361061007c5760003560e01c8063aaa1fc8c1161005b578063aaa1fc8c146100ce578063d1892904146100e3578063f52f2526146100ac578063f8b2cb4f146100f557600080fd5b8062f714ce146100815780636e553f65146100815780636f9b7079146100ac575b600080fd5b61009761008f366004610125565b600092915050565b60405190151581526020015b60405180910390f35b6100c06100ba366004610151565b50600190565b6040519081526020016100a3565b6100e16100dc36600461016a565b505050565b005b6100e16100f1366004610196565b5050565b6100c06101033660046101b8565b50600090565b80356001600160a01b038116811461012057600080fd5b919050565b6000806040838503121561013857600080fd5b8235915061014860208401610109565b90509250929050565b60006020828403121561016357600080fd5b5035919050565b60008060006060848603121561017f57600080fd5b505081359360208301359350604090920135919050565b600080604083850312156101a957600080fd5b50508035926020909101359150565b6000602082840312156101ca57600080fd5b6101d382610109565b939250505056fea2646970667358221220c088bd9af89fe6cca2c7d2fd36eec0b60e1db7fe450fac856eaa202f3ae8721964736f6c634300080a0033",
  "bytecodeSha1": "c27b1a1166cc9055a536c236677baa82ad97b4c4",
  "compiler": {
    "evm_version": "istanbul",
    "optimizer": {
      "enabled": true,
      "runs": 200
    },
    "version": "0.8.10+commit.fc410830"
  },
  "contractName": "Snowman",
  "language": "Solidity",
  "natspec": {
    "kind": "dev",
    "methods": {},
    "version": 1
  },
  "opcodes": "PUSH1 0x80 PUSH1 0x40 MSTORE CALLVALUE DUP1 ISZERO PUSH2 0x10 JUMPI PUSH1 0x0 DUP1 REVERT JUMPDEST POP PUSH1 0x4 CALLDATASIZE LT PUSH2 0x7C JUMPI PUSH1 0x0 CALLDATALOAD PUSH1 0xE0 SHR DUP1 PUSH4 0xAAA1FC8C GT PUSH2 0x5B JUMPI DUP1 PUSH4 0xAAA1FC8C EQ PUSH2 0xCE JUMPI DUP1 PUSH4 0xD1892904 EQ PUSH2 0xE3 JUMPI DUP1 PUSH4 0xF52F2526 EQ PUSH2 0xAC JUMPI DUP1 PUSH4 0xF8B2CB4F EQ PUSH2 0xF5 JUMPI PUSH1 0x0 DUP1 REVERT JUMPDEST DUP1 PUSH3 0xF714CE EQ PUSH2 0x81 JUMPI DUP1 PUSH4 0x6E553F65 EQ PUSH2 0x81 JUMPI DUP1 PUSH4 0x6F9B7079 EQ PUSH2 0xAC JUMPI JUMPDEST PUSH1 0x0 DUP1 REVERT JUMPDEST PUSH2 0x97 PUSH2 0x8F CALLDATASIZE PUSH1 0x4 PUSH2 0x125 JUMP JUMPDEST PUSH1 0x0 SWAP3 SWAP2 POP POP JUMP JUMPDEST PUSH1 0x40 MLOAD SWAP1 ISZERO ISZERO DUP2 MSTORE PUSH1 0x20 ADD JUMPDEST PUSH1 0x40 MLOAD DUP1 SWAP2 SUB SWAP1 RETURN JUMPDEST PUSH2 0xC0 PUSH2 0xBA CALLDATASIZE PUSH1 0x4 PUSH2 0x151 JUMP JUMPDEST POP PUSH1 0x1 SWAP1 JUMP JUMPDEST PUSH1 0x40 MLOAD SWAP1 DUP2 MSTORE PUSH1 0x20 ADD PUSH2 0xA3 JUMP JUMPDEST PUSH2 0xE1 PUSH2 0xDC CALLDATASIZE PUSH1 0x4 PUSH2 0x16A JUMP JUMPDEST POP POP POP JUMP JUMPDEST STOP JUMPDEST PUSH2 0xE1 PUSH2 0xF1 CALLDATASIZE PUSH1 0x4 PUSH2 0x196 JUMP JUMPDEST POP POP JUMP JUMPDEST PUSH2 0xC0 PUSH2 0x103 CALLDATASIZE PUSH1 0x4 PUSH2 0x1B8 JUMP JUMPDEST POP PUSH1 0x0 SWAP1 JUMP JUMPDEST DUP1 CALLDATALOAD PUSH1 0x1 PUSH1 0x1 PUSH1 0xA0 SHL SUB DUP2 AND DUP2 EQ PUSH2 0x120 JUMPI PUSH1 0x0 DUP1 REVERT JUMPDEST SWAP2 SWAP1 POP JUMP JUMPDEST PUSH1 0x0 DUP1 PUSH1 0x40 DUP4 DUP6 SUB SLT ISZERO PUSH2 0x138 JUMPI PUSH1 0x0 DUP1 REVERT JUMPDEST DUP3 CALLDATALOAD SWAP2 POP PUSH2 0x148 PUSH1 0x20 DUP5 ADD PUSH2 0x109 JUMP JUMPDEST SWAP1 POP SWAP3 POP SWAP3 SWAP1 POP JUMP JUMPDEST PUSH1 0x0 PUSH1 0x20 DUP3 DUP5 SUB SLT ISZERO PUSH2 0x163 JUMPI PUSH1 0x0 DUP1 REVERT JUMPDEST POP CALLDATALOAD SWAP2 SWAP1 POP JUMP JUMPDEST PUSH1 0x0 DUP1 PUSH1 0x0 PUSH1 0x60 DUP5 DUP7 SUB SLT ISZERO PUSH2 0x17F JUMPI PUSH1 0x0 DUP1 REVERT JUMPDEST POP POP DUP2 CALLDATALOAD SWAP4 PUSH1 0x20 DUP4 ADD CALLDATALOAD SWAP4 POP PUSH1 0x40 SWAP1 SWAP3 ADD CALLDATALOAD SWAP2 SWAP1 POP JUMP JUMPDEST PUSH1 0x0 DUP1 PUSH1 0x40 DUP4 DUP6 SUB SLT ISZERO PUSH2 0x1A9 JUMPI PUSH1 0x0 DUP1 REVERT JUMPDEST POP POP DUP1 CALLDATALOAD SWAP3 PUSH1 0x20 SWAP1 SWAP2 ADD CALLDATALOAD SWAP2 POP JUMP JUMPDEST PUSH1 0x0 PUSH1 0x20 DUP3 DUP5 SUB SLT ISZERO PUSH2 0x1CA JUMPI PUSH1 0x0 DUP1 REVERT JUMPDEST PUSH2 0x1D3 DUP3 PUSH2 0x109 JUMP JUMPDEST SWAP4 SWAP3 POP POP POP JUMP INVALID LOG2 PUSH5 0x6970667358 0x22 SLT KECCAK256 0xC0 DUP9 0xBD SWAP11 0xF8 SWAP16 0xE6 0xCC LOG2 0xC7 0xD2 REVERT CALLDATASIZE 0xEE 0xC0 0xB6 0xE SAR 0xB7 INVALID GASLIMIT 0xF 0xAC DUP6 PUSH15 0xAA202F3AE8721964736F6C63430008 EXP STOP CALLER ",
  "sha1": "c734b40112a51b16f38bf31b90fb788807ae890e",
  "source": "// SPDX-License-Identifier: MIT\n\npragma solidity >=0.8.7 <0.9.0;\n\ncontract Snowman {\n    struct Option {\n        uint256 id; // i.e. 1\n        address sourceTokenAddress; //usdc\n        address targetTokenAddress; //weth\n        uint256 strike; // 3300 Price in USD (18 decimal places) option allows buyer to purchase tokens at\n        uint256 expiry; // +30sec Unix timestamp of expiration time\n        uint256 supply; //  no. of option x strike\n        uint256[] order; // order book sequence pointer, low bid to high bid\n    }\n\n    function deposit(uint256 amount, address tokenAddress)\n        external\n        returns (bool)\n    {\n        // Require token is either WETH or USDC\n    }\n\n    function withdraw(uint256 amount, address tokenAddress)\n        external\n        returns (bool)\n    {\n        // Require token is either WETH or USDC\n    }\n\n    function getBalance(address tokenAddress) public returns (uint256) {\n        // Require token is either WETH or USDC\n    }\n\n    // optionId = 1\n    // price = 380usd (if current eth price = 3800, 380 means 10%)\n    // if totalPremium = 1900 means you bought 5 x 380 option, ie: at expiry, you can sell 5 ETH at strike\n    function buyOption(\n        uint256 optionId,\n        uint256 price,\n        uint256 totalPremium\n    ) public {}\n\n    // if you sell 5x ETH option and ETH = 3800, then amount = 5x 3800 = 19000; aka: fully collateralized, full loss\n    function sellOption(uint256 optionId, uint256 amount) public {}\n\n    function exerciseOption(uint256 optionId) public returns (uint256) {\n        return 1;\n    }\n\n    // appox supply, because ETH price is change every second\n    function getOptionBalance(uint256 optionId) public returns (uint256) {\n        return 1;\n    }\n}\n",
  "sourcePath": "contracts/Snowman.sol",
  "type": "contract"
}